:020000040000FA
:0600000002011D0221C4F3
:03002B00021C387C
:03003300021C0D9F
:0300530002223A4C
:03006B00021BE293
:10008300022073E5C754F84401F5C7790122000043
:100093000080FB120086B90003020107E47921788E
:1000A30008B800028004F709D8FCE479297802B87B
:1000B30000028004F709D8FCE4900281782E7908C5
:1000C3008002F0A3D8FCD9FA781A90014D7A01BACC
:1000D30000028007E493A3F608DAF99009AEAA8236
:1000E300AB8390014E78EE79038015E493A3AC8241
:1000F300AD838A828B83F0A3AA82AB838C828D83A8
:10010300D8E9D9E77582BE7583D5740312012F75BB
:100113008291758300740012012F75D00075813FA1
:10012300751881751902759F00020096C09FF59F8F
:10013300E473D09F22D083D082C09FE493C0E07445
:100143000193C0E0740293F59F2201FFFF1101990F
:10015300010F1264040102C08F010000BD8E02BAB8
:100163008F010000B50902F48F010000B60902B83F
:100173008F030000A60202F28F010000B7090809ED
:1001830043474D2053696D02010505021F180A18E4
:1001930043474D2053696D756C61746F72000000A5
:1001A3000000000000E8030130000095341290784D
:1001B30056001403030801DF07EC003412A3050003
:1001C300001002020A020200282802C08F01000068
:1001D300B58F02BA8F010000240A02EE8F000000DF
:1001E300F80202B88F030000F20202BA8F01000086
:1001F300250A02EC8F010000F90202BA8F01000008
:10020300260A02EA8F010000FA0202BA8F030000F5
:10021300270A02E88F030000FB0202BA8F030000E3
:10022300280A02E68F030000290A02BA8F0300009E
:100233002B0A02E48F030000020302B88F030000BD
:10024300FC0202BA8F0300002C0A02E28F030000B3
:10025300090302B88F030000030302020202020231
:10026300020202010D000000100102C08F01000014
:10027300AC8F02BA8F010000BD0A02DC8F010000BF
:100283000A0302BA8F010000BE0A02DA8F010000DE
:10029300CE8E02BA8F010000BF0A02D88F01000080
:1002A300D58E02BA8F010000C00A02D68F0100006A
:1002B300448F02BA8F010000C10A02D48F010000EB
:1002C300488F02BA8F010000C20A02D28F010000D8
:1002D3004C8F02BA8F010000C30A02D08F010000C5
:1002E300508F02BA8F010000C40A02CE8F010000B2
:1002F300AF8E02BA8F010000C50A02CC8F01000045
:10030300C60A01E803053F100AFF00013075030226
:1003130001060000000000000000000000000000D3
:100323000000000000000000000000000000FFFFCC
:100333000600800CE803FF0000B40000280028003A
:10034300283075A000A000A000A00000080008E06D
:1003530001F00010001000100010001000100050F9
:10036300005000500010001000D0070000000000F3
:10037300000F000100050030750700100001008127
:10038300FF00000000FFD10AEF0AD70AFF020202B2
:1003930008025000A0000000E80302C08F01000023
:1003A300B28F02BA8F010000F00B02FA8F01000036
:1003B300DF0402BA8F010000F10B02F68F01000087
:1003C300F50402BA8F010000F20B02E08F01000076
:1003D300F70402BA8F010000F30B02C28F0800007A
:1003E300F80402BA8F010000F40B02C88F01000069
:1003F300F50BFFFF0100FF2002C08F010000AF8F4C
:1004030002BA8F0100005A0C02CA8F0000000000DC
:1004130002B88F03000087053D113D113D113D11C9
:100423003D113D113D113D113D113D113D113D1159
:100433003D11191431141314120138C5E4021201C9
:1004430038DAE40212013832E50212013899E50282
:10045300120138E1E50212013857E602120138862B
:10046300E60212013894E602120138F8E60212019C
:100473003836E70212013851E702120138E9E70280
:1004830012013892E80212013815E9021201384EBE
:10049300E902120138D9E90212013830EA021201E5
:1004A300388FEA02120138A1EA02120138C7EA02C0
:1004B300120138D0EA021201382FEC021201380D72
:1004C300D403120138B7AD0312013896AE031201FB
:1004D30038F2AE031201380CAF031201382CAF030C
:1004E300120138F7C1031201383CC20312013882EA
:1004F300C20312013815C4031201382FFF01120180
:10050300384AFF011201385AFF01120138B1FF01C5
:1005130012013800800312013820800312013824AD
:100523008103120138708103120138908103120193
:1005330038E3810312013850820312013896820393
:10054300120138FA8203120138AC8503120138FB19
:10055300CC031201382BCD031201385BCD031201FA
:10056300387BCD03120138D5CD03120138DDB0033A
:1005730012013812B10312013801B203120138E536
:10058300B2031201389BB30212013897B50212016C
:10059300381AB60212013854B602120138E7B6020D
:1005A300120138B0B7021201383AB902120138B059
:1005B300B902120138E1B902120138F0BA0212018C
:1005C300381DBB02120138548B03120138BD8B0353
:1005D300120138D08B03120138218C0312013880A9
:1005E3008C03120138C58D03120138ED8F031201FC
:1005F3003803FB0212013828FB0212013863FB02A5
:10060300120138B0D4031201384028001201384EC9
:100613002B001201380E2D00120138B92D001201E2
:10062300385D2E00120138F62E00120138252F00F6
:10063300120138912F001201386B34001201381661
:100643003500120138863600120138EE36001201E9
:1006530038A23700120138643A00120138A33A0075
:10066300120138173B00120138763B00120138D5CE
:100673003B00120138443C00120138373D0012019F
:10068300387D3D00120138C23D00120138E53D00BE
:10069300120138603F00120138733F001201387CA9
:1006A3004000120138BB4000120138E7400012013C
:1006B300383A41001201385B41001201389F410072
:1006C300120138F14300120138324400120138DDBF
:1006D30044001201384845001201388546001201D2
:1006E300388CD1031201389DD1031201387BD20318
:1006F3001201384EBF03120138E9C1031201383623
:10070300D6031201383DCE031201384DCE03120138
:100713003864CE0312013869CF03120138E8B603F7
:100723001201388EB703120138AAB90312013858DF
:10073300C60312013888C603120138F8C603120132
:10074300381CC70312013878C703120138F3C703F3
:1007530012013830C80312013833C803120138516B
:10076300D60312013863D60312013866D603120189
:1007730038F87F00120138A1BC0312013898BE0378
:1007830012013804BF031201384BBF031201385959
:10079300C403120138C2C40312013880C503120115
:1007A30038FFC503120138A2A203120138D4A203F1
:1007B300120138DCA30312013801A503120138BD6D
:1007C300A503120138B0BE0212013896BF0212010E
:1007D30038E3BF0212013826C0021201389BC0025F
:1007E300120138FCC00212013871C1021201384DE6
:1007F300C20212013858C302120138D9C3021201CE
:100803003880C50212013816C60212013889C602A1
:1008130012013805C7021201381CC70212013853EE
:10082300C802120138ADC802120138FD8F0112014E
:100833003895940112013869970112013892970192
:10084300120138BB97011201386D98011201385318
:100853009A011201388E9B01120138C4A0011201C2
:1008630038FDA00112013841A10112013853A20140
:1008730012013895D003120138ABD003120138DAD4
:10088300D00312013810D10312013827D10312010A
:10089300385ED10312013875D10312013841C80300
:1008A30012013858C80312013889C803120138C429
:1008B300C803120138EEC80312013818C903120124
:1008C300382FC90312013846C9031201385DC90321
:1008D30012013886C90312013899C903120138AFCE
:1008E300C903120138C2C903120138E9C90312014D
:1008F300389B9C021201389F9D02120138CC9D0245
:10090300120138229E02120138459E021201385903
:100913009E021201385B9E021201387E9E02120172
:1009230038849F0212013848A0021201381DA10227
:1009330012013898A1021201389BA1021201382337
:10094300A2021201385EA20212013895A20212011C
:100953003823A302120138FCA302120138FFA302B9
:100963001201385FA4021201386AA402120138E9A5
:10097300A402120138ECA402120138EFA4021201FE
:1009830038F2A40212013881A5021201388BA502A4
:100993001201389BA502120138CBA502120138D8E7
:1009A300A502120138DBA5021201385CA60212016E
:1009B300384AA702120138FCA70212013803950333
:1009C3001201382B950312013859950312013890FF
:1009D3009503120138EE950312013839960312017B
:1009E30038849603120138C496031201380A970318
:1009F300120138389703120138F59703120138FFB3
:100A030097031201380C98031201383F980312011F
:100A1300380B99031201381799031201382F9903E0
:100A23001201383999031201388BD2031201389914
:100A3300D203120138B1D203120138C9D203120111
:100A4300386CD40112013818D50112013893D5013D
:100A5300120138B4D601120138F0D60112013899C7
:100A6300D70112013880D801120138E4D9011201EB
:100A7300383BDA01120138BCDA01120138ACDB0170
:100A8300120138F9DB011201387FDC01120138B1A0
:100A9300DC01120138C5DE0112013807DF01120142
:100AA3003825DF01120138A8DF011201387CE0018B
:100AB30012013844E101120138E0F302120138B3A4
:100AC300F4021201385CF502120138AFF50212018B
:100AD300385FF602120138EBF602120138D7F7023B
:100AE30012013806F80212013819F90212013861AD
:100AF300F90212013836FA0212013872FA021201AF
:100B0300388EFA021201383AD5031201381EAA03AD
:100B130012013834AA031201385AAA031201387693
:100B2300AB0312013880AB03120138B5AC031201D9
:100B330038ADAD031201382D86031201385D8703EA
:100B4300120138908703120138DA8703120138A1A2
:100B530089031201385DE301120138E1E301120157
:100B6300382AE40112013811E601120138CAE701FB
:100B7300120138A6E8011201385AE9011201389727
:100B8300EC0112013845ED01120138B4EE011201F6
:100B93003846F0011201387EF0011201381BF101D1
:100BA300120138A0B4011201380AB50112013869E3
:100BB300B60112013879B601120138A6B601120145
:100BC30038FDB601120138A6B701120138ADB801DC
:100BD30012013877B901120138D7BA011201381A54
:100BE300BB01120138BFBB011201380CBC01120159
:100BF3003832BC0112013840BE0112013845BE0132
:100C03001201384AC00112013897C0011201380A93
:100C1300C1011201383DC101120138DFC1011201C6
:100C23003888C201120138C0C201120138C3C2019F
:100C33001201380BC3011201384BC301120138A250
:100C4300C301120138C5B903120138D8B90312011F
:100C530038E6B9031201382EBA0312013844BA0335
:100C63001201388BBA031201389FBB031201382CCF
:100C7300BC0312013877BC03120138B946001201D4
:100C830038C54600120138004700120138454700B5
:100C93001201380548001201388B4800120138B799
:100CA3004800120138F048001201382E4B0012019F
:100CB30038124D00120138F84E001201383B500033
:100CC3001201388952001201389B5300120138E691
:100CD3005400120138F65500120138135600120160
:100CE300384E5600120138705600120138D35600A0
:100CF300120138945B00120138295C001201387A22
:100D03005C00120138A15C00120138F35C0012018F
:100D130038115D001201386B5D001201386A5E0004
:100D2300120138EE5E00120138C09903120138CA6D
:100D330099031201380D9A03120138289A031201FC
:100D430038B89A03120138E09A031201381D9B0345
:100D5300120138549B031201387D9B03120138F2B0
:100D63009B03120138079C031201381C9C031201D8
:100D7300384D9C03120138619C03120138869C0391
:100D8300120138C09C03120138EC9C031201386F26
:100D93009D03120138B89D03120138E29D0312012D
:100DA300380D9E031201386FCF03120138EE720023
:100DB3001201381C73001201386A74001201384A98
:100DC3007500120138697500120138E675001201C9
:100DD300382976001201387F7700120138407800F5
:100DE300120138C77A00120138687B001201385E9D
:100DF3007C001201385B7D00120138B57E001201C0
:100E030038407F00120138A0CB0312013809CC030C
:100E13001201385DCC0312013884CC03120138B5BA
:100E2300CC03120138359E03120138A29E0312012E
:100E330038E99E0312013801A003120138FDA00313
:100E4300120138E0A1031201385CDC021201389E62
:100E5300DC0212013870DD0212013849DE02120190
:100E63003843DF0212013825E0021201388EE00216
:100E730012013844E102120138B8E10212013824A8
:100E8300E2021201384DE202120138C7E2021201F6
:100E93003860E302120138C5E302120138DAE302D3
:100EA30012013820E40212013839E4021201389E9B
:100EB300E402120138A1E402120138EFB303120174
:100EC3003817B40312013855B40312013813B503AC
:100ED3001201387AB50312013896B503120138BEF0
:100EE300B503120138EEB503120138FDB503120143
:100EF300387AB603120138A0B6031201388FC40141
:100F03001201382DC60112013848C8011201388474
:100F1300C801120138B1C80112013896C901120182
:100F230038DDC90112013821CA0112013833CA015F
:100F330012013873CA01120138A0CA01120138EB39
:100F4300CA011201382BCB0112013859CB0112010E
:100F530038ABCB011201383BCC01120138D9CE0199
:100F6300120138EFD0011201382DD101120138BE20
:100F7300D20112013803D3011201387AD3011201CD
:100F830038C4D301120138E3D20212013862D3020A
:100F930012013824D90212013833DA021201389BC4
:100FA300DB0212013832DC02120138555F001201F4
:100FB300389E5F00120138CB5F00120138FE5F00DC
:100FC3001201380B60001201381760001201382932
:100FD30060001201381061001201386E61001201C5
:100FE30038A36100120138E662001201383363004E
:100FF300120138576300120138C4630012013882AA
:1010030064001201383B6500120138A86500120123
:10101300385A66001201386A6600120138F1660018
:10102300120138B06700120138DD6700120138562B
:101033006800120138B36800120138FD680012011C
:10104300389369001201385E6A00120138136B008D
:10105300120138886B00120138E96B001201385312
:101063006C001201388C6C001201382E6D001201D5
:10107300383E6E001201387E6E001201389B6E00FE
:10108300120138BA6E00120138016F0012013826BE
:101093006F00120138536F00120138CD6F00120137
:1010A300380E7000120138327100120138E27100FB
:1010B300120138397200120138A37200120138BCD0
:1010C300720012013819C9021201386CC9021201E7
:1010D3003878C9021201384DCA0212013874CA02A3
:1010E300120138AFCA021201381BCB021201385762
:1010F300CB0212013890CB02120138A8CB021201A5
:1011030038FDCB0212013816CC021201385FCC0233
:1011130012013872CC021201388CCC02120138A2AF
:10112300CC02120138D5CD021201381CCF021201B4
:10113300381ED00212013818D102120138ED7F0097
:10114300120138F8F10112013828F201120138F0C6
:10115300F50112013847F70112013810F8011201A5
:101163003890F90112013861FA011201389EFA012F
:10117300120138C1FA01120138FFFA0112013808CD
:10118300FB0112013852FB011201385CFB01120111
:101193003806FC01120138DFFC0112013833FD016E
:1011A30012013895FD01120138E8FD0112013817CB
:1011B300FE0112013854FE0112013813A30112017A
:1011C300387AA60112013880A60112013802AC0157
:1011D3001201387BB00112013851B4011201388475
:1011E300A603120138FAA60312013810A70312014D
:1011F3003851A7031201388BA70312013804A8033F
:101203001201383FA803120138B2A803120138F0C3
:10121300A803120138F9A80312013805A903120122
:101223003821A9031201384CA90312013862A9031A
:101233001201388BA903120138EEA90312013840B9
:1012430090031201385390031201386D9003120179
:1012530038969003120138D990031201381891037C
:10126300120138569103120138BB9103120138D091
:101273009103120138DB9103120138E89103120143
:1012830038FF91031201380D9203120138189203AB
:1012930012013824920312013837920312013842A3
:1012A30092031201386592031201380C9303120161
:1012B300381C9303120138369303120138539303F6
:1012C3001201386F93031201389493031201389F6C
:1012D3009303120138B49303120138C89303120124
:1012E300382994031201382F9403120138359403DB
:1012F3001201383B940312013853940312013886C8
:101303009403120138718E02120138F58E02120114
:1013130038A48F0212013803910212013824930278
:1013230012013810940212013845940212013867F1
:1013330094021201381695021201380E9702120117
:1013430038379702120138C99702120138FB970206
:101353001201380898021201385F98021201388589
:101363009802120138F29A02120138F59B02120117
:10137300384D9C021201380080021201380A8102A2
:10138300120138F18102120138FB81021201381D6A
:101393008202120138298202120138C28302120129
:1013A30038F183021201380D850212013866850275
:1013B300120138CC8602120138AB870212013807BA
:1013C3008802120138748802120138AF88021201B0
:1013D30038EE8802120138A78B02120138C18B0242
:1013E3001201384D8C021201385B8C02120138B4A1
:1013F3008C02120138C28C02120138358D0212019F
:1014030038998D02120138E38D021201386DA8025A
:101413001201388FA802120138B5AA02120138CA84
:10142300AD02120138E2AE0212013895AF02120189
:101433003877B002120138FBC90312013820CA03FE
:1014430012013892CA0312013866EC021201386F96
:10145300EC0212013878EC021201384FED0212014E
:101463003800EF0212013836EF0212013870EF0232
:10147300120138A6EF02120138E0EF02120138140C
:10148300F00212013840F00212013889F002120111
:1014930038C3F0021201380CF10212013864F10270
:1014A30012013899F102120138F4F1021201382EB7
:1014B300F2021201387FF202120138B5F202120170
:1014C30038EFF2021201381DF30212013840F30221
:1014D30012013862D3031201388ED303120138E9A3
:1014E300D303120138F3D30312013803D4031201D7
:1014F30038C17F0012013818D603E066701008A3C4
:10150300E066700A08A3E066700408A3E06622C3DD
:10151300E7960809E7960809E7960809E79622C3BC
:10152300E09608A3E09608A3E09608A3E09622C0FD
:1015330008C3E096F50808A3E096420808A3E096DE
:10154300420808A3E09645087001D3D00822080892
:1015530008EAC0E0EBC0E086F0E7A4FA180986F0D9
:10156300E7A42AFA180986F0E7A42AFA180986F0EC
:10157300E7A42AFA1986F0E7A4FBE5F02AFA19088A
:1015830086F0E7A42BFBE5F03AFA190886F0E7A406
:101593002BFBE5F03AFA18180986F0E7A4C5F02BFF
:1015A300FBE43AFA1908E7C5F0C6A426F6E5F03BD2
:1015B300FBE43AFA1886F0E7A4F6E5F00826F6E429
:1015C3003B08F6E43A08F6D0E0FBD0E0FA22E4CF99
:1015D300C0E0E4CEC0E0E4CDC0E0E4CCC0E075F010
:1015E30020C3E633F608E633F608E633F608E633B7
:1015F300F6181818EC33FCED33FDEE33FEEF33FF32
:10160300C3EC9709ED9709EE9709EF97191919405C
:101613000FFFEC97FC09ED97FD09EE97FE191906EC
:10162300D5F0BEECF709EDF709EEF709EFF7191955
:1016330019D0E0FCD0E0FDD0E0FED0E0FF22601640
:10164300080808C6C313C618C613C618C613C61897
:10165300C613C6D5E0EA22700908080822601618E6
:101663001818C6C333C608C633C608C633C608C669
:1016730033C6D5E0EA22E627F60809E637F6080975
:10168300E637F60809E637F622E026F608A3E03641
:10169300F608A3E036F608A3E036F622E026F008C3
:1016A300A3E036F008A3E036F008A3E036F022C347
:1016B300E697F60809E697F60809E697F60809E6B5
:1016C30097F622C3E096F008A3E096F008A3E0960D
:1016D300F008A3E096F022E056F608A3E056F608D9
:1016E300A3E056F608A3E056F622E056F008A3E07E
:1016F30056F008A3E056F008A3E056F022E0F608FF
:10170300A3E0F608A3E0F608A3E0F622E6F008A3B8
:10171300E6F008A3E6F008A3E6F022E0FAA3E0FB74
:10172300A3E0FCA3E0FD22EAF0A3EBF0A3ECF0A31B
:10173300EDF022CAC0E0E6F0A308DAFAD0E0FA221C
:10174300CAC0E0E0A3C582CCC582C583CDC583F002
:10175300A3C582CCC582C583CDC583DAE6D0E0CAF2
:1017630022C3E498F8E499F91217A58026C3E49AF2
:10177300FAE49BFBE920E7E91217A5E498F8E4995A
:10178300F922C3E498F8E499F91217A5E498F8E468
:1017930099F9C3E49AFAE49BFB22EB20E7CFE92013
:1017A300E7E0B90010BB0008E88AF084F8AAF02249
:1017B300E4FBC8FA22EB70227B10C833C8C933C9D3
:1017C300335007C39AC3DBF280069A50012ADBEA3F
:1017D300C833F4C8C933F4C9FA2275F008E4C8332E
:1017E300C8C933C933C99AC99B5004C92AC93BD54F
:1017F300F0ECFBC833F4C8E4C9FA22600D08C6A2B2
:10180300E713C618C613C6D5E0F322600C08C6C397
:1018130013C618C613C6D5E0F422700422600D184F
:10182300C6C333C608C633C6D5E0F418222518103C
:10183300AF08F518400215198008F518400215196C
:10184300D2AF22C0D0251810AF08F51850020519E1
:101853008008F51850020519D2AFD0D0222518F50B
:101863008210AF08F518400215198008F5184002D8
:101873001519D2AF851983222518F582E43519F598
:101883008322E4732518C582C0E0E51934FFC583BC
:10189300C0E0E518C3958224F810AF088583198545
:1018A30082188008858319858218D2AFCEF0A3E50C
:1018B30020F0A37808E608F0A3DEFAEFF0A3E581B1
:1018C30024FAF8E608F0A3E608F0A3E608F0A30874
:1018D30008E608F0A3E608F0A315811581D0E0FE21
:1018E300D0E0F8158115811581E8C0E0EEC0E02253
:1018F3002518C582C0E0E51934FFC583C0E0E518AB
:10190300C3958224F910AF0885831985821880084E
:10191300858319858218D2AFCEF0A3E520F0A37892
:1019230008E608F0A3DEFAEFF0A3E58124FBF8E66E
:1019330008F0A3E608F0A30808E608F0A3E608F019
:10194300A315811581D0E0FED0E0F815811581E85B
:10195300C0E0EEC0E022851983851882E0A3FEE093
:10196300A3F5207808E0A3F608DFFAE0A3FFE0A3DD
:10197300C0E0E0A3C0E0E0A3C0E0E0A3C0E0E0A3D8
:10198300C0E010AF08858218858319800885821806
:10199300858319D2AFD083D082020135851983851F
:1019A3001882E0A3FEE0A3F5207808E0A3F608DFA1
:1019B300FAE0A3FFE0A3C0E0E0A3C0E0E0A3C0E03F
:1019C300E0A3C0E010AF08858218858319800885DD
:1019D3008218858319D2AFD083D08222C0D0251834
:1019E300C582C0E0E51934FFC583C0E0E518C3959F
:1019F3008224F310AF0885831985821880088583B4
:101A030019858218D2AFC8F0A3E9F0A3EAF0A3EBDB
:101A1300F0A37908E709F0A3D8FAECF0A3EDF0A35B
:101A2300EEF0A3EFF0A3D0E0F0A3D0E0F0A3D0E07A
:101A3300F0A3E520F0A3E5F0F0A322851983851830
:101A430082E0C0E0A3E0F9A3E0FAA3E0FBA37808F7
:101A5300E0F608A3DFFAE0FCA3E0FDA3E0FEA3E0C9
:101A6300FFA3E0C0E0A3E0C0E0A3E0F5D0A3E0F56E
:101A730020A3E0A3F5F010AF0885831985821880B1
:101A830008858319858218D2AFD082D083D0E0F83D
:101A9300D0E03274048006740280027401C0E0F462
:101AA30004121860D0E01217362274048004740202
:101AB3008000CCC0E0EDC0E0E518C39CCCAD19506C
:101AC300011D10AF068C188D1980068C188D19D244
:101AD300AF121743D0E0FDD0E0FC22D083D082E9DF
:101AE300C0E0E493A3C386F0C5F095F0F908E4934E
:101AF300A386F0C5F095F0700BE493A3C39940055A
:101B0300E9048002A3E475F002A42582F582E5F0DE
:101B13003583F583D0E0F9E493A3C0E0E493C0E018
:101B230022D083D082ECC0E0EDC0E0E493A3FCE4D8
:101B330093A3FDED4C600D121B70EC24FFFCED3400
:101B4300FFFD80EFE493A3FCE493A3FDED4C600D54
:101B5300121BAFEC24FFFCED34FFFD80EFD0E0FD62
:101B6300D0E0FCE493A3C0E0E493C0E022C0E0C370
:101B7300E49396087401939618400FE493667008F3
:101B830008740193661870007019A3A3C3E49396B5
:101B9300087401939618A3A3400DD0E0D0E0D0E0E1
:101BA300021B60A3A3A3A3A3A3D0E022C0E0C0F0C1
:101BB30088F0E4936670080874019366187000A8AF
:101BC300F0A3A3700BD0F0D0E0D0E0D0E0021B6014
:071BD300A3A3D0F0D0E02233
:101BDC00C2AF02000022C0E074F21219DFA2AFE41F
:101BEC0033FED2AFE589A2E1500312074D7589008F
:101BFC00C2C5751A00EEF8EEA2E092AF7F01021A90
:101C0C003EC0E074F21219DFA2AFE433FED2AFE5AE
:101C1C008BA2E0500312074D758B00C2E8751A00B9
:101C2C00EEF8EEA2E092AF7F01021A3EC0E0C0D007
:101C3C00E8C0E0E9C0E0A2AFE433F8D2AFC2C775A8
:101C4C001A00E8F9E8A2E092AFD0E0F9D0E0F8D0C1
:101C5C00D0D0E03274F51218F3EAFEEBFFEE243428
:101C6C00F8EF3400F988088909EE2435121D8CF838
:101C7C00EE2437121D8CF50AEC850AF0A4FCAAF0B0
:101C8C00850AF0EDA42AFDE82CF8E43DF97A257BD1
:101C9C00001217A5EA850882850983F074075AF8A3
:101CAC007401B800028004C333D8FCFBEA1313138D
:101CBC00541FF8EE28F8EF3400F9E8245DF582E9BA
:101CCC00121D8F5B6003EA801CEE2436121D8CF50E
:101CDC00F0EA84A8F0EE28F8EF3400F9E82438F59F
:101CEC0082E9121D8FF97F0402199F74F51218F303
:101CFC00EAFEEBFFEE2434121D8CC0E0EE2435F529
:101D0C0082EF3400F583D0E0F08E828F83A3A3A3FF
:101D1C00A3A3E0FAA3E0FB8E828F83A3A3A3A3A3C8
:101D2C00A3A3E0FCA3E0FDECC39AF50AED9BF50B35
:101D3C00EE247FF508EF3400F509850882F583E081
:101D4C006401702BEE2480F582EF3400F583121AB7
:101D5C00B1121D957402121846E960137C4A7D0776
:101D6C00EEFAEFFB121065850882850983E4F0AC6E
:101D7C000AAD0BEEFAEFFB121C60122829021CF2C2
:101D8C00F582EF3400F583E022C082C0838518828F
:101D9C00851983E0F8A3E0F9C3EA9CEB9D5010C3CE
:101DAC00EC98ED99401BC3EA98EB995014800EC344
:101DBC00EA98EB994007C3EC98ED994004790180BF
:101DCC00027900D083D08222EAC39CFAEB9DFB22DD
:101DDC0074ED1218F3900610E064086005E06407D7
:101DEC00702C9061C8E0602690063EE0F874FF68A5
:101DFC00601CE875F003A4C8AAF02AF9744028FE08
:101E0C00740639FF8E828F83A3A3A3E0700579003B
:101E1C00021F7CEE2468F510EF3400F51190606021
:101E2C00E0851082851183F0750AB3750B07750870
:101E3C0000750900E5D914F50EE5D95403F50F60CA
:101E4C001CEE2482F50CEF3400F50D7403650F6065
:101E5C0058E50E6013EE2467121D8C700B793DEE65
:101E6C00FAEFFB12108980A69007AEE064016026A1
:101E7C00850C82850D83E0600478048002780085EF
:101E8C000E08E508C398FA95E0FB120F0F8A088B31
:101E9C0009EA450970061212E7021E1A850C8285A2
:101EAC000D83E070048A0A8B0B78008016E5D9C08C
:101EBC00E08812E50A2512F582E50B3400F583D093
:101ECC00E0F008E8C3950E40E4850C82850D83E0B4
:101EDC00602874FC250EF50E780A121A9AAC0EA91D
:101EEC000FEEFAEFFB1211377402121846E9700A62
:101EFC00AA08AB09120795021E697403650F605896
:101F0C00850E0C750D00780C121A9AAC0AAD0BAA42
:101F1C0008AB091210FB7402121846851082851149
:101F2C0083E0F87480687005750C7F8002880CE57E
:101F3C000CF50A780A121A9EE50FF50A780A121A9D
:101F4C009EA90EAC08AD0990063EE0FA7B00120D7E
:101F5C00A774021218468013900610E06408600BF8
:101F6C00AC0AAD0BEEFAEFFB1211CD1212F37901A4
:101F7C007F0C02199F74F31218F374FC121830EAD8
:101F8C00FEEBFF8908A2AFE433F509C2AFEE246380
:101F9C00F50AEF3400F50B8010AA0AAB0B1210B344
:101FAC00120795900751E004F0850A82850B83E0B7
:101FBC00F8A3E0F9E849602FE82402FAE93400FBC1
:101FCC00EA2402F50CEB3400F50D780C121A9A8AFF
:101FDC00828B83E0FCA3E0F9EEFAEFFB1210A774FE
:101FEC0002121846E960B2900751E0605790075210
:101FFC00E0F8900751E0C398500C740265087044E7
:10200C00900753E0603E8E828F83A3A3A3A3E08549
:10201C001882851983122060740212187BE8122032
:10202C0060900750E028F0740212187BAC82AD83EC
:10203C00851882851983AA82AB837901120DB3901E
:10204C000751E4F0E509A2E092AF74041218467F40
:10205C000602199FF0A3E4F0900751E0F82200006B
:10206C008521878522C622C0E074EF1219DFA2AF4A
:10207C00E433FEC2AF759B00906182E0A2E0501287
:10208C00E591A2E0500C7591FE740165217003126C
:10209C001DDCE0A2E55051E591A2E5504B7591DFB6
:1020AC00900610E064076005E06408702374016515
:1020BC00217035790190063EE0FA75F003A4CAA8A8
:1020CC00F028FB74402AFA74063BFB121F8180181F
:1020DC00E0640D7013900632E004F064287002E4A2
:1020EC00F07A00E0F91212F9906182E0A2E6400366
:1020FC0002219AE591A2E6400302219A7591BF90C4
:10210C000610E06405700812120F12121B800312E5
:10211C001215752100121287E9900611F079001240
:10212C00127B120FCF7A017B0090060FE0F912049C
:10213C0095907803E0644270559007B2E014F0700B
:10214C004DC2AF12215200782AD0E0F618D0E0F63A
:10215C00E59F540770057509FF800375097FC4C09E
:10216C00E07829E6F50808E65509F509740B7808B6
:10217C0012180ED0E02508F8906270E0A2E740F843
:10218C00E8C333906272F0906270E0D2E0F090613C
:10219C0081E0A2E35009E5E9A2E3500375E9F7A356
:1021AC00E0A2E75009E591A2E7500375917FEEA2FA
:1021BC00E092AF7F04021A3EC0E0C0D0C082C08360
:1021CC00906183E0A2E05009E5BFA2E0500375BF27
:1021DC00FEE0A2E15009E5BFA2E1500375BFFDE0AE
:1021EC00A2E25009E5BFA2E2500375BFFBE0A2E3F7
:1021FC005009E5BFA2E3500375BFF7E0A2E4500914
:10220C00E5BFA2E4500375BFEFE0A2E55009E5BFBE
:10221C00A2E5500375BFDFE0A2E65009E5BFA2E6D8
:10222C00500375BFBFD083D082D0D0D0E032C0E095
:10223C0074F21219DFE5A7A2E4500FE5A1A2E45055
:10224C000953A7EF75A1EF12228EE5A7A2E5500C5A
:10225C00E5A1A2E5500653A7DF75A1DFE5A7A2E132
:10226C005009E5A1A2E1500375A1FDE5A7A2E2503A
:10227C000CE5A1A2E2500653A7FB75A1FB7F01025E
:10228C001A3E74F81218F3752101900610E06406DA
:10229C0070077A007B001211F7A2AFE433FED2AFC5
:1022AC00900616E0640170187A207B0090060FE00F
:1022BC00F91205377A207B0090060FE0F912049B87
:1022CC00906182E0D2E6F09007AFE0602185C622F3
:1022DC008016900615E064017008E5C654F84405B4
:1022EC00F5C653BEFC12206C7401652160E4EEA2AD
:1022FC00E092AF7F0102199F8E238F24858228855F
:10230C008327851882851983E0CEA3E0CF852882A8
:10231C00852783EBC9EAC8EDCBECCA75F010C3E88E
:10232C0033C8E933C9EA33CAEB33CBC3EA9EF5268B
:10233C00EB9FF525B35004AB25AA26EC33CCED333B
:10234C00CDD5F0DAAE23AF242274E91218F374FA67
:10235C00121830EAFEEBFF8C088D09900610E02471
:10236C00F7C39405500675100102248012116D8A72
:10237C000A8B0BEA450B700302247D12122D8A0C7A
:10238C008B0D12122DEA650C7003EB650D60ECEEF3
:10239C00FCEFFD851882851983AA82AB8312123358
:1023AC00850A82850B83A3A3780C121700908F30BB
:1023BC00780C1216DA851882851983781412170096
:1023CC00908F3078141216DA780C7914121512508A
:1023DC001F780C79141216B2908F38780C121532B3
:1023EC004047850C10850D11850E12850F13804505
:1023FC00908F388514108515118516128517137852
:10240C0010790C1216B27810121532501C7510007F
:10241C00751100751200751301781079141216B22B
:10242C007810790C121679800C75100175110075E5
:10243C0012007513007409781012165A908FA07838
:10244C000C1217007810790C1215D1900610E0645C
:10245C0008600AE064066005E064057020908F3C1B
:10246C0078101215325016908F40781012168C80FE
:10247C000C7510007511007512007513008508821B
:10248C00850983781012170F74061218467F1002F4
:10249C00199F74F71218F31212459007ADE06401FE
:1024AC007010906245E4F0A3F053F4F343FE0C5328
:1024BC0090F31211E5E5C654804449F5C6E59E54E7
:1024CC007F644970F8906185740FF09007ABE0F46D
:1024DC007002A3E0602C7508017509009007ABE051
:1024EC00780812181DE508F4FAA3E0600814600AD5
:1024FC0014600C800DEA52808008EA52908003EA46
:10250C0052A079007F0202199F74F71218F3E9FEAA
:10251C00EAFF74016E700C7A807B0090060FE0F974
:10252C00120495902838E493F46008E493F9120FA0
:10253C00B1800953C680E59E547F70FA1211EB905E
:10254C0007ADE064017003120FE79007ABE0F47085
:10255C0002A3E0602A7508017509009007ABE078CA
:10256C000812181DAA08A3E0600814600A14600C75
:10257C00800DEA42808008EA42908003EA42A01271
:10258C00116D8A088B09A808A909E8496017E5E1CB
:10259C0070FCE82414F582E93400F583E0F874FF4C
:1025AC0068600288E174016F700A7A0190060FE08E
:1025BC00F912050702251074F11218F38A088B0919
:1025CC008C0A8D0B908F3078081216DA740F121853
:1025DC007B780C121700908F30780C1216DA780872
:1025EC00790C121512908F3850107808790C12163D
:1025FC00B278081215324014800E780C7908121635
:10260C00B2780C12153250047901800279007F08DF
:10261C0002199F74ED1218F38A088B098C0A8D0B22
:10262C00908F3078081216DA741312187B780C120B
:10263C001700908F30780C1216DA780C7908121576
:10264C001240117808790C1216B2AA08AB09AC0A20
:10265C00AD0B8022751000751100751200751301F9
:10266C007810790C1216B278107908121679AA1013
:10267C00AB11AC12AD137F0C02199F908F30780800
:10268C001217008A828B8378081216ED7F040219C8
:10269C009F74F51218F38C828D8378081217008AB8
:1026AC00828B8378081216C61226F1C3E098F0A329
:1026BC00E0991226E3401E908F5C78081217008A6E
:1026CC00828B83780812169F8E828F83E02420F0F1
:1026DC00A3E0344EF080A4F08E828F83C3E094206C
:1026EC00A3E0944E22EA2404F8EB3400F9E8FEE966
:1026FC00FF8C828D83A3A3A3A3E0F8A3E0F98E82C1
:10270C008F832274F51218F3E9FE900765E0FAA3A3
:10271C00E0FBEEC333F8E433F9749F28F582748E32
:10272C0039F583E02AF508A3E03BF5097808121A7D
:10273C009A908F6012171E12230474021218468A84
:10274C00088B098C0A8D0B74107808121641AA0894
:10275C00AB097F0402199F74F11218F38A0C8B0DCC
:10276C008C0E8D0F740F12187BE0FAA3E0FB741122
:10277C0012187BE0F508A3E0F5097808121A9AEA1A
:10278C002401F508EB3400F509E4F50AF50B780C97
:10279C007908121551908F847808121700780C79EB
:1027AC0008121551AA0CAB0DAC0EAD0F122304740C
:1027BC00021218468B09EA450960047A0180027AF4
:1027CC0000EC2AFCED3400FD741312187BE0F8A326
:1027DC00E0F9E8FEE9FFECF8EDF97A717B021217EB
:1027EC00A588088909E4F50AF50B8E828F83780891
:1027FC0012170FECF8EDF97A717B021217A58A0803
:10280C008B097405780812181D8E828F83A3A3A3DD
:10281C00A3E508F0A3E509F07F0802199FC082C068
:0B282C0083E9906000F0D083D082228E
:10283800FFFFFFFFFFFFFFFF74EE12188774FA1205
:1028480018308A0A8B0B8909ECFEEDFF75080085A4
:102858000A0C850B0D780C121ADE000410192B894E
:1028680028AA28C928EA280B292C295F2980299712
:1028780029C529832AA42AC42AEE2A192B192BF040
:10288800297401650970158E828F83E0C394035003
:102898000B8E828F83E0900B65F080037508180219
:1028A8002B427402650970138E828F83E0F8A3E0CF
:1028B800F9900B66E8F0A3E9F08003750818022B7D
:1028C800427401650970158E828F83E0C3940250AB
:1028D8000B8E828F83E0900313F080037508180233
:1028E8002B427401650970158E828F83E0C39405AD
:1028F800500B8E828F83E0900314F08003750818C4
:10290800022B427401650970158E828F83E0C3948F
:1029180002500B8E828F83E0900315F080037508B8
:1029280018022B42741065097027750C10750D007C
:10293800780C121A9AEEFCEFFD7A167B031204410A
:1029480074021218468A0C8B0D850C82850D8380C3
:1029580003750818022B427401650970158E828F61
:1029680083E0C39402500B8E828F83E0900326F09D
:102978008003750818022B4274016509700B8E825A
:102988008F83E0900B69F08003750818022B42745E
:102998000465097022908F60780C1217008E828F60
:1029A80083780C121522500F8E828F8312171E9077
:1029B800032812172A8003750818022B42E50970AC
:1029C80021120B1FE97013120687E9F50C795012D2
:1029D8000825E9F50D120675800B9003BB7401F00C
:1029E8008003750818022B42740765096003022AE0
:1029F8007D750E06750F00780E121A9A8E828F83D7
:102A0800A3AC82AD83740212187BAA82AB83120432
:102A18004774021218468A108B1185100E85110F03
:102A28007C007D00851882851983AA82AB838E82FB
:102A38008F83E0F9120615E9F50CE50CC3940A50EA
:102A48002F120B1FE97015A90C12068DE9F50D79E7
:102A580050120825E9F50E120675801C750D0074D4
:102A6800BC250CF5827403350DF5837401F08008DC
:102A78007508028003750818022B427401650970F5
:102A8800158E828F83E0C39402500B8E828F83E071
:102A9800900327F08003750818022B42740165091A
:102AA80070158E828F83E0C3940A500B8E828F83B9
:102AB800E0900B68F08003750818807E7401650942
:102AC800701F8E828F83E0C3940740158E828F8398
:102AD800E0C39411500B8E828F83E0900B6AF080D4
:102AE8005975081880547401650970209003BAE07C
:102AF800F50C8E828F83E09003BAF0E50C703B9062
:102B080003BAE064017033120675802E75081880C8
:102B180029C3E50A9427E50B9400501B7402650944
:102B280070158E828F83E0FCA3E0FDAA0AAB0B121E
:102B380009BDE9F5088003750802A908740612188A
:102B4800467F0A02195974EC12188774DA12183081
:102B5800890D8A128B138C0A8D0B743A12187BE03C
:102B6800F50C908EEEC082C083851882851983ACDF
:102B780082AD83D083D0827406121743851882856C
:102B88001983AC82AD83AA12AB13A90D120615E9FD
:102B9800FEEEC3940A4003022CEDEEF9120657E943
:102BA800FF900B65E064027004740180027400F504
:102BB800087808121A9EAD0CEFFCEEF9AA0AAB0BC6
:102BC8001206C974011218467C147D00790074122B
:102BD80012187BAA82AB831204598A0E8B0F850EBA
:102BE80008850F09741212187BAC82AD837A1075B0
:102BF800F006EEA42424F912081FE970437C10792A
:102C0800FF741212187BAA82AB831204B9E97030E0
:102C1800742212187BAC82AD837A0475F006EEA498
:102C28002425F912081FE9F508741212187BAC82E2
:102C3800AD83EFA2E0E433F9AA0AAB0B120A47E925
:102C4800740612187BAC82AD837A0C74702EF9125C
:102C5800081FE9707E740612187BAA82AB831206DD
:102C68004B750E00E50EC394045068E50EA80E7966
:102C780000E875F003A4C8AAF075F000A42AFA7554
:102C8800F003E9A42AF9740612187BE58228F508EE
:102C9800E58339F509850882850983E0F8A3E0F919
:102CA800E849602B850882850983A3A3E0F51075A0
:102CB80011007810121A9A850882850983E0FCA30E
:102CC800E0FDAA0AAB0B120CF97402121846E905CA
:102CD8000E8091EFA2E1500D900312E0F9AA0AAB21
:102CE8000B120CFFE97404650C700F900B65E0641F
:102CF800027007AA0AAB0B1206C3790074261218D1
:102D0800467F0C02195974F2121887890BEAFEEBF8
:102D1800FF8C088D09750A0AE50B600C146009140C
:102D28006044146064022DB2EEFAEFFB120669E902
:102D3800F50AE50AC3940A5071E5084509606B7500
:102D48000C06750D00780C121A9AEEFCEFFDAA0815
:102D5800AB0912044174021218468A0C8B0D850CBB
:102D680082850D838044EEFAEFFB120663E9F50ACB
:102D7800E50AC3940A5033E5084509602DAA08AB53
:102D880009A90A12065DE98021EEFAEFFB12066F27
:102D9800E9F50AE50AC3940A5010E5084509600AEE
:102DA800AA08AB09A90A12065DE9A90A7F06021951
:102DB8005974F21218878A0C8B0DE9FE7F1574FF7F
:102DC800650C700474FF650D702A750800E508C36A
:102DD800940A5014EEFC7A027B00A908120639E91D
:102DE80060027F00050880E5EE60637AB17B061219
:102DF8000EF1805AAA0CAB0D120ED38A0A8B0B85E2
:102E08000A08850B09E508450960417C007D00E555
:102E1800082405FAE5093400FB850882850983A39F
:102E2800A3A3A3E0F9120615E9F50AE50AC3940A73
:102E3800500EEEFC7A027B00A90A120639E97F00DF
:102E4800EE600BAA08AB091206B180027F14EFF9F5
:102E58007F0602195974EE1218878A0E8B0F8C0A96
:102E68008D0B741212187BE0F50CA3E0F50D7508B4
:102E78001574FF650E700474FF650F701E7E00EEFA
:102E8800C3940A5062AC0CAD0DAA0AAB0BEEF91252
:102E9800063FE960037508000E80E4AA0EAB0F1226
:102EA8000ED38A108B11AE10AF11EE4F60367C0036
:102EB8007D00EE2405FAEF3400FB8E828F83A3A3F6
:102EC800A3A3E0F9120615E9F509E509C3940A5028
:102ED80016AC0CAD0DAA0AAB0BA90912063FE97591
:102EE80008008003750814A9087F0A02195974F7A5
:102EF800121887EAFEEBFF90032CEEF0A3EFF09098
:102F08000312E0FC7D007A267B001209BDE9F50872
:102F1800900312E0F9120C7B7F0102195974EE122A
:102F280018878A108B11E9FE741212187B780C121C
:102F380017007F00EE7041850C08850D09850E0A83
:102F4800850F0B908F60780C1217007808790C1297
:102F580015D17810121A9AAA0CAB0DAC0EAD0F123F
:102F68000A597402121846E9FFEF60167901AA108F
:102F7800AB11120A53E9800AEEF9AA10AB11120A32
:102F880053E9EFF97F0A02195974F212188774ECA1
:102F98001218308A0A8B0B850A82850B83A3A3E05B
:102FA80024FA70030233F124FD70030232671470AF
:102FB8000302308414601024FD700302320F147071
:102FC800030232A702345FAE0AAF0B90032CE0F87D
:102FD800A3E0F9E849606990032CE0F8A3E0F583E1
:102FE8008882E0F8A3E0F9E8496055EE240CF58200
:102FF800EF3400F583E0F5087808121A9EEE240BEA
:10300800F582EF3400F583E0F98E828F83A3A3A3C2
:10301800A3A3A3A3A3A3E0FCA3E0FDEE2403FAEF7C
:103028003400FB90032CE0F8A3E0F5838882E0F8F5
:10303800A3E0F58388821218857401121846803936
:103048008E828F83A3A3A3A3A3A3A3A3A3121AB1BE
:1030580090032812171E120A597402121846E960C2
:103068001879018E828F83A3A3A3A3A3A3A3A3A3E9
:10307800E0FAA3E0FB120A53E902345FAE0AAF0B91
:103088008E828F83A3E060030231BD8E828F83A37B
:10309800A3A3A3A3E0A2E040030231BD9003C6E0CE
:1030A800F8A3E0F9E84960030231BD7C0E7D0079A0
:1030B80000851882851983AA82AB831204598A086D
:1030C8008B09AA08AB09EE240CF582EF3400F583CE
:1030D800E0F8A3E0F9E849603B750806750900784F
:1030E80008121A9AEE240CF582EF3400F583E024D6
:1030F80010FCA3E03400FD740212187BAA82AB8393
:1031080012044174021218468A088B0985088285C0
:10311800098380548E828F83A3A3A3E0FAA3E0FBE4
:10312800120ED38A0C8B0D850C08850D09E5084510
:10313800096032750C06750D00780C121A9AE508AC
:103148002405FCE5093400FD740212187BAA82AB41
:103158008312044174021218468A0C8B0D850C8266
:10316800850D83800302345F8E828F83A3A3A3A37C
:10317800A3E0A2E25004D2F08002C2F0A2F0E4334D
:10318800F87900740C12187BE048F0A3E049F0EEDF
:10319800FCEFFD851882851983AA82AB831206513C
:1031A800E970127A027B00900312E0F9120495E9A3
:1031B800790002346190032CE0F8A3E0F9E8496053
:1031C8004390032CE0F8A3E0F5838882A3A3E0F8FA
:1031D800A3E0F9E849602D8E828F83A3E0FC790192
:1031E8008E828F83A3A3A3E0FAA3E0FB90032CE0D5
:1031F800F8A3E0F5838882A3A3E0F8A3E0F5838829
:103208008212188502345FAE0AAF0B90032CE0F8E7
:10321800A3E0F9E849604590032CE0F8A3E0F583C2
:103228008882A3A3E0F8A3E0F9E849602F850A8221
:10323800850B83A3E0FC79028E828F83A3A3A3E08E
:10324800FAA3E0FB90032CE0F8A3E0F5838882A3BF
:10325800A3E0F8A3E0F583888212188502345FAEF4
:103268000AAF0B7C007D00EE2404FAEF3400FB8EDD
:10327800828F83A3A3A3E0F9120615E9F508E508F0
:10328800C3940A5017EE240AFCEF3400FD7A047543
:10329800F006E508A42425F9120819E902345FAEFE
:1032A8000AAF0B900327E06018900B68E0F98E8254
:1032B8008F83A3A3A3E0FAA3E0FB120A53E9023425
:1032C8005F900B65E0701579058E828F83A3A3A3A9
:1032D800E0FAA3E0FB120A53E902345F8E828F837F
:1032E800A3A3A3E0FAA3E0FB120ED38A0C8B0D85EF
:1032F8000C08850D098E828F83A3A3A3A3A3A3A380
:10330800E0A2E05075E5084509606C8508828509EA
:1033180083A3A3A3A3E060628E828F83A3A3A3A346
:10332800A3A3A3A3A3E0F8A3E0F9E8C4540FF87992
:10333800005401F8E95400F9E8A2E0403D740E1287
:10334800187BAC82AD83E5082405FAE5093400FB57
:10335800850882850983A3A3A3A3E0F9120615E9CA
:10336800701879038E828F83A3A3A3E0FAA3E0FBEE
:10337800120A53E902345F02345FEE2405FCEF348D
:1033880000FD850882850983A3A3A3A3E0F98E82A3
:103398008F83A3A3A3E0FAA3E0FB1206BD90032C3E
:1033A800E0F8A3E0F9E849603E90032CE0F8A3E0D8
:1033B800F5838882A3A3E0F8A3E0F9E84960287CB4
:1033C8000079008E828F83A3A3A3E0FAA3E0FB9089
:1033D800032CE0F8A3E0F5838882A3A3E0F8A3E038
:1033E800F5838882121885806E120B1FE970689029
:1033F80003BBE06401701A120687E9FE9003BB74F0
:1034080000F07C0A7D0079007ABC7B0312045980A5
:103418003C7E00EEC3940A50348E0875090074BCD3
:103428002508F58274033509F583E06401701BEE05
:10343800F912068DE9F88E0875090074BC2508F59F
:103448008274033509F5837400F00E80C679501232
:103458000825E9FE120675790174141218467F06CC
:1034680002195974F312188774F21218308909EA8C
:10347800FEEBFF8C0C851882851983AC82AD837AAC
:103488000E75F006E509A42420F912081FE97072E8
:103498007C0679FF851882851983AA82AB8312047A
:1034A800B9E9705E740C12187BE0F8A3E0F9E8F54E
:1034B80008E50C6005EE42088004EEF45208850821
:1034C8000A750B00740C12187BE0650A7004A3E0FF
:1034D800650B602AE508A8087900740C12187BE5CA
:1034E80008F0A3E9F0851882851983AC82AD837A48
:1034F8000E75F006E509A42420F9120819E97901E6
:1035080080027900740E1218467F0502195974F06A
:1035180012188774E6121830890B8A0C8B0DECFE92
:10352800EDFF740C12187BAC82AD837A0E75F00631
:10353800E50BA42420F912081FE9600302367A7CFF
:103548000679FF740C12187BAA82AB831204B9E9BE
:10355800600302367A851882851983AC82AD837A36
:103568000C7470250BF912081FE960030236767592
:103578000A00851882851983AA82AB8312064BE557
:103588000C450D703A7C0C7900851882851983AA40
:1035980082AB831204B9E960030236507C0C7D00CB
:1035A8007900851882851983AA82AB831204598A07
:1035B800088B09850882850983750A0102365085BA
:1035C8001882851983AC82AD83AA0CAB0D1206450F
:1035D8008A0E8B0F850E08850F09E5084509703698
:1035E800EE4F6021851882851983AC82AD837A00FD
:1035F8007B001206458A0E8B0FA80EA90F88088932
:1036080009E84970047900806B850882850983E59B
:103618000CF0A3E50DF0850882850983A3A3E0F8E3
:103628007900EE687002EF69601EEE8508828509F0
:1036380083A3A3F0EE4F700D85088285098374007B
:10364800F0A37400F0750A01E50A602285188285E6
:103658001983AA82AB8312064B851882851983AC1D
:1036680082AD837A0C7470250BF9120819E9790177
:1036780080027900741A1218467F0802195974F7E3
:10368800121887EAFEEBFF7B00EBC39404504EEB65
:10369800F87900E875F003A4C8AAF075F000A42A28
:1036A800FA75F003E9A42AF9EC28F582ED39F583D7
:1036B800E06E7003A3E06F7021EBF87900E875F015
:1036C80003A4C8AAF075F000A42AFA75F003E9A4C7
:1036D8002AF9EC28FAED39FB80070B80AC7A007BDD
:1036E800007F0102195974F71218877F00EFC394FD
:1036F80004400302379DEFF87900E875F003A4C889
:10370800ACF075F000A42CFC75F003E9A42CF9EAE0
:1037180028F582EB39F583E0F4FCA3E0F4FDEFF83B
:103728007900E875F003A4C8AEF075F000A42EFE89
:1037380075F003E9A42EF9EA28F582EB39F583EC54
:10374800F0A3EDF0EFF87900E875F003A4C8ACF049
:1037580075F000A42CFC75F003E9A42CF9EA28F50F
:1037680082EB39F583A3A3E0F4C0E0EFF87900E831
:1037780075F003A4C8ACF075F000A42CFC75F00338
:10378800E9A42CF9EA28F582EB39F583A3A3D0E064
:10379800F00F0236F57F0102195974F01218877478
:1037A800F4121830EAFEEBFF8C088D099003C6E08E
:1037B800F8A3E0F9E849702CEE4F6006E5084509E2
:1037C80070057901023A5AEEFAEFFB120669E990A0
:1037D8000B6BF0900B6BE0C3940A400812067BE970
:1037E800900B6BF0900B6BE0C3940A4003023A58BD
:1037F8009003C6E0F8A3E0F9E84960030238A4EEB4
:10380800FCEFFD7A0E75F006900B6BE0A42420F90E
:10381800120819E9F50C7C0C7D0079FF8518828562
:103828001983AA82AB831204598A0E8B0F850E0A5C
:10383800850F0B851882851983AC82AD837A0C902D
:103848000B6BE02470F9120819E9F50D750E0E7569
:103858000F00780E121A9AEEFCEFFD900B6BE0F851
:103868007900E875F00EA4C8AAF075F000A42AFA49
:1038780075F00EE9A42AF9742E28FA740339FB129C
:10388800044174021218468A0E8B0FA80EA90F90D5
:1038980003C6E508F0A3E509F0023A549003C6E030
:1038A800F8A3E0C82406F582E83400F583E0F8A31D
:1038B800E0F9E84960439003C6E0F8A3E0C82406AD
:1038C800F582E83400F583E0FCA3E0FD7A1B75F08F
:1038D80006900B6BE0A42421F9120819E9F890036B
:1038E800C6E0F9A3E0C92406F582E93400F583743B
:1038F80000F0A37400F0023A549003C6E0F8A3E085
:10390800C8240AF582E83400F583E0F8A3E0F9E872
:103918004960439003C6E0F8A3E0C8240AF582E8AA
:103928003400F583E0FCA3E0FD7A1B75F006900BEC
:103938006BE0A42422F9120819E9F89003C6E0F90B
:10394800A3E0C9240AF582E93400F5837400F0A3E2
:103958007400F0023A549003C6E0F8A3E0C8240CBF
:10396800F582E83400F583E0F8A3E0F9E84960431C
:103978009003C6E0F8A3E0C8240CF582E83400F50B
:1039880083E0FCA3E0FD7A1075F006900B6BE0A4D1
:103998002423F9120819E9F89003C6E0F9A3E0C94D
:1039A800240CF582E93400F5837400F0A37400F068
:1039B800023A549003C6E0F8A3E0C82408F582E868
:1039C8003400F583E0F8A3E0F9E849606F9003C696
:1039D800E0F8A3E0C82408F582E83400F583E0FCA9
:1039E800A3E0FD7A1075F006900B6BE0A42424F98F
:1039F800120819E9F50A9003C6E0F8A3E0C82408FC
:103A0800F582E83400F583E02410FCA3E03400FDDF
:103A18007A0475F006900B6BE0A42425F9120819B6
:103A2800E9F89003C6E0F9A3E0C92408F582E9346F
:103A380000F5837400F0A37400F080109003BAE0DE
:103A480060031206CF1206B779018006790080025A
:103A58007901740C1218467F0802195974F7121864
:103A68008774F2121830E9FE851882851983AC82B2
:103A7800AD837A0E75F006A42420F912081FE970A8
:103A88000E740C12187BE0F8A3E0F9E8F9800279CB
:103A980000740E1218467F0102195974F41218871F
:103AA80074F21218308909EAFEEBFFE509C3940A9B
:103AB8005004EE4F70047902804B85188285198373
:103AC800AC82AD837A0E75F006E509A42420F912BC
:103AD800081FE9F508E508702A750A06750B0078CD
:103AE8000A121A9A740212187BAC82AD83EEFAEFAE
:103AF800FB12044174021218468A0A8B0B850A824B
:103B0800850B83A908740E1218467F04021959748C
:103B1800F4121887EAFEEBFF750800E508C3940A5B
:103B28005045750A06750B00780A121A9AEEFCEFD2
:103B3800FDE508A8087900E875F00EA4C8AAF07594
:103B4800F000A42AFA75F00EE9A42AF9743428FAC8
:103B5800740339FB1204537402121846E96004A96D
:103B6800088006050880B4790A7F0402195974F49C
:103B7800121887EAFEEBFF750800E508C3940A509F
:103B880045750A06750B00780A121A9AEEFCEFFDC5
:103B9800E508A8087900E875F00EA4C8AAF075F041
:103BA80000A42AFA75F00EE9A42AF9742E28FA74EA
:103BB8000339FB1204537402121846E96004A90879
:103BC8008006050880B4790A7F0402195974F7122F
:103BD800188774F0121830EAFEEBFF750800E50844
:103BE800C3940A504B851882851983AC82AD837AB9
:103BF8001075F006E508A42423F912081FE9702CB3
:103C08007C1079FF851882851983AA82AB831204F8
:103C1800B9E97018EEFCEFFD851882851983AA8230
:103C2800AB83120A29E97004A9088006050880AE4A
:103C3800790A74101218467F0102195974F412187F
:103C480087750800E508C3940A4003023D26E50885
:103C5800A8087900E875F00EA4C8AAF075F000A4C9
:103C68002AFA75F00EE9A42AF9742E28FC7403398F
:103C7800FD7A0E75F006E508A42420F912081FE95C
:103C88007003023D217C067D0079FFE508AA087BC8
:103C980000EA75F00EA4CAA8F075F000A428F8751B
:103CA800F00EEBA428FB742E2AFA74033BFB1204D3
:103CB800598A0A8B0BAE0AAF0B7C067D0079FFE5AB
:103CC80008AA087B00EA75F00EA4CAA8F075F000EF
:103CD800A428F875F00EEBA428FB74342AFA7403B0
:103CE8003BFB1204598A0A8B0BAC0AAD0BE508A8FA
:103CF800087900E875F00EA4C8AAF075F000A42AA7
:103D0800FA75F00EE9A42AF9743A28F58274033991
:103D1800F5837400F0A37400F00508023C4C90038E
:103D2800BAE060031206CF1206B77F04021959746D
:103D3800F71218877E00EEC3940A50327C0679FF8A
:103D4800EEFA7B00EA75F00EA4CAA8F075F000A49C
:103D580028F875F00EEBA428FB742E2AFA74033B9E
:103D6800FB1204B9E96004EEF980050E80C8790AEF
:103D78007F0102195974F71218877E007F00EFC37C
:103D8800940A502F7C0679FFEFFA7B00EA75F00E53
:103D9800A4CAA8F075F000A428F875F00EEBA428C2
:103DA800FB742E2AFA74033BFB1204B9E970010E66
:103DB8000F80CBEEF97F0102195974F71218877E2C
:103DC800007F00EFC3940A500DEE700AEFF9120657
:103DD8008DE9FE0F80EDEEF97F0102195974F0129A
:103DE800188774CB1218308909900B6BE06509703D
:103DF8001D7A017B00900312E0F912049BE97A0214
:103E08007B00900312E0F912049BE91206DB742789
:103E180012187BAC82AD837A0E75F006E509A424EE
:103E280020F912081FE96003023F517C0679FF74EC
:103E38002712187BAA82AB831204B9E96003023FF8
:103E4800517C0E7D0079FF742712187BAA82AB8300
:103E58001204598A0A8B0B850A0C850B0D7C1B7D75
:103E68000079FF740C12187BAA82AB831204598A5A
:103E78000E8B0F850E0A850F0B7C0C7D0079FF8554
:103E88001882851983AA82AB831204598A0E8B0F74
:103E9800AE0EAF0F742712187BAC82AD837A0E7505
:103EA800F006E509A42420F9120819E9F508740CAC
:103EB80012187BAC82AD837A1B75F006E509A42441
:103EC80021F9120819E94208740C12187BAC82AD6A
:103ED800837A1B75F006E509A42422F9120819E96A
:103EE8004208740C12187BAC82AD837A1075F00608
:103EF800E509A42423F9120819E94208740C1218D8
:103F08007BAC82AD837A1075F006E509A42424F908
:103F1800120819E94208740C12187BAC82AD837A36
:103F28000475F006E509A42425F9120819E94208E0
:103F3800851882851983AC82AD837A0C7470250943
:103F4800F9120819E942088003750800A9087435B0
:103F58001218467F0802195974F7121887E9FE905B
:103F68000312F01206757F0102195974F2121887AC
:103F7800890AEAFEEBFFEE5400F8EF5480F9E849AD
:103F88006035900312E0F912047D8A0C8B0DA80CA1
:103F9800A90D88088909E8496012AA08AB09120620
:103FA8009FE96008AA08AB0912046BE9EE6400FAFD
:103FB800EF6480FB024077EE5402602D7C007D00A8
:103FC8007A007B00120651E960187A017B009003A1
:103FD80012E0F9120495E9EE6402FAEF6400FB02BC
:103FE80040777A027B00024077EEA2E0507D900392
:103FF800C6E0F8A3E0F5838882A3A3A3E0FAA3E0D0
:10400800FB1206D5E9605E90032CE0F8A3E0F9E81E
:1040180049604590032CE0F8A3E0F5838882A3A3C8
:10402800E0F8A3E0F9E849602F7C0079019003C625
:10403800E0F8A3E0F5838882A3A3A3E0FAA3E0FB5A
:1040480090032CE0F8A3E0F5838882A3A3E0F8A30B
:10405800E0F58388821218851206DBEE6401FAEF18
:104068006400FB800A7A017B0080047A007B007F71
:104078000602195974F7121887EAFEEBFF75080152
:104088008E828F83E02450601314601924E1701C21
:10409800EEFAEFFB120633E9F5088010EEFAEFFBB3
:1040A8001206A58007EEFAEFFB1206ABA9087F01FE
:1040B80002195974F7121887EAFEEBFF8E828F8374
:1040C800A3A3A3A3E0641E701179008E828F83A33B
:1040D800A3E0FAA3E0FB12061BE97F010219597459
:1040E800F6121887EAFEEBFF8E828F83A3A3A3A3A1
:1040F800E0703A8E088F09850882850983A3A3A3F7
:10410800A3A3A3A3121AB1850882850983A3A3A335
:10411800A3A3E0FCA3E0FD850882850983A3A3E0AF
:10412800FAA3E0FB1206217402121846E97F020284
:10413800195974F7121887EAFEEBFF900312E0F999
:104148008E828F83A3E0FAA3E0FB120CFFE97F01C4
:10415800021959C082C08374FF121830120681E90F
:10416800C39402400B8518828519837402F0800974
:10417800851882851983740AF0851882851983AC9D
:1041880082AD837A017905120B37E974011218465A
:10419800D083D08202013574F212188774E812189D
:1041A80030EAFEEBFF890A8C088D097C187D0079BE
:1041B80000851882851983AA82AB831204598A0C58
:1041C8008B0DAC0CAD0D851882851983EEF0A3EF2D
:1041D800F0900314E0C0E0740212187BD0E0F09075
:1041E8000315E0C0E0740312187BD0E0F0900B6A6E
:1041F800E0C0E0741712187BD0E0F0741512187B39
:10420800E054FEF8A3E054FFF9900B69E0A2E0E463
:1042180033FA7B00E84AF8E94BF9741512187BE881
:10422800F0A3E9F0900B69E0A2E15004D2F080021B
:10423800C2F0741512187BE054FDFAA3E054FFFB9A
:10424800A2F0E433F87900C333F8E933F9EA48F81F
:10425800EB49F9741512187BE8F0A3E9F0900B69A3
:10426800E0A2E35004D2F08002C2F0741512187B69
:10427800E054F7FAA3E054FFFBA2F0E433F50C7521
:104288000D007403780C12181DEA450CF8EB450D67
:10429800F9741512187BE8F0A3E9F0900B69E0A215
:1042A800E45004D2F08002C2F0741512187BE05476
:1042B800EFFAA3E054FFFBA2F0E433F50C750D0010
:1042C8007404780C12181DEA450CF8EB450DF974C6
:1042D8001512187BE8F0A3E9F0900B69E0A2E5500D
:1042E80004D2F08002C2F0741512187BE054DFFA91
:1042F800A3E054FFFBA2F0E433F50C750D00740540
:10430800780C12181DEA450CF8EB450DF9741512D6
:10431800187BE8F0A3E9F0900B69E0A2E25004D220
:10432800F08002C2F0741512187BE054FBFAA3E087
:1043380054FFFBA2F0E433F50C750D007402780C01
:1043480012181DEA450CF8EB450DF9741512187B87
:10435800E8F0A3E9F0900315E0602A750C10750DDC
:1043680000780C121A9A7C167D03740612187BAA20
:1043780082AB8312044174021218468A0C8B0D8595
:104388000C82850D83900326E06012E50A600E74A6
:104398001512187BE04402F0A3E04400F0900326D5
:1043A800E0600678017900800478007900741412BE
:1043B800187BE048F0900313E060067804790080E9
:1043C8000478007900741412187BE048F0AC08AD4A
:1043D80009851882851983AA82AB83120A4DE9746C
:1043E800181218467F0602195974F7121887EAFE40
:1043F800EBFF750800900326E060067801790080DD
:104408000478007900E84208900313E06006780415
:104418007900800478007900E84208A908EEFAEFEC
:10442800FB120B07E97F0102195974EE1218877401
:10443800E51218308A0C8B0DE9FF8C088D09742D54
:1044480012187BE0F50A74086509700A75F006EF22
:10445800A42422FE800875F006EFA42421FE7C1B0C
:104468007D007900851882851983AA82AB8312049E
:10447800598A108B1185100E85110F8518828519A0
:1044880083AC82AD837A1BEEF912081FE9703C7485
:104498001A12187BE0C394074031741A12187BE093
:1044A800C394115026E50AF50B780B121A9E740175
:1044B80012187BAC82AD83E508A2E0E433F9AA0CBC
:1044C800AB0D120A5F7401121846E9741B121846E4
:1044D8007F0A02195974F7121887120D71E97E00C4
:1044E800EEC3940A50557C0679FFEEFA7B00EA7514
:1044F800F00EA4CAA8F075F000A428F875F00EEB29
:10450800A428FB742E2AFA74033BFB1204B9E97041
:1045180027EEF87900E875F00EA4C8AAF075F00047
:10452800A42AFA75F00EE9A42AF9742E28FA74035D
:1045380039FB7900120D77E90E80A57F0102195920
:1045480074F612188774FD121830EAFEEBFF900318
:10455800C8E0F8A3E0F9E84970397508CA75090395
:104568007808121A9A7508027509007808121A9ABA
:104578007508B875098F7808121A9A7CFF7DFF7A3A
:10458800017B00120BC774061218469003C8EAF0A4
:10459800A3EBF09003C8E0F8A3E0F9E84970030240
:1045A8004669E4F508F5097808121A9A740412188D
:1045B8007B8582088583097808121A9A7404121870
:1045C8007B8582088583097808121A9A9003CA1293
:1045D8001AB179029003C8E0FCA3E0FDEEFAEFFB04
:1045E800120CED7408121846E9704A85188285196C
:1045F80083E0FA7B00740112187BE0F87900E4C8C4
:10460800F9EA28F508EB39F509E50845096026783F
:1046180008121A9A9003C8E0F8A3E0F5838882A3E9
:10462800A3A3A3E0FCA3E0FDEEFAEFFB12062174BE
:1046380002121846E9E4F508F5097808121A9A9062
:1046480003CA121AB17CFF7DFF9003C8E0FAA3E009
:10465800FB120BD374041218469003C8EAF0A3EBBC
:10466800F09003C8E0F8A3E0F9E849700479018004
:1046780002790074031218467F02021959C082C0D9
:10468800839003C6E0F8A3E0F9E84960179003C6F1
:10469800E0FAA3E0FB12046BE9F89003C67400F09B
:1046A800A37400F0900B6B740AF0D083D0820201DF
:1046B80035C082C083E9900C59F00248E374F712C0
:1046C8001887E990054FF07C877D057AFF7BFF12FC
:1046D8000D0590055074FFF0A3F0A3E4F0A3F07962
:1046E80005120C9390054FE0F9120BAF7A1D7B0D64
:1046F800120EC17F0102195974F41218878A088BA7
:1047080009EB5480603090054FE0F912047D8A0A65
:104718008B0BAE0AAF0BEE4F60138E828F83E06473
:10472800B07003120CA5EEFAEFFB12046BAA08E5B1
:10473800096480FB80047A007B000248B274F2129C
:10474800188774FC121830EAFEEBFFEE4F603874DD
:104758000212187BEEF0A3EF124B17ECF0A3ED1248
:104768004B17AA82AB83120BA9E9F5087073741270
:1047780012187B1256CBE50A450B60658E828F8333
:104788001247F3EE4F700575080280557A067B00D4
:104798001204EF8A0C8B0DA80CA90DE84970057559
:1047A8000813803D88828983E41247FDA3A3EEF0B5
:1047B800A3EF125B64E50AF0A3E50BF09005551230
:1047C80048859005556017E0FCA3E08003EAFCEB00
:1047D800FD8C828D8312488570F38C828D831255EF
:1047E800F0A9087404121846025D66A3A3A3A3E007
:1047F800FEA3E0FF22F0A3F0888289832274F212DC
:104808001887890AE975F017A4FEAFF0900554E4FB
:10481800F0900552124885600A1204F5900552E49A
:10482800F0A3F0EEFAEFFB1204EF8A088B09EA45D1
:1048380009602FEEFCEFFD7900120459900552E54E
:1048480008F0A3E509F07B00800812486FE4F0A3A4
:10485800F00BEBC3950A40F2E50A900554F0790095
:1048680080027913025D66EB75F017A4F8A9F09041
:104878000552E028FAA3E0398A82F583221253868A
:10488800EA4B2274F41218877900EAA2E0501B75EB
:1048980008E275098E7808121A9A7C047D007A5B02
:1048A8007B0C120C8D74021218467F04021959C031
:1048B80082C0839005551248EA601C88828983A3C8
:1048C800A3E06A7003A3E06B8882898370E8A3A3DE
:1048D800A3A312538280047A007B00D083D0820283
:1048E8000135125E39E8492274EE12188774FC12F9
:1048F8001830EAFEEBFF851882851983E4F0A3F0EF
:10490800EE24021255D4EE2405124B05EE2404F5CC
:104918000EEF124EEAE024FE603924FC604624FEC5
:10492800605224FE605E24FE7003024A0A24FE7070
:1049380003024A8224FE7003024A9124FE70030295
:104948004AA024FC7003024AAF24FE7003024ABE48
:10495800024AFB90056E7417F0A3E4124B1F12086D
:10496800A3024AFB851882851983AC82AD83120C99
:10497800AB024ACB851882851983AC82AD83120CB1
:10498800B1024ACB850C08850D09740212187BAC5C
:1049980082AD83850882850983125382120BCD8AE2
:1049A8000C8B0DAC0CAD0DEC4D6042E4F50CF50D27
:1049B800780C121A9A750C6E750D05780C121A9AE5
:1049C800750C6F750D05780C121A9A740812187BFD
:1049D800121AB1791612537C120CED74081218468B
:1049E800E9F50C700B1253781208BB800F750C0197
:1049F800850882850983124B0D1255F0850C080233
:104A08004ACE740212187BAC82AD83850C82850D68
:104A180083125382120BCD8A108B11AC10AD11EC9E
:104A28004D6043850C82850D83A3A3121AB17510BE
:104A38006E7511057810121A9A75106F7511057830
:104A480010121A9A740812187B121AB17916125396
:104A58007C120CED7408121846E9F509700B125314
:104A6800781208C1800F750901850C82850D8312A3
:104A78004B0D1255F0850908804C851882851983DD
:104A8800AC82AD83120CB7803A851882851983AC45
:104A980082AD83120CBD802B851882851983AC8268
:104AA800AD83120CC3801C851882851983AC82AD36
:104AB80083120CC9800D851882851983AC82AD8359
:104AC800120CCFE9F508E50860298E828F83A3E0F0
:104AD8006414601F850E82850F83E090056E124B6B
:104AE80017125E3590056F1255F0E508A3124B1F9B
:104AF80012089DEEFAEFFB120C510254DCF50CEF94
:104B08003400F50D22125E3985188285198322F04A
:104B180085188285198322F07C6E7D05850A828539
:104B28000B831253862274EE12188774FC12183005
:104B38008A0A8B0B8C0E8D0FEA2405F508EB3400DE
:104B4800F5097C157D0079007A6E7B05120459E51C
:104B5800082402F50CE509124B088518828519838B
:104B68008582108583117810121A9A850882850922
:104B780083A3A3A3A3125032121A9AE5082405F5B9
:104B880010E5093400F5117810121A9A850C8285FF
:104B98000D8312538C120BC774061218468A108B99
:104BA80011AE10AF11E50A2402F50AE50B1255D72C
:104BB800EE4F7003024CF48017740212187B1253E4
:104BC8008288828983EAF0A3EBF090056EE004F016
:104BD80090056EE0C394054003024CF4E4F510F52B
:104BE800117810121A9A7510577511057810121A43
:104BF8009A7510587511057810121A9A74061218B9
:104C08007B121AB17910EEFCEFFD12537C120CEDF9
:104C18007408121846E9705E850882850983A3A383
:104C2800A3A3A3A3A3E0F8900557E0687048125027
:104C380032121A9A7C587D05E5082408FAE50934E9
:104C480000FB1204537402121846E960298E828F01
:104C580083A3A3A3A312538290056EE0F5107402F8
:104C6800781012181D746F2510F58274053511F52A
:104C780083EAF0A3EBF0740212187B858210858317
:104C8800117810121A9A740212187B121AB1850C34
:104C980082850D83125E4A120BD374041218468A59
:104CA800108B11AE10AF1190056EE0F51075110064
:104CB8007402781012181D746E2510F874053511D9
:104CC800F988828983A31248857003024BB8E824C7
:104CD80003F8E93400F9EE4F6003024BC18882897A
:104CE8008374FFF0A3F090056EE004F090056EE089
:104CF800600A1253781208AF7900800B8508828504
:104D080009831255E7790A0254DC74EA1218877489
:104D1800FE1218308C128D13EA2405F50CEB125E86
:104D2800541247F7750800750900EA2402F510EBDC
:104D38003400F51185188285198385820A85830BCD
:104D4800780A121A9A850C82850D83A3A3A3A3124D
:104D58004EF4121A9AE50C2405F50AE50D1255D7FA
:104D6800780A121A9A850C82850D83125E48120BF6
:104D7800C774061218468A0A8B0BEA450B700302A1
:104D88004EA5EA2404F50EEB124EEA1247F78A8282
:104D98008B83A3A3A3E0F985108285118312538224
:104DA800120BB5E9F5096003024EA5E4F514F515F3
:104DB8007814121A9A7514577515057814121A9AD8
:104DC8007514587515057814121A9A740612187BFA
:104DD800121AB17913AC0AAD0B85108285118312B2
:104DE8005382120CED7408121846E9F509600302A3
:104DF8004EA5900557E0F8E5087009E024029005F3
:104E08006FF0801790056FE0FCE82402FAE43400A4
:104E1800FBEA6C7001EB6003024EA9850882AA8246
:104E280012502994141250215073850E82850F83D5
:104E3800E0C0E074702A124EE1D0E0F00508850E5B
:104E480082850F83A3E0C0E085080A7470250A12E2
:104E58004EE1D0E0F00508900557124EF4121A9A68
:104E68007C587D0585080A7470250AFA7405340093
:104E7800FB1204417402121846900557E02508F504
:104E88000874FF6E700374FF6F6012EE24010EEF5A
:104E98003400FFE508C394145003024D3CE5086054
:104EA8001312526D8510828511831253821208B530
:104EB80079008014E509700375090A851282851343
:104EC80083EEF0A3EFF0A90974021218467F0E02D0
:104ED800195985080C7470250CF58274053400F591
:104EE80083223400F50F850E82F58322125B772228
:104EF80074EE12188774FE1218308C0E8D0FEA2487
:104F080005F50CEB124B08750B0090056EE4F0F5F7
:104F18000AEA2402F508EB3400F509804990056E89
:104F2800E0FA900557E0F8125029941712502140E2
:104F38000D90056EE0F87416C398900557F012505E
:104F480032121A9A7C587D05746F2AFA7405340057
:104F5800FB1204417402121846900557E0F89005B8
:104F68006EE028F0050AE50C2416F582E50D124ED0
:104F7800E5E0F8E50AC398400302500A90056EE0A0
:104F8800C39416507DE50AC333F8E433F9E50C28D9
:104F9800FEE50D39FF851882851983AC82AD838EB5
:104FA800828F83125382120BCD8A108B11AC10ADF5
:104FB80011EC4D7005750B018043E4F510F511787F
:104FC80010121A9A7510577511057810121A9A75D9
:104FD80010587511057810121A9A740612187B1257
:104FE8001AB17916850882850983125382120CED4D
:104FF8007408121846E9F50B7003024F251255E3A1
:1050080080107C6E7D058508828509831253821283
:1050180008C7A90B74020254DEE99400C365D033B3
:1050280022EA28F8E43400F9E822E0F510751100C6
:1050380078102274EA12188774FC1218308A0C8BC4
:105048000D8C128D13EA2405F50AEB1255D7750855
:1050580000750900E50A2402F510E50B3400F51186
:10506800740212187B85820E85830F780E121A9AA5
:10507800850A82850B83A3A3A3A3125B23121A9A22
:10508800E50A2405F50EE50B3400F50F780E121A23
:105098009A8510828511831255DD12537C120BC735
:1050A80074061218468A0E8B0FAE0EAF0FE50C244D
:1050B80002F50EE50D3400F50F804088828983746F
:1050C800FFF00508124EDA74FFF00508900557E066
:1050D800F50C750D00780C121A9A7C587D05850818
:1050E8000C7470250CFA74053400FB120441740228
:1050F800121846900557E02508F508EE4F60718EA6
:10510800828F83A3A3A3E0F9850E82850F831253B0
:1051180082120BB5E9F509EE2404124B05E9704437
:10512800E4F514F5157814121A9A751457751505BF
:105138007814121A9A7514587515057814121A9A53
:10514800740812187B121AB17911EEFCEFFD850E66
:1051580082850F83125382120CED7408121846E9E7
:10516800F5096027850C82850D831252631255F06C
:10517800E508700302524912526D850E82850F832D
:105188001253821208CD790002525E850882AA82E3
:10519800EA9005577009E0240490056FF08022E03A
:1051A800F890056FE0F514E82404FCE43400FDEC05
:1051B80065147001ED70C0125029941212502150DC
:1051C800B6850C82850D83E0C0E074702A124EE12A
:1051D800D0E0F00508850C82850D83A3E0C0E012BD
:1051E8004EDAD0E012527F85820C85830D780C123E
:1051F8001A9A740412187B121AB1851082851183C9
:10520800125E4A120BD374041218468A0C8B0DAE28
:105218000CAF0D85080C7470250CF874053400F972
:10522800EE4F70030250C3851882851983E0888287
:10523800898312527FA3E0C0E0124EDAD0E0025018
:10524800D1E509700375090A850A82850B83125214
:10525800631255F0A9097404024ED2125E39851200
:10526800828513832290056FE0F5F0E508849005A8
:105278006EF07C6E7D0522F00508851882851983FD
:105288002274EC12188774FE1218308A088B098C65
:105298000E8D0FEA2405FEEB3400FF851882851970
:1052A80083AC82AD838E828F83125382120BCD8A98
:1052B8000A8B0BEE2418124B05EA450B70030253B8
:1052C800531254C55032851882851983125382129D
:1052D8000CE18A108B11EA4511606B7912AC0AADAA
:1052E8000B85088285098312538285108285118374
:1052F800121885E9F50A7058E4F50AF50B780A12D0
:105308001A9A8E828F83A3A3E0F50A780A121A9A52
:10531800EE24031255D4780A121A9A8E828F8312B9
:10532800538C120CF37406121846E9F50A7021859D
:105338000C82850D83E0701F8508828509831253CE
:10534800821208D38011750A0E8009750A0180043B
:10535800E50A60031255E3850C82850D83E060043D
:1053680079008002A90A74021218467F0C021959A2
:105378007C6E7D05850A82850B8312538622E0FAAE
:10538800A3E0FB22E0FCA3E0FD85088285098312E7
:1053980053862274EE12188774FE1218308A088B0E
:1053A800098C0C8D0DEA2405FEEB3400FF750E0008
:1053B800851882851983AC82AD838E828F831253C0
:1053C80082120BCD8A0A8B0BEA450B70030254B18B
:1053D8001254C55035851882851983125382120CD0
:1053E800E18A0E8B0FEA450F605E7912AC0AAD0BAD
:1053F800850882850983125382850E82850F831260
:105408001885E9F50E60030254B48508828509837E
:105418001256CBAA0AFB120CD58A108B11A810A918
:1054280011E849701E7AFF7BFF120CD58A108B1188
:10543800A810A911E849606C88828983E50AF0A35D
:10544800E50BF0750A008007750E0E805F050A905F
:105458000554E0FAE50AC39A504AE50A75F017A41C
:10546800FAABF088828983A3A3E02AFAA3E03BFB86
:105478008A828B831255DDEC4D70D2750A17750B35
:1054880000780A121A9AEEFCEFFD12044174021217
:105498001846EEFCEFFD85088285098312538212B7
:1054A80008D98014750E098003750E01125E3185C6
:1054B8000C82850D831255F0A90E02501CE50824B4
:1054C80002F508E5093400F5098A828B83A3A3A3B2
:1054D800E0A2E52274041218467F0A02195974ECF6
:1054E8001218878C108D11EA2405F50CEB124B0865
:1054F800750F00EA2402F50AEB1255D7850A82F5E2
:1055080083125382120CD58A088B09EA4509700365
:105518000255C9750E008071850C82850D83E06483
:1055280001704F8E828F83A3A3121AB18E828F834C
:10553800A3A3A3A3E0F5127513007812121A9AEE2A
:105548002405F512EF3400F5137812121A9A125343
:105558007C120CF37406121846E9F50F6014850CDA
:1055680082850D83E4F0125E3185108285118312E5
:1055780055F07C177D007900EEFAEFFB1204598E86
:10558800828F83E4F0A3F0050E900554E0F8E50E51
:10559800C398501EE50E75F017A4F8A9F085088287
:1055A800850983A3A3125E5E1255DDEC4D600302EC
:1055B800552085088285098374FFF0A3F0E50F70F4
:1055C8000612537C1208DFA90F025373F50AEF3451
:1055D80000F50B22A3E0FCA3E0FD228E828F83124C
:1055E8005E39850E82850F83E8F0A3E9F022C08238
:1055F800C083900550E06A7003A3E06B70067A5090
:105608007B0580047A007B000248E3C082C083786F
:10561800008C828D83E06A7003A3E06B7010E875DC
:10562800F003A4F8A9F0EC28FAED39FB8015088CF2
:10563800828D83A3A3A3E06A7003A3E06B60DF7A83
:10564800007B000248E374F6121887120C9F8A82C6
:105658008B83E582458370067A007B008007A3A3CD
:10566800A3A3125382025CE274F2121887E9FE7453
:105678000E12187B1256CB741012187B125B438CD7
:10568800828D83E064027036A3125E3FF50CA3E0BE
:10569800F9A80C74026870037429697021750C02EA
:1056A800750D00780C121A9A7808121A9A780A124C
:1056B8001A9AEEF9120D177406121846800279012B
:1056C800025D66E0F50AA3E0F50B2274E81218877C
:1056D80074FB121830E9851882851983F08A168BB5
:1056E80017ECFEEDFF751000741D12187B125E3565
:1056F800741D12187B1255F08E828F83A3A3A3E02A
:10570800A2E4502D741D12187B125382120CE18AE8
:10571800828B83E58245837003025B14790AEEFC71
:10572800EFFDAA16AB17121885E9F5106003025BA6
:1057380017741F12187B125B43742112187B1256C0
:10574800CB742312187BE0F50EA3E0F50F8E828F41
:1057580083E064026003025AC2A3125E35850882A0
:10576800850983A3858212858313EE2406124B05CF
:1057780088828983E0FAA3E0F9EA2400F514E43981
:10578800F5157814121B24010000280128B75707C3
:105798000002287C580328E9570029B3590129DE5B
:1057A8005902297F590329B35904295D5AC25AE578
:1057B8000E450F6003025ABD850C82850D83125B6E
:1057C80038FAE9FB8A828B83E0850A82850B83128B
:1057D8005B6E121A9A8A828B83A3E0FCA3E0025ABA
:1057E80047E50E450F6003025ABD850A82850B8383
:1057F8007401F0125B4B850882850983F07C007D7B
:10580800008E828F83A3A3A3A3E02401FAA3E0342C
:1058180000FB120BCDEA4B60418A828B83E02402A5
:10582800F8850A82850B83E028F0EA2404F8EB3433
:1058380000F988828983E0851282851383125B8050
:10584800125B6E121A9A8A828B831255DCE5082441
:1058580003FAE5093400FB025A4C850A82850B835A
:10586800E02404F07C047D007900AA12AB13120432
:1058780059025B17E50E450F6003025ABD125B4BD8
:10588800FEA3E0FF850A82850B837404F0EE850889
:1058980082850983F0EF851282851383F0740312E1
:1058A800187BAC82AD83EEFAEFFB120BCD8A0C8B22
:1058B8000DEA450D70030259608A828B83A3A312F7
:1058C80047F3740112187B85820E85830F780E12B8
:1058D8001A9A740512187B121AB17CFF7DFF120BFD
:1058E800D374041218468B0FEA450F7033850C8267
:1058F800850D83125B23121A9A850C82850D83A36A
:10590800121AB17C027D007ABE7B8F1209B1740431
:10591800121846E9700A740112187B74FFF0A3F09C
:105928008E828F83E064027039750C02750D0078E1
:105938000C121A9A8E828F831255DCE5082404FA19
:10594800E5093400FB1204417402121846850A82E4
:10595800850B83E024028009740112187BEEF0A302
:10596800EFF0740112187B125B34F0740112187B8B
:10597800A3125B2C025AB7E50E450F6003025ABD0D
:10598800850C82850D831255DDAA16AB17120D0BF7
:10599800850A82850B837402F0EA8508828509836B
:1059A800F0851282851383EB025ABAE50E450F6023
:1059B80003025ABD125B4BF8A3E0F9850A82850BF6
:1059C800837402F0E8850882850983F0E9851282EC
:1059D800851383025ABA850C82850D83125382126D
:1059E800043BEAFC8C82A882C3950EE4950F405FC5
:1059F800E8650E7002E50F70047C0080228518822D
:105A0800851983E0FAE50E2AFAE50F3400FBC3EAAC
:105A180098EB94005003E08005E50ECCC39CFCECA9
:105A2800850A82850B83F08C0A750B00780A121A96
:105A38009A850C82850D83E0250EFCA3E0350FFDC9
:105A4800AA08AB091204417402121846025B1775C2
:105A58001007025B17E50E450F705A850C82850DFD
:105A680083125E35850A82850B8374071247FF12FD
:105A78005B2C1247FFA3E0851282851383F0E8248C
:105A880002FAE93400FB8A828B83125B2C125B5B7F
:105A9800125B34A3125B64125B3DF0E82405F8E95D
:105AA8003400F988828983125B3DA3125B80A3A32B
:105AB800A3A3F0805A75100B8055741D12187B1221
:105AC8005382120C9F8A828B83E5824583603D1244
:105AD8005E35880C890DE8450D6031780E121A9AEA
:105AE800780A121A9A7808121A9A740612187BE021
:105AF800F9EEFCEFFDAA16AB17850C82850D831213
:105B080018857406121846E9F510800375100EA959
:105B18001074051218467F10021959E0F50E750F1A
:105B280000780E22E085088285098322125B8A228A
