:020000040000FA
:0600000002011D02227C3A
:03002B00021CF0C4
:03003300021CC5E7
:030053000222F294
:03006B00021C9ADA
:1000830002212BE5C754F84401F5C779012200008A
:100093000080FB120086B90003020107E47921788E
:1000A30008B800028004F709D8FCE479297802B87B
:1000B30000028004F709D8FCE4900281783C7908B7
:1000C3008002F0A3D8FCD9FA781A90014D7A01BACC
:1000D30000028007E493A3F608DAF99009BCAA8228
:1000E300AB8390014E78EE79038015E493A3AC8241
:1000F300AD838A828B83F0A3AA82AB838C828D83A8
:10010300D8E9D9E775827875837F740012012F755A
:100113008291758300740012012F75D00075813FA1
:10012300751881751902759F00020096C09FF59F8F
:10013300E473D09F22D083D082C09FE493C0E07445
:100143000193C0E0740293F59F2201FFFF1101990F
:10015300010F1264040102CC8F010000C58E020658
:1001630090010000C309020090010000C4090202CB
:1001730090030000A60202FE8F010000C5090809D2
:1001830043474D2053696D02010505021F180A18E4
:1001930043474D2053696D756C61746F72000000A5
:1001A3000000000000E80300A000009534129078DE
:1001B30056001403030801DF07EC00A800A905009B
:1001C300001002020A020200282802CC8F0100005C
:1001D300C18F020690010000320A02FA8F0000006C
:1001E30006030202900300000003020690010000D0
:1001F300330A02F88F010000070302069001000092
:10020300340A02F68F01000008030206900300007F
:10021300350A02F48F03000009030206900300006D
:10022300360A02F28F030000370A02069003000029
:10023300390A02F08F03000010030202900300004A
:100243000A030206900300003A0A02EE8F0300003D
:1002530017030202900300001103020202020202CA
:10026300020202010D000000100102CC8F01000008
:10027300B88F020690010000CB0A02E88F0100004C
:100283001803020690010000CC0A02E68F01000069
:10029300D58E020690010000CD0A02E48F01000012
:1002A300CE8E020690010000CE0A02E28F0100000A
:1002B300508F020690010000CF0A02E08F01000078
:1002C300548F020690010000D00A02DE8F01000065
:1002D300588F020690010000D10A02DC8F01000052
:1002E3005C8F020690010000D20A02DA8F0100003F
:1002F300AF8E020690010000D30A02D88F010000DE
:10030300D40A01E803053F100AFF00013075030218
:1003130001060000000000000000000000000000D3
:100323000000000000000000000000000000FFFFCC
:100333000600800CE803FF0000B40000280028003A
:10034300283075A000A000A000A00000080008E06D
:1003530001F00010001000100010001000100050F9
:10036300005000500010001000D0070000000000F3
:10037300000F000100050030750700100001008127
:10038300FF00000000FFE30A010BE90AFF0202027B
:1003930008025000A0000000E80302CC8F01000017
:1003A300BE8F020690010000FE0B02C68F01000003
:1003B300ED04020690010000FF0B02C48F01000050
:1003C3000305020690010000000C02EC8F010000FF
:1003D3000505020690010000010C02CE8F08000003
:1003E3000605020690010000020C02D48F010000F2
:1003F300030CFFFF0100FF2002CC8F010000BB8F25
:10040300020690010000680C02D68F000000000075
:1004130002029003000095054F114F114F114F1128
:100423004F114F114F114F114F114F114F114F11C9
:100433004F112B1443142514120138B0E902120191
:1004430038C5E9021201381DEA0212013884EA02B2
:10045300120138CCEA0212013842EB021201387160
:10046300EB021201387FEB02120138E3EB021201B7
:100473003821EC021201383CEC02120138D4EC02B0
:100483001201387DED0212013800EE0212013839F3
:10049300EE02120138C4EE021201381BEF02120100
:1004A300387AEF021201388CEF02120138B2EF02F0
:1004B300120138BBEF021201381AF102120138E2BD
:1004C300D903120138ADB2031201388CB303120100
:1004D30038E8B30312013802B40312013813B4032A
:1004E30012013833B403120138FEC6031201384334
:1004F300C70312013889C7031201381CC90312014B
:100503003869D80312013884D80312013894D80308
:10051300120138EBD803120138008003120138208E
:100523008003120138248103120138708103120100
:1005330038908103120138E381031201385082039A
:10054300120138968203120138FA8203120138AC81
:10055300850312013802D20312013832D203120189
:100563003862D20312013882D203120138DCD2037B
:10057300120138E4B50312013819B6031201380821
:10058300B703120138ECB70312013878D401120112
:100593003877D601120138FAD60112013834D7015F
:1005A300120138C7D70112013890D8011201381A45
:1005B300DA0112013890DA01120138C1DA011201AD
:1005C30038C2DC01120138EFDC0112013889E00185
:1005D300120138E6E3011201384A9003120138B3DD
:1005E3009003120138C690031201381791031201C8
:1005F30038769103120138BB9203120138E3940356
:10060300120138548B03120138798B03120138B469
:100613008B0312013885DA03120138F8280012011E
:1006230038062C00120138C62D00120138712E0035
:10063300120138152F00120138AE2F00120138DDD8
:100643002F001201384930001201382335001201FE
:1006530038CE35001201383E3700120138A6370074
:100663001201385A38001201381C3B001201385B62
:100673003B00120138CF3B001201382E3C0012011F
:10068300388D3C00120138FC3C00120138EF3D006C
:10069300120138353E001201387A3E001201389DAE
:1006A3003E001201381840001201382B400012019D
:1006B300383441001201387341001201389F410060
:1006C300120138F241001201381342001201385767
:1006D3004200120138A94400120138EA4400120111
:1006E300389545001201380046001201383D470095
:1006F30012013893D603120138A4D60312013882AB
:10070300D70312013855C403120138F0C60312018E
:1007130038D9FF0112013844D30312013854D303EB
:100723001201386BD30312013870D403120138EF6E
:10073300BB0312013895BC03120138B1BE03120189
:10074300385FCB031201388FCB03120138FFCB0381
:1007530012013823CC031201387FCC03120138FA7B
:10076300CC0312013837CD031201383ACD031201FD
:100773003893DB03120138A5DB03120138A8DB032E
:10078300120138F87F00120138A8C1031201389F03
:10079300C3031201380BC40312013852C4031201FC
:1007A3003860C903120138C9C90312013887CA0363
:1007B30012013806CB0312013898A703120138CA75
:1007C300A703120138D2A803120138F7A9031201B3
:1007D30038B3AA031201389BC30212013881C40241
:1007E300120138CEC40212013811C5021201388633
:1007F300C502120138E7C5021201385CC6021201B4
:100803003838C70212013843C802120138C4C8027B
:100813001201386BCA0212013801CB02120138747B
:10082300CB02120138F0CB0212013807CC021201BD
:10083300383ECD0212013898CD02120138099001D9
:10084300120138A194011201387597011201389EE3
:100853009701120138C797011201387998011201E3
:10086300385F9A011201389A9B01120138D0A00116
:1008730012013809A1011201384DA1011201385F9B
:10088300A2011201389CD503120138B2D50312011B
:1008930038E1D50312013817D6031201382ED603D7
:1008A30012013865D6031201387CD6031201384889
:1008B300CD031201385FCD0312013890CD0312012D
:1008C30038CBCD03120138F5CD031201381FCE0307
:1008D30012013836CE031201384DCE0312013864AB
:1008E300CE031201388DCE03120138A0CE031201BC
:1008F30038B6CE03120138C9CE03120138F0CE0345
:10090300120138A67300120138AA7400120138D7F5
:1009130074001201382D7500120138507500120150
:100923003864750012013866750012013889750044
:100933001201388F760012013853770012013828DC
:100943007800120138A37800120138A6780012014A
:10095300382E7900120138697900120138A0790024
:100963001201382E7A00120138077B001201380A6F
:100973007B001201386A7B00120138757B0012017B
:1009830038F47B00120138F77B00120138FA7B0040
:10099300120138FD7B001201388C7C00120138965D
:1009A3007C00120138A67C00120138D67C001201AB
:1009B30038E37C00120138E67C00120138677D00C1
:1009C300120138557E00120138077F00120138F9F1
:1009D3009903120138219A031201384F9A03120125
:1009E30038869A03120138E49A031201382F9B03C5
:1009F3001201387A9B03120138BA9B0312013800A3
:100A03009C031201382E9C03120138EB9C03120144
:100A130038F59C03120138029D03120138359D03FA
:100A2300120138019E031201380D9E03120138256D
:100A33009E031201382F9E0312013892D70312012D
:100A430038A0D703120138B8D703120138D0D7031F
:100A5300120138E9E30112013895E401120138105B
:100A6300E50112013831E6011201386DE601120188
:100A73003816E701120138FDE70112013861E90177
:100A8300120138B8E90112013839EA011201382993
:100A9300EB0112013876EB01120138FCEB01120174
:100AA300382EEC0112013842EE0112013884EE01B6
:100AB300120138A2EE0112013825EF01120138F9B3
:100AC300EF01120138C1F001120138CBF802120113
:100AD300389EF90212013847FA021201389AFA02D3
:100AE3001201384AFB02120138D6FB02120138C246
:100AF300FC02120138F1FC0212013804FE02120159
:100B0300384CFE0212013821FF021201385DFF0248
:100B130012013879FF021201380FDB031201381476
:100B2300AF031201382AAF0312013850AF03120189
:100B3300386CB00312013876B003120138ABB1033D
:100B4300120138A3B2031201382D86031201385D56
:100B53008703120138908703120138DA87031201E1
:100B630038A18903120138008002120138848002FF
:100B7300120138CD8002120138B482021201386D9D
:100B83008402120138498502120138FD85021201DF
:100B9300383A8902120138E88902120138578B0268
:100BA300120138E98C02120138218D02120138BE7C
:100BB3008D02120138ACB40112013816B5011201CD
:100BC3003875B60112013885B601120138B2B60183
:100BD30012013809B701120138B2B701120138B94D
:100BE300B80112013883B901120138E3BA011201C5
:100BF3003826BB01120138CBBB0112013818BC01E6
:100C03001201383EBC011201384CBE0112013851A9
:100C1300BE0112013856C001120138A3C0011201EE
:100C23003816C10112013849C101120138EBC10163
:100C330012013894C201120138CCC201120138CF1B
:100C4300C20112013817C30112013857C30112013F
:100C530038AEC301120138CCBE03120138DFBE0324
:100C6300120138EDBE0312013835BF031201384BB0
:100C7300BF0312013892BF03120138A6C003120149
:100C83003833C1031201387EC103120138714700A2
:100C93001201387D4700120138B84700120138FDB0
:100CA3004700120138BD48001201384349001201C0
:100CB300386F4900120138A84900120138E64B0089
:100CC300120138CA4D00120138B04F00120138F337
:100CD30050001201384153001201385354001201DD
:100CE300389E5500120138AE5600120138CB56001B
:100CF3001201380657001201382857001201388BA9
:100D030057001201384C5C00120138E15C001201FB
:100D130038325D00120138595D00120138AB5D00B5
:100D2300120138C95D00120138235E001201382216
:100D33005F00120138A65F00120138B69E0312014C
:100D430038C09E03120138039F031201381E9F030C
:100D5300120138AE9F03120138D69F0312013813D4
:100D6300A0031201384AA00312013873A003120131
:100D730038E8A003120138FDA00312013812A103C1
:100D830012013843A10312013857A1031201387C21
:100D9300A103120138B6A103120138E2A103120123
:100DA3003865A203120138AEA203120138D8A20398
:100DB30012013803A30312013876D403120138DA7F
:100DC300F20112013808F30112013856F40112013D
:100DD3003836F50112013855F501120138D2F50103
:100DE30012013815F6011201386BF7011201382C84
:100DF300F801120138B3FA0112013854FB01120150
:100E0300384AFC0112013847FD01120138A1FE01E5
:100E13001201382CFF01120138A7D0031201381038
:100E2300D10312013864D1031201388BD1031201AB
:100E330038BCD1031201382BA30312013898A30342
:100E4300120138DFA303120138F7A403120138F3A8
:100E5300A503120138D6A60312013847E102120195
:100E63003889E1021201385BE20212013834E302ED
:100E73001201382EE40212013810E502120138790A
:100E8300E5021201382FE602120138A3E60212012D
:100E9300380FE70212013838E702120138B2E702CD
:100EA3001201384BE802120138B0E802120138C5CA
:100EB300E8021201380BE90212013824E902120197
:100EC3003889E9021201388CE902120138F6B803B5
:100ED3001201381EB9031201385CB9031201381A22
:100EE300BA0312013881BA031201389DBA03120101
:100EF30038C5BA03120138F5BA0312013804BB032B
:100F030012013881BB03120138A7BB031201389BBE
:100F1300C40112013839C60112013854C801120143
:100F23003890C801120138BDC801120138A2C901A5
:100F3300120138E9C9011201382DCA011201383FE3
:100F4300CA011201387FCA01120138ACCA01120169
:100F530038F7CA0112013837CB0112013865CB01CA
:100F6300120138B7CB0112013847CC01120138E521
:100F7300CE01120138FBD00112013839D10112011F
:100F830038CAD2011201380FD30112013886D301B6
:100F9300120138D0D301120138CED7021201384DD5
:100FA300D8021201380FDE021201381EDF021201CD
:100FB3003886E0021201381DE1021201380D60008B
:100FC300120138566000120138836000120138B6EE
:100FD3006000120138C36000120138CF60001201B3
:100FE30038E16000120138C861001201382662003E
:100FF3001201385B62001201389E6300120138EB64
:1010030063001201380F64001201387C640012017E
:10101300383A6500120138F3650012013860660042
:10102300120138126700120138226700120138A931
:1010330067001201386868001201389568001201D0
:10104300380E69001201386B6900120138B5690066
:101053001201384B6A00120138166B00120138CBAB
:101063006B00120138406C00120138A16C001201B0
:10107300380B6D00120138446D00120138E66D0023
:10108300120138F66E00120138366F001201385320
:101093006F00120138726F00120138B96F0012012C
:1010A30038DE6F001201380B7000120138857000B2
:1010B300120138C67000120138EA71001201389A21
:1010C3007200120138F172001201385B73001201D1
:1010D3003874730012013804CE0212013857CE025D
:1010E30012013863CE0212013838CF021201385F81
:1010F300CF021201389ACF0212013806D002120130
:101103003842D0021201387BD00212013893D00248
:10111300120138E8D00212013801D1021201384A13
:10112300D1021201385DD10212013877D1021201C6
:10113300388DD102120138C0D20212013807D4020D
:1011430012013809D50212013803D602120138F010
:101153007F0012013836AB0212013866AB0212016E
:10116300382EAF0212013885B0021201384EB10297
:10117300120138CEB2021201389FB302120138DCD9
:10118300B302120138FFB3021201383DB402120157
:101193003846B40212013890B4021201389AB402EC
:1011A30012013844B5021201381DB602120138711A
:1011B300B602120138D3B60212013826B702120161
:1011C3003855B70212013892B7021201381FA30132
:1011D30012013886A6011201388CA6011201380EBD
:1011E300AC0112013887B0011201385DB40112015C
:1011F300387AAB03120138F0AB0312013806AC03A3
:1012030012013847AC0312013881AC03120138FADA
:10121300AC0312013835AD03120138A8AD03120136
:1012230038E6AD03120138EFAD03120138FBAD030D
:1012330012013817AE0312013842AE0312013858B7
:10124300AE0312013881AE03120138E4AE0312017A
:101253003836950312013849950312013863950313
:101263001201388C9503120138CF95031201380E01
:1012730096031201384C9603120138B196031201FA
:1012830038C69603120138D19603120138DE96034D
:10129300120138F596031201380397031201380E31
:1012A30097031201381A97031201382D970312017D
:1012B300383897031201385B9703120138029803F9
:1012C3001201381298031201382C9803120138497D
:1012D30098031201386598031201388A98031201A2
:1012E30038959803120138AA9803120138BE98035F
:1012F3001201381F99031201382599031201382B63
:1013030099031201383199031201384999031201E3
:10131300387C99031201380C9D02120138909D020A
:101323001201383F9E021201389E9F02120138BFFC
:10133300A102120138ABA202120138E0A20212018B
:101343003802A302120138B1A302120138A9A5027F
:10135300120138D2A50212013864A602120138968E
:10136300A602120138A3A602120138FAA60212013C
:101373003820A7021201388DA90212013890AA025F
:10138300120138E8AA021201389B8E02120138A515
:101393008F021201388C90021201389690021201CA
:1013A30038B89002120138C490021201385D9202DB
:1013B3001201388C9202120138A8930212013801EB
:1013C30094021201386795021201384696021201FF
:1013D30038A296021201380F97021201384A970277
:1013E300120138899702120138429A021201385CBD
:1013F3009A02120138E89A02120138F69A0212018F
:10140300384F9B021201385D9B02120138D09B02B8
:10141300120138349C021201387E9C021201386D8D
:10142300B8021201388FB802120138B5BA0212019C
:1014330038CABD02120138E2BE0212013895BF025A
:1014430012013877C00212013802CF031201382784
:10145300CF0312013899CF0312013851F10212015F
:10146300385AF10212013863F1021201383AF202DA
:10147300120138EBF30212013821F4021201385B36
:10148300F40212013891F402120138CBF402120172
:1014930038FFF4021201382BF50212013874F502F9
:1014A300120138AEF502120138F7F5021201384F76
:1014B300F60212013884F602120138DFF602120135
:1014C3003819F7021201386AF702120138A0F7023D
:1014D300120138DAF70212013808F8021201382B28
:1014E300F80212013837D90312013863D903120104
:1014F30038BED903120138C8D903120138D8D90329
:10150300120138ADFF01120138D27F00E06670107E
:1015130008A3E066700A08A3E066700408A3E06607
:1015230022C3E09608A3E09608A3E09608A3E096FA
:10153300A2D265D03322C3E7960809E7960809E7E4
:10154300960809E79622C3E09608A3E09608A3E06D
:101553009608A3E09622C008C3E096F50808A3E026
:1015630096420808A3E096420808A3E0964508704F
:1015730001D3D00822080808EAC0E0EBC0E086F0F7
:10158300E7A4FA180986F0E7A42AFA180986F0E70F
:10159300A42AFA180986F0E7A42AFA1986F0E7A420
:1015A300FBE5F02AFA190886F0E7A42BFBE5F03AED
:1015B300FA190886F0E7A42BFBE5F03AFA181809A4
:1015C30086F0E7A4C5F02BFBE43AFA1908E7C5F067
:1015D300C6A426F6E5F03BFBE43AFA1886F0E7A446
:1015E300F6E5F00826F6E43B08F6E43A08F6D0E020
:1015F300FBD0E0FA22E4CFC0E0E4CEC0E0E4CDC00B
:10160300E0E4CCC0E075F020C3E633F608E633F639
:1016130008E633F608E633F6181818EC33FCED3316
:10162300FDEE33FEEF33FFC3EC9709ED9709EE9719
:1016330009EF97191919400FFFEC97FC09ED97FD76
:1016430009EE97FE191906D5F0BEECF709EDF70977
:10165300EEF709EFF7191919D0E0FCD0E0FDD0E05F
:10166300FED0E0FF221216D01818181215F8121621
:10167300BF191919221216BF191919080808E618F3
:10168300181820E7E01215F81216D01818182209B6
:101693000909E719191920E7DC080808E6181818DA
:1016A30020E7030215F81216D01818181215F812AD
:1016B30016D01818181216BF19191922E4C397F770
:1016C30009E497F709E497F709E497F722E4C39647
:1016D300F608E496F608E496F608E496F622601611
:1016E300080808C6C313C618C613C618C613C618F7
:1016F300C613C6D5E0EA2270090808082260161846
:101703001818C6C333C608C633C608C633C608C6C8
:1017130033C6D5E0EA22E627F60809E637F60809D4
:10172300E637F60809E637F622E026F608A3E036A0
:10173300F608A3E036F608A3E036F622E026F00822
:10174300A3E036F008A3E036F008A3E036F022C3A6
:10175300E697F60809E697F60809E697F60809E614
:1017630097F622C3E0C696F608A3E0C696F608A34A
:10177300E0C696F608A3E0C696F622C3E096F00804
:10178300A3E096F008A3E096F008A3E096F022E029
:1017930056F608A3E056F608A3E056F608A3E0566B
:1017A300F622E056F008A3E056F008A3E056F0084E
:1017B300A3E056F022E0F608A3E0F608A3E0F6085B
:1017C300A3E0F622E6F008A3E6F008A3E6F008A3F8
:1017D300E6F022E0FAA3E0FBA3E0FCA3E0FD22EAAB
:1017E300F0A3EBF0A3ECF0A3EDF022CAC0E0E6F027
:1017F300A308DAFAD0E0FA22CAC0E0E0A3C582CC9B
:10180300C582C583CDC583F0A3C582CCC582C583FC
:10181300CDC583DAE6D0E0CA22C3E498F8E499F9A7
:1018230012185D8026C3E49AFAE49BFBE920E7E9FA
:1018330012185DE498F8E499F922C3E498F8E4995E
:10184300F912185DE498F8E499F9C3E49AFAE49B71
:10185300FB22EB20E7CFE920E7E0B90010BB00084B
:10186300E88AF084F8AAF022E4FBC8FA22EB70229B
:101873007B10C833C8C933C9335007C39AC3DBF2DB
:1018830080069A50012ADBEAC833F4C8C933F4C985
:10189300FA2275F008E4C833C8C933C933C99AC9F1
:1018A3009B5004C92AC93BD5F0ECFBC833F4C8E408
:1018B300C9FA22600D08C6A2E713C618C613C6D517
:1018C300E0F322600C08C6C313C618C613C6D5E0DE
:1018D300F422700422600D18C6C333C608C633C68B
:1018E300D5E0F41822251810AF08F5184002151991
:1018F3008008F51840021519D2AF22C0D025181060
:10190300AF08F518500205198008F518500205199B
:10191300D2AFD0D0222518F58210AF08F5184002B7
:1019230015198008F51840021519D2AF85198322BD
:101933002518F582E43519F58322E4732518C58249
:10194300C0E0E51934FFC583C0E0E518C3958224E0
:10195300F810AF0885831985821880088583198557
:101963008218D2AFCEF0A3E520F0A37808E608F002
:10197300A3DEFAEFF0A3E58124FAF8E608F0A3E684
:1019830008F0A3E608F0A30808E608F0A3E608F0C9
:10199300A315811581D0E0FED0E0F81581158115DE
:1019A30081E8C0E0EEC0E0222518C582C0E0E51959
:1019B30034FFC583C0E0E518C3958224F910AF084E
:1019C3008583198582188008858319858218D2AF8B
:1019D300CEF0A3E520F0A37808E608F0A3DEFAEF43
:1019E300F0A3E58124FBF8E608F0A3E608F0A308DA
:1019F30008E608F0A3E608F0A315811581D0E0FE00
:101A0300D0E0F815811581E8C0E0EEC0E022851929
:101A130083851882E0A3FEE0A3F5207808E0A3F60F
:101A230008DFFAE0A3FFE0A3C0E0E0A3C0E0E0A387
:101A3300C0E0E0A3C0E0E0A3C0E010AF08858218D7
:101A43008583198008858218858319D2AFD083D006
:101A530082020135851983851882E0A3FEE0A3F590
:101A6300207808E0A3F608DFFAE0A3FFE0A3C0E0D4
:101A7300E0A3C0E0E0A3C0E0E0A3C0E010AF0885AE
:101A830082188583198008858218858319D2AFD07F
:101A930083D08222C0D02518C582C0E0E51934FF67
:101AA300C583C0E0E518C3958224F310AF0885838E
:101AB300198582188008858319858218D2AFC8F0EA
:101AC300A3E9F0A3EAF0A3EBF0A37908E709F0A3F5
:101AD300D8FAECF0A3EDF0A3EEF0A3EFF0A3D0E07F
:101AE300F0A3D0E0F0A3D0E0F0A3E520F0A3E5F06D
:101AF300F0A322851983851882E0C0E0A3E0F9A34F
:101B0300E0FAA3E0FBA37808E0F608A3DFFAE0FC21
:101B1300A3E0FDA3E0FEA3E0FFA3E0C0E0A3E0C0D9
:101B2300E0A3E0F5D0A3E0F520A3E0A3F5F010AF28
:101B3300088583198582188008858319858218D2C0
:101B4300AFD082D083D0E0F8D0E032740480067442
:101B53000280027401C0E0F404121918D0E01217D5
:101B6300EE227404800474028000CCC0E0EDC0E077
:101B7300E518C39CCCAD1950011D10AF068C188D10
:101B83001980068C188D19D2AF1217FBD0E0FDD047
:101B9300E0FC22D083D082E9C0E0E493A3C386F0C3
:101BA300C5F095F0F908E493A386F0C5F095F070BD
:101BB3000BE493A3C3994005E9048002A3E475F001
:101BC30002A42582F582E5F03583F583D0E0F9E4BC
:101BD30093A3C0E0E493C0E022D083D082ECC0E0C2
:101BE300EDC0E0E493A3FCE493A3FDED4C600D1280
:101BF3001C28EC24FFFCED34FFFD80EFE493A3FCF1
:101C0300E493A3FDED4C600D121C67EC24FFFCED87
:101C130034FFFD80EFD0E0FDD0E0FCE493A3C0E00F
:101C2300E493C0E022C0E0C3E49396087401939662
:101C330018400FE4936670080874019366187000E7
:101C43007019A3A3C3E49396087401939618A3A3EE
:101C5300400DD0E0D0E0D0E0021C18A3A3A3A3A3BF
:101C6300A3D0E022C0E0C0F088F0E49366700808D7
:101C730074019366187000A8F0A3A3700BD0F0D082
:0F1C8300E0D0E0D0E0021C18A3A3D0F0D0E02204
:101C9400C2AF02000022C0E074F2121A97A2AFE4AD
:101CA40033FED2AFE589A2E1500312075F758900C4
:101CB400C2C5751A00EEF8EEA2E092AF7F01021AD7
:101CC400F6C0E074F2121A97A2AFE433FED2AFE585
:101CD4008BA2E0500312075F758B00C2E8751A00EF
:101CE400EEF8EEA2E092AF7F01021AF6C0E0C0D097
:101CF400E8C0E0E9C0E0A2AFE433F8D2AFC2C775F0
:101D04001A00E8F9E8A2E092AFD0E0F9D0E0F8D008
:101D1400D0D0E03274F51219ABEAFEEBFFEE2434B6
:101D2400F8EF3400F988088909EE2435121E44F8C6
:101D3400EE2437121E44F50AEC850AF0A4FCAAF03E
:101D4400850AF0EDA42AFDE82CF8E43DF97A257B18
:101D54000012185DEA850882850983F074075AF831
:101D64007401B800028004C333D8FCFBEA131313D4
:101D7400541FF8EE28F8EF3400F9E8245DF582E901
:101D8400121E475B6003EA801CEE2436121E44F5E3
:101D9400F0EA84A8F0EE28F8EF3400F9E82438F5E6
:101DA40082E9121E47F97F04021A5774F51219AB1F
:101DB400EAFEEBFFEE2434121E44C0E0EE2435F5B7
:101DC40082EF3400F583D0E0F08E828F83A3A3A347
:101DD400A3A3E0FAA3E0FB8E828F83A3A3A3A3A310
:101DE400A3A3E0FCA3E0FDECC39AF50AED9BF50B7D
:101DF400EE247FF508EF3400F509850882F583E0C9
:101E04006401702BEE2480F582EF3400F583121BFD
:101E140069121E4D74021218FEE960137C587D0786
:101E2400EEFAEFFB121077850882850983E4F0ACA3
:101E34000AAD0BEEFAEFFB121D181228E1021DAADF
:101E4400F582EF3400F583E022C082C083851882D6
:101E5400851983E0F8A3E0F9C3EA9CEB9D5010C315
:101E6400EC98ED99401BC3EA98EB995014800EC38B
:101E7400EA98EB994007C3EC98ED99400479018006
:101E8400027900D083D08222EAC39CFAEB9DFB2224
:101E940074ED1219AB90061EE064086005E0640757
:101EA400702C9061C8E0602690064CE0F874FF68DE
:101EB400601CE875F003A4C8AAF02AF9744E28FE41
:101EC400740639FF8E828F83A3A3A3E07005790083
:101ED400022034EE2468F510EF3400F511906060B0
:101EE400E0851082851183F0750AC1750B077508AA
:101EF40000750900E5D914F50EE5D95403F50F6012
:101F04001CEE2482F50CEF3400F50D7403650F60AC
:101F140058E50E6013EE2467121E44700B793DEEF3
:101F2400FAEFFB12109B80A69007BCE064016026C8
:101F3400850C82850D83E060047804800278008536
:101F44000E08E508C398FA95E0FB120F218A088B66
:101F540009EA450970061212F9021ED2850C82851F
:101F64000D83E070048A0A8B0B78008016E5D9C0D3
:101F7400E08812E50A2512F582E50B3400F583D0DA
:101F8400E0F008E8C3950E40E4850C82850D83E0FB
:101F9400602874FC250EF50E780A121B52AC0EA9AB
:101FA4000FEEFAEFFB12114974021218FEE9700ADF
:101FB400AA08AB091207A7021F217403650F605812
:101FC400850E0C750D00780C121B52AC0AAD0BAAD1
:101FD40008AB0912110D74021218FE8510828511C6
:101FE40083E0F87480687005750C7F8002880CE5C6
:101FF4000CF50A780A121B56E50FF50A780A121B2B
:1020040056A90EAC08AD0990064CE0FA7B00120DFF
:10201400B974021218FE801390061EE06408600B67
:10202400AC0AAD0BEEFAEFFB1211DF1213057901C6
:102034007F0C021A5774F31219AB74FC1218E8EAF5
:10204400FEEBFF8908A2AFE433F509C2AFEE2463C7
:10205400F50AEF3400F50B8010AA0AAB0B1210C579
:102064001207A790075FE004F0850A82850B83E0DE
:10207400F8A3E0F9E849602FE82402FAE93400FB08
:10208400EA2402F50CEB3400F50D780C121B528A8D
:10209400828B83E0FCA3E0F9EEFAEFFB1210B97433
:1020A400021218FEE960B290075FE0605790076083
:1020B400E0F890075FE0C398500C74026508704420
:1020C400900761E0603E8E828F83A3A3A3A3E08583
:1020D40018828519831221187402121933E8122107
:1020E4001890075EE028F07402121933AC82AD83B5
:1020F400851882851983AA82AB837901120DC59054
:10210400075FE4F0E509A2E092AF74041218FE7FC1
:1021140006021A57F0A3E4F090075FE0F8220000EB
:102124008521878522C622C0E074EF121A97A2AFD8
:10213400E433FEC2AF759B00906182E0A2E05012CE
:10214400E591A2E0500C7591FE74016521700312B3
:102154001E94E0A2E55051E591A2E5504B7591DF44
:1021640090061EE064076005E0640870237401654E
:10217400217035790190064CE0FA75F003A4CAA8E1
:10218400F028FB744E2AFA74063BFB12203980189F
:10219400E0640D7013900640E004F064287002E4DB
:1021A400F07A00E0F912130B906182E0A2E640039A
:1021B400022252E591A2E640030222527591BF9099
:1021C400061EE06405700812122112122D800312FB
:1021D4001227752100121299E990061FF079001256
:1021E400128D120FE17A017B0090061DE0F91204B2
:1021F40095907803E0644270559007C0E014F07045
:102204004DC2AF12220A00782AD0E0F618D0E0F6C8
:10221400E59F540770057509FF800375097FC4C0E5
:10222400E07829E6F50808E65509F509740B7808FD
:102234001218C6D0E02508F8906270E0A2E740F8D2
:10224400E8C333906272F0906270E0D2E0F0906183
:1022540081E0A2E35009E5E9A2E3500375E9F7A39D
:10226400E0A2E75009E591A2E7500375917FEEA241
:10227400E092AF7F04021AF6C0E0C0D0C082C083EF
:10228400906183E0A2E05009E5BFA2E0500375BF6E
:10229400FEE0A2E15009E5BFA2E1500375BFFDE0F5
:1022A400A2E25009E5BFA2E2500375BFFBE0A2E33E
:1022B4005009E5BFA2E3500375BFF7E0A2E450095B
:1022C400E5BFA2E4500375BFEFE0A2E55009E5BF06
:1022D400A2E5500375BFDFE0A2E65009E5BFA2E620
:1022E400500375BFBFD083D082D0D0D0E032C0E0DD
:1022F40074F2121A97E5A7A2E4500FE5A1A2E450E4
:102304000953A7EF75A1EF122346E5A7A2E5500CE8
:10231400E5A1A2E5500653A7DF75A1DFE5A7A2E179
:102324005009E5A1A2E1500375A1FDE5A7A2E25081
:102334000CE5A1A2E2500653A7FB75A1FB7F0102A5
:102344001AF674F81219AB75210190061EE06406A2
:1023540070077A007B00121209A2AFE433FED2AFF9
:10236400900624E0640170187A207B0090061DE03A
:10237400F912053D7A207B0090061DE0F912049BBA
:10238400906182E0D2E6F09007BDE0602185C6222C
:102394008016900623E064017008E5C654F84405ED
:1023A400F5C653BEFC1221247401652160E4EEA23B
:1023B400E092AF7F01021A578E238F2485822885ED
:1023C4008327851882851983E0CEA3E0CF852882F0
:1023D400852783EBC9EAC8EDCBECCA75F010C3E8D6
:1023E40033C8E933C9EA33CAEB33CBC3EA9EF526D3
:1023F400EB9FF525B35004AB25AA26EC33CCED3383
:10240400CDD5F0DAAE23AF242274E91219AB74FAF5
:102414001218E8EAFEEBFF8C088D0990061EE024F2
:10242400F7C39405500675100102253812117F8AEE
:102434000A8B0BEA450B700302253512123F8A0CF6
:102444008B0D12123FEA650C7003EB650D60ECEE28
:10245400FCEFFD851882851983AA82AB831212458D
:10246400850A82850B83A3A3780C1217B8908F3C3E
:10247400780C12179285188285198378141217B86C
:10248400908F3C7814121792780C791412153950E5
:102494001F780C7914121752908F74780C121559F6
:1024A4004047850C10850D11850E12850F1380454C
:1024B400908F74851410851511851612851713785D
:1024C40010790C1217527810121559501C751000FF
:1024D40075110075120075130178107914121752D2
:1024E4007810790C121719800C751001751100758C
:1024F4001200751300740978101216FA908FAC78D4
:102504000C1217B87810790C1215F890061EE064B6
:1025140008600AE064066005E064057020908F1886
:1025240078101215595016908F24781012172C8099
:102534000C75100075110075120075130085088262
:1025440085098378101217C774061218FE7F1002CB
:102554001A5774F71219AB1212579007BBE06401B3
:102564007010906245E4F0A3F053F4F343FE0C536F
:1025740090F31211F7E5C654804449F5C6E59E541C
:102584007F644970F8906185740FF09007B9E0F4A6
:102594007002A3E0602C7508017509009007B9E08A
:1025A40078081218D5E508F4FAA3E0600814600A64
:1025B40014600C800DEA52808008EA52908003EA8D
:1025C40052A079007F02021A5774F71219ABE9FE80
:1025D400EAFF74016E700C7A807B0090061DE0F9AE
:1025E4001204959028F0E493F46008E493F9120F30
:1025F400C3800953C680E59E547F70FA1211FD9082
:1026040007BBE064017003120FF99007B9E0F4709E
:1026140002A3E0602A7508017509009007B9E07803
:10262400081218D5AA08A3E0600814600A14600C04
:10263400800DEA42808008EA42908003EA42A012B8
:10264400117F8A088B09A808A909E8496017E5E100
:1026540070FCE82414F582E93400F583E0F874FF93
:1026640068600288E174016F700A7A0190061DE0C7
:10267400F912050D0225C874F11219AB8A088B09E9
:102684008C0A8D0B908F3C7808121792740F1219D4
:1026940033780C1217B8908F3C780C121792780884
:1026A400790C121539908F7450107808790C121720
:1026B4005278081215594014800E780C79081217B4
:1026C40052780C12155950047901800279007F0860
:1026D400021A5774ED1219AB8A088B098C0A8D0BF8
:1026E400908F3C78081217927413121933780C12D5
:1026F40017B8908F3C780C121792780C7908121541
:102704003940117808790C121752AA08AB09AC0A9F
:10271400AD0B802275100075110075120075130140
:102724007810790C12175278107908121719AA1018
:10273400AB11AC12AD137F0C021A57908F3C780882
:102744001217B88A828B8378081217A57F04021A9D
:102754005774F51219AB8C828D8378081217B88AD6
:10276400828B83780812177E1227A9C3E098F0A3FE
:10277400E09912279B401E908F6478081217B88A3C
:10278400828B83780812173F8E828F83E02420F097
:10279400A3E0344EF080A4F08E828F83C3E09420B3
:1027A400A3E0944E22EA2404F8EB3400F9E8FEE9AD
:1027B400FF8C828D83A3A3A3A3E0F8A3E0F98E8208
:1027C4008F832274F51219ABE9FE900773E0FAA324
:1027D400E0FBEEC333F8E433F9749F28F582748E7A
:1027E40039F583E02AF508A3E03BF5097808121BC4
:1027F40052908F6C1217D61223BC74021218FE8AE0
:10280400088B098C0A8D0B741078081216E1AA083B
:10281400AB097F04021A5774F11219AB8A0C8B0DA1
:102824008C0E8D0F740F121933E0FAA3E0FB7411B0
:10283400121933E0F508A3E0F5097808121B52EAEF
:102844002401F508EB3400F509E4F50AF50B780CDE
:102854007908121578908F8878081217B8780C794F
:1028640008121578AA0CAB0DAC0EAD0F1223BC7474
:10287400021218FE8B09EA450960047A0180027A83
:1028840000EC2AFCED3400FD7413121933E0F8A3B4
:10289400E0F9E8FEE9FFECF8EDF97A717B02121831
:1028A4005D88088909E4F50AF50B8E828F83780820
:1028B4001217C7ECF8EDF97A717B0212185D8A08D9
:1028C4008B09740578081218D58E828F83A3A3A36D
:1028D400A3E508F0A3E509F07F08021A57C082C0F7
:0B28E40083E9906000F0D083D08222D6
:1028F000FFFFFFFFFFFFFFFF74EE12193F74FA1294
:1029000018E88A0A8B0B8909ECFEEDFF7508008533
:102910000A0C850B0D780C121B96000410D12B416C
:102920002962298129A229C329E429172A382A4F93
:102930002A7D2A3B2B5C2B7C2BA62BD12BD12BA8C1
:102940002A7401650970158E828F83E0C394035049
:102950000B8E828F83E0900B73F080037508180252
:102960002BFA7402650970138E828F83E0F8A3E05E
:10297000F9900B74E8F0A3E9F08003750818022BB6
:10298000FA7401650970158E828F83E0C39402503A
:102990000B8E828F83E0900321F08003750818026C
:1029A0002BFA7401650970158E828F83E0C394053C
:1029B000500B8E828F83E0900322F08003750818FD
:1029C000022BFA7401650970158E828F83E0C3941F
:1029D00002500B8E828F83E0900323F080037508F2
:1029E00018022BFA741065097027750C10750D000C
:1029F000780C121B52EEFCEFFD7A247B031204418B
:102A000074021218FE8A0C8B0D850C82850D838052
:102A100003750818022BFA7401650970158E828FF0
:102A200083E0C39402500B8E828F83E0900334F0D6
:102A30008003750818022BFA74016509700B8E82E9
:102A40008F83E0900B77F08003750818022BFA74DF
:102A50000465097022908F6C780C1217B88E828FE3
:102A600083780C121549500F8E828F831217D690DF
:102A700003361217E28003750818022BFAE5097075
:102A800021120B31E97013120699E9F50C795012F5
:102A90000837E9F50D120687800B9003C97401F021
:102AA0008003750818022BFA740765096003022B6E
:102AB00035750E06750F00780E121B528E828F83AD
:102AC000A3AC82AD837402121933AA82AB831204C1
:102AD0004774021218FE8A108B1185100E85110F93
:102AE0007C007D00851882851983AA82AB838E8243
:102AF0008F83E0F9120627E9F50CE50CC3940A5020
:102B00002F120B31E97015A90C12069FE9F50D790A
:102B100050120837E9F50E120687801C750D0074F7
:102B2000CA250CF5827403350DF5837401F0800815
:102B30007508028003750818022BFA740165097084
:102B4000158E828F83E0C39402500B8E828F83E0B8
:102B5000900335F08003750818022BFA740165099B
:102B600070158E828F83E0C3940A500B8E828F8300
:102B7000E0900B76F08003750818807E740165097B
:102B8000701F8E828F83E0C3940740158E828F83DF
:102B9000E0C39411500B8E828F83E0900B78F0800D
:102BA0005975081880547401650970209003C8E0B5
:102BB000F50C8E828F83E09003C8F0E50C703B909B
:102BC00003C8E064017033120687802E75081880F0
:102BD00029C3E50A9427E50B9400501B740265098C
:102BE00070158E828F83E0FCA3E0FDAA0AAB0B1266
:102BF00009CFE9F5088003750802A90874061218C0
:102C0000FE7F0A021A1174EC12193F74DA1218E8E6
:102C1000890D8A128B138C0A8D0B743A121933E0CA
:102C2000F50C908EE8C082C083851882851983AC2C
:102C300082AD83D083D08274061217FB85188285FB
:102C40001983AC82AD83AA12AB13A90D120627E932
:102C5000FEEEC3940A4003022DA5EEF9120669E9BF
:102C6000FF900B73E064027004740180027400F53D
:102C7000087808121B56AD0CEFFCEEF9AA0AAB0B54
:102C80001206DB74011218FE7C147D0079007412A8
:102C9000121933AA82AB831204598A0E8B0F850E48
:102CA00008850F097412121933AC82AD837A10753E
:102CB000F006EEA42424F9120831E970437C10795F
:102CC000FF7412121933AA82AB831204B9E970306F
:102CD0007422121933AC82AD837A0475F006EEA427
:102CE0002425F9120831E9F5087412121933AC825F
:102CF000AD83EFA2E0E433F9AA0AAB0B120A59E95B
:102D00007406121933AC82AD837A0C74702EF912EA
:102D10000831E9707E7406121933AA82AB83120659
:102D20005D750E00E50EC394045068E50EA80E799B
:102D300000E875F003A4C8AAF075F000A42AFA759B
:102D4000F003E9A42AF97406121933E58228F5087C
:102D5000E58339F509850882850983E0F8A3E0F960
:102D6000E849602B850882850983A3A3E0F51075E7
:102D700011007810121B52850882850983E0FCA39C
:102D8000E0FDAA0AAB0B120D0B74021218FEE90546
:102D90000E8091EFA2E1500D900320E0F9AA0AAB5A
:102DA0000B120D11E97404650C700F900B73E06445
:102DB000027007AA0AAB0B1206D579007426121806
:102DC000FE7F0C021A1174F212193F890BEAFEEB16
:102DD000FF8C088D09750A0AE50B600C1460091454
:102DE0006044146064022E6AEEFAEFFB12067BE97F
:102DF000F50AE50AC3940A5071E5084509606B7548
:102E00000C06750D00780C121B52EEFCEFFDAA08A3
:102E1000AB0912044174021218FE8A0C8B0D850C4A
:102E200082850D838044EEFAEFFB120675E9F50A00
:102E3000E50AC3940A5033E5084509602DAA08AB9A
:102E400009A90A12066FE98021EEFAEFFB1206814A
:102E5000E9F50AE50AC3940A5010E5084509600A35
:102E6000AA08AB09A90A12066FE9A90A7F06021A85
:102E70001174F212193F8A0C8B0DE9FE7F1574FF55
:102E8000650C700474FF650D702A750800E508C3B1
:102E9000940A5014EEFC7A027B00A90812064BE952
:102EA00060027F00050880E5EE60637AC37B06124E
:102EB0000F03805AAA0CAB0D120EE58A0A8B0B8504
:102EC0000A08850B09E508450960417C007D00E59D
:102ED000082405FAE5093400FB850882850983A3E7
:102EE000A3A3A3E0F9120627E9F50AE50AC3940AA9
:102EF000500EEEFC7A027B00A90A12064BE97F0015
:102F0000EE600BAA08AB091206C380027F14EFF92A
:102F10007F06021A1174EE12193F8A0E8B0F8C0A6B
:102F20008D0B7412121933E0F50CA3E0F50D750842
:102F30001574FF650E700474FF650F701E7E00EE41
:102F4000C3940A5062AC0CAD0DAA0AAB0BEEF91299
:102F50000651E960037508000E80E4AA0EAB0F125B
:102F60000EE58A108B11AE10AF11EE4F60367C006B
:102F70007D00EE2405FAEF3400FB8E828F83A3A33D
:102F8000A3A3E0F9120627E9F509E509C3940A505D
:102F900016AC0CAD0DAA0AAB0BA909120651E975C6
:102FA00008008003750814A9087F0A021A1174F733
:102FB00012193FEAFEEBFF90033AEEF0A3EFF09018
:102FC0000320E0FC7D007A267B001209CFE9F5089A
:102FD000900320E0F9120C8D7F01021A1174EE1299
:102FE000193F8A108B11E9FE7412121933780C12F2
:102FF00017B87F00EE7041850C08850D09850E0A13
:10300000850F0B908F6C780C1217B87808790C121A
:1030100015F87810121B52AA0CAB0DAC0EAD0F12A6
:103020000A6B74021218FEE9FFEF60167901AA100C
:10303000AB11120A65E9800AEEF9AA10AB11120A67
:1030400065E9EFF97F0A021A1174F212193F74EC64
:103050001218E88A0A8B0B850A82850B83A3A3E0EA
:1030600024FA70030234A924FD700302331F147084
:103070000302313C14601024FD70030232C7147047
:103080000302335F023517AE0AAF0B90033AE0F844
:10309000A3E0F9E849606990033AE0F8A3E0F5831A
:1030A0008882E0F8A3E0F9E8496055EE240CF58247
:1030B000EF3400F583E0F5087808121B56EE240B78
:1030C000F582EF3400F583E0F98E828F83A3A3A30A
:1030D000A3A3A3A3A3A3E0FCA3E0FDEE2403FAEFC4
:1030E0003400FB90033AE0F8A3E0F5838882E0F82F
:1030F000A3E0F583888212193D74011218FE80390D
:103100008E828F83A3A3A3A3A3A3A3A3A3121B694C
:103110009003361217D6120A6B74021218FEE96079
:103120001879018E828F83A3A3A3A3A3A3A3A3A330
:10313000E0FAA3E0FB120A65E9023517AE0AAF0B0D
:103140008E828F83A3E060030232758E828F83A309
:10315000A3A3A3A3E0A2E040030232759003D4E04E
:10316000F8A3E0F9E84960030232757C0E7D00792E
:1031700000851882851983AA82AB831204598A08B4
:103180008B09AA08AB09EE240CF582EF3400F58315
:10319000E0F8A3E0F9E849603B7508067509007896
:1031A00008121B52EE240CF582EF3400F583E02464
:1031B00010FCA3E03400FD7402121933AA82AB8321
:1031C00012044174021218FE8A088B098508828550
:1031D000098380548E828F83A3A3A3E0FAA3E0FB2C
:1031E000120EE58A0C8B0D850C08850D09E5084546
:1031F000096032750C06750D00780C121B52E5083B
:103200002405FCE5093400FD7402121933AA82ABCF
:103210008312044174021218FE8A0C8B0D850C82F5
:10322000850D8380030235178E828F83A3A3A3A30A
:10323000A3E0A2E25004D2F08002C2F0A2F0E43394
:10324000F87900740C121933E048F0A3E049F0EE6D
:10325000FCEFFD851882851983AA82AB8312066371
:10326000E970127A027B00900320E0F9120495E9DC
:10327000790002351990033AE0F8A3E0F9E84960D3
:103280004390033AE0F8A3E0F5838882A3A3E0F833
:10329000A3E0F9E849602D8E828F83A3E0FC7901D9
:1032A0008E828F83A3A3A3E0FAA3E0FB90033AE00E
:1032B000F8A3E0F5838882A3A3E0F8A3E0F5838870
:1032C0008212193D023517AE0AAF0B90033AE0F8AF
:1032D000A3E0F9E849604590033AE0F8A3E0F583FC
:1032E0008882A3A3E0F8A3E0F9E849602F850A8269
:1032F000850B83A3E0FC79028E828F83A3A3A3E0D6
:10330000FAA3E0FB90033AE0F8A3E0F5838882A3F8
:10331000A3E0F8A3E0F583888212193D023517AEC9
:103320000AAF0B7C007D00EE2404FAEF3400FB8E24
:10333000828F83A3A3A3E0F9120627E9F508E50825
:10334000C3940A5017EE240AFCEF3400FD7A04758A
:10335000F006E508A42425F912082BE9023517AE7A
:103360000AAF0B900335E06018900B76E0F98E827F
:103370008F83A3A3A3E0FAA3E0FB120A65E9023559
:1033800017900B73E0701579058E828F83A3A3A32A
:10339000E0FAA3E0FB120A65E90235178E828F83FB
:1033A000A3A3A3E0FAA3E0FB120EE58A0C8B0D8524
:1033B0000C08850D098E828F83A3A3A3A3A3A3A3C7
:1033C000E0A2E05075E5084509606C850882850932
:1033D00083A3A3A3A3E060628E828F83A3A3A3A38E
:1033E000A3A3A3A3A3E0F8A3E0F9E8C4540FF879DA
:1033F000005401F8E95400F9E8A2E0403D740E12CF
:103400001933AC82AD83E5082405FAE5093400FBE5
:10341000850882850983A3A3A3A3E0F9120627E9FF
:10342000701879038E828F83A3A3A3E0FAA3E0FB35
:10343000120A65E9023517023517EE2405FCEF3450
:1034400000FD850882850983A3A3A3A3E0F98E82EA
:103450008F83A3A3A3E0FAA3E0FB1206CF90033A65
:10346000E0F8A3E0F9E849603E90033AE0F8A3E011
:10347000F5838882A3A3E0F8A3E0F9E84960287CFB
:103480000079008E828F83A3A3A3E0FAA3E0FB90D0
:10349000033AE0F8A3E0F5838882A3A3E0F8A3E071
:1034A000F583888212193D806E120B31E9706890A5
:1034B00003C9E06401701A120699E9FE9003C97409
:1034C00000F07C0A7D0079007ACA7B0312045980DF
:1034D0003C7E00EEC3940A50348E0875090074CA0D
:1034E0002508F58274033509F583E06401701BEE4D
:1034F000F912069FE9F88E0875090074CA2508F5C7
:103500008274033509F5837400F00E80C679501279
:103510000837E9FE120687790174141218FE7F0637
:10352000021A1174F312193F74F21218E88909EAA9
:10353000FEEBFF8C0C851882851983AC82AD837AF3
:103540000E75F006E509A42420F9120831E970721D
:103550007C0679FF851882851983AA82AB831204C1
:10356000B9E9705E740C121933E0F8A3E0F9E8F5DC
:1035700008E50C6005EE42088004EEF45208850868
:103580000A750B00740C121933E0650A7004A3E08D
:10359000650B602AE508A8087900740C121933E558
:1035A00008F0A3E9F0851882851983AC82AD837A8F
:1035B0000E75F006E509A42420F912082BE979011B
:1035C00080027900740E1218FE7F05021A1174F041
:1035D00012193F74E61218E8890B8A0C8B0DECFE69
:1035E000EDFF740C121933AC82AD837A0E75F006C0
:1035F000E50BA42420F9120831E960030237327C7C
:103600000679FF740C121933AA82AB831204B9E94C
:103610006003023732851882851983AC82AD837AC4
:103620000C7470250BF9120831E9600302372E750E
:103630000A00851882851983AA82AB8312065DE58C
:103640000C450D703A7C0C7900851882851983AA87
:1036500082AB831204B9E960030237087C0C7D0059
:103660007900851882851983AA82AB831204598A4E
:10367000088B09850882850983750A010237088548
:103680001882851983AC82AD83AA0CAB0D12065744
:103690008A0E8B0F850E08850F09E50845097036DF
:1036A000EE4F6021851882851983AC82AD837A0044
:1036B0007B001206578A0E8B0FA80EA90F88088967
:1036C00009E84970047900806B850882850983E5E3
:1036D0000CF0A3E50DF0850882850983A3A3E0F82B
:1036E0007900EE687002EF69601EEE850882850938
:1036F00083A3A3F0EE4F700D8508828509837400C3
:10370000F0A37400F0750A01E50A6022851882852D
:103710001983AA82AB8312065D851882851983AC52
:1037200082AD837A0C7470250BF912082BE97901AC
:1037300080027900741A1218FE7F08021A1174F7B9
:1037400012193FEAFEEBFF7B00EBC39404504EEBF3
:10375000F87900E875F003A4C8AAF075F000A42A6F
:10376000FA75F003E9A42AF9EC28F582ED39F5831E
:10377000E06E7003A3E06F7021EBF87900E875F05C
:1037800003A4C8AAF075F000A42AFA75F003E9A40E
:103790002AF9EC28FAED39FB80070B80AC7A007B24
:1037A000007F01021A1174F712193F7F00EFC394D2
:1037B000044003023855EFF87900E875F003A4C817
:1037C000ACF075F000A42CFC75F003E9A42CF9EA28
:1037D00028F582EB39F583E0F4FCA3E0F4FDEFF883
:1037E0007900E875F003A4C8AEF075F000A42EFED1
:1037F00075F003E9A42EF9EA28F582EB39F583EC9C
:10380000F0A3EDF0EFF87900E875F003A4C8ACF090
:1038100075F000A42CFC75F003E9A42CF9EA28F556
:1038200082EB39F583A3A3E0F4C0E0EFF87900E878
:1038300075F003A4C8ACF075F000A42CFC75F0037F
:10384000E9A42CF9EA28F582EB39F583A3A3D0E0AB
:10385000F00F0237AD7F01021A1174F012193F7494
:10386000F41218E8EAFEEBFF8C088D099003D4E00F
:10387000F8A3E0F9E849702CEE4F6006E508450929
:1038800070057901023B12EEFAEFFB12067BE9901C
:103890000B79F0900B79E0C3940A400812068DE989
:1038A000900B79F0900B79E0C3940A4003023B102F
:1038B0009003D4E0F8A3E0F9E849600302395CEE34
:1038C000FCEFFD7A0E75F006900B79E0A42420F948
:1038D00012082BE9F50C7C0C7D0079FF8518828598
:1038E0001983AA82AB831204598A0E8B0F850E0AA4
:1038F000850F0B851882851983AC82AD837A0C9075
:103900000B79E02470F912082BE9F50D750E0E7590
:103910000F00780E121B52EEFCEFFD900B79E0F8D1
:103920007900E875F00EA4C8AAF075F000A42AFA90
:1039300075F00EE9A42AF9743C28FA740339FB12D5
:10394000044174021218FE8A0E8B0FA80EA90F9064
:1039500003D4E508F0A3E509F0023B0C9003D4E0A2
:10396000F8A3E0C82406F582E83400F583E0F8A364
:10397000E0F9E84960439003D4E0F8A3E0C82406E6
:10398000F582E83400F583E0FCA3E0FD7A1B75F0D6
:1039900006900B79E0A42421F912082BE9F8900392
:1039A000D4E0F9A3E0C92406F582E93400F5837474
:1039B00000F0A37400F0023B0C9003D4E0F8A3E005
:1039C000C8240AF582E83400F583E0F8A3E0F9E8BA
:1039D0004960439003D4E0F8A3E0C8240AF582E8E4
:1039E0003400F583E0FCA3E0FD7A1B75F006900B34
:1039F00079E0A42422F912082BE9F89003D4E0F925
:103A0000A3E0C9240AF582E93400F5837400F0A329
:103A10007400F0023B0C9003D4E0F8A3E0C8240C3F
:103A2000F582E83400F583E0F8A3E0F9E849604363
:103A30009003D4E0F8A3E0C8240CF582E83400F544
:103A400083E0FCA3E0FD7A1075F006900B79E0A40A
:103A50002423F912082BE9F89003D4E0F9A3E0C974
:103A6000240CF582E93400F5837400F0A37400F0AF
:103A7000023B0C9003D4E0F8A3E0C82408F582E8E8
:103A80003400F583E0F8A3E0F9E849606F9003D4CF
:103A9000E0F8A3E0C82408F582E83400F583E0FCF0
:103AA000A3E0FD7A1075F006900B79E0A42424F9C8
:103AB00012082BE9F50A9003D4E0F8A3E0C8240823
:103AC000F582E83400F583E02410FCA3E03400FD27
:103AD0007A0475F006900B79E0A42425F912082BDE
:103AE000E9F89003D4E0F9A3E0C92408F582E934A9
:103AF00000F5837400F0A37400F080109003C8E018
:103B000060031206E11206C979018006790080027D
:103B10007901740C1218FE7F08021A1174F7121939
:103B20003F74F21218E8E9FE851882851983AC8289
:103B3000AD837A0E75F006A42420F9120831E970DD
:103B40000E740C121933E0F8A3E0F9E8F980027959
:103B500000740E1218FE7F01021A1174F412193F3C
:103B600074F21218E88909EAFEEBFFE509C3940A2A
:103B70005004EE4F70047902804B851882851983BA
:103B8000AC82AD837A0E75F006E509A42420F91203
:103B90000831E9F508E508702A750A06750B007802
:103BA0000A121B527402121933AC82AD83EEFAEF83
:103BB000FB12044174021218FE8A0A8B0B850A82DA
:103BC000850B83A908740E1218FE7F04021A117463
:103BD000F412193FEAFEEBFF750800E508C3940AEA
:103BE0005045750A06750B00780A121B52EEFCEF61
:103BF000FDE508A8087900E875F00EA4C8AAF075DC
:103C0000F000A42AFA75F00EE9A42AF9744228FA01
:103C1000740339FB12045374021218FEE96004A9FC
:103C2000088006050880B4790A7F04021A1174F42A
:103C300012193FEAFEEBFF750800E508C3940A502D
:103C400045750A06750B00780A121B52EEFCEFFD53
:103C5000E508A8087900E875F00EA4C8AAF075F088
:103C600000A42AFA75F00EE9A42AF9743C28FA7423
:103C70000339FB12045374021218FEE96004A90808
:103C80008006050880B4790A7F04021A1174F712BD
:103C9000193F74F01218E8EAFEEBFF750800E5081A
:103CA000C3940A504B851882851983AC82AD837A00
:103CB0001075F006E508A42423F9120831E9702CE8
:103CC0007C1079FF851882851983AA82AB83120440
:103CD000B9E97018EEFCEFFD851882851983AA8278
:103CE000AB83120A3BE97004A9088006050880AE80
:103CF000790A74101218FE7F01021A1174F4121955
:103D00003F750800E508C3940A4003023DDEE5085C
:103D1000A8087900E875F00EA4C8AAF075F000A410
:103D20002AFA75F00EE9A42AF9743C28FC740339C8
:103D3000FD7A0E75F006E508A42420F9120831E991
:103D40007003023DD97C067D0079FFE508AA087B57
:103D500000EA75F00EA4CAA8F075F000A428F87562
:103D6000F00EEBA428FB743C2AFA74033BFB12040C
:103D7000598A0A8B0BAE0AAF0B7C067D0079FFE5F2
:103D800008AA087B00EA75F00EA4CAA8F075F00036
:103D9000A428F875F00EEBA428FB74422AFA7403E9
:103DA0003BFB1204598A0A8B0BAC0AAD0BE508A841
:103DB000087900E875F00EA4C8AAF075F000A42AEE
:103DC000FA75F00EE9A42AF9744828F582740339CB
:103DD000F5837400F0A37400F00508023D0490031D
:103DE000C8E060031206E11206C97F04021A1174CA
:103DF000F712193F7E00EEC3940A50327C0679FF19
:103E0000EEFA7B00EA75F00EA4CAA8F075F000A4E3
:103E100028F875F00EEBA428FB743C2AFA74033BD7
:103E2000FB1204B9E96004EEF980050E80C8790A36
:103E30007F01021A1174F712193F7E007F00EFC351
:103E4000940A502F7C0679FFEFFA7B00EA75F00E9A
:103E5000A4CAA8F075F000A428F875F00EEBA42809
:103E6000FB743C2AFA74033BFB1204B9E970010E9F
:103E70000F80CBEEF97F01021A1174F712193F7E01
:103E8000007F00EFC3940A500DEE700AEFF912069E
:103E90009FE9FE0F80EDEEF97F01021A1174F01216
:103EA000193F74CB1218E88909900B79E065097005
:103EB0001D7A017B00900320E0F912049BE97A024D
:103EC0007B00900320E0F912049BE91206ED7427B1
:103ED000121933AC82AD837A0E75F006E509A4247D
:103EE00020F9120831E960030240097C0679FF7469
:103EF00027121933AA82AB831204B9E96003024086
:103F0000097C0E7D0079FF7427121933AA82AB83D6
:103F10001204598A0A8B0B850A0C850B0D7C1B7DBC
:103F20000079FF740C121933AA82AB831204598AE8
:103F30000E8B0F850E0A850F0B7C0C7D0079FF859B
:103F40001882851983AA82AB831204598A0E8B0FBB
:103F5000AE0EAF0F7427121933AC82AD837A0E7593
:103F6000F006E509A42420F912082BE9F508740CE1
:103F7000121933AC82AD837A1B75F006E509A424CF
:103F800021F912082BE94208740C121933AC82ADE6
:103F9000837A1B75F006E509A42422F912082BE99F
:103FA0004208740C121933AC82AD837A1075F00696
:103FB000E509A42423F912082BE94208740C12190C
:103FC00033AC82AD837A1075F006E509A42424F998
:103FD00012082BE94208740C121933AC82AD837AB3
:103FE0000475F006E509A42425F912082BE9420816
:103FF000851882851983AC82AD837A0C747025098B
:10400000F912082BE942088003750800A9087435E5
:104010001218FE7F08021A1174F712193FE9FE9078
:104020000320F01206877F01021A1174F212193F61
:10403000890AEAFEEBFFEE5400F8EF5480F9E849F4
:104040006035900320E0F912047D8A0C8B0DA80CDA
:10405000A90D88088909E8496012AA08AB09120667
:10406000B1E96008AA08AB0912046BE9EE6400FA32
:10407000EF6480FB02412FEE5402602D7C007D0036
:104080007A007B00120663E960187A017B009003D6
:1040900020E0F9120495E9EE6402FAEF6400FB02F5
:1040A000412F7A027B0002412FEEA2E0507D900367
:1040B000D4E0F8A3E0F5838882A3A3A3E0FAA3E009
:1040C000FB1206E7E9605E90033AE0F8A3E0F9E846
:1040D00049604590033AE0F8A3E0F5838882A3A302
:1040E000E0F8A3E0F9E849602F7C0079019003D45F
:1040F000E0F8A3E0F5838882A3A3A3E0FAA3E0FBA2
:1041000090033AE0F8A3E0F5838882A3A3E0F8A344
:10411000E0F583888212193D1206EDEE6401FAEF94
:104120006400FB800A7A017B0080047A007B007FB8
:1041300006021A1174F712193FEAFEEBFF75080127
:104140008E828F83E02450601314601924E1701C68
:10415000EEFAEFFB120645E9F5088010EEFAEFFBE8
:104160001206B78007EEFAEFFB1206BDA9087F0121
:10417000021A1174F712193FEAFEEBFF8E828F8349
:10418000A3A3A3A3E0641E701179008E828F83A382
:10419000A3E0FAA3E0FB12062DE97F01021A1174D5
:1041A000F612193FEAFEEBFF8E828F83A3A3A3A32F
:1041B000E0703A8E088F09850882850983A3A3A33E
:1041C000A3A3A3A3121B69850882850983A3A3A3C4
:1041D000A3A3E0FCA3E0FD850882850983A3A3E0F7
:1041E000FAA3E0FB12063374021218FEE97F020202
:1041F0001A1174F712193FEAFEEBFF900320E0F961
:104200008E828F83A3E0FAA3E0FB120D11E97F01F8
:10421000021A11C082C08374FF1218E8120693E9D3
:10422000C39402400B8518828519837402F08009BB
:10423000851882851983740AF0851882851983ACE4
:1042400082AD837A017905120B49E974011218FED7
:10425000D083D08202013574F212193F74E812182B
:10426000E8EAFEEBFF890A8C088D097C187D00794D
:1042700000851882851983AA82AB831204598A0C9F
:104280008B0DAC0CAD0D851882851983EEF0A3EF74
:10429000F0900322E0C0E07402121933D0E0F090F5
:1042A0000323E0C0E07403121933D0E0F0900B78E0
:1042B000E0C0E07417121933D0E0F074151219330E
:1042C000E054FEF8A3E054FFF9900B77E0A2E0E49D
:1042D00033FA7B00E84AF8E94BF97415121933E810
:1042E000F0A3E9F0900B77E0A2E15004D2F0800255
:1042F000C2F07415121933E054FDFAA3E054FFFB29
:10430000A2F0E433F87900C333F8E933F9EA48F866
:10431000EB49F97415121933E8F0A3E9F0900B7723
:10432000E0A2E35004D2F08002C2F07415121933F7
:10433000E054F7FAA3E054FFFBA2F0E433F50C7568
:104340000D007403780C1218D5EA450CF8EB450DF6
:10435000F97415121933E8F0A3E9F0900B77E0A295
:10436000E45004D2F08002C2F07415121933E05404
:10437000EFFAA3E054FFFBA2F0E433F50C750D0057
:104380007404780C1218D5EA450CF8EB450DF97455
:1043900015121933E8F0A3E9F0900B77E0A2E5508D
:1043A00004D2F08002C2F07415121933E054DFFA1F
:1043B000A3E054FFFBA2F0E433F50C750D00740587
:1043C000780C1218D5EA450CF8EB450DF974151266
:1043D0001933E8F0A3E9F0900B77E0A2E25004D2A1
:1043E000F08002C2F07415121933E054FBFAA3E016
:1043F00054FFFBA2F0E433F50C750D007402780C49
:104400001218D5EA450CF8EB450DF974151219335D
:10441000E8F0A3E9F0900323E0602A750C10750D15
:1044200000780C121B527C247D037406121933AAE7
:1044300082AB8312044174021218FE8A0C8B0D8524
:104440000C82850D83900334E06012E50A600E74DF
:1044500015121933E04402F0A3E04400F090033455
:10446000E060067801790080047800790074141205
:104470001933E048F0900321E06006780479008069
:1044800004780079007414121933E048F0AC08ADD8
:1044900009851882851983AA82AB83120A5FE974A1
:1044A000181218FE7F06021A1174F712193FEAFE5D
:1044B000EBFF750800900334E06006780179008016
:1044C0000478007900E84208900321E0600678044F
:1044D0007900800478007900E84208A908EEFAEF34
:1044E000FB120B19E97F01021A1174EE12193F74C5
:1044F000E51218E88A0C8B0DE9FF8C088D09742DE4
:10450000121933E0F50A74086509700A75F006EFB0
:10451000A42422FE800875F006EFA42421FE7C1B53
:104520007D007900851882851983AA82AB831204E5
:10453000598A108B1185100E85110F8518828519E7
:1045400083AC82AD837A1BEEF9120831E9703C74BA
:104550001A121933E0C394074031741A121933E068
:10456000C394115026E50AF50B780B121B56740103
:10457000121933AC82AD83E508A2E0E433F9AA0C4A
:10458000AB0D120A7174011218FEE9741B1218FEA9
:104590007F0A021A1174F712193F120D83E97E0087
:1045A000EEC3940A50557C0679FFEEFA7B00EA755B
:1045B000F00EA4CAA8F075F000A428F875F00EEB70
:1045C000A428FB743C2AFA74033BFB1204B9E9707B
:1045D00027EEF87900E875F00EA4C8AAF075F0008F
:1045E000A42AFA75F00EE9A42AF9743C28FA740397
:1045F00039FB7900120D89E90E80A57F01021A119D
:1046000074F612193F74FD1218E8EAFEEBFF9003EE
:10461000D6E0F8A3E0F9E84970397508D8750903C0
:104620007808121B527508027509007808121B528F
:104630007508027509907808121B527CFF7DFF7A7D
:10464000017B00120BD974061218FE9003D6EAF013
:10465000A3EBF09003D6E0F8A3E0F9E84970030279
:104660004721E4F508F5097808121B527404121961
:10467000338582088583097808121B527404121945
:10468000338582088583097808121B529003D8125B
:104690001B6979029003D6E0FCA3E0FDEEFAEFFB84
:1046A000120CFF74081218FEE9704A8518828519E9
:1046B00083E0FA7B007401121933E0F87900E4C852
:1046C000F9EA28F508EB39F509E508450960267887
:1046D00008121B529003D6E0F8A3E0F5838882A36A
:1046E000A3A3A3E0FCA3E0FDEEFAEFFB12063374F4
:1046F000021218FEE9E4F508F5097808121B529039
:1047000003D8121B697CFF7DFF9003D6E0FAA3E07B
:10471000FB120BE574041218FE9003D6EAF0A3EB2B
:10472000F09003D6E0F8A3E0F9E84970047901803D
:1047300002790074031218FE7F02021A11C082C0AF
:10474000839003D4E0F8A3E0F9E84960179003D41C
:10475000E0FAA3E0FB12046BE9F89003D47400F0D4
:10476000A37400F0900B79740AF0D083D082020118
:1047700035C082C083E9900C67F002499B74F71240
:10478000193FE990055DF07C957D057AFF7BFF126E
:104790000D1790055E74FFF0A3F0A3E4F0A3F07989
:1047A00005120CA590055DE0F9120BC17A2F7B0D67
:1047B000120ED37F01021A1174F412193F8A088B6A
:1047C00009EB5480603090055DE0F912047D8A0A9F
:1047D0008B0BAE0AAF0BEE4F60138E828F83E064BB
:1047E000B07003120CB7EEFAEFFB12046BAA08E5E7
:1047F000096480FB80047A007B0002496A74F2122B
:10480000193F74FC1218E8EAFEEBFFEE4F603874B3
:1048100002121933EEF0A3EF124BCFECF0A3ED121E
:104820004BCFAA82AB83120BBBE9F50870737412ED
:10483000121933125783E50A450B60658E828F8308
:104840001248ABEE4F700575080280557A067B0062
:104850001204F58A0C8B0DA80CA90DE8497005759A
:104860000813803D88828983E41248B5A3A3EEF043
:10487000A3EF125C1CE50AF0A3E50BF090056312B0
:10488000493D9005636017E0FCA3E08003EAFCEB80
:10489000FD8C828D8312493D70F38C828D8312567C
:1048A000A8A90874041218FE025E1EA3A3A3A3E025
:1048B000FEA3E0FF22F0A3F0888289832274F21223
:1048C000193F890AE975F017A4FEAFF0900562E47C
:1048D000F090056012493D600A1204FB900560E407
:1048E000F0A3F0EEFAEFFB1204F58A088B09EA4513
:1048F00009602FEEFCEFFD7900120459900560E588
:1049000008F0A3E509F07B008008124927E4F0A332
:10491000F00BEBC3950A40F2E50A900562F07900CE
:1049200080027913025E1EEB75F017A4F8A9F090CF
:104930000560E028FAA3E0398A82F5832212543E0A
:10494000EA4B2274F412193F7900EAA2E0501B7579
:1049500008DC75098E7808121B527C047D007A6988
:104960007B0C120C9F74021218FE7F04021A11C0F5
:1049700082C0839005631249A2601C88828983A348
:10498000A3E06A7003A3E06B8882898370E8A3A325
:10499000A3A312543A80047A007B00D083D0820211
:1049A0000135125EF1E8492274EE12193F74FC12CF
:1049B00018E8EAFEEBFF851882851983E4F0A3F07E
:1049C000EE240212568CEE2405124BBDEE2404F5A3
:1049D0000EEF124FA2E024FE603924FC604624FE54
:1049E000605224FE605E24FE7003024AC224FE7000
:1049F00003024B3A24FE7003024B4924FE7003026B
:104A00004B5824FC7003024B6724FE7003024B7664
:104A1000024BB390057C7417F0A3E4124BD7120835
:104A2000B5024BB3851882851983AC82AD83120C15
:104A3000BD024B83851882851983AC82AD83120C2D
:104A4000C3024B83850C08850D097402121933AC1F
:104A500082AD8385088285098312543A120BDF8A5E
:104A60000C8B0DAC0CAD0DEC4D6042E4F50CF50D6E
:104A7000780C121B52750C7C750D05780C121B52AC
:104A8000750C7D750D05780C121B527408121933C4
:104A9000121B697916125434120CFF74081218FE96
:104AA000E9F50C700B1254301208CD800F750C0113
:104AB000850882850983124BC51256A8850C080209
:104AC0004B867402121933AC82AD83850C82850D3E
:104AD0008312543A120BDF8A108B11AC10AD11EC1B
:104AE0004D6043850C82850D83A3A3121B6975104D
:104AF0007C7511057810121B5275107D75110578A3
:104B000010121B527408121933121B6979161254B1
:104B100034120CFF74081218FEE9F509700B1254D8
:104B2000301208D3800F750901850C82850D831220
:104B30004BC51256A8850908804C851882851983B3
:104B4000AC82AD83120CC9803A851882851983AC7A
:104B500082AD83120CCF802B851882851983AC829D
:104B6000AD83120CD5801C851882851983AC82AD6B
:104B700083120CDB800D851882851983AC82AD838E
:104B8000120CE1E9F508E50860298E828F83A3E025
:104B90006414601F850E82850F83E090057C124BA4
:104BA000CF125EED90057D1256A8E508A3124BD7F3
:104BB0001208AFEEFAEFFB120C63025594F50CEFFE
:104BC0003400F50D22125EF185188285198322F0DA
:104BD00085188285198322F07C7C7D05850A828573
:104BE0000B8312543E2274EE12193F74FC1218E823
:104BF0008A0A8B0B8C0E8D0FEA2405F508EB340026
:104C0000F5097C157D0079007A7C7B05120459E555
:104C1000082402F50CE509124BC08518828519831A
:104C20008582108583117810121B528508828509B0
:104C300083A3A3A3A31250EA121B52E5082405F58F
:104C400010E5093400F5117810121B52850C82858D
:104C50000D83125444120BD974061218FE8A108B5D
:104C600011AE10AF11E50A2402F50AE50B12568FBA
:104C7000EE4F7003024DAC801774021219331254B8
:104C80003A88828983EAF0A3EBF090057CE004F097
:104C900090057CE0C394054003024DACE4F510F5AB
:104CA000117810121B527510657511057810121BC2
:104CB000527510667511057810121B527406121980
:104CC00033121B697910EEFCEFFD125434120CFF05
:104CD00074081218FEE9705E850882850983A3A313
:104CE000A3A3A3A3A3E0F8900565E0687048125061
:104CF000EA121B527C667D05E5082408FAE50934B2
:104D000000FB12045374021218FEE960298E828F90
:104D100083A3A3A3A312543A90057CE0F510740278
:104D200078101218D5747D2510F58274053511F5AB
:104D300083EAF0A3EBF074021219338582108583A5
:104D4000117810121B527402121933121B69850C50
:104D500082850D83125F02120BE574041218FE8A1D
:104D6000108B11AE10AF1190057CE0F5107511009D
:104D7000740278101218D5747C2510F8740535115A
:104D8000F988828983A312493D7003024C70E8249C
:104D900003F8E93400F9EE4F6003024C7988828908
:104DA0008374FFF0A3F090057CE004F090057CE0B4
:104DB000600A1254301208C17900800B8508828580
:104DC000098312569F790A02559474EA12193F74A6
:104DD000FE1218E88C128D13EA2405F50CEB125F15
:104DE0000C1248AF750800750900EA2402F510EBB3
:104DF0003400F51185188285198385820A85830B15
:104E0000780A121B52850C82850D83A3A3A3A312DB
:104E10004FAC121B52E50C2405F50AE50D12568F16
:104E2000780A121B52850C82850D83125F00120BCB
:104E3000D974061218FE8A0A8B0BEA450B7003021E
:104E40004F5DEA2404F50EEB124FA21248AF8A829E
:104E50008B83A3A3A3E0F985108285118312543AB2
:104E6000120BC7E9F5096003024F5DE4F514F5156F
:104E70007814121B527514657515057814121B529F
:104E80007514667515057814121B527406121933C1
:104E9000121B697913AC0AAD0B8510828511831240
:104EA000543A120CFF74081218FEE9F50960030267
:104EB0004F5D900565E0F8E5087009E02402900573
:104EC0007DF0801790057DE0FCE82402FAE43400D0
:104ED000FBEA6C7001EB6003024F61850882AA82D5
:104EE0001250E194141250D95073850E82850F83AD
:104EF000E0C0E0747E2A124F99D0E0F00508850EDC
:104F000082850F83A3E0C0E085080A747E250A121B
:104F10004F99D0E0F00508900565124FAC121B5276
:104F20007C667D0585080A747E250AFA74053400BE
:104F3000FB12044174021218FE900565E02508F585
:104F40000874FF6E700374FF6F6012EE24010EEFA1
:104F50003400FFE508C394145003024DF4E50860E3
:104F60001312532585108285118312543A1208C7F3
:104F700079008014E509700375090A85128285138A
:104F800083EEF0A3EFF0A90974021218FE7F0E025F
:104F90001A1185080C747E250CF58274053400F511
:104FA00083223400F50F850E82F58322125C2F22B6
:104FB00074EE12193F74FE1218E88C0E8D0FEA245D
:104FC00005F50CEB124BC0750B0090057CE4F0F579
:104FD0000AEA2402F508EB3400F509804990057CC3
:104FE000E0FA900565E0F81250E194171250D940AC
:104FF0000D90057CE0F87416C398900565F012508A
:10500000EA121B527C667D05747D2AFA7405340011
:10501000FB12044174021218FE900565E0F8900539
:105020007CE028F0050AE50C2416F582E50D124F08
:105030009DE0F8E50AC39840030250C290057CE069
:10504000C39416507DE50AC333F8E433F9E50C2820
:10505000FEE50D39FF851882851983AC82AD838EFC
:10506000828F8312543A120BDF8A108B11AC10AD71
:1050700011EC4D7005750B018043E4F510F51178C6
:1050800010121B527510657511057810121B5275A0
:1050900010667511057810121B527406121933121E
:1050A0001B69791685088285098312543A120CFF10
:1050B00074081218FEE9F50B7003024FDD12569BBF
:1050C00080107C7C7D0585088285098312543A1204
:1050D00008D9A90B7402025596E99400C365D03330
:1050E00022EA28F8E43400F9E822E0F5107511000E
:1050F00078102274EA12193F74FC1218E88A0C8B9B
:105100000D8C128D13EA2405F50AEB12568F7508E3
:1051100000750900E50A2402F510E50B3400F511CD
:10512000740212193385820E85830F780E121B527A
:10513000850A82850B83A3A3A3A3125BDB121B52F8
:10514000E50A2405F50EE50B3400F50F780E121B69
:1051500052851082851183125695125434120BD940
:1051600074061218FE8A0E8B0FAE0EAF0FE50C24DC
:1051700002F50EE50D3400F50F80408882898374B6
:10518000FFF00508124F9274FFF00508900565E0E6
:10519000F50C750D00780C121B527C667D05850898
:1051A0000C747E250CFA74053400FB120441740261
:1051B0001218FE900565E02508F508EE4F60718E27
:1051C000828F83A3A3A3E0F9850E82850F831254F7
:1051D0003A120BC7E9F509EE2404124BBDE97044FD
:1051E000E4F514F5157814121B5275146575150540
:1051F0007814121B527514667515057814121B521B
:105200007408121933121B697911EEFCEFFD850E3B
:1052100082850F8312543A120CFF74081218FEE9AB
:10522000F5096027850C82850D8312531B1256A841
:10523000E5087003025301125325850E82850F8302
:1052400012543A1208DF7900025316850882AA82A6
:10525000EA9005657009E0240490057DF08022E065
:10526000F890057DE0F514E82404FCE43400FDEC3E
:1052700065147001ED70C01250E194121250D950B3
:10528000B6850C82850D83E0C0E0747E2A124F99AA
:10529000D0E0F00508850C82850D83A3E0C0E01204
:1052A0004F92D0E012533785820C85830D780C1213
:1052B0001B527404121933121B69851082851183E5
:1052C000125F02120BE574041218FE8A0C8B0DAEED
:1052D0000CAF0D85080C747E250CF874053400F9AC
:1052E000EE4F700302517B851882851983E0888216
:1052F0008983125337A3E0C0E0124F92D0E00251ED
:1053000089E509700375090A850A82850B831253A2
:105310001B1256A8A9097404024F8A125EF1851265
:10532000828513832290057DE0F5F0E508849005E1
:105330007CF07C7C7D0522F0050885188285198328
:105340002274EC12193F74FE1218E88A088B098C3B
:105350000E8D0FEA2405FEEB3400FF8518828519B7
:1053600083AC82AD838E828F8312543A120BDF8A14
:105370000A8B0BEE2418124BBDEA450B7003025446
:105380000B12557D503285188285198312543A12BA
:105390000CF38A108B11EA4511606B7912AC0AADDF
:1053A0000B85088285098312543A85108285118302
:1053B00012193DE9F50A7058E4F50AF50B780A125E
:1053C0001B528E828F83A3A3E0F50A780A121B5228
:1053D000EE240312568C780A121B528E828F83128F
:1053E0005444120D0574061218FEE9F50A70218561
:1053F0000C82850D83E0701F850882850983125415
:105400003A1208E58011750A0E8009750A018004B8
:10541000E50A600312569B850C82850D83E06004CB
:1054200079008002A90A74021218FE7F0C021A1178
:105430007C7C7D05850A82850B8312543E22E0FA2E
:10544000A3E0FB22E0FCA3E0FD850882850983122E
:10545000543E2274EE12193F74FE1218E88A088B2B
:10546000098C0C8D0DEA2405FEEB3400FF750E004F
:10547000851882851983AC82AD838E828F83125406
:105480003A120BDF8A0A8B0BEA450B70030255694F
:1054900012557D503585188285198312543A120CA5
:1054A000F38A0E8B0FEA450F605E7912AC0AAD0BE2
:1054B00085088285098312543A850E82850F8312EE
:1054C000193DE9F50E600302556C85088285098354
:1054D000125783AA0AFB120CE78A108B11A810A995
:1054E00011E849701E7AFF7BFF120CE78A108B11BE
:1054F000A810A911E849606C88828983E50AF0A3A5
:10550000E50BF0750A008007750E0E805F050A90A6
:105510000562E0FAE50AC39A504AE50A75F017A455
:10552000FAABF088828983A3A3E02AFAA3E03BFBCD
:105530008A828B83125695EC4D70D2750A17750BC3
:1055400000780A121B52EEFCEFFD120441740212A5
:1055500018FEEEFCEFFD85088285098312543A128D
:1055600008EB8014750E098003750E01125EE98543
:105570000C82850D831256A8A90E0250D4E508248A
:1055800002F508E5093400F5098A828B83A3A3A3F9
:10559000E0A2E52274041218FE7F0A021A1174ECCC
:1055A00012193F8C108D11EA2405F50CEB124BC03B
:1055B000750F00EA2402F50AEB12568F850A82F570
:1055C0008312543A120CE78A088B09EA45097003E2
:1055D000025681750E008071850C82850D83E06412
:1055E00001704F8E828F83A3A3121B698E828F83DB
:1055F000A3A3A3A3E0F5127513007812121B52EEB9
:105600002405F512EF3400F5137812121B521254D0
:1056100034120D0574061218FEE9F50F6014850C9E
:1056200082850D83E4F0125EE98510828511831274
:1056300056A87C177D007900EEFAEFFB1204598E14
:10564000828F83E4F0A3F0050E900562E0F8E50E8A
:10565000C398501EE50E75F017A4F8A9F0850882CE
:10566000850983A3A3125F16125695EC4D600302C1
:1056700055D885088285098374FFF0A3F0E50F7083
:10568000061254341208F1A90F02542BF50AEF3414
:1056900000F50B22A3E0FCA3E0FD228E828F831293
:1056A0005EF1850E82850F83E8F0A3E9F022C082C7
:1056B000C08390055EE06A7003A3E06B70067A5EBB
:1056C0007B0580047A007B0002499BC082C08378FE
:1056D000008C828D83E06A7003A3E06B7010E87524
:1056E000F003A4F8A9F0EC28FAED39FB8015088C3A
:1056F000828D83A3A3A3E06A7003A3E06B60DF7ACB
:10570000007B0002499B74F612193F120CB18A8289
:105710008B83E582458370067A007B008007A3A314
:10572000A3A312543A025D9A74F212193FE9FE746F
:105730000E1219331257837410121933125BFB8C3B
:10574000828D83E064027036A3125EF7F50CA3E04D
:10575000F9A80C74026870037429697021750C0231
:10576000750D00780C121B527808121B52780A1221
:105770001B52EEF9120D2974061218FE80027901EF
:10578000025E1EE0F50AA3E0F50B2274E812193F51
:1057900074FB1218E8E9851882851983F08A168B44
:1057A00017ECFEEDFF751000741D121933125EED3B
:1057B000741D1219331256A88E828F83A3A3A3E0FF
:1057C000A2E4502D741D12193312543A120CF38AAC
:1057D000828B83E58245837003025BCC790AEEFC01
:1057E000EFFDAA16AB1712193DE9F5106003025B35
:1057F000CF741F121933125BFB7421121933125725
:10580000837423121933E0F50EA3E0F50F8E828F17
:1058100083E064026003025B7AA3125EED85088276
:10582000850983A3858212858313EE2406124BBD5E
:1058300088828983E0FAA3E0F9EA2400F514E439C8
:10584000F5157814121BDC0100002801286F580799
:1058500000022834590328A15800296B5A012996BF
:105860005A0229375A03296B5A0429155B7A5BE5DA
:105870000E450F6003025B75850C82850D83125BFC
:10588000F0FAE9FB8A828B83E0850A82850B83121A
:105890005C26121B528A828B83A3E0FCA3E0025A8F
:1058A000FFE50E450F6003025B75850A82850B8359
:1058B0007401F0125C03850882850983F07C007D09
:1058C000008E828F83A3A3A3A3E02401FAA3E03474
:1058D00000FB120BDFEA4B60418A828B83E02402DB
:1058E000F8850A82850B83E028F0EA2404F8EB347B
:1058F00000F988828983E0851282851383125C38DF
:10590000125C26121B528A828B83125694E508245D
:1059100003FAE5093400FB025B04850A82850B83E8
:10592000E02404F07C047D007900AA12AB13120479
:1059300059025BCFE50E450F6003025B75125C03F5
:10594000FEA3E0FF850A82850B837404F0EE8508D0
:1059500082850983F0EF851282851383F074031228
:105960001933AC82AD83EEFAEFFB120BDF8A0C8B9E
:105970000DEA450D7003025A188A828B83A3A31285
:1059800048AB740112193385820E85830F780E128D
:105990001B527405121933121B697CFF7DFF120B19
:1059A000E574041218FE8B0FEA450F7033850C82E4
:1059B000850D83125BDB121B52850C82850D83A340
:1059C000121B697C027D007ACA7B8F1209C37404A2
:1059D0001218FEE9700A740112193374FFF0A3F073
:1059E0008E828F83E064027039750C02750D007829
:1059F0000C121B528E828F83125694E5082404FAEF
:105A0000E5093400FB12044174021218FE850A8273
:105A1000850B83E0240280097401121933EEF0A390
:105A2000EFF07401121933125BECF07401121933A8
:105A3000A3125BE4025B6FE50E450F6003025B752A
:105A4000850C82850D83125695AA16AB17120D1D73
:105A5000850A82850B837402F0EA850882850983B2
:105A6000F0851282851383EB025B72E50E450F60B1
:105A700003025B75125C03F8A3E0F9850A82850BCB
:105A8000837402F0E8850882850983F0E985128233
:105A9000851383025B72850C82850D8312543A1242
:105AA000043BEAFC8C82A882C3950EE4950F405F0C
:105AB000E8650E7002E50F70047C00802285188274
:105AC000851983E0FAE50E2AFAE50F3400FBC3EAF4
:105AD00098EB94005003E08005E50ECCC39CFCECF1
:105AE000850A82850B83F08C0A750B00780A121BDD
:105AF00052850C82850D83E0250EFCA3E0350FFD59
:105B0000AA08AB0912044174021218FE025BCF7599
:105B10001007025BCFE50E450F705A850C82850D8C
:105B200083125EED850A82850B8374071248B712D3
:105B30005BE41248B7A3E0851282851383F0E82462
