:020000040000FA
:0600000002011D0223189D
:03002B00021D8C27
:03003300021D614A
:0300530002238EF7
:03006B00021D363D
:100083000221C7E5C754F84401F5C77901220000EE
:100093000080FB120086B90003020107E47921788E
:1000A30008B800028004F709D8FCE479297802B87B
:1000B30000028004F709D8FCE490028178487908AB
:1000C3008002F0A3D8FCD9FA781A90014D7A01BACC
:1000D30000028007E493A3F608DAF99009C8AA821C
:1000E300AB8390014E782B79058015E493A3AC8202
:1000F300AD838A828B83F0A3AA82AB838C828D83A8
:10010300D8E9D9E77582817583FF740112012F75D0
:100113008291758300740012012F75D00075813FA1
:10012300751881751902759F00020096C09FF59F8F
:10013300E473D09F22D083D082C09FE493C0E07445
:100143000193C0E0740293F59F2201FFFF1101990F
:10015300010F1264040102C08F010000BD8E02BAB8
:100163008F010000CF0902F48F010000D00902B80B
:100173008F030000A60202F28F010000D1090809D3
:1001830043474D2053696D020105050208180A18FB
:1001930043474D2053696D756C61746F72000000A5
:1001A30000000000000130000095341290785600E2
:1001B3001403030801DF07EC003412E803031F01F3
:1001C300000E11171601DD07000050C011000003D7
:1001D3001F02000600000201DC0700003CC022FFF2
:1001E300FF031F03000B17000502DC07000037C0E5
:1001F300335555031F04000C02000E01DB073C00BE
:1002030065B144AAAA031F05000D050C0C01DB0709
:100213003C00F6B1F5A5A5031B0600070F00050278
:10022300DB073C007EB0165A5A031B070009040083
:100233000E04DB0788FF64B017AA55031B080000F0
:1002430000000101DD0788FF5AB02855AA031B09E6
:10025300000C00000502DD0788FF48B03911115F6B
:100263000100000109000151080746016400320042
:100273005F020000010A00015108074601640031D2
:10028300007F030000010A000151080746016400D2
:1002930031005F040000010A0001510807460164B0
:1002A3000031005F050000010A0001510807460103
:1002B300640031007F060000010A0001510807466F
:1002C30001640031005F070000010A0001510807C3
:1002D3004601640031005F080000010B0001510872
:1002E300074601640030007F090000010C00015142
:1002F3000807460164002F000900E0060000100211
:10030300020A020200282802C08F010000B58F02F2
:10031300BA8F0100007B0B02EE8F00000012030274
:10032300B88F0300000C0302BA8F0100007C0B029C
:10033300EC8F010000130302BA8F0100007D0B0252
:10034300EA8F010000140302BA8F0300007E0B0240
:10035300E88F030000150302BA8F0300007F0B022E
:10036300E68F030000800B02BA8F030000820B02AA
:10037300E48F0300001C0302B88F0300001603027E
:10038300BA8F030000830B02E28F030000230302F2
:10039300B88F0300001D03020202020202020202DE
:1003A300010D000000100102C08F010000AC8F029C
:1003B300BA8F010000140C02DC8F01000024030239
:1003C300BA8F010000150C02DA8F010000CE8E02F5
:1003D300BA8F010000160C02D88F010000D58E02DF
:1003E300BA8F010000170C02D68F010000448F0260
:1003F300BA8F010000180C02D48F010000488F024D
:10040300BA8F010000190C02D28F0100004C8F0239
:10041300BA8F0100001A0C02D08F010000508F0226
:10042300BA8F0100001B0C02CE8F010000AF8E02B9
:10043300BA8F0100001C0C02CC8F0100001D0C01BF
:10044300E803053F100AFF000130750302010600AF
:100453000000000000000000000000000000000099
:100463000000000000000000000000FFFF06008005
:100473000CE803FF0000B4000028002800283075B2
:10048300A000A000A000A00000080008E001F00008
:100493001000100010001000100010005000500059
:1004A300500010001000D0070000000000000F00F3
:1004B30001000500307507001000010081FF0000F6
:1004C3000000FF260C440C2C0CFF02020208025011
:1004D30000A0000000E80302C08F010000B28F02F9
:1004E300BA8F010000470D02FA8F010000F90402E0
:1004F300BA8F010000480D02F68F0100000F0502BC
:10050300BA8F010000490D02E08F010000110502BE
:10051300BA8F0100004A0D02C28F080000120502C3
:10052300BA8F0100004B0D02C88F0100004C0DFF74
:10053300FF0100FF2002C08F010000AF8F02BA8FBE
:10054300010000B10D02CA8F000000000002B88F45
:10055300030000A105921292129212921292129229
:100563001292129212921292129212921292126E8C
:1005730015861568151201385DED0212013872ED0A
:1005830002120138CAED0212013831EE02120138AB
:1005930079EE02120138EFEE021201381EEF021259
:1005A30001382CEF0212013890EF02120138CEEF1E
:1005B30002120138E9EF0212013881F00212013808
:1005C3002AF102120138ADF102120138E6F10212EA
:1005D300013871F202120138C8F20212013827F30E
:1005E3000212013839F3021201385FF302120138A3
:1005F30068F302120138C7F402120138CEDD031288
:10060300013878FC0212013857FD02120138B3FD9C
:1006130002120138CDFD02120138EDFD021201383C
:10062300EACA031201382FCB0312013875CB031228
:10063300013808CD0312013855DC0312013870DC90
:100643000312013880DC03120138D7DC03120138AE
:1006530023870312013843870312013847880312A3
:100663000138938803120138B388031201380689CD
:1006730003120138738903120138B989031201384F
:100683001D8A03120138CF8C03120138EED50312F1
:1006930001381ED6031201384ED6031201386ED626
:1006A30003120138C8D603120138D0B90312013836
:1006B30005BA03120138F4BA03120138D8BB031286
:1006C300013813A3011201380FA50112013892A5B5
:1006D30001120138CCA501120138AFA7011201386C
:1006E30078A80112013814AA011201388AAA01124A
:1006F3000138BBAA01120138BBAB0112013886B025
:1007030001120138B3B00112013846B401120138A5
:10071300E0B40112013821B5011201386D970312BB
:100723000138D69703120138E997031201383A9832
:1007330003120138999803120138DE990312013824
:10074300069C031201387792031201389C9203121C
:100753000138D7920312013871DE0312013894294C
:1007630000120138A22C00120138622E0012013847
:100773000D2F00120138B12F001201384A30001238
:100783000138793000120138E53000120138BF35E5
:10079300001201386A3600120138DA3700120138C4
:1007A300423800120138F63800120138B83B001203
:1007B3000138F73B001201386B3C00120138CA3C88
:1007C30000120138293D00120138983D001201380A
:1007D3008B3E00120138D13E00120138163F001241
:1007E3000138393F00120138B44000120138C740C4
:1007F30000120138D041001201380F4200120138B3
:100803003B42001201388E4200120138AF420012FF
:100813000138F3420012013845450012013886457C
:10082300001201383146001201389C46001201388B
:10083300D947001201387FDA0312013890DA031224
:1008430001386EDB0312013841C803120138DCCAD8
:1008530003120138CAFF0212013830D703120138DC
:1008630040D70312013857D7031201385CD803125B
:100873000138DBBF0312013881C0031201389DC266
:10088300031201384BCF031201387BCF0312013817
:10089300EBCF031201380FD0031201386BD00312D0
:1008A3000138E6D00312013823D10312013826D1CF
:1008B30003120138E5FF02120138F7FF0212013873
:1008C300FAFF02120138F87F0012013894C50312AF
:1008D30001388BC703120138F7C7031201383EC82A
:1008E300031201384CCD03120138B5CD0312013880
:1008F30073CE03120138F2CE03120138BBAE0312DA
:100903000138EDAE03120138F5AF031201381AB105
:1009130003120138D6B10312013812D10212013881
:10092300F8D10212013845D20212013888D20212DC
:100933000138FDD2021201385ED302120138D3D33B
:1009430002120138AFD402120138BAD502120138AB
:100953003BD602120138E2D70212013878D80212CC
:100963000138EBD80212013867D9021201387ED957
:1009730002120138B5DA021201380FDB0212013814
:10098300FD8F011201389594011201386997011204
:100993000138929701120138BB97011201386D9803
:1009A30001120138539A011201388E9B011201384A
:1009B300C4A001120138FDA00112013841A10112A6
:1009C300013853A20112013888D9031201389ED984
:1009D30003120138CDD90312013803DA03120138A7
:1009E3001ADA0312013851DA0312013868DA0312F2
:1009F300013834D1031201384BD1031201387CD1B1
:100A030003120138B7D103120138E1D103120138BF
:100A13000BD20312013822D20312013839D2031246
:100A2300013850D20312013879D2031201388CD223
:100A330003120138A2D203120138B5D203120138CE
:100A4300DCD20312013840C50212013844C6021237
:100A5300013871C602120138C7C602120138EAC64C
:100A630002120138FEC60212013800C70212013811
:100A730023C70212013829C802120138EDC8021235
:100A83000138C2C9021201383DCA0212013840CAF4
:100A930002120138C8CA0212013803CB021201380C
:100AA3003ACB02120138C8CB02120138A1CC021290
:100AB3000138A4CC0212013804CD021201380FCD43
:100AC300021201388ECD0212013891CD0212013883
:100AD30094CD0212013897CD0212013826CE0212AC
:100AE300013830CE0212013840CE0212013870CEE6
:100AF300021201387DCE0212013880CE0212013873
:100B030001CF02120138EFCF02120138A1D0021235
:100B130001381CA10312013844A10312013872A148
:100B230003120138A9A10312013807A203120138E5
:100B330052A2031201389DA203120138DDA203124F
:100B4300013823A30312013851A3031201380EA461
:100B53000312013818A40312013825A40312013823
:100B630058A40312013824A50312013830A5031237
:100B7300013848A50312013852A5031201387EDB60
:100B8300031201388CDB03120138A4DB0312013892
:100B9300BCDB03120138C6E60112013872E7011209
:100BA3000138EDE7011201380EE9011201384AE973
:100BB30001120138F3E901120138DAEA01120138AE
:100BC3003EEC0112013895EC0112013816ED0112C9
:100BD300013806EE0112013853EE01120138D9EE45
:100BE300011201380BEF011201381FF10112013814
:100BF30061F1011201387FF10112013802F2011291
:100C03000138D6F2011201389EF301120138008037
:100C130003120138D380031201387C810312013897
:100C2300CF81031201387F82031201380B83031231
:100C33000138F783031201382684031201383985FA
:100C430003120138818503120138568603120138D5
:100C5300928603120138AE8603120138707F0012A8
:100C6300013837B6031201384DB60312013873B693
:100C7300031201388FB70312013899B703120138F1
:100C8300CEB803120138C6B903120138508D0312CE
:100C93000138808E03120138B38E03120138FD8EA2
:100CA30003120138C4900312013800800212013884
:100CB300848002120138CD8002120138B4820212FC
:100CC30001386D8402120138498502120138FD850D
:100CD300021201383A8902120138E88902120138F6
:100CE300578B02120138E98C02120138218D02124E
:100CF3000138BE8D02120138FAC60112013864C7E9
:100D030001120138C3C801120138D3C801120138D6
:100D130000C90112013857C90112013800CA011272
:100D2300013807CB01120138D1CB0112013831CD83
:100D33000112013874CD0112013819CE01120138A4
:100D430066CE011201388CCE011201389AD00112FD
:100D530001389FD001120138A4D201120138F1D217
:100D63000112013864D30112013897D301120138FB
:100D730039D401120138E2D4011201381AD5011213
:100D830001381DD50112013865D501120138A5D5E9
:100D930001120138FCD501120138B8C2031201381F
:100DA300CBC203120138D9C20312013821C3031283
:100DB300013837C3031201387EC30312013892C4CA
:100DC300031201381FC5031201386AC50312013823
:100DD3000D48001201381948001201385448001216
:100DE3000138994800120138594900120138DF4986
:100DF300001201380B4A00120138444A001201382C
:100E0300824C00120138664E001201384C50001219
:100E130001388F5100120138DD5300120138EF54AD
:100E2300001201383A56001201384A5700120138AD
:100E3300675700120138A25700120138C457001235
:100E43000138275800120138E85C001201387D5D33
:100E530000120138CE5D00120138F55D0012013831
:100E6300475E00120138655E00120138BF5E001252
:100E73000138BE5F00120138426000120138D9A563
:100E830003120138E3A50312013826A60312013821
:100E930041A603120138D1A603120138F9A60312A1
:100EA300013836A7031201386DA70312013896A73C
:100EB300031201380BA80312013820A803120138CA
:100EC30035A80312013866A8031201387AA8031261
:100ED30001389FA803120138D9A80312013805A9C4
:100EE3000312013888A903120138D1A9031201386A
:100EF300FBA90312013826AA0312013862D8031290
:100F030001386DB8021201389BB802120138E9B9F1
:100F130002120138C9BA02120138E8BA02120138C2
:100F230065BB02120138A8BB02120138FEBC0212D3
:100F33000138BFBD0212013846C002120138E7C0B2
:100F430002120138DDC102120138DAC2021201387D
:100F530034C402120138BFC40212013893D40312FD
:100F63000138FCD40312013850D50312013877D568
:100F730003120138A8D5031201384EAA031201380F
:100F8300BBAA0312013802AB031201381AAC0312D5
:100F9300013816AD03120138F9AD03120138F4E438
:100FA3000212013836E50212013808E6021201384E
:100FB300E1E602120138DBE702120138BDE8021252
:100FC300013826E902120138DCE90212013850EA3D
:100FD30002120138BCEA02120138E5EA02120138B2
:100FE3005FEB02120138F8EB021201385DEC0212DA
:100FF300013872EC02120138B8EC02120138D1EC5C
:101003000212013836ED0212013839ED02120138AD
:10101300E2BC031201380ABD0312013848BD0312B2
:10102300013806BE031201386DBE0312013889BEB2
:1010330003120138B1BE03120138E1BE03120138B5
:10104300F0BE031201386DBF0312013893BF0312C0
:101053000138E9D60112013887D801120138A2DA22
:1010630001120138DEDA011201380BDB01120138FB
:10107300F0DB0112013837DC011201387BDC01128D
:1010830001388DDC01120138CDDC01120138FADCA4
:101093000112013845DD0112013885DD01120138E5
:1010A300B3DD0112013805DE0112013895DE0112AC
:1010B300013833E10112013849E30112013887E3B2
:1010C3000112013818E5011201385DE501120138FA
:1010D300D4E5011201381EE6011201387BDB02124E
:1010E3000138FADB02120138BCE102120138CBE20B
:1010F3000212013833E402120138CAE40212013841
:10110300A96000120138F260001201381F61001259
:1011130001385261001201385F61001201386B61BE
:10112300001201387D610012013864620012013837
:10113300C26200120138F762001201383A640012E9
:101143000138876400120138AB6400120138186556
:1011530000120138D665001201388F66001201387B
:10116300FC6600120138AE6700120138BE67001238
:1011730001384568001201380469001201383169E9
:1011830000120138AA6900120138076A00120138F7
:10119300516A00120138E76A00120138B26B00127B
:1011A3000138676C00120138DC6C001201383D6DA8
:1011B30000120138A76D00120138E06D00120138EA
:1011C300826E00120138926F00120138D26F001242
:1011D3000138EF6F001201380E700012013855709C
:1011E300001201387A7000120138A770001201381A
:1011F30021710012013862710012013886720012E7
:1012030001383673001201388D7300120138F773F9
:1012130000120138107400120138B7F501120138B9
:101223000AF60112013816F601120138EBF6011223
:10123300013812F7011201384DF701120138B9F7DD
:1012430001120138F5F7011201382EF801120138A5
:1012530046F8011201389BF801120138B4F8011263
:101263000138FDF80112013810F9011201382AF989
:101273000112013840F90112013873FA01120138E1
:10128300BAFB01120138BCFC01120138B6FD011290
:101293000138F47F0012013836AB0212013866AB15
:1012A300021201382EAF0212013885B00212013842
:1012B3004EB102120138CEB2021201389FB30212AC
:1012C3000138DCB302120138FFB3021201383DB416
:1012D3000212013846B40212013890B402120138E6
:1012E3009AB40212013844B5021201381DB6021233
:1012F300013871B602120138D3B60212013826B78B
:101303000212013855B70212013892B7021201389E
:101313006DB501120138D4B801120138DAB80112DF
:1013230001385CBE01120138D5C201120138ABC6C7
:10133300011201389DB20312013813B303120138AD
:1013430029B3031201386AB303120138A4B3031299
:1013530001381DB40312013858B403120138CBB459
:101363000312013809B50312013812B5031201380B
:101373001EB5031201383AB50312013865B50312DD
:1013830001387BB503120138A4B50312013807B63F
:1013930003120138599C031201386C9C0312013863
:1013A300869C03120138AF9C03120138F29C03128E
:1013B3000138319D031201386F9D03120138D49D0A
:1013C30003120138E99D03120138F49D0312013819
:1013D300019E03120138189E03120138269E031240
:1013E3000138319E031201383D9E03120138509E8D
:1013F300031201385B9E031201387E9E03120138EB
:10140300259F03120138359F031201384F9F0312A2
:1014130001386C9F03120138889F03120138AD9F76
:1014230003120138B89F03120138CD9F031201380C
:10143300E19F0312013842A00312013848A00312AE
:1014430001384EA00312013854A0031201386CA0D6
:10145300031201389FA0031201380C9D02120138B8
:10146300909D021201383F9E021201389E9F021284
:101473000138BFA102120138ABA202120138E0A267
:101483000212013802A302120138B1A30212013879
:10149300A9A502120138D2A50212013864A60212CC
:1014A300013896A602120138A3A602120138FAA641
:1014B3000212013820A7021201388DA90212013845
:1014C30090AA02120138E8AA021201389B8E021276
:1014D3000138A58F021201388C90021201389690C0
:1014E30002120138B89002120138C4900212013876
:1014F3005D92021201388C9202120138A8930212F3
:101503000138019402120138679502120138469698
:1015130002120138A296021201380F970212013803
:101523004A9702120138899702120138429A02122D
:1015330001385C9A02120138E89A02120138F69ACD
:10154300021201384F9B021201385D9B02120138CF
:10155300D09B02120138349C021201387E9C021285
:1015630001384274001201386474001201388A761B
:10157300001201389F7900120138B77A001201383E
:101583006A7B001201384C7C00120138EED2031240
:10159300013813D30312013885D303120138FEF443
:1015A3000212013807F50212013810F50212013850
:1015B300E7F50212013898F702120138CEF702124A
:1015C300013808F8021201383EF80212013878F89F
:1015D30002120138ACF802120138D8F802120138AD
:1015E30021F9021201385BF902120138A4F902123F
:1015F3000138FCF90212013831FA021201388CFA6F
:1016030002120138C6FA0212013817FB021201381E
:101613004DFB0212013887FB02120138B5FB02129F
:101623000138D8FB0212013823DD031201384FDDE4
:1016330003120138AADD03120138B4DD03120138A5
:10164300C4DD031201389EFF02120138DBFF01E003
:1016530066701008A3E066700A08A3E066700408C9
:10166300A3E06622C3E7960809E7960809E7960808
:1016730009E79622C3E09608A3E09608A3E096083C
:10168300A3E09622C008C3E096F50808A3E09642BB
:101693000808A3E096420808A3E09645087001D322
:1016A300D00822080808EAC0E0EBC0E086F0E7A40F
:1016B300FA180986F0E7A42AFA180986F0E7A42A9B
:1016C300FA180986F0E7A42AFA1986F0E7A4FBE5DD
:1016D300F02AFA190886F0E7A42BFBE5F03AFA1989
:1016E3000886F0E7A42BFBE5F03AFA18180986F010
:1016F300E7A4C5F02BFBE43AFA1908E7C5F0C6A442
:1017030026F6E5F03BFBE43AFA1886F0E7A4F6E5A3
:10171300F00826F6E43B08F6E43A08F6D0E0FBD0FE
:10172300E0FA22E4CFC0E0E4CEC0E0E4CDC0E0E4E0
:10173300CCC0E075F020C3E633F608E633F608E6DE
:1017430033F608E633F6181818EC33FCED33FDEEE8
:1017530033FEEF33FFC3EC9709ED9709EE9709EFDB
:1017630097191919400FFFEC97FC09ED97FD09EE46
:1017730097FE191906D5F0BEECF709EDF709EEF758
:1017830009EFF7191919D0E0FCD0E0FDD0E0FED045
:10179300E0FF226016080808C6C313C618C613C69E
:1017A30018C613C618C613C6D5E0EA22700908087E
:1017B30008226016181818C6C333C608C633C608ED
:1017C300C633C608C633C6D5E0EA22E627F60809BB
:1017D300E637F60809E637F60809E637F622E02683
:1017E300F608A3E036F608A3E036F608A3E036F6DB
:1017F30022E026F008A3E036F008A3E036F008A3C1
:10180300E036F022C3E697F60809E697F60809E6FC
:1018130097F60809E697F622C3E096F008A3E09648
:10182300F008A3E096F008A3E096F022E056F6084D
:10183300A3E056F608A3E056F608A3E056F622E026
:1018430056F008A3E056F008A3E056F008A3E056CC
:10185300F022E0F608A3E0F608A3E0F608A3E0F61A
:1018630022E6F008A3E6F008A3E6F008A3E6F022D8
:10187300E0FAA3E0FBA3E0FCA3E0FD22EAF0A3EB84
:10188300F0A3ECF0A3EDF022CAC0E0E6F0A308DA7F
:10189300FAD0E0FA22CAC0E0E0A3C582CCC582C573
:1018A30083CDC583F0A3C582CCC582C583CDC58353
:1018B300DAE6D0E0CA22C3E498F8E499F91218FAF8
:1018C3008026C3E49AFAE49BFBE920E7E91218FABD
:1018D300E498F8E499F922C3E498F8E499F9121822
:1018E300FAE498F8E499F9C3E49AFAE49BFB22EB4F
:1018F30020E7CFE920E7E0B90010BB0008E88AF051
:1019030084F8AAF022E4FBC8FA22EB70227B10C809
:1019130033C8C933C9335007C39AC3DBF280069A6D
:1019230050012ADBEAC833F4C8C933F4C9FA227573
:10193300F008E4C833C8C933C933C99AC99B5004F2
:10194300C92AC93BD5F0ECFBC833F4C8E4C9FA2271
:10195300600D08C6A2E713C618C613C6D5E0F32266
:10196300600C08C6C313C618C613C6D5E0F42270AC
:101973000422600D18C6C333C608C633C6D5E0F4C7
:101983001822251810AF08F518400215198008F51C
:101993001840021519D2AF22C0D0251810AF08F590
:1019A30018500205198008F51850020519D2AFD056
:1019B300D0222518F58210AF08F5184002151980BA
:1019C30008F51840021519D2AF851983222518F599
:1019D30082E43519F58322E4732518C582C0E0E556
:1019E3001934FFC583C0E0E518C3958224F810AF0E
:1019F300088583198582188008858319858218D202
:101A0300AFCEF0A3E520F0A37808E608F0A3DEFA52
:101A1300EFF0A3E58124FAF8E608F0A3E608F0A3C3
:101A2300E608F0A30808E608F0A3E608F0A315818A
:101A33001581D0E0FED0E0F8158115811581E8C04D
:101A4300E0EEC0E0222518C582C0E0E51934FFC5E9
:101A530083C0E0E518C3958224F910AF0885831984
:101A63008582188008858319858218D2AFCEF0A3AA
:101A7300E520F0A37808E608F0A3DEFAEFF0A3E58B
:101A83008124FBF8E608F0A3E608F0A30808E608BB
:101A9300F0A3E608F0A315811581D0E0FED0E0F8AD
:101AA30015811581E8C0E0EEC0E022851983851811
:101AB30082E0A3FEE0A3F5207808E0A3F608DFFAAE
:101AC300E0A3FFE0A3C0E0E0A3C0E0E0A3C0E0E048
:101AD300A3C0E0E0A3C0E010AF0885821885831996
:101AE3008008858218858319D2AFD083D082020102
:101AF30035851983851882E0A3FEE0A3F5207808D5
:101B0300E0A3F608DFFAE0A3FFE0A3C0E0E0A3C090
:101B1300E0E0A3C0E0E0A3C0E010AF088582188531
:101B230083198008858218858319D2AFD083D08228
:101B330022C0D02518C582C0E0E51934FFC583C093
:101B4300E0E518C3958224F310AF088583198582D5
:101B5300188008858319858218D2AFC8F0A3E9F0ED
:101B6300A3EAF0A3EBF0A37908E709F0A3D8FAEC12
:101B7300F0A3EDF0A3EEF0A3EFF0A3D0E0F0A3D039
:101B8300E0F0A3D0E0F0A3E520F0A3E5F0F0A3227A
:101B9300851983851882E0C0E0A3E0F9A3E0FAA3E6
:101BA300E0FBA37808E0F608A3DFFAE0FCA3E0FD7E
:101BB300A3E0FEA3E0FFA3E0C0E0A3E0C0E0A3E056
:101BC300F5D0A3E0F520A3E0A3F5F010AF088583DB
:101BD300198582188008858319858218D2AFD0822F
:101BE300D083D0E0F8D0E03274048006740280021F
:101BF3007401C0E0F4041219B5D0E012188B2274FA
:101C030004800474028000CCC0E0EDC0E0E518C39A
:101C13009CCCAD1950011D10AF068C188D19800690
:101C23008C188D19D2AF121898D0E0FDD0E0FC22A9
:101C3300D083D082E9C0E0E493A3C386F0C5F095D6
:101C4300F0F908E493A386F0C5F095F0700BE493E4
:101C5300A3C3994005E9048002A3E475F002A42517
:101C630082F582E5F03583F583D0E0F9E493A3C0F0
:101C7300E0E493C0E022D083D082ECC0E0EDC0E08A
:101C8300E493A3FCE493A3FDED4C600D121CC5EC9F
:101C930024FFFCED34FFFD80EFE493A3FCE493A366
:101CA300FDED4C600D121D04EC24FFFCED34FFFD33
:101CB30080EFD0E0FDD0E0FCE493A3C0E0E493C068
:101CC300E022C0E0C3E49396087401939618400F92
:101CD300E49366700808740193661870007019A382
:101CE300A3C3E49396087401939618A3A3400DD05D
:101CF300E0D0E0D0E0021CB5A3A3A3A3A3A3D0E04C
:101D030022C0E0C0F088F0E4936670080874019381
:101D130066187000A8F0A3A3700BD0F0D0E0D0E059
:0C1D2300D0E0021CB5A3A3D0F0D0E02259
:101D3000C2AF02000022C0E074F2121B34A2AFE472
:101D400033FED2AFE589A2E150031208A2758900E3
:101D5000C2C5751A00EEF8EEA2E092AF7F01021B39
:101D600093C0E074F2121B34A2AFE433FED2AFE5AD
:101D70008BA2E050031208A2758B00C2E8751A000E
:101D8000EEF8EEA2E092AF7F01021B93C0E0C0D05C
:101D9000E8C0E0E9C0E0A2AFE433F8D2AFC2C77553
:101DA0001A00E8F9E8A2E092AFD0E0F9D0E0F8D06C
:101DB000D0D0E03274F5121A48EAFEEBFFEE24347C
:101DC000F8EF3400F988088909EE2435121EE0F88E
:101DD000EE2437121EE0F50AEC850AF0A4FCAAF006
:101DE000850AF0EDA42AFDE82CF8E43DF97A257B7C
:101DF000001218FAEA850882850983F074075AF8F8
:101E00007401B800028004C333D8FCFBEA13131337
:101E1000541FF8EE28F8EF3400F9E8245DF582E964
:101E2000121EE35B6003EA801CEE2436121EE0F50E
:101E3000F0EA84A8F0EE28F8EF3400F9E82438F549
:101E400082E9121EE3F97F04021AF474F5121A48AB
:101E5000EAFEEBFFEE2434121EE0C0E0EE2435F57E
:101E600082EF3400F583D0E0F08E828F83A3A3A3AA
:101E7000A3A3E0FAA3E0FB8E828F83A3A3A3A3A373
:101E8000A3A3E0FCA3E0FDECC39AF50AED9BF50BE0
:101E9000EE247FF508EF3400F509850882F583E02C
:101EA0006401702BEE2480F582EF3400F583121C60
:101EB00006121EE9740212199BE960137C647D0707
:101EC000EEFAEFFB1211BA850882850983E4F0ACC3
:101ED0000AAD0BEEFAEFFB121DB412297D021E466D
:101EE000F582EF3400F583E022C082C0838518823A
:101EF000851983E0F8A3E0F9C3EA9CEB9D5010C379
:101F0000EC98ED99401BC3EA98EB995014800EC3EE
:101F1000EA98EB994007C3EC98ED99400479018069
:101F2000027900D083D08222EAC39CFAEB9DFB2287
:101F300074ED121A4890062AE064086005E0640710
:101F4000702C9061C8E06026900658E0F874FF6835
:101F5000601CE875F003A4C8AAF02AF9745A28FE98
:101F6000740639FF8E828F83A3A3A3E070057900E6
:101F70000220D0EE2468F510EF3400F51190606077
:101F8000E0851082851183F0750ACD750B07750801
:101F900000750900E5D914F50EE5D95403F50F6075
:101FA0001CEE2482F50CEF3400F50D7403650F6010
:101FB00058E50E6013EE2467121EE0700B793DEEBB
:101FC000FAEFFB1211DE80A69007C8E064016026DC
:101FD000850C82850D83E06004780480027800859A
:101FE0000E08E508C398FA95E0FB1210648A088B86
:101FF00009EA4509700612143C021F6E850C8285A1
:102000000D83E070048A0A8B0B78008016E5D9C036
:10201000E08812E50A2512F582E50B3400F583D03D
:10202000E0F008E8C3950E40E4850C82850D83E05E
:10203000602874FC250EF50E780A121BEFAC0EA971
:102040000FEEFAEFFB12128C740212199BE9700A60
:10205000AA08AB091208EA021FBD7403650F605895
:10206000850E0C750D00780C121BEFAC0AAD0BAA97
:1020700008AB09121250740212199B851082851147
:1020800083E0F87480687005750C7F8002880CE529
:102090000CF50A780A121BF3E50FF50A780A121BF1
:1020A000F3A90EAC08AD09900658E0FA7B00120EB9
:1020B000FC740212199B801390062AE06408600BDE
:1020C000AC0AAD0BEEFAEFFB1213221214487901A1
:1020D0007F0C021AF474F3121A4874FC121985EA80
:1020E000FEEBFF8908A2AFE433F509C2AFEE24632B
:1020F000F50AEF3400F50B8010AA0AAB0B12120898
:102100001208EA90076BE004F0850A82850B83E0F1
:10211000F8A3E0F9E849602FE82402FAE93400FB6B
:10212000EA2402F50CEB3400F50D780C121BEF8A53
:10213000828B83E0FCA3E0F9EEFAEFFB1211FC7452
:102140000212199BE960B290076BE0605790076C30
:10215000E0F890076BE0C398500C74026508704477
:1021600090076DE0603E8E828F83A3A3A3A3E085DA
:1021700018828519831221B474021219D0E8122131
:10218000B490076AE028F074021219D0AC82AD83D3
:10219000851882851983AA82AB837901120F089072
:1021A000076BE4F0E509A2E092AF740412199B7F7B
:1021B00006021AF4F0A3E4F090076BE0F8220000A6
:1021C0008521878522C622C0E074EF121B34A2AF9E
:1021D000E433FEC2AF759B00906182E0A2E0501232
:1021E000E591A2E0500C7591FE7401652170031217
:1021F0001F30E0A2E55051E591A2E5504B7591DF0B
:1022000090062AE064076005E064087023740165A5
:102210002170357901900658E0FA75F003A4CAA838
:10222000F028FB745A2AFA74063BFB1220D580185A
:10223000E0640D701390064CE004F064287002E432
:10224000F07A00E0F912144E906182E0A2E64003B9
:102250000222EEE591A2E640030222EE7591BF90C4
:10226000062AE064057008121364121370800312CA
:10227000136A7521001213DCE990062BF079001225
:1022800013D01211247A017B00900629E0F912057F
:10229000D2907803E0644270559007CCE014F0705F
:1022A0004DC2AF1222A600782AD0E0F618D0E0F690
:1022B000E59F540770057509FF800375097FC4C049
:1022C000E07829E6F50808E65509F509740B780861
:1022D000121963D0E02508F8906270E0A2E740F898
:1022E000E8C333906272F0906270E0D2E0F09061E7
:1022F00081E0A2E35009E5E9A2E3500375E9F7A301
:10230000E0A2E75009E591A2E7500375917FEEA2A4
:10231000E092AF7F04021B93C0E0C0D0C082C083B4
:10232000906183E0A2E05009E5BFA2E0500375BFD1
:10233000FEE0A2E15009E5BFA2E1500375BFFDE058
:10234000A2E25009E5BFA2E2500375BFFBE0A2E3A1
:102350005009E5BFA2E3500375BFF7E0A2E45009BE
:10236000E5BFA2E4500375BFEFE0A2E55009E5BF69
:10237000A2E5500375BFDFE0A2E65009E5BFA2E683
:10238000500375BFBFD083D082D0D0D0E032C0E040
:1023900074F2121B34E5A7A2E4500FE5A1A2E450A9
:1023A0000953A7EF75A1EF1223E2E5A7A2E5500CB0
:1023B000E5A1A2E5500653A7DF75A1DFE5A7A2E1DD
:1023C0005009E5A1A2E1500375A1FDE5A7A2E250E5
:1023D0000CE5A1A2E2500653A7FB75A1FB7F010209
:1023E0001B9374F8121A4875210190062AE06406BE
:1023F00070077A007B0012134CA2AFE433FED2AF19
:10240000900630E0640170187A207B00900629E085
:10241000F91206747A207B00900629E0F91205D89B
:10242000906182E0D2E6F09007C9E0602185C62283
:10243000801690062FE064017008E5C654F8440544
:10244000F5C653BEFC1221C07401652160E4EEA202
:10245000E092AF7F01021AF48E238F2485822885B3
:102460008327851882851983E0CEA3E0CF85288253
:10247000852783EBC9EAC8EDCBECCA75F010C3E839
:1024800033C8E933C9EA33CAEB33CBC3EA9EF52636
:10249000EB9FF525B35004AB25AA26EC33CCED33E6
:1024A000CDD5F0DAAE23AF242274E9121A4874FABB
:1024B000121985EAFEEBFF8C088D0990062AE024AC
:1024C000F7C3940550067510010225D41212C28A72
:1024D0000A8B0BEA450B70030225D11213828A0C7A
:1024E0008B0D121382EA650C7003EB650D60ECEE48
:1024F000FCEFFD851882851983AA82AB83121388AD
:10250000850A82850B83A3A3780C121855908F300F
:10251000780C12182F851882851983781412185593
:10252000908F30781412182F780C79141216675087
:102530001F780C7914121807908F38780C121687B0
:102540004047850C10850D11850E12850F138045AF
:10255000908F3885141085151185161285171378FC
:1025600010790C1218077810121687501C7510007D
:10257000751100751200751301781079141218077F
:102580007810790C1217CE800C751001751100753A
:102590001200751300740978101217AF908FA0788D
:1025A0000C1218557810790C12172690062AE06440
:1025B00008600AE064066005E064057020908F3CC6
:1025C00078101216875016908F4078101217E180FD
:1025D0000C751000751100751200751300850882C6
:1025E0008509837810121864740612199B7F1002F3
:1025F0001AF474F7121A4812139A9007C7E064018C
:102600007010906245E4F0A3F053F4F343FE0C53D2
:1026100090F312133AE5C654804449F5C6E59E543A
:102620007F644970F8906185740FF09007C5E0F4FD
:102630007002A3E0602C7508017509009007C5E0E1
:102640007808121972E508F4FAA3E0600814600A29
:1026500014600C800DEA52808008EA52908003EAF0
:1026600052A079007F02021AF474F7121A48E9FEA8
:10267000EAFF74016E700C7A807B00900629E0F905
:102680001205D290298CE493F46008E493F91211B6
:1026900006800953C680E59E547F70FA121340905D
:1026A00007C7E06401700312113C9007C5E0F470A5
:1026B00002A3E0602A7508017509009007C5E0785B
:1026C00008121972AA08A3E0600814600A14600CCA
:1026D000800DEA42808008EA42908003EA42A0121C
:1026E00012C28A088B09A808A909E8496017E5E120
:1026F00070FCE82414F582E93400F583E0F874FFF7
:1027000068600288E174016F700A7A01900629E01E
:10271000F912064402266474F1121A488A088B09D9
:102720008C0A8D0B908F30780812182F740F1219A5
:10273000D0780C121855908F30780C12182F78081A
:10274000790C121667908F3850107808790C12188F
:102750000778081216874014800E780C7908121832
:1027600007780C12168750047901800279007F08DF
:10277000021AF474ED121A488A088B098C0A8D0B20
:10278000908F30780812182F74131219D0780C1209
:102790001855908F30780C12182F780C7908121673
:1027A0006740117808790C121807AA08AB09AC0A1F
:1027B000AD0B8022751000751100751200751301A4
:1027C0007810790C121807781079081217CEAA1011
:1027D000AB11AC12AD137F0C021AF4908F30780855
:1027E0001218558A828B8378081218427F04021AC5
:1027F000F474F5121A488C828D8378081218558A61
:10280000828B83780812181B122845C3E098F0A326
:10281000E099122837401E908F5C78081218558A6C
:10282000828B8378081217F48E828F83E02420F045
:10283000A3E0344EF080A4F08E828F83C3E0942016
:10284000A3E0944E22EA2404F8EB3400F9E8FEE910
:10285000FF8C828D83A3A3A3A3E0F8A3E0F98E826B
:102860008F832274F5121A48E9FE90077FE0FAA3DD
:10287000E0FBEEC333F8E433F9749F28F582748EDD
:1028800039F583E02AF508A3E03BF5097808121B27
:10289000EF908F60121873122458740212199B8AD9
:1028A000088B098C0A8D0B74107808121796AA08E9
:1028B000AB097F04021AF474F1121A488A0C8B0DCA
:1028C0008C0E8D0F740F1219D0E0FAA3E0FB741177
:1028D0001219D0E0F508A3E0F5097808121BEFEA19
:1028E0002401F508EB3400F509E4F50AF50B780C42
:1028F00079081216A6908F847808121855780C79EA
:10290000081216A6AA0CAB0DAC0EAD0F122458740B
:102910000212199B8B09EA450960047A0180027A48
:1029200000EC2AFCED3400FD74131219D0E0F8A37A
:10293000E0F9E8FEE9FFECF8EDF97A717B02121894
:10294000FA88088909E4F50AF50B8E828F837808E6
:10295000121864ECF8EDF97A717B021218FA8A0801
:102960008B09740578081219728E828F83A3A3A332
:10297000A3E508F0A3E509F07F08021AF4C082C0BD
:0B29800083E9906000F0D083D0822239
:10298C00FFFFFFFFFFFFFFFF74EE1219DC74FA125A
:10299C0019858A0A8B0B8909ECFEEDFF75080085F9
:1029AC000A0C850B0D780C121C330004106D2CDDF9
:1029BC0029FE291D2A3E2A5F2A802AB32AD42AEB13
:1029CC002A192BD72BF82B182C422C6D2C6D2C4440
:1029DC002B7401650970158E828F83E0C3940350AC
:1029EC000B8E828F83E0900CBCF08003750818026C
:1029FC002C967402650970138E828F83E0F8A3E025
:102A0C00F9900CBDE8F0A3E9F08003750818022CCE
:102A1C00967401650970158E828F83E0C394025001
:102A2C000B8E828F83E090032DF0800375081802C3
:102A3C002C967401650970158E828F83E0C3940502
:102A4C00500B8E828F83E090032EF0800375081854
:102A5C00022C967401650970158E828F83E0C394E5
:102A6C0002500B8E828F83E090032FF08003750849
:102A7C0018022C96741065097027750C10750D00D2
:102A8C00780C121BEFEEFCEFFD7A307B0312057E07
:102A9C00740212199B8A0C8B0D850C82850D838018
:102AAC0003750818022C967401650970158E828FB7
:102ABC0083E0C39402500B8E828F83E0900340F02E
:102ACC008003750818022C9674016509700B8E82B0
:102ADC008F83E0900CC0F08003750818022C96745C
:102AEC000465097022908F60780C1218558E828FB5
:102AFC0083780C121677500F8E828F831218739076
:102B0C00034212187F8003750818022C96E5097091
:102B1C0021120C74E970131207DCE9F50C795012D0
:102B2C00097AE9F50D1207CA800B9003D57401F0F0
:102B3C008003750818022C96740765096003022B34
:102B4C00D1750E06750F00780E121BEF8E828F83D7
:102B5C00A3AC82AD8374021219D0AA82AB83120586
:102B6C0084740212199B8A108B1185100E85110F1B
:102B7C007C007D00851882851983AA82AB838E82A6
:102B8C008F83E0F912076AE9F50CE50CC3940A503F
:102B9C002F120C74E97015A90C1207E2E9F50D79E6
:102BAC005012097AE9F50E1207CA801C750D0074D3
:102BBC00D6250CF5827403350DF5837401F080086D
:102BCC007508028003750818022C9674016509704B
:102BDC00158E828F83E0C39402500B8E828F83E01C
:102BEC00900341F08003750818022C967401650956
:102BFC0070158E828F83E0C3940A500B8E828F8364
:102C0C00E0900CBFF08003750818807E7401650994
:102C1C00701F8E828F83E0C3940740158E828F8342
:102C2C00E0C39411500B8E828F83E0900CC1F08026
:102C3C005975081880547401650970209003D4E00C
:102C4C00F50C8E828F83E09003D4F0E50C703B90F2
:102C5C0003D4E0640170331207CA802E7508188003
:102C6C0029C3E50A9427E50B9400501B74026509EF
:102C7C0070158E828F83E0FCA3E0FDAA0AAB0B12C9
:102C8C000B12E9F5088003750802A90874061219DD
:102C9C009B7F0A021AAE74EC1219DC74DA121985D5
:102CAC00890D8A128B138C0A8D0B743A1219D0E091
:102CBC00F50C908EEEC082C083851882851983AC8A
:102CCC0082AD83D083D082740612189885188285C1
:102CDC001983AC82AD83AA12AB13A90D12076AE952
:102CEC00FEEEC3940A4003022E41EEF91207ACE942
:102CFC00FF900CBCE064027004740180027400F557
:102D0C00087808121BF3AD0CEFFCEEF9AA0AAB0B1A
:102D1C0012081E740112199B7C147D007900741228
:102D2C001219D0AA82AB831205968A0E8B0F850ED0
:102D3C0008850F0974121219D0AC82AD837A107504
:102D4C00F006EEA42424F9120974E970437C10797E
:102D5C00FF74121219D0AA82AB831205F6E97030F7
:102D6C0074221219D0AC82AD837A0475F006EEA4ED
:102D7C002425F9120974E9F50874121219D0AC82E1
:102D8C00AD83EFA2E0E433F9AA0AAB0B120B9CE97A
:102D9C0074061219D0AC82AD837A0C74702EF912B1
:102DAC000974E9707E74061219D0AA82AB831207DB
:102DBC00A0750E00E50EC394045068E50EA80E79BC
:102DCC0000E875F003A4C8AAF075F000A42AFA75FF
:102DDC00F003E9A42AF974061219D0E58228F50843
:102DEC00E58339F509850882850983E0F8A3E0F9C4
:102DFC00E849602B850882850983A3A3E0F510754B
:102E0C0011007810121BEF850882850983E0FCA362
:102E1C00E0FDAA0AAB0B120E4E740212199BE905C7
:102E2C000E8091EFA2E1500D90032CE0F9AA0AABB1
:102E3C000B120E54E97404650C700F900CBCE0641A
:102E4C00027007AA0AAB0B12081879007426121923
:102E5C009B7F0C021AAE74F21219DC890BEAFEEBA2
:102E6C00FF8C088D09750A0AE50B600C14600914B7
:102E7C006044146064022F06EEFAEFFB1207BEE901
:102E8C00F50AE50AC3940A5071E5084509606B75AB
:102E9C000C06750D00780C121BEFEEFCEFFDAA086A
:102EAC00AB0912057E740212199B8A0C8B0D850CD2
:102EBC0082850D838044EEFAEFFB1207B8E9F50A20
:102ECC00E50AC3940A5033E5084509602DAA08ABFE
:102EDC0009A90A1207B2E98021EEFAEFFB1207C426
:102EEC00E9F50AE50AC3940A5010E5084509600A99
:102EFC00AA08AB09A90A1207B2E9A90A7F06021AA5
:102F0C00AE74F21219DC8A0C8B0DE9FE7F1574FF7E
:102F1C00650C700474FF650D702A750800E508C314
:102F2C00940A5014EEFC7A027B00A90812078EE971
:102F3C0060027F00050880E5EE60637A067B08126C
:102F4C001046805AAA0CAB0D1210288A0A8B0B85DE
:102F5C000A08850B09E508450960417C007D00E500
:102F6C00082405FAE5093400FB850882850983A34A
:102F7C00A3A3A3E0F912076AE9F50AE50AC3940AC8
:102F8C00500EEEFC7A027B00A90A12078EE97F0034
:102F9C00EE600BAA08AB0912080680027F14EFF949
:102FAC007F06021AAE74EE1219DC8A0E8B0F8C0A95
:102FBC008D0B74121219D0E0F50CA3E0F50D750809
:102FCC001574FF650E700474FF650F701E7E00EEA5
:102FDC00C3940A5062AC0CAD0DAA0AAB0BEEF912FD
:102FEC000794E960037508000E80E4AA0EAB0F127B
:102FFC0010288A108B11AE10AF11EE4F60367C008A
:10300C007D00EE2405FAEF3400FB8E828F83A3A3A0
:10301C00A3A3E0F912076AE9F509E509C3940A507C
:10302C0016AC0CAD0DAA0AAB0BA909120794E975E5
:10303C0008008003750814A9087F0A021AAE74F7F9
:10304C001219DCEAFEEBFF900346EEF0A3EFF090D2
:10305C00032CE0FC7D007A267B00120B12E9F508AC
:10306C0090032CE0F9120DD07F01021AAE74EE120F
:10307C0019DC8A108B11E9FE74121219D0780C121B
:10308C0018557F00EE7041850C08850D09850E0AD8
:10309C00850F0B908F60780C1218557808790C12EC
:1030AC0017267810121BEFAA0CAB0DAC0EAD0F123D
:1030BC000BAE740212199BE9FFEF60167901AA108E
:1030CC00AB11120BA8E9800AEEF9AA10AB11120B86
:1030DC00A8E9EFF97F0A021AAE74F21219DC74EC4B
:1030EC001219858A0A8B0B850A82850B83A3A3E0B0
:1030FC0024FA700302354524FD70030233BB1470AF
:10310C00030231D814601024FD7003023363147071
:10311C00030233FB0235B3AE0AAF0B900346E0F863
:10312C00A3E0F9E8496069900346E0F8A3E0F58371
:10313C008882E0F8A3E0F9E8496055EE240CF582AA
:10314C00EF3400F583E0F5087808121BF3EE240B3E
:10315C00F582EF3400F583E0F98E828F83A3A3A36D
:10316C00A3A3A3A3A3A3E0FCA3E0FDEE2403FAEF27
:10317C003400FB900346E0F8A3E0F5838882E0F886
:10318C00A3E0F58388821219DA740112199B803935
:10319C008E828F83A3A3A3A3A3A3A3A3A3121C0612
:1031AC00900342121873120BAE740212199BE96051
:1031BC001879018E828F83A3A3A3A3A3A3A3A3A394
:1031CC00E0FAA3E0FB120BA8E90235B3AE0AAF0B91
:1031DC008E828F83A3E060030233118E828F83A3D0
:1031EC00A3A3A3A3E0A2E040030233119003E0E009
:1031FC00F8A3E0F9E84960030233117C0E7D0079F5
:10320C0000851882851983AA82AB831205968A08D9
:10321C008B09AA08AB09EE240CF582EF3400F58378
:10322C00E0F8A3E0F9E849603B75080675090078F9
:10323C0008121BEFEE240CF582EF3400F583E0242A
:10324C0010FCA3E03400FD74021219D0AA82AB83E7
:10325C0012057E740212199B8A088B0985088285D7
:10326C00098380548E828F83A3A3A3E0FAA3E0FB8F
:10327C001210288A0C8B0D850C08850D09E5084564
:10328C00096032750C06750D00780C121BEFE50801
:10329C002405FCE5093400FD74021219D0AA82AB96
:1032AC008312057E740212199B8A0C8B0D850C827D
:1032BC00850D8380030235B38E828F83A3A3A3A3D2
:1032CC00A3E0A2E25004D2F08002C2F0A2F0E433F8
:1032DC00F87900740C1219D0E048F0A3E049F0EE34
:1032EC00FCEFFD851882851983AA82AB831207A691
:1032FC00E970127A027B0090032CE0F91205D2E9F6
:10330C0079000235B5900346E0F8A3E0F9E849608E
:10331C0043900346E0F8A3E0F5838882A3A3E0F88A
:10332C00A3E0F9E849602D8E828F83A3E0FC79013C
:10333C008E828F83A3A3A3E0FAA3E0FB900346E065
:10334C00F8A3E0F5838882A3A3E0F8A3E0F58388D3
:10335C00821219DA0235B3AE0AAF0B900346E0F8CD
:10336C00A3E0F9E8496045900346E0F8A3E0F58353
:10337C008882A3A3E0F8A3E0F9E849602F850A82CC
:10338C00850B83A3E0FC79028E828F83A3A3A3E039
:10339C00FAA3E0FB900346E0F8A3E0F5838882A350
:1033AC00A3E0F8A3E0F58388821219DA0235B3AEF4
:1033BC000AAF0B7C007D00EE2404FAEF3400FB8E88
:1033CC00828F83A3A3A3E0F912076AE9F508E50845
:1033DC00C3940A5017EE240AFCEF3400FD7A0475EE
:1033EC00F006E508A42425F912096EE90235B3AEFE
:1033FC000AAF0B900341E06018900CBFE0F98E828D
:10340C008F83A3A3A3E0FAA3E0FB120BA8E9023578
:10341C00B3900CBCE0701579058E828F83A3A3A3A7
:10342C00E0FAA3E0FB120BA8E90235B38E828F837E
:10343C00A3A3A3E0FAA3E0FB1210288A0C8B0D8542
:10344C000C08850D098E828F83A3A3A3A3A3A3A32A
:10345C00E0A2E05075E5084509606C850882850995
:10346C0083A3A3A3A3E060628E828F83A3A3A3A3F1
:10347C00A3A3A3A3A3E0F8A3E0F9E8C4540FF8793D
:10348C00005401F8E95400F9E8A2E0403D740E1232
:10349C0019D0AC82AD83E5082405FAE5093400FBAC
:1034AC00850882850983A3A3A3A3E0F912076AE91F
:1034BC00701879038E828F83A3A3A3E0FAA3E0FB99
:1034CC00120BA8E90235B30235B3EE2405FCEF3438
:1034DC0000FD850882850983A3A3A3A3E0F98E824E
:1034EC008F83A3A3A3E0FAA3E0FB12081290034678
:1034FC00E0F8A3E0F9E849603E900346E0F8A3E069
:10350C00F5838882A3A3E0F8A3E0F9E84960287C5E
:10351C000079008E828F83A3A3A3E0FAA3E0FB9033
:10352C000346E0F8A3E0F5838882A3A3E0F8A3E0C8
:10353C00F58388821219DA806E120C74E970689027
:10354C0003D5E06401701A1207DCE9FE9003D57410
:10355C0000F07C0A7D0079007AD67B0312059680F8
:10356C003C7E00EEC3940A50348E0875090074D664
:10357C002508F58274033509F583E06401701BEEB0
:10358C00F91207E2E9F88E0875090074D62508F5DA
:10359C008274033509F5837400F00E80C6795012DD
:1035AC00097AE9FE1207CA7901741412199B7F0675
:1035BC00021AAE74F31219DC74F21219858909EA35
:1035CC00FEEBFF8C0C851882851983AC82AD837A57
:1035DC000E75F006E509A42420F9120974E970723D
:1035EC007C0679FF851882851983AA82AB83120524
:1035FC00F6E9705E740C1219D0E0F8A3E0F9E8F566
:10360C0008E50C6005EE42088004EEF452088508CB
:10361C000A750B00740C1219D0E0650A7004A3E053
:10362C00650B602AE508A8087900740C1219D0E51E
:10363C0008F0A3E9F0851882851983AC82AD837AF2
:10364C000E75F006E509A42420F912096EE979013A
:10365C0080027900740E12199B7F05021AAE74F069
:10366C001219DC74E6121985890B8A0C8B0DECFE91
:10367C00EDFF740C1219D0AC82AD837A0E75F00686
:10368C00E50BA42420F9120974E960030237CE7CFF
:10369C000679FF740C1219D0AA82AB831205F6E9D5
:1036AC0060030237CE851882851983AC82AD837A8C
:1036BC000C7470250BF9120974E960030237CA7592
:1036CC000A00851882851983AA82AB831207A0E5AC
:1036DC000C450D703A7C0C7900851882851983AAEB
:1036EC0082AB831205F6E960030237A47C0C7D00E3
:1036FC007900851882851983AA82AB831205968A74
:10370C00088B09850882850983750A010237A4850F
:10371C001882851983AC82AD83AA0CAB0D12079A63
:10372C008A0E8B0F850E08850F09E5084509703642
:10373C00EE4F6021851882851983AC82AD837A00A7
:10374C007B0012079A8A0E8B0FA80EA90F88088986
:10375C0009E84970047900806B850882850983E546
:10376C000CF0A3E50DF0850882850983A3A3E0F88E
:10377C007900EE687002EF69601EEE85088285099B
:10378C0083A3A3F0EE4F700D850882850983740026
:10379C00F0A37400F0750A01E50A60228518828591
:1037AC001983AA82AB831207A0851882851983AC72
:1037BC0082AD837A0C7470250BF912096EE97901CC
:1037CC0080027900741A12199B7F08021AAE74F7E2
:1037DC001219DCEAFEEBFF7B00EBC39404504EEBBA
:1037EC00F87900E875F003A4C8AAF075F000A42AD3
:1037FC00FA75F003E9A42AF9EC28F582ED39F58382
:10380C00E06E7003A3E06F7021EBF87900E875F0BF
:10381C0003A4C8AAF075F000A42AFA75F003E9A471
:10382C002AF9EC28FAED39FB80070B80AC7A007B87
:10383C00007F01021AAE74F71219DC7F00EFC394FB
:10384C000440030238F1EFF87900E875F003A4C8DE
:10385C00ACF075F000A42CFC75F003E9A42CF9EA8B
:10386C0028F582EB39F583E0F4FCA3E0F4FDEFF8E6
:10387C007900E875F003A4C8AEF075F000A42EFE34
:10388C0075F003E9A42EF9EA28F582EB39F583ECFF
:10389C00F0A3EDF0EFF87900E875F003A4C8ACF0F4
:1038AC0075F000A42CFC75F003E9A42CF9EA28F5BA
:1038BC0082EB39F583A3A3E0F4C0E0EFF87900E8DC
:1038CC0075F003A4C8ACF075F000A42CFC75F003E3
:1038DC00E9A42CF9EA28F582EB39F583A3A3D0E00F
:1038EC00F00F0238497F01021AAE74F01219DC7421
:1038FC00F4121985EAFEEBFF8C088D099003E0E0C9
:10390C00F8A3E0F9E849702CEE4F6006E50845098C
:10391C0070057901023BAEEEFAEFFB1207BEE9909F
:10392C000CC2F0900CC2E0C3940A40081207D0E914
:10393C00900CC2F0900CC2E0C3940A4003023BAC62
:10394C009003E0E0F8A3E0F9E84960030239F8EEEF
:10395C00FCEFFD7A0E75F006900CC2E0A42420F961
:10396C0012096EE9F50C7C0C7D0079FF85188285B7
:10397C001983AA82AB831205968A0E8B0F850E0AC9
:10398C00850F0B851882851983AC82AD837A0C90D8
:10399C000CC2E02470F912096EE9F50D750E0E7566
:1039AC000F00780E121BEFEEFCEFFD900CC2E0F84E
:1039BC007900E875F00EA4C8AAF075F000A42AFAF4
:1039CC0075F00EE9A42AF9744828FA740339FB122D
:1039DC00057E740212199B8A0E8B0FA80EA90F90EC
:1039EC0003E0E508F0A3E509F0023BA89003E0E052
:1039FC00F8A3E0C82406F582E83400F583E0F8A3C8
:103A0C00E0F9E84960439003E0E0F8A3E0C824063D
:103A1C00F582E83400F583E0FCA3E0FD7A1B75F039
:103A2C0006900CC2E0A42421F912096EE9F8900367
:103A3C00E0E0F9A3E0C92406F582E93400F58374CB
:103A4C0000F0A37400F0023BA89003E0E0F8A3E0C0
:103A5C00C8240AF582E83400F583E0F8A3E0F9E81D
:103A6C004960439003E0E0F8A3E0C8240AF582E83B
:103A7C003400F583E0FCA3E0FD7A1B75F006900C96
:103A8C00C2E0A42422F912096EE9F89003E0E0F9EF
:103A9C00A3E0C9240AF582E93400F5837400F0A38D
:103AAC007400F0023BA89003E0E0F8A3E0C8240CFB
:103ABC00F582E83400F583E0F8A3E0F9E8496043C7
:103ACC009003E0E0F8A3E0C8240CF582E83400F59C
:103ADC0083E0FCA3E0FD7A1075F006900CC2E0A424
:103AEC002423F912096EE9F89003E0E0F9A3E0C988
:103AFC00240CF582E93400F5837400F0A37400F013
:103B0C00023BA89003E0E0F8A3E0C82408F582E8A3
:103B1C003400F583E0F8A3E0F9E849606F9003E026
:103B2C00E0F8A3E0C82408F582E83400F583E0FC53
:103B3C00A3E0FD7A1075F006900CC2E0A42424F9E1
:103B4C0012096EE9F50A9003E0E0F8A3E0C8240836
:103B5C00F582E83400F583E02410FCA3E03400FD8A
:103B6C007A0475F006900CC2E0A42425F912096EB3
:103B7C00E9F89003E0E0F9A3E0C92408F582E93400
:103B8C0000F5837400F0A37400F080109003D4E06F
:103B9C00600312082412080C790180067900800257
:103BAC007901740C12199B7F08021AAE74F7121962
:103BBC00DC74F2121985E9FE851882851983AC82B2
:103BCC00AD837A0E75F006A42420F9120974E970FD
:103BDC000E740C1219D0E0F8A3E0F9E8F980027920
:103BEC0000740E12199B7F01021AAE74F41219DCC8
:103BFC0074F21219858909EAFEEBFFE509C3940AF0
:103C0C005004EE4F70047902804B8518828519831D
:103C1C00AC82AD837A0E75F006E509A42420F91266
:103C2C000974E9F508E508702A750A06750B007821
:103C3C000A121BEF74021219D0AC82AD83EEFAEFAC
:103C4C00FB12057E740212199B8A0A8B0B850A8261
:103C5C00850B83A908740E12199B7F04021AAE748B
:103C6C00F41219DCEAFEEBFF750800E508C3940AB0
:103C7C005045750A06750B00780A121BEFEEFCEF27
:103C8C00FDE508A8087900E875F00EA4C8AAF0753F
:103C9C00F000A42AFA75F00EE9A42AF9744E28FA59
:103CAC00740339FB120590740212199BE96004A984
:103CBC00088006050880B4790A7F04021AAE74F4F1
:103CCC001219DCEAFEEBFF750800E508C3940A50F4
:103CDC0045750A06750B00780A121BEFEEFCEFFD1A
:103CEC00E508A8087900E875F00EA4C8AAF075F0EC
:103CFC0000A42AFA75F00EE9A42AF9744828FA747B
:103D0C000339FB120590740212199BE96004A9088F
:103D1C008006050880B4790A7F04021AAE74F71283
:103D2C0019DC74F0121985EAFEEBFF750800E50842
:103D3C00C3940A504B851882851983AC82AD837A63
:103D4C001075F006E508A42423F9120974E9702C07
:103D5C007C1079FF851882851983AA82AB831205A2
:103D6C00F6E97018EEFCEFFD851882851983AA829E
:103D7C00AB83120B7EE97004A9088006050880AE9F
:103D8C00790A741012199B7F01021AAE74F412197D
:103D9C00DC750800E508C3940A4003023E7AE50886
:103DAC00A8087900E875F00EA4C8AAF075F000A474
:103DBC002AFA75F00EE9A42AF9744828FC74033920
:103DCC00FD7A0E75F006E508A42420F9120974E9B1
:103DDC007003023E757C067D0079FFE508AA087B1E
:103DEC0000EA75F00EA4CAA8F075F000A428F875C6
:103DFC00F00EEBA428FB74482AFA74033BFB120563
:103E0C00968A0A8B0BAE0AAF0B7C067D0079FFE518
:103E1C0008AA087B00EA75F00EA4CAA8F075F00099
:103E2C00A428F875F00EEBA428FB744E2AFA740340
:103E3C003BFB1205968A0A8B0BAC0AAD0BE508A866
:103E4C00087900E875F00EA4C8AAF075F000A42A51
:103E5C00FA75F00EE9A42AF9745428F58274033922
:103E6C00F5837400F0A37400F00508023DA09003E4
:103E7C00D4E0600312082412080C7F04021AAE74FA
:103E8C00F71219DC7E00EEC3940A50327C0679FFDF
:103E9C00EEFA7B00EA75F00EA4CAA8F075F000A447
:103EAC0028F875F00EEBA428FB74482AFA74033B2F
:103EBC00FB1205F6E96004EEF980050E80C8790A5C
:103ECC007F01021AAE74F71219DC7E007F00EFC37B
:103EDC00940A502F7C0679FFEFFA7B00EA75F00EFE
:103EEC00A4CAA8F075F000A428F875F00EEBA4286D
:103EFC00FB74482AFA74033BFB1205F6E970010EB9
:103F0C000F80CBEEF97F01021AAE74F71219DC7E2A
:103F1C00007F00EFC3940A500DEE700AEFF9120700
:103F2C00E2E9FE0F80EDEEF97F01021AAE74F01299
:103F3C0019DC74CB1219858909900CC2E0650970E3
:103F4C001D7A017B0090032CE0F91205D8E97A0266
:103F5C007B0090032CE0F91205D8E9120830742785
:103F6C001219D0AC82AD837A0E75F006E509A42443
:103F7C0020F9120974E960030240A57C0679FF74EC
:103F8C00271219D0AA82AB831205F6E9600302400E
:103F9C00A57C0E7D0079FF74271219D0AA82AB8301
:103FAC001205968A0A8B0B850A0C850B0D7C1B7DE2
:103FBC000079FF740C1219D0AA82AB831205968A71
:103FCC000E8B0F850E0A850F0B7C0C7D0079FF85FF
:103FDC001882851983AA82AB831205968A0E8B0FE1
:103FEC00AE0EAF0F74271219D0AC82AD837A0E755A
:103FFC00F006E509A42420F912096EE9F508740C01
:10400C001219D0AC82AD837A1B75F006E509A42495
:10401C0021F912096EE94208740C1219D0AC82AD68
:10402C00837A1B75F006E509A42422F912096EE9BE
:10403C004208740C1219D0AC82AD837A1075F0065C
:10404C00E509A42423F912096EE94208740C12192B
:10405C00D0AC82AD837A1075F006E509A42424F95E
:10406C0012096EE94208740C1219D0AC82AD837A35
:10407C000475F006E509A42425F912096EE9420835
:10408C00851882851983AC82AD837A0C74702509EE
:10409C00F912096EE942088003750800A908743505
:1040AC0012199B7F08021AAE74F71219DCE9FE9004
:1040BC00032CF01207CA7F01021AAE74F21219DC3B
:1040CC00890AEAFEEBFFEE5400F8EF5480F9E84958
:1040DC00603590032CE0F91205BA8A0C8B0DA80CF4
:1040EC00A90D88088909E8496012AA08AB091207CA
:1040FC00F4E96008AA08AB091205A8E9EE6400FA15
:10410C00EF6480FB0241CBEE5402602D7C007D00FD
:10411C007A007B001207A6E960187A017B009003F5
:10412C002CE0F91205D2E9EE6402FAEF6400FB020E
:10413C0041CB7A027B000241CBEEA2E0507D900392
:10414C00E0E0F8A3E0F5838882A3A3A3E0FAA3E060
:10415C00FB12082AE9605E900346E0F8A3E0F9E858
:10416C00496045900346E0F8A3E0F5838882A3A359
:10417C00E0F8A3E0F9E849602F7C0079019003E0B6
:10418C00E0F8A3E0F5838882A3A3A3E0FAA3E0FB05
:10419C00900346E0F8A3E0F5838882A3A3E0F8A39C
:1041AC00E0F58388821219DA120830EE6401FAEF16
:1041BC006400FB800A7A017B0080047A007B007F1C
:1041CC0006021AAE74F71219DCEAFEEBFF75080151
:1041DC008E828F83E02450601314601924E1701CCC
:1041EC00EEFAEFFB120788E9F5088010EEFAEFFB08
:1041FC001207FA8007EEFAEFFB120800A9087F01FC
:10420C00021AAE74F71219DCEAFEEBFF8E828F8372
:10421C00A3A3A3A3E0641E701179008E828F83A3E5
:10422C00A3E0FAA3E0FB120770E97F01021AAE7457
:10423C00F61219DCEAFEEBFF8E828F83A3A3A3A3F5
:10424C00E0703A8E088F09850882850983A3A3A3A1
:10425C00A3A3A3A3121C06850882850983A3A3A389
:10426C00A3A3E0FCA3E0FD850882850983A3A3E05A
:10427C00FAA3E0FB120776740212199BE97F020283
:10428C001AAE74F71219DCEAFEEBFF90032CE0F97E
:10429C008E828F83A3E0FAA3E0FB120E54E97F0118
:1042AC00021AAEC082C08374FF1219851207D6E9B8
:1042BC00C39402400B8518828519837402F080091F
:1042CC00851882851983740AF0851882851983AC48
:1042DC0082AD837A017905120C8CE9740112199B59
:1042EC00D083D08202013574F21219DC74E81219F1
:1042FC0085EAFEEBFF890A8C088D097C187D007914
:10430C0000851882851983AA82AB831205968A0CC4
:10431C008B0DAC0CAD0D851882851983EEF0A3EFD7
:10432C00F090032EE0C0E074021219D0D0E0F090AF
:10433C00032FE0C0E074031219D0D0E0F0900CC150
:10434C00E0C0E074171219D0D0E0F074151219D037
:10435C00E054FEF8A3E054FFF9900CC0E0A2E0E4B6
:10436C0033FA7B00E84AF8E94BF974151219D0E8D6
:10437C00F0A3E9F0900CC0E0A2E15004D2F080026E
:10438C00C2F074151219D0E054FDFAA3E054FFFBEF
:10439C00A2F0E433F87900C333F8E933F9EA48F8CA
:1043AC00EB49F974151219D0E8F0A3E9F0900CC0A0
:1043BC00E0A2E35004D2F08002C2F074151219D0BE
:1043CC00E054F7FAA3E054FFFBA2F0E433F50C75CC
:1043DC000D007403780C121972EA450CF8EB450DBC
:1043EC00F974151219D0E8F0A3E9F0900CC0E0A212
:1043FC00E45004D2F08002C2F074151219D0E054CB
:10440C00EFFAA3E054FFFBA2F0E433F50C750D00BA
:10441C007404780C121972EA450CF8EB450DF9741A
:10442C00151219D0E8F0A3E9F0900CC0E0A2E55009
:10443C0004D2F08002C2F074151219D0E054DFFAE5
:10444C00A3E054FFFBA2F0E433F50C750D007405EA
:10445C00780C121972EA450CF8EB450DF97415122B
:10446C0019D0E8F0A3E9F0900CC0E0A2E25004D21D
:10447C00F08002C2F074151219D0E054FBFAA3E0DC
:10448C0054FFFBA2F0E433F50C750D007402780CAC
:10449C00121972EA450CF8EB450DF974151219D086
:1044AC00E8F0A3E9F090032FE0602A750C10750D6D
:1044BC0000780C121BEF7C307D0374061219D0AA05
:1044CC0082AB8312057E740212199B8A0C8B0D85AC
:1044DC000C82850D83900340E06012E50A600E7437
:1044EC00151219D0E04402F0A3E04400F090034010
:1044FC00E060067801790080047800790074141269
:10450C0019D0E048F090032DE06006780479008023
:10451C00047800790074141219D0E048F0AC08AD9E
:10452C0009851882851983AA82AB83120BA2E974C0
:10453C001812199B7F06021AAE74F71219DCEAFEE8
:10454C00EBFF750800900340E0600678017900806D
:10455C000478007900E8420890032DE060067804A6
:10456C007900800478007900E84208A908EEFAEF97
:10457C00FB120C5CE97F01021AAE74EE1219DC74AA
:10458C00E51219858A0C8B0DE9FF8C088D09742DA9
:10459C001219D0E0F50A74086509700A75F006EF77
:1045AC00A42422FE800875F006EFA42421FE7C1BB7
:1045BC007D007900851882851983AA82AB83120548
:1045CC00968A108B1185100E85110F85188285190E
:1045DC0083AC82AD837A1BEEF9120974E9703C74DA
:1045EC001A1219D0E0C394074031741A1219D0E092
:1045FC00C394115026E50AF50B780B121BF37401CA
:10460C001219D0AC82AD83E508A2E0E433F9AA0C10
:10461C00AB0D120BB4740112199BE9741B12199B8C
:10462C007F0A021AAE74F71219DC120EC6E97E006C
:10463C00EEC3940A50557C0679FFEEFA7B00EA75BE
:10464C00F00EA4CAA8F075F000A428F875F00EEBD3
:10465C00A428FB74482AFA74033BFB1205F6E97094
:10466C0027EEF87900E875F00EA4C8AAF075F000F2
:10467C00A42AFA75F00EE9A42AF9744828FA7403EE
:10468C0039FB7900120ECCE90E80A57F01021AAE1F
:10469C0074F61219DC74FD121985EAFEEBFF900317
:1046AC00E2E0F8A3E0F9E84970397508E47509030C
:1046BC007808121BEF7508027509007808121BEFB9
:1046CC007508B875098F7808121BEF7CFF7DFF7A8F
:1046DC00017B00120D1C740612199B9003E2EAF088
:1046EC00A3EBF09003E2E0F8A3E0F9E849700302D1
:1046FC0047BDE4F508F5097808121BEF740412198C
:10470C00D08582088583097808121BEF740412196E
:10471C00D08582088583097808121BEF9003E41278
:10472C001C0679029003E2E0FCA3E0FDEEFAEFFB3D
:10473C00120E42740812199BE9704A851882851969
:10474C0083E0FA7B0074011219D0E0F87900E4C818
:10475C00F9EA28F508EB39F509E5084509602678EA
:10476C0008121BEF9003E2E0F8A3E0F5838882A324
:10477C00A3A3A3E0FCA3E0FDEEFAEFFB1207767413
:10478C000212199BE9E4F508F5097808121BEF9061
:10479C0003E4121C067CFF7DFF9003E2E0FAA3E029
:1047AC00FB120D28740412199B9003E2EAF0A3EBA0
:1047BC00F09003E2E0F8A3E0F9E849700479018095
:1047CC00027900740312199B7F02021AAEC082C0D8
:1047DC00839003E0E0F8A3E0F9E84960179003E068
:1047EC00E0FAA3E0FB1205A8E9F89003E07400F0EE
:1047FC00A37400F0900CC2740AF0D083D082020132
:10480C0035C082C083E9900DB0F0024A3774F712BC
:10481C0019DCE9900569F07CA17D057AFF7BFF121C
:10482C000E5A90056A74FFF0A3F0A3E4F0A3F0799C
:10483C0005120DE8900569E0F9120D047A727B0EF1
:10484C001210167F01021AAE74F41219DC8A088B4E
:10485C0009EB54806030900569E0F91205BA8A0AB8
:10486C008B0BAE0AAF0BEE4F60138E828F83E0641E
:10487C00B07003120DFAEEFAEFFB1205A8AA08E5C8
:10488C00096480FB80047A007B00024A0674F212F1
:10489C0019DC74FC121985EAFEEBFFEE4F603874DC
:1048AC00021219D0EEF0A3EF124C6BECF0A3ED1248
:1048BC004C6BAA82AB83120CFEE9F5087073741270
:1048CC001219D012581FE50A450B60658E828F8332
:1048DC00124947EE4F700575080280557A067B0029
:1048EC0012062C8A0C8B0DA80CA90DE849700575C5
:1048FC000813803D88828983E4124951A3A3EEF00A
:10490C00A3EF125CB8E50AF0A3E50BF090056F126B
:10491C0049D990056F6017E0FCA3E08003EAFCEB3B
:10492C00FD8C828D831249D970F38C828D83125742
:10493C0044A908740412199B025EBAA3A3A3A3E0B2
:10494C00FEA3E0FF22F0A3F0888289832274F21286
:10495C0019DC890AE975F017A4FEAFF090056EE436
:10496C00F090056C1249D9600A12063290056CE47D
:10497C00F0A3F0EEFAEFFB12062C8A088B09EA453D
:10498C0009602FEEFCEFFD790012059690056CE5A1
:10499C0008F0A3E509F07B0080081249C3E4F0A3FA
:1049AC00F00BEBC3950A40F2E50A90056EF0790026
:1049BC0080027913025EBAEB75F017A4F8A9F09097
:1049CC00056CE028FAA3E0398A82F583221254DAC6
:1049DC00EA4B2274F41219DC7900EAA2E0501B7540
:1049EC0008E275098E7808121BEF7C047D007AB200
:1049FC007B0D120DE2740212199B7F04021AAEC0D9
:104A0C0082C08390056F124A3E601C88828983A302
:104A1C00A3E06A7003A3E06B8882898370E8A3A388
:104A2C00A3A31254D680047A007B00D083D08202D8
:104A3C000135125F8DE8492274EE1219DC74FC12F8
:104A4C001985EAFEEBFF851882851983E4F0A3F043
:104A5C00EE2402125728EE2405124C59EE2404F5CC
:104A6C000EEF12503EE024FE603924FC604624FE1A
:104A7C00605224FE605E24FE7003024B5E24FE70C6
:104A8C0003024BD624FE7003024BE524FE70030296
:104A9C004BF424FC7003024C0324FE7003024C12F2
:104AAC00024C4F9005887417F0A3E4124C73120952
:104ABC00F8024C4F851882851983AC82AD83120E97
:104ACC0000024C1F851882851983AC82AD83120EAF
:104ADC0006024C1F850C08850D0974021219D0AC06
:104AEC0082AD838508828509831254D6120D228AE1
:104AFC000C8B0DAC0CAD0DEC4D6042E4F50CF50DD2
:104B0C00780C121BEF750C88750D05780C121BEFC9
:104B1C00750C89750D05780C121BEF74081219D0E1
:104B2C00121C0679161254D0120E42740812199BDC
:104B3C00E9F50C700B1254CC120A10800F750C0195
:104B4C00850882850983124C61125744850C080232
:104B5C004C2274021219D0AC82AD83850C82850D67
:104B6C00831254D6120D228A108B11AC10AD11EC9D
:104B7C004D6043850C82850D83A3A3121C06751012
:104B8C00887511057810121BEF7510897511057851
:104B9C0010121BEF74081219D0121C06791612543D
:104BAC00D0120E42740812199BE9F509700B1254BD
:104BBC00CC120A16800F750901850C82850D8312A3
:104BCC004C61125744850908804C851882851983DD
:104BDC00AC82AD83120E0C803A851882851983AC99
:104BEC0082AD83120E12802B851882851983AC82BC
:104BFC00AD83120E18801C851882851983AC82AD8A
:104C0C0083120E1E800D851882851983AC82AD83AC
:104C1C00120E24E9F508E50860298E828F83A3E043
:104C2C006414601F850E82850F83E0900588124CFA
:104C3C006B125F89900589125744E508A3124C73D7
:104C4C001209F2EEFAEFFB120DA6025630F50CEF3C
:104C5C003400F50D22125F8D85188285198322F0A0
:104C6C0085188285198322F07C887D05850A8285CA
:104C7C000B831254DA2274EE1219DC74FC121985AF
:104C8C008A0A8B0B8C0E8D0FEA2405F508EB340089
:104C9C00F5097C157D0079007A887B05120596E56F
:104CAC00082402F50CE509124C5C851882851983E1
:104CBC008582108583117810121BEF850882850977
:104CCC0083A3A3A3A3125186121BEFE5082405F5B9
:104CDC0010E5093400F5117810121BEF850C828554
:104CEC000D831254E0120D1C740612199B8A108B42
:104CFC0011AE10AF11E50A2402F50AE50B12572B81
:104D0C00EE4F7003024E48801774021219D01254E1
:104D1C00D688828983EAF0A3EBF0900588E004F052
:104D2C00900588E0C394054003024E48E4F510F565
:104D3C00117810121BEF7510717511057810121B7C
:104D4C00EF7510727511057810121BEF740612199D
:104D5C00D0121C067910EEFCEFFD1254D0120E424C
:104D6C00740812199BE9705E850882850983A3A3D8
:104D7C00A3A3A3A3A3E0F8900571E06870481251B7
:104D8C0086121BEF7C727D05E5082408FAE50934D0
:104D9C0000FB120590740212199BE960298E828F18
:104DAC0083A3A3A3A31254D6900588E0F510740234
:104DBC00781012197274892510F58274053511F565
:104DCC0083EAF0A3EBF074021219D085821085836C
:104DDC00117810121BEF74021219D0121C06850CDC
:104DEC0082850D83125F9E120D28740412199B8A02
:104DFC00108B11AE10AF11900588E0F510751100F5
:104E0C007402781012197274882510F87405351113
:104E1C00F988828983A31249D97003024D0CE824C6
:104E2C0003F8E93400F9EE4F6003024D15888289CE
:104E3C008374FFF0A3F0900588E004F0900588E0FF
:104E4C00600A1254CC120A047900800B8508828502
:104E5C00098312573B790A02563074EA1219DC7432
:104E6C00FE1219858C128D13EA2405F50CEB125FDA
:104E7C00A812494B750800750900EA2402F510EBDD
:104E8C003400F51185188285198385820A85830B78
:104E9C00780A121BEF850C82850D83A3A3A3A312A2
:104EAC005048121BEFE50C2405F50AE50D12572BA3
:104EBC00780A121BEF850C82850D83125F9C120DF4
:104ECC001C740612199B8A0A8B0BEA450B700302A1
:104EDC004FF9EA2404F50EEB12503E12494B8A822C
:104EEC008B83A3A3A3E0F98510828511831254D67A
:104EFC00120D0AE9F5096003024FF9E4F514F515F2
:104F0C007814121BEF7514717515057814121BEFBC
:104F1C007514727515057814121BEF74061219D0DE
:104F2C00121C067913AC0AAD0B8510828511831205
:104F3C0054D6120E42740812199BE9F5096003024B
:104F4C004FF9900571E0F8E5087009E0240290052E
:104F5C0089F08017900589E0FCE82402FAE434001B
:104F6C00FBEA6C7001EB6003024FFD850882AA829C
:104F7C0012517D94141251755073850E82850F83D6
:104F8C00E0C0E0748A2A125035D0E0F00508850E96
:104F9C0082850F83A3E0C0E085080A748A250A1273
:104FAC005035D0E0F00508900571125048121BEFF7
:104FBC007C727D0585080A748A250AFA740534000A
:104FCC00FB12057E740212199B900571E02508F501
:104FDC000874FF6E700374FF6F6012EE24010EEF05
:104FEC003400FFE508C394145003024E90E50860AA
:104FFC00131253C18510828511831254D6120A0ADA
:10500C0079008014E509700375090A8512828513ED
:10501C0083EEF0A3EFF0A909740212199B7F0E0224
:10502C001AAE85080C748A250CF58274053400F5CB
:10503C0083223400F50F850E82F58322125CCB227D
:10504C0074EE1219DC74FE1219858C0E8D0FEA2485
:10505C0005F50CEB124C5C750B00900588E4F0F533
:10506C000AEA2402F508EB3400F50980499005881A
:10507C00E0FA900571E0F812517D941712517540C9
:10508C000D900588E0F87416C398900571F01251D4
:10509C0086121BEF7C727D0574892AFA7405340024
:1050AC00FB12057E740212199B900571E0F89005B5
:1050BC0088E028F0050AE50C2416F582E50D12505F
:1050CC0039E0F8E50AC398400302515E900588E088
:1050DC00C39416507DE50AC333F8E433F9E50C2884
:1050EC00FEE50D39FF851882851983AC82AD838E60
:1050FC00828F831254D6120D228A108B11AC10ADF4
:10510C0011EC4D7005750B018043E4F510F5117829
:10511C0010121BEF7510717511057810121BEF75BD
:10512C0010727511057810121BEF74061219D0123B
:10513C001C0679168508828509831254D6120E42F4
:10514C00740812199BE9F50B70030250791257374A
:10515C0080107C887D058508828509831254D612BF
:10516C000A1CA90B7402025632E99400C365D033B1
:10517C0022EA28F8E43400F9E822E0F51075110071
:10518C0078102274EA1219DC74FC1219858A0C8BC3
:10519C000D8C128D13EA2405F50AEB12572B7508AA
:1051AC0000750900E50A2402F510E50B3400F51131
:1051BC0074021219D085820E85830F780E121BEFA4
:1051CC00850A82850B83A3A3A3A3125C77121BEF22
:1051DC00E50A2405F50EE50B3400F50F780E121BCD
:1051EC00EF8510828511831257311254D0120D1C89
:1051FC00740612199B8A0E8B0FAE0EAF0FE50C24A2
:10520C0002F50EE50D3400F50F8040888289837419
:10521C00FFF0050812502E74FFF00508900571E0A0
:10522C00F50C750D00780C121BEF7C727D05850852
:10523C000C748A250CFA74053400FB12057E74027A
:10524C0012199B900571E02508F508EE4F60718EE0
:10525C00828F83A3A3A3E0F9850E82850F8312545A
:10526C00D6120D0AE9F509EE2404124C59E97044E2
:10527C00E4F514F5157814121BEF751471751505FA
:10528C007814121BEF7514727515057814121BEF38
:10529C0074081219D0121C067911EEFCEFFD850E64
:1052AC0082850F831254D6120E42740812199BE990
:1052BC00F5096027850C82850D831253B71257446C
:1052CC00E508700302539D1253C1850E82850F832E
:1052DC001254D6120A2279000253B2850882AA828D
:1052EC00EA9005717009E02404900589F08022E0B1
:1052FC00F8900589E0F514E82404FCE43400FDEC96
:10530C0065147001ED70C012517D941212517550DC
:10531C00B6850C82850D83E0C0E0748A2A12503564
:10532C00D0E0F00508850C82850D83A3E0C0E01267
:10533C00502ED0E01253D385820C85830D780C123D
:10534C001BEF74041219D0121C0685108285118370
:10535C00125F9E120D28740412199B8A0C8B0DAED1
:10536C000CAF0D85080C748A250CF874053400F903
:10537C00EE4F7003025217851882851983E08882DC
:10538C0089831253D3A3E0C0E012502ED0E0025216
:10539C0025E509700375090A850A82850B8312536A
:1053AC00B7125744A9097404025026125F8D851256
:1053BC008285138322900589E0F5F0E50884900539
:1053CC0088F07C887D0522F0050885188285198374
:1053DC002274EC1219DC74FE1219858A088B098C64
:1053EC000E8D0FEA2405FEEB3400FF85188285191B
:1053FC0083AC82AD838E828F831254D6120D228A97
:10540C000A8B0BEE2418124C59EA450B700302540C
:10541C00A712561950328518828519831254D61248
:10542C000E368A108B11EA4511606B7912AC0AADFD
:10543C000B8508828509831254D6851082851183C9
:10544C001219DAE9F50A7058E4F50AF50B780A1224
:10545C001BEF8E828F83A3A3E0F50A780A121BEF51
:10546C00EE2403125728780A121BEF8E828F8312B8
:10547C0054E0120E48740612199BE9F50A70218546
:10548C000C82850D83E0701F850882850983125478
:10549C00D6120A288011750A0E8009750A0180043B
:1054AC00E50A6003125737850C82850D83E0600492
:1054BC0079008002A90A740212199B7F0C021AAEA1
:1054CC007C887D05850A82850B831254DA22E0FAEA
:1054DC00A3E0FB22E0FCA3E0FD8508828509831292
:1054EC0054DA2274EE1219DC74FE1219858A088BB8
:1054FC00098C0C8D0DEA2405FEEB3400FF750E00B3
:10550C00851882851983AC82AD838E828F83125469
:10551C00D6120D228A0A8B0BEA450B700302560534
:10552C0012561950358518828519831254D6120ECD
:10553C00368A0E8B0FEA450F605E7912AC0AAD0B02
:10554C008508828509831254D6850E82850F8312B5
:10555C0019DAE9F50E60030256088508828509837D
:10556C0012581FAA0AFB120E2A8A108B11A810A916
:10557C0011E849701E7AFF7BFF120E2A8A108B11DC
:10558C00A810A911E849606C88828983E50AF0A308
:10559C00E50BF0750A008007750E0E805F050A900A
:1055AC00056EE0FAE50AC39A504AE50A75F017A4AD
:1055BC00FAABF088828983A3A3E02AFAA3E03BFB31
:1055CC008A828B83125731EC4D70D2750A17750B8A
:1055DC0000780A121BEFEEFCEFFD12057E7402122E
:1055EC00199BEEFCEFFD8508828509831254D612B7
:1055FC000A2E8014750E098003750E01125F8585C5
:10560C000C82850D83125744A90E025170E50824B3
:10561C0002F508E5093400F5098A828B83A3A3A35C
:10562C00E0A2E522740412199B7F0A021AAE74ECF4
:10563C001219DC8C108D11EA2405F50CEB124C5C64
:10564C00750F00EA2402F50AEB12572B850A82F536
:10565C00831254D6120E2A8A088B09EA4509700364
:10566C0002571D750E008071850C82850D83E064D8
:10567C0001704F8E828F83A3A3121C068E828F83A0
:10568C00A3A3A3A3E0F5127513007812121BEFEE7F
:10569C002405F512EF3400F5137812121BEF125497
:1056AC00D0120E48740612199BE9F50F6014850C84
:1056BC0082850D83E4F0125F85851082851183123B
:1056CC0057447C177D007900EEFAEFFB1205968E9D
:1056DC00828F83E4F0A3F0050E90056EE0F8E50EE2
:1056EC00C398501EE50E75F017A4F8A9F085088232
:1056FC00850983A3A3125FB2125731EC4D600302EC
:10570C00567485088285098374FFF0A3F0E50F7049
:10571C00061254D0120A34A90F0254C7F50AEF34FA
:10572C0000F50B22A3E0FCA3E0FD228E828F8312F6
:10573C005F8D850E82850F83E8F0A3E9F022C0828D
:10574C00C08390056AE06A7003A3E06B70067A6A06
:10575C007B0580047A007B00024A37C082C08378C4
:10576C00008C828D83E06A7003A3E06B7010E87587
:10577C00F003A4F8A9F0EC28FAED39FB8015088C9D
:10578C00828D83A3A3A3E06A7003A3E06B60DF7A2E
:10579C00007B00024A3774F61219DC120DF48A826F
:1057AC008B83E582458370067A007B008007A3A378
:1057BC00A3A31254D6025E3674F21219DCE9FE74FD
:1057CC000E1219D012581F74101219D0125C978C2B
:1057DC00828D83E064027036A3125F93F50CA3E014
:1057EC00F9A80C74026870037429697021750C0295
:1057FC00750D00780C121BEF7808121BEF780A124B
:10580C001BEFEEF9120E6C740612199B80027901D3
:10581C00025EBAE0F50AA3E0F50B2274E81219DC7B
:10582C0074FB121985E9851882851983F08A168B09
:10583C0017ECFEEDFF751000741D1219D0125F8964
:10584C00741D1219D01257448E828F83A3A3A3E028
:10585C00A2E4502D741D1219D01254D6120E368A91
:10586C00828B83E58245837003025C68790AEEFCC7
:10587C00EFFDAA16AB171219DAE9F5106003025CFA
:10588C006B741F1219D0125C9774211219D0125814
:10589C001F74231219D0E0F50EA3E0F50F8E828F42
:1058AC0083E064026003025C16A3125F89850882A0
:1058BC00850983A3858212858313EE2406124C5925
:1058CC0088828983E0FAA3E0F9EA2400F514E4392C
:1058DC00F5157814121C790100002801280B5907C2
:1058EC00000228D05903283D590029075B012932B1
:1058FC005B0229D35A0329075B0429B15B165CE5CB
:10590C000E450F6003025C11850C82850D83125CC1
:10591C008CFAE9FB8A828B83E0850A82850B8312E1
:10592C005CC2121BEF8A828B83A3E0FCA3E0025BB8
:10593C009BE50E450F6003025C11850A82850B8383
:10594C007401F0125C9F850882850983F07C007DD0
:10595C00008E828F83A3A3A3A3E02401FAA3E034D7
:10596C0000FB120D22EA4B60418A828B83E02402F9
:10597C00F8850A82850B83E028F0EA2404F8EB34DE
:10598C0000F988828983E0851282851383125CD4A6
:10599C00125CC2121BEF8A828B83125730E50824EB
:1059AC0003FAE5093400FB025BA0850A82850B83B0
:1059BC00E02404F07C047D007900AA12AB131205DC
:1059CC0096025C6BE50E450F6003025C11125C9F46
:1059DC00FEA3E0FF850A82850B837404F0EE850834
:1059EC0082850983F0EF851282851383F07403128C
:1059FC0019D0AC82AD83EEFAEFFB120D228A0C8B20
:105A0C000DEA450D7003025AB48A828B83A3A3124C
:105A1C00494774011219D085820E85830F780E12B6
:105A2C001BEF74051219D0121C067CFF7DFF120DA2
:105A3C0028740412199B8B0FEA450F7033850C8266
:105A4C00850D83125C77121BEF850C82850D83A369
:105A5C00121C067C027D007ABE7B8F120B0674042E
:105A6C0012199BE9700A74011219D074FFF0A3F09B
:105A7C008E828F83E064027039750C02750D00788C
:105A8C000C121BEF8E828F83125730E5082404FA18
:105A9C00E5093400FB12057E740212199B850A82FB
:105AAC00850B83E02402800974011219D0EEF0A357
:105ABC00EFF074011219D0125C88F074011219D035
:105ACC00A3125C80025C0BE50E450F6003025C11B7
:105ADC00850C82850D83125731AA16AB17120E60F6
:105AEC00850A82850B837402F0EA85088285098316
:105AFC00F0851282851383EB025C0EE50E450F6078
:105B0C0003025C11125C9FF8A3E0F9850A82850BF5
:105B1C00837402F0E8850882850983F0E985128296
:105B2C00851383025C0E850C82850D831254D6126C
