:020000040000FA
:0600000002011D02232C89
:03002B00021DA013
:03003300021D7536
:030053000223A2E3
:03006B00021D4A29
:100083000221DBE5C754F84401F5C77901220000DA
:100093000080FB120086B90003020107E47921788E
:1000A30008B800028004F709D8FCE479297802B87B
:1000B30000028004F709D8FCE4900281785679089D
:1000C3008002F0A3D8FCD9FA781A90014D7A01BACC
:1000D30000028007E493A3F608DAF99009D6AA820E
:1000E300AB8390014E782B79058015E493A3AC8202
:1000F300AD838A828B83F0A3AA82AB838C828D83A8
:10010300D8E9D9E775828E7583FF740212012F75C2
:100113008291758300740012012F75D00075813FA1
:10012300751881751902759F00020096C09FF59F8F
:10013300E473D09F22D083D082C09FE493C0E07445
:100143000193C0E0740293F59F2201FFFF1101990F
:10015300010F1264040102C48F010000BD8E02BEB0
:100163008F010000DD0902F88F010000DE0902FEA5
:100173008F030000A60202F68F010000DF090809C1
:1001830043474D2053696D020105050208180A18FB
:1001930043474D2053696D756C61746F72000000A5
:1001A30000000000000130000095341290785600E2
:1001B3001403030801DF07EC00A800E803031F0191
:1001C300000E11171601DD07000050C011000003D7
:1001D3001F02000600000201DC0700003CC022FFF2
:1001E300FF031F03000B17000502DC07000037C0E5
:1001F300335555031F04000C02000E01DB073C00BE
:1002030065B144AAAA031F05000D050C0C01DB0709
:100213003C00F6B1F5A5A5031B0600070F00050278
:10022300DB073C007EB0165A5A031B070009040083
:100233000E04DB0788FF64B017AA55031B080000F0
:1002430000000101DD0788FF5AB02855AA031B09E6
:10025300000C00000502DD0788FF48B03911115F6B
:100263000100000109000151080746016400320042
:100273005F020000010A00015108074601640031D2
:10028300007F030000010A000151080746016400D2
:1002930031005F040000010A0001510807460164B0
:1002A3000031005F050000010A0001510807460103
:1002B300640031007F060000010A0001510807466F
:1002C30001640031005F070000010A0001510807C3
:1002D3004601640031005F080000010B0001510872
:1002E300074601640030007F090000010C00015142
:1002F3000807460164002F000900E606000010020B
:10030300020A020200282802C48F010000B98F02EA
:10031300BE8F010000890B02F28F00000020030250
:10032300FE8F0300001A0302BE8F0100008A0B0236
:10033300F08F010000210302BE8F0100008B0B022E
:10034300EE8F010000220302BE8F0300008C0B021C
:10035300EC8F030000230302BE8F0300008D0B020A
:10036300EA8F0300008E0B02BE8F030000900B0286
:10037300E88F0300002A0302FE8F03000024030218
:10038300BE8F030000910B02E68F030000310302CE
:10039300FE8F0300002B030202020202020202028A
:1003A300010D000000100102C48F010000B08F0294
:1003B300BE8F010000220C02E08F01000032030215
:1003C300BE8F010000230C02DE8F010000CE8E02DF
:1003D300BE8F010000240C02DC8F010000D58E02C9
:1003E300BE8F010000250C02DA8F010000488F0246
:1003F300BE8F010000260C02D88F0100004C8F0233
:10040300BE8F010000270C02D68F010000508F021F
:10041300BE8F010000280C02D48F010000548F020C
:10042300BE8F010000290C02D28F010000AF8E02A3
:10043300BE8F0100002A0C02D08F0100002B0C019B
:10044300E803053F100AFF000130750302010600AF
:100453000000000000000000000000000000000099
:100463000000000000000000000000FFFF06008005
:100473000CE803FF0000B4000028002800283075B2
:10048300A000A000A000A00000080008E001F00008
:100493001000100010001000100010005000500059
:1004A300500010001000D0070000000000000F00F3
:1004B30001000500307507001000010081FF0000F6
:1004C3000000FF380C560C3E0CFF020202080250DB
:1004D30000A0000000E80302C48F010000B68F02F1
:1004E300BE8F010000550D02FA8F010000070502BF
:1004F300BE8F010000560D02BC8F0100001D0502D6
:10050300BE8F010000570D02E48F0100001F05029A
:10051300BE8F010000580D02C68F0800002005029F
:10052300BE8F010000590D02CC8F0100005A0DFF50
:10053300FF0100FF2002C48F010000B38F02BE8FB2
:10054300010000BF0D02CE8F000000000002FE8FED
:10055300030000AF05A412A412A412A412A412A4AF
:1005630012A412A412A412A412A412A412A41280FC
:100573001598157A1512013873F00212013888F0B4
:1005830002120138E0F00212013847F10212013879
:100593008FF10212013805F20212013834F202120D
:1005A300013842F202120138A6F202120138E4F2D3
:1005B30002120138FFF20212013897F302120138D6
:1005C30040F402120138C3F402120138FCF402129F
:1005D300013887F502120138DEF5021201383DF6C3
:1005E300021201384FF60212013875F60212013871
:1005F3007EF602120138DDF70212013805E103121B
:100603000138D0B903120138AFBA031201380BBB5A
:100613000312013825BB0312013836BB031201381C
:1006230056BB0312013821CE0312013866CE0312E2
:100633000138ACCE031201383FD0031201388CDFEE
:1006430003120138A7DF03120138B7DF03120138A1
:100653000EE0031201382387031201384387031284
:100663000138478803120138938803120138B3888D
:100673000312013806890312013873890312013802
:10068300B989031201381D8A03120138CF8C031272
:10069300013825D90312013855D90312013885D9F8
:1006A30003120138A5D903120138FFD90312013807
:1006B30007BD031201383CBD031201382BBE0312E0
:1006C30001380FBF03120138BD6000120138BC624C
:1006D300001201383F6300120138796300120138B8
:1006E3005C6500120138256600120138C1670012EB
:1006F3000138376800120138686800120138696AE6
:1007030000120138346F00120138616F0012013892
:10071300FB7200120138957300120138D673001270
:1007230001382274001201384D76001201386D979A
:1007330003120138D69703120138E99703120138DF
:100743003A9803120138999803120138DE9903127B
:100753000138069C031201387792031201389C92E8
:1007630003120138D7920312013863FF01120138D3
:10077300A82900120138B62C00120138762E001277
:100783000138212F00120138C52F001201385E30C5
:10079300001201388D3000120138F930001201388F
:1007A300D335001201387E3600120138EE370012BD
:1007B30001385638001201380A3900120138CC3B8F
:1007C300001201380B3C001201387F3C0012013843
:1007D300DE3C001201383D3D00120138AC3D0012F1
:1007E30001389F3E00120138E53E001201382A3FCE
:1007F300001201384D3F00120138C8400012013881
:10080300DB4000120138E441001201382342001298
:1008130001384F4200120138A24200120138C3428C
:1008230000120138074300120138594500120138FC
:100833009A4500120138454600120138B0460012AD
:100843000138ED4700120138B6DD03120138C7DD68
:1008530003120138A5DE0312013878CB03120138E5
:1008630013CE031201384AE20312013867DA031286
:10087300013877DA031201388EDA0312013893DB79
:100883000312013812C303120138B8C3031201382B
:10089300D4C50312013882D203120138B2D2031233
:1008A300013822D30312013846D303120138A2D3ED
:1008B300031201381DD4031201385AD4031201382C
:1008C3005DD403120138E8FF02120138FAFF021265
:1008D3000138FDFF02120138F87F00120138CBC83E
:1008E30003120138C2CA031201382ECB0312013896
:1008F30075CB0312013883D003120138ECD00312F5
:100903000138AAD10312013829D203120138BBAE30
:1009130003120138EDAE03120138F5AF03120138AB
:100923001AB103120138D6B10312013840DC0212A6
:10093300013826DD0212013873DD02120138B6DDFB
:10094300021201382BDE021201388CDE021201384A
:1009530001DF02120138DDDF02120138E8E0021282
:10096300013869E10212013810E302120138A6E3EB
:100973000212013819E40212013895E40212013817
:10098300ACE402120138E3E5021201383DE602123B
:1009930001389AA30112013832A80112013806ABBB
:1009A300011201382FAB0112013858AB0112013883
:1009B3000AAC01120138F0AD011201382BAF01125C
:1009C300013861B4011201389AB401120138DEB45E
:1009D30001120138F0B501120138BFDC03120138EE
:1009E300D5DC0312013804DD031201383ADD0312AA
:1009F300013851DD0312013888DD031201389FDD10
:100A0300031201386BD40312013882D40312013864
:100A1300B3D403120138EED40312013818D50312EC
:100A2300013842D50312013859D50312013870D564
:100A33000312013887D503120138B0D503120138E8
:100A4300C3D503120138D9D503120138ECD50312EB
:100A5300013813D60312013840C50212013844C6C7
:100A63000212013871C602120138C7C602120138D8
:100A7300EAC602120138FEC60212013800C702128A
:100A8300013823C70212013829C802120138EDC800
:100A930002120138C2C9021201383DCA02120138DA
:100AA30040CA02120138C8CA0212013803CB02122B
:100AB30001383ACB02120138C8CB02120138A1CC5B
:100AC30002120138A4CC0212013804CD02120138FB
:100AD3000FCD021201388ECD0212013891CD0212D0
:100AE300013894CD0212013897CD0212013826CE77
:100AF3000212013830CE0212013840CE0212013800
:100B030070CE021201387DCE0212013880CE02125D
:100B1300013801CF02120138EFCF02120138A1D000
:100B2300021201381CA10312013844A10312013837
:100B330072A103120138A9A10312013807A20312FB
:100B4300013852A2031201389DA203120138DDA21B
:100B53000312013823A30312013851A303120138EE
:100B63000EA40312013818A40312013825A403129A
:100B7300013858A40312013824A50312013830A503
:100B83000312013848A50312013852A50312013894
:100B9300B5DE03120138C3DE03120138DBDE0312B4
:100BA3000138F3DE0312013809E801120138B5E810
:100BB3000112013830E90112013851EA01120138FA
:100BC3008DEA0112013836EB011201381DEC0112D6
:100BD300013881ED01120138D8ED0112013859EEC7
:100BE3000112013849EF0112013896EF0112013861
:100BF3001CF0011201384EF00112013862F20112A9
:100C03000138A4F201120138C2F20112013845F38E
:100C13000112013819F401120138E1F4011201380B
:100C2300008003120138D380031201387C81031240
:100C33000138CF81031201387F82031201380B83FD
:100C430003120138F7830312013826840312013893
:100C53003985031201388185031201385686031240
:100C63000138928603120138AE8603120138A8E1D7
:100C73000312013837B6031201384DB60312013897
:100C830073B6031201388FB70312013899B70312F1
:100C93000138CEB803120138C6B903120138508D9A
:100CA30003120138808E03120138B38E0312013808
:100CB300FD8E03120138C490031201380080021222
:100CC3000138848002120138CD8002120138B482C7
:100CD300021201386D84021201384985021201386B
:100CE300FD85021201383A8902120138E88902129D
:100CF3000138578B02120138E98C02120138218D19
:100D030002120138BE8D021201383DC801120138AA
:100D1300A7C80112013806CA0112013816CA011206
:100D2300013843CA011201389ACA0112013843CB70
:100D3300011201384ACC0112013814CD01120138D5
:100D430074CE01120138B7CE011201385CCF011203
:100D53000138A9CF01120138CFCF01120138DDD1FB
:100D630001120138E2D101120138E7D3011201382F
:100D730034D401120138A7D401120138DAD4011294
:100D830001387CD50112013825D6011201385DD610
:100D93000112013860D601120138A8D601120138B8
:100DA300E8D6011201383FD701120138EFC503120B
:100DB300013802C60312013810C60312013858C69F
:100DC300031201386EC603120138B5C60312013887
:100DD300C9C70312013856C803120138A1C8031248
:100DE30001382148001201382D48001201386848A3
:100DF30000120138AD48001201386D490012013864
:100E0300F349001201381F4A00120138584A0012F0
:100E13000138964C001201387A4E001201386050A6
:100E230000120138A35100120138F15300120138A6
:100E33000355001201384E56001201385E57001256
:100E430001387B5700120138B65700120138D857C2
:100E5300001201383B5800120138FC5C00120138C3
:100E6300915D00120138E25D00120138095E001243
:100E730001385B5E00120138795E00120138D35EDF
:100E830000120138D25F0012013856600012013897
:100E9300D9A503120138E3A50312013826A60312CC
:100EA300013841A603120138D1A603120138F9A66D
:100EB3000312013836A7031201386DA70312013854
:100EC30096A7031201380BA80312013820A80312B6
:100ED300013835A80312013866A8031201387AA82D
:100EE300031201389FA803120138D9A8031201384D
:100EF30005A90312013888A903120138D1A90312E5
:100F03000138FBA90312013826AA0312013899DB21
:100F1300031201386DB8021201389BB8021201386E
:100F2300E9B902120138C9BA02120138E8BA021249
:100F3300013865BB02120138A8BB02120138FEBC9E
:100F430002120138BFBD0212013846C00212013835
:100F5300E7C002120138DDC102120138DAC20212FF
:100F6300013834C402120138BFC402120138CAD78F
:100F73000312013833D80312013887D8031201381A
:100F8300AED803120138DFD8031201384EAA031278
:100F93000138BBAA0312013802AB031201381AACA1
:100FA3000312013816AD03120138F9AD03120138EB
:100FB300FAF6011201383CF7011201380EF801125A
:100FC3000138E7F801120138E1F901120138C3FAD7
:100FD300011201382CFB01120138E2FB0112013826
:100FE30056FC01120138C2FC01120138EBFC01125C
:100FF300013865FD01120138FEFD0112013863FE5F
:101003000112013878FE01120138BEFE01120138C7
:10101300D7FE011201383CFF011201383FFF0112D4
:10102300013819C00312013841C0031201387FC0CF
:10103300031201383DC103120138A4C10312013860
:10104300C0C103120138E8C10312013818C20312E8
:10105300013827C203120138A4C203120138CAC2DD
:10106300031201382CD801120138CAD901120138F0
:10107300E5DB0112013821DC011201384EDC0112DB
:10108300013833DD011201387ADD01120138BEDD8A
:1010930001120138D0DD0112013810DE01120138CE
:1010A3003DDE0112013888DE01120138C8DE01126B
:1010B3000138F6DE0112013848DF01120138D8DFAA
:1010C3000112013876E2011201388CE40112013871
:1010D300CAE4011201385BE601120138A0E60112ED
:1010E300013817E70112013861E701120138507620
:1010F30000120138CF7600120138917C00120138BA
:10110300A07D00120138087F001201389F7F001272
:1011130001380190011201384A9001120138779089
:1011230001120138AA9001120138B7900112013857
:10113300C39001120138D59001120138BC910112FC
:1011430001381A92011201384F9201120138929319
:1011530001120138DF93011201380394011201389F
:101163007094011201382E9501120138E79501128E
:101173000138549601120138069701120138169767
:10118300011201389D97011201385C980112013850
:101193008998011201380299011201385F990112ED
:1011A3000138A999011201383F9A011201380A9BAB
:1011B30001120138BF9B01120138349C011201381E
:1011C300959C01120138FF9C01120138389D0112D0
:1011D3000138DA9D01120138EA9E011201382A9F73
:1011E30001120138479F01120138669F011201382D
:1011F300AD9F01120138D29F01120138FF9F0112E6
:10120300013879A001120138BAA001120138DEA118
:10121300011201388EA201120138E5A20112013830
:101223004FA30112013868A301120138A9E6021283
:101233000138FCE60212013808E702120138DDE743
:101243000212013804E8021201383FE802120138A1
:10125300ABE802120138E7E80212013820E9021272
:10126300013838E9021201388DE902120138A6E982
:1012730002120138EFE90212013802EA02120138C0
:101283001CEA0212013832EA0212013865EB02123B
:101293000138ACEC02120138AEED02120138A8EEAF
:1012A30002120138F57F0012013836AB0212013801
:1012B30066AB021201382EAF0212013885B002125A
:1012C30001384EB102120138CEB2021201389FB377
:1012D30002120138DCB302120138FFB302120138E3
:1012E3003DB40212013846B40212013890B402121E
:1012F30001389AB40212013844B5021201381DB6FE
:101303000212013871B602120138D3B60212013843
:1013130026B70212013855B70212013892B70212EA
:101323000138B0B60112013817BA011201381DBADB
:10133300011201389FBF0112013818C4011201388C
:10134300EEC7011201389DB20312013813B3031221
:10135300013829B3031201386AB303120138A4B365
:10136300031201381DB40312013858B403120138B3
:10137300CBB40312013809B50312013812B50312B5
:1013830001381EB5031201383AB50312013865B5A9
:10139300031201387BB503120138A4B503120138D7
:1013A30007B603120138599C031201386C9C0312CF
:1013B3000138869C03120138AF9C03120138F29C5A
:1013C30003120138319D031201386F9D0312013856
:1013D300D49D03120138E99D03120138F49D0312D1
:1013E3000138019E03120138189E03120138269E0C
:1013F30003120138319E031201383D9E0312013856
:10140300509E031201385B9E031201387E9E031225
:101413000138259F03120138359F031201384F9F6E
:10142300031201386C9F03120138889F031201389D
:10143300AD9F03120138B89F03120138CD9F0312E9
:101443000138E19F0312013842A00312013848A07A
:10145300031201384EA00312013854A003120138BD
:101463006CA0031201389FA0031201380C9D0212D5
:101473000138909D021201383F9E021201389E9F4F
:1014830002120138BFA102120138ABA202120138C5
:10149300E0A20212013802A302120138B1A3021220
:1014A3000138A9A502120138D2A50212013864A697
:1014B3000212013896A602120138A3A602120138BD
:1014C300FAA60212013820A7021201388DA90212CE
:1014D300013890AA02120138E8AA021201389B8E41
:1014E30002120138A58F021201388C9002120138C2
:1014F300969002120138B89002120138C490021279
:1015030001385D92021201388C9202120138A893BD
:101513000212013801940212013867950212013850
:10152300469602120138A296021201380F97021250
:1015330001384A9702120138899702120138429AF8
:10154300021201385C9A02120138E89A0212013839
:10155300F69A021201384F9B021201385D9B021268
:101563000138D09B02120138349C021201387E9C50
:101573000212013812D10212013834D10212013899
:101583005AD3021201386FD60212013887D70212DA
:1015930001383AD8021201381CD90212013825D673
:1015A300031201384AD603120138BCD6031201389C
:1015B30014F8021201381DF80212013826F802123B
:1015C3000138FDF802120138AEFA02120138E4FACA
:1015D300021201381EFB0212013854FB02120138B9
:1015E3008EFB02120138C2FB02120138EEFB02121B
:1015F300013837FC0212013871FC02120138BAFCBF
:101603000212013812FD0212013847FD021201389D
:10161300A2FD02120138DCFD021201382DFE021276
:10162300013863FE021201389DFE02120138CBFE1F
:1016330002120138EEFE021201385AE00312013899
:1016430086E003120138E1E003120138EBE00312F4
:101653000138FBE003120138C97F001201382CE284
:1016630003E066701008A3E066700A08A3E06670E2
:101673000408A3E06622C3E7960809E7960809E78A
:10168300960809E79622C3E09608A3E09608A3E02C
:101693009608A3E09622C008C3E096F50808A3E0E5
:1016A30096420808A3E096420808A3E0964508700E
:1016B30001D3D00822080808EAC0E0EBC0E086F0B6
:1016C300E7A4FA180986F0E7A42AFA180986F0E7CE
:1016D300A42AFA180986F0E7A42AFA1986F0E7A4DF
:1016E300FBE5F02AFA190886F0E7A42BFBE5F03AAC
:1016F300FA190886F0E7A42BFBE5F03AFA18180963
:1017030086F0E7A4C5F02BFBE43AFA1908E7C5F025
:10171300C6A426F6E5F03BFBE43AFA1886F0E7A404
:10172300F6E5F00826F6E43B08F6E43A08F6D0E0DE
:10173300FBD0E0FA22E4CFC0E0E4CEC0E0E4CDC0C9
:10174300E0E4CCC0E075F020C3E633F608E633F6F8
:1017530008E633F608E633F6181818EC33FCED33D5
:10176300FDEE33FEEF33FFC3EC9709ED9709EE97D8
:1017730009EF97191919400FFFEC97FC09ED97FD35
:1017830009EE97FE191906D5F0BEECF709EDF70936
:10179300EEF709EFF7191919D0E0FCD0E0FDD0E01E
:1017A300FED0E0FF226016080808C6C313C618C699
:1017B30013C618C613C618C613C6D5E0EA227009A5
:1017C300080808226016181818C6C333C608C6339B
:1017D300C608C633C608C633C6D5E0EA22E627F6EE
:1017E3000809E637F60809E637F60809E637F62268
:1017F300E026F608A3E036F608A3E036F608A3E0F1
:1018030036F622E026F008A3E036F008A3E036F02F
:1018130008A3E036F022C3E697F60809E697F60830
:1018230009E697F60809E697F622C3E096F008A3BF
:10183300E096F008A3E096F008A3E096F022E056C5
:10184300F608A3E056F608A3E056F608A3E056F61A
:1018530022E056F008A3E056F008A3E056F008A3F0
:10186300E056F022E0F608A3E0F608A3E0F608A3AA
:10187300E0F622E6F008A3E6F008A3E6F008A3E604
:10188300F022E0FAA3E0FBA3E0FCA3E0FD22EAF0F0
:10189300A3EBF0A3ECF0A3EDF022CAC0E0E6F0A3C3
:1018A30008DAFAD0E0FA22CAC0E0E0A3C582CCC5C8
:1018B30082C583CDC583F0A3C582CCC582C583CD44
:1018C300C583DAE6D0E0CA22C3E498F8E499F912B2
:1018D300190C8026C3E49AFAE49BFBE920E7E9129A
:1018E300190CE498F8E499F922C3E498F8E499F917
:1018F30012190CE498F8E499F9C3E49AFAE49BFB0F
:1019030022EB20E7CFE920E7E0B90010BB0008E8AD
:101913008AF084F8AAF022E4FBC8FA22EB70227B57
:1019230010C833C8C933C9335007C39AC3DBF28025
:10193300069A50012ADBEAC833F4C8C933F4C9FA5A
:101943002275F008E4C833C8C933C933C99AC99B9F
:101953005004C92AC93BD5F0ECFBC833F4C8E4C929
:10196300FA22600D08C6A2E713C618C613C6D5E04F
:10197300F322600C08C6C313C618C613C6D5E0F419
:1019830022700422600D18C6C333C608C633C6D5F9
:10199300E0F41822251810AF08F518400215198035
:1019A30008F51840021519D2AF22C0D0251810AF80
:1019B30008F518500205198008F51850020519D2C8
:1019C300AFD0D0222518F58210AF08F518400215C4
:1019D300198008F51840021519D2AF8519832225FD
:1019E30018F582E43519F58322E4732518C582C0FE
:1019F300E0E51934FFC583C0E0E518C3958224F8F8
:101A030010AF08858319858218800885831985821C
:101A130018D2AFCEF0A3E520F0A37808E608F0A330
:101A2300DEFAEFF0A3E58124FAF8E608F0A3E6086E
:101A3300F0A3E608F0A30808E608F0A3E608F0A37D
:101A430015811581D0E0FED0E0F81581158115814F
:101A5300E8C0E0EEC0E0222518C582C0E0E51934F5
:101A6300FFC583C0E0E518C3958224F910AF08854C
:101A730083198582188008858319858218D2AFCE91
:101A8300F0A3E520F0A37808E608F0A3DEFAEFF070
:101A9300A3E58124FBF8E608F0A3E608F0A3080811
:101AA300E608F0A3E608F0A315811581D0E0FED087
:101AB300E0F815811581E8C0E0EEC0E022851983C6
:101AC300851882E0A3FEE0A3F5207808E0A3F608DA
:101AD300DFFAE0A3FFE0A3C0E0E0A3C0E0E0A3C01F
:101AE300E0E0A3C0E0E0A3C0E010AF088582188562
:101AF30083198008858218858319D2AFD083D08259
:101B0300020135851983851882E0A3FEE0A3F52041
:101B13007808E0A3F608DFFAE0A3FFE0A3C0E0E063
:101B2300A3C0E0E0A3C0E0E0A3C0E010AF0885825B
:101B3300188583198008858218858319D2AFD083CD
:101B4300D08222C0D02518C582C0E0E51934FFC574
:101B530083C0E0E518C3958224F310AF0885831989
:101B63008582188008858319858218D2AFC8F0A3AF
:101B7300E9F0A3EAF0A3EBF0A37908E709F0A3D80F
:101B8300FAECF0A3EDF0A3EEF0A3EFF0A3D0E0F0B6
:101B9300A3D0E0F0A3D0E0F0A3E520F0A3E5F0F0BC
:101BA300A322851983851882E0C0E0A3E0F9A3E0AE
:101BB300FAA3E0FBA37808E0F608A3DFFAE0FCA3AE
:101BC300E0FDA3E0FEA3E0FFA3E0C0E0A3E0C0E0EC
:101BD300A3E0F5D0A3E0F520A3E0A3F5F010AF0850
:101BE3008583198582188008858319858218D2AF69
:101BF300D082D083D0E0F8D0E0327404800674023F
:101C030080027401C0E0F4041219C7D0E012189DD9
:101C1300227404800474028000CCC0E0EDC0E0E5CF
:101C230018C39CCCAD1950011D10AF068C188D192B
:101C330080068C188D19D2AF1218AAD0E0FDD0E01F
:101C4300FC22D083D082E9C0E0E493A3C386F0C52D
:101C5300F095F0F908E493A386F0C5F095F0700BC6
:101C6300E493A3C3994005E9048002A3E475F00259
:101C7300A42582F582E5F03583F583D0E0F9E4937A
:101C8300A3C0E0E493C0E022D083D082ECC0E0EDB7
:101C9300C0E0E493A3FCE493A3FDED4C600D121CA0
:101CA300D7EC24FFFCED34FFFD80EFE493A3FCE4C9
:101CB30093A3FDED4C600D121D16EC24FFFCED34D7
:101CC300FFFD80EFD0E0FDD0E0FCE493A3C0E0E4AF
:101CD30093C0E022C0E0C3E493960874019396187E
:101CE300400FE493667008087401936618700070DF
:101CF30019A3A3C3E49396087401939618A3A3406E
:101D03000DD0E0D0E0D0E0021CC7A3A3A3A3A3A3FC
:101D1300D0E022C0E0C0F088F0E493667008087455
:101D2300019366187000A8F0A3A3700BD0F0D0E065
:0E1D3300D0E0D0E0021CC7A3A3D0F0D0E02285
:101D4400C2AF02000022C0E074F2121B46A2AFE44C
:101D540033FED2AFE589A2E150031208B4758900BD
:101D6400C2C5751A00EEF8EEA2E092AF7F01021B25
:101D7400A5C0E074F2121B46A2AFE433FED2AFE575
:101D84008BA2E050031208B4758B00C2E8751A00E8
:101D9400EEF8EEA2E092AF7F01021BA5C0E0C0D036
:101DA400E8C0E0E9C0E0A2AFE433F8D2AFC2C7753F
:101DB4001A00E8F9E8A2E092AFD0E0F9D0E0F8D058
:101DC400D0D0E03274F5121A5AEAFEEBFFEE243456
:101DD400F8EF3400F988088909EE2435121EF4F866
:101DE400EE2437121EF4F50AEC850AF0A4FCAAF0DE
:101DF400850AF0EDA42AFDE82CF8E43DF97A257B68
:101E04000012190CEA850882850983F074075AF8D0
:101E14007401B800028004C333D8FCFBEA13131323
:101E2400541FF8EE28F8EF3400F9E8245DF582E950
:101E3400121EF75B6003EA801CEE2436121EF4F5D2
:101E4400F0EA84A8F0EE28F8EF3400F9E82438F535
:101E540082E9121EF7F97F04021B0674F5121A5A5E
:101E6400EAFEEBFFEE2434121EF4C0E0EE2435F556
:101E740082EF3400F583D0E0F08E828F83A3A3A396
:101E8400A3A3E0FAA3E0FB8E828F83A3A3A3A3A35F
:101E9400A3A3E0FCA3E0FDECC39AF50AED9BF50BCC
:101EA400EE247FF508EF3400F509850882F583E018
:101EB4006401702BEE2480F582EF3400F583121C4C
:101EC40018121EFD74021219ADE960137C727D07AD
:101ED400EEFAEFFB1211CC850882850983E4F0AC9D
:101EE4000AAD0BEEFAEFFB121DC8122991021E5A1D
:101EF400F582EF3400F583E022C082C08385188226
:101F0400851983E0F8A3E0F9C3EA9CEB9D5010C364
:101F1400EC98ED99401BC3EA98EB995014800EC3DA
:101F2400EA98EB994007C3EC98ED99400479018055
:101F3400027900D083D08222EAC39CFAEB9DFB2273
:101F440074ED121A5A900638E064086005E06407DC
:101F5400702C9061C8E06026900666E0F874FF6813
:101F6400601CE875F003A4C8AAF02AF9746828FE76
:101F7400740639FF8E828F83A3A3A3E070057900D2
:101F84000220E4EE2468F510EF3400F5119060604F
:101F9400E0851082851183F0750ADB750B077508DF
:101FA40000750900E5D914F50EE5D95403F50F6061
:101FB4001CEE2482F50CEF3400F50D7403650F60FC
:101FC40058E50E6013EE2467121EF4700B793DEE93
:101FD400FAEFFB1211F080A69007D6E064016026A8
:101FE400850C82850D83E060047804800278008586
:101FF4000E08E508C398FA95E0FB1210768A088B60
:1020040009EA4509700612144E021F82850C828566
:102014000D83E070048A0A8B0B78008016E5D9C022
:10202400E08812E50A2512F582E50B3400F583D029
:10203400E0F008E8C3950E40E4850C82850D83E04A
:10204400602874FC250EF50E780A121C01AC0EA94A
:102054000FEEFAEFFB12129E74021219ADE9700A28
:10206400AA08AB091208FC021FD17403650F60585B
:10207400850E0C750D00780C121C01AC0AAD0BAA70
:1020840008AB0912126274021219AD85108285110F
:1020940083E0F87480687005750C7F8002880CE515
:1020A4000CF50A780A121C05E50FF50A780A121CC9
:1020B40005A90EAC08AD09900666E0FA7B00120F84
:1020C4000E74021219AD8013900638E06408600B98
:1020D400AC0AAD0BEEFAEFFB12133412145A790169
:1020E4007F0C021B0674F3121A5A74FC121997EA35
:1020F400FEEBFF8908A2AFE433F509C2AFEE246317
:10210400F50AEF3400F50B8010AA0AAB0B12121A71
:102114001208FC900779E004F0850A82850B83E0BD
:10212400F8A3E0F9E849602FE82402FAE93400FB57
:10213400EA2402F50CEB3400F50D780C121C018A2C
:10214400828B83E0FCA3E0F9EEFAEFFB12120E742B
:10215400021219ADE960B2900779E0605790077AEE
:10216400E0F8900779E0C398500C74026508704455
:1021740090077BE0603E8E828F83A3A3A3A3E085B8
:1021840018828519831221C874021219E2E81221F7
:10219400C8900778E028F074021219E2AC82AD838B
:1021A400851882851983AA82AB837901120F1A904C
:1021B4000779E4F0E509A2E092AF74041219AD7F47
:1021C40006021B06F0A3E4F0900779E0F822000071
:1021D4008521878522C622C0E074EF121B46A2AF78
:1021E400E433FEC2AF759B00906182E0A2E050121E
:1021F400E591A2E0500C7591FE7401652170031203
:102204001F44E0A2E55051E591A2E5504B7591DFE2
:10221400900638E064076005E06408702374016583
:102224002170357901900666E0FA75F003A4CAA816
:10223400F028FB74682AFA74063BFB1220E9801824
:10224400E0640D701390065AE004F064287002E410
:10225400F07A00E0F9121460906182E0A2E6400393
:10226400022302E591A2E640030223027591BF9086
:102274000638E06405700812137612138280031284
:10228400137C7521001213EEE9900639F0790012DF
:1022940013E21211367A017B00900637E0F9120539
:1022A400D2907803E0644270559007DAE014F0703D
:1022B4004DC2AF1222BA00782AD0E0F618D0E0F668
:1022C400E59F540770057509FF800375097FC4C035
:1022D400E07829E6F50808E65509F509740B78084D
:1022E400121975D0E02508F8906270E0A2E740F872
:1022F400E8C333906272F0906270E0D2E0F09061D3
:1023040081E0A2E35009E5E9A2E3500375E9F7A3EC
:10231400E0A2E75009E591A2E7500375917FEEA290
:10232400E092AF7F04021BA5C0E0C0D0C082C0838E
:10233400906183E0A2E05009E5BFA2E0500375BFBD
:10234400FEE0A2E15009E5BFA2E1500375BFFDE044
:10235400A2E25009E5BFA2E2500375BFFBE0A2E38D
:102364005009E5BFA2E3500375BFF7E0A2E45009AA
:10237400E5BFA2E4500375BFEFE0A2E55009E5BF55
:10238400A2E5500375BFDFE0A2E65009E5BFA2E66F
:10239400500375BFBFD083D082D0D0D0E032C0E02C
:1023A40074F2121B46E5A7A2E4500FE5A1A2E45083
:1023B4000953A7EF75A1EF1223F6E5A7A2E5500C88
:1023C400E5A1A2E5500653A7DF75A1DFE5A7A2E1C9
:1023D4005009E5A1A2E1500375A1FDE5A7A2E250D1
:1023E4000CE5A1A2E2500653A7FB75A1FB7F0102F5
:1023F4001BA574F8121A5A752101900638E0640678
:1024040070077A007B0012135EA2AFE433FED2AFF2
:1024140090063EE0640170187A207B00900637E055
:10242400F912067A7A207B00900637E0F91205D873
:10243400906182E0D2E6F09007D7E0602185C62261
:10244400801690063DE064017008E5C654F8440522
:10245400F5C653BEFC1221D47401652160E4EEA2DA
:10246400E092AF7F01021B068E238F24858228858C
:102474008327851882851983E0CEA3E0CF8528823F
:10248400852783EBC9EAC8EDCBECCA75F010C3E825
:1024940033C8E933C9EA33CAEB33CBC3EA9EF52622
:1024A400EB9FF525B35004AB25AA26EC33CCED33D2
:1024B400CDD5F0DAAE23AF242274E9121A5A74FA95
:1024C400121997EAFEEBFF8C088D09900638E02478
:1024D400F7C3940550067510010225E81212D48A38
:1024E4000A8B0BEA450B70030225E51213948A0C40
:1024F4008B0D121394EA650C7003EB650D60ECEE22
:10250400FCEFFD851882851983AA82AB8312139A86
:10251400850A82850B83A3A3780C121867908F34E5
:10252400780C12184185188285198378141218675B
:10253400908F347814121841780C7914121679504B
:102544001F780C7914121819908F28780C12169988
:102554004047850C10850D11850E12850F1380459B
:10256400908F2885141085151185161285171378F8
:1025740010790C1218197810121699501C75100045
:102584007511007512007513017810791412181959
:102594007810790C1217E0800C7510017511007514
:1025A4001200751300740978101217C1908FA47863
:1025B4000C1218677810790C121738900638E064FA
:1025C40008600AE064066005E064057020908F3CB2
:1025D40078101216995016908F4078101217F380C5
:1025E4000C751000751100751200751300850882B2
:1025F400850983781012187674061219AD7F1002BB
:102604001B0674F7121A5A1213AC9007D5E0640132
:102614007010906245E4F0A3F053F4F343FE0C53BE
:1026240090F312134CE5C654804449F5C6E59E5414
:102634007F644970F8906185740FF09007D3E0F4DB
:102644007002A3E0602C7508017509009007D3E0BF
:102654007808121984E508F4FAA3E0600814600A03
:1026640014600C800DEA52808008EA52908003EADC
:1026740052A079007F02021B0674F7121A5AE9FE6F
:10268400EAFF74016E700C7A807B00900637E0F9E3
:102694001205D29029A0E493F46008E493F912118E
:1026A40018800953C680E59E547F70FA1213529025
:1026B40007D5E06401700312114E9007D3E0F47063
:1026C40002A3E0602A7508017509009007D3E07839
:1026D40008121984AA08A3E0600814600A14600CA4
:1026E400800DEA42808008EA42908003EA42A01208
:1026F40012D48A088B09A808A909E8496017E5E1FA
:1027040070FCE82414F582E93400F583E0F874FFE2
:1027140068600288E174016F700A7A01900637E0FC
:10272400F912064A02267874F1121A5A8A088B0999
:102734008C0A8D0B908F347808121841740F12197B
:10274400E2780C121867908F34780C1218417808CC
:10275400790C121679908F2850107808790C121879
:102764001978081216994014800E780C79081218FA
:1027740019780C12169950047901800279007F08A7
:10278400021B0674ED121A5A8A088B098C0A8D0BE7
:10279400908F34780812184174131219E2780C12CD
:1027A4001867908F34780C121841780C7908121637
:1027B4007940117808790C121819AA08AB09AC0AE7
:1027C400AD0B802275100075110075120075130190
:1027D4007810790C121819781079081217E0AA10D9
:1027E400AB11AC12AD137F0C021B06908F3478082A
:1027F4001218678A828B8378081218547F04021B8C
:102804000674F5121A5A8C828D8378081218678A16
:10281400828B83780812182D122859C3E098F0A3EC
:10282400E09912284B401E908F6078081218678A2E
:10283400828B8378081218068E828F83E02420F01E
:10284400A3E0344EF080A4F08E828F83C3E0942002
:10285400A3E0944E22EA2404F8EB3400F9E8FEE9FC
:10286400FF8C828D83A3A3A3A3E0F8A3E0F98E8257
:102874008F832274F5121A5AE9FE90078DE0FAA3A9
:10288400E0FBEEC333F8E433F9749F28F582748EC9
:1028940039F583E02AF508A3E03BF5097808121C12
:1028A40001908F6412188512246C74021219AD8A77
:1028B400088B098C0A8D0B741078081217A8AA08C3
:1028C400AB097F04021B0674F1121A5A8A0C8B0D91
:1028D4008C0E8D0F740F1219E2E0FAA3E0FB741151
:1028E4001219E2E0F508A3E0F5097808121C01EAE0
:1028F4002401F508EB3400F509E4F50AF50B780C2E
:1029040079081216B8908F847808121867780C79B1
:10291400081216B8AA0CAB0DAC0EAD0F12246C74D1
:10292400021219AD8B09EA450960047A0180027A22
:1029340000EC2AFCED3400FD74131219E2E0F8A354
:10294400E0F9E8FEE9FFECF8EDF97A717B0212197F
:102954000C88088909E4F50AF50B8E828F837808C0
:10296400121876ECF8EDF97A717B0212190C8A08C8
:102974008B09740578081219848E828F83A3A3A30C
:10298400A3E508F0A3E509F07F08021B06C082C096
:0B29940083E9906000F0D083D0822225
:1029A000FFFFFFFFFFFFFFFF74EE1219EE74FA1234
:1029B00019978A0A8B0B8909ECFEEDFF75080085D3
:1029C0000A0C850B0D780C121C45000410812CF1AB
:1029D00029122A312A522A732A942AC72AE82AFF5E
:1029E0002A2D2BEB2B0C2C2C2C562C812C812C588B
:1029F0002B7401650970158E828F83E0C394035098
:102A00000B8E828F83E0900CCAF080037508180249
:102A10002CAA7402650970138E828F83E0F8A3E0FC
:102A2000F9900CCBE8F0A3E9F08003750818022CAC
:102A3000AA7401650970158E828F83E0C3940250D9
:102A40000B8E828F83E090033BF0800375081802A1
:102A50002CAA7401650970158E828F83E0C39405DA
:102A6000500B8E828F83E090033CF0800375081832
:102A7000022CAA7401650970158E828F83E0C394BD
:102A800002500B8E828F83E090033DF08003750827
:102A900018022CAA741065097027750C10750D00AA
:102AA000780C121C01EEFCEFFD7A3E7B0312057ED2
:102AB00074021219AD8A0C8B0D850C82850D8380F2
:102AC00003750818022CAA7401650970158E828F8F
:102AD00083E0C39402500B8E828F83E090034EF00C
:102AE0008003750818022CAA74016509700B8E8288
:102AF0008F83E0900CCEF08003750818022CAA7426
:102B00000465097022908F64780C1218678E828F8A
:102B100083780C121689500F8E828F83121885903D
:102B200003501218918003750818022CAAE5097049
:102B300021120C86E970131207EEE9F50C79501298
:102B4000098CE9F50D1207DC800B9003E37401F0AA
:102B50008003750818022CAA740765096003022B0C
:102B6000E5750E06750F00780E121C018E828F839C
:102B7000A3AC82AD8374021219E2AA82AB83120560
:102B80008474021219AD8A108B1185100E85110FF5
:102B90007C007D00851882851983AA82AB838E8292
:102BA0008F83E0F912077CE9F50CE50CC3940A5019
:102BB0002F120C86E97015A90C1207F4E9F50D79AE
:102BC0005012098CE9F50E1207DC801C750D00749B
:102BD000E4250CF5827403350DF5837401F080084B
:102BE0007508028003750818022CAA740165097023
:102BF000158E828F83E0C39402500B8E828F83E008
:102C000090034FF08003750818022CAA740165091F
:102C100070158E828F83E0C3940A500B8E828F834F
:102C2000E0900CCDF08003750818807E7401650972
:102C3000701F8E828F83E0C3940740158E828F832E
:102C4000E0C39411500B8E828F83E0900CCFF08004
:102C50005975081880547401650970209003E2E0EA
:102C6000F50C8E828F83E09003E2F0E50C703B90D0
:102C700003E2E0640170331207DC802E75081880CF
:102C800029C3E50A9427E50B9400501B74026509DB
:102C900070158E828F83E0FCA3E0FDAA0AAB0B12B5
:102CA0000B24E9F5088003750802A90874061219B7
:102CB000AD7F0A021AC074EC1219EE74DA12199779
:102CC000890D8A128B138C0A8D0B743A1219E2E06B
:102CD000F50C908EEEC082C083851882851983AC76
:102CE00082AD83D083D08274061218AA851882859B
:102CF0001983AC82AD83AA12AB13A90D12077CE92C
:102D0000FEEEC3940A4003022E55EEF91207BEE907
:102D1000FF900CCAE064027004740180027400F534
:102D2000087808121C05AD0CEFFCEEF9AA0AAB0BF3
:102D300012083074011219AD7C147D0079007412F0
:102D40001219E2AA82AB831205968A0E8B0F850EAA
:102D500008850F0974121219E2AC82AD837A1075DE
:102D6000F006EEA42424F9120986E970437C107958
:102D7000FF74121219E2AA82AB831205F6E97030D1
:102D800074221219E2AC82AD837A0475F006EEA4C7
:102D90002425F9120986E9F50874121219E2AC82A9
:102DA000AD83EFA2E0E433F9AA0AAB0B120BAEE954
:102DB00074061219E2AC82AD837A0C74702EF9128B
:102DC0000986E9707E74061219E2AA82AB831207A3
:102DD000B2750E00E50EC394045068E50EA80E7996
:102DE00000E875F003A4C8AAF075F000A42AFA75EB
:102DF000F003E9A42AF974061219E2E58228F5081D
:102E0000E58339F509850882850983E0F8A3E0F9AF
:102E1000E849602B850882850983A3A3E0F5107536
:102E200011007810121C01850882850983E0FCA33B
:102E3000E0FDAA0AAB0B120E6074021219ADE9058F
:102E40000E8091EFA2E1500D90033AE0F9AA0AAB8F
:102E50000B120E66E97404650C700F900CCAE064E6
:102E6000027007AA0AAB0B12082A790074261219FD
:102E7000AD7F0C021AC074F21219EE890BEAFEEB58
:102E8000FF8C088D09750A0AE50B600C14600914A3
:102E90006044146064022F1AEEFAEFFB1207D0E9C7
:102EA000F50AE50AC3940A5071E5084509606B7597
:102EB0000C06750D00780C121C01EEFCEFFDAA0843
:102EC000AB0912057E74021219AD8A0C8B0D850CAC
:102ED00082850D838044EEFAEFFB1207CAE9F50AFA
:102EE000E50AC3940A5033E5084509602DAA08ABEA
:102EF00009A90A1207C4E98021EEFAEFFB1207D6EE
:102F0000E9F50AE50AC3940A5010E5084509600A84
:102F1000AA08AB09A90A1207C4E9A90A7F06021A7E
:102F2000C074F21219EE8A0C8B0DE9FE7F1574FF46
:102F3000650C700474FF650D702A750800E508C300
:102F4000940A5014EEFC7A027B00A9081207A0E94B
:102F500060027F00050880E5EE60637A187B081246
:102F60001058805AAA0CAB0D12103A8A0A8B0B85A6
:102F70000A08850B09E508450960417C007D00E5EC
:102F8000082405FAE5093400FB850882850983A336
:102F9000A3A3A3E0F912077CE9F50AE50AC3940AA2
:102FA000500EEEFC7A027B00A90A1207A0E97F000E
:102FB000EE600BAA08AB0912081880027F14EFF923
:102FC0007F06021AC074EE1219EE8A0E8B0F8C0A5D
:102FD0008D0B74121219E2E0F50CA3E0F50D7508E3
:102FE0001574FF650E700474FF650F701E7E00EE91
:102FF000C3940A5062AC0CAD0DAA0AAB0BEEF912E9
:1030000007A6E960037508000E80E4AA0EAB0F1254
:10301000103A8A108B11AE10AF11EE4F60367C0063
:103020007D00EE2405FAEF3400FB8E828F83A3A38C
:10303000A3A3E0F912077CE9F509E509C3940A5056
:1030400016AC0CAD0DAA0AAB0BA9091207A6E975BF
:1030500008008003750814A9087F0A021AC074F7D3
:103060001219EEEAFEEBFF900354EEF0A3EFF0909E
:10307000033AE0FC7D007A267B00120B24E9F50878
:1030800090033AE0F9120DE27F01021AC074EE12C9
:1030900019EE8A108B11E9FE74121219E2780C12E3
:1030A00018677F00EE7041850C08850D09850E0AB2
:1030B000850F0B908F64780C1218677808790C12C2
:1030C00017387810121C01AA0CAB0DAC0EAD0F1204
:1030D0000BC074021219ADE9FFEF60167901AA1056
:1030E000AB11120BBAE9800AEEF9AA10AB11120B60
:1030F000BAE9EFF97F0A021AC074F21219EE74EC01
:103100001219978A0A8B0B850A82850B83A3A3E089
:1031100024FA700302355924FD70030233CF147072
:10312000030231EC14601024FD7003023377147035
:103130000302340F0235C7AE0AAF0B900354E0F818
:10314000A3E0F9E8496069900354E0F8A3E0F5834F
:103150008882E0F8A3E0F9E8496055EE240CF58296
:10316000EF3400F583E0F5087808121C05EE240B17
:10317000F582EF3400F583E0F98E828F83A3A3A359
:10318000A3A3A3A3A3A3E0FCA3E0FDEE2403FAEF13
:103190003400FB900354E0F8A3E0F5838882E0F864
:1031A000A3E0F58388821219EC74011219AD8039FD
:1031B0008E828F83A3A3A3A3A3A3A3A3A3121C18EC
:1031C000900350121885120BC074021219ADE960F9
:1031D0001879018E828F83A3A3A3A3A3A3A3A3A380
:1031E000E0FAA3E0FB120BBAE90235C7AE0AAF0B57
:1031F0008E828F83A3E060030233258E828F83A3A8
:10320000A3A3A3A3E0A2E040030233259003EEE0D2
:10321000F8A3E0F9E84960030233257C0E7D0079CC
:1032200000851882851983AA82AB831205968A08C5
:103230008B09AA08AB09EE240CF582EF3400F58364
:10324000E0F8A3E0F9E849603B75080675090078E5
:1032500008121C01EE240CF582EF3400F583E02403
:1032600010FCA3E03400FD74021219E2AA82AB83C1
:1032700012057E74021219AD8A088B0985088285B1
:10328000098380548E828F83A3A3A3E0FAA3E0FB7B
:1032900012103A8A0C8B0D850C08850D09E508453E
:1032A000096032750C06750D00780C121C01E508DA
:1032B0002405FCE5093400FD74021219E2AA82AB70
:1032C0008312057E74021219AD8A0C8B0D850C8257
:1032D000850D8380030235C78E828F83A3A3A3A3AA
:1032E000A3E0A2E25004D2F08002C2F0A2F0E433E4
:1032F000F87900740C1219E2E048F0A3E049F0EE0E
:10330000FCEFFD851882851983AA82AB831207B86A
:10331000E970127A027B0090033AE0F91205D2E9D3
:1033200079000235C9900354E0F8A3E0F9E8496058
:1033300043900354E0F8A3E0F5838882A3A3E0F868
:10334000A3E0F9E849602D8E828F83A3E0FC790128
:103350008E828F83A3A3A3E0FAA3E0FB900354E043
:10336000F8A3E0F5838882A3A3E0F8A3E0F58388BF
:10337000821219EC0235C7AE0AAF0B900354E0F885
:10338000A3E0F9E8496045900354E0F8A3E0F58331
:103390008882A3A3E0F8A3E0F9E849602F850A82B8
:1033A000850B83A3E0FC79028E828F83A3A3A3E025
:1033B000FAA3E0FB900354E0F8A3E0F5838882A32E
:1033C000A3E0F8A3E0F58388821219EC0235C7AEBA
:1033D0000AAF0B7C007D00EE2404FAEF3400FB8E74
:1033E000828F83A3A3A3E0F912077CE9F508E5081F
:1033F000C3940A5017EE240AFCEF3400FD7A0475DA
:10340000F006E508A42425F9120980E90235C7AEC3
:103410000AAF0B90034FE06018900CCDE0F98E825C
:103420008F83A3A3A3E0FAA3E0FB120BBAE9023552
:10343000C7900CCAE0701579058E828F83A3A3A371
:10344000E0FAA3E0FB120BBAE90235C78E828F8344
:10345000A3A3A3E0FAA3E0FB12103A8A0C8B0D851C
:103460000C08850D098E828F83A3A3A3A3A3A3A316
:10347000E0A2E05075E5084509606C850882850981
:1034800083A3A3A3A3E060628E828F83A3A3A3A3DD
:10349000A3A3A3A3A3E0F8A3E0F9E8C4540FF87929
:1034A000005401F8E95400F9E8A2E0403D740E121E
:1034B00019E2AC82AD83E5082405FAE5093400FB86
:1034C000850882850983A3A3A3A3E0F912077CE9F9
:1034D000701879038E828F83A3A3A3E0FAA3E0FB85
:1034E000120BBAE90235C70235C7EE2405FCEF34EA
:1034F00000FD850882850983A3A3A3A3E0F98E823A
:103500008F83A3A3A3E0FAA3E0FB12082490035443
:10351000E0F8A3E0F9E849603E900354E0F8A3E046
:10352000F5838882A3A3E0F8A3E0F9E84960287C4A
:103530000079008E828F83A3A3A3E0FAA3E0FB901F
:103540000354E0F8A3E0F5838882A3A3E0F8A3E0A6
:10355000F58388821219EC806E120C86E9706890EF
:1035600003E3E06401701A1207EEE9FE9003E374CE
:1035700000F07C0A7D0079007AE47B0312059680D6
:103580003C7E00EEC3940A50348E0875090074E442
:103590002508F58274033509F583E06401701BEE9C
:1035A000F91207F4E9F88E0875090074E42508F5A6
:1035B0008274033509F5837400F00E80C6795012C9
:1035C000098CE9FE1207DC790174141219AD7F062B
:1035D000021AC074F31219EE74F21219978909EAEB
:1035E000FEEBFF8C0C851882851983AC82AD837A43
:1035F0000E75F006E509A42420F9120986E9707217
:103600007C0679FF851882851983AA82AB8312050F
:10361000F6E9705E740C1219E2E0F8A3E0F9E8F53F
:1036200008E50C6005EE42088004EEF452088508B7
:103630000A750B00740C1219E2E0650A7004A3E02D
:10364000650B602AE508A8087900740C1219E2E5F8
:1036500008F0A3E9F0851882851983AC82AD837ADE
:103660000E75F006E509A42420F9120980E9790114
:1036700080027900740E1219AD7F05021AC074F031
:103680001219EE74E6121997890B8A0C8B0DECFE59
:10369000EDFF740C1219E2AC82AD837A0E75F00660
:1036A000E50BA42420F9120986E960030237E27CC5
:1036B0000679FF740C1219E2AA82AB831205F6E9AF
:1036C00060030237E2851882851983AC82AD837A64
:1036D0000C7470250BF9120986E960030237DE7558
:1036E0000A00851882851983AA82AB831207B2E586
:1036F0000C450D703A7C0C7900851882851983AAD7
:1037000082AB831205F6E960030237B87C0C7D00BA
:103710007900851882851983AA82AB831205968A5F
:10372000088B09850882850983750A010237B885E7
:103730001882851983AC82AD83AA0CAB0D1207AC3D
:103740008A0E8B0F850E08850F09E508450970362E
:10375000EE4F6021851882851983AC82AD837A0093
:103760007B001207AC8A0E8B0FA80EA90F88088960
:1037700009E84970047900806B850882850983E532
:103780000CF0A3E50DF0850882850983A3A3E0F87A
:103790007900EE687002EF69601EEE850882850987
:1037A00083A3A3F0EE4F700D850882850983740012
:1037B000F0A37400F0750A01E50A6022851882857D
:1037C0001983AA82AB831207B2851882851983AC4C
:1037D00082AD837A0C7470250BF9120980E97901A6
:1037E00080027900741A1219AD7F08021AC074F7AA
:1037F0001219EEEAFEEBFF7B00EBC39404504EEB94
:10380000F87900E875F003A4C8AAF075F000A42ABE
:10381000FA75F003E9A42AF9EC28F582ED39F5836D
:10382000E06E7003A3E06F7021EBF87900E875F0AB
:1038300003A4C8AAF075F000A42AFA75F003E9A45D
:103840002AF9EC28FAED39FB80070B80AC7A007B73
:10385000007F01021AC074F71219EE7F00EFC394C3
:10386000044003023905EFF87900E875F003A4C8B5
:10387000ACF075F000A42CFC75F003E9A42CF9EA77
:1038800028F582EB39F583E0F4FCA3E0F4FDEFF8D2
:103890007900E875F003A4C8AEF075F000A42EFE20
:1038A00075F003E9A42EF9EA28F582EB39F583ECEB
:1038B000F0A3EDF0EFF87900E875F003A4C8ACF0E0
:1038C00075F000A42CFC75F003E9A42CF9EA28F5A6
:1038D00082EB39F583A3A3E0F4C0E0EFF87900E8C8
:1038E00075F003A4C8ACF075F000A42CFC75F003CF
:1038F000E9A42CF9EA28F582EB39F583A3A3D0E0FB
:10390000F00F02385D7F01021AC074F01219EE74D4
:10391000F4121997EAFEEBFF8C088D099003EEE094
:10392000F8A3E0F9E849702CEE4F6006E508450978
:1039300070057901023BC2EEFAEFFB1207D0E99065
:103940000CD0F0900CD0E0C3940A40081207E2E9D2
:10395000900CD0F0900CD0E0C3940A4003023BC01E
:103960009003EEE0F8A3E0F9E8496003023A0CEEB8
:10397000FCEFFD7A0E75F006900CD0E0A42420F93F
:10398000120980E9F50C7C0C7D0079FF8518828591
:103990001983AA82AB831205968A0E8B0F850E0AB5
:1039A000850F0B851882851983AC82AD837A0C90C4
:1039B0000CD0E02470F9120980E9F50D750E0E7532
:1039C0000F00780E121C01EEFCEFFD900CD0E0F819
:1039D0007900E875F00EA4C8AAF075F000A42AFAE0
:1039E00075F00EE9A42AF9745628FA740339FB120B
:1039F000057E74021219AD8A0E8B0FA80EA90F90C6
:103A000003EEE508F0A3E509F0023BBC9003EEE00D
:103A1000F8A3E0C82406F582E83400F583E0F8A3B3
:103A2000E0F9E84960439003EEE0F8A3E0C824061B
:103A3000F582E83400F583E0FCA3E0FD7A1B75F025
:103A400006900CD0E0A42421F9120980E9F8900333
:103A5000EEE0F9A3E0C92406F582E93400F58374A9
:103A600000F0A37400F0023BBC9003EEE0F8A3E08A
:103A7000C8240AF582E83400F583E0F8A3E0F9E809
:103A80004960439003EEE0F8A3E0C8240AF582E819
:103A90003400F583E0FCA3E0FD7A1B75F006900C82
:103AA000D0E0A42422F9120980E9F89003EEE0F9AD
:103AB000A3E0C9240AF582E93400F5837400F0A379
:103AC0007400F0023BBC9003EEE0F8A3E0C8240CC5
:103AD000F582E83400F583E0F8A3E0F9E8496043B3
:103AE0009003EEE0F8A3E0C8240CF582E83400F57A
:103AF00083E0FCA3E0FD7A1075F006900CD0E0A402
:103B00002423F9120980E9F89003EEE0F9A3E0C953
:103B1000240CF582E93400F5837400F0A37400F0FE
:103B2000023BBC9003EEE0F8A3E0C82408F582E86D
:103B30003400F583E0F8A3E0F9E849606F9003EE04
:103B4000E0F8A3E0C82408F582E83400F583E0FC3F
:103B5000A3E0FD7A1075F006900CD0E0A42424F9BF
:103B6000120980E9F50A9003EEE0F8A3E0C8240802
:103B7000F582E83400F583E02410FCA3E03400FD76
:103B80007A0475F006900CD0E0A42425F91209807F
:103B9000E9F89003EEE0F9A3E0C92408F582E934DE
:103BA00000F5837400F0A37400F080109003E2E04D
:103BB000600312083612081E79018006790080021F
:103BC0007901740C1219AD7F08021AC074F712192A
:103BD000EE74F2121997E9FE851882851983AC827A
:103BE000AD837A0E75F006A42420F9120986E970D7
:103BF0000E740C1219E2E0F8A3E0F9E8F9800279FA
:103C000000740E1219AD7F01021AC074F41219EE7D
:103C100074F21219978909EAFEEBFFE509C3940AC9
:103C20005004EE4F70047902804B85188285198309
:103C3000AC82AD837A0E75F006E509A42420F91252
:103C40000986E9F508E508702A750A06750B0078FB
:103C50000A121C0174021219E2AC82AD83EEFAEF73
:103C6000FB12057E74021219AD8A0A8B0B850A823B
:103C7000850B83A908740E1219AD7F04021AC07453
:103C8000F41219EEEAFEEBFF750800E508C3940A8A
:103C90005045750A06750B00780A121C01EEFCEF00
:103CA000FDE508A8087900E875F00EA4C8AAF0752B
:103CB000F000A42AFA75F00EE9A42AF9745C28FA37
:103CC000740339FB12059074021219ADE96004A95E
:103CD000088006050880B4790A7F04021AC074F4CB
:103CE0001219EEEAFEEBFF750800E508C3940A50CE
:103CF00045750A06750B00780A121C01EEFCEFFDF3
:103D0000E508A8087900E875F00EA4C8AAF075F0D7
:103D100000A42AFA75F00EE9A42AF9745628FA7458
:103D20000339FB12059074021219ADE96004A90869
:103D30008006050880B4790A7F04021AC074F7125D
:103D400019EE74F0121997EAFEEBFF750800E5080A
:103D5000C3940A504B851882851983AC82AD837A4F
:103D60001075F006E508A42423F9120986E9702CE1
:103D70007C1079FF851882851983AA82AB8312058E
:103D8000F6E97018EEFCEFFD851882851983AA828A
:103D9000AB83120B90E97004A9088006050880AE79
:103DA000790A74101219AD7F01021AC074F4121945
:103DB000EE750800E508C3940A4003023E8EE5084C
:103DC000A8087900E875F00EA4C8AAF075F000A460
:103DD0002AFA75F00EE9A42AF9745628FC740339FE
:103DE000FD7A0E75F006E508A42420F9120986E98B
:103DF0007003023E897C067D0079FFE508AA087BF6
:103E000000EA75F00EA4CAA8F075F000A428F875B1
:103E1000F00EEBA428FB74562AFA74033BFB120540
:103E2000968A0A8B0BAE0AAF0B7C067D0079FFE504
:103E300008AA087B00EA75F00EA4CAA8F075F00085
:103E4000A428F875F00EEBA428FB745C2AFA74031E
:103E50003BFB1205968A0A8B0BAC0AAD0BE508A852
:103E6000087900E875F00EA4C8AAF075F000A42A3D
:103E7000FA75F00EE9A42AF9746228F58274033900
:103E8000F5837400F0A37400F00508023DB49003BC
:103E9000E2E0600312083612081E7F04021AC074A2
:103EA000F71219EE7E00EEC3940A50327C0679FFB9
:103EB000EEFA7B00EA75F00EA4CAA8F075F000A433
:103EC00028F875F00EEBA428FB74562AFA74033B0D
:103ED000FB1205F6E96004EEF980050E80C8790A48
:103EE0007F01021AC074F71219EE7E007F00EFC343
:103EF000940A502F7C0679FFEFFA7B00EA75F00EEA
:103F0000A4CAA8F075F000A428F875F00EEBA42858
:103F1000FB74562AFA74033BFB1205F6E970010E96
:103F20000F80CBEEF97F01021AC074F71219EE7EF2
:103F3000007F00EFC3940A500DEE700AEFF91207EC
:103F4000F4E9FE0F80EDEEF97F01021AC074F01261
:103F500019EE74CB1219978909900CD0E06509709D
:103F60001D7A017B0090033AE0F91205D8E97A0244
:103F70007B0090033AE0F91205D8E9120842742751
:103F80001219E2AC82AD837A0E75F006E509A4241D
:103F900020F9120986E960030240B97C0679FF74B2
:103FA000271219E2AA82AB831205F6E960030240E8
:103FB000B97C0E7D0079FF74271219E2AA82AB83C7
:103FC0001205968A0A8B0B850A0C850B0D7C1B7DCE
:103FD0000079FF740C1219E2AA82AB831205968A4B
:103FE0000E8B0F850E0A850F0B7C0C7D0079FF85EB
:103FF0001882851983AA82AB831205968A0E8B0FCD
:10400000AE0EAF0F74271219E2AC82AD837A0E7533
:10401000F006E509A42420F9120980E9F508740CDA
:104020001219E2AC82AD837A1B75F006E509A4246F
:1040300021F9120980E94208740C1219E2AC82AD30
:10404000837A1B75F006E509A42422F9120980E998
:104050004208740C1219E2AC82AD837A1075F00636
:10406000E509A42423F9120980E94208740C121905
:10407000E2AC82AD837A1075F006E509A42424F938
:10408000120980E94208740C1219E2AC82AD837AFD
:104090000475F006E509A42425F9120980E942080F
:1040A000851882851983AC82AD837A0C74702509DA
:1040B000F9120980E942088003750800A9087435DF
:1040C0001219AD7F08021AC074F71219EEE9FE90BA
:1040D000033AF01207DC7F01021AC074F21219EEE3
:1040E000890AEAFEEBFFEE5400F8EF5480F9E84944
:1040F000603590033AE0F91205BA8A0C8B0DA80CD2
:10410000A90D88088909E8496012AA08AB091208B4
:1041100006E96008AA08AB091205A8E9EE6400FAEE
:10412000EF6480FB0241DFEE5402602D7C007D00D5
:104130007A007B001207B8E960187A017B009003CF
:104140003AE0F91205D2E9EE6402FAEF6400FB02EC
:1041500041DF7A027B000241DFEEA2E0507D900356
:10416000EEE0F8A3E0F5838882A3A3A3E0FAA3E03E
:10417000FB12083CE9605E900354E0F8A3E0F9E824
:10418000496045900354E0F8A3E0F5838882A3A337
:10419000E0F8A3E0F9E849602F7C0079019003EE94
:1041A000E0F8A3E0F5838882A3A3A3E0FAA3E0FBF1
:1041B000900354E0F8A3E0F5838882A3A3E0F8A37A
:1041C000E0F58388821219EC120842EE6401FAEFDE
:1041D0006400FB800A7A017B0080047A007B007F08
:1041E00006021AC074F71219EEEAFEEBFF75080119
:1041F0008E828F83E02450601314601924E1701CB8
:10420000EEFAEFFB12079AE9F5088010EEFAEFFBE1
:1042100012080C8007EEFAEFFB120812A9087F01C2
:10422000021AC074F71219EEEAFEEBFF8E828F833A
:10423000A3A3A3A3E0641E701179008E828F83A3D1
:10424000A3E0FAA3E0FB120782E97F01021AC0741F
:10425000F61219EEEAFEEBFF8E828F83A3A3A3A3CF
:10426000E0703A8E088F09850882850983A3A3A38D
:10427000A3A3A3A3121C18850882850983A3A3A363
:10428000A3A3E0FCA3E0FD850882850983A3A3E046
:10429000FAA3E0FB12078874021219ADE97F02024B
:1042A0001AC074F71219EEEAFEEBFF90033AE0F938
:1042B0008E828F83A3E0FAA3E0FB120E66E97F01F2
:1042C000021AC0C082C08374FF1219971207E8E96E
:1042D000C39402400B8518828519837402F080090B
:1042E000851882851983740AF0851882851983AC34
:1042F00082AD837A017905120C9EE974011219AD21
:10430000D083D08202013574F21219EE74E81219CA
:1043100097EAFEEBFF890A8C088D097C187D0079ED
:1043200000851882851983AA82AB831205968A0CB0
:104330008B0DAC0CAD0D851882851983EEF0A3EFC3
:10434000F090033CE0C0E074021219E2D0E0F0907B
:10435000033DE0C0E074031219E2D0E0F0900CCF0E
:10436000E0C0E074171219E2D0E0F074151219E2FF
:10437000E054FEF8A3E054FFF9900CCEE0A2E0E494
:1043800033FA7B00E84AF8E94BF974151219E2E8B0
:10439000F0A3E9F0900CCEE0A2E15004D2F080024C
:1043A000C2F074151219E2E054FDFAA3E054FFFBC9
:1043B000A2F0E433F87900C333F8E933F9EA48F8B6
:1043C000EB49F974151219E2E8F0A3E9F0900CCE6C
:1043D000E0A2E35004D2F08002C2F074151219E298
:1043E000E054F7FAA3E054FFFBA2F0E433F50C75B8
:1043F0000D007403780C121984EA450CF8EB450D96
:10440000F974151219E2E8F0A3E9F0900CCEE0A2DD
:10441000E45004D2F08002C2F074151219E2E054A4
:10442000EFFAA3E054FFFBA2F0E433F50C750D00A6
:104430007404780C121984EA450CF8EB450DF974F4
:10444000151219E2E8F0A3E9F0900CCEE0A2E550D5
:1044500004D2F08002C2F074151219E2E054DFFABF
:10446000A3E054FFFBA2F0E433F50C750D007405D6
:10447000780C121984EA450CF8EB450DF974151205
:1044800019E2E8F0A3E9F0900CCEE0A2E25004D2E9
:10449000F08002C2F074151219E2E054FBFAA3E0B6
:1044A00054FFFBA2F0E433F50C750D007402780C98
:1044B000121984EA450CF8EB450DF974151219E24E
:1044C000E8F0A3E9F090033DE0602A750C10750D4B
:1044D00000780C121C017C3E7D0374061219E2AABE
:1044E00082AB8312057E74021219AD8A0C8B0D8586
:1044F0000C82850D8390034EE06012E50A600E7415
:10450000151219E2E04402F0A3E04400F090034EDB
:10451000E060067801790080047800790074141254
:1045200019E2E048F090033BE060067804790080EF
:10453000047800790074141219E2E048F0AC08AD78
:1045400009851882851983AA82AB83120BB4E9749A
:10455000181219AD7F06021AC074F71219EEEAFE9E
:10456000EBFF75080090034EE0600678017900804B
:104570000478007900E8420890033BE06006780484
:104580007900800478007900E84208A908EEFAEF83
:10459000FB120C6EE97F01021AC074EE1219EE7460
:1045A000E51219978A0C8B0DE9FF8C088D09742D83
:1045B0001219E2E0F50A74086509700A75F006EF51
:1045C000A42422FE800875F006EFA42421FE7C1BA3
:1045D0007D007900851882851983AA82AB83120534
:1045E000968A108B1185100E85110F8518828519FA
:1045F00083AC82AD837A1BEEF9120986E9703C74B4
:104600001A1219E2E0C394074031741A1219E2E059
:10461000C394115026E50AF50B780B121C057401A2
:104620001219E2AC82AD83E508A2E0E433F9AA0CEA
:10463000AB0D120BC674011219ADE9741B1219AD42
:104640007F0A021AC074F71219EE120ED8E97E0022
:10465000EEC3940A50557C0679FFEEFA7B00EA75AA
:10466000F00EA4CAA8F075F000A428F875F00EEBBF
:10467000A428FB74562AFA74033BFB1205F6E97072
:1046800027EEF87900E875F00EA4C8AAF075F000DE
:10469000A42AFA75F00EE9A42AF9745628FA7403CC
:1046A00039FB7900120EDEE90E80A57F01021AC0E7
:1046B00074F61219EE74FD121997EAFEEBFF9003DF
:1046C000F0E0F8A3E0F9E84970397508F2750903DC
:1046D0007808121C017508027509007808121C017F
:1046E0007508FE75098F7808121C017CFF7DFF7A22
:1046F000017B00120D2E74061219AD9003F0EAF042
:10470000A3EBF09003F0E0F8A3E0F9E849700302AE
:1047100047D1E4F508F5097808121C017404121950
:10472000E28582088583097808121C017404121935
:10473000E28582088583097808121C019003F21231
:104740001C1879029003F0E0FCA3E0FDEEFAEFFB09
:10475000120E5474081219ADE9704A851882851931
:1047600083E0FA7B0074011219E2E0F87900E4C8F2
:10477000F9EA28F508EB39F509E5084509602678D6
:1047800008121C019003F0E0F8A3E0F5838882A3EF
:10479000A3A3A3E0FCA3E0FDEEFAEFFB12078874ED
:1047A000021219ADE9E4F508F5097808121C019028
:1047B00003F2121C187CFF7DFF9003F0E0FAA3E0E7
:1047C000FB120D3A74041219AD9003F0EAF0A3EB5A
:1047D000F09003F0E0F8A3E0F9E849700479018073
:1047E00002790074031219AD7F02021AC0C082C0A0
:1047F000839003EEE0F8A3E0F9E84960179003EE38
:10480000E0FAA3E0FB1205A8E9F89003EE7400F0CB
:10481000A37400F0900CD0740AF0D083D08202010F
:1048200035C082C083E9900DBEF0024A4B74F71286
:1048300019EEE9900577F07CAF7D057AFF7BFF12DA
:104840000E6C90057874FFF0A3F0A3E4F0A3F07968
:1048500005120DFA900577E0F9120D167A847B0E99
:104860001210287F01021AC074F41219EE8A088B04
:1048700009EB54806030900577E0F91205BA8A0A96
:104880008B0BAE0AAF0BEE4F60138E828F83E0640A
:10489000B07003120E0CEEFAEFFB1205A8AA08E5A1
:1048A000096480FB80047A007B00024A1A74F212C9
:1048B00019EE74FC121997EAFEEBFFEE4F603874A4
:1048C000021219E2EEF0A3EF124C7FECF0A3ED120E
:1048D0004C7FAA82AB83120D10E9F5087073741235
:1048E0001219E2125833E50A450B60658E828F83F8
:1048F00012495BEE4F700575080280557A067B0001
:104900001206328A0C8B0DA80CA90DE849700575AA
:104910000813803D88828983E4124965A3A3EEF0E1
:10492000A3EF125CCCE50AF0A3E50BF090057D1235
:1049300049ED90057D6017E0FCA3E08003EAFCEB05
:10494000FD8C828D831249ED70F38C828D8312571A
:1049500058A90874041219AD025ECEA3A3A3A3E064
:10496000FEA3E0FF22F0A3F0888289832274F21272
:1049700019EE890AE975F017A4FEAFF090057CE402
:10498000F090057A1249ED600A12063890057AE433
:10499000F0A3F0EEFAEFFB1206328A088B09EA4523
:1049A00009602FEEFCEFFD790012059690057AE57F
:1049B00008F0A3E509F07B0080081249D7E4F0A3D2
:1049C000F00BEBC3950A40F2E50A90057CF0790004
:1049D00080027913025ECEEB75F017A4F8A9F0906F
:1049E000057AE028FAA3E0398A82F583221254EE90
:1049F000EA4B2274F41219EE7900EAA2E0501B751A
:104A000008E275098E7808121C017C047D007AC0CA
:104A10007B0D120DF474021219AD7F04021AC0C08E
:104A200082C08390057D124A52601C88828983A3CC
:104A3000A3E06A7003A3E06B8882898370E8A3A374
:104A4000A3A31254EA80047A007B00D083D08202B0
:104A50000135125FA1E8492274EE1219EE74FC12BE
:104A60001997EAFEEBFF851882851983E4F0A3F01D
:104A7000EE240212573CEE2405124C6DEE2404F590
:104A80000EEF125052E024FE603924FC604624FEF2
:104A9000605224FE605E24FE7003024B7224FE709E
:104AA00003024BEA24FE7003024BF924FE7003025A
:104AB0004C0824FC7003024C1724FE7003024C26A1
:104AC000024C639005967417F0A3E4124C87120A07
:104AD0000A024C63851882851983AC82AD83120E5D
:104AE00012024C33851882851983AC82AD83120E75
:104AF00018024C33850C08850D0974021219E2ACBA
:104B000082AD838508828509831254EA120D348AA6
:104B10000C8B0DAC0CAD0DEC4D6042E4F50CF50DBD
:104B2000780C121C01750C96750D05780C121C0181
:104B3000750C97750D05780C121C0174081219E29A
:104B4000121C1879161254E4120E5474081219AD7E
:104B5000E9F50C700B1254E0120A22800F750C015B
:104B6000850882850983124C75125758850C0802F6
:104B70004C3674021219E2AC82AD83850C82850D2D
:104B8000831254EA120D348A108B11AC10AD11EC63
:104B90004D6043850C82850D83A3A3121C187510EC
:104BA000967511057810121C01751097751105780E
:104BB00010121C0174081219E2121C1879161254F2
:104BC000E4120E5474081219ADE9F509700B125471
:104BD000E0120A28800F750901850C82850D831269
:104BE0004C75125758850908804C851882851983A1
:104BF000AC82AD83120E1E803A851882851983AC73
:104C000082AD83120E24802B851882851983AC8295
:104C1000AD83120E2A801C851882851983AC82AD63
:104C200083120E30800D851882851983AC82AD8386
:104C3000120E36E9F508E50860298E828F83A3E01D
:104C40006414601F850E82850F83E0900596124CD8
:104C50007F125F9D900597125758E508A3124C8765
:104C6000120A04EEFAEFFB120DB8025644F50CEFEF
:104C70003400F50D22125FA185188285198322F078
:104C800085188285198322F07C967D05850A8285A8
:104C90000B831254EE2274EE1219EE74FC12199763
:104CA0008A0A8B0B8C0E8D0FEA2405F508EB340075
:104CB000F5097C157D0079007A967B05120596E54D
:104CC000082402F50CE509124C70851882851983B9
:104CD0008582108583117810121C01850882850950
:104CE00083A3A3A3A312519A121C01E5082405F57E
:104CF00010E5093400F5117810121C01850C82852D
:104D00000D831254F4120D2E74061219AD8A108BF5
:104D100011AE10AF11E50A2402F50AE50B12573F58
:104D2000EE4F7003024E5C801774021219E21254A7
:104D3000EA88828983EAF0A3EBF0900596E004F01C
:104D4000900596E0C394054003024E5CE4F510F52F
:104D5000117810121C0175107F7511057810121C46
:104D6000017510807511057810121C017406121956
:104D7000E2121C187910EEFCEFFD1254E4120E54EE
:104D800074081219ADE9705E850882850983A3A3B2
:104D9000A3A3A3A3A3E0F890057FE0687048125195
:104DA0009A121C017C807D05E5082408FAE5093487
:104DB00000FB12059074021219ADE960298E828FF2
:104DC00083A3A3A3A31254EA900596E0F5107402FE
:104DD000781012198474972510F58274053511F531
:104DE00083EAF0A3EBF074021219E2858210858346
:104DF000117810121C0174021219E2121C18850C91
:104E000082850D83125FB2120D3A74041219AD8AB5
:104E1000108B11AE10AF11900596E0F510751100D2
:104E20007402781012198474962510F874053511DF
:104E3000F988828983A31249ED7003024D20E8248A
:104E400003F8E93400F9EE4F6003024D29888289A6
:104E50008374FFF0A3F0900596E004F0900596E0CF
:104E6000600A1254E0120A167900800B85088285C8
:104E7000098312574F790A02564474EA1219EE74E4
:104E8000FE1219978C128D13EA2405F50CEB125FB4
:104E9000BC12495F750800750900EA2402F510EBA1
:104EA0003400F51185188285198385820A85830B64
:104EB000780A121C01850C82850D83A3A3A3A3127B
:104EC000505C121C01E50C2405F50AE50D12573F54
:104ED000780A121C01850C82850D83125FB0120DB9
:104EE0002E74061219AD8A0A8B0BEA450B70030269
:104EF000500DEA2404F50EEB12505212495F8A82DB
:104F00008B83A3A3A3E0F98510828511831254EA51
:104F1000120D1CE9F509600302500DE4F514F515B6
:104F20007814121C0175147F7515057814121C0174
:104F30007514807515057814121C0174061219E297
:104F4000121C187913AC0AAD0B85108285118312DF
:104F500054EA120E5474081219ADE9F509600302FF
:104F6000500D90057FE0F8E5087009E024029005F7
:104F700097F08017900597E0FCE82402FAE43400EB
:104F8000FBEA6C7001EB6003025011850882AA8273
:104F900012519194141251895073850E82850F839A
:104FA000E0C0E074982A125049D0E0F00508850E60
:104FB00082850F83A3E0C0E085080A7498250A1251
:104FC0005049D0E0F0050890057F12505C121C019A
:104FD0007C807D0585080A7498250AFA74053400DA
:104FE000FB12057E74021219AD90057FE02508F5CD
:104FF0000874FF6E700374FF6F6012EE24010EEFF1
:105000003400FFE508C394145003024EA4E5086081
:10501000131253D58510828511831254EA120A1C8B
:1050200079008014E509700375090A8512828513D9
:1050300083EEF0A3EFF0A90974021219AD7F0E02FE
:105040001AC085080C7498250CF58274053400F597
:1050500083223400F50F850E82F58322125CDF2255
:1050600074EE1219EE74FE1219978C0E8D0FEA244D
:1050700005F50CEB124C70750B00900596E4F0F5FD
:105080000AEA2402F508EB3400F5098049900596F8
:10509000E0FA90057FE0F81251919417125189407F
:1050A0000D900596E0F87416C39890057FF01251A4
:1050B0009A121C017C807D0574972AFA74053400CD
:1050C000FB12057E74021219AD90057FE0F8900581
:1050D00096E028F0050AE50C2416F582E50D12503D
:1050E0004DE0F8E50AC3984003025172900596E03E
:1050F000C39416507DE50AC333F8E433F9E50C2870
:10510000FEE50D39FF851882851983AC82AD838E4B
:10511000828F831254EA120D348A108B11AC10ADB9
:1051200011EC4D7005750B018043E4F510F5117815
:1051300010121C0175107F7511057810121C017575
:1051400010807511057810121C0174061219E212F4
:105150001C1879168508828509831254EA120E54A8
:1051600074081219ADE9F50B700302508D12574BFC
:1051700080107C967D058508828509831254EA1289
:105180000A2EA90B7402025646E99400C365D03377
:1051900022EA28F8E43400F9E822E0F5107511005D
:1051A00078102274EA1219EE74FC1219978A0C8B8B
:1051B0000D8C128D13EA2405F50AEB12573F750882
:1051C00000750900E50A2402F510E50B3400F5111D
:1051D00074021219E285820E85830F780E121C016B
:1051E000850A82850B83A3A3A3A3125C8B121C01E7
:1051F000E50A2405F50EE50B3400F50F780E121CB8
:10520000018510828511831257451254E4120D2E28
:1052100074061219AD8A0E8B0FAE0EAF0FE50C247B
:1052200002F50EE50D3400F50F8040888289837405
:10523000FFF0050812504274FFF0050890057FE06A
:10524000F50C750D00780C121C017C807D0585081D
:105250000C7498250CFA74053400FB12057E740258
:105260001219AD90057FE02508F508EE4F60718EAC
:10527000828F83A3A3A3E0F9850E82850F83125446
:10528000EA120D1CE9F509EE2404124C6DE9704494
:10529000E4F514F5157814121C0175147F751505C5
:1052A0007814121C017514807515057814121C01F0
:1052B00074081219E2121C187911EEFCEFFD850E2C
:1052C00082850F831254EA120E5474081219ADE944
:1052D000F5096027850C82850D831253CB12575830
:1052E000E50870030253B11253D5850E82850F83F2
:1052F0001254EA120A3479000253C6850882AA823F
:10530000EA90057F7009E02404900597F08022E080
:10531000F8900597E0F514E82404FCE43400FDEC73
:1053200065147001ED70C0125191941212518950A0
:10533000B6850C82850D83E0C0E074982A1250492E
:10534000D0E0F00508850C82850D83A3E0C0E01253
:105350005042D0E01253E785820C85830D780C1201
:105360001C0174041219E2121C1885108285118325
:10537000125FB2120D3A74041219AD8A0C8B0DAE85
:105380000CAF0D85080C7498250CF874053400F9E1
:10539000EE4F700302522B851882851983E08882B4
:1053A00089831253E7A3E0C0E0125042D0E00252DA
:1053B00039E509700375090A850A82850B83125342
:1053C000CB125758A909740402503A125FA18512F2
:1053D0008285138322900597E0F5F0E50884900517
:1053E00096F07C967D0522F0050885188285198344
:1053F0002274EC1219EE74FE1219978A088B098C2C
:105400000E8D0FEA2405FEEB3400FF851882851906
:1054100083AC82AD838E828F831254EA120D348A5C
:105420000A8B0BEE2418124C6DEA450B70030254E4
:10543000BB12562D50328518828519831254EA12F8
:105440000E488A108B11EA4511606B7912AC0AADD7
:105450000B8508828509831254EA851082851183A1
:105460001219ECE9F50A7058E4F50AF50B780A12FE
:105470001C018E828F83A3A3E0F50A780A121C0117
:10548000EE240312573C780A121C018E828F83127D
:1054900054F4120E5A74061219ADE9F50A702185FA
:1054A0000C82850D83E0701F850882850983125464
:1054B000EA120A3A8011750A0E8009750A01800401
:1054C000E50A600312574B850C82850D83E060046A
:1054D00079008002A90A74021219AD7F0C021AC069
:1054E0007C967D05850A82850B831254EE22E0FAB4
:1054F000A3E0FB22E0FCA3E0FD850882850983127E
:1055000054EE2274EE1219EE74FE1219978A088B6B
:10551000098C0C8D0DEA2405FEEB3400FF750E009E
:10552000851882851983AC82AD838E828F83125455
:10553000EA120D348A0A8B0BEA450B7003025619E6
:1055400012562D50358518828519831254EA120E91
:10555000488A0E8B0FEA450F605E7912AC0AAD0BDC
:105560008508828509831254EA850E82850F83128D
:1055700019ECE9F50E600302561C85088285098343
:10558000125833AA0AFB120E3C8A108B11A810A9DC
:1055900011E849701E7AFF7BFF120E3C8A108B11B6
:1055A000A810A911E849606C88828983E50AF0A3F4
:1055B000E50BF0750A008007750E0E805F050A90F6
:1055C000057CE0FAE50AC39A504AE50A75F017A48B
:1055D000FAABF088828983A3A3E02AFAA3E03BFB1D
:1055E0008A828B83125745EC4D70D2750A17750B62
:1055F00000780A121C01EEFCEFFD12057E74021207
:1056000019ADEEFCEFFD8508828509831254EA127C
:105610000A408014750E098003750E01125F99858A
:105620000C82850D83125758A90E025184E5082477
:1056300002F508E5093400F5098A828B83A3A3A348
:10564000E0A2E52274041219AD7F0A021AC074ECBC
:105650001219EE8C108D11EA2405F50CEB124C702A
:10566000750F00EA2402F50AEB12573F850A82F50E
:10567000831254EA120E3C8A088B09EA450970032A
:10568000025731750E008071850C82850D83E064B0
:1056900001704F8E828F83A3A3121C188E828F837A
:1056A000A3A3A3A3E0F5127513007812121C01EE58
:1056B0002405F512EF3400F5137812121C01125470
:1056C000E4120E5A74061219ADE9F50F6014850C38
:1056D00082850D83E4F0125F998510828511831213
:1056E00057587C177D007900EEFAEFFB1205968E75
:1056F000828F83E4F0A3F0050E90057CE0F8E50EC0
:10570000C398501EE50E75F017A4F8A9F08508821D
:10571000850983A3A3125FC6125745EC4D600302AF
:10572000568885088285098374FFF0A3F0E50F7021
:10573000061254E4120A46A90F0254DBF50AEF34AC
:1057400000F50B22A3E0FCA3E0FD228E828F8312E2
:105750005FA1850E82850F83E8F0A3E9F022C08265
:10576000C083900578E06A7003A3E06B70067A78D6
:105770007B0580047A007B00024A4BC082C083789C
:10578000008C828D83E06A7003A3E06B7010E87573
:10579000F003A4F8A9F0EC28FAED39FB8015088C89
:1057A000828D83A3A3A3E06A7003A3E06B60DF7A1A
:1057B000007B00024A4B74F61219EE120E068A8222
:1057C0008B83E582458370067A007B008007A3A364
:1057D000A3A31254EA025E4A74F21219EEE9FE74AF
:1057E0000E1219E212583374101219E2125CAB8CCB
:1057F000828D83E064027036A3125FA7F50CA3E0EC
:10580000F9A80C74026870037429697021750C0280
:10581000750D00780C121C017808121C01780A1210
:105820001C01EEF9120E7E74061219AD8002790188
:10583000025ECEE0F50AA3E0F50B2274E81219EE41
:1058400074FB121997E9851882851983F08A168BE3
:1058500017ECFEEDFF751000741D1219E2125F9D2A
:10586000741D1219E21257588E828F83A3A3A3E0EE
:10587000A2E4502D741D1219E21254EA120E488A45
:10588000828B83E58245837003025C7C790AEEFC9F
:10589000EFFDAA16AB171219ECE9F5106003025CD4
:1058A0007F741F1219E2125CAB74211219E21258B4
:1058B0003374231219E2E0F50EA3E0F50F8E828F08
:1058C00083E064026003025C2AA3125F9D85088264
:1058D000850983A3858212858313EE2406124C6DFD
:1058E00088828983E0FAA3E0F9EA2400F514E43918
:1058F000F5157814121C8B0100002801281F590788
:10590000000228E4590328515900291B5B0129464C
:105910005B0229E75A03291B5B0429C55B2A5CE566
:105920000E450F6003025C25850C82850D83125C99
:10593000A0FAE9FB8A828B83E0850A82850B8312B9
:105940005CD6121C018A828B83A3E0FCA3E0025B7D
:10595000AFE50E450F6003025C25850A82850B8347
:105960007401F0125CB3850882850983F07C007DA8
:10597000008E828F83A3A3A3A3E02401FAA3E034C3
:1059800000FB120D34EA4B60418A828B83E02402D3
:10599000F8850A82850B83E028F0EA2404F8EB34CA
:1059A00000F988828983E0851282851383125CE87E
:1059B000125CD6121C018A828B83125744E508249C
:1059C00003FAE5093400FB025BB4850A82850B8388
:1059D000E02404F07C047D007900AA12AB131205C8
:1059E00096025C7FE50E450F6003025C25125CB3F6
:1059F000FEA3E0FF850A82850B837404F0EE850820
:105A000082850983F0EF851282851383F074031277
:105A100019E2AC82AD83EEFAEFFB120D348A0C8BE7
:105A20000DEA450D7003025AC88A828B83A3A31224
:105A3000495B74011219E285820E85830F780E127C
:105A40001C0174051219E2121C187CFF7DFF120D57
:105A50003A74041219AD8B0FEA450F7033850C822E
:105A6000850D83125C8B121C01850C82850D83A32E
:105A7000121C187C027D007AC27B8F120B187404F2
:105A80001219ADE9700A74011219E274FFF0A3F063
:105A90008E828F83E064027039750C02750D007878
:105AA0000C121C018E828F83125744E5082404FADD
:105AB000E5093400FB12057E74021219AD850A82D5
:105AC000850B83E02402800974011219E2EEF0A331
:105AD000EFF074011219E2125C9CF074011219E2E9
:105AE000A3125C94025C1FE50E450F6003025C2567
:105AF000850C82850D83125745AA16AB17120E72BC
:105B0000850A82850B837402F0EA85088285098301
:105B1000F0851282851383EB025C22E50E450F604F
:105B200003025C25125CB3F8A3E0F9850A82850BB9
:105B3000837402F0E8850882850983F0E985128282
