:020000040000FA
:0600000002011D02244F65
:03002B00021D0CA7
:03003300021CE1CB
:030053000224C2C2
:03006B00021CB6BE
:100083000222BBE5C754F84401F5C77901220000F9
:100093000080FB120086B90003020107E47921788E
:1000A30008B800028004F709D8FCE479297802B87B
:1000B30000028004F709D8FCE490028178A3790850
:1000C3008002F0A3D8FCD9FA781A90014D7A01BACC
:1000D30000028007E493A3F608DAF9900A23AA82C0
:1000E300AB8390014E78EE79038015E493A3AC8241
:1000F300AD838A828B83F0A3AA82AB838C828D83A8
:10010300D8E9D9E77582967583FF740112012F75BB
:100113008291758300740012012F75D00075813FA1
:10012300751881751902759F00020096C09FF59F8F
:10013300E473D09F22D083D082C09FE493C0E07445
:100143000193C0E0740293F59F2201FFFF1101990F
:10015300010F12640401023B82010000108202239A
:10016300820100002A0A025F820100002B0A022595
:1001730082030000A6020233820100002C0A080950
:1001830043474D2053696D02010505021F180A18E4
:1001930043474D2053696D756C61746F72000000A5
:1001A30000000000000080000059E8033412000042
:1001B30000000000000000D007EC00A800AF05001D
:1001C300001002020A0202002828023B82010000FA
:1001D3001982022382010000990A0257820000005B
:1001E3004603022582CC0000400302238201000063
:1001F3009A0A025582440000470302238201000049
:100203009B0A02518244000048030223820100003A
:100213009C0A024F82CC00004903022382010000A2
:100223009D0A024B824400009E0A022382010000C1
:10023300A00A024982CC00005003022582CC0000B0
:100243004A03022382010000A10A024782CC000074
:100253005703022582CC000051030202020202026C
:10026300020202010D0000001001023B82010000A6
:100273001C82022382010000320B02418201000032
:100283005803022382010000330B023F8201000066
:100293006581022382010000340B023D82010000CC
:1002A3005E81022382010000350B0261820100009E
:1002B3000C82022382010000360B02398201000006
:1002C300FC81022382010000370B02378201000008
:1002D3000082022382010000380B023582010000F4
:1002E3000482022382010000390B025382010000C1
:1002F30042810223820100003A0B025D8201000069
:100303003B0B01E803053F100AFF000130750302B0
:1003130001060000000000000000000000000000D3
:100323000000000000000000000000000000FFFFCC
:100333000600800CE803FF0000B40000280028003A
:10034300283075A000A000A000A00000080008E06D
:1003530001F00010001000100010001000100050F9
:10036300005000500010001000D0070000000000F3
:10037300000F000100050030750700100001008127
:10038300FF00000000FF490B670B4F0BFF02020247
:1003930008025000A0000000E803023B82010000B5
:1003A3001682022382010000650C022782010000ED
:1003B3005405022382010000660C02298201000019
:1003C3006A05022382010000670C022B82010000F0
:1003D3006C05022382010000680C022D82080000D4
:1003E3006D05022382010000690C022F82010000C7
:1003F3006A0CFFFF0100FF20023B82010000138211
:10040300022382010000CF0C0231820000000000B1
:10041300022582030000FC055B115B115B115B117C
:100423005B115B115B115B115B115B115B115B1169
:100433005B11EF130714E913120138959A031201A4
:1004430038AA9A03120138029B03120138699B03ED
:10045300120138B19B03120138279C03120138564D
:100463009C03120138649C03120138C89C031201D7
:1004730038069D03120138219D03120138B99D03EB
:10048300120138629E03120138E59E031201381EE1
:100493009F03120138A99F0312013800A003120120
:1004A300385FA00312013871A00312013897A0032B
:1004B300120138A0A003120138FFA103120138630F
:1004C300FE03120138E3F802120138C2F9021201E5
:1004D300381EFA0212013838FA0212013849FA02B8
:1004E30012013844FD0212013864FD021201382A58
:1004F300EE031201386FEE03120138B5EE03120159
:100503003848F003120138EAFC0312013805FD03F1
:1005130012013815FD031201386CFD03120138581E
:10052300F90112013878F9011201387CFA0112013C
:1005330038C8FA01120138E8FA011201383BFB010D
:10054300120138A8FB01120138EEFB0112013852E7
:10055300FC0112013804FF0112013885FF01120169
:1005630038ACF803120138DCF8031201380CF90334
:1005730012013866F90312013810DD031201384500
:10058300DD0312013834DE0312013818DF031201D0
:1005930038882B00120138842D00120138272E00D1
:1005A3001201386D2E00120138002F00120138A0FD
:1005B30031001201381D3300120138933300120148
:1005C30038C43300120138BE35001201380E36002C
:1005D300120138D93A001201380E3B0012013830AB
:1005E3003B00120138323E00120138673E0012010F
:1005F300383C4200120138EC4200120138764600C2
:100603001201382849001201383F4900120138907D
:10061300FF03120138A1FF03120138D29203120122
:10062300383B93031201384E93031201389F93030F
:10063300120138FE93031201385D94031201380747
:1006430096031201382C9A031201387F9A03120180
:1006530038FAB5031201381FB6031201385AB6032C
:1006630012013806FF031201389A4A00120138A812
:100673004D00120138684F00120138135000120167
:1006830038B750001201385051001201387F510021
:10069300120138EB5100120138C5560012013870AF
:1006A3005700120138E0580012013848590012016E
:1006B30038FC5900120138BE5C00120138FD5C00A1
:1006C300120138715D00120138D05D001201382F1C
:1006D3005E001201389E5E00120138915F00120124
:1006E30038D75F001201381C60001201383F6000E8
:1006F300120138BA6100120138CD6100120138D6F7
:1007030062001201381563001201384163001201BF
:1007130038946300120138B56300120138F963009D
:100723001201384B66001201388C6600120138370B
:100733006700120138A26700120138DF6800120156
:1007430038EBFB03120138FCFB03120138DAFC031C
:1007530012013881EB031201381CEE03120138DC5D
:100763007F0012013874F70312013884F703120172
:10077300389EF703120138A6F8031201381BE3036E
:10078300120138C1E303120138DDE5031201388B8E
:10079300F203120138BBF2031201382BF3031201E7
:1007A300384FF303120138ABF30312013826F40375
:1007B30012013863F40312013866F403120138F0AE
:1007C300BA0312013812BB03120138A7BB0312018B
:1007D3003897BC03120138F4BE0312013854BF0327
:1007E300120138BDBF03120138F87F00120138D45B
:1007F300E803120138CBEA0312013837EB03120185
:10080300387EEB031201388CF003120138F5F00344
:10081300120138B3F10312013832F203120138C75F
:10082300D103120138F9D10312013801D3031201A4
:100833003826D403120138E2D403120138008003AE
:10084300120138E68003120138338103120138762E
:100853008103120138EB81031201384C8203120128
:1008630038C182031201389D8303120138A884031F
:10087300120138298503120138D086031201386624
:100883008703120138D987031201385588031201EF
:10089300386C8803120138A38903120138FD8903D8
:1008A3001201381BC701120138B3CB01120138877B
:1008B300CE01120138B0CE01120138D9CE01120196
:1008C300388BCF0112013871D101120138ACD2013A
:1008D300120138E2D7011201381BD8011201385F27
:1008E300D80112013871D901120138F4FA03120147
:1008F300380AFB0312013839FB031201386FFB037B
:1009030012013886FB03120138BDFB03120138D4F0
:10091300FB03120138227E00120138397E001201D6
:10092300386A7E00120138A57E00120138CF7E009E
:10093300120138F97E00120138107F0012013827A6
:100943007F001201383E7F00120138677F001201D9
:10095300387A7F00120138907F00120138A37F009C
:10096300120138CA7F00120138E3E102120138E7AD
:10097300E20212013814E3021201386AE30212019F
:10098300388DE302120138A1E302120138A3E30216
:10099300120138C6E302120138CCE4021201389086
:1009A300E50212013865E602120138E0E60212019F
:1009B30038E3E6021201386BE702120138A6E702B8
:1009C300120138DDE7021201386BE80212013844E4
:1009D300E90212013847E902120138A7E9021201BC
:1009E30038B2E90212013831EA0212013834EA025C
:1009F30012013837EA021201383AEA02120138C901
:100A0300EA02120138D3EA02120138E3EA021201C0
:100A13003813EB0212013820EB0212013823EB02E8
:100A2300120138A4EB0212013892EC02120138448D
:100A3300ED02120138DBBF0312013803C0031201B8
:100A43003831C00312013868C003120138C6C0032D
:100A530012013811C1031201385CC1031201389C21
:100A6300C103120138E2C10312013810C20312019B
:100A730038CDC203120138D7C203120138E4C203CE
:100A830012013817C303120138E3C303120138EF0D
:100A9300C30312013807C40312013811C40312013E
:100AA3003815FF0212013823FF021201383BFF02FF
:100AB30012013853FF02120138008002120138ACD0
:100AC3008002120138278102120138488202120182
:100AD300388482021201382D8302120138148402F1
:100AE300120138788502120138CF8502120138507D
:100AF30086021201384087021201388D87021201E3
:100B030038138802120138458802120138598A02C3
:100B13001201389B8A02120138B98A021201383C49
:100B23008B02120138108C02120138D88C02120188
:100B330038B0A90312013883AA031201382CAB037E
:100B43001201387FAB031201382FAC03120138BBFB
:100B5300AC03120138A7AD03120138D6AD0312015D
:100B630038E9AE0312013831AF0312013806B0037E
:100B730012013842B0031201385EB003120138008B
:100B8300800412013877D9031201388DD903120179
:100B930038B3D903120138CFDA03120138D9DA0393
:100BA3001201380EDC0312013806DD03120138D3BB
:100BB300B00312013803B20312013836B203120133
:100BC3003880B20312013847B403120138F18E02A0
:100BD300120138758F02120138BE8F02120138A537
:100BE30091021201385E93021201383A9402120103
:100BF30038EE94021201382B9802120138D9980268
:100C0300120138489A02120138DA9B021201381293
:100C13009C02120138AF9C0212013831DA01120131
:100C2300389BDA01120138FADB011201380ADC01C0
:100C330012013837DC011201388EDC01120138371A
:100C4300DD011201383EDE0112013808DF01120115
:100C53003868E001120138ABE00112013850E101BC
:100C63001201389DE101120138C3E101120138D1AB
:100C7300E301120138D6E301120138DBE501120169
:100C83003828E6011201389BE601120138CEE6014D
:100C930012013870E70112013819E80112013851C5
:100CA300E80112013854E8011201389CE8011201ED
:100CB30038DCE80112013833E901120138F8E503A1
:100CC3001201380BE60312013819E60312013861E9
:100CD300E60312013877E603120138BEE603120178
:100CE30038D2E7031201385FE803120138AAE80398
:100CF300120138648201120138708201120138AB8B
:100D03008201120138F08201120138B0830112010D
:100D1300383684011201386284011201389B840140
:100D2300120138D98601120138BD8801120138A396
:100D33008A01120138E68B01120138348E01120147
:100D430038468F01120138919001120138A19101A7
:100D5300120138BE9101120138F991011201381BB9
:100D630092011201387E92011201383F970112015C
:100D730038D497011201382598011201384C980193
:100D83001201389E9801120138BC980112013816DD
:100D93009901120138159A01120138999A01120129
:100DA3003898C403120138A2C403120138E5C403FE
:100DB30012013800C50312013890C503120138B877
:100DC300C503120138F5C5031201382CC6031201FD
:100DD3003855C603120138CAC603120138DFC603E9
:100DE300120138F4C60312013825C703120138393A
:100DF300C7031201385EC70312013898C7031201F3
:100E030038C4C70312013847C80312013890C80316
:100E1300120138BAC803120138E5C803120138CEEB
:100E2300F90312013810D5021201383ED50212011E
:100E3300388CD6021201386CD7021201388BD702D4
:100E430012013808D8021201384BD802120138A116
:100E5300D90212013862DA02120138E9DC02120106
:100E6300388ADD0212013880DE021201387DDF028A
:100E7300120138D7E00212013862E1021201381977
:100E8300F60312013882F603120138D6F603120173
:100E930038FDF6031201382EF7031201380DC9038A
:100EA3001201387AC903120138C1C903120138D9B2
:100EB300CA03120138D5CB03120138B8CC0312018F
:100EC30038698A03120138AB8A031201387D8B0318
:100ED300120138568C03120138508D031201383237
:100EE3008E031201389B8E03120138518F031201B6
:100EF30038C58F031201383190031201385A900319
:100F0300120138D490031201386D9103120138D2C3
:100F13009103120138E791031201382D9203120154
:100F230038469203120138AB9203120138AE920392
:100F330012013822E0031201384AE0031201388813
:100F4300E00312013846E103120138ADE103120157
:100F530038C9E103120138F1E10312013821E20338
:100F630012013830E203120138ADE203120138D323
:100F7300E20312013820EA01120138FEEB011201EB
:100F83003830EE011201386CEE0112013899EE018E
:100F930012013883EF01120138CEEF011201381923
:100FA300F0011201382BF0011201386BF00112012C
:100FB30038A0F001120138EEF0011201381DF101E1
:100FC30012013840F1011201388DF101120138127A
:100FD300F2011201382CF4011201386BF6011201EF
:100FE30038ACF6011201384EF8011201388FF801BE
:100FF30012013802F901120138FBC702120138F954
:10100300C80212013892CF02120138B3D102120181
:10101300387ED302120138E6D402120138009B0154
:10102300120138AF9B01120138DC9B0112013822F7
:101033009C01120138629D01120138F89E011201D0
:1010430038729F011201388D9F0112013808A001E7
:1010530012013862A101120138C2A201120138C87B
:10106300A30112013829A50112013842A501120179
:1010730038A0A5011201388EA601120138C1A601BC
:1010830012013831A701120138ABA701120138F55B
:10109300A701120138BFA80112013894A901120156
:1010A3003873AA01120138FEAA011201386CAB0190
:1010B300120138E0AB011201380BAC01120138CA3E
:1010C300AC011201382FAE011201384CAE011201EE
:1010D300386BAE011201385CAF0112013881AF01E8
:1010E300120138ABAF0112013826B001120138806A
:1010F300B001120138E9B10112013897B2011201AE
:1011030038D8B20112013827BA0212013875BA026F
:1011130012013881BA021201385FBB021201389002
:10112300BB02120138C1BB0212013841BC021201D9
:101133003879BC02120138CBBC0212013808BD0257
:1011430012013825BF021201384BC1021201383691
:10115300C30212013820C5021201387D2B0012018F
:101163003808B30112013838B30112013811BA013A
:1011730012013896BB0112013893C1011201387B69
:10118300C201120138B8C201120138DBC2011201D7
:10119300380CC30112013815C3011201381FC301F2
:1011A3001201380DC40112013803C50112013813AD
:1011B3006900120138126D00120138186D00120116
:1011C300385374001201386C7900120138A9D50321
:1011D3001201383FD60312013855D603120138CB1A
:1011E300D6031201383FD7031201387DD70312010A
:1011F30038F1D7031201386AD80312013873D803C0
:101203001201387FD80312013894D803120138D25F
:10121300D803120138E8D80312013847D903120161
:10122300387ACD0312013887CD03120138A1CD03DB
:10123300120138E0CD031201381ECE0312013883A8
:10124300CE0312013898CE03120138A3CE03120144
:1012530038B0CE03120138C7CE03120138D5CE03FE
:10126300120138E0CE03120138ECCE03120138FB31
:10127300CE0312013806CF0312013829CF0312011E
:1012830038D0CF03120138E0CF03120138FACF036D
:1012930012013817D00312013833D0031201385822
:1012A300D00312013863D00312013878D00312013E
:1012B300388CD003120138EDD003120138F3D00378
:1012C300120138F9D003120138FFD0031201381785
:1012D300D1031201384AD103120138FDAB021201C6
:1012E3003881AC0212013830AD021201388FAE02E0
:1012F300120138B0B0021201389CB102120138D188
:10130300B102120138F3B102120138A2B202120182
:10131300389AB402120138C3B40212013855B50227
:1013230012013887B50212013894B502120138EB65
:10133300B50212013811B6021201387EB802120149
:101343003881B902120138D9B9021201388C9D02D1
:10135300120138969E021201387D9F0212013887CE
:101363009F02120138A99F02120138B59F02120190
:10137300384EA1021201387DA10212013899A2024E
:10138300120138F2A20212013858A40212013837AE
:10139300A50212013893A50212013800A602120118
:1013A300383BA6021201387AA60212013833A90289
:1013B3001201384DA902120138D9A902120138E7E6
:1013C300A90212013840AA021201384EAA021201E0
:1013D30038C1AA0212013825AB021201386FAB02E1
:1013E300120138B5ED02120138D7ED02120138FDB2
:1013F300EF0212013812F3021201382AF402120129
:1014030038DDF402120138BFF50212013874F40317
:1014130012013899F4031201380BF503120138361F
:10142300A2031201383FA20312013848A20312019A
:10143300381FA303120138D0A40312013806A503F1
:1014430012013840A50312013876A503120138B002
:10145300A503120138E4A50312013810A6031201F3
:101463003859A60312013893A603120138DCA603E8
:1014730012013834A70312013869A703120138C4D3
:10148300A703120138FEA7031201384FA803120164
:101493003885A803120138BFA803120138EDA80349
:1014A30012013810A903120138B8FD03120138E400
:1014B300FD031201383FFE0312013849FE031201F6
:1014C3003859FE03120138848004120138E1FF0306
:1014D300A2E792D65002F40430F70663F0FF05F05A
:1014E300B3400384800384F40430D60563F0FF051E
:1014F300F022E066701008A3E066700A08A3E066B5
:10150300700408A3E06622C008C3E096F50808A3A8
:10151300E096420808A3E096420808A3E096420832
:10152300A2D265D033E5087001D3D00822C3E79671
:101533000809E7960809E7960809E79622C3E096A3
:1015430008A3E09608A3E09608A3E09622C008C388
:10155300E096F50808A3E096420808A3E09642083F
:1015630008A3E09645087001D3D00822080808EACA
:10157300C0E0EBC0E086F0E7A4FA180986F0E7A420
:101583002AFA180986F0E7A42AFA180986F0E7A4CC
:101593002AFA1986F0E7A4FBE5F02AFA190886F07F
:1015A300E7A42BFBE5F03AFA190886F0E7A42BFB36
:1015B300E5F03AFA18180986F0E7A4C5F02BFBE426
:1015C3003AFA1908E7C5F0C6A426F6E5F03BFBE4B2
:1015D3003AFA1886F0E7A4F6E5F00826F6E43B08A5
:1015E300F6E43A08F6D0E0FBD0E0FA22E4CFC0E01C
:1015F300E4CEC0E0E4CDC0E0E4CCC0E075F020C3AD
:10160300E633F608E633F608E633F608E633F6186B
:101613001818EC33FCED33FDEE33FEEF33FFC3EC70
:101623009709ED9709EE9709EF97191919400FFFDD
:10163300EC97FC09ED97FD09EE97FE191906D5F015
:10164300BEECF709EDF709EEF709EFF7191919D011
:10165300E0FCD0E0FDD0E0FED0E0FF221216C71878
:1016630018181215EF1216B6191919221216B619EF
:101673001919080808E618181820E7E01215EF12E0
:1016830016C718181822090909E719191920E7DCE0
:10169300080808E618181820E7030215EF1216C702
:1016A3001818181215EF1216C71818181216B619AB
:1016B300191922E4C397F709E497F709E497F7099F
:1016C300E497F722E4C396F608E496F608E496F660
:1016D30008E496F6226016080808C6C313C618C69F
:1016E30013C618C613C618C613C6D5E0EA22700976
:1016F300080808226016181818C6C333C608C6336C
:10170300C608C633C608C633C6D5E0EA22E627F6BE
:101713000809E637F60809E637F60809E637F62238
:10172300E026F608A3E036F608A3E036F608A3E0C1
:1017330036F622E026F008A3E036F008A3E036F000
:1017430008A3E036F022C3E697F60809E697F60801
:1017530009E697F60809E697F622C3E0C696F60867
:10176300A3E0C696F608A3E0C696F608A3E0C696DD
:10177300F622C3E096F008A3E096F008A3E096F003
:1017830008A3E096F022E657F60809E657F608099B
:10179300E657F60809E657F622E056F608A3E056A0
:1017A300F608A3E056F608A3E056F622E056F00842
:1017B300A3E056F008A3E056F008A3E056F022E0B9
:1017C30046F008A3E046F008A3E046F008A3E0468D
:1017D300F022E0F608A3E0F608A3E0F608A3E0F69B
:1017E30022E6F008A3E6F008A3E6F008A3E6F02259
:1017F300E0FAA3E0FBA3E0FCA3E0FD22EAF0A3EB05
:10180300F0A3ECF0A3EDF022CAC0E0E6F0A308DAFF
:10181300FAD0E0FA22CAC0E0E0A3C582CCC582C5F3
:1018230083CDC583F0A3C582CCC582C583CDC583D3
:10183300DAE6D0E0CA22C3E498F8E499F912187AF8
:101843008026C3E49AFAE49BFBE920E7E912187ABD
:10185300E498F8E499F922C3E498F8E499F91218A2
:101863007AE498F8E499F9C3E49AFAE49BFB22EB4F
:1018730020E7CFE920E7E0B90010BB0008E88AF0D1
:1018830084F8AAF022E4FBC8FA22EB70227B10C88A
:1018930033C8C933C9335007C39AC3DBF280069AEE
:1018A30050012ADBEAC833F4C8C933F4C9FA2275F4
:1018B300F008E4C833C8C933C933C99AC99B500473
:1018C300C92AC93BD5F0ECFBC833F4C8E4C9FA22F2
:1018D300600D08C6A2E713C618C613C6D5E0F322E7
:1018E300600C08C6C313C618C613C6D5E0F422702D
:1018F3000422600D18C6C333C608C633C6D5E0F448
:101903001822251810AF08F518400215198008F59C
:101913001840021519D2AF22C0D0251810AF08F510
:1019230018500205198008F51850020519D2AFD0D6
:10193300D0222518F58210AF08F51840021519803A
:1019430008F51840021519D2AF851983222518F519
:1019530082E43519F58322E4732518C582C0E0E5D6
:101963001934FFC583C0E0E518C3958224F810AF8E
:10197300088583198582188008858319858218D282
:10198300AFCEF0A3E520F0A37808E608F0A3DEFAD3
:10199300EFF0A3E58124FAF8E608F0A3E608F0A344
:1019A300E608F0A30808E608F0A3E608F0A315810B
:1019B3001581D0E0FED0E0F8158115811581E8C0CE
:1019C300E0EEC0E0222518C582C0E0E51934FFC56A
:1019D30083C0E0E518C3958224F910AF0885831905
:1019E3008582188008858319858218D2AFCEF0A32B
:1019F300E520F0A37808E608F0A3DEFAEFF0A3E50C
:101A03008124FBF8E608F0A3E608F0A30808E6083B
:101A1300F0A3E608F0A315811581D0E0FED0E0F82D
:101A230015811581E8C0E0EEC0E022851983851891
:101A330082E0A3FEE0A3F5207808E0A3F608DFFA2E
:101A4300E0A3FFE0A3C0E0E0A3C0E0E0A3C0E0E0C8
:101A5300A3C0E0E0A3C0E010AF0885821885831916
:101A63008008858218858319D2AFD083D082020182
:101A730035851983851882E0A3FEE0A3F520780855
:101A8300E0A3F608DFFAE0A3FFE0A3C0E0E0A3C011
:101A9300E0E0A3C0E0E0A3C0E010AF0885821885B2
:101AA30083198008858218858319D2AFD083D082A9
:101AB30022C0D02518C582C0E0E51934FFC583C014
:101AC300E0E518C3958224F310AF08858319858256
:101AD300188008858319858218D2AFC8F0A3E9F06E
:101AE300A3EAF0A3EBF0A37908E709F0A3D8FAEC93
:101AF300F0A3EDF0A3EEF0A3EFF0A3D0E0F0A3D0BA
:101B0300E0F0A3D0E0F0A3E520F0A3E5F0F0A322FA
:101B1300851983851882E0C0E0A3E0F9A3E0FAA366
:101B2300E0FBA37808E0F608A3DFFAE0FCA3E0FDFE
:101B3300A3E0FEA3E0FFA3E0C0E0A3E0C0E0A3E0D6
:101B4300F5D0A3E0F520A3E0A3F5F010AF0885835B
:101B5300198582188008858319858218D2AFD082AF
:101B6300D083D0E0F8D0E03274048006740280029F
:101B73007401C0E0F404121935D0E012180B22747A
:101B830004800474028000CCC0E0EDC0E0E518C31B
:101B93009CCCAD1950011D10AF068C188D19800611
:101BA3008C188D19D2AF121818D0E0FDD0E0FC22AA
:101BB300D083D082E9C0E0E493A3C386F0C5F09557
:101BC300F0F908E493A386F0C5F095F0700BE49365
:101BD300A3C3994005E9048002A3E475F002A42598
:101BE30082F582E5F03583F583D0E0F9E493A3C071
:101BF300E0E493C0E022D083D082ECC0E0EDC0E00B
:101C0300E493A3FCE493A3FDED4C600D121C45EC9F
:101C130024FFFCED34FFFD80EFE493A3FCE493A3E6
:101C2300FDED4C600D121C84EC24FFFCED34FFFD34
:101C330080EFD0E0FDD0E0FCE493A3C0E0E493C0E8
:101C4300E022C0E0C3E49396087401939618400F12
:101C5300E49366700808740193661870007019A302
:101C6300A3C3E49396087401939618A3A3400DD0DD
:101C7300E0D0E0D0E0021C35A3A3A3A3A3A3D0E04C
:101C830022C0E0C0F088F0E4936670080874019302
:101C930066187000A8F0A3A3700BD0F0D0E0D0E0DA
:0C1CA300D0E0021C35A3A3D0F0D0E0225A
:101CB000C2AF02000022C0E074F2121AB4A2AFE474
:101CC00033FED2AFE589A2E150031207AD7589005A
:101CD000C2C5751A00EEF8EEA2E092AF7F01021BBA
:101CE00013C0E074F2121AB4A2AFE433FED2AFE52F
:101CF0008BA2E050031207AD758B00C2E8751A0085
:101D0000EEF8EEA2E092AF7F01021B13C0E0C0D05C
:101D1000E8C0E0E9C0E0A2AFE433F8D2AFC2C775D3
:101D20001A00E8F9E8A2E092AFD0E0F9D0E0F8D0EC
:101D3000D0D0E03274F51219C8EAFEEBFFEE24347D
:101D4000F8EF3400F988088909EE2435F582EF347C
:101D500000F583E0F8EE2437F582EF3400F583E0F8
:101D6000F50AEC850AF0A4FCAAF0850AF0EDA42A95
:101D7000FDE82CF8E43DF97A257B0012187AEA8513
:101D80000882850983F0F8740758F97401B90002D4
:101D90008004C333D9FCFAE8131313541FF8EE2858
:101DA000F8EF3400F9E8245DF582E93400F583E0CA
:101DB0005A6008EE2434F582EF802CEE2434F5824C
:101DC000EF3400F583E0C0E0EE2436F582EF340016
:101DD000F583E0F5F0D0E084A8F0EE28F8EF3400C9
:101DE000F9E82438F582E93400F583E0F97F04024C
:101DF0001A7474F51219C8EAFEEBFFEE2434F5826A
:101E0000EF3400F583E0C0E0EE2435F582EF3400D6
:101E1000F583D0E0F08E828F83A3A3A3A3A3A3A313
:101E2000C082C0838E828F83A3A3A3A3A3E0F8A361
:101E3000E0F9D083D082E0C398F508A3E099F509D2
:101E4000EE247FF582EF3400F583E064017069EEE3
:101E50002480F582EF3400F583E0F8A3E0F98E8268
:101E60008F83A3A3A3A3A3A3A3E0FCA3E0FD8E827F
:101E70008F83A3A3A3A3A3E0FAA3E0FBC3EA9CEB95
:101E80009D5010C3EC98ED99402EC3EA98EB995001
:101E900027800EC3EA98EB994007C3EC98ED994070
:101EA000177CBF7D07EEFAEFFB1210B9EE247FF529
:101EB00082EF3400F583E4F0EE2434F8EF3400F9D7
:101EC000E8FCE9FDEE2435F582EF3400F583E0F817
:101ED000EE2437F582EF3400F583E0F50AE5088556
:101EE0000AF0A4F508AAF0850AF0E509A42AF50984
:101EF000E82508F8E43509F97A257B0012187AEA12
:101F00008C828D83F0F8740758F97401B90002804F
:101F100004C333D9FCFAE8131313541FF8EE28F85E
:101F2000EF3400F9E8245DF582E93400F583E05AE6
:101F30006008EE2434F582EF802CEE2434F582EF35
:101F40003400F583E0C0E0EE2436F582EF3400F58E
:101F500083E0F5F0D0E084A8F0EE28F8EF3400F943
:101F6000E82438F582E93400F583E0F9122B6F029A
:101F70001DEDC082C083851882851983E0F8A3E037
:101F8000F9C3EA9CEB9D5010C3EC98ED99401BC33C
:101F9000EA98EB995014800EC3EA98EB994007C376
:101FA000EC98ED994004790180027900D083D082C9
:101FB00022EAC39CFAEB9DFB2274EF1219C890062B
:101FC00085E064086005E06407702A9061C8E060FD
:101FD000249006B3E0F4601DE0F875F003A4C8AAED
:101FE000F02AF974B528FE740639FF8E828F83A318
:101FF000A3A3E070030220E9906060E0C0E0EE245B
:1020000068F582EF3400F583D0E0F0750C28750D8B
:1020100008750800750900E5D914F50AE5D95403D7
:10202000F50E60177403650E605CE50A6010EE241F
:1020300067F582EF3400F583E070030220CE90084C
:1020400023E06401602AEE2482F582EF3400F583F8
:10205000E06004780480027800850A08E508C398E7
:10206000FA95E0FB120F878A088B09EA450970058B
:102070001212BD8074EE2482F582EF3400F583E005
:1020800070048A0C8B0DE50A6012850C82850D8325
:10209000F50BE5D9F0A3150BE50B70F6EE2482F5F0
:1020A00082EF3400F583E0604474FC250AF50A7879
:1020B0000C121B6FAC0AA90EEEFAEFFB121155744D
:1020C0000212191BE97026AA08AB0912080D793D06
:1020D0008E828F83A3A3A3A3E0FA7B00120E5BEE94
:1020E000FAEFFB1210D11211677900807474036546
:1020F0000E6056850A107511007810121B6FAC0C1B
:10210000AD0DAA08AB09121131740212191BEE248D
:1021100068F582EF3400F583E064807004747F809A
:1021200001E0F50C780C121B73E50EF50C780C121F
:102130001B73A90AAC08AD099006B3E0FA7B001244
:102140000E1F740212191B8013900685E06408604C
:102150000BAC0CAD0DEEFAEFFB1211C11212C979E6
:10216000017F0A021A7474F51219C874FC12190559
:10217000EAFEEBFF8908A2AFE433F509C2AF806A3B
:10218000EE2463F8EF3400F97A007B00A2AFE43369
:10219000F50AC2AF88828983E0FCA3E0FDEC4D60C4
:1021A0003A88828983E0FAA3E0FB8A828B83E0FC91
:1021B000A3E0FD88828983ECF0A3EDF08A828B8313
:1021C000E4F0A3F088828983E0FCA3E0FDEC4D708D
:1021D0000A88828983A3A3E4F0A3F0E50AA2E0922F
:1021E000AF12080D9007C6E004F0EE2463F582EF0D
:1021F0003400F583E0F8A3E0F9E849603DEE24639C
:10220000F582EF3400F583E02402FAA3E03400FB0A
:10221000EA2402F50AEB3400F50B780A121B6F8AE8
:10222000828B83E0FCA3E0F9EEFAEFFB1210F57469
:102230000212191BE970030221809007C6E0606357
:102240009007C7E0F89007C6E0C398500C74026589
:102250000870509007C8E0604A8E828F83A3A3A3C2
:10226000A3E0851882851983F0A3E4F09007C6E007
:10227000F87402121950E8F0A3E4F09007C6E0F8F1
:102280009007C5E028F07402121950AC82AD838526
:102290001882851983AA82AB837901120E2B9007CD
:1022A000C6E4F0E509A2E092AF740412191B021D06
:1022B000ED0000008521878522C622C0E0C0D0E85D
:1022C000C0E0E9C0E0EAC0E0EBC0E0ECC0E0EDC097
:1022D000E0EEC0E0C008C009C00AC00BC082C083E5
:1022E000C0F0A2AFE433FEC2AF759B00906182E004
:1022F000A2E05012E591A2E0500C7591FE740165C8
:10230000217003121FB9E0A2E55051E591A2E550FA
:102310004B7591DF900685E064076005E064087006
:102320002374016521703579019006B3E0FA75F0E8
:1023300003A4CAA8F028FB74B52AFA74063BFB1262
:1023400021668018E0640D70139006A7E004F06425
:10235000287002E4F07A00E0F91212CF906182E076
:10236000A2E64003022402E591A2E6400302240211
:102370007591BF900685E0640570081211F712127E
:102380000380031211FD75210012125DE99006868B
:10239000F0790012125112102F7A017B00900684FE
:1023A000E0F9120495907803E06442705590082794
:1023B000E014F0704DC2AF1223BA00782AD0E0F6D4
:1023C00018D0E0F6E59F540770057509FF80037586
:1023D000097FC4C0E07829E6F50808E65509F50943
:1023E000740B78081218E3D0E02508F8906270E0CA
:1023F000A2E740F8E8C333906272F0906270E0D2D6
:10240000E0F0906181E0A2E35009E5E9A2E3500326
:1024100075E9F7A3E0A2E75009E591A2E75003753B
:10242000917FEEA2E092AFD0F0D083D082D00BD0DB
:102430000AD009D008D0E0FED0E0FDD0E0FCD0E02A
:10244000FBD0E0FAD0E0F9D0E0F8D0D0D0E032C054
:10245000E0C0D0C082C083906183E0A2E05009E573
:10246000BFA2E0500375BFFEE0A2E15009E5BFA2A4
:10247000E1500375BFFDE0A2E25009E5BFA2E250C2
:102480000375BFFBE0A2E35009E5BFA2E35003756B
:10249000BFF7E0A2E45009E5BFA2E4500375BFEF27
:1024A000E0A2E55009E5BFA2E5500375BFDFE0A259
:1024B000E65009E5BFA2E6500375BFBFD083D082C6
:1024C0008088C0E0C0D0E8C0E0E9C0E0EAC0E0EB4E
:1024D000C0E0ECC0E0EDC0E0C0F0E5A7A2E6500F20
:1024E000E5A1A2E6500953A7BF75A1BF122527E5B4
:1024F000A7A2E5500CE5A1A2E5500653A7DF75A100
:10250000DFE5A7A2E15009E5A1A2E1500375A1FD15
:10251000E5A7A2E2500CE5A1A2E2500653A7FB7585
:10252000A1FBD0F002243874F81219C8752101906B
:102530000685E0640670151211858A828B83A3A339
:10254000A3A3A3A3E0FAA3E0FB1211E5A2AFE43337
:10255000FED2AF90068BE0640170187A207B009069
:102560000684E0F91205437A207B00900684E0F9A6
:1025700012049B906182E0D2E6F0900824E0602192
:1025800085C622801690068AE064017008E5C6546C
:10259000F84405F5C653BEFC1222B47401652160EF
:1025A000E4EEA2E092AF7F01021A74008E238F2422
:1025B000858228858327851882851983E0CEA3E04C
:1025C000CF852882852783EBC9EAC8EDCBECCA7595
:1025D000F010C3E833C8E933C9EA33CAEB33CBC3DD
:1025E000EA9EF526EB9FF525B35004AB25AA26EC11
:1025F00033CCED33CDD5F0DAAE23AF242274E9121B
:1026000019C874F8121905851882851983ECF0A38E
:10261000EDF08A088B09900685E024F7C3940550F5
:10262000067508010227941211858A0A8B0BAE0ADF
:10263000AF0BEE4F7003022791AC08AD0974021284
:102640001950AA82AB831212158E828F83A3A375B1
:102650000CFF750DFF750EFF750F00780C12179C9F
:1026600074021219507510FF7511FF7512FF751362
:1026700000781012179C780C7910121530502A78B7
:102680000C79101217497508017509C8750A00758B
:102690000B007808790C1215305052850C08850D06
:1026A00009850E0A850F0B80507514017515C875C4
:1026B000160075170085100885110985120A851303
:1026C0000B7808790C1217497814790812153040E4
:1026D0001C750800750900750A00750B01780879EA
:1026E000101217497808790C121710800C75080120
:1026F000750900750A00750B00740978081216F147
:10270000750C19F50DF50EF50F7808790C1215EF0B
:102710008E828F83A3A3A3A3A3A3E0F8A3E0F97AF7
:10272000D07B0312187A880C890DE4F50EF50F782A
:1027300008790C1217107406121950E0F8A3E0F98A
:102740007AD07B0312187AE8FA8A0CE4F50D78083F
:10275000790C12153050077808790C121749900639
:1027600085E06408600AE064066005E06405702D99
:10277000750C0D780C79081215304021750CF47524
:102780000DFF750EFF750FFF7808790C121710807A
:102790000C750800750900750A00750B0085188214
:1027A000851983E0F8A3E0F583888278081217E49E
:1027B000740812191B7F10021A7474F71219C812C8
:1027C0001227900822E064017010906245E4F0A3A3
:1027D000F053F4F343FE0C5390F31211D3E5C654B7
:1027E000804449F5C6E59E547F644970F890618540
:1027F000740FF0900820E0F47002A3E0604E90089F
:1028000021E0600814601B14602E8040750801757B
:102810000900900820E078081218F2E508F45280C8
:10282000802A750801750900900820E078081218C0
:10283000F2E508F4529080147508017509009008BB
:1028400020E078081218F2E508F452A079007F021F
:10285000021A7474F71219C8E9FEEAFF74016E7067
:102860000C7A807B00900684E0F9120495902B800E
:10287000E493F46008E493F9121023800953C680AE
:10288000E59E547F70FA1211D9900822E06401701D
:102890000312103B900820E0F47002A3E0604B901C
:1028A0000821E0600814601A14602C803D7508014E
:1028B000750900900820E078081218F2E5084280B7
:1028C0008028750801750900900820E07808121822
:1028D000F2E5084290801375080175090090082000
:1028E000E078081218F2E50842A0121227121185AA
:1028F0008A088B09A808A909E8496015E5E170FC78
:10290000E82414F582E93400F583E0F46003E0F58F
:10291000E174016F700A7A01900684E0F9120513E0
:1029200002284E74ED1219C88A088B098C0A8D0B87
:102930007413121950780C1217D57808790C1215E7
:10294000307510017511C87512007513005012789A
:1029500008790C1217497810790812153050168032
:1029600010780C79081217497810790C121530403C
:10297000047901800279007F0C021A7474ED121937
:10298000C88A088B098C0A8D0B7413121950780CA5
:102990001217D5780C790812153040117808790C87
:1029A000121749AA08AB09AC0AAD0B8022751000BA
:1029B0007511007512007513017810790C12174902
:1029C00078107908121710AA10AB11AC12AD138051
:1029D000A68A828B837508FF7509FF750AFF750B40
:1029E0000078081217AF7F04021A7474F51219C820
:1029F0008C828D8378081217D58A828B837808128F
:102A00001775EA2404F8EB3400F98C828D83A3A3B4
:102A1000A3A3E0FCA3E0FD88828983C3E09CF0A32C
:102A2000E09DF088828983C3E09420A3E0944E4027
:102A3000268A828B837508FF7509FF750AFF750B5F
:102A4000FF78081217368A828B83A3A3A3A3E024FE
:102A500020F0A3E0344EF00229D174F51219C8E930
:102A6000FE9007DAE0FAA3E0FBEEC333F8E433F9B3
:102A7000743228F582748139F583E02AF508A3E0E1
:102A80003BF5097808121B6F7A407B427C0F7D0072
:102A90001225AC740212191B8A088B098C0A8D0B43
:102AA000741078081216D8AA08AB097F04021A74A9
:102AB00074F11219C88A0C8B0D8C0E8D0F740F12C5
:102AC0001950E0FAA3E0FB7411121950E0F508A3C5
:102AD000E0F5097808121B6FEA2401F508EB3400D1
:102AE000F509E4F50AF50B780C790812156F7508ED
:102AF00071750902780C790812156FAA0CAB0DAC30
:102B00000EAD0F1225AC740212191B8B09EA450990
:102B100060047A0180027A00EC2AFCED3400FD7436
:102B200013121950E0F8A3E0F9E8FEE9FFECF8ED24
:102B3000F97A717B0212187A880889098E828F834C
:102B400078081217E4ECF8EDF97A717B0212187A22
:102B50008A088B09740578081218F28E828F83A375
:102B6000A3A3A3E508F0A3E509F07F08021A74C047
:102B700082C083E9906000F0D083D08222020135C8
:102B8000FFFFFFFFFFFFFFFF74F712195C74EC12E9
:102B90001905E9FE9002ACF074051219507401F0A9
:102BA000740E1219507400F0A37400F0740412191A
:102BB000507401F0740C12195074C8F0A37400F032
:102BC000740A1219507440F0A37406F074081219B4
:102BD000507401F0A37400F0740612195074E8F0F8
:102BE000A37403F07405121950AC82AD8379017A95
:102BF000057B031208A3E9740E121950AC82AD8351
:102C000079027A067B031208A3E97C567D0A7909CA
:102C10007A087B031208A3E97C5F7D0A79097A07A9
:102C20007B031208A3E97404121950AC82AD8379B6
:102C3000017A107B031208A3E9740C121950AC82BC
:102C4000AD8379027A117B031208A3E9740A121981
:102C500050AC82AD8379027A127B031208A3E97427
:102C600008121950AC82AD8379027A137B031208E3
:102C7000A3E97406121950AC82AD8379027A147BF1
:102C8000031208A3E97C687D0A7A157900120BAF5C
:102C9000E97AC77B4C7C007D007410121950EAF071
:102CA000A3EBF0A3ECF0A3EDF0740312195074023F
:102CB000F074021219507401F0740112195074006A
:102CC000F08518828519837401F07410121950ACC4
:102CD00082AD8379047A087B04120669E9740312D1
:102CE0001950AC82AD8379017A007B04120669E940
:102CF0007402121950AC82AD8379017A027B0412FE
:102D00000669E97401121950AC82AD8379017A0326
:102D10007B04120669E9851882851983AC82AD832C
:102D200079017A067B04120669E9120BCDE9FF905E
:102D300002ACE0F9120BD39081A81217F3120BB575
:102D4000E99081A81217F3120D11E99081A81217CA
:102D5000F312061BE9120651E9120579E97ACD7BD7
:102D6000051206211205E57A017B009002ACE0F91C
:102D7000120495E990032C7400F0741412191B7F4F
:102D800001021A2E74F212195C890AEAFEEBFFEEB8
:102D90005400F8EF5480F9E84960319002ACE0F952
:102DA00012047D8A0C8B0DA80CA90D88088909E8EE
:102DB00049600FAA08AB0912059DAA08AB091204C5
:102DC0006BE9EE6400FAEF6480FB8056EEA2E050FF
:102DD0001B7A957B0A1208AFE9F5087AEC7B811221
:102DE0000687EE6401FAEF6400FB8036EE54026061
:102DF0001B7A147B031205DF7A147B031205F11290
:102E000005C1EE6402FAEF6400FB8016EE54046024
:102E10000D1205FDEE6404FAEF6400FB80047A00F5
:102E20007B007F06021A2E74F712195CEAFEEBFF94
:102E30008E828F83E02440600924E0601B146021AF
:102E400080268E828F83A3A3A3E0FA8E828F83A332
:102E5000A3E0F91205A38010EEFAEFFB1205A9809A
:102E600007EEFAEFFB1205F77F01021A2E74F71234
:102E7000195C74FF121905E9FEEAFFA2E150779090
:102E800002ADE06405606F7C207D007A067B001255
:102E90000A35E97C207D007A077B00120A35E97C3F
:102EA0001E7D007A017B00120A35E985188285199A
:102EB00083AC82AD837A057B031208A9E985188269
:102EC000851983E07004740180027400851882857E
:102ED0001983F0851882851983AC82AD8379017AD4
:102EE000057B031208A3E9851882851983E0700623
:102EF0009002B77401F0740112191B7F01021A2E9F
:102F000074EE12195C74EC1219058A0A8B0B850A8F
:102F100082850B83A3A3A3E0F508850A82850B8332
:102F2000A3A3E024FFF509E5081460311460102420
:102F3000E8700302306314700302313202316E7F95
:102F400003900A82E0F8A3E0F97AE87B0312187A8A
:102F5000E8851882851983F07E010231857F1CE5A2
:102F60000A2404F8E50B3400F988108911850A82D7
:102F7000850B83A3A3E024FFF50974016509600EA6
:102F80008518828519837403F07E010231858510CE
:102F900082851183E0701A7A027B009002ACE0F91E
:102FA000120543E9900A827400F0A37400F0023025
:102FB0004B851082851183E064FF703A900A827419
:102FC000E8F0A37403F090032CE06401707D900A94
:102FD00082E0F50CA3E0F50DE4F50EF50F780C1288
:102FE0001B6B7A027B009002ACE0F9120537740487
:102FF00012191BE98055851082851183E0F879004C
:10300000E875F0E8A4C8AAF075F003A42AFA75F0F0
:10301000E8E9A42AF9900A82E8F0A3E9F090032CE9
:10302000E064017026900A82E0F50CA3E0F50DE45F
:10303000F50EF50F780C121B6B7A027B009002AC38
:10304000E0F9120537740412191BE9E508851882A6
:10305000851983E508F074011219507401F07E029D
:1030600002318590032CE06401701A7F1CE508850D
:103070001882851983E508F074011219507404F060
:103080007E02023185900A82E0F8A3E0F9E84970F7
:103090001A7F1CE508851882851983E508F07401FC
:1030A0001219507404F07E02023185120603900357
:1030B0002C7401F090819C780C1217D5900A8678B8
:1030C0000C1217AF90032A7400F0A37400F0900361
:1030D0002DE070167A007B007C007D00900326EACC
:1030E000F0A3EBF0A3ECF0A3EDF09081F01217F356
:1030F0001204D1900A82E0F50CA3E0F50DE4F50E80
:10310000F50F780C121B6B7A027B009002ACE0F991
:10311000120537740412191BE97F1CE50885188213
:10312000851983E508F074011219507401F07E02CC
:1031300080537A027B009002ACE0F9120543E990DB
:103140008208780C1217D5900A86780C1217C29054
:10315000032C7400F07F1CE508851882851983E52F
:1031600008F074011219507401F07E0280177F1C60
:10317000E508851882851983E508F0740112195055
:103180007402F07E02EEFC851882851983AA82AB58
:1031900083EFF91205C7741412191B7F0A021A2E45
:1031A00074F612195C74F6121905E9FE74056E7056
:1031B0000302330E9002ADE06405707274056E6018
:1031C0006D74011219507401F074046E70267C2025
:1031D0007D007A067B00120A35E97C207D007A07A3
:1031E0007B00120A35E97C1E7D007A017B00120A01
:1031F00035E980247C407D067A067B00120A35E999
:103200007C407D067A077B00120A35E97C1E7D0032
:103210007A017B00120A35E97401121950AC82ADB3
:103220008379017A057B031208A3E902330E900229
:10323000ADE06402707174036E706C9002B7E06070
:10324000099002B77400F002330E7A067B00120A6E
:103250003B8A088B09742065087004740065096056
:103260000302330E8518828519837401F07C407D3A
:10327000067A067B00120A35E97C407D067A077BD8
:1032800000120A35E97C1E7D007A017B00120A35A6
:10329000E9851882851983AC82AD8379017A057B33
:1032A000031208A3E9806774016E70627402121938
:1032B00050AC82AD837A047B031208A9E97407122B
:1032C0001950E0C0E07409121950D0E0F0740612F1
:1032D0001950E0C0E07408121950D0E0F0740512E3
:1032E0001950E0C0E07407121950D0E0F0740612D3
:1032F00019507400F074051219507400F074021221
:103300001950AC82AD837A087900120657E9EE9025
:1033100002ADF0740A12191B7F02021A2E74F21207
:10332000195C8A088B09890A8C0B7401650A705E26
:10333000E50B705A9002B5E0FAA3E0FB120F4B8A3E
:103340000C8B0DA80CA90DE8FEE9FFE849603F8E43
:10335000828F83A3A3A3E0A2E25004D2F08002C232
:10336000F0A2F0E4339002AEF09002AEE0601F7580
:103370000C06750D00780C121B6FEE2405FCEF3463
:1033800000FD7AAF7B02120441740212191B7F0602
:10339000021A2E74F412195C8A088B09ECFEEDFFF8
:1033A000890A740C121950E0F50B9081E8121B8207
:1033B0007900EEFAEFFB12068D740412191BE97FF7
:1033C00004021A2E74F012195C7508D27509029065
:1033D0000315E0FE900314E0850882850983F085DB
:1033E0000882850983A3858208858309EE85088282
:1033F000850983F0850882850983A38582088583F2
:1034000009900316E0F8A3E0F9E8850882850983AE
:10341000F0850882850983A3858208858309900346
:1034200016E0F8A3E0F9E4E9F8850882850983F05D
:10343000850882850983A3858208858309900318FE
:10344000E0F8A3E0F9E8850882850983F085088221
:10345000850983A3858208858309900318E0F8A372
:10346000E0F9E4E9F8850882850983F0850882851A
:103470000983A3858208858309EEA2E75020900383
:103480001A780C1217D5E50C850882850983E50C9E
:10349000F0850882850983A3858208858309EEA2C9
:1034A000E5502790031A780C1217D57410780C1277
:1034B00016D8E50C850882850983E50CF08508821D
:1034C000850983A3858208858309EEA2E6502590AD
:1034D000031A780C1217D5E4E50DF50CE50C8508F8
:1034E00082850983E50CF0850882850983A385829E
:1034F00008858309EEA2E0503C90031EE0F8A3E0AB
:10350000F9E8850882850983F0850882850983A307
:1035100085820885830990031EE0F8A3E0F9E4E9B9
:10352000F8850882850983F0850882850983A3854B
:103530008208858309EEA2E1503C900320E0F8A3C5
:10354000E0F9E8850882850983F08508828509838A
:10355000A3858208858309900320E0F8A3E0F9E4BD
:10356000E9F8850882850983F0850882850983A3A7
:10357000858208858309900314E09002D1F09002BF
:10358000ACE0F97CCF7D029002B5E0FAA3E0FB123B
:103590000627E9900A82E0F50CA3E0F50DE4F50EAC
:1035A000F50F780C121B6B7A027B009002ACE0F9ED
:1035B000120537740412191BE97F08021A2E74F4DD
:1035C00012195C890AEAFEEBFF8C0BE50A9002BB3C
:1035D000F07401250B9002BAF0850B08750900788C
:1035E00008121B6FEEFCEFFD7ABC7B0212044174E3
:1035F0000212191B9002ACE0F97CB87D029002B572
:10360000E0FAA3E0FB12062DE97F04021A2E74E80B
:1036100012195C74F71219058914EAFEEBFF8C107D
:103620008D117421121950E0F512A3E0F5138E16D6
:103630008F17E51414602F14602C24FB7003023ADA
:1036400005147003023A6B24FE601E1470030236E8
:10365000F314700302379C1470030238761470035D
:103660000238A4023ACF023ACF900A7D78081217A6
:10367000D5E5088E828F83E508F08E828F83A3AA1A
:1036800082AB83EAFEEBFF900A7D78081217D5E43F
:10369000E509F508E5088A828B83E508F08E828FBC
:1036A00083A3AA82AB83EAFEEBFF900A7D7808121F
:1036B00017D5741078081216D8E5088A828B83E52E
:1036C00008F08E828F83A3A882A983E8FEE9FF9089
:1036D0000A81E088828983F08E828F83A3AE82AFD5
:1036E0008374FFF08E828F83A3AE82AF8374FFF06A
:1036F000023ACF1204D78A088B098C0A8D0B900AE4
:1037000084E508F0A3E509F0900A84E0F8A3E0F965
:10371000E88E828F83F08E828F83A3A882A983E8AC
:10372000FEE9FF900A84E0FAA3E0FBE4EBFA88826A
:103730008983F08E828F83A3AA82AB83EAFEEBFF9C
:10374000900A8678081217D5E5088A828B83E508E7
:10375000F08E828F83A3AA82AB83EAFEEBFF900AEE
:103760008678081217D5E4E509F508E5088A828B02
:1037700083E508F08E828F83A3AA82AB83EAFEEBF7
:10378000FF900A8678081217D5741078081216D898
:10379000E5088A828B83E508F0023ACF900326126F
:1037A0001B827A8A7B0A1204DD740412191B900AA8
:1037B0008FE0F8A3E0F9E88E828F83F08E828F830A
:1037C000A3A882A983E8FEE9FF900A8FE0FAA3E0AC
:1037D000FBE4EBFA88828983F08E828F83A3A88230
:1037E000A983E8FEE9FF900A8EE088828983F08E43
:1037F000828F83A3A882A983E8FEE9FF900A8DE067
:1038000088828983F08E828F83A3A882A983E8FEB1
:10381000E9FF900A8CE088828983F08E828F83A3EF
:10382000A882A983E8FEE9FF900A8BE08882898359
:10383000F08E828F83A3A882A983E8FEE9FF900A15
:103840008AE088828983F08E828F83A3A882A983ED
:10385000E8FEE9FF900A91E088828983F08E828FEA
:1038600083A3A882A983E8FEE9FF900A92E08882F8
:103870008983F0023ACF900A93E0F8A3E0F9E88E4A
:10388000828F83F08E828F83A3A882A983E8FEE9CA
:10389000FF900A93E0FAA3E0FBE4EBFA88828983C5
:1038A000F0023ACF8E828F83E0FA7B008E828F8384
:1038B000A3E0F87900E4C8F9EA28F8EB39F97405CF
:1038C000121950E8F0A3E9F08E828F83A3A3E0C021
:1038D000E07404121950D0E0F08E828F83A3A3A36A
:1038E000E0C0E07403121950D0E0F08E828F83A301
:1038F000A3A3A3E0C0E07402121950D0E0F08E82BE
:103900008F83A3A3A3A3A3E0C0E07401121950D036
:10391000E0F08E828F83A3A3A3A3A3A3E0851882E4
:10392000851983F08E828F83A3A3A3A3A3A3A3E00F
:10393000C0E07407121950D0E0F08E828F83A3A3E9
:10394000A3A3A3A3A3A3E0C0E07408121950D0E07E
:10395000F07407121950E0F91205D3E9600D7408EC
:10396000121950E0F91205D9E9700C8512828513FD
:10397000837404F0023ACF851882851983AA82AB3A
:10398000831204E98A088B098C0A8D0B85080C8543
:10399000090D850A0E850B0F90032CE0700A900329
:1039A00026780C1217E480251204D79003221217F0
:1039B000FF850C08850D09850E0A850F0B900322E3
:1039C000780812175D90032678081217E4900326F2
:1039D000121B827A8A7B0A1204DD740412191B748A
:1039E00007121950E0900A91F07408121950E090F3
:1039F0000A92F090032D7401F0851282851383746E
:103A000000F0023ACF7A177B001204658A0A8B0B0A
:103A1000850A08850B09E5084509604D85088285FA
:103A2000098374E0F0851082851183E08508828522
:103A30000983A3A3F0851082851183E0F50A750B35
:103A400000780A121B6FEEFCEFFDE5082403FAE58F
:103A5000093400FB120441740212191BAA08AB09B5
:103A60009002ACE0F9120471E980647A177B0012CD
:103A700004658A0A8B0B850A08850B09E508450948
:103A8000604D85088285098374E1F0851082851177
:103A900083E0850882850983A3A3F08510828511C0
:103AA00083E0F50A750B00780A121B6FEEFCEFFD40
:103AB000E5082403FAE5093400FB120441740212FC
:103AC000191BAA08AB099002ACE0F9120471E97461
:103AD0000912191B7F10021A2EE9F8E875F002127C
:103AE00014D3E5F0600479008021E8C394D1A2D218
:103AF00065D033400BE8C39438A2D265D03340057B
:103B0000747F687004790180027900020135E9F858
:103B10007402686012740468600DE8600A740868D2
:103B2000600574FF68700479018002790002013534
:103B300074E812195C74F2121905851882851983CC
:103B4000EAF0A3EBF07F007E0674081219507400AF
:103B5000F0A37400F074021219507486F0A3740A72
:103B6000F0750C00750D00750E00750F007A007B66
:103B7000007C007D00740A121950EAF0A3EBF0A358
:103B8000ECF0A3EDF0900338E0F8A3E0F990033AED
:103B9000E8F0A3E9F0120615900338EAF0A3EBF081
:103BA000900338E0F8A3E0F97AFD7B0712187A90C9
:103BB0000338EAF0A3EBF0900338E0F8A3E0F985CE
:103BC0001882851983E0FAA3E0F5838A82A3A3E82B
:103BD000F0A3E9F090032AE0F8A3E0F985188285C4
:103BE0001983E0FAA3E0F5838A82A3A3A3A3E8F0F4
:103BF000A3E9F0900A82E0F8A3E0F97AE87B0312E7
:103C0000187A8808890990032AE02508F0A3E0358E
:103C100009F090032AE0F8A3E0F9E8497003023DB7
:103C200003900338E054FFF8A3E05407F9E4FAFBEB
:103C3000880C890D8A0E8B0F90033AE054FFFAA38B
:103C4000E05407FBE4FCFD740A121950EAF0A3EB00
:103C5000F0A3ECF0A3EDF0900A82E0F8A3E0F97A8B
:103C6000E87B0312187A7406121950E8F0A3E9F001
:103C7000850C08850D09850E0A850F0B740A12192B
:103C800050780812175D9081C078141217D5780803
:103C9000791412156F7406121950E0F514A3E0F5AB
:103CA00015E4F516F51778087914121689850810A9
:103CB000850911850A12850B139081B478101215AD
:103CC0000A500E740412195074FEF0A37407F080A9
:103CD000329081AC781012150A400E7404121950FB
:103CE0007402F0A3740FF0801A851008851109E59D
:103CF000084400F8E50944F0F97404121950E8F09A
:103D0000A3E9F07402121950E0F8A3E0F583888269
:103D10001217F3851882851983E0F8A3E0C82406FA
:103D2000F582E83400F5831217FF7402121950E08F
:103D3000F8A3E0F583888278081217D5E50854FFC8
:103D40006005D3EF92E7FF7402121950E0F8A3E088
:103D5000F583888278081217D5E5085400F8E5093C
:103D600054FFF9E8496005D3EF92E6FF7402121997
:103D700050E0F8A3E0F583888278081217D5908187
:103D8000A4780812179CE5084509450A450B60050B
:103D9000D3EF92E5FFEFA2E0502774022EFE7404E9
:103DA000121950E0F8A3E0F9851882851983E0FA2A
:103DB000A3E0CA240AF582EA3400F583E8F0A3E917
:103DC000F0EFA2E1502774022EFE7408121950E0A1
:103DD000F8A3E0F9851882851983E0FAA3E0CA24E4
:103DE0000CF582EA3400F583E8F0A3E9F0EFA2E5F0
:103DF00050010EEFA2E650010EEFA2E750010EEEC9
:103E0000C0E0851882851983E0F8A3E0F5838882F5
:103E1000D0E0F0EFC0E0851882851983E0F8A3E0D8
:103E2000F5838882A3D0E0F0740E12191B7F100274
:103E30001A2EC082C0837A8C7B001204FB90032E62
:103E4000EAF0A3EBF09003317400F09003307400BB
:103E5000F09003327400F090032D7400F012060FFE
:103E6000D083D08202013574F012195C890C8A0863
:103E70008B098C0E8D0F7E007F00900331E0700562
:103E80007906024237E50C14601E14700302404CA0
:103E9000146058147003024176147003023FEE144C
:103EA000700302400D024235900332E0900333F07C
:103EB000900332E0F87900900331E0FA7B00E82AC1
:103EC000F8E93BF9E824FFF8E934FFF97A0A7B00C6
:103ED000121872EA900334F0900331E0F879009000
:103EE0000335F0A3E9F07901024237900332E0F89C
:103EF00079008E0A750B00250AF8E9350BF97A0A64
:103F00007B00121872EAFFEFF87900E875F00EA452
:103F1000C8AAF075F000A42AFA75F00EE9A42AF9EF
:103F200090032EE028FAA3E0398A82F583A3A3A3A5
:103F3000A3C3E09508A3E09509403CEF900333F05C
:103F4000900332E0F87900900331E0FA7B00E82A30
:103F5000F8E93BF9E824FFF8E934FFF97A0A7B0035
:103F6000121872EA900334F0900333E0F8900334AF
:103F7000E0C3984046801D0E900331E0F8EEC398F0
:103F8000400F9003357400F0A37400F079060242EC
:103F900037023EEB900334E0F87900900333E0FA07
:103FA0007B00E8C39AF8E99BF9E82401F8E93400BA
:103FB000F9900335E8F0A3E9F0802E900333E0F8A0
:103FC0007900740AC398F8740099F9900334E0FA00
:103FD0007B00E82AF8E93BF9E8C394FFF8E994FF8D
:103FE000F9900335E8F0A3E9F07901024237900334
:103FF00032E0900333F0900332E0900334F090030A
:10400000357401F0A37400F0790102423790033255
:10401000E0F87900900331E0FA7B00E82AF8E93B08
:10402000F9E824FFF8E934FFF97A0A7B00121872E4
:10403000EA900333F0900333E0900334F0900335BB
:104040007401F0A37400F07901024237900332E06A
:10405000F879008E0A750B00250AF8E9350BF97A14
:104060000A7B00121872EAFFEFF87900E875F00E8B
:10407000A4C8AAF075F000A42AFA75F00EE9A42AE3
:10408000F990032EE028FAA3E0398A82F583A3A3EE
:10409000A3A3E0F8A3E0F9C3E50898E50999502F38
:1040A000EE700F9003357400F0A37400F0790602EF
:1040B00042378F0A750B00E50A2409F8E50B340036
:1040C000F97A0A7B00121872EA900334F080380EF5
:1040D000900331E0F8EEC398402A900332E0F8797B
:1040E00000900331E0FA7B00E82AF8E93BF9E82484
:1040F000FFF8E934FFF97A0A7B00121872EA90039C
:1041000034F0800302404C900332E0900333F0908F
:104110000333E0F8900334E0C3984027900334E081
:10412000F87900900333E0FA7B00E8C39AF8E99B42
:10413000F9E82401F8E93400F9900335E8F0A3E93F
:10414000F0802E900333E0F87900740AC398F87475
:104150000099F9900334E0FA7B00E82AF8E93BF98A
:10416000E8C394FFF8E994FFF9900335E8F0A3E978
:10417000F07901024237C3E50E9508E50F95095025
:104180000579050242377C007D00AA08AB09790356
:104190001205EBE96406601A900333E0F50B7C002E
:1041A0007D00AA0EAB0F79021205EBE964067007D9
:1041B00080267906024237900334E0F50AE50B9039
:1041C0000333F0E50A900334F0900333E0F89003F2
:1041D00034E0C398402D80047906805B900334E07E
:1041E000F87900900333E0FA7B00E8C39AF8E99B82
:1041F000F9E82401F8E93400F9900335E8F0A3E97F
:10420000F0802E900333E0F87900740AC398F874B4
:104210000099F9900334E0FA7B00E82AF8E93BF9C9
:10422000E8C394FFF8E994FFF9900335E8F0A3E9B7
:10423000F07901800279087F08021A2E74F61219AB
:104240005CEAFEEBFF900332E0F87900900331E086
:10425000FA7B00E82AF8E93BF97A0A7B0012187227
:10426000EA900330F0900330E0F8900332E0687099
:1042700023900331E0C39401401A900332E0F879AF
:10428000002401F8E93400F97A0A7B00121872EA76
:10429000900332F075080E7509007808121B6FEE56
:1042A000FCEFFD900330E0F87900E875F00EA4C84B
:1042B000AAF075F000A42AFA75F00EE9A42AF99084
:1042C000032EE028FAA3E039FB120441740212190C
:1042D0001B900331E02401F0900331E0C3940B40C4
:1042E00006900331740AF07F02021A2E74F012193C
:1042F0005C8A0C8B0D850C82850D83A3A3A3E0FE45
:10430000850C82850D83A3A3A3A3E0FF750E007522
:104310000F00750800750900750A00750B00EE1492
:10432000600F14600C1470030245F8146003024619
:104330003FEF70359002E97406F09002EA7400F0E5
:10434000EE9002EBF09002EC7403F09002E874043B
:10435000F09002ACE0F97CE67D029002B5E0FAA3B1
:10436000E0FB120633E9024671EFC3940740359033
:1043700002E97406F09002EA7400F0EE9002EBF0AD
:104380009002EC7404F09002E87404F09002ACE047
:10439000F97CE67D029002B5E0FAA3E0FB12063359
:1043A000E902467174026F600A74036F6005740459
:1043B0006F7077850C82850D83A3A3A3A3A3E0F878
:1043C000880B74016860359002EC7409F09002E982
:1043D0007406F09002EA7400F0EE9002EBF09002A6
:1043E000E87404F09002ACE0F97CE67D029002B53E
:1043F000E0FAA3E0FB120633E9024671850C8285E0
:104400000D83A3A3A3A3A3A3E0FA7B00850C82855D
:104410000D83A3A3A3A3A3A3A3E0F87900E4C8F9A1
:10442000EA28F8EB39F9880E890F74046F70328529
:104430000C82850D83A3A3A3A3A3A3A3A3E0FA7B6C
:1044400000850C82850D83A3A3A3A3A3A3A3A3A389
:10445000E0F87900E4C8F9EA28F8EB39F988088926
:104460000974016F700E850C82850D83A3A3E0C3D0
:104470009403501074046F7040C3E508950EE5096D
:10448000950F50359002EC7405F09002E97406F037
:104490009002EA7400F0EE9002EBF09002E87404EF
:1044A000F09002ACE0F97CE67D029002B5E0FAA360
:1044B000E0FB120633E9024671AC08AD09AA0EAB67
:1044C0000FEFF91205EBE9F8880A7401686003023E
:1044D000459974016E70279003377400F0908190B5
:1044E000121B827A047B009002ACE0F9120537744B
:1044F0000412191BE9790112064BE9024671740492
:104500006E70469002E97405F09002EA7400F09033
:104510000335E0F8A3E0F9E89002EBF0900335E012
:10452000F8A3E0F9E4E9F89002ECF09002E87404F2
:10453000F09002ACE0F97CE67D029002B5E0FAA3CF
:10454000E0FB120633E902467174026E6003024614
:10455000719002E97406F09002EA7400F0EE9002A5
:10456000EBF0900335E0FCA3E0FD900334E0FA901B
:104570000333E0F9120609E99002ECF09002E874C6
:1045800004F09002ACE0F97CE67D029002B5E0FA1E
:10459000A3E0FB120633E9805D7406650A7025749A
:1045A000046E70209002EC7400F09002E97405F043
:1045B0009002EA7400F09002EB7400F09002E8744C
:1045C00004F0801DE50A9002ECF09002E97406F018
:1045D0009002EA7400F0EE9002EBF09002E87404AE
:1045E000F09002ACE0F97CE67D029002B5E0FAA31F
:1045F000E0FB120633E980797A047B009002ACE09C
:10460000F9120543E9790012064BE99002E97406B4
:10461000F09002EA7400F0EE9002EBF09002EC747D
:1046200001F09002E87404F09002ACE0F97CE67DC1
:10463000029002B5E0FAA3E0FB120633E980329063
:1046400002E97406F09002EA7400F0EE9002EBF0DA
:104650009002EC7402F09002E87404F09002ACE076
:10466000F97CE67D029002B5E0FAA3E0FB12063386
:10467000E97F08021A2E74F012195C900337E0FAF1
:104680007B00900335E0F8A3E0F9C3EA98EB99408A
:10469000030248DD900333E0F87900900337E0FA35
:1046A0007B00E82AF8E93BF97A0A7B00121872EAE3
:1046B00075F00EA4CAA8F075F000A428F875F00EE5
:1046C000EBA428FB90032EE02AF508A3E03BF509B4
:1046D0007E007F03850882850983A3E0F50A8508AB
:1046E00082850983E08E828F83F08E828F83A3AED2
:1046F00082AF83E50A8E828F83E50AF08E828F83F4
:10470000A3AE82AF83850882850983A3A3E0F8A3C3
:10471000E0F9E88E828F83F08E828F83A3AE82AF22
:1047200083850882850983A3A3E0F8A3E0F9E4E97F
:10473000F88E828F83F08E828F83A3AE82AF8385C3
:104740000882850983A3A3A3A3E0F8A3E0F9E88E78
:10475000828F83F08E828F83A3AE82AF838508829F
:10476000850983A3A3A3A3E0F8A3E0F9E4E9F88E05
:10477000828F83F08E828F83A3AE82AF83E50AA2FD
:10478000E75023850882850983A3A3A3A3A3A37865
:104790000C1217D5E50C8E828F83E50CF08E828F7C
:1047A00083A3AE82AF83E50AA2E5502A85088285FD
:1047B0000983A3A3A3A3A3A3780C1217D57410781D
:1047C0000C1216D8E50C8E828F83E50CF08E828F4A
:1047D00083A3AE82AF83E50AA2E6502885088285CE
:1047E0000983A3A3A3A3A3A3780C1217D5E4E50D13
:1047F000F50CE50C8E828F83E50CF08E828F83A3FF
:10480000AE82AF83E50AA2E0504A8508828509831B
:10481000A3A3A3A3A3A3A3A3A3A3E0F8A3E0F9E8FE
:104820008E828F83F08E828F83A3AE82AF838508C2
:1048300082850983A3A3A3A3A3A3A3A3A3A3E0F8AF
:10484000A3E0F9E4E9F88E828F83F08E828F83A350
:10485000AE82AF83E50AA2E15042E508240CF5825E
:10486000E5093400F583E0F8A3E0F9E88E828F8350
:10487000F08E828F83A3AE82AF83E508240CF5828D
:10488000E5093400F583E0F8A3E0F9E4E9F88E8265
:104890008F83F08E828F83A3AE82AF83850882855B
:1048A0000983E09002FFF0900337E02401F09002CA
:1048B000ACE0F97CFD7D029002B5E0FAA3E0FB12CA
:1048C0000627E9908194121B827A047B009002AC47
:1048D000E0F9120537740412191BE980467A047B4B
:1048E000009002ACE0F9120543E99002E87404F08C
:1048F0009002E97406F09002EA7400F09002EB7402
:1049000001F09002EC7401F09002ACE0F97CE67DDD
:10491000029002B5E0FAA3E0FB120633E979001237
:10492000064BE97F08021A2EC082C08390033274BE
:1049300000F09003317400F0D083D082020135740E
:10494000EE12195C890C8A08ECFEEDFF900331E051
:10495000F87900C3EE98EF99400812060379010236
:104960004A95900332E0F87900900331E0FA7B0039
:10497000E82AF8E93BF9E824FFF8E934FFF97A0A74
:104980007B00121872EAF50AE50A65087014EEF861
:10499000900331E0C398F0E50C900330F079010208
:1049A0004A95850A10751100E510240AF8E51134BE
:1049B00000F9850810751100E8C39510F8E9951104
:1049C000F97A0A7B001218728A108B1185100E85F5
:1049D000110F74012508F50B850C09E50E450F70C4
:1049E00003024A8475100E7511007810121B6FE5D2
:1049F0000BA80B7900E875F00EA4C8AAF075F000BA
:104A0000A42AFA75F00EE9A42AF990032EE028FCF6
:104A1000A3E039FDE509A8097900E875F00EA4C8FE
:104A2000AAF075F000A42AFA75F00EE9A42AF9900C
:104A3000032EE028FAA3E039FB1204417402121994
:104A40001B850910751100E5102401F8E5113400EB
:104A5000F97A0A7B00121872EAF509850B107511B4
:104A600000E5102401F8E5113400F97A0A7B001200
:104A70001872EAF50BE50E24FFF50EE50F34FFF58D
:104A80000F0249DBE509900330F0EEF8900331E0C6
:104A9000C398F079017F0A021A2E74EE12195C7421
:104AA000FA1219058A0A8B0B8909ECFEEDFF7508CD
:104AB00000850A0C850B0D780C121BB300041073D3
:104AC0004DE34A044B234B444B654B864BB94BDAC1
:104AD0004BF14B1F4CDD4CFE4C1E4D484D734D733E
:104AE0004D4A4C7401650970158E828F83E0C39422
:104AF00003500B8E828F83E0900BDAF080037508F1
:104B000018024D9C7402650970138E828F83E0F841
:104B1000A3E0F9900BDBE8F0A3E9F0800375081837
:104B2000024D9C7401650970158E828F83E0C394D9
:104B300002500B8E828F83E0900361F08003750832
:104B400018024D9C7401650970158E828F83E0C335
:104B50009405500B8E828F83E0900362F080037582
:104B60000818024D9C7401650970158E828F83E0D0
:104B7000C39402500B8E828F83E0900363F0800316
:104B8000750818024D9C741065097027750C107516
:104B90000D00780C121B6FEEFCEFFD7A647B0312A4
:104BA0000441740212191B8A0C8B0D850C82850D31
:104BB000838003750818024D9C7401650970158E79
:104BC000828F83E0C39402500B8E828F83E0900328
:104BD00074F08003750818024D9C74016509700B10
:104BE0008E828F83E0900BDEF08003750818024DF3
:104BF0009C7404650970229081E4780C1217D58E9C
:104C0000828F83780C121540500F8E828F8312177B
:104C1000F39003761217FF8003750818024D9CE588
:104C2000097021120B97E970131206E7E9F50C7968
:104C30005012089DE9F50D1206D5800B90040974F9
:104C400001F08003750818024D9C74076509600324
:104C5000024CD7750E06750F00780E121B6F8E82F0
:104C60008F83A3AC82AD837402121950AA82AB83E6
:104C7000120447740212191B8A108B1185100E85BD
:104C8000110F7C007D00851882851983AA82AB8371
:104C90008E828F83E0F9120675E9F50CE50CC3945A
:104CA0000A502F120B97E97015A90C1206EDE9F5C1
:104CB0000D795012089DE9F50E1206D5801C750D70
:104CC00000740A250CF5827404350DF5837401F027
:104CD00080087508028003750818024D9C740165F0
:104CE0000970158E828F83E0C39402500B8E828FE1
:104CF00083E0900375F08003750818024D9C7401E1
:104D0000650970158E828F83E0C3940A500B8E82E2
:104D10008F83E0900BDDF08003750818807E7401AE
:104D20006509701F8E828F83E0C3940740158E82C1
:104D30008F83E0C39411500B8E828F83E0900BDF42
:104D4000F08059750818805474016509702090042A
:104D500008E0F50C8E828F83E0900408F0E50C707B
:104D60003B900408E0640170331206D5802E75086C
:104D7000188029C3E50A9427E50B9400501B7402A0
:104D8000650970158E828F83E0FCA3E0FDAA0AAB53
:104D90000B120A35E9F5088003750802A9087406A4
:104DA00012191B7F0A021A2E74EC12195C74DA12A3
:104DB0001905890D8A128B138C0A8D0B743A1219FE
:104DC00050E0F50C908172C082C0838518828519ED
:104DD00083AC82AD83D083D08274061218188518F4
:104DE00082851983AC82AD83AA12AB13A90D12067A
:104DF00075E9FEEEC3940A4003024F47EEF912062E
:104E0000B7E9FF900BDAE064027004740180027469
:104E100000F5087808121B73AD0CEFFCEEF9AA0A36
:104E2000AB0B120729740112191B7C147D00790049
:104E30007412121950AA82AB831204598A0E8B0F76
:104E4000850E08850F097412121950AC82AD837A51
:104E50001075F006EEA42424F9120897E970437C3B
:104E60001079FF7412121950AA82AB831204B9E9A7
:104E700070307422121950AC82AD837A0475F0063A
:104E8000EEA42425F9120897E9F5087412121950B6
:104E9000AC82AD83EFA2E0E433F9AA0AAB0B120AAD
:104EA000BFE97406121950AC82AD837A0C74702E6F
:104EB000F9120897E9707E7406121950AA82AB8322
:104EC0001206AB750E00E50EC394045068E50EA8FB
:104ED0000E7900E875F003A4C8AAF075F000A42AC2
:104EE000FA75F003E9A42AF97406121950E582282C
:104EF000F508E58339F509850882850983E0F8A37B
:104F0000E0F9E849602B850882850983A3A3E0F5D1
:104F1000107511007810121B6F850882850983E0D7
:104F2000FCA3E0FDAA0AAB0B120D71740212191B4F
:104F3000E9050E8091EFA2E1500D900360E0F9AA1F
:104F40000AAB0B120D77E97404650C700F900BDA45
:104F5000E064027007AA0AAB0B12072379007426DB
:104F600012191B7F0C021A2E74F212195C890BEABB
:104F7000FEEBFF8C088D09750A0AE50B600C1460C6
:104F80000914604414606402500CEEFAEFFB120640
:104F9000C9E9F50AE50AC3940A5071E508450960B4
:104FA0006B750C06750D00780C121B6FEEFCEFFD97
:104FB000AA08AB09120441740212191B8A0C8B0D4A
:104FC000850C82850D838044EEFAEFFB1206C3E95F
:104FD000F50AE50AC3940A5033E5084509602DAA8D
:104FE00008AB09A90A1206BDE98021EEFAEFFB120F
:104FF00006CFE9F50AE50AC3940A5010E508450909
:10500000600AAA08AB09A90A1206BDE9A90A7F0627
:10501000021A2E74F212195C8A0C8B0DE9FE7F15B0
:1050200074FF650C700474FF650D702A750800E547
:1050300008C3940A5014EEFC7A027B00A9081206F9
:1050400099E960027F00050880E5EE60637A117BD4
:1050500007120F69805AAA0CAB0D120F4B8A0A8BEC
:105060000B850A08850B09E508450960417C007D30
:1050700000E5082405FAE5093400FB850882850966
:1050800083A3A3A3A3E0F9120675E9F50AE50AC311
:10509000940A500EEEFC7A027B00A90A120699E9E6
:1050A0007F00EE600BAA08AB0912071180027F1483
:1050B000EFF97F06021A2E74EE12195C8A0E8B0F1E
:1050C0008C0A8D0B7412121950E0F50CA3E0F50D4B
:1050D00075081574FF650E700474FF650F701E7EF1
:1050E00000EEC3940A5062AC0CAD0DAA0AAB0BEEF5
:1050F000F912069FE960037508000E80E4AA0EAB62
:105100000F120F4B8A108B11AE10AF11EE4F60369D
:105110007C007D00EE2405FAEF3400FB8E828F8345
:10512000A3A3A3A3E0F9120675E9F509E509C39461
:105130000A5016AC0CAD0DAA0AAB0BA90912069FBA
:10514000E97508008003750814A9087F0A021A2E61
:1051500074F712195CEAFEEBFF90037AEEF0A3EF0E
:10516000F0900360E0FC7D007A267B00120A35E9AE
:10517000F508900360E0F9120CF37F01021A2E7417
:10518000EE12195C8A108B11E9FE74121219507814
:105190000C1217D57F00EE7041850C08850D09852E
:1051A0000E0A850F0B9081E4780C1217D5780879D8
:1051B0000C1215EF7810121B6FAA0CAB0DAC0EADD4
:1051C0000F120AD1740212191BE9FFEF6016790160
:1051D000AA10AB11120ACBE9800AEEF9AA10AB11A2
:1051E000120ACBE9EFF97F0A021A2E74F212195C47
:1051F00074EC1219058A0A8B0B850A82850B83A32E
:10520000A3E024FA700302564B24FD70030254C13C
:105210001470030252DE14601024FD7003025469FE
:105220001470030255010256B9AE0AAF0B90037A0F
:10523000E0F8A3E0F9E849606990037AE0F8A3E0B8
:10524000F5838882E0F8A3E0F9E8496055EE240C84
:10525000F582EF3400F583E0F5087808121B73EE51
:10526000240BF582EF3400F583E0F98E828F83A35F
:10527000A3A3A3A3A3A3A3A3E0FCA3E0FDEE2403A5
:10528000FAEF3400FB90037AE0F8A3E0F58388821C
:10529000E0F8A3E0F583888212195A740112191BF1
:1052A00080398E828F83A3A3A3A3A3A3A3A3A31256
:1052B0001B869003761217F3120AD1740212191B7F
:1052C000E9601879018E828F83A3A3A3A3A3A3A36C
:1052D000A3A3E0FAA3E0FB120ACBE90256B9AE0A97
:1052E000AF0B8E828F83A3E060030254178E828FF0
:1052F00083A3A3A3A3A3E0A2E04003025417900456
:1053000014E0F8A3E0F9E84960030254177C0E7D2D
:10531000007900851882851983AA82AB831204590B
:105320008A088B09AA08AB09EE240CF582EF340039
:10533000F583E0F8A3E0F9E849603B7508067509D4
:10534000007808121B6FEE240CF582EF3400F58311
:10535000E02410FCA3E03400FD7402121950AA826C
:10536000AB83120441740212191B8A088B09850849
:105370008285098380548E828F83A3A3A3E0FAA33E
:10538000E0FB120F4B8A0C8B0D850C08850D09E58F
:105390000845096032750C06750D00780C121B6FFC
:1053A000E5082405FCE5093400FD7402121950AA31
:1053B00082AB83120441740212191B8A0C8B0D8577
:1053C0000C82850D8380030256B98E828F83A3A33E
:1053D000A3A3A3E0A2E25004D2F08002C2F0A2F0A4
:1053E000E433F87900740C121950E048F0A3E04956
:1053F000F0EEFCEFFD851882851983AA82AB83123B
:1054000006B1E970127A027B00900360E0F91204A1
:1054100095E979000256BB90037AE0F8A3E0F9E839
:1054200049604390037AE0F8A3E0F5838882A3A360
:10543000E0F8A3E0F9E849602D8E828F83A3E0FCB9
:1054400079018E828F83A3A3A3E0FAA3E0FB9003EC
:105450007AE0F8A3E0F5838882A3A3E0F8A3E0F55F
:1054600083888212195A0256B9AE0AAF0B90037A9A
:10547000E0F8A3E0F9E849604590037AE0F8A3E09A
:10548000F5838882A3A3E0F8A3E0F9E849602F85BB
:105490000A82850B83A3E0FC79028E828F83A3A30B
:1054A000A3E0FAA3E0FB90037AE0F8A3E0F5838899
:1054B00082A3A3E0F8A3E0F583888212195A02566A
:1054C000B9AE0AAF0B7C007D00EE2404FAEF340085
:1054D000FB8E828F83A3A3A3E0F9120675E9F5087A
:1054E000E508C3940A5017EE240AFCEF3400FD7A55
:1054F0000475F006E508A42425F9120891E902567E
:10550000B9AE0AAF0B900375E06018900BDDE0F9BF
:105510008E828F83A3A3A3E0FAA3E0FB120ACBE958
:105520000256B9900BDAE0701579058E828F83A34D
:10553000A3A3E0FAA3E0FB120ACBE90256B98E82DC
:105540008F83A3A3A3E0FAA3E0FB120F4B8A0C8B7B
:105550000D850C08850D098E828F83A3A3A3A3A3B9
:10556000A3A3E0A2E05075E5084509606C850882B8
:10557000850983A3A3A3A3E060628E828F83A3A384
:10558000A3A3A3A3A3A3A3E0F8A3E0F9E8C4540F43
:10559000F879005401F8E95400F9E8A2E0403D74BC
:1055A0000E121950AC82AD83E5082405FAE50934E2
:1055B00000FB850882850983A3A3A3A3E0F9120653
:1055C00075E9701879038E828F83A3A3A3E0FAA3F1
:1055D000E0FB120ACBE90256B90256B9EE2405FCEB
:1055E000EF3400FD850882850983A3A3A3A3E0F916
:1055F0008E828F83A3A3A3E0FAA3E0FB12071D9082
:10560000037AE0F8A3E0F9E849603E90037AE0F815
:10561000A3E0F5838882A3A3E0F8A3E0F9E849605A
:10562000287C0079008E828F83A3A3A3E0FAA3E0F5
:10563000FB90037AE0F8A3E0F5838882A3A3E0F867
:10564000A3E0F583888212195A806E120B97E970D5
:1056500068900409E06401701A1206E7E9FE9004FC
:10566000097400F07C0A7D0079007A0A7B04120438
:1056700059803C7E00EEC3940A50348E08750900B0
:10568000740A2508F58274043509F583E064017015
:105690001BEEF91206EDE9F88E08750900740A256B
:1056A00008F58274043509F5837400F00E80C6791C
:1056B0005012089DE9FE1206D57901741412191BC7
:1056C0007F06021A2E74F312195C74F212190589FE
:1056D00009EAFEEBFF8C0C851882851983AC82AD3C
:1056E000837A0E75F006E509A42420F9120897E9DB
:1056F00070727C0679FF851882851983AA82AB8334
:105700001204B9E9705E740C121950E0F8A3E0F9C4
:10571000E8F508E50C6005EE42088004EEF4520856
:1057200085080A750B00740C121950E0650A7004A4
:10573000A3E0650B602AE508A8087900740C12192B
:1057400050E508F0A3E9F0851882851983AC82AD95
:10575000837A0E75F006E509A42420F9120891E970
:10576000790180027900740E12191B7F05021A2E2E
:1057700074F012195C74E6121905890B8A0C8B0DF2
:10578000ECFEEDFF740C121950AC82AD837A0E75ED
:10579000F006E50BA42420F9120897E960030258EB
:1057A000D47C0679FF740C121950AA82AB831204C0
:1057B000B9E960030258D4851882851983AC82AD9B
:1057C000837A0C7470250BF9120897E9600302586C
:1057D000D0750A00851882851983AA82AB831206C8
:1057E000ABE50C450D703A7C0C7900851882851963
:1057F00083AA82AB831204B9E960030258AA7C0C25
:105800007D007900851882851983AA82AB831204F2
:10581000598A088B09850882850983750A0102580F
:10582000AA851882851983AC82AD83AA0CAB0D12B0
:1058300006A58A0E8B0F850E08850F09E508450918
:105840007036EE4F6021851882851983AC82AD8356
:105850007A007B001206A58A0E8B0FA80EA90F886E
:10586000088909E84970047900806B8508828509F8
:1058700083E50CF0A3E50DF0850882850983A3A3D9
:10588000E0F87900EE687002EF69601EEE8508822C
:10589000850983A3A3F0EE4F700D850882850983E7
:1058A0007400F0A37400F0750A01E50A60228518FF
:1058B00082851983AA82AB831206AB85188285196B
:1058C00083AC82AD837A0C7470250BF9120891E9D0
:1058D000790180027900741A12191B7F08021A2EAE
:1058E00074F712195CEAFEEBFF7B00EBC3940450E3
:1058F0004EEBF87900E875F003A4C8AAF075F00043
:10590000A42AFA75F003E9A42AF9EC28F582ED3906
:10591000F583E06E7003A3E06F7021EBF87900E887
:1059200075F003A4C8AAF075F000A42AFA75F00374
:10593000E9A42AF9EC28FAED39FB80070B80AC7A50
:10594000007B007F01021A2E74F712195C7F00EFB2
:10595000C3940440030259F7EFF87900E875F003A7
:10596000A4C8ACF075F000A42CFC75F003E9A42CDD
:10597000F9EA28F582EB39F583E0F4FCA3E0F4FDC5
:10598000EFF87900E875F003A4C8AEF075F000A454
:105990002EFE75F003E9A42EF9EA28F582EB39F51D
:1059A00083ECF0A3EDF0EFF87900E875F003A4C8FC
:1059B000ACF075F000A42CFC75F003E9A42CF9EA16
:1059C00028F582EB39F583A3A3E0F4C0E0EFF87982
:1059D00000E875F003A4C8ACF075F000A42CFC75C9
:1059E000F003E9A42CF9EA28F582EB39F583A3A3A7
:1059F000D0E0F00F02594F7F01021A2E74F01219F5
:105A00005C74F4121905EAFEEBFF8C088D09900412
:105A100014E0F8A3E0F9E849702CEE4F6006E508C1
:105A2000450970057901025CB4EEFAEFFB1206C974
:105A3000E9900BE0F0900BE0E0C3940A40081206F6
:105A4000DBE9900BE0F0900BE0E0C3940A40030226
:105A50005CB2900414E0F8A3E0F9E8496003025A4C
:105A6000FEEEFCEFFD7A0E75F006900BE0E0A4244C
:105A700020F9120891E9F50C7C0C7D0079FF85185E
:105A800082851983AA82AB831204598A0E8B0F85F3
:105A90000E0A850F0B851882851983AC82AD837A37
:105AA0000C900BE0E02470F9120891E9F50D750EE9
:105AB0000E750F00780E121B6FEEFCEFFD900BE0E1
:105AC000E0F87900E875F00EA4C8AAF075F000A41B
:105AD0002AFA75F00EE9A42AF9747C28FA740339BD
:105AE000FB120441740212191B8A0E8B0FA80EA917
:105AF0000F900414E508F0A3E509F0025CAE9004F1
:105B000014E0F8A3E0C82406F582E83400F583E049
:105B1000F8A3E0F9E8496043900414E0F8A3E0C872
:105B20002406F582E83400F583E0FCA3E0FD7A1B4F
:105B300075F006900BE0E0A42421F9120891E9F831
