:020000040000FA
:0600000002011D02272B86
:03002B00021FE8C9
:03003300021FBDEC
:0300530002279EE3
:03006B00021F92DF
:10008300022597E5C754F84401F5C779012200001A
:100093000080FB120086B90003020107E47921788E
:1000A30008B800028004F709D8FCE479297802B87B
:1000B30000028004F709D8FCE490028178C1790832
:1000C3008002F0A3D8FCD9FA781A90014D7A01BACC
:1000D30000028007E493A3F608DAF9900A41AA82A2
:1000E300AB8390014E78EE79058015E493A3AC823F
:1000F300AD838A828B83F0A3AA82AB838C828D83A8
:10010300D8E9D9E77582B5758395740412012F7503
:100113008291758300740012012F75D00075813FA1
:10012300751881751902759F00020096C09FF59F8F
:10013300E473D09F22D083D082C09FE493C0E07445
:100143000193C0E0740293F59F2201FFFF1101990F
:10015300010F12640401023F82010000148202278E
:1001630082010000480A026382010000490A022951
:1001730082030000A6020237820100004A0A08092E
:1001830043474D2053696D02010505021F180A18E4
:1001930043474D2053696D756C61746F72000000A5
:1001A30000000000003F90000059E80334120000F3
:1001B30000000000000000D007EC00A800AF07001B
:1001C300001002020A0202002828023F82010000F6
:1001D3001D82022782010000B70A025B8200000031
:1001E3006403022982CC00005E030227820100001F
:1001F300B80A025982440000650302278201000005
:10020300B90A0255824400006603022782010000F6
:10021300BA0A025382CC000067030227820100005E
:10022300BB0A024F82440000BC0A0227820100007D
:10023300BE0A024D82CC00006E03022982CC00006C
:100243006803022782010000BF0A024B82CC000030
:100253007503022982CC00006F0300008911122369
:100263009B322446AD573665BF74488CC19D5AAF47
:10027300D3BE6CCAE5DB7EE9F7F88110080193333E
:100283001A22A5562C47B7753E64C99C408DDBBF27
:1002930052AEEDDA64CBFFF976E802218B3010021F
:1002A30099132667AF763444BD554AADC3BC588E07
:1002B300D19F6EEBE7FA7CC8F5D983310A209112FE
:1002C3001803A7772E66B5543C45CBBD42ACD99EE7
:1002D300508FEFFB66EAFDD874C904428D53166153
:1002E3009F702004A9153227BB364CCEC5DF5EEDC7
:1002F300D7FC6888E1997AABF3BA85520C439771BE
:100303001E60A1142805B3373A26CDDE44CFDFFDA6
:1003130056ECE9986089FBBB72AA06638F7214409E
:100323009D512225AB343006B9174EEFC7FE5CCC86
:10033300D5DD6AA9E3B8788AF19B87730E6295507D
:100343001C41A3352A24B1163807CFFF46EEDDDC66
:1003530054CDEBB962A8F99A708B088481951AA7DA
:1003630093B62CC2A5D33EE1B7F04008C919522B6E
:10037300DB3A644EED5F766DFF7C899400859BB715
:1003830012A6ADD224C3BFF136E0C1184809D33B4E
:100393005A2AE55E6C4FF77D7E6C0AA583B41886F6
:1003A30091972EE3A7F23CC0B5D14229CB38500A2E
:1003B300D91B666FEF7E744CFD5D8BB502A49996D5
:1003C3001087AFF326E2BDD034C1C3394A28D11A0E
:1003D300580BE77F6E6EF55C7C4D0CC685D71EE52A
:1003E30097F42880A1913AA3B3B2444ACD5B5669EE
:1003F300DF78600CE91D722FFB3E8DD604C79FF595
:1004030016E4A9902081BBB332A2C55A4C4BD779CD
:100413005E68E11C680DF33F7A2E0EE787F61CC475
:1004230095D52AA1A3B03882B193466BCF7A5448AD
:10043300DD59622DEB3C700EF91F8FF706E69DD454
:1004430014C5ABB122A0B9923083C77B4E6AD5588D
:100453005C49E33D6A2CF11E780F0202020202029C
:10046300020202010D0000001001023F82010000A0
:100473002082022782010000500D02458201000004
:100483007603022782010000510D0243820100001E
:100493006581022782010000520D024182010000A2
:1004A3005E81022782010000530D02658201000074
:1004B3001082022782010000540D023D82010000D8
:1004C3000082022782010000550D023B82010000D9
:1004D3000482022782010000560D023982010000C6
:1004E3000882022782010000570D02578201000093
:1004F3004281022782010000580D0261820100003F
:10050300590D01E803053F100AFF0001307503028E
:1005130001060000000000000000000000000000D1
:100523000000000000000000000000000000FFFFCA
:100533000600800CE803FF0000B400002800280038
:10054300283075A000A000A000A00000080008E06B
:1005530001F00010001000100010001000100050F7
:10056300005000500010001000D0070000000000F1
:10057300000F000100050030750700100001008125
:10058300FF00000000FFFD0D1B0E030EFF02020221
:1005930008025000A0000000E803023F82010000AF
:1005A3001A82022782010000830E022B82010000BF
:1005B3007205022782010000840E022D82010000D1
:1005C3008805022782010000850E022F82010000A8
:1005D3008A05022782010000860E0231820800008C
:1005E3008B05022782010000870E0233820100007F
:1005F300880EFFFF0100FF20023F820100001782E7
:10060300022782010000ED0E023582000000000087
:100613000229820300001A060F140F140F140F147B
:100623000F140F140F140F140F140F140F140F14AF
:100633000F14A316BB169D16120138C3A50312018E
:1006430038D8A50312013830A60312013897A60340
:10065300120138DFA60312013855A70312013884AB
:10066300A70312013892A703120138F6A703120158
:100673003834A8031201384FA803120138E7A8033E
:1006830012013890A90312013813AA031201384C3E
:10069300AA03120138D7AA031201382EAB031201A1
:1006A300388DAB031201389FAB03120138C5AB037E
:1006B300120138CEAB031201382DAD0312013804F9
:1006C30094041201383FC2031201381EC3031201FE
:1006D300387AC30312013894C303120138A5C30344
:1006E300120138A0C603120138C0C60312013860D4
:1006F300FD03120138A5FD03120138EBFD031201BE
:10070300387EFF031201388B9204120138A692043B
:10071300120138B692041201380D93041201380104
:10072300BC0312013821BC0312013825BD03120199
:100733003871BD0312013891BD03120138E4BD03C2
:1007430012013851BE0312013897BE03120138FB60
:10075300BE03120138ADC1031201382EC2031201C8
:1007630038768D04120138A68D04120138D68D0413
:10077300120138308E04120138EDFC0212013822C6
:10078300FD0212013811FE02120138F5FE021201B8
:1007930038642E0012013860300012013803310032
:1007A300120138493100120138DC3100120138EFEF
:1007B3003A001201386C3C00120138E23C0012018D
:1007C30038133D00120138173F00120138C03F00B3
:1007D3001201383946001201386E46001201389072
:1007E3004600120138964A00120138DD4A00120110
:1007F30038B24E00120138624F00120138EC520039
:10080300120138F655001201380D56001201380056
:1008130057001201384B5700120138C95700120113
:1008230038725800120138955800120138A3590044
:10083300120138CE5900120138E35900120138F879
:100843005900120138245A001201384F5A0012017C
:1008530038645A00120138795A00120138A95A0033
:10086300120138F45A001201381F5B0012013834A8
:100873005B00120138495B00120138945B001201DE
:1008830038BF5B00120138D45B00120138E95B000A
:10089300120138825C00120138E35C00120138094E
:1008A3005D00120138285D001201385D5E001201FF
:1008B30038B85F001201380F9604120138209604ED
:1008C300120138009E03120138699E031201387C1D
:1008D3009E03120138CD9E031201382C9F0312018F
:1008E300388B9F0312013835A1031201385AA5032F
:1008F300120138ADA50312013833FF01120138B8D4
:10090300FF0112013898CD03120138BDCD03120146
:1009130038F8CD03120138A79404120138C35F00DD
:10092300120138D162001201389164001201383C7F
:100933006500120138E06500120138796600120182
:1009430038A86600120138146700120138EE6B00F4
:10095300120138996C00120138096E0012013871C6
:100963006E00120138256F00120138E77100120181
:10097300382672001201389A7200120138F9720097
:10098300120138587300120138C77300120138BAC4
:100993007400120138007500120138457500120108
:1009A30038687500120138E37600120138F67600D4
:1009B300120138FF77001201383E78001201386ABD
:1009C3007800120138BD7800120138DE7800120178
:1009D30038227900120138747B00120138B57B008C
:1009E300120138607C00120138CB7C0012013808F8
:1009F3007E00120138B59004120138C6900412012A
:100A030038A49104120138AD8204120138488504D8
:100A13001201387E96041201383E8C041201384EBE
:100A23008C04120138688C04120138708D04120191
:100A330038A7F7031201384DF80312013869FA0396
:100A4300120138558704120138858704120138F5DD
:100A530087041201381988041201387588041201B9
:100A630038F088041201382D8904120138308904C2
:100A73001201388ED203120138B0D2031201384565
:100A8300D30312013835D40312013892D60312016D
:100A930038F2D6031201385BD703120138F87F000E
:100AA300120138008004120138F7810412013863FF
:100AB3008204120138AA82041201385685041201F5
:100AC30038BF85041201387D8604120138FC860480
:100AD30012013865E90312013897E9031201389FBF
:100AE300EA03120138C4EB0312013880EC0312014C
:100AF300382E8B03120138148C03120138618C03D6
:100B0300120138A48C03120138198D031201387AAB
:100B13008D03120138EF8D03120138CB8E031201BE
:100B230038D68F03120138579003120138FE910310
:100B33001201389492031201380793031201388388
:100B430093031201389A9303120138D194031201CB
:100B5300382B95031201382EDC01120138C6E0014F
:100B63001201389AE301120138C3E301120138EC90
:100B7300E3011201389EE40112013884E6011201F7
:100B830038BFE701120138F5EC011201382EED01EF
:100B930012013872ED0112013884EE01120138BEE0
:100BA3008F04120138D48F04120138039004120108
:100BB3003839900412013850900412013887900498
:100BC3001201389E90041201383C7E001201385302
:100BD3007E00120138847E00120138BF7E001201AC
:100BE30038E97E00120138137F001201382A7F0092
:100BF300120138417F00120138587F0012013881F9
:100C03007F00120138947F00120138AA7F0012017D
:100C130038BD7F00120138E47F001201381BF10256
:100C23001201381FF2021201384CF202120138A2EB
:100C3300F202120138C5F202120138D9F20212018E
:100C430038DBF202120138FEF20212013804F40218
:100C5300120138C8F4021201389DF5021201381846
:100C6300F6021201381BF602120138A3F602120132
:100C730038DEF60212013815F702120138A3F70223
:100C83001201387CF8021201387FF802120138DFB2
:100C9300F802120138EAF80212013869F902120166
:100CA300386CF9021201386FF90212013872F90235
:100CB30012013801FA021201380BFA021201381B31
:100CC300FA021201384BFA0212013858FA021201E1
:100CD300385BFA02120138DCFA02120138CAFB024D
:100CE3001201387CFC0212013879D703120138A1B2
:100CF300D703120138CFD70312013806D8031201E4
:100D03003864D803120138AFD803120138FAD80374
:100D13001201383AD90312013880D903120138AECF
:100D2300D9031201386BDA0312013875DA031201A1
:100D33003882DA03120138B5DA0312013881DB0392
:100D43001201388DDB03120138A5DB03120138AF22
:100D5300DB03120138B49104120138C29104120169
:100D630038DA9104120138F29104120138388F02F3
:100D7300120138E48F021201385F900212013880A9
:100D83009102120138BC91021201386592021201DC
:100D9300384C9302120138B09402120138079502BD
:100DA300120138889502120138789602120138C56B
:100DB30096021201384B97021201387D97021201F5
:100DC30038919902120138D39902120138F199022C
:100DD300120138749A02120138489B02120138102A
:100DE3009C02120138DEB403120138B1B5031201BB
:100DF300385AB603120138ADB6031201385DB70392
:100E0300120138E9B703120138D5B80312013804C7
:100E1300B90312013817BA031201385FBA0312017A
:100E23003834BB0312013870BB031201388CBB0387
:100E330012013831950412013815F1031201382BD0
:100E4300F10312013851F1031201386DF20312015B
:100E53003877F203120138ACF303120138A4F40318
:100E630012013871C803120138A1C903120138D421
:100E7300C9031201381ECA03120138E5CB0312015C
:100E830038299E02120138AD9E02120138F69E02E5
:100E9300120138DDA00212013896A2021201387243
:100EA300A30212013826A40212013863A702120119
:100EB3003811A80212013880A90212013812AB02BC
:100EC3001201384AAB02120138E7AB02120138446F
:100ED300EF01120138AEEF011201380DF1011201D9
:100EE300381DF1011201384AF101120138A1F10153
:100EF3001201384AF20112013851F3011201381B71
:100F0300F4011201387BF501120138BEF50112011B
:100F13003863F601120138B0F601120138D6F60132
:100F2300120138E4F801120138E9F801120138EE30
:100F3300FA011201383BFB01120138AEFB01120129
:100F430038E1FB0112013883FC011201382CFD0149
:100F530012013864FD0112013867FD01120138AF37
:100F6300FD01120138EFFD0112013846FE011201A5
:100F73003884FA0312013897FA03120138A5FA03E9
:100F8300120138EDFA0312013803FB031201384A48
:100F9300FB031201385EFC03120138EBFC03120160
:100FA3003836FD0312013868820112013874820158
:100FB300120138AF8201120138F48201120138B4F0
:100FC30083011201383A8401120138668401120147
:100FD300389F8401120138DD8601120138C188016E
:100FE300120138A78A01120138EA8B01120138383D
:100FF3008E011201384A8F011201389590011201B6
:1010030038A59101120138C29101120138FD9101F5
:101013001201381F920112013882920112013843E2
:101023009701120138D8970112013829980112014A
:1010330038509801120138A29801120138C0980162
:101043001201381A9901120138199A011201389DB7
:101053009A0112013836DC0312013840DC03120115
:101063003883DC031201389EDC031201382EDD03C2
:1010730012013856DD0312013893DD03120138CA19
:10108300DD03120138F3DD0312013868DE031201B8
:10109300387DDE0312013892DE03120138C3DE030A
:1010A300120138D7DE03120138FCDE031201383691
:1010B300DF0312013862DF03120138E5DF03120197
:1010C300382EE00312013858E00312013883E0039D
:1010D300120138988E0412013848E402120138765E
:1010E300E402120138C4E502120138A4E602120137
:1010F30038C3E60212013840E70212013883E702DF
:10110300120138D9E8021201389AE9021201382192
:10111300EC02120138C2EC02120138B8ED021201DE
:1011230038B5EE021201380FF0021201389AF002BC
:10113300120138E38A041201384C8B04120138A0DF
:101143008B04120138C78B04120138F88B04120187
:1011530038ABE00312013818E1031201385FE103F1
:1011630012013877E20312013873E3031201385690
:10117300E403120138979503120138D9950312013C
:1011830038AB96031201388497031201387E980313
:10119300120138609903120138C999031201387F8B
:1011A3009A03120138F39A031201385F9B03120169
:1011B30038889B03120138029C031201389B9C035D
:1011C300120138009D03120138159D031201385B8B
:1011D3009D03120138749D03120138D99D03120136
:1011E30038DC9D03120138AEF403120138D6F40340
:1011F30012013814F503120138D2F50312013839FC
:10120300F60312013855F6031201387DF603120175
:1012130038ADF603120138BCF60312013839F7036F
:101223001201385FF703120138008002120138DE21
:1012330081021201381084021201384C8402120117
:1012430038798402120138638502120138AE8502AF
:10125300120138F985021201380B86021201384B4C
:101263008602120138808602120138CE86021201EC
:1012730038FD86021201382087021201386D870279
:10128300120138F287021201380C8A021201384B1C
:101293008C021201388C8C021201382E8E0212013C
:1012A300386F8E02120138E28E0212013833D702F0
:1012B30012013831D802120138CADE02120138EBAA
:1012C300E002120138B6E2021201381EE4021201F2
:1012D30038049B01120138B39B01120138E09B01D2
:1012E300120138269C01120138669D01120138FC57
:1012F3009E01120138769F01120138919F0112015C
:10130300380CA00112013866A101120138C6A201EE
:10131300120138CCA3011201382DA5011201384660
:10132300A501120138A4A50112013892A6011201E8
:1013330038C5A60112013835A701120138AFA7013C
:10134300120138F9A701120138C3A8011201389814
:10135300A90112013877AA0112013802AB01120167
:101363003870AB01120138E4AB011201380FAC0144
:10137300120138CEAC0112013833AE0112013850DC
:10138300AE011201386FAE0112013860AF011201D4
:101393003885AF01120138AFAF011201382AB0010D
:1013A30012013884B001120138EDB1011201389BEA
:1013B300B201120138DCB2011201385FC902120115
:1013C30038ADC902120138B9C90212013897CA02ED
:1013D300120138C8CA02120138F9CA021201387957
:1013E300CB02120138B1CB0212013803CC02120135
:1013F3003840CC021201385DCE0212013883D0028C
:101403001201386ED20212013858D402120138592F
:101413002E001201381BC8011201384BC8011201FA
:101423003824CF01120138A9D001120138A6D60100
:101433001201388ED701120138CBD701120138EED1
:10144300D7011201381FD80112013828D80112011F
:101453003832D80112013820D90112013816DA01C5
:101463001201380CB3011201380BB7011201381104
:10147300B7011201384CBE0112013865C3011201D4
:101483003847ED03120138DDED03120138F3ED03A4
:1014930012013869EE03120138DDEE031201381B25
:1014A300EF031201388FEF0312013808F003120122
:1014B3003811F0031201381DF00312013832F00322
:1014C30012013870F00312013886F003120138E577
:1014D300F00312013818E50312013825E503120160
:1014E300383FE5031201387EE503120138BCE503FA
:1014F30012013821E60312013836E603120138419E
:10150300E6031201384EE60312013865E6031201C1
:101513003873E6031201387EE6031201388AE603C4
:1015230012013899E603120138A4E603120138C701
:10153300E6031201386EE7031201387EE703120156
:101543003898E703120138B5E703120138D1E703EE
:10155300120138F6E70312013801E80312013816C5
:10156300E8031201382AE8031201388BE803120159
:101573003891E80312013897E8031201389DE80314
:10158300120138B5E803120138E8E80312013835CF
:10159300BB02120138B9BB0212013868BC02120146
:1015A30038C7BD02120138E8BF02120138D4C002A5
:1015B30012013809C1021201382BC102120138DAB3
:1015C300C102120138D2C302120138FBC302120155
:1015D300388DC402120138BFC402120138CCC402D0
:1015E30012013823C50212013849C502120138B667
:1015F300C702120138B9C80212013811C902120117
:1016030038C4AC02120138CEAD02120138B5AE02B5
:10161300120138BFAE02120138E1AE02120138EDF9
:10162300AE0212013886B002120138B5B0021201BF
:1016330038D1B1021201382AB20212013890B30232
:101643001201386FB402120138CBB40212013838D8
:10165300B50212013873B502120138B2B502120194
:10166300386BB80212013885B80212013811B90279
:101673001201381FB90212013878B90212013886F3
:10168300B902120138F9B9021201385DBA02120126
:1016930038A7BA02120138008003120138228003EE
:1016A3001201384882031201385D8503120138752F
:1016B30086031201382887031201380A88031201AE
:1016C300383E8904120138638904120138D589042C
:1016D30012013864AD031201386DAD03120138767F
:1016E300AD031201384DAE03120138FEAF031201F0
:1016F3003834B0031201386EB003120138A4B003BA
:10170300120138DEB00312013812B1031201383E60
:10171300B10312013887B103120138C1B1031201B9
:10172300380AB20312013862B20312013897B203C6
:10173300120138F2B2031201382CB3031201387DBF
:10174300B303120138B3B303120138EDB30312012B
:10175300381BB4031201383EB40312013859930401
:10176300120138859304120138E09304120138EA18
:101773009304120138FA9304120138C2FF031201D1
:1017830038609604A2E792D65002F40430F7066359
:10179300F0FF05F0B3400384800384F40430D605DE
:1017A30063F0FF05F022E066701008A3E066700A9C
:1017B30008A3E066700408A3E06622C3E79608095D
:1017C300E7960809E7960809E796A2D265D033227F
:1017D300C008C3E096F50808A3E096420808A3E012
:1017E30096420808A3E0964208A2D265D033E508E2
:1017F3007001D3D00822C3E7960809E7960809E7E2
:10180300960809E79622C3E09608A3E09608A3E0AA
:101813009608A3E09622C008C3E096F50808A3E063
:1018230096420808A3E096420808A3E0964508708C
:1018330001D3D00822080808EAC0E0EBC0E086F034
:10184300E7A4FA180986F0E7A42AFA180986F0E74C
:10185300A42AFA180986F0E7A42AFA1986F0E7A45D
:10186300FBE5F02AFA190886F0E7A42BFBE5F03A2A
:10187300FA190886F0E7A42BFBE5F03AFA181809E1
:1018830086F0E7A4C5F02BFBE43AFA1908E7C5F0A4
:10189300C6A426F6E5F03BFBE43AFA1886F0E7A483
:1018A300F6E5F00826F6E43B08F6E43A08F6D0E05D
:1018B300FBD0E0FA22E4CFC0E0E4CEC0E0E4CDC048
:1018C300E0E4CCC0E075F020C3E633F608E633F677
:1018D30008E633F608E633F6181818EC33FCED3354
:1018E300FDEE33FEEF33FFC3EC9709ED9709EE9757
:1018F30009EF97191919400FFFEC97FC09ED97FDB4
:1019030009EE97FE191906D5F0BEECF709EDF709B4
:10191300EEF709EFF7191919D0E0FCD0E0FDD0E09C
:10192300FED0E0FF221219901818181218B81219D5
:101933007F1919192212197F191919080808E618AD
:10194300181820E7E01218B812199018181822096D
:101953000909E719191920E7DC080808E618181817
:1019630020E7030218B81219901818181218B812A1
:10197300199018181812197F19191922E4C397F727
:1019830009E497F709E497F709E497F722E4C39684
:10199300F608E496F608E496F608E496F62260164E
:1019A300080808C6C313C618C613C618C613C61834
:1019B300C613C6D5E0EA2270090808082260161883
:1019C3001818C6C333C608C633C608C633C608C606
:1019D30033C6D5E0EA22E627F60809E637F6080912
:1019E300E637F60809E637F622E026F608A3E036DE
:1019F300F608A3E036F608A3E036F622E026F00860
:101A0300A3E036F008A3E036F008A3E036F022C3E3
:101A1300E697F60809E697F60809E697F60809E651
:101A230097F622C3E0C696F608A3E0C696F608A387
:101A3300E0C696F608A3E0C696F622C3E096F00841
:101A4300A3E096F008A3E096F008A3E096F022E660
:101A530057F60809E657F60809E657F60809E65760
:101A6300F622E056F608A3E056F608A3E056F60879
:101A7300A3E056F622E056F008A3E056F008A3E0F0
:101A830056F008A3E056F022E046F008A3E046F043
:101A930008A3E046F008A3E046F022E066F008A3BE
:101AA300E066F008A3E066F008A3E066F022E0F643
:101AB30008A3E0F608A3E0F608A3E0F622E6F008A0
:101AC300A3E6F008A3E6F008A3E6F022E0FAA3E019
:101AD300FBA3E0FCA3E0FD22EAF0A3EBF0A3ECF010
:101AE300A3EDF022CAC0E0E6F0A308DAFAD0E0FAE8
:101AF30022CAC0E0E0A3C582CCC582C583CDC5831D
:101B0300F0A3C582CCC582C583CDC583DAE6D0E018
:101B1300CA22C3E498F8E499F9121B568026C3E459
:101B23009AFAE49BFBE920E7E9121B56E498F8E4F0
:101B330099F922C3E498F8E499F9121B56E498F84A
:101B4300E499F9C3E49AFAE49BFB22EB20E7CFE99B
:101B530020E7E0B90010BB0008E88AF084F8AAF097
:101B630022E4FBC8FA22EB70227B10C833C8C933C6
:101B7300C9335007C39AC3DBF280069A50012ADBAC
:101B8300EAC833F4C8C933F4C9FA2275F008E4C8C3
:101B930033C8C933C933C99AC99B5004C92AC93B3D
:101BA300D5F0ECFBC833F4C8E4C9FA22600D08C6CB
:101BB300A2E713C618C613C6D5E0F322600C08C605
:101BC300C313C618C613C6D5E0F422700422600DF1
:101BD30018C6C333C608C633C6D5E0F41822251881
:101BE30010AF08F518400215198008F518400215C2
:101BF30019D2AF22C0D0251810AF08F5185002052E
:101C0300198008F51850020519D2AFD0D022251833
:101C1300F58210AF08F518400215198008F5184031
:101C2300021519D2AF851983222518F582E43519D7
:101C3300F58322E4732518C582C0E0E51934FFC596
:101C430083C0E0E518C3958224F810AF0885831993
:101C53008582188008858319858218D2AFCEF0A3B8
:101C6300E520F0A37808E608F0A3DEFAEFF0A3E599
:101C73008124FAF8E608F0A3E608F0A3E608F0A347
:101C83000808E608F0A3E608F0A315811581D0E063
:101C9300FED0E0F8158115811581E8C0E0EEC0E0C3
:101CA300222518C582C0E0E51934FFC583C0E0E5ED
:101CB30018C3958224F910AF08858319858218808B
:101CC30008858319858218D2AFCEF0A3E520F0A34F
:101CD3007808E608F0A3DEFAEFF0A3E58124FBF829
:101CE300E608F0A3E608F0A30808E608F0A3E60870
:101CF300F0A315811581D0E0FED0E0F815811581A0
:101D0300E8C0E0EEC0E022851983851882E0A3FED7
:101D1300E0A3F5207808E0A3F608DFFAE0A3FFE0EC
:101D2300A3C0E0E0A3C0E0E0A3C0E0E0A3C0E0E024
:101D3300A3C0E010AF0885821885831980088582C7
:101D430018858319D2AFD083D082020135851983D8
:101D5300851882E0A3FEE0A3F5207808E0A3F60847
:101D6300DFFAE0A3FFE0A3C0E0E0A3C0E0E0A3C08C
:101D7300E0E0A3C0E010AF088582188583198008CE
:101D8300858218858319D2AFD083D08222C0D02513
:101D930018C582C0E0E51934FFC583C0E0E518C368
:101DA300958224F310AF08858319858218800885EE
:101DB3008319858218D2AFC8F0A3E9F0A3EAF0A390
:101DC300EBF0A37908E709F0A3D8FAECF0A3EDF060
:101DD300A3EEF0A3EFF0A3D0E0F0A3D0E0F0A3D004
:101DE300E0F0A3E520F0A3E5F0F0A32285198385B5
:101DF3001882E0C0E0A3E0F9A3E0FAA3E0FBA37834
:101E030008E0F608A3DFFAE0FCA3E0FDA3E0FEA3ED
:101E1300E0FFA3E0C0E0A3E0C0E0A3E0F5D0A3E0CF
:101E2300F520A3E0A3F5F010AF0885831985821888
:101E33008008858319858218D2AFD082D083D0E001
:101E4300F8D0E03274048006740280027401C0E0AA
:101E5300F404121C11D0E0121AE7227404800474F3
:101E6300028000CCC0E0EDC0E0E518C39CCCAD1906
:101E730050011D10AF068C188D1980068C188D1912
:101E8300D2AF121AF4D0E0FDD0E0FC22D083D0828E
:101E9300E9C0E0E493A3C386F0C5F095F0F908E444
:101EA30093A386F0C5F095F0700BE493A3C3994018
:101EB30005E9048002A3E475F002A42582F582E516
:101EC300F03583F583D0E0F9E493A3C0E0E493C055
:101ED300E022D083D082ECC0E0EDC0E0E493A3FC29
:101EE300E493A3FDED4C600D121F21EC24FFFCEDE8
:101EF30034FFFD80EFE493A3FCE493A3FDED4C607A
:101F03000D121F60EC24FFFCED34FFFD80EFD0E0E9
:101F1300FDD0E0FCE493A3C0E0E493C0E022C0E082
:101F2300C3E49396087401939618400FE493667084
:101F33000808740193661870007019A3A3C3E4938F
:101F430096087401939618A3A3400DD0E0D0E0D077
:101F5300E0021F11A3A3A3A3A3A3D0E022C0E0C068
:101F6300F088F0E4936670080874019366187000B3
:101F7300A8F0A3A3700BD0F0D0E0D0E0D0E0021F14
:081F830011A3A3D0F0D0E0226D
:101F8C00C2AF02000022C0E074F2121D90A2AFE4B6
:101F9C0033FED2AFE589A2E15003120A61758900C4
:101FAC00C2C5751A00EEF8EEA2E092AF7F01021DD9
:101FBC00EFC0E074F2121D90A2AFE433FED2AFE595
:101FCC008BA2E05003120A61758B00C2E8751A00EF
:101FDC00EEF8EEA2E092AF7F01021DEFC0E0C0D0A0
:101FEC00E8C0E0E9C0E0A2AFE433F8D2AFC2C775F5
:101FFC001A00E8F9E8A2E092AFD0E0F9D0E0F8D00E
:10200C00D0D0E03274F5121CA4EAFEEBFFEE2434BF
:10201C00F8EF3400F988088909EE2435F582EF349D
:10202C0000F583E0F8EE2437F582EF3400F583E019
:10203C00F50AEC850AF0A4FCAAF0850AF0EDA42AB6
:10204C00FDE82CF8E43DF97A257B00121B56EA8555
:10205C000882850983F0F8740758F97401B90002F5
:10206C008004C333D9FCFAE8131313541FF8EE2879
:10207C00F8EF3400F9E8245DF582E93400F583E0EB
:10208C005A6008EE2434F582EF802CEE2434F5826D
:10209C00EF3400F583E0C0E0EE2436F582EF340037
:1020AC00F583E0F5F0D0E084A8F0EE28F8EF3400EA
:1020BC00F9E82438F582E93400F583E0F97F04026D
:1020CC001D5074F5121CA4EAFEEBFFEE2434F582CD
:1020DC00EF3400F583E0C0E0EE2435F582EF3400F8
:1020EC00F583D0E0F08E828F83A3A3A3A3A3A3A335
:1020FC00C082C0838E828F83A3A3A3A3A3E0F8A383
:10210C00E0F9D083D082E0C398F508A3E099F509F3
:10211C00EE247FF582EF3400F583E064017069EE04
:10212C002480F582EF3400F583E0F8A3E0F98E8289
:10213C008F83A3A3A3A3A3A3A3E0FCA3E0FD8E82A0
:10214C008F83A3A3A3A3A3E0FAA3E0FBC3EA9CEBB6
:10215C009D5010C3EC98ED99402EC3EA98EB995022
:10216C0027800EC3EA98EB994007C3EC98ED994091
:10217C00177CDD7D07EEFAEFFB12136DEE247FF575
:10218C0082EF3400F583E4F0EE2434F8EF3400F9F8
:10219C00E8FCE9FDEE2435F582EF3400F583E0F838
:1021AC00EE2437F582EF3400F583E0F50AE5088577
:1021BC000AF0A4F508AAF0850AF0E509A42AF509A5
:1021CC00E82508F8E43509F97A257B00121B56EA54
:1021DC008C828D83F0F8740758F97401B900028071
:1021EC0004C333D9FCFAE8131313541FF8EE28F880
:1021FC00EF3400F9E8245DF582E93400F583E05A08
:10220C006008EE2434F582EF802CEE2434F582EF56
:10221C003400F583E0C0E0EE2436F582EF3400F5AF
:10222C0083E0F5F0D0E084A8F0EE28F8EF3400F964
:10223C00E82438F582E93400F583E0F9122E4B02DC
:10224C0020C9C082C083851882851983E0F8A3E079
:10225C00F9C3EA9CEB9D5010C3EC98ED99401BC35D
:10226C00EA98EB995014800EC3EA98EB994007C397
:10227C00EC98ED994004790180027900D083D082EA
:10228C0022EAC39CFAEB9DFB2274EF121CA490066D
:10229C00A3E064086005E06407702A9061C8E06000
:1022AC00249006D1E0F4601DE0F875F003A4C8AAF0
:1022BC00F02AF974D328FE740639FF8E828F83A31B
:1022CC00A3A3E070030223C5906060E0C0E0EE249D
:1022DC0068F582EF3400F583D0E0F0750C46750D8F
:1022EC0008750800750900E5D914F50AE5D95403F9
:1022FC00F50E60177403650E605CE50A6010EE2441
:10230C0067F582EF3400F583E070030223AA90088E
:10231C0041E06401602AEE2482F582EF3400F583FB
:10232C00E06004780480027800850A08E508C39808
:10233C00FA95E0FB12123B8A088B09EA45097005F5
:10234C001215718074EE2482F582EF3400F583E06F
:10235C0070048A0C8B0DE50A6012850C82850D8346
:10236C00F50BE5D9F0A3150BE50B70F6EE2482F511
:10237C0082EF3400F583E0604474FC250AF50A789A
:10238C000C121E4BAC0AA90EEEFAEFFB12140974D8
:10239C0002121BF7E97026AA08AB09120AC1793D93
:1023AC008E828F83A3A3A3A3E0FA7B0012110FEEFE
:1023BC00FAEFFB12138512141B79008074740365F9
:1023CC000E6056850A107511007810121E4BAC0C5D
:1023DC00AD0DAA08AB091213E57402121BF7EE241B
:1023EC0068F582EF3400F583E064807004747F80BC
:1023FC0001E0F50C780C121E4FE50EF50C780C1262
:10240C001E4FA90AAC08AD099006D1E0FA7B001268
:10241C0010D37402121BF780139006A3E0640860BB
:10242C000BAC0CAD0DEEFAEFFB12147512157D7999
:10243C00017F0A021D5074F5121CA474FC121BE1DE
:10244C00EAFEEBFF8908A2AFE433F509C2AF806A5C
:10245C00EE2463F8EF3400F97A007B00A2AFE4338A
:10246C00F50AC2AF88828983E0FCA3E0FDEC4D60E5
:10247C003A88828983E0FAA3E0FB8A828B83E0FCB2
:10248C00A3E0FD88828983ECF0A3EDF08A828B8334
:10249C00E4F0A3F088828983E0FCA3E0FDEC4D70AE
:1024AC000A88828983A3A3E4F0A3F0E50AA2E09250
:1024BC00AF120AC19007E4E004F0EE2463F582EF5A
:1024CC003400F583E0F8A3E0F9E849603DEE2463BD
:1024DC00F582EF3400F583E02402FAA3E03400FB2C
:1024EC00EA2402F50AEB3400F50B780A121E4B8A2B
:1024FC00828B83E0FCA3E0F9EEFAEFFB1213A974D4
:10250C0002121BF7E9700302245C9007E4E060639D
:10251C009007E5E0F89007E4E0C398500C7402656E
:10252C000870509007E6E0604A8E828F83A3A3A3C5
:10253C00A3E0851882851983F0A3E4F09007E4E00A
:10254C00F87402121C2CE8F0A3E4F09007E4E0F815
:10255C009007E3E028F07402121C2CAC82AD83854A
:10256C001882851983AA82AB8379011210DF900738
:10257C00E4E4F0E509A2E092AF7404121BF7022028
:10258C00C90000008521878522C622C0E0C0D0E8A2
:10259C00C0E0E9C0E0EAC0E0EBC0E0ECC0E0EDC0B8
:1025AC00E0EEC0E0C008C009C00AC00BC082C08306
:1025BC00C0F0A2AFE433FEC2AF759B00906182E025
:1025CC00A2E05012E591A2E0500C7591FE740165E9
:1025DC00217003122295E0A2E55051E591A2E5503D
:1025EC004B7591DF9006A3E064076005E06408700A
:1025FC002374016521703579019006D1E0FA75F0EC
:10260C0003A4CAA8F028FB74D32AFA74063BFB1265
:10261C0024428018E0640D70139006C5E004F06449
:10262C00287002E4F07A00E0F9121583906182E0E0
:10263C00A2E640030226DEE591A2E640030226DE76
:10264C007591BF9006A3E0640570081214AB1214C8
:10265C00B780031214B1752100121511E99006A46C
:10266C00F079001215051212E37A017B009006A294
:10267C00E0F9120695907803E06442705590084595
:10268C00E014F0704DC2AF12269600782AD0E0F616
:10269C0018D0E0F6E59F540770057509FF800375A7
:1026AC00097FC4C0E07829E6F50808E65509F50964
:1026BC00740B7808121BBFD0E02508F8906270E00C
:1026CC00A2E740F8E8C333906272F0906270E0D2F7
:1026DC00E0F0906181E0A2E35009E5E9A2E3500348
:1026EC0075E9F7A3E0A2E75009E591A2E75003755D
:1026FC00917FEEA2E092AFD0F0D083D082D00BD0FD
:10270C000AD009D008D0E0FED0E0FDD0E0FCD0E04B
:10271C00FBD0E0FAD0E0F9D0E0F8D0D0D0E032C075
:10272C00E0C0D0C082C083906183E0A2E05009E594
:10273C00BFA2E0500375BFFEE0A2E15009E5BFA2C5
:10274C00E1500375BFFDE0A2E25009E5BFA2E250E3
:10275C000375BFFBE0A2E35009E5BFA2E35003758C
:10276C00BFF7E0A2E45009E5BFA2E4500375BFEF48
:10277C00E0A2E55009E5BFA2E5500375BFDFE0A27A
:10278C00E65009E5BFA2E6500375BFBFD083D082E7
:10279C008088C0E0C0D0E8C0E0E9C0E0EAC0E0EB6F
:1027AC00C0E0ECC0E0EDC0E0C0F0E5A7A2E6500F41
:1027BC00E5A1A2E6500953A7BF75A1BF122803E5F6
:1027CC00A7A2E5500CE5A1A2E5500653A7DF75A121
:1027DC00DFE5A7A2E15009E5A1A2E1500375A1FD37
:1027EC00E5A7A2E2500CE5A1A2E2500653A7FB75A7
:1027FC00A1FBD0F002271474F8121CA475210190CF
:10280C0006A3E0640670151214398A828B83A3A385
:10281C00A3A3A3A3E0FAA3E0FB121499A2AFE433A1
:10282C00FED2AF9006A9E0640170187A207B00906C
:10283C0006A2E0F91207437A207B009006A2E0F989
:10284C0012069B906182E0D2E6F0900842E0602193
:10285C0085C62280169006A8E064017008E5C6546F
:10286C00F84405F5C653BEFC122590740165216031
:10287C00E4EEA2E092AF7F01021D50008E238F2464
:10288C00858228858327851882851983E0CEA3E06D
:10289C00CF852882852783EBC9EAC8EDCBECCA75B6
:1028AC00F010C3E833C8E933C9EA33CAEB33CBC3FE
:1028BC00EA9EF526EB9FF525B35004AB25AA26EC32
:1028CC0033CCED33CDD5F0DAAE23AF242274E9123C
:1028DC001CA474F8121BE1851882851983ECF0A3F3
:1028EC00EDF08A088B099006A3E024F7C3940550F9
:1028FC0006750801022A701214398A0A8B0BAE0A6B
:10290C00AF0BEE4F7003022A6DAC08AD09740212C6
:10291C001C2CAA82AB831214C98E828F83A3A3753D
:10292C000CFF750DFF750EFF750F00780C121A65F4
:10293C007402121C2C7510FF7511FF7512FF7513A4
:10294C00007810121A65780C79101217F9502A7841
:10295C000C7910121A127508017509C8750A0075E0
:10296C000B007808790C1217F95052850C08850D5C
:10297C0009850E0A850F0B80507514017515C875E5
:10298C00160075170085100885110985120A851324
:10299C000B7808790C121A12781479081217F9406E
:1029AC001C750800750900750A00750B017808790B
:1029BC0010121A127808790C1219D9800C750801AA
:1029CC00750900750A00750B00740978081219BA9C
:1029DC00750C19F50DF50EF50F7808790C1218B861
:1029EC008E828F83A3A3A3A3A3A3E0F8A3E0F97A19
:1029FC00D07B03121B56880C890DE4F50EF50F786D
:102A0C0008790C1219D97406121C2CE0F8A3E0F901
:102A1C007AD07B03121B56E8FA8A0CE4F50D780881
:102A2C00790C1217F950077808790C121A129006C3
:102A3C00A3E06408600AE064066005E06405702D9C
:102A4C00750C0D780C79081217F94021750CF4757A
:102A5C000DFF750EFF750FFF7808790C1219D980D0
:102A6C000C750800750900750A00750B0085188235
:102A7C00851983E0F8A3E0F58388827808121AC0E0
:102A8C007408121BF77F10021D5074F7121CA4124D
:102A9C0014DB900840E064017010906245E4F0A3F0
:102AAC00F053F4F343FE0C5390F3121487E5C65421
:102ABC00804449F5C6E59E547F644970F890618561
:102ACC00740FF090083EE0F47002A3E0604E9008A2
:102ADC003FE0600814601B14602E8040750801757F
:102AEC00090090083EE07808121BCEE508F45280ED
:102AFC00802A75080175090090083EE07808121BC1
:102B0C00CEE508F452908014750801750900900800
:102B1C003EE07808121BCEE508F452A079007F0243
:102B2C00021D5074F7121CA4E9FEEAFF74016E70CA
:102B3C000C7A807B009006A2E0F9120695902E5C30
:102B4C00E493F46008E493F91212D7800953C68019
:102B5C00E59E547F70FA12148D900840E064017069
:102B6C00031212EF90083EE0F47002A3E0604B9069
:102B7C00083FE0600814601A14602C803D75080151
:102B8C0075090090083EE07808121BCEE5084280DB
:102B9C00802875080175090090083EE07808121B22
:102BAC00CEE5084290801375080175090090083E27
:102BBC00E07808121BCEE50842A01214DB1214397F
:102BCC008A088B09A808A909E8496015E5E170FC99
:102BDC00E82414F582E93400F583E0F46003E0F5B1
:102BEC00E174016F700A7A019006A2E0F9120713E2
:102BFC00022B2A74ED121CA48A088B098C0A8D0BEB
:102C0C007413121C2C780C121AB17808790C121748
:102C1C00F97510017511C8751200751300501278F2
:102C2C0008790C121A12781079081217F9501680BC
:102C3C0010780C7908121A127810790C1217F940C6
:102C4C00047901800279007F0C021D5074ED121C76
:102C5C00A48A088B098C0A8D0B7413121C2C780C0B
:102C6C00121AB1780C79081217F940117808790CFE
:102C7C00121A12AA08AB09AC0AAD0B80227510000F
:102C8C007511007512007513017810790C121A1257
:102C9C00781079081219D9AA10AB11AC12AD1380A7
:102CAC00A68A828B837508FF7509FF750AFF750B61
:102CBC00007808121A787F04021D5074F5121CA4B7
:102CCC008C828D837808121AB18A828B83780812D1
:102CDC001A3EEA2404F8EB3400F98C828D83A3A30A
:102CEC00A3A3E0FCA3E0FD88828983C3E09CF0A34E
:102CFC00E09DF088828983C3E09420A3E0944E4049
:102D0C00268A828B837508FF7509FF750AFF750B80
:102D1C00FF78081219FF8A828B83A3A3A3A3E02454
:102D2C0020F0A3E0344EF0022CAD74F5121CA4E993
:102D3C00FE9007F8E0FAA3E0FBEEC333F8E433F9B6
:102D4C00743228F582748139F583E02AF508A3E002
:102D5C003BF5097808121E4B7A407B427C0F7D00B4
:102D6C001228887402121BF78A088B098C0A8D0BA7
:102D7C00741078081219A1AA08AB097F04021D501F
:102D8C0074F1121CA48A0C8B0D8C0E8D0F740F1207
:102D9C001C2CE0FAA3E0FB7411121C2CE0F508A328
:102DAC00E0F5097808121E4BEA2401F508EB340013
:102DBC00F509E4F50AF50B780C7908121838750842
:102DCC0071750902780C7908121838AA0CAB0DAC85
:102DDC000EAD0F1228887402121BF78B09EA4509F5
:102DEC0060047A0180027A00EC2AFCED3400FD7458
:102DFC0013121C2CE0F8A3E0F9E8FEE9FFECF8ED67
:102E0C00F97A717B02121B56880889098E828F838E
:102E1C007808121AC0ECF8EDF97A717B02121B5685
:102E2C008A088B0974057808121BCE8E828F83A3B7
:102E3C00A3A3A3E508F0A3E509F07F08021D50C089
:102E4C0082C083E9906000F0D083D08222020135E9
:102E5C00FFFFFFFFFFFFFFFF74F7121C3874EC122B
:102E6C001BE1E9FE9002ACF07405121C2C7401F00D
:102E7C00740E121C2C7400F0A37400F07404121C59
:102E8C002C7401F0740C121C2C74C8F0A37400F098
:102E9C00740A121C2C7440F0A37406F07408121CF3
:102EAC002C7401F0A37400F07406121C2C74E8F05E
:102EBC00A37403F07405121C2CAC82AD8379017AD7
:102ECC00057B03120B57E9740E121C2CAC82AD83DC
:102EDC0079027A067B03120B57E97C747D0A790917
:102EEC007A087B03120B57E97C7D7D0A79097A07F6
:102EFC007B03120B57E97404121C2CAC82AD837942
:102F0C00017A107B03120B57E9740C121C2CAC8247
:102F1C00AD8379027A117B03120B57E9740A121CE8
:102F2C002CAC82AD8379027A127B03120B57E974B5
:102F3C0008121C2CAC82AD8379027A137B03120B22
:102F4C0057E97406121C2CAC82AD8379027A147B7F
:102F5C0003120B57E97C867D0A7A157900120E63F1
:102F6C00E97AC77B4C7C007D007410121C2CEAF0B3
:102F7C00A3EBF0A3ECF0A3EDF07403121C2C740281
:102F8C00F07402121C2C7401F07401121C2C7400CD
:102F9C00F08518828519837401F07410121C2CAC06
:102FAC0082AD8379047A087B0412091DE97403123B
:102FBC001C2CAC82AD8379017A007B0412091DE9CB
:102FCC007402121C2CAC82AD8379017A027B041240
:102FDC00091DE97401121C2CAC82AD8379017A03B2
:102FEC007B0412091DE9851882851983AC82AD8397
:102FFC0079017A067B0412091DE9120E81E9FF9012
:10300C0002ACE0F9120E879081A8121ACF120E6949
:10301C00E99081A8121ACF120FC5E99081A8121A53
:10302C00CF1208C3E9120905E9120779E97ACD7BB9
:10303C00071208C91207E57A017B009002ACE0F98F
:10304C00120695E990032C7400F07414121BF77F90
:10305C0001021D0A74F2121C38890AEAFEEBFFEE1B
:10306C005400F8EF5480F9E84960319002ACE0F973
:10307C0012067D8A0C8B0DA80CA90D88088909E80D
:10308C0049600FAA08AB0912079DAA08AB091206E2
:10309C006BE9EE6400FAEF6480FB8056EEA2E05020
:1030AC001B7AB37B0A120B63E9F5087AF47B811265
:1030BC00093BEE6401FAEF6400FB8036EE540260CB
:1030CC001B7A147B031207DF7A147B031207F112AD
:1030DC0007C1EE6402FAEF6400FB8016EE54046044
:1030EC000D1207FDEE6404FAEF6400FB80047A0015
:1030FC007B007F06021D0A74F7121C38EAFEEBFFF8
:10310C008E828F83E02440600924E0601B146021D0
:10311C0080268E828F83A3A3A3E0FA8E828F83A353
:10312C00A3E0F91207A38010EEFAEFFB1207A980B7
:10313C0007EEFAEFFB1207F77F01021D0A74F71274
:10314C001C3874FF121BE1E9FEEAFFA2E1507790F4
:10315C0002ADE06405606F7C207D007A067B001276
:10316C000CE9E97C207D007A077B00120CE9E97CF4
:10317C001E7D007A017B00120CE9E9851882851905
:10318C0083AC82AD837A057B03120B5DE9851882D3
:10319C00851983E07004740180027400851882859F
:1031AC001983F0851882851983AC82AD8379017AF5
:1031BC00057B03120B57E9851882851983E070068D
:1031CC009002B77401F07401121BF77F01021D0A03
:1031DC0074E8121C3874EC121BE18A088B09850800
:1031EC0082850983A3A3A3E0F5168508828509834C
:1031FC00A3A3E024FFF517E51614700302329D1407
:10320C00607124FE70030234B31470030235F2248F
:10321C00FE70030237A814700302380424FE7003F6
:10322C0002383014700302388C24FE7003023948C3
:10323C001470030239AC24FE70030238B814700306
:10324C0002391C24FE70030239D8147003023A3E72
:10325C0024FE70030239D8147003023A6924FE70FC
:10326C0003023A941470030233A3147003023476ED
:10327C00023ABD7E03900AA0E0F8A3E0F97AE87B5D
:10328C0003121B56E8851882851983F07F01023AD8
:10329C00D47E1CE5082404F8E5093400F988128969
:1032AC0013850882850983A3A3E024FFF517740115
:1032BC006517600E8518828519837403F07F0102EF
:1032CC003AD4851282851383E0701A7A027B0090BF
:1032DC0002ACE0F9120743E9900AA07400F0A37461
:1032EC0000F002338B851282851383E064FF703A01
:1032FC00900AA074E8F0A37403F090032CE064012E
:10330C00707D900AA0E0F50CA3E0F50DE4F50EF548
:10331C000F780C121E477A027B009002ACE0F91277
:10332C0007377404121BF7E98055851282851383C5
:10333C00E0F87900E875F0E8A4C8AAF075F003A4E9
:10334C002AFA75F0E8E9A42AF9900AA0E8F0A3E9B2
:10335C00F090032CE064017026900AA0E0F50CA319
:10336C00E0F50DE4F50EF50F780C121E477A027B92
:10337C00009002ACE0F91207377404121BF7E9E570
:10338C0016851882851983E516F07401121C2C74AD
:10339C0001F07F02023AD490032CE06401701A7E93
:1033AC001CE516851882851983E516F07401121C2C
:1033BC002C7404F07F02023AD4900AA0E0F8A3E047
:1033CC00F9E849701A7E1CE516851882851983E583
:1033DC0016F07401121C2C7404F07F02023AD41201
:1033EC00080312082190032C7401F09081A0780C32
:1033FC00121AB1900AA4780C121A7890032A74004D
:10340C00F0A37400F090032DE070167A007B007C22
:10341C00007D00900326EAF0A3EBF0A3ECF0A3ED03
:10342C00F09081F8121ACF1206D1900AA0E0F50C98
:10343C00A3E0F50DE4F50EF50F780C121E477A0299
:10344C007B009002ACE0F91207377404121BF7E909
:10345C007E1CE516851882851983E516F074011219
:10346C001C2C7401F07F02023AD47A027B00900289
:10347C00ACE0F9120743E990820C780C121AB19067
:10348C000AA4780C121A8B90032C7400F07E1CE5A5
:10349C0016851882851983E516F07401121C2C749C
:1034AC0001F07F02023AD4740A651760167E1C85FF
:1034BC0018828519837404F07401121C2C7403F0A7
:1034CC00023AD4850882850983A3A3A3A3E0FA7BDF
:1034DC0000850882850983A3A3A3A3A3E0F8790040
:1034EC00E4C8F9EA28F8EB39F990033AE8F0A3E9D3
:1034FC00F0850882850983A3A3A3A3A3A3E0FA7B89
:10350C0000850882850983A3A3A3A3A3A3A3E0F842
:10351C007900E4C8F9EA28F8EB39F990033CE8F0B3
:10352C00A3E9F0850882850983A3A3A3A3A3A3A37E
:10353C00A3E090033EF0850882850983A3A3A3A38F
:10354C00A3A3A3A3A3E0FA7B00850882850983A328
:10355C00A3A3A3A3A3A3A3A3A3E0F87900E4C8F9AE
:10356C00EA28F8EB39F990033FE8F0A3E9F0E50815
:10357C00240BF582E5093400F583E0FA7B00E508BD
:10358C00240CF582E5093400F583E0F87900E4C8F1
:10359C00F9EA28F8EB39F9900341E8F0A3E9F0E5F2
:1035AC0008240DF582E5093400F583E0900343F01F
:1035BC007401121C2CAC82AD837A3A7B0312080F77
:1035CC007A3A7B03120809E97401121C2CE064019D
:1035DC007004120815E97E1C851882851983740401
:1035EC00F07F02023AD4750C00750D00751400754D
:1035FC0015007402651760167E1C85188285198368
:10360C007405F07401121C2C7403F0023AD4850872
:10361C0082850983A3A3A3A3E0FA7B008508828596
:10362C000983A3A3A3A3A3E0F87900E4C8F9EA28CB
:10363C00F8EB39F988148915AA14AB151208278AE6
:10364C000E8B0F850E0C850F0D74FF650C700474BA
:10365C00FF650D70187E1C8518828519837405F022
:10366C007401121C2C7405F07F02023AD4A80CA928
:10367C000DE875F00AA4C8AAF075F000A42AFA7532
:10368C00F00AE50DA42AF9900338E028F8A3E039F4
:10369C00F9880A890B7E06850A82850B83E0F8A3DC
:1036AC00E0F9E8851882851983F0850A82850B83F9
:1036BC00E0F8A3E0F9E4E9F8C0E07401121C2CD0A6
:1036CC00E0F0850A82850B83A3A3E0F8A3E0F9E878
:1036DC00C0E07402121C2CD0E0F0850A82850B83AA
:1036EC00A3A3E0F8A3E0F9E4E9F8C0E07403121C2A
:1036FC002CD0E0F0850A82850B83A3A3A3A3E0C0A2
:10370C00E07404121C2CD0E0F0850A82850B83A394
:10371C00A3A3A3A3E0F8A3E0F9E8C0E07405121C8E
:10372C002CD0E0F0850A82850B83A3A3A3A3A3E08E
:10373C00F8A3E0F9E4E9F8C0E07406121C2CD0E020
:10374C00F0850A82850B83A3A3A3A3A3A3A3E0F80C
:10375C00A3E0F9E8C0E07407121C2CD0E0F0850A55
:10376C0082850B83A3A3A3A3A3A3A3E0F8A3E0F9EF
:10377C00E4E9F8C0E07408121C2CD0E0F0850A8251
:10378C00850B83A3A3A3A3A3A3A3A3A3E0C0E0746B
:10379C0009121C2CD0E0F07F0A023AD485088285ED
:1037AC000983A3A3A3A3E0FA7B0085088285098380
:1037BC00A3A3A3A3A3E0F87900E4C8F9EA28F8EBE3
:1037CC0039F9881089117401121C2CAC82AD83AAB2
:1037DC0010AB1112082D7401121C2CE0640170083E
:1037EC00AA10AB11120833E97E1C85188285198347
:1037FC007407F07F02023AD47E0990034AE0F8A3E2
:10380C00E0F9E8851882851983F090034AE0F8A363
:10381C00E0F9E4E9F8C0E07401121C2CD0E0F07F70
:10382C0002023AD4850882850983A3A3A3A3E0FAF4
:10383C007B00850882850983A3A3A3A3A3E0F87961
:10384C0000E4C8F9EA28F8EB39F9881089117401F9
:10385C00121C2CAC82AD83AA10AB1112084574015A
:10386C00121C2CE064017008AA10AB1112084BE971
:10387C007E1C851882851983740AF07F02023AD463
:10388C007E0C90034CE0F8A3E0F9E88518828519CA
:10389C0083F090034CE0F8A3E0F9E4E9F8C0E0749D
:1038AC0001121C2CD0E0F07F02023AD4E50824046B
:1038BC00F8E5093400F9881289138512828513837F
:1038CC00E0FA7B00851282851383A3E0F87900E48B
:1038DC00C8F9EA28F8EB39F9881089117401121C1F
:1038EC002CAC82AD83AA10AB111208637401121CAC
:1038FC002CE064017008AA10AB11120869E97E1C57
:10390C00E516851882851983E516F07F02023AD4F4
:10391C007E1290034EE0F8A3E0F9E8851882851931
:10392C0083F090034EE0F8A3E0F9E4E9F8C0E0740A
:10393C0001121C2CD0E0F07F02023AD4E5082404DA
:10394C00F8E5093400F988128913851282851383EE
:10395C00E0FA7B00851282851383A3E0F87900E4FA
:10396C00C8F9EA28F8EB39F9881089117401121C8E
:10397C002CAC82AD83AA10AB1112087B7401121C03
:10398C002CE064017008AA10AB11120881E97E1CAE
:10399C00E516851882851983E516F07F02023AD464
:1039AC007E0F900350E0F8A3E0F9E88518828519A2
:1039BC0083F0900350E0F8A3E0F9E4E9F8C0E07478
:1039CC0001121C2CD0E0F07F02023AD4E50824044A
:1039DC00F8E5093400F9881289138512828513835E
:1039EC00E0FA7B00851282851383A3E0F87900E46A
:1039FC00C8F9EA28F8EB39F9881089117401121CFE
:103A0C002CAC82AD83AA10AB111208937401121C5A
:103A1C002CE06401700AA916AA10AB11120899E9DE
:103A2C007E1CE516851882851983E516F07F020247
:103A3C003AD47E15900354E0F8A3E0F9E885188297
:103A4C00851983F0900354E0F8A3E0F9E4E9F8C099
:103A5C00E07401121C2CD0E0F07F02806B7E189079
:103A6C000352E0F8A3E0F9E8851882851983F090F9
:103A7C000352E0F8A3E0F9E4E9F8C0E07401121C89
:103A8C002CD0E0F07F0280409081F0780C121AB1BB
:103A9C00900AA4780C121A9E7E1CE5168518828555
:103AAC001983E516F07401121C2C7401F07F02804E
:103ABC00177E1CE516851882851983E516F07401AE
:103ACC00121C2C7402F07F02EFFC8518828519837E
:103ADC00AA82AB83EEF91207C77414121BF77F107E
:103AEC00021D0A74F6121C3874F6121BE1E9FE74FE
:103AFC00056E7003023C5D9002ADE064057072745B
:103B0C00056E606D7401121C2C7401F074046E70DF
:103B1C00267C207D007A067B00120CE9E97C207D56
:103B2C00007A077B00120CE9E97C1E7D007A017B90
:103B3C0000120CE9E980247C407D067A067B001299
:103B4C000CE9E97C407D067A077B00120CE9E97CE4
:103B5C001E7D007A017B00120CE9E97401121C2C09
:103B6C00AC82AD8379017A057B03120B57E9023CD9
:103B7C005D9002ADE06402707174036E706C900223
:103B8C00B7E060099002B77400F0023C5D7A067BE6
:103B9C0000120CEF8A088B097420650870047400FD
:103BAC0065096003023C5D8518828519837401F0F8
:103BBC007C407D067A067B00120CE9E97C407D0690
:103BCC007A077B00120CE9E97C1E7D007A017B00F0
:103BDC00120CE9E9851882851983AC82AD837901D1
:103BEC007A057B03120B57E9806774016E7062745F
:103BFC0002121C2CAC82AD837A047B03120B5DE9A0
:103C0C007407121C2CE0C0E07409121C2CD0E0F0DC
:103C1C007406121C2CE0C0E07408121C2CD0E0F0CE
:103C2C007405121C2CE0C0E07407121C2CD0E0F0C0
:103C3C007406121C2C7400F07405121C2C7400F009
:103C4C007402121C2CAC82AD837A08790012090B19
:103C5C00E9EE9002ADF0740A121BF77F02021D0A06
:103C6C0074F2121C388A088B09890A8C0B74016552
:103C7C000A705EE50B705A9002B5E0FAA3E0FB12F5
:103C8C0011FF8A0C8B0DA80CA90DE8FEE9FFE84981
:103C9C00603F8E828F83A3A3A3E0A2E25004D2F0F4
:103CAC008002C2F0A2F0E4339002AEF09002AEE0DB
:103CBC00601F750C06750D00780C121E4BEE24055A
:103CCC00FCEF3400FD7AAF7B021206417402121B2A
:103CDC00F77F06021D0A74F4121C388A088B09EC53
:103CEC00FEEDFF890A740C121C2CE0F50B9081EC94
:103CFC00121E5E7900EEFAEFFB1209417404121BDE
:103D0C00F7E97F04021D0A74F0121C387ED27F0280
:103D1C00900315E0F50A900314E08E828F83F08EE9
:103D2C00828F83A3AE82AF83E50A8E828F83E50AEE
:103D3C00F08E828F83A3AE82AF83900316E0F8A33C
:103D4C00E0F9E88E828F83F08E828F83A3AE82AFF0
:103D5C0083900316E0F8A3E0F9E4E9F88E828F83F0
:103D6C00F08E828F83A3AE82AF83900318E0F8A30A
:103D7C00E0F9E88E828F83F08E828F83A3AE82AFC0
:103D8C0083900318E0F8A3E0F9E4E9F88E828F83BE
:103D9C00F08E828F83A3AE82AF83E50AA2E7501A1E
:103DAC0090031A780C121AB1E50C8E828F83E50CF5
:103DBC00F08E828F83A3AE82AF83E50AA2E55021F9
:103DCC0090031A780C121AB17410780C1219A1E520
:103DDC000C8E828F83E50CF08E828F83A3AE82AF24
:103DEC0083E50AA2E6502590031A780C121AB185C5
:103DFC000C08850D09E4E509F508E5088E828F832A
:103E0C00E508F08E828F83A3AE82AF83E50AA2E031
:103E1C00503090031EE0F8A3E0F9E88E828F83F017
:103E2C008E828F83A3AE82AF8390031EE0F8A3E053
:103E3C00F9E4E9F88E828F83F08E828F83A3AE82B1
:103E4C00AF83E50AA2E15030900320E0F8A3E0F93B
:103E5C00E88E828F83F08E828F83A3AE82AF8390A5
:103E6C000320E0F8A3E0F9E4E9F88E828F83F08E6A
:103E7C00828F83A3AE82AF83900314E09002D1F0C3
:103E8C007508007509009002D1E0FC7D007AD27BA8
:103E9C00021208F98A0C8B0D850C08850D09E508B2
:103EAC008E828F83E508F08E828F83A3AE82AF83E0
:103EBC00A808A909E4E509A809E5098E828F83E51C
:103ECC0009F08E828F83A3AE82AF839002ACE0F9AF
:103EDC007CCF7D029002B5E0FAA3E0FB1208CFE99B
:103EEC00900AA0E0F50CA3E0F50DE4F50EF50F78C3
:103EFC000C121E477A027B009002ACE0F9120737D5
:103F0C007404121BF7E97F08021D0A74F2121C38A4
:103F1C0089088A0A8B0B8C09E5089002BBF07401A6
:103F2C0025099002BAF085090C750D00780C121E4B
:103F3C004BAC0AAD0B7ABC7B021206417402121B0D
:103F4C00F77E007F009002D1E0FC7D007AD27B02EC
:103F5C001208F98A0C8B0DAE0CAF0DEEC0E090027E
:103F6C00BAE0F8790074BB28F582740239F583D075
:103F7C00E0F0EEF8E50DA90DE4E50DA80DE50D90CA
:103F8C0002BAE0F8790074BC28F582740239F58322
:103F9C00E50DF09002BAE02402F09002ACE0F97C5E
:103FAC00B87D029002B5E0FAA3E0FB1208D5E97FD8
:103FBC0006021D0A74E8121C3874F4121BE1E9C0E5
:103FCC00E07402121C2CD0E0F0EAFEEBFF8C148D96
:103FDC00157424121C2CE0F516A3E0F51785188235
:103FEC00851983EEF0A3EFF07508007509007402D3
:103FFC00121C2CE014602F14602C24FB700302455F
:10400C00271470030245CB24FE601E14700302407B
:10401C00E81470030241DC147003024301147003B2
:10402C0002437A02462F02462F900A9B780C121AF2
:10403C00B1E50C8E828F83E50CF08E828F83A3AA60
:10404C0082AB83EAFEEBFF900A9B780C121AB1E468
:10405C00E50DF50CE50C8A828B83E50CF08E828FD6
:10406C0083A3AA82AB83EAFEEBFF900A9B780C1227
:10407C001AB17410780C1219A1E50C8A828B83E5A5
:10408C000CF08E828F83A3A882A983E8FEE9FF90AF
:10409C000A9FE088828983F07C047D0085188285E4
:1040AC001983E0FAA3E0FB1208F98A0A8B0B850A44
:1040BC0008850B098E828F83A3AE82AF83E508E55A
:1040CC0008F08E828F83A3AE82AF83A808A909E47F
:1040DC00E509A809E509E509F002462F1206D78A79
:1040EC000C8B0D8C0E8D0F900AA2E50CF0A3E50D38
:1040FC00F0900AA2E0F8A3E0F9E88E828F83F08EAC
:10410C00828F83A3A882A983E8FEE9FF900AA2E02C
:10411C00FAA3E0FBE4EBFA88828983F08E828F832A
:10412C00A3AA82AB83EAFEEBFF900AA4780C121AC6
:10413C00B1E50C8A828B83E50CF08E828F83A3AA67
:10414C0082AB83EAFEEBFF900AA4780C121AB1E45E
:10415C00E50DF50CE50C8A828B83E50CF08E828FD5
:10416C0083A3AA82AB83EAFEEBFF900AA4780C121D
:10417C001AB17410780C1219A1E50C8A828B83E5A4
:10418C000CF07C057D00851882851983E0FAA3E08C
:10419C00FB1208F98A0A8B0B850A08850B098E829B
:1041AC008F83A3AE82AF83E508E508F08E828F8300
:1041BC00A3AE82AF83A808A909E4E509A809E5091B
:1041CC00E509F0851482851583E02402F002462F60
:1041DC00900326121E5E7AA87B0A1206DD74041266
:1041EC001BF7900AADE0F8A3E0F9E88E828F83F01C
:1041FC008E828F83A3A882A983E8FEE9FF900AAD83
:10420C00E0FAA3E0FBE4EBFA88828983F08E828FDC
:10421C0083A3A882A983E8FEE9FF900AACE0888218
:10422C008983F08E828F83A3A882A983E8FEE9FF9D
:10423C00900AABE088828983F08E828F83A3A88258
:10424C00A983E8FEE9FF900AAAE088828983F08EB0
:10425C00828F83A3A882A983E8FEE9FF900AA9E0D4
:10426C0088828983F08E828F83A3A882A983E8FE3B
:10427C00E9FF900AA8E088828983F08E828F83A35D
:10428C00A882A983E8FEE9FF900AAFE088828983BF
:10429C00F08E828F83A3A882A983E8FEE9FF900A9F
:1042AC00B0E088828983F07C097D008518828519AD
:1042BC0083E0FAA3E0FB1208F98A0A8B0B850A0843
:1042CC00850B098E828F83A3AE82AF83E508E50848
:1042DC00F08E828F83A3AE82AF83A808A909E4E590
:1042EC0009A809E509E509F0851482851583E02400
:1042FC0002F002462F900AB1E0F8A3E0F9E88E82B2
:10430C008F83F08E828F83A3A882A983E8FEE9FFB6
:10431C00900AB1E0FAA3E0FBE4EBFA88828983F01F
:10432C007C027D00851882851983E0FAA3E0FB12DC
:10433C0008F98A0A8B0B850A08850B098E828F83F4
:10434C00A3AE82AF83E508E508F08E828F83A3AE1F
:10435C0082AF83A808A909E4E509A809E509E509DC
:10436C00F0851482851583E02402F002462F851413
:10437C0082851583E0C3940B500C851682851783B8
:10438C007480F002462F851482851583E0FC7D0035
:10439C00EEFAEFFB1208FFE9700C85168285178385
:1043AC007481F002462F8E828F83E0FA7B008E821E
:1043BC008F83A3E0F87900E4C8F9EA28F8EB39F91F
:1043CC007408121C2CE8F0A3E9F08E828F83A3A34F
:1043DC00E0C0E07407121C2CD0E0F08E828F83A317
:1043EC00A3A3E0C0E07406121C2CD0E0F08E828FE8
:1043FC0083A3A3A3A3E0C0E07405121C2CD0E0F0AF
:10440C008E828F83A3A3A3A3A3E0C0E07404121C29
:10441C002CD0E0F08E828F83A3A3A3A3A3A3E0C030
:10442C00E07403121C2CD0E0F08E828F83A3A3A324
:10443C00A3A3A3A3E0C0E0740A121C2CD0E0F08E5E
:10444C00828F83A3A3A3A3A3A3A3A3E0C0E0740BB5
:10445C00121C2CD0E0F0740A121C2CE0F91207D3B9
:10446C00E9600D740B121C2CE0F91207D9E9700CE1
:10447C008516828517837404F002462F7403121C70
:10448C002CAA82AB831206E98A0C8B0D8C0E8D0F35
:10449C00850C10850D11850E12850F1390032CE0E1
:1044AC00700A9003267810121AC080371206D79023
:1044BC000322121ADB85100C85110D85120E851343
:1044CC000F900322780C121A26AA0CAB0DAC0EAD71
:1044DC000F900326E50CF0A3E50DF0A3E50EF0A379
:1044EC00E50FF0900326121E5E7AA87B0A1206DDF9
:1044FC007404121BF7740A121C2CE0900AAFF074AF
:10450C000B121C2CE0900AB0F090032D7401F08576
:10451C0016828517837400F002462F7A177B0012DF
:10452C0006658A0C8B0D850C0A850D0BE50A450B6F
:10453C00700302462F850A82850B8374E0F0851484
:10454C0082851583E0850A82850B83A3A3F08514ED
:10455C0082851583E0F50C750D00780C121E4BEE60
:10456C00FCEFFDE50A2403FAE50B3400FB120641CF
:10457C007402121BF7AA0AAB0B1208A5E9700C8582
:10458C0016828517837480F002462F851482851558
:10459C0083E0FC7D00E50A2403FAE50B3400FB12F2
:1045AC0008FFE9700B8516828517837481F0807380
:1045BC00AA0AAB0B9002ACE0F9120671E980647A9E
:1045CC00177B001206658A0C8B0D850C0A850D0B6A
:1045DC00E50A450B604D850A82850B8374E1F085F5
:1045EC001482851583E0850A82850B83A3A3F0854D
:1045FC001482851583E0F50C750D00780C121E4B9A
:10460C00EEFCEFFDE50A2403FAE50B3400FB120681
:10461C00417402121BF7AA0AAB0B9002ACE0F91220
:10462C000671E9740C121BF77F10021D0AE9F8E8F9
:10463C0075F002121787E5F0600479008021E8C359
:10464C0094D1A2D265D033400BE8C39438A2D26582
:10465C00D0334005747F68700479018002790002C0
:10466C000135E9F87402686012740468600DE86042
:10467C000A740868600574FF687004790180027917
:10468C000002013574E8121C3874F2121BE174023A
:10469C00121C2CEAF0A3EBF07F007E067406121CB1
:1046AC002C7400F0A37400F085188285198374A40F
:1046BC00F0A3740AF0750C00750D00750E00750FE3
:1046CC00007A007B007C007D00740A121C2CEAF03E
:1046DC00A3EBF0A3ECF0A3EDF0900356E0F8A3E00D
:1046EC00F9900358E8F0A3E9F01208BD900356EADC
:1046FC00F0A3EBF0900356E0F8A3E0F97AFD7B070A
:10470C00121B56900356EAF0A3EBF0900356E0F818
:10471C00A3E0F97402121C2CE0FAA3E0F5838A8260
:10472C00A3A3E8F0A3E9F090032AE0F8A3E0F9745E
:10473C0002121C2CE0FAA3E0F5838A82A3A3A3A3A4
:10474C00E8F0A3E9F0900AA0E0F8A3E0F97AE87B9E
:10475C0003121B568808890990032AE02508F0A348
:10476C00E03509F090032AE0F8A3E0F9E84970037A
:10477C00024861900356E054FFF8A3E05407F9E4B3
:10478C00FAFB880C890D8A0E8B0F900358E054FFAE
:10479C00FAA3E05407FBE4FCFD740A121C2CEAF0AB
:1047AC00A3EBF0A3ECF0A3EDF0900AA0E0F8A3E0EB
:1047BC00F97AE87B03121B567408121C2CE8F0A340
:1047CC00E9F0850C08850D09850E0A850F0B740A16
:1047DC00121C2C7808121A269081C47814121AB163
:1047EC00780879141218387408121C2CE0F514A3EC
:1047FC00E0F515E4F516F5177808791412195285B9
:10480C000810850911850A12850B139081B8781050
:10481C001217D3500E7404121C2C74FEF0A37407E0
:10482C00F080329081B078101217D3400E740412BD
:10483C001C2C7402F0A3740FF0801A8510088511DB
:10484C0009E5084400F8E50944F0F97404121C2C3D
:10485C00E8F0A3E9F0900356E0FAA3E0FB1208B1EC
:10486C007406121C2CEAF0A3EBF0900356E0FAA3AA
:10487C00E0FB12081B8A088B098C0A8D0B851882A9
:10488C00851983E0F8A3E0F58388827808121A8BE7
:10489C00900356E0FAA3E0FB12083F8A088B098CC0
:1048AC000A8D0B851882851983E0F8A3E0F58388BF
:1048BC00827808121A8B900356E0FAA3E0FB1208D8
:1048CC00578A088B098C0A8D0B851882851983E011
:1048DC00F8A3E0F58388827808121A8B900356E0CF
:1048EC00FAA3E0FB12085D8A088B098C0A8D0B85F4
:1048FC001882851983E0F8A3E0F583888278081282
:10490C001A8B900356E0FAA3E0FB1208758A088B09
:10491C00098C0A8D0B851882851983E0F8A3E0F5C4
:10492C008388827808121A8B7404121C2CE0FAA368
:10493C00E0FB12088D8A088B098C0A8D0B85188276
:10494C00851983E0F8A3E0F58388827808121A8B26
:10495C00851882851983E0F8A3E0F5838882121A02
:10496C00CF7402121C2CE0F8A3E0C82406F582E8F0
:10497C003400F583121ADBD3EF92E0FFD392E1FF00
:10498C00851882851983E0F8A3E0F583888278087E
:10499C00121AB1E50854FF6005D3EF92E7FF8518B2
:1049AC0082851983E0F8A3E0F58388827808121ACF
:1049BC00B1E5085400F8E50954FFF9E8496005D35E
:1049CC00EF92E6FF851882851983E0F8A3E0F58362
:1049DC0088827808121AB19081907808121A65E5CD
:1049EC00084509450A450B6005D3EF92E5FFEFA298
:1049FC00E0502674022EFE7404121C2CE0F8A3E086
:104A0C00F97402121C2CE0FAA3E0CA240AF582EA1B
:104A1C003400F583E8F0A3E9F0EFA2E1502674022C
:104A2C002EFE7406121C2CE0F8A3E0F97402121C82
:104A3C002CE0FAA3E0CA240CF582EA3400F583E8F2
:104A4C00F0A3E9F0EFA2E550010EEFA2E650010E43
:104A5C00EFA2E750010E74022EFEC0E07402121C8D
:104A6C002CE0F8A3E0F5838882D0E0F0EFC0E0748E
:104A7C0002121C2CE0F8A3E0F5838882A3D0E0F0AE
:104A8C00740E121BF77F10021D0AC082C0837A8C31
:104A9C007B001206FB90032EEAF0A3EBF09003319F
:104AAC007400F09003307400F09003327400F090B6
:104ABC00032D7400F01208B71208211208391208DD
:104ACC005112086F12088712089FD083D0820201FE
:104ADC003574F0121C38890C8A088B098C0E8D0FDA
:104AEC007E007F00900331E070057906024EADE543
:104AFC000C14601E147003024CC214605814700322
:104B0C00024DEC147003024C64147003024C8302CB
:104B1C004EAB900332E0900333F0900332E0F8791F
:104B2C0000900331E0FA7B00E82AF8E93BF9E8242D
:104B3C00FFF8E934FFF97A0A7B00121B4EEA900366
:104B4C0034F0900331E0F87900900335F0A3E9F0EC
:104B5C007901024EAD900332E0F879008E0A750BA4
:104B6C0000250AF8E9350BF97A0A7B00121B4EEA8C
:104B7C00FFEFF87900E875F00EA4C8AAF075F00004
:104B8C00A42AFA75F00EE9A42AF990032EE028FA6B
:104B9C00A3E0398A82F583A3A3A3A3C3E09508A35A
:104BAC00E09509403CEF900333F0900332E0F87944
:104BBC0000900331E0FA7B00E82AF8E93BF9E8249D
:104BCC00FFF8E934FFF97A0A7B00121B4EEA9003D6
:104BDC0034F0900333E0F8900334E0C398404680FF
:104BEC001D0E900331E0F8EEC398400F900335741E
:104BFC0000F0A37400F07906024EAD024B619003F5
:104C0C0034E0F87900900333E0FA7B00E8C39AF8BB
:104C1C00E99BF9E82401F8E93400F9900335E8F050
:104C2C00A3E9F0802E900333E0F87900740AC3985E
:104C3C00F8740099F9900334E0FA7B00E82AF8E95B
:104C4C003BF9E8C394FFF8E994FFF9900335E8F0D9
:104C5C00A3E9F07901024EAD900332E0900333F0FA
:104C6C00900332E0900334F09003357401F0A37498
:104C7C0000F07901024EAD900332E0F87900900318
:104C8C0031E0FA7B00E82AF8E93BF9E824FFF8E97F
:104C9C0034FFF97A0A7B00121B4EEA900333F09032
:104CAC000333E0900334F09003357401F0A37400E7
:104CBC00F07901024EAD900332E0F879008E0A755E
:104CCC000B00250AF8E9350BF97A0A7B00121B4E0A
:104CDC00EAFFEFF87900E875F00EA4C8AAF075F0B9
:104CEC0000A42AFA75F00EE9A42AF990032EE02804
:104CFC00FAA3E0398A82F583A3A3A3A3E0F8A3E087
:104D0C00F9C3E50898E50999502FEE700F9003351B
:104D1C007400F0A37400F07906024EAD8F0A750B87
:104D2C0000E50A2409F8E50B3400F97A0A7B001235
:104D3C001B4EEA900334F080380E900331E0F8EE0D
:104D4C00C398402A900332E0F87900900331E0FADE
:104D5C007B00E82AF8E93BF9E824FFF8E934FFF98D
:104D6C007A0A7B00121B4EEA900334F08003024C4B
:104D7C00C2900332E0900333F0900333E0F89003D9
:104D8C0034E0C3984027900334E0F8790090033363
:104D9C00E0FA7B00E8C39AF8E99BF9E82401F8E90A
:104DAC003400F9900335E8F0A3E9F0802E9003333A
:104DBC00E0F87900740AC398F8740099F9900334F8
:104DCC00E0FA7B00E82AF8E93BF9E8C394FFF8E93C
:104DDC0094FFF9900335E8F0A3E9F07901024EADA8
:104DEC00C3E50E9508E50F950950057905024EAD02
:104DFC007C007D00AA08AB0979031207EBE9640675
:104E0C00601A900333E0F50B7C007D00AA0EAB0F0B
:104E1C0079021207EBE96406700780267906024EC8
:104E2C00AD900334E0F50AE50B900333F0E50A90FE
:104E3C000334F0900333E0F8900334E0C398402D32
:104E4C0080047906805B900334E0F879009003339A
:104E5C00E0FA7B00E8C39AF8E99BF9E82401F8E949
:104E6C003400F9900335E8F0A3E9F0802E90033379
:104E7C00E0F87900740AC398F8740099F990033437
:104E8C00E0FA7B00E82AF8E93BF9E8C394FFF8E97B
:104E9C0094FFF9900335E8F0A3E9F07901800279E9
:104EAC00087F08021D0A74F6121C38EAFEEBFF900C
:104EBC000332E0F87900900331E0FA7B00E82AF83D
:104ECC00E93BF97A0A7B00121B4EEA900330F09012
:104EDC000330E0F8900332E0687023900331E0C3B4
:104EEC009401401A900332E0F879002401F8E93477
:104EFC0000F97A0A7B00121B4EEA900332F0750817
:104F0C000E7509007808121E4BEEFCEFFD90033075
:104F1C00E0F87900E875F00EA4C8AAF075F000A4CA
:104F2C002AFA75F00EE9A42AF990032EE028FAA3C8
:104F3C00E039FB1206417402121BF7900331E02496
:104F4C0001F0900331E0C3940B4006900331740AD6
:104F5C00F07F02021D0A74F0121C388A0C8B0D852E
:104F6C000C82850D83A3A3A3E0FE850C82850D83A3
:104F7C00A3A3A3A3E0FF750E00750F0075080075C1
:104F8C000900750A00750B00EE14600F14600C1408
:104F9C00700302526E1460030252B5EF703590022A
:104FAC00E97406F09002EA7400F0EE9002EBF090D7
:104FBC0002EC7403F09002E87404F09002ACE0F997
:104FCC007CE67D029002B5E0FAA3E0FB1208DBE977
:104FDC000252E7EFC3940740359002E97406F09053
:104FEC0002EA7400F0EE9002EBF09002EC7404F024
:104FFC009002E87404F09002ACE0F97CE67D02903B
:10500C0002B5E0FAA3E0FB1208DBE90252E77402F6
:10501C006F600A74036F600574046F7077850C827F
:10502C00850D83A3A3A3A3A3E0F8880B7401686088
:10503C00359002EC7409F09002E97406F09002EAE3
:10504C007400F0EE9002EBF09002E87404F0900221
:10505C00ACE0F97CE67D029002B5E0FAA3E0FB122D
:10506C0008DBE90252E7850C82850D83A3A3A3A379
:10507C00A3A3E0FA7B00850C82850D83A3A3A3A3D5
:10508C00A3A3A3E0F87900E4C8F9EA28F8EB39F90E
:10509C00880E890F74046F7032850C82850D83A382
:1050AC00A3A3A3A3A3A3A3E0FA7B00850C82850D85
:1050BC0083A3A3A3A3A3A3A3A3A3E0F87900E4C8A9
:1050CC00F9EA28F8EB39F98808890974016F700E30
:1050DC00850C82850D83A3A3E0C394035010740444
:1050EC006F7040C3E508950EE509950F5035900299
:1050FC00EC7405F09002E97406F09002EA7400F08A
:10510C00EE9002EBF09002E87404F09002ACE0F93F
:10511C007CE67D029002B5E0FAA3E0FB1208DBE925
:10512C000252E7AC08AD09AA0EAB0FEFF91207EB70
:10513C00E9F8880A740168600302520F74016E70FA
:10514C00279003377400F0908194121E5E7A047BD2
:10515C00009002ACE0F91207377404121BF7E979DE
:10516C00011208F3E90252E774046E70469002E9EA
:10517C007405F09002EA7400F0900335E0F8A3E0B7
:10518C00F9E89002EBF0900335E0F8A3E0F9E4E9DC
:10519C00F89002ECF09002E87404F09002ACE0F9A4
:1051AC007CE67D029002B5E0FAA3E0FB1208DBE995
:1051BC000252E774026E60030252E79002E9740631
:1051CC00F09002EA7400F0EE9002EBF0900335E000
:1051DC00FCA3E0FD900334E0FA900333E0F91208ED
:1051EC00ABE99002ECF09002E87404F09002ACE0B1
:1051FC00F97CE67D029002B5E0FAA3E0FB1208DB35
:10520C00E9805D7406650A702574046E7020900246
:10521C00EC7400F09002E97405F09002EA7400F06E
:10522C009002EB7400F09002E87404F0801DE50A23
:10523C009002ECF09002E97406F09002EA7400F02F
:10524C00EE9002EBF09002E87404F09002ACE0F9FE
:10525C007CE67D029002B5E0FAA3E0FB1208DBE9E4
:10526C0080797A047B009002ACE0F9120743E9796B
:10527C00001208F3E99002E97406F09002EA740057
:10528C00F0EE9002EBF09002EC7401F09002E874F6
:10529C0004F09002ACE0F97CE67D029002B5E0FAF5
:1052AC00A3E0FB1208DBE980329002E97406F0906F
:1052BC0002EA7400F0EE9002EBF09002EC7402F053
:1052CC009002E87404F09002ACE0F97CE67D029068
:1052DC0002B5E0FAA3E0FB1208DBE97F08021D0A25
:1052EC0074EC121C38900337E0FA7B00900335E025
:1052FC00F8A3E0F9C3EA98EB9940030255AB90038D
:10530C0033E0F87900900337E0FA7B00E82AF8E9FB
:10531C003BF97A0A7B00121B4EEA75F00EA4CAA860
:10532C00F075F000A428F875F00EEBA428FB9003A0
:10533C002EE02AF50AA3E03BF50B7E007F03850ADD
:10534C0082850B83A3E0F50C850A82850B83E08EA6
:10535C00828F83F08E828F83A3AE82AF83E50C8E17
:10536C00828F83E50CF08E828F83A3AE82AF838510
:10537C000A82850B83A3A3E0F8A3E0F9E88E828F61
:10538C0083F08E828F83A3AE82AF83850A82850BD6
:10539C0083A3A3E0F8A3E0F9E4E9F88E828F83F00D
:1053AC008E828F83A3AE82AF83850A82850B83A303
:1053BC00A3A3A3E0F8A3E0F9E88E828F83F08E829A
:1053CC008F83A3AE82AF83850A82850B83A3A3A3AD
:1053DC00A3E0F8A3E0F9E4E9F88E828F83F08E82E3
:1053EC008F83A3AE82AF83E50CA2E75023850A829C
:1053FC00850B83A3A3A3A3A3A37810121AB1E51062
:10540C008E828F83E510F08E828F83A3AE82AF8362
:10541C00E50CA2E5502A850A82850B83A3A3A3A3DE
:10542C00A3A37810121AB1741078101219A1E510F8
:10543C008E828F83E510F08E828F83A3AE82AF8332
:10544C00E50CA2E6502E850A82850B83A3A3A3A3A9
:10545C00A3A37810121AB1851008851109E4E50987
:10546C00F508E5088E828F83E508F08E828F83A382
:10547C00AE82AF83E50CA2E0504A850A82850B838D
:10548C00A3A3A3A3A3A3A3A3A3A3E0F8A3E0F9E876
:10549C008E828F83F08E828F83A3AE82AF83850A38
:1054AC0082850B83A3A3A3A3A3A3A3A3A3A3E0F825
:1054BC00A3E0F9E4E9F88E828F83F08E828F83A3C8
:1054CC00AE82AF83E50CA2E15042E50A240CF582D2
:1054DC00E50B3400F583E0F8A3E0F9E88E828F83C6
:1054EC00F08E828F83A3AE82AF83E50A240CF58203
:1054FC00E50B3400F583E0F8A3E0F9E4E9F88E82DB
:10550C008F83F08E828F83A3AE82AF83850A8285D0
:10551C000B83E09002FFF07508007509009002FF04
:10552C00E0FC7D007A007B031208F98A0E8B0F8554
:10553C000E08850F09E5088E828F83E508F08E82B0
:10554C008F83A3AE82AF83A808A909E4E509A80953
:10555C00E5098E828F83E509F08E828F83A3AE825C
:10556C00AF839002FFE02402F0900337E02401F0B7
:10557C009002ACE0F97CFD7D029002B5E0FAA3E06C
:10558C00FB1208CFE9908198121E5E7A047B009082
:10559C0002ACE0F91207377404121BF7E980467A63
:1055AC00047B009002ACE0F9120743E99002E87426
:1055BC0004F09002E97406F09002EA7400F0900294
:1055CC00EB7401F09002EC7401F09002ACE0F97C09
:1055DC00E67D029002B5E0FAA3E0FB1208DBE97964
:1055EC00001208F3E97F0C021D0AC082C0839003ED
:1055FC00327400F09003317400F0D083D082020139
:10560C003574F7121C38EAFCEBFD900346E0F87990
:10561C0000E875F00AA4C8AAF075F000A42AFA757F
:10562C00F00AE9A42AF9900338E028F8A3E039F944
:10563C00E8FEE9FF8C828D83E0F8A3E0F98E828F7F
:10564C0083E8F0A3E9F08C828D83A3A3E0F8A3E0B8
:10565C00F98E828F83A3A3E8F0A3E9F08C828D836B
:10566C00A3A3A3A3E08E828F83A3A3A3A3F08C8216
:10567C008D83A3A3A3A3A3E0F8A3E0F98E828F8369
:10568C00A3A3A3A3A3E8F0A3E9F0900347E02401AC
:10569C00F0900347E0F879008E828F83A3A3A3A335
:1056AC00A3A3A3F0A3E9F0900346E0F8790024014A
:1056BC00F8E93400F97A0A7B00121B4EEA90034693
:1056CC00F0900344E0C3940A5009900344E0240191
:1056DC00F0801A900345E0F879002401F8E93400D1
:1056EC00F97A0A7B00121B4EEA900345F079007F91
:1056FC0001021D0A74F1121C38EAFEEBFF750E0450
:10570C00750C00750D00780079007A007B00880814
:10571C0089098A0A8B0B8E828F83E0F50CA3E0F546
:10572C000DE50E8E828F83A3A3A3A3A3A3A3A3A390
:10573C00E50EF08C828D837401F07F07021D0AC088
:10574C0082C083900344E070047900806990034523
:10575C00E0F87900900344E0FA7B00E82AF8E93B92
:10576C00F9E824FFF8E934FFF97A0A7B00121B4EA2
:10577C00EA75F00AA4CAA8F075F000A428F875F030
:10578C000AEBA428FB900338E02AF8A3E03BF9E8E5
:10579C00FCE9FD8C828D83E0F8A3E0F9900348E8E6
:1057AC00F0A3E9F08C828D83A3A3A3A3A3A3A3A34B
:1057BC00A37400F07900D083D08202013574F61204
:1057CC001C38EAFEEBFF750800750900900344E0F5
:1057DC00C394014046900345E0F87900900344E0FF
:1057EC00FA7B00E82AF8E93BF9E824FFF8E934FFF2
:1057FC00F97A0A7B00121B4EEA75F00AA4CAA8F0CB
:10580C0075F000A428F875F00AEBA428FB90033877
:10581C00E02AF8A3E03BF988088909C3EE9491EFDC
:10582C009401400A7A007B087C007D008033C3EE33
:10583C00942DEF94014022E50845096012850882F9
:10584C00850983A3A3A3A3A37400F0A37400F07A27
:10585C00007B047C007D0080087A007B007C007D4E
:10586C00007F02021D0AC082C0839003457400F0C1
:10587C009003467400F09003447400F09003477456
:10588C0000F0D083D08202013574F2121C388A08E1
:10589C008B09750A00750B007E007F00900344E0B5
:1058AC007045900345E0F87900E875F00AA4C8AAA1
:1058BC00F075F000A42AFA75F00AE9A42AF990030D
:1058CC0038E028F8A3E039F9880A890B850A828523
:1058DC000B83A3A3A3A3A3A3A37400F0A37400F04E
:1058EC007A007B0002599E74FF6508700474FF6592
:1058FC00097025900345E0F87900900344E0FA7BA9
:10590C0000E82AF8E93BF9E824FFF8E934FFF97AD2
:10591C000A7B00121B4E807A900345E0F879002E2A
:10592C00F8E93FF97A0A7B00121B568A0C8B0DACF6
:10593C000CAD0DECF8EDF9E875F00AA4C8AAF075F9
:10594C00F000A42AFA75F00AE9A42AF9900338E0C9
:10595C0028F8A3E039F9880A890B850A82850B831C
:10596C00A3A3A3A3A3A3A3E065087004A3E0650904
:10597C007006ECFAEDFB801AEE2401FEEF3400FF0A
:10598C00900344E0F87900C3EE98EF99408A7AFFCF
:10599C007BFF7F06021D0AC082C0838C828D8374BC
:1059AC0001F0C3EA9459EB94025009C3EA940AEB50
:1059BC00940050078C828D837405F0D083D08202C2
:1059CC000135C082C083790090034AEAF0A3EBF062
:1059DC00D083D082020135C082C08390034A74F414
:1059EC00F0A37401F0D083D082020135C082C08351
:1059FC00EAF8EBF990034AC3E098A3E099500A7ACD
:105A0C00007B007C027D0080087A007B007C007D9E
:105A1C0000D083D082020135C082C0838C828D83FA
:105A2C007401F0C3EA94F5EB94015009C3EA940AAB
:105A3C00EB940050078C828D837405F0D083D08258
:105A4C00020135C082C083790090034CEAF0A3EBCD
:105A5C00F0D083D082020135C082C08390034C7495
:105A6C0064F0A37400F0D083D082020135C082C0F0
:105A7C0083EAF8EBF990034CE0FAA3E0FBC3E89A55
:105A8C00E99B500A7A007B007C017D0080087A003B
:105A9C007B007C007D00D083D08202013574F01233
:105AAC001C38EAFEEBFF90034EE054FFF508A3E030
:105ABC005407F50985080C85090DE4F50EF50F8ED4
:105ACC00088F09E4F50AF50B780C79081217BE401B
:105ADC000A7A007B007C087D0080087A007B007CC1
:105AEC00007D007F08021D0AC082C0838C828D83DA
:105AFC007401F0C3EA9459EB94025009C3EA940A76
:105B0C00EB940050078C828D837405F0D083D08287
:105B1C00020135C082C083790090034EEAF0A3EBFA
:105B2C00F0D083D082020135C082C08390034E74C2
