:020000040000FA
:0600000002011D02251B98
:03002B00021DD8DB
:03003300021DADFE
:0300530002258EF5
:03006B00021D82F1
:10008300022387E5C754F84401F5C779012200002C
:100093000080FB120086B90003020107E47921788E
:1000A30008B800028004F709D8FCE479297802B87B
:1000B30000028004F709D8FCE490028178C1790832
:1000C3008002F0A3D8FCD9FA781A90014D7A01BACC
:1000D30000028007E493A3F608DAF9900A41AA82A2
:1000E300AB8390014E78EE79038015E493A3AC8241
:1000F300AD838A828B83F0A3AA82AB838C828D83A8
:10010300D8E9D9E775826F75838F740412012F754F
:100113008291758300740012012F75D00075813FA1
:10012300751881751902759F00020096C09FF59F8F
:10013300E473D09F22D083D082C09FE493C0E07445
:100143000193C0E0740293F59F2201FFFF1101990F
:10015300010F12640401023F82010000148202278E
:1001630082010000480A026382010000490A022951
:1001730082030000A6020237820100004A0A08092E
:1001830043474D2053696D02010505021F180A18E4
:1001930043474D2053696D756C61746F72000000A5
:1001A30000000000003F80000059E8033412000003
:1001B30000000000000000D007EC00A800AF05001D
:1001C300001002020A0202002828023F82010000F6
:1001D3001D82022782010000B70A025B8200000031
:1001E30064030229820300005E03022782010000E8
:1001F300B80A025982010000650302278201000048
:10020300B90A025582010000660302278201000039
:10021300BA0A025382030000670302278201000027
:10022300BB0A024F82010000BC0A022782010000C0
:10023300BE0A024D820300006E03022982030000FE
:100243006803022782010000BF0A024B82030000F9
:1002530075030229820300006F03020202020202F5
:10026300020202010D0000001001023F82010000A2
:100273002082022782010000500B02458201000008
:100283007603022782010000510B02438201000022
:100293006581022782010000520B024182010000A6
:1002A3005E81022782010000530B02658201000078
:1002B3001082022782010000540B023D82010000DC
:1002C3000082022782010000550B023B82010000DD
:1002D3000482022782010000560B023982010000CA
:1002E3000882022782010000570B02578201000097
:1002F3004281022782010000580B02618201000043
:10030300590B01E803053F100AFF00013075030292
:1003130001060000000000000000000000000000D3
:100323000000000000000000000000000000FFFFCC
:100333000600800CE803FF0000B40000280028003A
:10034300283075A000A000A000A00000080008E06D
:1003530001F00010001000100010001000100050F9
:10036300005000500010001000D0070000000000F3
:10037300000F000100050030750700100001008127
:10038300FF00000000FFEB0B090CF10BFF02020260
:1003930008025000A0000000E803023F82010000B1
:1003A3001A82022782010000830C022B82010000C3
:1003B3007205022782010000840C022D82010000D5
:1003C3008805022782010000850C022F82010000AC
:1003D3008A05022782010000860C02318208000090
:1003E3008B05022782010000870C02338201000083
:1003F300880CFFFF0100FF20023F820100001782EB
:10040300022782010000ED0C02358200000000008B
:100413000229820300001A06FD11FD11FD11FD11D1
:10042300FD11FD11FD11FD11FD11FD11FD11FD1159
:10043300FD119114A9148B14120138C3A5031201E1
:1004430038D8A50312013830A60312013897A60342
:10045300120138DFA60312013855A70312013884AD
:10046300A70312013892A703120138F6A70312015A
:100473003834A8031201384FA803120138E7A80340
:1004830012013890A90312013813AA031201384C40
:10049300AA03120138D7AA031201382EAB031201A3
:1004A300388DAB031201389FAB03120138C5AB0380
:1004B300120138CEAB031201382DAD03120138BE41
:1004C3008D041201381CBB03120138FBBB0312015C
:1004D3003857BC0312013871BC0312013882BC03C4
:1004E3001201387DBF031201389DBF0312013893F7
:1004F300FB03120138D8FB031201381EFC0312015F
:1005030038B1FD03120138F08C041201380B8D044D
:100513001201381B8D04120138728D04120138DE6A
:10052300B403120138FEB40312013802B6031201F8
:10053300384EB6031201386EB603120138C1B60342
:100543001201382EB70312013874B703120138D8D9
:10055300B7031201388ABA031201380BBB03120125
:1005630038DB87041201380B88041201383B8804F6
:10057300120138958804120138EDFC021201382269
:10058300FD0212013811FE02120138F5FE021201BA
:1005930038542C00120138762E00120138192F001E
:1005A3001201385F2F00120138F22F0012013805B3
:1005B3003900120138823A00120138F83A00120168
:1005C30038293B00120138233D00120138733D00E6
:1005D3001201383E4200120138734200120138956D
:1005E3004200120138984600120138DF460012011A
:1005F30038B44A00120138644B00120138EE4E0041
:10060300120138A05100120138B75100120138AA63
:100613005200120138F552001201387353001201CF
:10062300381C54001201383F54001201384D550054
:100633001201387855001201388D5500120138A285
:100643005500120138CE5500120138F95500120138
:10065300380E560012013823560012013853560043
:100663001201389E5600120138C95600120138DEB5
:100673005600120138F356001201383E570012019A
:10068300386957001201387E57001201389357001A
:100693001201382C58001201388D5800120138B35A
:1006A3005800120138D258001201382D5A00120195
:1006B30038C98F04120138DA8F04120138009E03FF
:1006C300120138699E031201387C9E03120138CD52
:1006D3009E031201382C9F031201388B9F031201D2
:1006E3003835A1031201385AA503120138ADA50309
:1006F30012013875C6031201389AC603120138D5A0
:10070300C603120138618E04120138385A001201EF
:1007130038465D00120138065F00120138B15F00F0
:10072300120138556000120138EE60001201381DC5
:1007330061001201388961001201386366001201F9
:10074300380E67001201387E6800120138E668002F
:100753001201389A69001201385C6C001201389B4F
:100763006C001201380F6D001201386E6D0012011A
:1007730038CD6D001201383C6E001201382F6F0026
:10078300120138756F00120138BA6F00120138DD9B
:100793006F001201385871001201386B7100120199
:1007A30038747200120138B37200120138DF72001C
:1007B3001201383273001201385373001201389753
:1007C3007300120138E975001201382A760012010C
:1007D30038D576001201384077001201387D780051
:1007E3001201381A8B041201382B8B0412013809B9
:1007F3008C04120138EAF80312013885FB03120155
:1008030038DEFF01120138A38604120138B38604CF
:10081300120138CD8604120138D5870412013884B9
:10082300F0031201382AF10312013846F3031201CF
:1008330038008004120138308004120138A080048B
:10084300120138C480041201382081041201389B3C
:100853008104120138D88104120138DB81041201AA
:10086300386BCB031201388DCB0312013822CC0332
:1008730012013812CD031201386FCF03120138CFA2
:10088300CF0312013838D003120138F87F00120168
:10089300383DF60312013834F803120138A0F80387
:1008A300120138E7F803120138F5FD031201385E2F
:1008B300FE031201381CFF031201389BFF031201D0
:1008C3003842E20312013874E2031201387CE30375
:1008D300120138A1E4031201385DE5031201382E39
:1008E3008B03120138148C03120138618C0312013B
:1008F30038A48C03120138198D031201387A8D0341
:10090300120138EF8D03120138CB8E03120138D652
:100913008F03120138579003120138FE910312011D
:100923003894920312013807930312013883930317
:100933001201389A9303120138D194031201382B10
:1009430095031201382EDC01120138C6E0011201B1
:10095300389AE301120138C3E301120138ECE301D1
:100963001201389EE40112013884E601120138BFF6
:10097300E701120138F5EC011201382EED011201E5
:100983003872ED0112013884EE01120138238A0412
:10099300120138398A04120138688A041201389E18
:1009A3008A04120138B58A04120138EC8A04120150
:1009B30038038B04120138E98104120138008204E0
:1009C3001201383182041201386C82041201389604
:1009D3008204120138C08204120138D78204120142
:1009E30038EE82041201380583041201382E830481
:1009F3001201384183041201385783041201386A03
:100A030083041201389183041201381BF10212018D
:100A1300381FF2021201384CF202120138A2F2021C
:100A2300120138C5F202120138D9F202120138DB81
:100A3300F202120138FEF20212013804F40212012A
:100A430038C8F4021201389DF50212013818F60273
:100A53001201381BF602120138A3F602120138DE26
:100A6300F60212013815F702120138A3F702120138
:100A7300387CF8021201387FF802120138DFF802DD
:100A8300120138EAF80212013869F9021201386CCE
:100A9300F9021201386FF90212013872F9021201D8
:100AA3003801FA021201380BFA021201381BFA025A
:100AB3001201384BFA0212013858FA021201385B5C
:100AC300FA02120138DCFA02120138CAFB021201DF
:100AD300387CFC0212013856D0031201387ED00351
:100AE300120138ACD003120138E3D00312013841AC
:100AF300D1031201388CD103120138D7D10312016B
:100B03003817D2031201385DD2031201388BD20396
:100B130012013848D30312013852D3031201385F4C
:100B2300D30312013892D3031201385ED4031201A6
:100B3300386AD40312013882D4031201388CD403E7
:100B4300120138198C04120138278C041201383F22
:100B53008C04120138578C04120138388F021201A9
:100B630038E48F021201385F90021201388091023B
:100B7300120138BC91021201386592021201384CFD
:100B83009302120138B09402120138079502120140
:100B930038889502120138789602120138C59602F8
:100BA3001201384B97021201387D970212013891D6
:100BB3009902120138D39902120138F199021201F4
:100BC30038749A02120138489B02120138109C02B1
:100BD300120138B178001201388479001201382DDE
:100BE3007A00120138807A00120138307B0012013A
:100BF30038BC7B00120138A87C00120138D77C0076
:100C0300120138EA7D00120138327E0012013807E2
:100C13007F00120138437F001201385F7F00120109
:100C230038EB8E04120138F2E90312013808EA03A3
:100C33001201382EEA031201384AEB031201385429
:100C4300EB0312013889EC0312013881ED03120121
:100C5300384EC1031201387EC203120138B1C203F8
:100C6300120138FBC203120138C2C403120138292E
:100C73009E02120138AD9E02120138F69E02120145
:100C830038DDA00212013896A20212013872A302C3
:100C930012013826A40212013863A7021201381187
:100CA300A80212013880A90212013812AB02120104
:100CB300384AAB02120138E7AB0212013844EF01A4
:100CC300120138AEEF011201380DF1011201381D86
:100CD300F1011201384AF101120138A1F1011201A7
:100CE300384AF20112013851F3011201381BF401A1
:100CF3001201387BF501120138BEF5011201386388
:100D0300F601120138B0F601120138D6F6011201CC
:100D130038E4F801120138E9F801120138EEFA015A
:100D23001201383BFB01120138AEFB01120138E11D
:100D3300FB0112013883FC011201382CFD01120161
:100D43003864FD0112013867FD01120138AFFD015E
:100D5300120138EFFD0112013846FE01120138611C
:100D6300F30312013874F30312013882F3031201FF
:100D730038CAF303120138E0F30312013827F403EE
:100D83001201383BF503120138C8F5031201381379
:100D9300F6031201386882011201387482011201CC
:100DA30038AF8201120138F48201120138B4830191
:100DB3001201383A84011201386684011201389F06
:100DC3008401120138DD8601120138C18801120144
:100DD30038A78A01120138EA8B01120138388E01D3
:100DE3001201384A8F01120138959001120138A57A
:100DF3009101120138C29101120138FD91011201D2
:100E0300381F92011201388292011201384397016F
:100E1300120138D89701120138299801120138506C
:100E23009801120138A29801120138C098011201E9
:100E3300381A9901120138199A011201389D9A0141
:100E430012013813D5031201381DD503120138607E
:100E5300D5031201387BD5031201380BD6031201D7
:100E63003833D60312013870D603120138A7D603DC
:100E7300120138D0D60312013845D7031201385A6C
:100E8300D7031201386FD703120138A0D703120119
:100E930038B4D703120138D9D70312013813D80352
:100EA3001201383FD803120138C2D8031201380B9C
:100EB300D90312013835D90312013860D90312015D
:100EC30038FD880412013848E40212013876E4023E
:100ED300120138C4E502120138A4E602120138C334
:100EE300E60212013840E70212013883E7021201D9
:100EF30038D9E8021201389AE90212013821EC02CA
:100F0300120138C2EC02120138B8ED02120138B5F1
:100F1300EE021201380FF0021201389AF0021201A8
:100F230038488504120138B1850412013805860456
:100F33001201382C86041201385D860412013888A8
:100F4300D903120138F5D9031201383CDA0312012F
:100F53003854DB0312013850DC0312013833DD034C
:100F6300120138979503120138D99503120138AB52
:100F730096031201388497031201387E98031201F5
:100F830038609903120138C999031201387F9A0313
:100F9300120138F39A031201385F9B031201388858
:100FA3009B03120138029C031201389B9C0312011C
:100FB30038009D03120138159D031201385B9D0310
:100FC300120138749D03120138D99D03120138DCD4
:100FD3009D031201388BED03120138B3ED031201A7
:100FE30038F1ED03120138AFEE0312013816EF03A7
:100FF30012013832EF031201385AEF031201388A13
:10100300EF0312013899EF0312013816F0031201AE
:10101300383CF003120138008002120138DE8102ED
:101023001201381084021201384C840212013879FB
:101033008402120138638502120138AE850212015F
:1010430038F985021201380B86021201384B8602E9
:10105300120138808602120138CE8602120138FD51
:1010630086021201382087021201386D87021201AD
:1010730038F287021201380C8A021201384B8C02B3
:101083001201388C8C021201382E8E021201386F35
:101093008E02120138E28E0212013833D702120196
:1010A3003831D802120138CADE02120138EBE002ED
:1010B300120138B6E2021201381EE40212013804AA
:1010C3009B01120138B39B01120138E09B0112010D
:1010D30038269C01120138669D01120138FC9E01DD
:1010E300120138769F01120138919F011201380CC9
:1010F300A00112013866A101120138C6A201120132
:1011030038CCA3011201382DA50112013846A501DF
:10111300120138A4A50112013892A601120138C5A3
:10112300A60112013835A701120138AFA701120138
:1011330038F9A701120138C3A80112013898A9018F
:1011430012013877AA0112013802AB01120138707B
:10115300AB01120138E4AB011201380FAC011201EB
:1011630038CEAC0112013833AE0112013850AE0152
:101173001201386FAE0112013860AF0112013885D8
:10118300AF01120138AFAF011201382AB0011201C9
:101193003884B001120138EDB1011201389BB2015C
:1011A300120138DCB2011201385FC902120138ADF5
:1011B300C902120138B9C90212013897CA021201D1
:1011C30038C8CA02120138F9CA0212013879CB02AF
:1011D300120138B1CB0212013803CC02120138409C
:1011E300CC021201385DCE0212013883D002120103
:1011F300386ED20212013858D402120138492C0039
:101203001201381BC8011201384BC80112013824DE
:10121300CF01120138A9D001120138A6D60112015B
:10122300388ED701120138CBD701120138EED7011E
:101233001201381FD80112013828D801120138329F
:10124300D80112013820D90112013816DA0112012E
:10125300380CB3011201380BB70112013811B70171
:101263001201384CBE0112013865C3011201382442
:10127300E603120138BAE603120138D0E60312017D
:101283003846E703120138BAE703120138F8E703D7
:101293001201386CE803120138E5E803120138EE55
:1012A300E803120138FAE8031201380FE9031201C7
:1012B300384DE90312013863E903120138C2E90327
:1012C300120138F5DD0312013802DE031201381C66
:1012D300DE031201385BDE0312013899DE031201CB
:1012E30038FEDE0312013813DF031201381EDF0359
:1012F3001201382BDF0312013842DF031201385089
:10130300DF031201385BDF0312013867DF031201C9
:101313003876DF0312013881DF03120138A4DF03BB
:101323001201384BE0031201385BE00312013875F8
:10133300E00312013892E003120138AEE003120118
:1013430038D3E003120138DEE003120138F3E0037F
:1013530012013807E10312013868E1031201386E04
:10136300E10312013874E1031201387AE103120137
:101373003892E103120138C5E10312013835BB028B
:10138300120138B9BB0212013868BC02120138C716
:10139300BD02120138E8BF02120138D4C0021201A3
:1013A3003809C1021201382BC102120138DAC10215
:1013B300120138D2C302120138FBC3021201388D65
:1013C300C402120138BFC402120138CCC402120194
:1013D3003823C50212013849C502120138B6C702C3
:1013E300120138B9C80212013811C902120138C4F6
:1013F300AC02120138CEAD02120138B5AE021201B1
:1014030038BFAE02120138E1AE02120138EDAE026E
:1014130012013886B002120138B5B002120138D178
:10142300B1021201382AB20212013890B30212013A
:10143300386FB402120138CBB40212013838B50246
:1014430012013873B502120138B2B5021201386BBA
:10145300B80212013885B80212013811B90212011B
:10146300381FB90212013878B90212013886B9025D
:10147300120138F9B9021201385DBA02120138A714
:10148300BA021201380080031201382280031201CC
:10149300384882031201385D8503120138758603CB
:1014A3001201382887031201380A8803120138A36E
:1014B3008304120138C883041201383A84041201E8
:1014C3003864AD031201386DAD0312013876AD03F4
:1014D3001201384DAE03120138FEAF031201383446
:1014E300B0031201386EB003120138A4B003120125
:1014F30038DEB00312013812B1031201383EB103D2
:1015030012013887B103120138C1B1031201380A3D
:10151300B20312013862B20312013897B203120107
:1015230038F2B2031201382CB3031201387DB3032E
:10153300120138B3B303120138EDB3031201381BA0
:10154300B4031201383EB40312013833FF01120110
:10155300385FFF01120138BAFF01120138C4FF01DD
:10156300120138D4FF011201381A9004120138D441
:101573007F00A2E792D65002F40430F70663F0FF2F
:1015830005F0B3400384800384F40430D60563F08C
:10159300FF05F022E066701008A3E066700A08A356
:1015A300E066700408A3E06622C3E7960809E7969D
:1015B3000809E7960809E796A2D265D03322C00846
:1015C300C3E096F50808A3E096420808A3E0964214
:1015D3000808A3E0964208A2D265D033E50870015B
:1015E300D3D00822C3E7960809E7960809E79608C7
:1015F30009E79622C3E09608A3E09608A3E09608BD
:10160300A3E09622C008C3E096F50808A3E096423B
:101613000808A3E096420808A3E09645087001D3A2
:10162300D00822080808EAC0E0EBC0E086F0E7A48F
:10163300FA180986F0E7A42AFA180986F0E7A42A1B
:10164300FA180986F0E7A42AFA1986F0E7A4FBE55D
:10165300F02AFA190886F0E7A42BFBE5F03AFA1909
:101663000886F0E7A42BFBE5F03AFA18180986F090
:10167300E7A4C5F02BFBE43AFA1908E7C5F0C6A4C2
:1016830026F6E5F03BFBE43AFA1886F0E7A4F6E524
:10169300F00826F6E43B08F6E43A08F6D0E0FBD07F
:1016A300E0FA22E4CFC0E0E4CEC0E0E4CDC0E0E461
:1016B300CCC0E075F020C3E633F608E633F608E65F
:1016C30033F608E633F6181818EC33FCED33FDEE69
:1016D30033FEEF33FFC3EC9709ED9709EE9709EF5C
:1016E30097191919400FFFEC97FC09ED97FD09EEC7
:1016F30097FE191906D5F0BEECF709EDF709EEF7D9
:1017030009EFF7191919D0E0FCD0E0FDD0E0FED0C5
:10171300E0FF2212177E1818181216A612176D1959
:1017230019192212176D191919080808E61818183B
:1017330020E7E01216A612177E18181822090909C5
:10174300E719191920E7DC080808E618181820E734
:10175300030216A612177E1818181216A612177E61
:1017630018181812176D19191922E4C397F709E409
:1017730097F709E497F709E497F722E4C396F60885
:10178300E496F608E496F608E496F622601608084E
:1017930008C6C313C618C613C618C613C618C6137D
:1017A300C6D5E0EA2270090808082260161818183E
:1017B300C6C333C608C633C608C633C608C633C64F
:1017C300D5E0EA22E627F60809E637F60809E63700
:1017D300F60809E637F622E026F608A3E036F6080F
:1017E300A3E036F608A3E036F622E026F008A3E0ED
:1017F30036F008A3E036F008A3E036F022C3E697FC
:10180300F60809E697F60809E697F60809E697F653
:1018130022C3E0C696F608A3E0C696F608A3E0C680
:1018230096F608A3E0C696F622C3E096F008A3E076
:1018330096F008A3E096F008A3E096F022E657F6A8
:101843000809E657F60809E657F60809E657F622A7
:10185300E056F608A3E056F608A3E056F608A3E020
:1018630056F622E056F008A3E056F008A3E056F03F
:1018730008A3E056F022E046F008A3E046F008A3F0
:10188300E046F008A3E046F022E066F008A3E06635
:10189300F008A3E066F008A3E066F022E0F608A3F0
:1018A300E0F608A3E0F608A3E0F622E6F008A3E6D4
:1018B300F008A3E6F008A3E6F022E0FAA3E0FBA316
:1018C300E0FCA3E0FD22EAF0A3EBF0A3ECF0A3ED30
:1018D300F022CAC0E0E6F0A308DAFAD0E0FA22CA9E
:1018E300C0E0E0A3C582CCC582C583CDC583F0A388
:1018F300C582CCC582C583CDC583DAE6D0E0CA22D2
:10190300C3E498F8E499F91219448026C3E49AFAD7
:10191300E49BFBE920E7E9121944E498F8E499F918
:1019230022C3E498F8E499F9121944E498F8E49985
:10193300F9C3E49AFAE49BFB22EB20E7CFE920E723
:10194300E0B90010BB0008E88AF084F8AAF022E4AA
:10195300FBC8FA22EB70227B10C833C8C933C933E2
:101963005007C39AC3DBF280069A50012ADBEAC808
:1019730033F4C8C933F4C9FA2275F008E4C833C88C
:10198300C933C933C99AC99B5004C92AC93BD5F085
:10199300ECFBC833F4C8E4C9FA22600D08C6A2E719
:1019A30013C618C613C6D5E0F322600C08C6C313CA
:1019B300C618C613C6D5E0F422700422600D18C6FB
:1019C300C333C608C633C6D5E0F41822251810AFB2
:1019D30008F518400215198008F51840021519D2A8
:1019E300AF22C0D0251810AF08F518500205198092
:1019F30008F51850020519D2AFD0D0222518F58268
:101A030010AF08F518400215198008F518400215A3
:101A130019D2AF851983222518F582E43519F58388
:101A230022E4732518C582C0E0E51934FFC583C0DD
:101A3300E0E518C3958224F810AF088583198582E1
:101A4300188008858319858218D2AFCEF0A3E520CC
:101A5300F0A37808E608F0A3DEFAEFF0A3E581240B
:101A6300FAF8E608F0A3E608F0A3E608F0A30808EE
:101A7300E608F0A3E608F0A315811581D0E0FED0B7
:101A8300E0F8158115811581E8C0E0EEC0E022255C
:101A930018C582C0E0E51934FFC583C0E0E518C36B
:101AA300958224F910AF08858319858218800885EB
:101AB3008319858218D2AFCEF0A3E520F0A378086E
:101AC300E608F0A3DEFAEFF0A3E58124FBF8E608CD
:101AD300F0A3E608F0A30808E608F0A3E608F0A3DD
:101AE30015811581D0E0FED0E0F815811581E8C09D
:101AF300E0EEC0E022851983851882E0A3FEE0A30F
:101B0300F5207808E0A3F608DFFAE0A3FFE0A3C01E
:101B1300E0E0A3C0E0E0A3C0E0E0A3C0E0E0A3C036
:101B2300E010AF088582188583198008858218859F
:101B33008319D2AFD083D0820201358519838518EA
:101B430082E0A3FEE0A3F5207808E0A3F608DFFA1D
:101B5300E0A3FFE0A3C0E0E0A3C0E0E0A3C0E0E0B7
:101B6300A3C0E010AF088582188583198008858299
:101B730018858319D2AFD083D08222C0D02518C54F
:101B830082C0E0E51934FFC583C0E0E518C3958240
:101B930024F310AF0885831985821880088583197B
:101BA300858218D2AFC8F0A3E9F0A3EAF0A3EBF063
:101BB300A37908E709F0A3D8FAECF0A3EDF0A3EEBC
:101BC300F0A3EFF0A3D0E0F0A3D0E0F0A3D0E0F0D7
:101BD300A3E520F0A3E5F0F0A322851983851882FD
:101BE300E0C0E0A3E0F9A3E0FAA3E0FBA37808E0F8
:101BF300F608A3DFFAE0FCA3E0FDA3E0FEA3E0FF09
:101C0300A3E0C0E0A3E0C0E0A3E0F5D0A3E0F520AB
:101C1300A3E0A3F5F010AF08858319858218800827
:101C2300858319858218D2AFD082D083D0E0F8D0D3
:101C3300E03274048006740280027401C0E0F4048C
:101C43001219FFD0E01218D52274048004740280A4
:101C530000CCC0E0EDC0E0E518C39CCCAD19500149
:101C63001D10AF068C188D1980068C188D19D2AFF4
:101C73001218E2D0E0FDD0E0FC22D083D082E9C08C
:101C8300E0E493A3C386F0C5F095F0F908E493A3C9
:101C930086F0C5F095F0700BE493A3C3994005E972
:101CA300048002A3E475F002A42582F582E5F035F1
:101CB30083F583D0E0F9E493A3C0E0E493C0E0228A
:101CC300D083D082ECC0E0EDC0E0E493A3FCE493C6
:101CD300A3FDED4C600D121D0FEC24FFFCED34FF52
:101CE300FD80EFE493A3FCE493A3FDED4C600D12A0
:101CF3001D4EEC24FFFCED34FFFD80EFD0E0FDD062
:101D0300E0FCE493A3C0E0E493C0E022C0E0C3E4BA
:101D13009396087401939618400FE493667008082D
:101D2300740193661870007019A3A3C3E493960813
:101D33007401939618A3A3400DD0E0D0E0D0E00245
:101D43001CFFA3A3A3A3A3A3D0E022C0E0C0F088F9
:101D5300F0E4936670080874019366187000A8F0A5
:101D6300A3A3700BD0F0D0E0D0E0D0E0021CFFA31F
:061D7300A3D0F0D0E02235
:101D7C00C2AF02000022C0E074F2121B7EA2AFE4DC
:101D8C0033FED2AFE589A2E1500312084F758900EA
:101D9C00C2C5751A00EEF8EEA2E092AF7F01021BED
:101DAC00DDC0E074F2121B7EA2AFE433FED2AFE5CD
:101DBC008BA2E0500312084F758B00C2E8751A0015
:101DCC00EEF8EEA2E092AF7F01021BDDC0E0C0D0C6
:101DDC00E8C0E0E9C0E0A2AFE433F8D2AFC2C77507
:101DEC001A00E8F9E8A2E092AFD0E0F9D0E0F8D020
:101DFC00D0D0E03274F5121A92EAFEEBFFEE2434E6
:101E0C00F8EF3400F988088909EE2435F582EF34AF
:101E1C0000F583E0F8EE2437F582EF3400F583E02B
:101E2C00F50AEC850AF0A4FCAAF0850AF0EDA42AC8
:101E3C00FDE82CF8E43DF97A257B00121944EA857B
:101E4C000882850983F0F8740758F97401B9000207
:101E5C008004C333D9FCFAE8131313541FF8EE288B
:101E6C00F8EF3400F9E8245DF582E93400F583E0FD
:101E7C005A6008EE2434F582EF802CEE2434F5827F
:101E8C00EF3400F583E0C0E0EE2436F582EF340049
:101E9C00F583E0F5F0D0E084A8F0EE28F8EF3400FC
:101EAC00F9E82438F582E93400F583E0F97F04027F
:101EBC001B3E74F5121A92EAFEEBFFEE2434F58207
:101ECC00EF3400F583E0C0E0EE2435F582EF34000A
:101EDC00F583D0E0F08E828F83A3A3A3A3A3A3A347
:101EEC00C082C0838E828F83A3A3A3A3A3E0F8A395
:101EFC00E0F9D083D082E0C398F508A3E099F50906
:101F0C00EE247FF582EF3400F583E064017069EE16
:101F1C002480F582EF3400F583E0F8A3E0F98E829B
:101F2C008F83A3A3A3A3A3A3A3E0FCA3E0FD8E82B2
:101F3C008F83A3A3A3A3A3E0FAA3E0FBC3EA9CEBC8
:101F4C009D5010C3EC98ED99402EC3EA98EB995034
:101F5C0027800EC3EA98EB994007C3EC98ED9940A3
:101F6C00177CDD7D07EEFAEFFB12115BEE247FF59B
:101F7C0082EF3400F583E4F0EE2434F8EF3400F90A
:101F8C00E8FCE9FDEE2435F582EF3400F583E0F84A
:101F9C00EE2437F582EF3400F583E0F50AE5088589
:101FAC000AF0A4F508AAF0850AF0E509A42AF509B7
:101FBC00E82508F8E43509F97A257B00121944EA7A
:101FCC008C828D83F0F8740758F97401B900028083
:101FDC0004C333D9FCFAE8131313541FF8EE28F892
:101FEC00EF3400F9E8245DF582E93400F583E05A1A
:101FFC006008EE2434F582EF802CEE2434F582EF69
:10200C003400F583E0C0E0EE2436F582EF3400F5C1
:10201C0083E0F5F0D0E084A8F0EE28F8EF3400F976
:10202C00E82438F582E93400F583E0F9122C3B0200
:10203C001EB9C082C083851882851983E0F8A3E09D
:10204C00F9C3EA9CEB9D5010C3EC98ED99401BC36F
:10205C00EA98EB995014800EC3EA98EB994007C3A9
:10206C00EC98ED994004790180027900D083D082FC
:10207C0022EAC39CFAEB9DFB2274EF121A92900693
:10208C00A3E064086005E06407702A9061C8E06012
:10209C00249006D1E0F4601DE0F875F003A4C8AA02
:1020AC00F02AF974D328FE740639FF8E828F83A32D
:1020BC00A3A3E070030221B5906060E0C0E0EE24C1
:1020CC0068F582EF3400F583D0E0F0750C46750DA1
:1020DC0008750800750900E5D914F50AE5D954030B
:1020EC00F50E60177403650E605CE50A6010EE2453
:1020FC0067F582EF3400F583E0700302219A9008B3
:10210C0041E06401602AEE2482F582EF3400F5830D
:10211C00E06004780480027800850A08E508C3981A
:10212C00FA95E0FB1210298A088B09EA450970051B
:10213C0012135F8074EE2482F582EF3400F583E095
:10214C0070048A0C8B0DE50A6012850C82850D8358
:10215C00F50BE5D9F0A3150BE50B70F6EE2482F523
:10216C0082EF3400F583E0604474FC250AF50A78AC
:10217C000C121C39AC0AA90EEEFAEFFB1211F77413
:10218C00021219E5E97026AA08AB091208AF793DCD
:10219C008E828F83A3A3A3A3E0FA7B00120EFDEE25
:1021AC00FAEFFB1211731212097900807474036533
:1021BC000E6056850A107511007810121C39AC0C83
:1021CC00AD0DAA08AB091211D374021219E5EE2455
:1021DC0068F582EF3400F583E064807004747F80CE
:1021EC0001E0F50C780C121C3DE50EF50C780C1288
:1021FC001C3DA90AAC08AD099006D1E0FA7B00128F
:10220C000EC174021219E580139006A3E0640860F5
:10221C000BAC0CAD0DEEFAEFFB12126312136B79D3
:10222C00017F0A021B3E74F5121A9274FC1219CF2C
:10223C00EAFEEBFF8908A2AFE433F509C2AF806A6E
:10224C00EE2463F8EF3400F97A007B00A2AFE4339C
:10225C00F50AC2AF88828983E0FCA3E0FDEC4D60F7
:10226C003A88828983E0FAA3E0FB8A828B83E0FCC4
:10227C00A3E0FD88828983ECF0A3EDF08A828B8346
:10228C00E4F0A3F088828983E0FCA3E0FDEC4D70C0
:10229C000A88828983A3A3E4F0A3F0E50AA2E09262
:1022AC00AF1208AF9007E4E004F0EE2463F582EF80
:1022BC003400F583E0F8A3E0F9E849603DEE2463CF
:1022CC00F582EF3400F583E02402FAA3E03400FB3E
:1022DC00EA2402F50AEB3400F50B780A121C398A51
:1022EC00828B83E0FCA3E0F9EEFAEFFB12119774FA
:1022FC00021219E5E9700302224C9007E4E06063D6
:10230C009007E5E0F89007E4E0C398500C74026580
:10231C000870509007E6E0604A8E828F83A3A3A3D7
:10232C00A3E0851882851983F0A3E4F09007E4E01C
:10233C00F87402121A1AE8F0A3E4F09007E4E0F83B
:10234C009007E3E028F07402121A1AAC82AD838570
:10235C001882851983AA82AB837901120ECD90075E
:10236C00E4E4F0E509A2E092AF74041219E5021E50
:10237C00B90000008521878522C622C0E0C0D0E8C4
:10238C00C0E0E9C0E0EAC0E0EBC0E0ECC0E0EDC0CA
:10239C00E0EEC0E0C008C009C00AC00BC082C08318
:1023AC00C0F0A2AFE433FEC2AF759B00906182E037
:1023BC00A2E05012E591A2E0500C7591FE740165FB
:1023CC00217003122085E0A2E55051E591A2E55061
:1023DC004B7591DF9006A3E064076005E06408701C
:1023EC002374016521703579019006D1E0FA75F0FE
:1023FC0003A4CAA8F028FB74D32AFA74063BFB1278
:10240C0022328018E0640D70139006C5E004F0646D
:10241C00287002E4F07A00E0F9121371906182E006
:10242C00A2E640030224CEE591A2E640030224CEAC
:10243C007591BF9006A3E0640570081212991212F0
:10244C00A5800312129F7521001212FFE99006A4B9
:10245C00F079001212F31210D17A017B009006A2CF
:10246C00E0F9120495907803E064427055900845A9
:10247C00E014F0704DC2AF12248600782AD0E0F63A
:10248C0018D0E0F6E59F540770057509FF800375B9
:10249C00097FC4C0E07829E6F50808E65509F50976
:1024AC00740B78081219ADD0E02508F8906270E032
:1024BC00A2E740F8E8C333906272F0906270E0D209
:1024CC00E0F0906181E0A2E35009E5E9A2E350035A
:1024DC0075E9F7A3E0A2E75009E591A2E75003756F
:1024EC00917FEEA2E092AFD0F0D083D082D00BD00F
:1024FC000AD009D008D0E0FED0E0FDD0E0FCD0E05E
:10250C00FBD0E0FAD0E0F9D0E0F8D0D0D0E032C087
:10251C00E0C0D0C082C083906183E0A2E05009E5A6
:10252C00BFA2E0500375BFFEE0A2E15009E5BFA2D7
:10253C00E1500375BFFDE0A2E25009E5BFA2E250F5
:10254C000375BFFBE0A2E35009E5BFA2E35003759E
:10255C00BFF7E0A2E45009E5BFA2E4500375BFEF5A
:10256C00E0A2E55009E5BFA2E5500375BFDFE0A28C
:10257C00E65009E5BFA2E6500375BFBFD083D082F9
:10258C008088C0E0C0D0E8C0E0E9C0E0EAC0E0EB81
:10259C00C0E0ECC0E0EDC0E0C0F0E5A7A2E6500F53
:1025AC00E5A1A2E6500953A7BF75A1BF1225F3E51B
:1025BC00A7A2E5500CE5A1A2E5500653A7DF75A133
:1025CC00DFE5A7A2E15009E5A1A2E1500375A1FD49
:1025DC00E5A7A2E2500CE5A1A2E2500653A7FB75B9
:1025EC00A1FBD0F002250474F8121A927521019007
:1025FC0006A3E0640670151212278A828B83A3A3AC
:10260C00A3A3A3A3E0FAA3E0FB121287A2AFE433C7
:10261C00FED2AF9006A9E0640170187A207B00907E
:10262C0006A2E0F91205437A207B009006A2E0F99D
:10263C0012049B906182E0D2E6F0900842E06021A7
:10264C0085C62280169006A8E064017008E5C65481
:10265C00F84405F5C653BEFC122380740165216055
:10266C00E4EEA2E092AF7F01021B3E008E238F248A
:10267C00858228858327851882851983E0CEA3E07F
:10268C00CF852882852783EBC9EAC8EDCBECCA75C8
:10269C00F010C3E833C8E933C9EA33CAEB33CBC310
:1026AC00EA9EF526EB9FF525B35004AB25AA26EC44
:1026BC0033CCED33CDD5F0DAAE23AF242274E9124E
:1026CC001A9274F81219CF851882851983ECF0A32D
:1026DC00EDF08A088B099006A3E024F7C39405500B
:1026EC00067508010228601212278A0A8B0BAE0AA3
:1026FC00AF0BEE4F700302285DAC08AD09740212EB
:10270C001A1AAA82AB831212B78E828F83A3A37577
:10271C000CFF750DFF750EFF750F00780C1218531A
:10272C007402121A1A7510FF7511FF7512FF7513CA
:10273C00007810121853780C79101215E7502A787B
:10274C000C79101218007508017509C8750A007506
:10275C000B007808790C1215E75052850C08850D82
:10276C0009850E0A850F0B80507514017515C875F7
:10277C00160075170085100885110985120A851336
:10278C000B7808790C121800781479081215E740A8
:10279C001C750800750900750A00750B017808791D
:1027AC00101218007808790C1217C7800C750801E4
:1027BC00750900750A00750B00740978081217A8C2
:1027CC00750C19F50DF50EF50F7808790C1216A687
:1027DC008E828F83A3A3A3A3A3A3E0F8A3E0F97A2B
:1027EC00D07B03121944880C890DE4F50EF50F7893
:1027FC0008790C1217C77406121A1AE0F8A3E0F93C
:10280C007AD07B03121944E8FA8A0CE4F50D7808A7
:10281C00790C1215E750077808790C1218009006FD
:10282C00A3E06408600AE064066005E06405702DAE
:10283C00750C0D780C79081215E74021750CF475A0
:10284C000DFF750EFF750FFF7808790C1217C780F6
:10285C000C750800750900750A00750B0085188247
:10286C00851983E0F8A3E0F583888278081218AE06
:10287C0074081219E57F10021B3E74F7121A92129B
:10288C0012C9900840E064017010906245E4F0A316
:10289C00F053F4F343FE0C5390F3121275E5C65447
:1028AC00804449F5C6E59E547F644970F890618573
:1028BC00740FF090083EE0F47002A3E0604E9008B4
:1028CC003FE0600814601B14602E80407508017591
:1028DC00090090083EE078081219BCE508F4528013
:1028EC00802A75080175090090083EE078081219D5
:1028FC00BCE508F452908014750801750900900825
:10290C003EE078081219BCE508F452A079007F0269
:10291C00021B3E74F7121A92E9FEEAFF74016E7004
:10292C000C7A807B009006A2E0F9120495902C4C56
:10293C00E493F46008E493F91210C5800953C6803F
:10294C00E59E547F70FA12127B900840E06401708F
:10295C00031210DD90083EE0F47002A3E0604B908F
:10296C00083FE0600814601A14602C803D75080163
:10297C0075090090083EE078081219BCE508428001
:10298C00802875080175090090083EE07808121936
:10299C00BCE5084290801375080175090090083E4B
:1029AC00E078081219BCE50842A01212C9121227CD
:1029BC008A088B09A808A909E8496015E5E170FCAB
:1029CC00E82414F582E93400F583E0F46003E0F5C3
:1029DC00E174016F700A7A019006A2E0F9120513F6
:1029EC0002291A74ED121A928A088B098C0A8D0B23
:1029FC007413121A1A780C12189F7808790C121585
:102A0C00E77510017511C875120075130050127816
:102A1C0008790C121800781079081215E7501680F6
:102A2C0010780C79081218007810790C1215E74000
:102A3C00047901800279007F0C021B3E74ED121A9E
:102A4C00928A088B098C0A8D0B7413121A1A780C43
:102A5C0012189F780C79081215E740117808790C38
:102A6C00121800AA08AB09AC0AAD0B802275100035
:102A7C007511007512007513017810790C1218007D
:102A8C00781079081217C7AA10AB11AC12AD1380CD
:102A9C00A68A828B837508FF7509FF750AFF750B73
:102AAC000078081218667F04021B3E74F5121A9205
:102ABC008C828D83780812189F8A828B83780812F7
:102ACC00182CEA2404F8EB3400F98C828D83A3A330
:102ADC00A3A3E0FCA3E0FD88828983C3E09CF0A360
:102AEC00E09DF088828983C3E09420A3E0944E405B
:102AFC00268A828B837508FF7509FF750AFF750B93
:102B0C00FF78081217ED8A828B83A3A3A3A3E0247A
:102B1C0020F0A3E0344EF0022A9D74F5121A92E9CB
:102B2C00FE9007F8E0FAA3E0FBEEC333F8E433F9C8
:102B3C00743228F582748139F583E02AF508A3E014
:102B4C003BF5097808121C397A407B427C0F7D00DA
:102B5C0012267874021219E58A088B098C0A8D0BDF
:102B6C007410780812178FAA08AB097F04021B3E59
:102B7C0074F1121A928A0C8B0D8C0E8D0F740F122D
:102B8C001A1AE0FAA3E0FB7411121A1AE0F508A362
:102B9C00E0F5097808121C39EA2401F508EB340039
:102BAC00F509E4F50AF50B780C7908121626750868
:102BBC0071750902780C7908121626AA0CAB0DACAB
:102BCC000EAD0F12267874021219E58B09EA45092D
:102BDC0060047A0180027A00EC2AFCED3400FD746A
:102BEC0013121A1AE0F8A3E0F9E8FEE9FFECF8ED8D
:102BFC00F97A717B02121944880889098E828F83B5
:102C0C0078081218AEECF8EDF97A717B02121944BF
:102C1C008A088B09740578081219BC8E828F83A3DD
:102C2C00A3A3A3E508F0A3E509F07F08021B3EC0AF
:102C3C0082C083E9906000F0D083D08222020135FB
:102C4C00FFFFFFFFFFFFFFFF74F4121A2674EC1254
:102C5C0019CFE9FE9002ACF07405121A1A7401F047
:102C6C00740E121A1A7400F0A37400F07404121A81
:102C7C001A7401F0740C121A1A74C8F0A37400F0D0
:102C8C00740A121A1A7440F0A37406F07408121A1B
:102C9C001A7401F0A37400F07406121A1A74E8F096
:102CAC00A37403F07405121A1AAC82AD8379017AFD
:102CBC00057B03120945E9740E121A1AAC82AD8316
:102CCC0079027A067B03120945E97C747D0A79093D
:102CDC007A087B03120945E97C7D7D0A79097A071C
:102CEC007B03120945E97404121A1AAC82AD83797C
:102CFC00017A107B03120945E9740C121A1AAC8282
:102D0C00AD8379027A117B03120945E9740A121A10
:102D1C001AAC82AD8379027A127B03120945E974ED
:102D2C0008121A1AAC82AD8379027A137B0312094A
:102D3C0045E97406121A1AAC82AD8379027A147BB7
:102D4C0003120945E97C867D0A7A157900120C512B
:102D5C00E97AC77B4C7C007D007410121A1AEAF0D9
:102D6C00A3EBF0A3ECF0A3EDF07403121A1A7400A9
:102D7C00F07402121A1A7400F07401121A1A740008
:102D8C00F08518828519837400F07410121A1AAC2D
:102D9C0082AD8379047A087B0412070BE974031261
:102DAC001A1AAC82AD8379017A007B0412070BE905
:102DBC007402121A1AAC82AD8379017A027B041266
:102DCC00070BE97401121A1AAC82AD8379017A03EC
:102DDC007B0412070BE9851882851983AC82AD83BD
:102DEC0079017A067B0412070BE9120C6FE9FF904C
:102DFC0002ACE0F9120C759081A81218BD120C5798
:102E0C00E99081A81218BD120DB3E99081A812188F
:102E1C00BD1206BDE91206F3E9120579E97ACD7BFC
:102E2C00051206C31205E57A017B009002ACE0F9AD
:102E3C00120495E9900AA0E0F508A3E0F509E4F581
:102E4C000AF50B7808121C357A027B009002ACE074
:102E5C00F912053774041219E5E990032C7401F08A
:102E6C0074141219E57F04021AF874F2121A2689E6
:102E7C000AEAFEEBFFEE5400F8EF5480F9E84960E3
:102E8C00319002ACE0F912047D8A0C8B0DA80CA9D0
:102E9C000D88088909E849600FAA08AB0912059D3D
:102EAC00AA08AB0912046BE9EE6400FAEF6480FB2C
:102EBC008056EEA2E0501B7AB37B0A120951E9F559
:102ECC00087AF47B81120729EE6401FAEF6400FBA7
:102EDC008036EE5402601B7A147B031205DF7A14E1
:102EEC007B031205F11205C1EE6402FAEF6400FBDC
:102EFC008016EE5404600D1205FDEE6404FAEF64C6
:102F0C0000FB80047A007B007F06021AF874F7122B
:102F1C001A26EAFEEBFF8E828F83E02440600924A0
:102F2C00E0601B14602180268E828F83A3A3A3E014
:102F3C00FA8E828F83A3A3E0F91205A38010EEFA18
:102F4C00EFFB1205A98007EEFAEFFB1205F77F01E4
:102F5C00021AF874F7121A2674FF1219CFE9FEEA56
:102F6C00FFA2E150779002ADE06405606F7C207D9C
:102F7C00007A067B00120AD7E97C207D007A077B59
:102F8C0000120AD7E97C1E7D007A017B00120AD759
:102F9C00E9851882851983AC82AD837A057B03128F
:102FAC00094BE9851882851983E07004740180024D
:102FBC007400851882851983F0851882851983AC75
:102FCC0082AD8379017A057B03120945E985188264
:102FDC00851983E070069002B77401F07401121920
:102FEC00E57F01021AF874E8121A2674EC1219CF54
:102FFC008A088B09850882850983A3A3A3E0F516AB
:10300C00850882850983A3A3E024FFF517E5161430
:10301C0070030230B314607124FE70030232C914C1
:10302C00700302340824FE70030235BE14700302D0
:10303C00361A24FE70030236461470030236A2249C
:10304C00FE700302375E1470030237C224FE700355
:10305C000236CE14700302373224FE70030237EEB0
:10306C0014700302385424FE70030237EE147003FC
:10307C0002387F24FE70030238AA1470030231B99F
:10308C0014700302328C0238D37E03900AA0E0F84D
:10309C00A3E0F97AE87B03121944E88518828519B4
:1030AC0083F07F010238EA7E1CE5082404F8E50968
:1030BC003400F988128913850882850983A3A3E05B
:1030CC0024FFF51774016517600E85188285198326
:1030DC007403F07F010238EA851282851383E07055
:1030EC001A7A027B009002ACE0F9120543E9900ACF
:1030FC00A07400F0A37400F00231A1851282851334
:10310C0083E064FF703A900AA074E8F0A37403F0B3
:10311C0090032CE06401707D900AA0E0F50CA3E014
:10312C00F50DE4F50EF50F780C121C357A027B00C8
:10313C009002ACE0F912053774041219E5E98055D8
:10314C00851282851383E0F87900E875F0E8A4C84D
:10315C00AAF075F003A42AFA75F0E8E9A42AF9900C
:10316C000AA0E8F0A3E9F090032CE064017026902B
:10317C000AA0E0F50CA3E0F50DE4F50EF50F780CC4
:10318C00121C357A027B009002ACE0F91205377400
:10319C00041219E5E9E516851882851983E516F000
:1031AC007401121A1A7401F07F020238EA90032C8F
:1031BC00E06401701A7E1CE516851882851983E57A
:1031CC0016F07401121A1A7404F07F020238EA9095
:1031DC000AA0E0F8A3E0F9E849701A7E1CE5168510
:1031EC001882851983E516F07401121A1A7404F00A
:1031FC007F020238EA12060312062190032C740196
:10320C00F09081A0780C12189F900AA4780C1218D8
:10321C006690032A7400F0A37400F090032DE07004
:10322C00167A007B007C007D00900326EAF0A3EB6D
:10323C00F0A3ECF0A3EDF09081F81218BD1204D1BC
:10324C00900AA0E0F50CA3E0F50DE4F50EF50F786F
:10325C000C121C357A027B009002ACE0F912053797
:10326C0074041219E5E97E1CE5168518828519830C
:10327C00E516F07401121A1A7401F07F020238EA92
:10328C007A027B009002ACE0F9120543E990820CC3
:10329C00780C12189F900AA4780C12187990032CB1
:1032AC007400F07E1CE516851882851983E516F0EE
:1032BC007401121A1A7401F07F020238EA740A655A
:1032CC001760167E1C8518828519837404F07401AE
:1032DC00121A1A7403F00238EA850882850983A34E
:1032EC00A3A3A3E0FA7B00850882850983A3A3A38B
:1032FC00A3A3E0F87900E4C8F9EA28F8EB39F990CF
:10330C00033AE8F0A3E9F0850882850983A3A3A317
:10331C00A3A3A3E0FA7B00850882850983A3A3A35A
:10332C00A3A3A3A3E0F87900E4C8F9EA28F8EB39E1
:10333C00F990033CE8F0A3E9F0850882850983A3A2
:10334C00A3A3A3A3A3A3A3E090033EF085088285C7
:10335C000983A3A3A3A3A3A3A3A3A3E0FA7B008540
:10336C000882850983A3A3A3A3A3A3A3A3A3A3E078
:10337C00F87900E4C8F9EA28F8EB39F990033FE84A
:10338C00F0A3E9F0E508240BF582E5093400F58398
:10339C00E0FA7B00E508240CF582E5093400F5839E
:1033AC00E0F87900E4C8F9EA28F8EB39F990034120
:1033BC00E8F0A3E9F0E508240DF582E5093400F501
:1033CC0083E0900343F07401121A1AAC82AD837A35
:1033DC003A7B0312060F7A3A7B03120609E9740151
:1033EC00121A1AE064017004120615E97E1C851885
:1033FC00828519837404F07F020238EA750C00751B
:10340C000D007514007515007402651760167E1C8E
:10341C008518828519837405F07401121A1A7403C5
:10342C00F00238EA850882850983A3A3A3A3E0FAF6
:10343C007B00850882850983A3A3A3A3A3E0F87965
:10344C0000E4C8F9EA28F8EB39F988148915AA14AC
:10345C00AB151206278A0E8B0F850E0C850F0D747B
:10346C00FF650C700474FF650D70187E1C85188246
:10347C008519837405F07401121A1A7405F07F0211
:10348C000238EAA80CA90DE875F00AA4C8AAF075D0
:10349C00F000A42AFA75F00AE50DA42AF990033875
:1034AC00E028F8A3E039F9880A890B7E06850A82A0
:1034BC00850B83E0F8A3E0F9E8851882851983F081
:1034CC00850A82850B83E0F8A3E0F9E4E9F8C0E013
:1034DC007401121A1AD0E0F0850A82850B83A3A31B
:1034EC00E0F8A3E0F9E8C0E07402121A1AD0E0F098
:1034FC00850A82850B83A3A3E0F8A3E0F9E4E9F83D
:10350C00C0E07403121A1AD0E0F0850A82850B838E
:10351C00A3A3A3A3E0C0E07404121A1AD0E0F085B0
:10352C000A82850B83A3A3A3A3A3E0F8A3E0F9E885
:10353C00C0E07405121A1AD0E0F0850A82850B835C
:10354C00A3A3A3A3A3E0F8A3E0F9E4E9F8C0E07413
:10355C0006121A1AD0E0F0850A82850B83A3A3A366
:10356C00A3A3A3A3E0F8A3E0F9E8C0E07407121A40
:10357C001AD0E0F0850A82850B83A3A3A3A3A3A38F
:10358C00A3E0F8A3E0F9E4E9F8C0E07408121A1A11
:10359C00D0E0F0850A82850B83A3A3A3A3A3A3A3E6
:1035AC00A3A3E0C0E07409121A1AD0E0F07F0A025B
:1035BC0038EA850882850983A3A3A3A3E0FA7B00DC
:1035CC00850882850983A3A3A3A3A3E0F87900E46B
:1035DC00C8F9EA28F8EB39F9881089117401121A24
:1035EC001AAC82AD83AA10AB1112062D7401121AFB
:1035FC001AE064017008AA10AB11120633E97E1CA4
:10360C008518828519837407F07F020238EA7E09D7
:10361C0090034AE0F8A3E0F9E8851882851983F055
:10362C0090034AE0F8A3E0F9E4E9F8C0E074011271
:10363C001A1AD0E0F07F020238EA850882850983E5
:10364C00A3A3A3A3E0FA7B00850882850983A3A327
:10365C00A3A3A3E0F87900E4C8F9EA28F8EB39F958
:10366C00881089117401121A1AAC82AD83AA10AB9E
:10367C00111206457401121A1AE064017008AA109E
:10368C00AB1112064BE97E1C851882851983740ACE
:10369C00F07F020238EA7E0C90034CE0F8A3E0F9CC
:1036AC00E8851882851983F090034CE0F8A3E0F9C3
:1036BC00E4E9F8C0E07401121A1AD0E0F07F0202BB
:1036CC0038EAE5082404F8E5093400F9881289136E
:1036DC00851282851383E0FA7B0085128285138321
:1036EC00A3E0F87900E4C8F9EA28F8EB39F9881076
:1036FC0089117401121A1AAC82AD83AA10AB111283
:10370C0006637401121A1AE064017008AA10AB1156
:10371C00120669E97E1CE516851882851983E51663
:10372C00F07F020238EA7E1290034EE0F8A3E0F933
:10373C00E8851882851983F090034EE0F8A3E0F930
:10374C00E4E9F8C0E07401121A1AD0E0F07F02022A
:10375C0038EAE5082404F8E5093400F988128913DD
:10376C00851282851383E0FA7B0085128285138390
:10377C00A3E0F87900E4C8F9EA28F8EB39F98810E5
:10378C0089117401121A1AAC82AD83AA10AB1112F2
:10379C00067B7401121A1AE064017008AA10AB11AE
:1037AC00120681E97E1CE516851882851983E516BB
:1037BC00F07F020238EA7E0F900350E0F8A3E0F9A4
:1037CC00E8851882851983F0900350E0F8A3E0F99E
:1037DC00E4E9F8C0E07401121A1AD0E0F07F02029A
:1037EC0038EAE5082404F8E5093400F9881289134D
:1037FC00851282851383E0FA7B0085128285138300
:10380C00A3E0F87900E4C8F9EA28F8EB39F9881054
:10381C0089117401121A1AAC82AD83AA10AB111261
:10382C0006937401121A1AE06401700AA916AA1000
:10383C00AB11120699E97E1CE51685188285198351
:10384C00E516F07F020238EA7E15900354E0F8A3E7
:10385C00E0F9E8851882851983F0900354E0F8A309
:10386C00E0F9E4E9F8C0E07401121A1AD0E0F07F34
:10387C0002806B7E18900352E0F8A3E0F9E88518FB
:10388C0082851983F0900352E0F8A3E0F9E4E9F89B
:10389C00C0E07401121A1AD0E0F07F0280409081CF
:1038AC00F0780C12189F900AA4780C12188C7E1CBD
:1038BC00E516851882851983E516F07401121A1A1B
:1038CC007401F07F0280177E1CE51685188285191D
:1038DC0083E516F07401121A1A7402F07F02EFFCE1
:1038EC00851882851983AA82AB83EEF91205C774F9
:1038FC00141219E57F10021AF874F6121A2674F6CF
:10390C001219CFE9FE74056E7003023A739002AD82
:10391C00E06405707274056E606D7401121A1A748D
:10392C0001F074046E70267C207D007A067B0012F8
:10393C000AD7E97C207D007A077B00120AD7E97C44
:10394C001E7D007A017B00120AD7E980247C407D21
:10395C00067A067B00120AD7E97C407D067A077B43
:10396C0000120AD7E97C1E7D007A017B00120AD76F
:10397C00E97401121A1AAC82AD8379017A057B03C2
:10398C00120945E9023A739002ADE0640270717459
:10399C00036E706C9002B7E060099002B77400F08F
:1039AC00023A737A067B00120ADD8A088B097420AE
:1039BC0065087004740065096003023A7385188207
:1039CC008519837401F07C407D067A067B00120A0F
:1039DC00D7E97C407D067A077B00120AD7E97C1E6A
:1039EC007D007A017B00120AD7E98518828519833C
:1039FC00AC82AD8379017A057B03120945E98067B6
:103A0C0074016E70627402121A1AAC82AD837A045D
:103A1C007B0312094BE97407121A1AE0C0E074090F
:103A2C00121A1AD0E0F07406121A1AE0C0E07408E8
:103A3C00121A1AD0E0F07405121A1AE0C0E07407DA
:103A4C00121A1AD0E0F07406121A1A7400F07405E7
:103A5C00121A1A7400F07402121A1AAC82AD837A1C
:103A6C000879001206F9E9EE9002ADF0740A121909
:103A7C00E57F02021AF874F2121A268A088B098959
:103A8C000A8C0B7401650A705EE50B705A9002B5D6
:103A9C00E0FAA3E0FB120FED8A0C8B0DA80CA90D1C
:103AAC00E8FEE9FFE849603F8E828F83A3A3A3E081
:103ABC00A2E25004D2F08002C2F0A2F0E4339002F1
:103ACC00AEF09002AEE0601F750C06750D00780C20
:103ADC00121C39EE2405FCEF3400FD7AAF7B021288
:103AEC00044174021219E57F06021AF874F4121AD2
:103AFC00268A088B09ECFEEDFF890A740C121A1A3F
:103B0C00E0F50B9081EC121C4C7900EEFAEFFB12F5
:103B1C00072F74041219E5E97F04021AF874F012E5
:103B2C001A267508D2750902900315E0FE9003144D
:103B3C00E0850882850983F0850882850983A38541
:103B4C008208858309EE850882850983F0850882C1
:103B5C00850983A3858208858309900316E0F8A361
:103B6C00E0F9E8850882850983F085088285098358
:103B7C00A3858208858309900316E0F8A3E0F9E495
:103B8C00E9F8850882850983F0850882850983A375
:103B9C00858208858309900318E0F8A3E0F9E8858D
:103BAC000882850983F0850882850983A3858208AC
:103BBC00858309900318E0F8A3E0F9E4E9F8850897
:103BCC0082850983F0850882850983A3858208850F
:103BDC008309EEA2E7502090031A780C12189FE587
:103BEC000C850882850983E50CF08508828509839C
:103BFC00A3858208858309EEA2E5502790031A78E5
:103C0C000C12189F7410780C12178FE50C85088213
:103C1C00850983E50CF0850882850983A3858208D4
:103C2C00858309EEA2E6502590031A780C12189F92
:103C3C00E4E50DF50CE50C850882850983E50CF0AF
:103C4C00850882850983A3858208858309EEA2E015
:103C5C00503C90031EE0F8A3E0F9E8850882850942
:103C6C0083F0850882850983A38582088583099062
:103C7C00031EE0F8A3E0F9E4E9F8850882850983DE
:103C8C00F0850882850983A3858208858309EEA2C5
:103C9C00E1503C900320E0F8A3E0F9E88508828528
:103CAC000983F0850882850983A3858208858309A9
:103CBC00900320E0F8A3E0F9E4E9F885088285098F
:103CCC0083F0850882850983A38582088583099002
:103CDC000314E09002D1F09002ACE0F97CCF7D02AD
:103CEC009002B5E0FAA3E0FB1206C9E9900AA0E045
:103CFC00F50CA3E0F50DE4F50EF50F780C121C3560
:103D0C007A027B009002ACE0F912053774041219A8
:103D1C00E5E97F08021AF874F4121A26890AEAFEF9
:103D2C00EBFF8C0BE50A9002BBF07401250B9002A3
:103D3C00BAF0850B087509007808121C39EEFCEFF7
:103D4C00FD7ABC7B0212044174021219E59002AC9C
:103D5C00E0F97CB87D029002B5E0FAA3E0FB120614
:103D6C00CFE97F04021AF874E8121A2674F71219B4
:103D7C00CF8914EAFEEBFF8C108D117421121A1AE4
:103D8C00E0F512A3E0F5138E168F17E51414602FCF
:103D9C0014602C24FB700302416A1470030241D09E
:103DAC0024FE601E147003023E58147003023F017F
:103DBC00147003023FDB1470030240090242340208
:103DCC004234900A9B780812189FE5088E828F83E4
:103DDC00E508F08E828F83A3AA82AB83EAFEEBFF09
:103DEC00900A9B780812189FE4E509F508E5088A03
:103DFC00828B83E508F08E828F83A3AA82AB83EA41
:103E0C00FEEBFF900A9B780812189F74107808122A
:103E1C00178FE5088A828B83E508F08E828F83A347
:103E2C00A882A983E8FEE9FF900A9FE08882898333
:103E3C00F08E828F83A3AE82AF8374FFF08E828F5D
:103E4C0083A3AE82AF8374FFF00242341204D78A8C
:103E5C00088B098C0A8D0B900AA2E508F0A3E509E2
:103E6C00F0900AA2E0F8A3E0F9E88E828F83F08E3E
:103E7C00828F83A3A882A983E8FEE9FF900AA2E0BF
:103E8C00FAA3E0FBE4EBFA88828983F08E828F83BD
:103E9C00A3AA82AB83EAFEEBFF900AA4780812185F
:103EAC009FE5088A828B83E508F08E828F83A3AA14
:103EBC0082AB83EAFEEBFF900AA4780812189FE409
:103ECC00E509F508E5088A828B83E508F08E828F78
:103EDC0083A3AA82AB83EAFEEBFF900AA4780812B4
:103EEC00189F7410780812178FE5088A828B83E567
:103EFC0008F0024234900326121C4C7AA87B0A125A
:103F0C0004DD74041219E5900AADE0F8A3E0F9E8B9
:103F1C008E828F83F08E828F83A3A882A983E8FE82
:103F2C00E9FF900AADE0FAA3E0FBE4EBFA888289A2
:103F3C0083F08E828F83A3A882A983E8FEE9FF9089
:103F4C000AACE088828983F08E828F83A3A882A931
:103F5C0083E8FEE9FF900AABE088828983F08E82C9
:103F6C008F83A3A882A983E8FEE9FF900AAAE088C0
:103F7C00828983F08E828F83A3A882A983E8FEE9CD
:103F8C00FF900AA9E088828983F08E828F83A3A890
:103F9C0082A983E8FEE9FF900AA8E088828983F071
:103FAC008E828F83A3A882A983E8FEE9FF900AAFD3
:103FBC00E088828983F08E828F83A3A882A983E80C
:103FCC00FEE9FF900AB0E088828983F002423490C7
:103FDC000AB1E0F8A3E0F9E88E828F83F08E828F2D
:103FEC0083A3A882A983E8FEE9FF900AB1E0FAA3B3
:103FFC00E0FBE4EBFA88828983F00242348E828FF4
:10400C0083E0FA7B008E828F83A3E0F87900E4C80A
:10401C00F9EA28F8EB39F97405121A1AE8F0A3E951
:10402C00F08E828F83A3A3E0C0E07404121A1AD01E
:10403C00E0F08E828F83A3A3A3E0C0E07403121A76
:10404C001AD0E0F08E828F83A3A3A3A3E0C0E07408
:10405C0002121A1AD0E0F08E828F83A3A3A3A3A31B
:10406C00E0C0E07401121A1AD0E0F08E828F83A3A4
:10407C00A3A3A3A3A3E0851882851983F08E828F56
:10408C0083A3A3A3A3A3A3A3E0C0E07407121A1AEB
:10409C00D0E0F08E828F83A3A3A3A3A3A3A3A3E05A
:1040AC00C0E07408121A1AD0E0F07407121A1AE061
:1040BC00F91205D3E9600D7408121A1AE0F9120509
:1040CC00D9E9700C8512828513837404F002423492
:1040DC00851882851983AA82AB831204E98A088B1E
:1040EC00098C0A8D0B85080C85090D850A0E850B2C
:1040FC000F90032CE0700A900326780C1218AE80F7
:10410C00251204D79003221218C9850C08850D09B5
:10411C00850E0A850F0B9003227808121814900351
:10412C002678081218AE900326121C4C7AA87B0A2B
:10413C001204DD74041219E57407121A1AE0900ABD
:10414C00AFF07408121A1AE0900AB0F090032D74B4
:10415C0001F08512828513837400F00242347A17C1
:10416C007B001204658A0A8B0B850A08850B09E50E
:10417C00084509604D85088285098374E0F0851037
:10418C0082851183E0850882850983A3A3F08510BD
:10419C0082851183E0F50A750B00780A121C39EE42
:1041AC00FCEFFDE5082403FAE5093400FB12044199
:1041BC0074021219E5AA08AB099002ACE0F91204DA
:1041CC0071E980647A177B001204658A0A8B0B856F
:1041DC000A08850B09E5084509604D8508828509A3
:1041EC008374E1F0851082851183E085088285094E
:1041FC0083A3A3F0851082851183E0F50A750B006B
:10420C00780A121C39EEFCEFFDE5082403FAE509E7
:10421C003400FB12044174021219E5AA08AB099090
:10422C0002ACE0F9120471E974091219E57F10026D
:10423C001AF8E9F8E875F002121575E5F0600479E2
:10424C00008021E8C394D1A2D265D033400BE8C3DF
:10425C009438A2D265D0334005747F68700479011C
:10426C0080027900020135E9F87402686012740466
:10427C0068600DE8600A740868600574FF68700473
:10428C0079018002790002013574E8121A2674F261
:10429C001219CF7402121A1AEAF0A3EBF07F007E07
:1042AC00067406121A1A7400F0A37400F0851882B2
:1042BC0085198374A4F0A3740AF0750C00750D00B5
:1042CC00750E00750F007A007B007C007D00740A6F
:1042DC00121A1AEAF0A3EBF0A3ECF0A3EDF09003A2
:1042EC0056E0F8A3E0F9900358E8F0A3E9F01206C1
:1042FC00B7900356EAF0A3EBF0900356E0F8A3E076
:10430C00F97AFD7B07121944900356EAF0A3EBF0FF
:10431C00900356E0F8A3E0F97402121A1AE0FAA31B
:10432C00E0F5838A82A3A3E8F0A3E9F090032AE0E6
:10433C00F8A3E0F97402121A1AE0FAA3E0F5838AE2
:10434C0082A3A3A3A3E8F0A3E9F0900AA0E0F8A34A
:10435C00E0F97AE87B031219448808890990032A4A
:10436C00E02508F0A3E03509F090032AE0F8A3E07B
:10437C00F9E8497003024466900356E054FFF8A331
:10438C00E05407F9E4FAFB880C890D8A0E8B0F9028
:10439C000358E054FFFAA3E05407FBE4FCFD740A55
:1043AC00121A1AEAF0A3EBF0A3ECF0A3EDF0900ACA
:1043BC00A0E0F8A3E0F97AE87B0312194474081220
:1043CC001A1AE8F0A3E9F0850C08850D09850E0A88
:1043DC00850F0B740A121A1A78081218149081C4DB
:1043EC00781412189F780879141216267408121A69
:1043FC001AE0F514A3E0F515E4F516F5177808792D
:10440C0014121740850810850911850A12850B13A3
:10441C009081B878101215C1500E7404121A1A74C7
:10442C00FEF0A37407F080329081B078101215C1A1
:10443C00400E7404121A1A7402F0A3740FF0801A4E
:10444C00851008851109E5084400F8E50944F0F9E0
:10445C007404121A1AE8F0A3E9F0900356E0FAA3D8
:10446C00E0FB1206AB7406121A1AEAF0A3EBF090FA
:10447C000356E0FAA3E0FB12061B8A088B098C0A90
:10448C008D0B851882851983E0F8A3E0F58388826B
:10449C007808121879900356E0FAA3E0FB12063F55
:1044AC008A088B098C0A8D0B851882851983E0F894
:1044BC00A3E0F58388827808121879900356E0FA05
:1044CC00A3E0FB1206578A088B098C0A8D0B851802
:1044DC0082851983E0F8A3E0F583888278081218A6
:1044EC0079900356E0FAA3E0FB12065D8A088B096B
:1044FC008C0A8D0B851882851983E0F8A3E0F5836F
:10450C0088827808121879900356E0FAA3E0FB121F
:10451C0006758A088B098C0A8D0B85188285198380
:10452C00E0F8A3E0F58388827808121879740412F5
:10453C001A1AE0FAA3E0FB12068D8A088B098C0A82
:10454C008D0B851882851983E0F8A3E0F5838882AA
:10455C007808121879851882851983E0F8A3E0F59C
:10456C008388821218BD7402121A1AE0F8A3E0C8EC
:10457C002406F582E83400F5831218C9D3EF92E0D3
:10458C00FFD392E1FF851882851983E0F8A3E0F54B
:10459C00838882780812189FE50854FF6005D3EFD2
:1045AC0092E7FF851882851983E0F8A3E0F58388EC
:1045BC0082780812189FE5085400F8E50954FFF9B1
:1045CC00E8496005D3EF92E6FF851882851983E0F0
:1045DC00F8A3E0F5838882780812189F9081907870
:1045EC0008121853E5084509450A450B6005D3EF39
:1045FC0092E5FFEFA2E0502674022EFE7404121A0C
:10460C001AE0F8A3E0F97402121A1AE0FAA3E0CA4D
:10461C00240AF582EA3400F583E8F0A3E9F0EFA26E
:10462C00E1502674022EFE7406121A1AE0F8A3E06A
:10463C00F97402121A1AE0FAA3E0CA240CF582EA01
:10464C003400F583E8F0A3E9F0EFA2E550010EEF9A
:10465C00A2E650010EEFA2E750010EEEC0E074028C
:10466C00121A1AE0F8A3E0F5838882D0E0F0EFC0CC
:10467C00E07402121A1AE0F8A3E0F5838882A3D042
:10468C00E0F0740E1219E57F10021AF8C082C08394
:10469C007A8C7B001204FB90032EEAF0A3EBF090D3
:1046AC0003317400F09003307400F0900332740006
:1046BC00F090032D7400F01206B112062112063987
:1046CC0012065112066F12068712069FD083D082F3
:1046DC0002013574F0121A26890C8A088B098C0E8B
:1046EC008D0F7E007F00900331E070057906024A41
:1046FC00AFE50C14601E1470030248C41460581407
:10470C0070030249EE1470030248661470030248E9
:10471C0085024AAD900332E0900333F0900332E00F
:10472C00F87900900331E0FA7B00E82AF8E93BF9CC
:10473C00E824FFF8E934FFF97A0A7B0012193CEA05
:10474C00900334F0900331E0F87900900335F0A336
:10475C00E9F07901024AAF900332E0F879008E0A51
:10476C00750B00250AF8E9350BF97A0A7B0012194A
:10477C003CEAFFEFF87900E875F00EA4C8AAF075D2
:10478C00F000A42AFA75F00EE9A42AF990032EE0A1
:10479C0028FAA3E0398A82F583A3A3A3A3C3E095E7
:1047AC0008A3E09509403CEF900333F0900332E00E
:1047BC00F87900900331E0FA7B00E82AF8E93BF93C
:1047CC00E824FFF8E934FFF97A0A7B0012193CEA75
:1047DC00900334F0900333E0F8900334E0C3984036
:1047EC0046801D0E900331E0F8EEC398400F900305
:1047FC00357400F0A37400F07906024AAF024763E7
:10480C00900334E0F87900900333E0FA7B00E8C3BE
:10481C009AF8E99BF9E82401F8E93400F99003359A
:10482C00E8F0A3E9F0802E900333E0F87900740AE5
:10483C00C398F8740099F9900334E0FA7B00E82AE5
:10484C00F8E93BF9E8C394FFF8E994FFF9900335D4
:10485C00E8F0A3E9F07901024AAF900332E090034B
:10486C0033F0900332E0900334F09003357401F090
:10487C00A37400F07901024AAF900332E0F879009A
:10488C00900331E0FA7B00E82AF8E93BF9E824FFD1
:10489C00F8E934FFF97A0A7B0012193CEA900333E9
:1048AC00F0900333E0900334F09003357401F0A3DF
:1048BC007400F07901024AAF900332E0F879008E6F
:1048CC000A750B00250AF8E9350BF97A0A7B0012F8
:1048DC00193CEAFFEFF87900E875F00EA4C8AAF0CD
:1048EC0075F000A42AFA75F00EE9A42AF990032EAB
:1048FC00E028FAA3E0398A82F583A3A3A3A3E0F806
:10490C00A3E0F9C3E50898E50999502FEE700F90D4
:10491C0003357400F0A37400F07906024AAF8F0AD5
:10492C00750B00E50A2409F8E50B3400F97A0A7BCB
:10493C000012193CEA900334F080380E900331E0F9
:10494C00F8EEC398402A900332E0F87900900331D6
:10495C00E0FA7B00E82AF8E93BF9E824FFF8E934AF
:10496C00FFF97A0A7B0012193CEA900334F08003B9
:10497C000248C4900332E0900333F0900333E0F824
:10498C00900334E0C3984027900334E0F87900900A
:10499C000333E0FA7B00E8C39AF8E99BF9E82401B9
:1049AC00F8E93400F9900335E8F0A3E9F0802E9093
:1049BC000333E0F87900740AC398F8740099F990FD
:1049CC000334E0FA7B00E82AF8E93BF9E8C394FFEA
:1049DC00F8E994FFF9900335E8F0A3E9F0790102C6
:1049EC004AAFC3E50E9508E50F9509500579050208
:1049FC004AAF7C007D00AA08AB0979031205EBE9EC
:104A0C006406601A900333E0F50B7C007D00AA0E5F
:104A1C00AB0F79021205EBE9640670078026790664
:104A2C00024AAF900334E0F50AE50B900333F0E54E
:104A3C000A900334F0900333E0F8900334E0C39809
:104A4C00402D80047906805B900334E0F879009067
:104A5C000333E0FA7B00E8C39AF8E99BF9E82401F8
:104A6C00F8E93400F9900335E8F0A3E9F0802E90D2
:104A7C000333E0F87900740AC398F8740099F9903C
:104A8C000334E0FA7B00E82AF8E93BF9E8C394FF29
:104A9C00F8E994FFF9900335E8F0A3E9F079018087
:104AAC000279087F08021AF874F6121A26EAFEEB4D
:104ABC00FF900332E0F87900900331E0FA7B00E8D4
:104ACC002AF8E93BF97A0A7B0012193CEA90033088
:104ADC00F0900330E0F8900332E0687023900331DB
:104AEC00E0C39401401A900332E0F879002401F8F5
:104AFC00E93400F97A0A7B0012193CEA900332F08F
:104B0C0075080E7509007808121C39EEFCEFFD9043
:104B1C000330E0F87900E875F00EA4C8AAF075F03F
:104B2C0000A42AFA75F00EE9A42AF990032EE028C5
:104B3C00FAA3E039FB12044174021219E590033117
:104B4C00E02401F0900331E0C3940B400690033154
:104B5C00740AF07F02021AF874F0121A268A0C8B6F
:104B6C000D850C82850D83A3A3A3E0FE850C8285A5
:104B7C000D83A3A3A3A3E0FF750E00750F007508AA
:104B8C0000750900750A00750B00EE14600F1460B7
:104B9C000C147003024E70146003024EB7EF7035A4
:104BAC009002E97406F09002EA7400F0EE9002EBC9
:104BBC00F09002EC7403F09002E87404F09002ACF4
:104BCC00E0F97CE67D029002B5E0FAA3E0FB120668
:104BDC00D5E9024EE9EFC3940740359002E974061B
:104BEC00F09002EA7400F0EE9002EBF09002EC749C
:104BFC0004F09002E87404F09002ACE0F97CE67DDD
:104C0C00029002B5E0FAA3E0FB1206D5E9024EE9E8
:104C1C0074026F600A74036F600574046F7077859B
:104C2C000C82850D83A3A3A3A3A3E0F8880B7401C6
:104C3C006860359002EC7409F09002E97406F0900B
:104C4C0002EA7400F0EE9002EBF09002E87404F0CB
:104C5C009002ACE0F97CE67D029002B5E0FAA3E0AC
:104C6C00FB1206D5E9024EE9850C82850D83A3A3C0
:104C7C00A3A3A3A3E0FA7B00850C82850D83A3A3D9
:104C8C00A3A3A3A3A3E0F87900E4C8F9EA28F8EBFE
:104C9C0039F9880E890F74046F7032850C82850D7A
:104CAC0083A3A3A3A3A3A3A3A3E0FA7B00850C82F5
:104CBC00850D83A3A3A3A3A3A3A3A3A3E0F87900C7
:104CCC00E4C8F9EA28F8EB39F98808890974016F06
:104CDC00700E850C82850D83A3A3E0C39403501042
:104CEC0074046F7040C3E508950EE509950F5035B7
:104CFC009002EC7405F09002E97406F09002EA74EC
:104D0C0000F0EE9002EBF09002E87404F09002AC2C
:104D1C00E0F97CE67D029002B5E0FAA3E0FB120616
:104D2C00D5E9024EE9AC08AD09AA0EAB0FEFF912AA
:104D3C0005EBE9F8880A7401686003024E117401EE
:104D4C006E70279003377400F0908194121C4C7A8B
:104D5C00047B009002ACE0F912053774041219E5DB
:104D6C00E979011206EDE9024EE974046E70469081
:104D7C0002E97405F09002EA7400F0900335E0F853
:104D8C00A3E0F9E89002EBF0900335E0F8A3E0F92A
:104D9C00E4E9F89002ECF09002E87404F09002ACB4
:104DAC00E0F97CE67D029002B5E0FAA3E0FB120686
:104DBC00D5E9024EE974026E6003024EE99002E9F5
:104DCC007406F09002EA7400F0EE9002EBF090039F
:104DDC0035E0FCA3E0FD900334E0FA900333E0F9F6
:104DEC001206A5E99002ECF09002E87404F090022F
:104DFC00ACE0F97CE67D029002B5E0FAA3E0FB1290
:104E0C0006D5E9805D7406650A702574046E702001
:104E1C009002EC7400F09002E97405F09002EA74D0
:104E2C0000F09002EB7400F09002E87404F0801D26
:104E3C00E50A9002ECF09002E97406F09002EA7434
:104E4C0000F0EE9002EBF09002E87404F09002ACEB
:104E5C00E0F97CE67D029002B5E0FAA3E0FB1206D5
:104E6C00D5E980797A047B009002ACE0F912054315
:104E7C00E979001206EDE99002E97406F09002EA75
:104E8C007400F0EE9002EBF09002EC7401F09002E2
:104E9C00E87404F09002ACE0F97CE67D029002B577
:104EAC00E0FAA3E0FB1206D5E980329002E9740621
:104EBC00F09002EA7400F0EE9002EBF09002EC74C9
:104ECC0002F09002E87404F09002ACE0F97CE67D0C
:104EDC00029002B5E0FAA3E0FB1206D5E97F0802C6
:104EEC001AF874F0121A26900337E0FA7B0090033C
:104EFC0035E0F8A3E0F9C3EA98EB99400302515569
:104F0C00900333E0F87900900337E0FA7B00E82A4D
:104F1C00F8E93BF97A0A7B0012193CEA75F00EA409
:104F2C00CAA8F075F000A428F875F00EEBA428FBC5
:104F3C0090032EE02AF508A3E03BF5097E007F03E1
:104F4C00850882850983A3E0F50A85088285098393
:104F5C00E08E828F83F08E828F83A3AE82AF83E547
:104F6C000A8E828F83E50AF08E828F83A3AE82AF86
:104F7C0083850882850983A3A3E0F8A3E0F9E88E72
:104F8C00828F83F08E828F83A3AE82AF838508825B
:104F9C00850983A3A3E0F8A3E0F9E4E9F88E828FF6
:104FAC0083F08E828F83A3AE82AF838508828509BE
:104FBC0083A3A3A3A3E0F8A3E0F9E88E828F83F088
:104FCC008E828F83A3AE82AF83850882850983A3EB
:104FDC00A3A3A3E0F8A3E0F9E4E9F88E828F83F0B1
:104FEC008E828F83A3AE82AF83E50AA2E75023851E
:104FFC000882850983A3A3A3A3A3A3780C12189FEB
:10500C00E50C8E828F83E50CF08E828F83A3AE82AB
:10501C00AF83E50AA2E5502A850882850983A3A3FC
:10502C00A3A3A3A3780C12189F7410780C12178FDB
:10503C00E50C8E828F83E50CF08E828F83A3AE827B
:10504C00AF83E50AA2E65028850882850983A3A3CD
:10505C00A3A3A3A3780C12189FE4E50DF50CE50CA3
:10506C008E828F83E50CF08E828F83A3AE82AF830A
:10507C00E50AA2E0504A850882850983A3A3A3A36D
:10508C00A3A3A3A3A3A3E0F8A3E0F9E88E828F83E4
:10509C00F08E828F83A3AE82AF83850882850983CD
:1050AC00A3A3A3A3A3A3A3A3A3A3E0F8A3E0F9E45E
:1050BC00E9F88E828F83F08E828F83A3AE82AF83CA
:1050CC00E50AA2E15042E508240CF582E50934001A
:1050DC00F583E0F8A3E0F9E88E828F83F08E828F5F
:1050EC0083A3AE82AF83E508240CF582E509340076
:1050FC00F583E0F8A3E0F9E4E9F88E828F83F08E73
:10510C00828F83A3AE82AF83850882850983E0906A
:10511C0002FFF0900337E02401F09002ACE0F97C40
:10512C00FD7D029002B5E0FAA3E0FB1206C9E990FE
:10513C008198121C4C7A047B009002ACE0F91205A9
:10514C003774041219E5E980467A047B009002ACAE
:10515C00E0F9120543E99002E87404F09002E97456
:10516C0006F09002EA7400F09002EB7401F09002E9
:10517C00EC7401F09002ACE0F97CE67D029002B593
:10518C00E0FAA3E0FB1206D5E979001206EDE97FFF
:10519C0008021AF8C082C0839003327400F09003A6
:1051AC00317400F0D083D08202013574F7121A26C4
:1051BC00EAFCEBFD900346E0F87900E875F00AA4F0
:1051CC00C8AAF075F000A42AFA75F00AE9A42AF925
:1051DC00900338E028F8A3E039F9E8FEE9FF8C8267
:1051EC008D83E0F8A3E0F98E828F83E8F0A3E9F0D9
:1051FC008C828D83A3A3E0F8A3E0F98E828F83A326
:10520C00A3E8F0A3E9F08C828D83A3A3A3A3E08E83
:10521C00828F83A3A3A3A3F08C828D83A3A3A3A3C8
:10522C00A3E0F8A3E0F98E828F83A3A3A3A3A3E842
:10523C00F0A3E9F0900347E02401F0900347E0F875
:10524C0079008E828F83A3A3A3A3A3A3A3F0A3E9C6
:10525C00F0900346E0F879002401F8E93400F97A7B
:10526C000A7B0012193CEA900346F0900344E0C319
:10527C00940A5009900344E02401F0801A900345ED
:10528C00E0F879002401F8E93400F97A0A7B00127D
:10529C00193CEA900345F079007F01021AF874F189
:1052AC00121A26EAFEEBFF750E04750C00750D0044
:1052BC00780079007A007B00880889098A0A8B0BB0
:1052CC008E828F83E0F50CA3E0F50DE50E8E828FB8
:1052DC0083A3A3A3A3A3A3A3A3A3E50EF08C828D06
:1052EC00837401F07F07021AF8C082C083900344D4
:1052FC00E0700479008069900345E0F87900900330
:10530C0044E0FA7B00E82AF8E93BF9E824FFF8E9E5
:10531C0034FFF97A0A7B0012193CEA75F00AA4CA28
:10532C00A8F075F000A428F875F00AEBA428FB90FF
:10533C000338E02AF8A3E03BF9E8FCE9FD8C828D08
:10534C0083E0F8A3E0F9900348E8F0A3E9F08C823D
:10535C008D83A3A3A3A3A3A3A3A3A37400F0790099
:10536C00D083D08202013574F6121A26EAFEEBFFC6
:10537C00750800750900900344E0C3940140469001
:10538C000345E0F87900900344E0FA7B00E82AF842
:10539C00E93BF9E824FFF8E934FFF97A0A7B0012BB
:1053AC00193CEA75F00AA4CAA8F075F000A428F814
:1053BC0075F00AEBA428FB900338E02AF8A3E03B35
:1053CC00F988088909C3EE9491EF9401400A7A0098
:1053DC007B087C007D008033C3EE942DEF9401405C
:1053EC0022E50845096012850882850983A3A3A3D9
:1053FC00A3A37400F0A37400F07A007B047C007DFE
:10540C000080087A007B007C007D007F02021AF885
:10541C00C082C0839003457400F09003467400F082
:10542C009003447400F09003477400F0D083D08252
:10543C0002013574F2121A268A088B09750A007556
:10544C000B007E007F00900344E07045900345E024
:10545C00F87900E875F00AA4C8AAF075F000A42A3F
:10546C00FA75F00AE9A42AF9900338E028F8A3E0C9
:10547C0039F9880A890B850A82850B83A3A3A3A318
:10548C00A3A3A37400F0A37400F07A007B00025570
:10549C004874FF6508700474FF6509702590034516
:1054AC00E0F87900900344E0FA7B00E82AF8E93B45
:1054BC00F9E824FFF8E934FFF97A0A7B0012193C69
:1054CC00807A900345E0F879002EF8E93FF97A0AE2
:1054DC007B001219448A0C8B0DAC0CAD0DECF8ED65
:1054EC00F9E875F00AA4C8AAF075F000A42AFA75B8
:1054FC00F00AE9A42AF9900338E028F8A3E039F976
:10550C00880A890B850A82850B83A3A3A3A3A3A373
:10551C00A3E065087004A3E065097006ECFAEDFBE6
:10552C00801AEE2401FEEF3400FF900344E0F8797A
:10553C0000C3EE98EF99408A7AFF7BFF7F06021A30
:10554C00F8C082C0838C828D837401F0C3EA9459B5
:10555C00EB94025009C3EA940AEB940050078C8236
:10556C008D837405F0D083D082020135C082C08354
:10557C00790090034AEAF0A3EBF0D083D0820201C9
:10558C0035C082C08390034A74F4F0A37401F0D048
:10559C0083D082020135C082C083EAF8EBF9900314
:1055AC004AC3E098A3E099500A7A007B007C027D04
:1055BC000080087A007B007C007D00D083D08202C2
:1055CC000135C082C0838C828D837401F0C3EA9450
:1055DC00F5EB94015009C3EA940AEB940050078C44
:1055EC00828D837405F0D083D082020135C082C0D5
:1055FC0083790090034CEAF0A3EBF0D083D08202C5
:10560C000135C082C08390034C7464F0A37400F025
:10561C00D083D082020135C082C083EAF8EBF990C6
:10562C00034CE0FAA3E0FBC3E89AE99B500A7A002A
:10563C007B007C017D0080087A007B007C007D0073
:10564C00D083D08202013574F0121A26EAFEEBFFE9
:10565C0090034EE054FFF508A3E05407F5098508C4
:10566C000C85090DE4F50EF50F8E088F09E4F50A8B
:10567C00F50B780C79081215AC400A7A007B007C8B
:10568C00087D0080087A007B007C007D007F08028A
:10569C001AF8C082C0838C828D837401F0C3EA94A3
:1056AC0059EB94025009C3EA940AEB940050078C0E
:1056BC00828D837405F0D083D082020135C082C004
:1056CC0083790090034EEAF0A3EBF0D083D08202F2
:1056DC000135C082C08390034E74F4F0A37401F0C2
:1056EC00D083D08202013574F0121A26EAFEEBFF49
:1056FC00900350E054FFF508A3E05407F509850822
:10570C000C85090DE4F50EF50F8E088F09E4F50AEA
:10571C00F50B7808790C1215AC400A7A007B007CEA
:10572C00047D0080087A007B007C007D007F0802ED
:10573C001AF8C082C0838C828D837401F0C3EA9402
:10574C0059EB94025009C3EA940AEB940050078C6D
:10575C00828D837405F0D083D082020135C082C063
:10576C00837900900350EAF0A3EBF0D083D082024F
:10577C000135C082C0839003507432F0A37400F0E2
:10578C00D083D082020135C082C083EAF8EBF9E8FD
:10579C005400FAE95408FBEA4B703B900352E05476
:1057AC0000FAA3E054F0FB74006A700374F06B70A1
:1057BC0060900352E054FFFAA3E05407FBE854FF57
:1057CC00FCE95407FDC3EA9CEB9D50457A007B0035
:1057DC007C207D008043900354E05400FAA3E054F5
:1057EC00F0FB74006A700374F06B7025E854FFFCD6
:1057FC00E95407FD900354E054FFFAA3E05407FB6F
:10580C00C3EC9AED9B500A7A007B007C107D0080E3
:10581C00087A007B007C007D00D083D082020135A9
:10582C00C082C0838C828D837401F0EA5400F8EB43
:10583C005408F9E849602BEA54FFF8EB5407F9C314
:10584C00E89403E994004011EA54FFF8EB5407F98B
:10585C00C3E89400E9940840218C828D837405F090
:10586C008018EA54FFF8EB5407F9C3E894FEE99466
:10587C000740078C828D837405F0D083D08202019F
:10588C0035C082C083E9F8741668700A900352EA36
:10589C00F0A3EBF08008900354EAF0A3EBF079004E
:1058AC00D083D082020135C082C083900352740A27
:1058BC00F0A374F0F090035474F6F0A374FFF0D0DE
:1058CC0083D08202013574EE121A26890C8A08ECF8
:1058DC00FEEDFF900331E0F87900C3EE98EF9940AC
:1058EC00081206037901025A28900332E0F8790075
:1058FC00900331E0FA7B00E82AF8E93BF9E824FF51
:10590C00F8E934FFF97A0A7B0012193CEAF50AE54A
:10591C000A65087014EEF8900331E0C398F0E50CBA
:10592C00900330F07901025A28850A10751100E5B0
:10593C0010240AF8E5113400F9850810751100E8F7
:10594C00C39510F8E99511F97A0A7B0012193C8A73
:10595C00108B1185100E85110F74012508F50B8520
:10596C000C09E50E450F7003025A1775100E7511D0
:10597C00007810121C39E50BA80B7900E875F00EB5
:10598C00A4C8AAF075F000A42AFA75F00EE9A42AAE
:10599C00F990032EE028FCA3E039FDE509A809796C
:1059AC0000E875F00EA4C8AAF075F000A42AFA75E8
:1059BC00F00EE9A42AF990032EE028FAA3E039FBB3
:1059CC0012044174021219E5850910751100E510D5
:1059DC002401F8E5113400F97A0A7B0012193CEA2B
:1059EC00F509850B10751100E5102401F8E511344B
:1059FC0000F97A0A7B0012193CEAF50BE50E24FF3C
:105A0C00F50EE50F34FFF50F02596EE509900330E2
:105A1C00F0EEF8900331E0C398F079017F0A021A96
:105A2C00F8EAF8EBF97A5A7B0002013574EE121A97
:105A3C002674FA1219CF8A0A8B0B8909ECFEEDFF3A
:105A4C00750800850A0C850B0D780C121C7D000462
:105A5C0010115D815AA25AC15AE25A035B245B575A
:105A6C005B785B8F5BBD5B7B5C9C5CBC5CE65C11C0
:105A7C005D115DE85B7401650970158E828F83E0A2
:105A8C00C39403500B8E828F83E0900BF8F080034D
:105A9C00750818025D3A7402650970138E828F8343
:105AAC00E0F8A3E0F9900BF9E8F0A3E9F0800375B6
:105ABC000818025D3A7401650970158E828F83E0B7
:105ACC00C39402500B8E828F83E090037FF080038F
:105ADC00750818025D3A7401650970158E828F8302
:105AEC00E0C39405500B8E828F83E0900380F0808E
:105AFC0003750818025D3A7401650970158E828F62
:105B0C0083E0C39402500B8E828F83E0900381F06C
:105B1C008003750818025D3A741065097027750CBE
:105B2C0010750D00780C121C39EEFCEFFD7A827B9F
