:020000040000FA
:0600000002011D0226634F
:03002B00021F2091
:03003300021EF5B5
:030053000226D6AC
:03006B00021ECAA8
:100083000224CFE5C754F84401F5C77901220000E3
:100093000080FB120086B90003020107E47921788E
:1000A30008B800028004F709D8FCE479297802B87B
:1000B30000028004F709D8FCE490028178A3790850
:1000C3008002F0A3D8FCD9FA781A90014D7A01BACC
:1000D30000028007E493A3F608DAF9900A23AA82C0
:1000E300AB8390014E78EE79058015E493A3AC823F
:1000F300AD838A828B83F0A3AA82AB838C828D83A8
:10010300D8E9D9E775822E758386740412012F7599
:100113008291758300740012012F75D00075813FA1
:10012300751881751902759F00020096C09FF59F8F
:10013300E473D09F22D083D082C09FE493C0E07445
:100143000193C0E0740293F59F2201FFFF1101990F
:10015300010F12640401023B82010000108202239A
:10016300820100002A0A025F820100002B0A022595
:1001730082030000A6020233820100002C0A080950
:1001830043474D2053696D02010505021F180A18E4
:1001930043474D2053696D756C61746F72000000A5
:1001A30000000000000090000059E8033412000032
:1001B30000000000000000D007EC00A800AF07001B
:1001C300001002020A0202002828023B82010000FA
:1001D3001982022382010000990A0257820000005B
:1001E3004603022582CC0000400302238201000063
:1001F3009A0A025582440000470302238201000049
:100203009B0A02518244000048030223820100003A
:100213009C0A024F82CC00004903022382010000A2
:100223009D0A024B824400009E0A022382010000C1
:10023300A00A024982CC00005003022582CC0000B0
:100243004A03022382010000A10A024782CC000074
:100253005703022582CC00005103000089111223A9
:100263009B322446AD573665BF74488CC19D5AAF47
:10027300D3BE6CCAE5DB7EE9F7F88110080193333E
:100283001A22A5562C47B7753E64C99C408DDBBF27
:1002930052AEEDDA64CBFFF976E802218B3010021F
:1002A30099132667AF763444BD554AADC3BC588E07
:1002B300D19F6EEBE7FA7CC8F5D983310A209112FE
:1002C3001803A7772E66B5543C45CBBD42ACD99EE7
:1002D300508FEFFB66EAFDD874C904428D53166153
:1002E3009F702004A9153227BB364CCEC5DF5EEDC7
:1002F300D7FC6888E1997AABF3BA85520C439771BE
:100303001E60A1142805B3373A26CDDE44CFDFFDA6
:1003130056ECE9986089FBBB72AA06638F7214409E
:100323009D512225AB343006B9174EEFC7FE5CCC86
:10033300D5DD6AA9E3B8788AF19B87730E6295507D
:100343001C41A3352A24B1163807CFFF46EEDDDC66
:1003530054CDEBB962A8F99A708B088481951AA7DA
:1003630093B62CC2A5D33EE1B7F04008C919522B6E
:10037300DB3A644EED5F766DFF7C899400859BB715
:1003830012A6ADD224C3BFF136E0C1184809D33B4E
:100393005A2AE55E6C4FF77D7E6C0AA583B41886F6
:1003A30091972EE3A7F23CC0B5D14229CB38500A2E
:1003B300D91B666FEF7E744CFD5D8BB502A49996D5
:1003C3001087AFF326E2BDD034C1C3394A28D11A0E
:1003D300580BE77F6E6EF55C7C4D0CC685D71EE52A
:1003E30097F42880A1913AA3B3B2444ACD5B5669EE
:1003F300DF78600CE91D722FFB3E8DD604C79FF595
:1004030016E4A9902081BBB332A2C55A4C4BD779CD
:100413005E68E11C680DF33F7A2E0EE787F61CC475
:1004230095D52AA1A3B03882B193466BCF7A5448AD
:10043300DD59622DEB3C700EF91F8FF706E69DD454
:1004430014C5ABB122A0B9923083C77B4E6AD5588D
:100453005C49E33D6A2CF11E780F0202020202029C
:10046300020202010D0000001001023B82010000A4
:100473001C82022382010000320D0241820100002E
:100483005803022382010000330D023F8201000062
:100493006581022382010000340D023D82010000C8
:1004A3005E81022382010000350D0261820100009A
:1004B3000C82022382010000360D02398201000002
:1004C300FC81022382010000370D02378201000004
:1004D3000082022382010000380D023582010000F0
:1004E3000482022382010000390D025382010000BD
:1004F30042810223820100003A0D025D8201000065
:100503003B0D01E803053F100AFF000130750302AC
:1005130001060000000000000000000000000000D1
:100523000000000000000000000000000000FFFFCA
:100533000600800CE803FF0000B400002800280038
:10054300283075A000A000A000A00000080008E06B
:1005530001F00010001000100010001000100050F7
:10056300005000500010001000D0070000000000F1
:10057300000F000100050030750700100001008125
:10058300FF00000000FF5B0D790D610DFF02020209
:1005930008025000A0000000E803023B82010000B3
:1005A3001682022382010000650E022782010000E9
:1005B3005405022382010000660E02298201000015
:1005C3006A05022382010000670E022B82010000EC
:1005D3006C05022382010000680E022D82080000D0
:1005E3006D05022382010000690E022F82010000C3
:1005F3006A0EFFFF0100FF20023B8201000013820D
:10060300022382010000CF0E0231820000000000AD
:10061300022582030000FC056D136D136D136D132A
:100623006D136D136D136D136D136D136D136D13C7
:100633006D1301161916FB15120138959A03120151
:1006430038AA9A03120138029B03120138699B03EB
:10065300120138B19B03120138279C03120138564B
:100663009C03120138649C03120138C89C031201D5
:1006730038069D03120138219D03120138B99D03E9
:10068300120138629E03120138E59E031201381EDF
:100693009F03120138A99F0312013800A00312011E
:1006A300385FA00312013871A00312013897A00329
:1006B300120138A0A003120138FFA1031201387DF3
:1006C3008404120138D3B003120138B2B10312010A
:1006D300380EB20312013828B20312013839B203BB
:1006E30012013834B50312013854B5031201385CD2
:1006F300F403120138A1F403120138E7F4031201E1
:10070300387AF60312013827FF0312013842FF0338
:1007130012013852FF03120138A9FF03120138E313
:10072300F80212013803F90212013807FA02120122
:100733003853FA0212013873FA02120138C6FA0268
:1007430012013833FB0212013879FB02120138DD42
:10075300FB021201388FFE0212013810FF02120150
:100763003805FE0312013835FE0312013865FE0316
:10077300120138BFFE0312013842E3031201387736
:10078300E30312013866E4031201384AE503120158
:10079300389C2D00120138982F001201383B30008D
:1007A300120138813000120138143100120138B4BB
:1007B3003300120138313500120138A73500120118
:1007C30038D83500120138DC37001201388538007B
:1007D300120138FE3E00120138333F001201385532
:1007E3003F001201385A42001201388F42001201B1
:1007F300386446001201381447001201389E4A003B
:10080300120138A84D00120138BF4D00120138F40F
:100813004E001201388886041201389986041201A9
:1008230038D292031201383B93031201384E9303DB
:100833001201389F9303120138FE93031201385DAE
:1008430094031201380796031201382C9A031201FC
:10085300387F9A031201381C8304120138A18304E0
:100863001201382CBC0312013851BC031201388C1D
:10087300BC031201382085041201384F50001201C5
:10088300385D53001201381D5500120138C8550058
:100893001201386C56001201380557001201383422
:1008A3005700120138A057001201387A5C00120178
:1008B30038255D00120138955E00120138FD5E0097
:1008C300120138B15F00120138736200120138B2AD
:1008D3006200120138266300120138856300120199
:1008E30038E463001201385364001201384665008E
:1008F3001201388C6500120138D16500120138F4F9
:1009030065001201386F6700120138826700120117
:10091300388B6800120138CA6800120138F6680083
:100923001201384969001201386A6900120138AEB0
:100933006900120138006C00120138416C00120189
:1009430038EC6C00120138576D00120138946E00B8
:100953001201381D82041201382E82041201380C50
:100963008304120138B3F1031201384EF403120168
:1009730038F78604120138B77E00120138C77E00AB
:10098300120138E17E00120138E97F001201384D6F
:10099300E903120138F3E9031201380FEC031201E2
:1009A30038BDF803120138EDF8031201385DF9037D
:1009B30012013881F903120138DDF90312013858A5
:1009C300FA0312013895FA0312013898FA03120157
:1009D3003822C10312013844C103120138D9C103BB
:1009E300120138C9C20312013826C5031201388621
:1009F300C503120138EFC503120138F87F00120155
:100A03003806EF03120138FDF00312013869F103D0
:100A1300120138B0F103120138BEF6031201382770
:100A2300F703120138E5F70312013864F8031201E2
:100A330038F9D7031201382BD80312013833D903FD
:100A430012013858DA0312013814DB03120138009B
:100A53008003120138E68003120138338103120147
:100A630038768103120138EB81031201384C82037B
:100A7300120138C182031201389D8303120138A881
:100A83008403120138298503120138D08603120129
:100A930038668703120138D9870312013855880352
:100AA3001201386C8803120138A38903120138FD3F
:100AB30089031201382ADC01120138C2E001120154
:100AC3003896E301120138BFE301120138E8E3016C
:100AD3001201389AE40112013880E601120138BB91
:100AE300E701120138F1EC011201382AED0112017C
:100AF300386EED0112013880EE01120138268104AF
:100B03001201383C81041201386B8104120138A1AF
:100B13008104120138B88104120138EF81041201F3
:100B230038068204120138A6FA03120138BDFA030B
:100B3300120138EEFA0312013829FB03120138536C
:100B4300FB031201387DFB0312013894FB031201EE
:100B530038ABFB03120138C2FB03120138EBFB0372
:100B6300120138FEFB0312013814FC03120138276B
:100B7300FC031201384EFC03120138E3E1021201B7
:100B830038E7E20212013814E3021201386AE30281
:100B93001201388DE302120138A1E302120138A3D6
:100BA300E302120138C6E302120138CCE402120157
:100BB3003890E50212013865E602120138E0E602D8
:100BC300120138E3E6021201386BE702120138A67C
:100BD300E702120138DDE7021201386BE802120165
:100BE3003844E90212013847E902120138A7E90241
:100BF300120138B2E90212013831EA021201383423
:100C0300EA0212013837EA021201383AEA02120103
:100C130038C9EA02120138D3EA02120138E3EA02C0
:100C230012013813EB0212013820EB0212013823B0
:100C3300EB02120138A4EB0212013892EC0212010A
:100C43003844ED021201380DC60312013835C603CC
:100C530012013863C6031201389AC603120138F829
:100C6300C60312013843C7031201388EC7031201AA
:100C730038CEC70312013814C80312013842C8031F
:100C8300120138FFC80312013809C90312013816CB
:100C9300C90312013849C90312013815CA031201E5
:100CA3003821CA0312013839CA0312013843CA036F
:100CB30012013821FF021201382FFF0212013847B7
:100CC300FF021201385FFF02120138008002120195
:100CD30038AC80021201382781021201384882029F
:100CE3001201388482021201382D83021201381452
:100CF3008402120138788502120138CF850212016D
:100D0300385086021201384087021201388D87025B
:100D1300120138138802120138458802120138592A
:100D23008A021201389B8A02120138B98A0212011F
:100D3300383C8B02120138108C02120138D88C0215
:100D4300120138B0A90312013883AA031201382C07
:100D5300AB031201387FAB031201382FAC0312012E
:100D630038BBAC03120138A7AD03120138D6AD036B
:100D7300120138E9AE0312013831AF03120138060C
:100D8300B00312013842B0031201385EB0031201FE
:100D930038AA8504120138A9DF03120138BFDF0323
:100DA300120138E5DF0312013801E1031201380BA8
:100DB300E10312013840E20312013838E303120160
:100DC3003805B70312013835B80312013868B80380
:100DD300120138B2B80312013879BA03120138F19B
:100DE3008E02120138758F02120138BE8F02120172
:100DF30038A591021201385E93021201383A940227
:100E0300120138EE94021201382B9802120138D9DC
:100E13009802120138489A02120138DA9B02120131
:100E230038129C02120138AF9C02120138C86E00BE
:100E3300120138326F00120138917000120138A18B
:100E43007000120138CE70001201382571001201B2
:100E530038CE7100120138D572001201389F730029
:100E6300120138FF7400120138427500120138E78D
:100E730075001201383476001201385A76001201D7
:100E8300386878001201386D7800120138727A00E0
:100E9300120138BF7A00120138327B001201386523
:100EA3007B00120138077C00120138B07C0012016C
:100EB30038E87C00120138EB7C00120138337D00E6
:100EC300120138737D00120138CA7D001201382ADD
:100ED300EC031201383DEC031201384BEC03120111
:100EE3003893EC03120138A9EC03120138F0EC0338
:100EF30012013804EE0312013891EE03120138DCBB
:100F0300EE0312013864820112013870820112016A
:100F130038AB8201120138F08201120138B083012B
:100F23001201383684011201386284011201389BA0
:100F33008401120138D98601120138BD88011201DA
:100F430038A38A01120138E68B01120138348E016D
:100F5300120138468F01120138919001120138A114
:100F63009101120138BE9101120138F99101120168
:100F7300381B92011201387E92011201383F97010A
:100F8300120138D497011201382598011201384C07
:100F930098011201389E9801120138BC9801120180
:100FA30038169901120138159A01120138999A01DC
:100FB300120138CACA03120138D4CA0312013817FE
:100FC300CB0312013832CB03120138C2CB03120117
:100FD30038EACB0312013827CC031201385ECC0365
:100FE30012013887CC03120138FCCC0312013811EB
:100FF300CD0312013826CD0312013857CD03120158
:10100300386BCD0312013890CD03120138CACD03DA
:10101300120138F6CD0312013879CE03120138C21A
:10102300CE03120138ECCE0312013817CF0312019D
:101033003800800412013810D5021201383ED5025F
:101043001201388CD6021201386CD7021201388B88
:10105300D70212013808D8021201384BD802120104
:1010630038A1D90212013862DA02120138E9DC022E
:101073001201388ADD0212013880DE021201387D46
:10108300DF02120138D7E00212013862E1021201D5
:101093003878FE01120138E1FE0112013835FF01F3
:1010A3001201385CFF011201388DFF011201383F34
:1010B300CF03120138ACCF03120138F3CF0312016F
:1010C300380BD10312013807D203120138EAD203D5
:1010D300120138698A03120138AB8A031201387D81
:1010E3008B03120138568C03120138508D03120101
:1010F30038328E031201389B8E03120138518F034D
:10110300120138C58F031201383190031201385A86
:101113009003120138D490031201386D9103120128
:1011230038D29103120138E791031201382D92034B
:10113300120138469203120138AB9203120138AE02
:10114300920312013854E6031201387CE6031201BC
:1011530038BAE60312013878E703120138DFE703F0
:10116300120138FBE70312013823E8031201385355
:10117300E80312013862E803120138DFE8031201C1
:101183003805E90312013840EF011201381EF1015D
:1011930012013850F3011201388CF301120138B9EE
:1011A300F301120138A3F401120138EEF401120124
:1011B3003839F5011201384BF5011201388BF5016D
:1011C300120138C0F5011201380EF6011201383D43
:1011D300F60112013860F601120138ADF601120171
:1011E3003832F7011201384CF9011201388BFB0137
:1011F300120138CCFB011201386EFD01120138AF28
:10120300FD0112013822FE01120138FBC70212014F
:1012130038F9C80212013892CF02120138B3D10251
:101223001201387ED302120138E6D40212013800CB
:101233009B01120138AF9B01120138DC9B011201A3
:1012430038229C01120138629D01120138F89E0177
:10125300120138729F011201388D9F011201380863
:10126300A00112013862A101120138C2A2011201C8
:1012730038C8A30112013829A50112013842A5017A
:10128300120138A0A5011201388EA601120138C13E
:10129300A60112013831A701120138ABA7011201CF
:1012A30038F5A701120138BFA80112013894A9012A
:1012B30012013873AA01120138FEAA011201386C17
:1012C300AB01120138E0AB011201380BAC01120182
:1012D30038CAAC011201382FAE011201384CAE01ED
:1012E3001201386BAE011201385CAF011201388173
:1012F300AF01120138ABAF0112013826B001120160
:101303003880B001120138E9B10112013897B201F6
:10131300120138D8B20112013827BA021201387506
:10132300BA0212013881BA021201385FBB021201FC
:101333003890BB02120138C1BB0212013841BC0212
:1013430012013879BC02120138CBBC0212013808F1
:10135300BD0212013825BF021201384BC10212012E
:101363003836C30212013820C502120138912D000C
:1013730012013817C80112013847C8011201382079
:10138300CF01120138A5D001120138A2D6011201F2
:10139300388AD701120138C7D701120138EAD701B9
:1013A3001201381BD80112013824D8011201382E3A
:1013B300D8011201381CD90112013812DA011201C5
:1013C3003808B30112013807B7011201380DB7010C
:1013D30012013848BE0112013861C301120138DB22
:1013E300DB0312013871DC0312013887DC031201BD
:1013F30038FDDC0312013871DD03120138AFDD0360
:1014030012013823DE031201389CDE03120138A5D2
:10141300DE03120138B1DE03120138C6DE03120106
:101423003804DF031201381ADF0312013879DF03AE
:10143300120138ACD303120138B9D303120138D3E4
:10144300D30312013812D40312013850D40312010A
:1014530038B5D403120138CAD403120138D5D403E2
:10146300120138E2D403120138F9D4031201380708
:10147300D50312013812D5031201381ED503120108
:10148300382DD50312013838D5031201385BD50343
:1014930012013802D60312013812D6031201382C76
:1014A300D60312013849D60312013865D603120157
:1014B300388AD60312013895D603120138AAD60307
:1014C300120138BED6031201381FD7031201382583
:1014D300D7031201382BD70312013831D703120176
:1014E3003849D7031201387CD703120138FDAB0208
:1014F30012013881AC0212013830AD021201388F6B
:10150300AE02120138B0B0021201389CB1021201CE
:1015130038D1B102120138F3B102120138A2B2027A
:101523001201389AB402120138C3B40212013855B9
:10153300B50212013887B50212013894B5021201BF
:1015430038EBB50212013811B6021201387EB80227
:1015530012013881B902120138D9B9021201388C4B
:101563009D02120138969E021201387D9F021201DC
:1015730038879F02120138A99F02120138B59F02D2
:101583001201384EA1021201387DA10212013899CD
:10159300A202120138F2A20212013858A402120167
:1015A3003837A50212013893A50212013800A602AA
:1015B3001201383BA6021201387AA602120138330F
:1015C300A9021201384DA902120138D9A902120148
:1015D30038E7A90212013840AA021201384EAA02C2
:1015E300120138C1AA0212013825AB021201386F69
:1015F300AB02120138B5ED02120138D7ED02120128
:1016030038FDEF0212013812F3021201382AF402F4
:10161300120138DDF402120138BFF50212013860FD
:10162300FC0312013885FC03120138F7FC03120195
:101633003836A2031201383FA20312013848A2032D
:101643001201381FA303120138D0A4031201380674
:10165300A50312013840A50312013876A503120130
:1016630038B0A503120138E4A50312013810A6030C
:1016730012013859A60312013893A603120138DC6C
:10168300A60312013834A70312013869A703120114
:1016930038C4A703120138FEA7031201384FA80369
:1016A30012013885A803120138BFA803120138EDCF
:1016B300A80312013810A903120138D283041201BE
:1016C30038FE8304120138598404120138638404F8
:1016D300120138738404120138D3FF01120138D97F
:1016E3008604A2E792D65002F40430F70663F0FFB3
:1016F30005F0B3400384800384F40430D60563F01B
:10170300FF05F022E066701008A3E066700A08A3E4
:10171300E066700408A3E06622C008C3E096F508FB
:1017230008A3E096420808A3E096420808A3E096BF
:101733004208A2D265D033E5087001D3D00822C392
:10174300E7960809E7960809E7960809E79622C38A
:10175300E09608A3E09608A3E09608A3E09622C0CB
:1017630008C3E096F50808A3E096420808A3E096AC
:10177300420808A3E09645087001D3D00822080860
:1017830008EAC0E0EBC0E086F0E7A4FA180986F0A7
:10179300E7A42AFA180986F0E7A42AFA180986F0BA
:1017A300E7A42AFA1986F0E7A4FBE5F02AFA190858
:1017B30086F0E7A42BFBE5F03AFA190886F0E7A4D4
:1017C3002BFBE5F03AFA18180986F0E7A4C5F02BCD
:1017D300FBE43AFA1908E7C5F0C6A426F6E5F03BA0
:1017E300FBE43AFA1886F0E7A4F6E5F00826F6E4F7
:1017F3003B08F6E43A08F6D0E0FBD0E0FA22E4CF67
:10180300C0E0E4CEC0E0E4CDC0E0E4CCC0E075F0DD
:1018130020C3E633F608E633F608E633F608E63384
:10182300F6181818EC33FCED33FDEE33FEEF33FFFF
:10183300C3EC9709ED9709EE9709EF97191919402A
:101843000FFFEC97FC09ED97FD09EE97FE191906BA
:10185300D5F0BEECF709EDF709EEF709EFF7191923
:1018630019D0E0FCD0E0FDD0E0FED0E0FF2212185A
:10187300D91818181218011218C819191922121890
:10188300C8191919080808E618181820E7E01218EB
:10189300011218D918181822090909E7191919206A
:1018A300E7DC080808E618181820E70302180112F5
:1018B30018D91818181218011218D918181812184C
:1018C300C819191922E4C397F709E497F709E497AC
:1018D300F709E497F722E4C396F608E496F608E4DA
:1018E30096F608E496F6226016080808C6C313C6DF
:1018F30018C613C618C613C618C613C6D5E0EA22FF
:101903007009080808226016181818C6C333C608D9
:10191300C633C608C633C608C633C6D5E0EA22E6D0
:1019230027F60809E637F60809E637F60809E63721
:10193300F622E026F608A3E036F608A3E036F6081A
:10194300A3E036F622E026F008A3E036F008A3E091
:1019530036F008A3E036F022C3E697F60809E697C7
:10196300F60809E697F60809E697F622C3E0C69655
:10197300F608A3E0C696F608A3E0C696F608A3E029
:10198300C696F622C3E096F008A3E096F008A3E01B
:1019930096F008A3E096F022E657F60809E657F614
:1019A3000809E657F60809E657F622E056F608A3B3
:1019B300E056F608A3E056F608A3E056F622E056F2
:1019C300F008A3E056F008A3E056F008A3E056F0B1
:1019D30022E046F008A3E046F008A3E046F008A39F
:1019E300E046F022E0F608A3E0F608A3E0F608A339
:1019F300E0F622E6F008A3E6F008A3E6F008A3E683
:101A0300F022E0FAA3E0FBA3E0FCA3E0FD22EAF06E
:101A1300A3EBF0A3ECF0A3EDF022CAC0E0E6F0A341
:101A230008DAFAD0E0FA22CAC0E0E0A3C582CCC546
:101A330082C583CDC583F0A3C582CCC582C583CDC2
:101A4300C583DAE6D0E0CA22C3E498F8E499F91230
:101A53001A8C8026C3E49AFAE49BFBE920E7E91297
:101A63001A8CE498F8E499F922C3E498F8E499F914
:101A7300121A8CE498F8E499F9C3E49AFAE49BFB0C
:101A830022EB20E7CFE920E7E0B90010BB0008E82C
:101A93008AF084F8AAF022E4FBC8FA22EB70227BD6
:101AA30010C833C8C933C9335007C39AC3DBF280A4
:101AB300069A50012ADBEAC833F4C8C933F4C9FAD9
:101AC3002275F008E4C833C8C933C933C99AC99B1E
:101AD3005004C92AC93BD5F0ECFBC833F4C8E4C9A8
:101AE300FA22600D08C6A2E713C618C613C6D5E0CE
:101AF300F322600C08C6C313C618C613C6D5E0F498
:101B030022700422600D18C6C333C608C633C6D577
:101B1300E0F41822251810AF08F5184002151980B3
:101B230008F51840021519D2AF22C0D0251810AFFE
:101B330008F518500205198008F51850020519D246
:101B4300AFD0D0222518F58210AF08F51840021542
:101B5300198008F51840021519D2AF85198322257B
:101B630018F582E43519F58322E4732518C582C07C
:101B7300E0E51934FFC583C0E0E518C3958224F876
:101B830010AF08858319858218800885831985829B
:101B930018D2AFCEF0A3E520F0A37808E608F0A3AF
:101BA300DEFAEFF0A3E58124FAF8E608F0A3E608ED
:101BB300F0A3E608F0A30808E608F0A3E608F0A3FC
:101BC30015811581D0E0FED0E0F8158115811581CE
:101BD300E8C0E0EEC0E0222518C582C0E0E5193474
:101BE300FFC583C0E0E518C3958224F910AF0885CB
:101BF30083198582188008858319858218D2AFCE10
:101C0300F0A3E520F0A37808E608F0A3DEFAEFF0EE
:101C1300A3E58124FBF8E608F0A3E608F0A308088F
:101C2300E608F0A3E608F0A315811581D0E0FED005
:101C3300E0F815811581E8C0E0EEC0E02285198344
:101C4300851882E0A3FEE0A3F5207808E0A3F60858
:101C5300DFFAE0A3FFE0A3C0E0E0A3C0E0E0A3C09D
:101C6300E0E0A3C0E0E0A3C0E010AF0885821885E0
:101C730083198008858218858319D2AFD083D082D7
:101C8300020135851983851882E0A3FEE0A3F520C0
:101C93007808E0A3F608DFFAE0A3FFE0A3C0E0E0E2
:101CA300A3C0E0E0A3C0E0E0A3C0E010AF088582DA
:101CB300188583198008858218858319D2AFD0834C
:101CC300D08222C0D02518C582C0E0E51934FFC5F3
:101CD30083C0E0E518C3958224F310AF0885831908
:101CE3008582188008858319858218D2AFC8F0A32E
:101CF300E9F0A3EAF0A3EBF0A37908E709F0A3D88E
:101D0300FAECF0A3EDF0A3EEF0A3EFF0A3D0E0F034
:101D1300A3D0E0F0A3D0E0F0A3E520F0A3E5F0F03A
:101D2300A322851983851882E0C0E0A3E0F9A3E02C
:101D3300FAA3E0FBA37808E0F608A3DFFAE0FCA32C
:101D4300E0FDA3E0FEA3E0FFA3E0C0E0A3E0C0E06A
:101D5300A3E0F5D0A3E0F520A3E0A3F5F010AF08CE
:101D63008583198582188008858319858218D2AFE7
:101D7300D082D083D0E0F8D0E032740480067402BD
:101D830080027401C0E0F404121B47D0E0121A1D54
:101D9300227404800474028000CCC0E0EDC0E0E54E
:101DA30018C39CCCAD1950011D10AF068C188D19AA
:101DB30080068C188D19D2AF121A2AD0E0FDD0E01C
:101DC300FC22D083D082E9C0E0E493A3C386F0C5AC
:101DD300F095F0F908E493A386F0C5F095F0700B45
:101DE300E493A3C3994005E9048002A3E475F002D8
:101DF300A42582F582E5F03583F583D0E0F9E493F9
:101E0300A3C0E0E493C0E022D083D082ECC0E0ED35
:101E1300C0E0E493A3FCE493A3FDED4C600D121E1C
:101E230057EC24FFFCED34FFFD80EFE493A3FCE4C7
:101E330093A3FDED4C600D121E96EC24FFFCED34D4
:101E4300FFFD80EFD0E0FDD0E0FCE493A3C0E0E42D
:101E530093C0E022C0E0C3E49396087401939618FC
:101E6300400FE4936670080874019366187000705D
:101E730019A3A3C3E49396087401939618A3A340EC
:101E83000DD0E0D0E0D0E0021E47A3A3A3A3A3A3F9
:101E9300D0E022C0E0C0F088F0E4936670080874D4
:101EA300019366187000A8F0A3A3700BD0F0D0E0E4
:0E1EB300D0E0D0E0021E47A3A3D0F0D0E02282
:101EC400C2AF02000022C0E074F2121CC6A2AFE44A
:101ED40033FED2AFE589A2E150031209BF75890030
:101EE400C2C5751A00EEF8EEA2E092AF7F01021DA2
:101EF40025C0E074F2121CC6A2AFE433FED2AFE5F3
:101F04008BA2E050031209BF758B00C2E8751A005A
:101F1400EEF8EEA2E092AF7F01021D25C0E0C0D032
:101F2400E8C0E0E9C0E0A2AFE433F8D2AFC2C775BD
:101F34001A00E8F9E8A2E092AFD0E0F9D0E0F8D0D6
:101F4400D0D0E03274F5121BDAEAFEEBFFEE243453
:101F5400F8EF3400F988088909EE2435F582EF3466
:101F640000F583E0F8EE2437F582EF3400F583E0E2
:101F7400F50AEC850AF0A4FCAAF0850AF0EDA42A7F
:101F8400FDE82CF8E43DF97A257B00121A8CEA85E9
:101F94000882850983F0F8740758F97401B90002BE
:101FA4008004C333D9FCFAE8131313541FF8EE2842
:101FB400F8EF3400F9E8245DF582E93400F583E0B4
:101FC4005A6008EE2434F582EF802CEE2434F58236
:101FD400EF3400F583E0C0E0EE2436F582EF340000
:101FE400F583E0F5F0D0E084A8F0EE28F8EF3400B3
:101FF400F9E82438F582E93400F583E0F97F040236
:102004001C8674F5121BDAEAFEEBFFEE2434F5822B
:10201400EF3400F583E0C0E0EE2435F582EF3400C0
:10202400F583D0E0F08E828F83A3A3A3A3A3A3A3FD
:10203400C082C0838E828F83A3A3A3A3A3E0F8A34B
:10204400E0F9D083D082E0C398F508A3E099F509BC
:10205400EE247FF582EF3400F583E064017069EECD
:102064002480F582EF3400F583E0F8A3E0F98E8252
:102074008F83A3A3A3A3A3A3A3E0FCA3E0FD8E8269
:102084008F83A3A3A3A3A3E0FAA3E0FBC3EA9CEB7F
:102094009D5010C3EC98ED99402EC3EA98EB9950EB
:1020A40027800EC3EA98EB994007C3EC98ED99405A
:1020B400177CBF7D07EEFAEFFB1212CBEE247FF5FF
:1020C40082EF3400F583E4F0EE2434F8EF3400F9C1
:1020D400E8FCE9FDEE2435F582EF3400F583E0F801
:1020E400EE2437F582EF3400F583E0F50AE5088540
:1020F4000AF0A4F508AAF0850AF0E509A42AF5096E
:10210400E82508F8E43509F97A257B00121A8CEAE7
:102114008C828D83F0F8740758F97401B900028039
:1021240004C333D9FCFAE8131313541FF8EE28F848
:10213400EF3400F9E8245DF582E93400F583E05AD0
:102144006008EE2434F582EF802CEE2434F582EF1F
:102154003400F583E0C0E0EE2436F582EF3400F578
:1021640083E0F5F0D0E084A8F0EE28F8EF3400F92D
:10217400E82438F582E93400F583E0F9122D83026E
:102184002001C082C083851882851983E0F8A3E00A
:10219400F9C3EA9CEB9D5010C3EC98ED99401BC326
:1021A400EA98EB995014800EC3EA98EB994007C360
:1021B400EC98ED994004790180027900D083D082B3
:1021C40022EAC39CFAEB9DFB2274EF121BDA900601
:1021D40085E064086005E06407702A9061C8E060E7
:1021E400249006B3E0F4601DE0F875F003A4C8AAD7
:1021F400F02AF974B528FE740639FF8E828F83A302
:10220400A3A3E070030222FD906060E0C0E0EE242E
:1022140068F582EF3400F583D0E0F0750C28750D75
:1022240008750800750900E5D914F50AE5D95403C1
:10223400F50E60177403650E605CE50A6010EE2409
:1022440067F582EF3400F583E070030222E2900820
:1022540023E06401602AEE2482F582EF3400F583E2
:10226400E06004780480027800850A08E508C398D1
:10227400FA95E0FB1211998A088B09EA4509700561
:102284001214CF8074EE2482F582EF3400F583E0DB
:1022940070048A0C8B0DE50A6012850C82850D830F
:1022A400F50BE5D9F0A3150BE50B70F6EE2482F5DA
:1022B40082EF3400F583E0604474FC250AF50A7863
:1022C4000C121D81AC0AA90EEEFAEFFB121367740F
:1022D40002121B2DE97026AA08AB09120A1F793DC8
:1022E4008E828F83A3A3A3A3E0FA7B0012106DEE6A
:1022F400FAEFFB1212E31213797900807474036508
:102304000E6056850A107511007810121D81AC0CF0
:10231400AD0DAA08AB091213437402121B2DEE244F
:1023240068F582EF3400F583E064807004747F8084
:1023340001E0F50C780C121D85E50EF50C780C12F5
:102344001D85A90AAC08AD099006B3E0FA7B00121A
:1023540010317402121B2D8013900685E06408600E
:102364000BAC0CAD0DEEFAEFFB1213D31214DB79A8
:10237400017F0A021C8674F5121BDA74FC121B1707
:10238400EAFEEBFF8908A2AFE433F509C2AF806A25
:10239400EE2463F8EF3400F97A007B00A2AFE43353
:1023A400F50AC2AF88828983E0FCA3E0FDEC4D60AE
:1023B4003A88828983E0FAA3E0FB8A828B83E0FC7B
:1023C400A3E0FD88828983ECF0A3EDF08A828B83FD
:1023D400E4F0A3F088828983E0FCA3E0FDEC4D7077
:1023E4000A88828983A3A3E4F0A3F0E50AA2E09219
:1023F400AF120A1F9007C6E004F0EE2463F582EFE3
:102404003400F583E0F8A3E0F9E849603DEE246385
:10241400F582EF3400F583E02402FAA3E03400FBF4
:10242400EA2402F50AEB3400F50B780A121D818ABE
:10243400828B83E0FCA3E0F9EEFAEFFB121307743E
:1024440002121B2DE970030223949007C6E0606317
:102454009007C7E0F89007C6E0C398500C74026573
:102464000870509007C8E0604A8E828F83A3A3A3AC
:10247400A3E0851882851983F0A3E4F09007C6E0F1
:10248400F87402121B62E8F0A3E4F09007C6E0F8C7
:102494009007C5E028F07402121B62AC82AD8385FC
:1024A4001882851983AA82AB83790112103D9007A3
:1024B400C6E4F0E509A2E092AF7404121B2D0220D9
:1024C400010000008521878522C622C0E0C0D0E833
:1024D400C0E0E9C0E0EAC0E0EBC0E0ECC0E0EDC081
:1024E400E0EEC0E0C008C009C00AC00BC082C083CF
:1024F400C0F0A2AFE433FEC2AF759B00906182E0EE
:10250400A2E05012E591A2E0500C7591FE740165B1
:102514002170031221CDE0A2E55051E591A2E550CE
:102524004B7591DF900685E064076005E0640870F0
:102534002374016521703579019006B3E0FA75F0D2
:1025440003A4CAA8F028FB74B52AFA74063BFB124C
:10255400237A8018E0640D70139006A7E004F064F9
:10256400287002E4F07A00E0F91214E1906182E04C
:10257400A2E64003022616E591A2E64003022616CF
:102584007591BF900685E064057008121409121451
:1025940015800312140F75210012146FE99006863A
:1025A400F079001214631212417A017B00900684C0
:1025B400E0F9120695907803E0644270559008277C
:1025C400E014F0704DC2AF1225CE00782AD0E0F6A8
:1025D40018D0E0F6E59F540770057509FF80037570
:1025E400097FC4C0E07829E6F50808E65509F5092D
:1025F400740B7808121AF5D0E02508F8906270E0A0
:10260400A2E740F8E8C333906272F0906270E0D2BF
:10261400E0F0906181E0A2E35009E5E9A2E3500310
:1026240075E9F7A3E0A2E75009E591A2E750037525
:10263400917FEEA2E092AFD0F0D083D082D00BD0C5
:102644000AD009D008D0E0FED0E0FDD0E0FCD0E014
:10265400FBD0E0FAD0E0F9D0E0F8D0D0D0E032C03E
:10266400E0C0D0C082C083906183E0A2E05009E55D
:10267400BFA2E0500375BFFEE0A2E15009E5BFA28E
:10268400E1500375BFFDE0A2E25009E5BFA2E250AC
:102694000375BFFBE0A2E35009E5BFA2E350037555
:1026A400BFF7E0A2E45009E5BFA2E4500375BFEF11
:1026B400E0A2E55009E5BFA2E5500375BFDFE0A243
:1026C400E65009E5BFA2E6500375BFBFD083D082B0
:1026D4008088C0E0C0D0E8C0E0E9C0E0EAC0E0EB38
:1026E400C0E0ECC0E0EDC0E0C0F0E5A7A2E6500F0A
:1026F400E5A1A2E6500953A7BF75A1BF12273BE588
:10270400A7A2E5500CE5A1A2E5500653A7DF75A1E9
:10271400DFE5A7A2E15009E5A1A2E1500375A1FDFF
:10272400E5A7A2E2500CE5A1A2E2500653A7FB756F
:10273400A1FBD0F002264C74F8121BDA752101902B
:102744000685E0640670151213978A828B83A3A30F
:10275400A3A3A3A3E0FAA3E0FB1213F7A2AFE4330D
:10276400FED2AF90068BE0640170187A207B009053
:102774000684E0F91207437A207B00900684E0F98E
:1027840012069B906182E0D2E6F0900824E060217A
:1027940085C622801690068AE064017008E5C65456
:1027A400F84405F5C653BEFC1224C87401652160C3
:1027B400E4EEA2E092AF7F01021C86008E238F24F8
:1027C400858228858327851882851983E0CEA3E036
:1027D400CF852882852783EBC9EAC8EDCBECCA757F
:1027E400F010C3E833C8E933C9EA33CAEB33CBC3C7
:1027F400EA9EF526EB9FF525B35004AB25AA26ECFB
:1028040033CCED33CDD5F0DAAE23AF242274E91204
:102814001BDA74F8121B17851882851983ECF0A350
:10282400EDF08A088B09900685E024F7C3940550DF
:10283400067508010229A81213978A0A8B0BAE0A9F
:10284400AF0BEE4F70030229A5AC08AD0974021258
:102854001B62AA82AB831214278E828F83A3A37573
:102864000CFF750DFF750EFF750F00780C1219AE75
:102874007402121B627510FF7511FF7512FF751338
:102884000078101219AE780C7910121742502A7879
:102894000C791012195B7508017509C8750A007561
:1028A4000B007808790C1217425052850C08850DDC
:1028B40009850E0A850F0B80507514017515C875AE
:1028C400160075170085100885110985120A8513ED
:1028D4000B7808790C12195B7814790812174240A6
:1028E4001C750800750900750A00750B01780879D4
:1028F4001012195B7808790C121922800C750801E2
:10290400750900750A00750B00740978081219031B
:10291400750C19F50DF50EF50F7808790C121801E0
:102924008E828F83A3A3A3A3A3A3E0F8A3E0F97AE1
:10293400D07B03121A8C880C890DE4F50EF50F7800
:1029440008790C1219227406121B62E0F8A3E0F94C
:102954007AD07B03121A8CE8FA8A0CE4F50D780815
:10296400790C12174250077808790C12195B9006FB
:1029740085E06408600AE064066005E06405702D83
:10298400750C0D780C79081217424021750CF475FA
:102994000DFF750EFF750FFF7808790C1219228050
:1029A4000C750800750900750A00750B00851882FE
:1029B400851983E0F8A3E0F583888278081219F674
:1029C4007408121B2D7F10021C8674F7121BDA1276
:1029D4001439900822E064017010906245E4F0A379
:1029E400F053F4F343FE0C5390F31213E5E5C6548D
:1029F400804449F5C6E59E547F644970F89061852A
:102A0400740FF0900820E0F47002A3E0604E900888
:102A140021E0600814601B14602E80407508017565
:102A24000900900820E07808121B04E508F452809D
:102A3400802A750801750900900820E07808121BA7
:102A440004E508F452908014750801750900900893
:102A540020E07808121B04E508F452A079007F02F4
:102A6400021C8674F7121BDAE9FEEAFF74016E7029
:102A74000C7A807B00900684E0F9120695902D94E0
:102A8400E493F46008E493F9121235800953C68084
:102A9400E59E547F70FA1213EB900822E0640170F3
:102AA4000312124D900820E0F47002A3E0604B90F2
:102AB4000821E0600814601A14602C803D75080138
:102AC400750900900820E07808121B04E50842808C
:102AD4008028750801750900900820E07808121B09
:102AE40004E50842908013750801750900900820D8
:102AF400E07808121B04E50842A012143912139757
:102B04008A088B09A808A909E8496015E5E170FC61
:102B1400E82414F582E93400F583E0F46003E0F579
:102B2400E174016F700A7A01900684E0F9120713C8
:102B3400022A6274ED121BDA8A088B098C0A8D0B47
:102B44007413121B62780C1219E77808790C1217A7
:102B5400427510017511C875120075130050127872
:102B640008790C12195B78107908121742501680F4
:102B740010780C790812195B7810790C12174240FE
:102B8400047901800279007F0C021C8674ED121B0B
:102B9400DA8A088B098C0A8D0B7413121B62780C69
:102BA4001219E7780C790812174240117808790C49
:102BB40012195BAA08AB09AC0AAD0B802275100090
:102BC4007511007512007513017810790C12195BD8
:102BD40078107908121922AA10AB11AC12AD138027
:102BE400A68A828B837508FF7509FF750AFF750B2A
:102BF4000078081219C17F04021C8674F5121BDACE
:102C04008C828D8378081219E78A828B8378081264
:102C14001987EA2404F8EB3400F98C828D83A3A38A
:102C2400A3A3E0FCA3E0FD88828983C3E09CF0A316
:102C3400E09DF088828983C3E09420A3E0944E4011
:102C4400268A828B837508FF7509FF750AFF750B49
:102C5400FF78081219488A828B83A3A3A3A3E024D4
:102C640020F0A3E0344EF0022BE574F5121BDAE9F0
:102C7400FE9007DAE0FAA3E0FBEEC333F8E433F99D
:102C8400743228F582748139F583E02AF508A3E0CB
:102C94003BF5097808121D817A407B427C0F7D0048
:102CA4001227C07402121B2D8A088B098C0A8D0B03
:102CB400741078081218EAAA08AB097F04021C866B
:102CC40074F1121BDA8A0C8B0D8C0E8D0F740F129B
:102CD4001B62E0FAA3E0FB7411121B62E0F508A387
:102CE400E0F5097808121D81EA2401F508EB3400A7
:102CF400F509E4F50AF50B780C79081217817508C3
:102D040071750902780C7908121781AA0CAB0DAC05
:102D14000EAD0F1227C07402121B2D8B09EA450950
:102D240060047A0180027A00EC2AFCED3400FD7420
:102D340013121B62E0F8A3E0F9E8FEE9FFECF8EDFA
:102D4400F97A717B02121A8C880889098E828F8322
:102D540078081219F6ECF8EDF97A717B02121A8CE4
:102D64008A088B0974057808121B048E828F83A34A
:102D7400A3A3A3E508F0A3E509F07F08021C86C01D
:102D840082C083E9906000F0D083D08222020135B2
:102D9400FFFFFFFFFFFFFFFF74F7121B6E74EC12BF
:102DA4001B17E9FE9002ACF07405121B627401F06B
:102DB400740E121B627400F0A37400F07404121BEE
:102DC400627401F0740C121B6274C8F0A37400F0F6
:102DD400740A121B627440F0A37406F07408121B88
:102DE400627401F0A37400F07406121B6274E8F0BC
:102DF400A37403F07405121B62AC82AD8379017A6B
:102E0400057B03120AB5E9740E121B62AC82AD8312
:102E140079027A067B03120AB5E97C567D0A7909A0
:102E24007A087B03120AB5E97C5F7D0A79097A077F
:102E34007B03120AB5E97404121B62AC82AD837978
:102E4400017A107B03120AB5E9740C121B62AC827E
:102E5400AD8379027A117B03120AB5E9740A121B55
:102E640062AC82AD8379027A127B03120AB5E974EB
:102E740008121B62AC82AD8379027A137B03120AB7
:102E8400B5E97406121B62AC82AD8379027A147BB5
:102E940003120AB5E97C687D0A7A157900120DC11E
:102EA400E97AC77B4C7C007D007410121B62EAF047
:102EB400A3EBF0A3ECF0A3EDF07403121B62740215
:102EC400F07402121B627401F07401121B6274002C
:102ED400F08518828519837401F07410121B62AC9A
:102EE40082AD8379047A087B0412087BE9740312A7
:102EF4001B62AC82AD8379017A007B0412087BE902
:102F04007402121B62AC82AD8379017A027B0412D3
:102F1400087BE97401121B62AC82AD8379017A03E8
:102F24007B0412087BE9851882851983AC82AD8302
:102F340079017A067B0412087BE9120DDFE9FF9020
:102F440002ACE0F9120DE59081A8121A05120DC722
:102F5400E99081A8121A05120F23E99081A8121A88
:102F640005120821E9120863E9120779E97ACD7B91
:102F7400071208271207E57A017B009002ACE0F9FA
:102F8400120695E990032C7400F07414121B2D7F23
:102F940001021C4074F2121B6E890AEAFEEBFFEE7A
:102FA4005400F8EF5480F9E84960319002ACE0F93C
:102FB40012067D8A0C8B0DA80CA90D88088909E8D6
:102FC40049600FAA08AB0912079DAA08AB091206AB
:102FD4006BE9EE6400FAEF6480FB8056EEA2E050E9
:102FE4001B7A957B0A120AC1E9F5087AEC7B8112F7
:102FF4000899EE6401FAEF6400FB8036EE54026037
:103004001B7A147B031207DF7A147B031207F11275
:1030140007C1EE6402FAEF6400FB8016EE5404600C
:103024000D1207FDEE6404FAEF6400FB80047A00DD
:103034007B007F06021C4074F7121B6EEAFEEBFF56
:103044008E828F83E02440600924E0601B14602199
:1030540080268E828F83A3A3A3E0FA8E828F83A31C
:10306400A3E0F91207A38010EEFAEFFB1207A98080
:1030740007EEFAEFFB1207F77F01021C4074F71208
:103084001B6E74FF121B17E9FEEAFFA2E150779052
:1030940002ADE06405606F7C207D007A067B00123F
:1030A4000C47E97C207D007A077B00120C47E97C01
:1030B4001E7D007A017B00120C47E9851882851970
:1030C40083AC82AD837A057B03120ABBE98518823F
:1030D400851983E070047401800274008518828568
:1030E4001983F0851882851983AC82AD8379017ABE
:1030F400057B03120AB5E9851882851983E07006F9
:103104009002B77401F07401121B2D7F01021C4060
:1031140074EE121B6E74EC121B178A0A8B0B850A51
:1031240082850B83A3A3A3E0F508850A82850B831C
:10313400A3A3E024FFF509E508146031146010240A
:10314400E870030232771470030233460233827F3D
:1031540003900A82E0F8A3E0F97AE87B03121A8C60
:10316400E8851882851983F07E010233997F1CE576
:103174000A2404F8E50B3400F988108911850A82C1
:10318400850B83A3A3E024FFF50974016509600E90
:103194008518828519837403F07E010233998510A2
:1031A40082851183E0701A7A027B009002ACE0F908
:1031B400120743E9900A827400F0A37400F002320B
:1031C4005F851082851183E064FF703A900A8274EF
:1031D400E8F0A37403F090032CE06401707D900A7E
:1031E40082E0F50CA3E0F50DE4F50EF50F780C1272
:1031F4001D7D7A027B009002ACE0F912073774045B
:10320400121B2DE98055851082851183E0F8790021
:10321400E875F0E8A4C8AAF075F003A42AFA75F0DA
:10322400E8E9A42AF9900A82E8F0A3E9F090032CD3
:10323400E064017026900A82E0F50CA3E0F50DE449
:10324400F50EF50F780C121D7D7A027B009002AC0E
:10325400E0F91207377404121B2DE9E5088518827A
:10326400851983E508F07401121B627401F07E0273
:1032740002339990032CE06401701A7F1CE50885E1
:103284001882851983E508F07401121B627404F036
:103294007E02023399900A82E0F8A3E0F9E84970CB
:1032A4001A7F1CE508851882851983E508F07401E6
:1032B400121B627404F07E02023399120803900315
:1032C4002C7401F090819C780C1219E7900A86788E
:1032D4000C1219C190032A7400F0A37400F0900337
:1032E4002DE070167A007B007C007D00900326EAB6
:1032F400F0A3EBF0A3ECF0A3EDF09081F0121A052B
:103304001206D1900A82E0F50CA3E0F50DE4F50E67
:10331400F50F780C121D7D7A027B009002ACE0F967
:103324001207377404121B2DE97F1CE508851882E7
:10333400851983E508F07401121B627401F07E02A2
:1033440080537A027B009002ACE0F9120743E990C3
:103354008208780C1219E7900A86780C1219D49016
:10336400032C7400F07F1CE508851882851983E519
:1033740008F07401121B627401F07E0280177F1C36
:10338400E508851882851983E508F07401121B622B
:103394007402F07E02EEFC851882851983AA82AB42
:1033A40083EFF91207C77414121B2D7F0A021C4005
:1033B40074F6121B6E74F6121B17E9FE74056E7018
:1033C400030235229002ADE06405707274056E60EC
:1033D4006D7401121B627401F074046E70267C20FB
:1033E4007D007A067B00120C47E97C207D007A0779
:1033F4007B00120C47E97C1E7D007A017B00120CD5
:1034040047E980247C407D067A067B00120C47E95C
:103414007C407D067A077B00120C47E97C1E7D0008
:103424007A017B00120C47E97401121B62AC82AD75
:103434008379017A057B03120AB5E90235229002E9
:10344400ADE06402707174036E706C9002B7E0605A
:10345400099002B77400F00235227A067B00120C40
:103464004D8A088B0974206508700474006509602E
:10347400030235228518828519837401F07C407D0E
:10348400067A067B00120C47E97C407D067A077BAE
:1034940000120C47E97C1E7D007A017B00120C4768
:1034A400E9851882851983AC82AD8379017A057B1D
:1034B40003120AB5E9806774016E70627402121B0C
:1034C40062AC82AD837A047B03120ABBE9740712EF
:1034D4001B62E0C0E07409121B62D0E0F0740612B3
:1034E4001B62E0C0E07408121B62D0E0F0740512A5
:1034F4001B62E0C0E07407121B62D0E0F074061295
:103504001B627400F07405121B627400F0740212E2
:103514001B62AC82AD837A087900120869E9EE90E7
:1035240002ADF0740A121B2D7F02021C4074F212C9
:103534001B6E8A088B09890A8C0B7401650A705EFC
:10354400E50B705A9002B5E0FAA3E0FB12115D8A14
:103554000C8B0DA80CA90DE8FEE9FFE849603F8E2D
:10356400828F83A3A3A3E0A2E25004D2F08002C21C
:10357400F0A2F0E4339002AEF09002AEE0601F756A
:103584000C06750D00780C121D81EE2405FCEF3439
:1035940000FD7AAF7B021206417402121B2D7F06D6
:1035A400021C4074F4121B6E8A088B09ECFEEDFFBA
:1035B400890A740C121B62E0F50B9081E8121D94C9
:1035C4007900EEFAEFFB12089F7404121B2DE97FB9
:1035D40004021C4074F0121B6E7ED27F029003150D
:1035E400E0F50A900314E08E828F83F08E828F833D
:1035F400A3AE82AF83E50A8E828F83E50AF08E82C2
:103604008F83A3AE82AF83900316E0F8A3E0F9E8BA
:103614008E828F83F08E828F83A3AE82AF839003DA
:1036240016E0F8A3E0F9E4E9F88E828F83F08E8245
:103634008F83A3AE82AF83900318E0F8A3E0F9E888
:103644008E828F83F08E828F83A3AE82AF839003AA
:1036540018E0F8A3E0F9E4E9F88E828F83F08E8213
:103664008F83A3AE82AF83E50AA2E7501A90031AB0
:10367400780C1219E7E50C8E828F83E50CF08E82AC
:103684008F83A3AE82AF83E50AA2E5502190031A8B
:10369400780C1219E77410780C1218EAE50C8E8273
:1036A4008F83E50CF08E828F83A3AE82AF83E50A0D
:1036B400A2E6502590031A780C1219E7850C0885A8
:1036C4000D09E4E509F508E5088E828F83E508F025
:1036D4008E828F83A3AE82AF83E50AA2E05030903E
:1036E400031EE0F8A3E0F9E88E828F83F08E828FC8
:1036F40083A3AE82AF8390031EE0F8A3E0F9E4E96C
:10370400F88E828F83F08E828F83A3AE82AF83E59F
:103714000AA2E15030900320E0F8A3E0F9E88E8299
:103724008F83F08E828F83A3AE82AF83900320E0D9
:10373400F8A3E0F9E4E9F88E828F83F08E828F8318
:10374400A3AE82AF83900314E09002D1F075080019
:103754007509009002D1E0FC7D007AD27B02120848
:10376400578A0C8B0D850C08850D09E5088E828F10
:1037740083E508F08E828F83A3AE82AF83A808A965
:1037840009E4E509A809E5098E828F83E509F08E2D
:10379400828F83A3AE82AF839002ACE0F97CCF7DAD
:1037A400029002B5E0FAA3E0FB12082DE9900A8228
:1037B400E0F50CA3E0F50DE4F50EF50F780C121D01
:1037C4007D7A027B009002ACE0F912073774041290
:1037D4001B2DE97F08021C4074F2121B6E89088AB3
:1037E4000A8B0B8C09E5089002BBF0740125099043
:1037F40002BAF085090C750D00780C121D81AC0A13
:10380400AD0B7ABC7B021206417402121B2D7E00A2
:103814007F009002D1E0FC7D007AD27B021208572F
:103824008A0C8B0DAE0CAF0DEEC0E09002BAE0F83E
:10383400790074BB28F582740239F583D0E0F0EE88
:10384400F8E50DA90DE4E50DA80DE50D9002BAE02B
:10385400F8790074BC28F582740239F583E50DF01B
:103864009002BAE02402F09002ACE0F97CB87D0248
:103874009002B5E0FAA3E0FB120833E97F06021CCC
:103884004074E8121B6E74F4121B17E9C0E0740252
:10389400121B62D0E0F0EAFEEBFF8C148D15742449
:1038A400121B62E0F516A3E0F517851882851983CB
:1038B400EEF0A3EFF07508007509007402121B62A4
:1038C400E014602F14602C24FB7003023DEC147090
:1038D40003023E9024FE601E1470030239AD14707E
:1038E40003023AA1147003023BC6147003023C3F66
:1038F400023EF4023EF4900A7D780C1219E7E50CBE
:103904008E828F83E50CF08E828F83A3AA82AB8391
:10391400EAFEEBFF900A7D780C1219E7E4E50DF559
:103924000CE50C8A828B83E50CF08E828F83A3AA2C
:1039340082AB83EAFEEBFF900A7D780C1219E774E0
:1039440010780C1218EAE50C8A828B83E50CF08E51
:10395400828F83A3A882A983E8FEE9FF900A81E00D
:1039640088828983F07C047D00851882851983E030
:10397400FAA3E0FB1208578A0A8B0B850A08850B09
:10398400098E828F83A3AE82AF83E508E508F08EAB
:10399400828F83A3AE82AF83A808A909E4E509A8AE
:1039A40009E509E509F0023EF41206D78A0C8B0DED
:1039B4008C0E8D0F900A84E50CF0A3E50DF0900AAF
:1039C40084E0F8A3E0F9E88E828F83F08E828F83FF
:1039D400A3A882A983E8FEE9FF900A84E0FAA3E0A1
:1039E400FBE4EBFA88828983F08E828F83A3AA8218
:1039F400AB83EAFEEBFF900A86780C1219E7E50C1C
:103A04008A828B83E50CF08E828F83A3AA82AB8398
:103A1400EAFEEBFF900A86780C1219E7E4E50DF54F
:103A24000CE50C8A828B83E50CF08E828F83A3AA2B
:103A340082AB83EAFEEBFF900A86780C1219E774D6
:103A440010780C1218EAE50C8A828B83E50CF07C62
:103A5400057D00851882851983E0FAA3E0FB12082E
:103A6400578A0A8B0B850A08850B098E828F83A3DC
:103A7400AE82AF83E508E508F08E828F83A3AE8221
:103A8400AF83A808A909E4E509A809E509E509F04F
:103A9400851482851583E02402F0023EF490032607
:103AA400121D947A8A7B0A1206DD7404121B2D906F
:103AB4000A8FE0F8A3E0F9E88E828F83F08E828F7C
:103AC40083A3A882A983E8FEE9FF900A8FE0FAA302
:103AD400E0FBE4EBFA88828983F08E828F83A3A8CB
:103AE40082A983E8FEE9FF900A8EE088828983F048
:103AF4008E828F83A3A882A983E8FEE9FF900A8DB2
:103B0400E088828983F08E828F83A3A882A983E8C8
:103B1400FEE9FF900A8CE088828983F08E828F838D
:103B2400A3A882A983E8FEE9FF900A8BE088828932
:103B340083F08E828F83A3A882A983E8FEE9FF9095
:103B44000A8AE088828983F08E828F83A3A882A95F
:103B540083E8FEE9FF900A91E088828983F08E82EF
:103B64008F83A3A882A983E8FEE9FF900A92E088E4
:103B7400828983F07C097D00851882851983E0FAA7
:103B8400A3E0FB1208578A0A8B0B850A08850B09E8
:103B94008E828F83A3AE82AF83E508E508F08E8220
:103BA4008F83A3AE82AF83A808A909E4E509A80915
:103BB400E509E509F0851482851583E02402F00205
:103BC4003EF4900A93E0F8A3E0F9E88E828F83F044
:103BD4008E828F83A3A882A983E8FEE9FF900A93CB
:103BE400E0FAA3E0FBE4EBFA88828983F07C027DAF
:103BF40000851882851983E0FAA3E0FB1208578A2E
:103C04000A8B0B850A08850B098E828F83A3AE82EB
:103C1400AF83E508E508F08E828F83A3AE82AF837D
:103C2400A808A909E4E509A809E509E509F0851446
:103C340082851583E02402F0023EF4851482851502
:103C440083E0C3940B500C8516828517837480F02F
:103C5400023EF4851482851583E0FC7D00EEFAEFC4
:103C6400FB12085DE9700C8516828517837481F058
:103C7400023EF48E828F83E0FA7B008E828F83A3D0
:103C8400E0F87900E4C8F9EA28F8EB39F974081285
:103C94001B62E8F0A3E9F08E828F83A3A3E0C0E067
:103CA4007407121B62D0E0F08E828F83A3A3A3E07B
:103CB400C0E07406121B62D0E0F08E828F83A3A34F
:103CC400A3A3E0C0E07405121B62D0E0F08E828FE3
:103CD40083A3A3A3A3A3E0C0E07404121B62D0E0F7
:103CE400F08E828F83A3A3A3A3A3A3E0C0E07403F5
:103CF400121B62D0E0F08E828F83A3A3A3A3A3A39D
:103D0400A3E0C0E0740A121B62D0E0F08E828F83BD
:103D1400A3A3A3A3A3A3A3A3E0C0E0740B121B62F9
:103D2400D0E0F0740A121B62E0F91207D3E9600DC7
:103D3400740B121B62E0F91207D9E9700C85168224
:103D44008517837404F0023EF47403121B62AA8282
:103D5400AB831206E98A0C8B0D8C0E8D0F850C102B
:103D6400850D11850E12850F1390032CE0700A90B7
:103D7400032678101219F680371206D79003221200
:103D84001A1185100C85110D85120E85130F9003E1
:103D940022780C12196FAA0CAB0DAC0EAD0F900368
:103DA40026E50CF0A3E50DF0A3E50EF0A3E50FF076
:103DB400900326121D947A8A7B0A1206DD7404127B
:103DC4001B2D740A121B62E0900A91F0740B121BF3
:103DD40062E0900A92F090032D7401F085168285BA
:103DE40017837400F0023EF47A177B001206658A8A
:103DF4000C8B0D850C0A850D0BE50A450B7003022F
:103E04003EF4850A82850B8374E0F085148285155F
:103E140083E0850A82850B83A3A3F085148285152C
:103E240083E0F50C750D00780C121D81EEFCEFFD9E
:103E3400E50A2403FAE50B3400FB1206417402126E
:103E44001B2DAA0AAB0B120809E9700C8516828592
:103E540017837480F0023EF4851482851583E0FC98
:103E64007D00E50A2403FAE50B3400FB12085DE942
:103E7400700B8516828517837481F08073AA0AAB50
:103E84000B9002ACE0F9120671E980647A177B00AA
:103E94001206658A0C8B0D850C0A850D0BE50A4507
:103EA4000B604D850A82850B8374E1F0851482854D
:103EB4001583E0850A82850B83A3A3F0851482858C
:103EC4001583E0F50C750D00780C121D81EEFCEFE6
:103ED400FDE50A2403FAE50B3400FB1206417402E3
:103EE400121B2DAA0AAB0B9002ACE0F9120671E981
:103EF400740C121B2D7F10021C40E9F8E875F002C7
:103F04001216E5E5F0600479008021E8C394D1A29B
:103F1400D265D033400BE8C39438A2D265D0334085
:103F240005747F687004790180027900020135E923
:103F3400F87402686012740468600DE8600A74081A
:103F440068600574FF6870047901800279000201D9
:103F54003574E8121B6E74F2121B178518828519CA
:103F640083EAF0A3EBF07F007E067408121B6274F0
:103F740000F0A37400F07402121B627486F0A37440
:103F84000AF0750C00750D00750E00750F007A00AF
:103F94007B007C007D00740A121B62EAF0A3EBF044
:103FA400A3ECF0A3EDF0900338E0F8A3E0F990035C
:103FB4003AE8F0A3E9F012081B900338EAF0A3EB07
:103FC400F0900338E0F8A3E0F97AFD7B07121A8C2D
:103FD400900338EAF0A3EBF0900338E0F8A3E0F99B
:103FE400851882851983E0FAA3E0F5838A82A3A366
:103FF400E8F0A3E9F090032AE0F8A3E0F985188239
:10400400851983E0FAA3E0F5838A82A3A3A3A3E836
:10401400F0A3E9F0900A82E0F8A3E0F97AE87B03E0
:10402400121A8C8808890990032AE02508F0A3E075
:104034003509F090032AE0F8A3E0F9E84970030297
:104044004128900338E054FFF8A3E05407F9E4FA58
:10405400FB880C890D8A0E8B0F90033AE054FFFA0B
:10406400A3E05407FBE4FCFD740A121B62EAF0A30C
:10407400EBF0A3ECF0A3EDF0900A82E0F8A3E0F9F2
:104084007AE87B03121A8C7406121B62E8F0A3E927
:10409400F0850C08850D09850E0A850F0B740A122C
:1040A4001B62780812196F9081C078141219E7788E
:1040B4000879141217817406121B62E0F514A3E048
:1040C400F515E4F516F5177808791412189B850888
:1040D40010850911850A12850B139081B47810128A
:1040E400171C500E7404121B6274FEF0A37407F0C4
:1040F40080329081AC781012171C400E7404121B8D
:10410400627402F0A3740FF0801A851008851109F7
:10411400E5084400F8E50944F0F97404121B62E868
:10412400F0A3E9F07402121B62E0F8A3E0F58388BF
:1041340082121A05851882851983E0F8A3E0C82441
:1041440006F582E83400F583121A117402121B6218
:10415400E0F8A3E0F583888278081219E7E50854AB
:10416400FF6005D3EF92E7FF7402121B62E0F8A32D
:10417400E0F583888278081219E7E5085400F8E529
:104184000954FFF9E8496005D3EF92E6FF7402127F
:104194001B62E0F8A3E0F583888278081219E7909F
:1041A40081A478081219AEE5084509450A450B6053
:1041B40005D3EF92E5FFEFA2E0502774022EFE74C0
:1041C40004121B62E0F8A3E0F9851882851983E0E4
:1041D400FAA3E0CA240AF582EA3400F583E8F0A3DE
:1041E400E9F0EFA2E1502774022EFE7408121B625C
:1041F400E0F8A3E0F9851882851983E0FAA3E0CA00
:10420400240CF582EA3400F583E8F0A3E9F0EFA288
:10421400E550010EEFA2E650010EEFA2E750010EA9
:1042240074022EFEC0E0851882851983E0F8A3E0AD
:10423400F5838882D0E0F0EFC0E085188285198389
:10424400E0F8A3E0F5838882A3D0E0F0740E121B9B
:104254002D7F10021C40C082C0837A8C7B00120622
:10426400FB90032EEAF0A3EBF09003317400F0907E
:1042740003307400F09003327400F090032D740046
:10428400F0120815D083D08202013574F0121B6E2F
:10429400890C8A088B098C0E8D0F7E007F00900399
:1042A40031E07005790602465FE50C14601E147057
:1042B4000302447414605814700302459E1470037E
:1042C40002441614700302443502465D900332E042
:1042D400900333F0900332E0F87900900331E0FA70
:1042E4007B00E82AF8E93BF9E824FFF8E934FFF910
:1042F4007A0A7B00121A84EA900334F0900331E0C6
:10430400F87900900335F0A3E9F0790102465F9053
:104314000332E0F879008E0A750B00250AF8E935B6
:104324000BF97A0A7B00121A84EAFFEFF87900E8A5
:1043340075F00EA4C8AAF075F000A42AFA75F00E60
:10434400E9A42AF990032EE028FAA3E0398A82F539
:1043540083A3A3A3A3C3E09508A3E09509403CEF7E
:10436400900333F0900332E0F87900900331E0FADF
:104374007B00E82AF8E93BF9E824FFF8E934FFF97F
:104384007A0A7B00121A84EA900334F0900333E033
:10439400F8900334E0C3984046801D0E900331E04A
:1043A400F8EEC398400F9003357400F0A37400F046
:1043B400790602465F024313900334E0F8790090D3
:1043C4000333E0FA7B00E8C39AF8E99BF9E8240197
:1043D400F8E93400F9900335E8F0A3E9F0802E9071
:1043E4000333E0F87900740AC398F8740099F990DB
:1043F4000334E0FA7B00E82AF8E93BF9E8C394FFC8
:10440400F8E994FFF9900335E8F0A3E9F0790102A3
:10441400465F900332E0900333F0900332E0900360
:1044240034F09003357401F0A37400F0790102466E
:104434005F900332E0F87900900331E0FA7B00E802
:104444002AF8E93BF9E824FFF8E934FFF97A0A7B12
:1044540000121A84EA900333F0900333E09003349B
:10446400F09003357401F0A37400F0790102465F03
:10447400900332E0F879008E0A750B00250AF8E9FA
:10448400350BF97A0A7B00121A84EAFFEFF87900F7
:10449400E875F00EA4C8AAF075F000A42AFA75F025
:1044A4000EE9A42AF990032EE028FAA3E0398A82BF
:1044B400F583A3A3A3A3E0F8A3E0F9C3E50898E573
:1044C4000999502FEE700F9003357400F0A3740017
:1044D400F0790602465F8F0A750B00E50A2409F895
:1044E400E50B3400F97A0A7B00121A84EA9003344B
:1044F400F080380E900331E0F8EEC398402A900320
:1045040032E0F87900900331E0FA7B00E82AF8E918
:104514003BF9E824FFF8E934FFF97A0A7B00121A20
:1045240084EA900334F08003024474900332E090F0
:104534000333F0900333E0F8900334E0C39840274A
:10454400900334E0F87900900333E0FA7B00E8C389
:104554009AF8E99BF9E82401F8E93400F990033565
:10456400E8F0A3E9F0802E900333E0F87900740AB0
:10457400C398F8740099F9900334E0FA7B00E82AB0
:10458400F8E93BF9E8C394FFF8E994FFF99003359F
:10459400E8F0A3E9F0790102465FC3E50E9508E56A
:1045A4000F95095005790502465F7C007D00AA0835
:1045B400AB0979031207EBE96406601A900333E050
:1045C400F50B7C007D00AA0EAB0F79021207EBE914
:1045D400640670078026790602465F900334E0F58E
:1045E4000AE50B900333F0E50A900334F0900333AB
:1045F400E0F8900334E0C398402D80047906805B92
:10460400900334E0F87900900333E0FA7B00E8C3C8
:104614009AF8E99BF9E82401F8E93400F9900335A4
:10462400E8F0A3E9F0802E900333E0F87900740AEF
:10463400C398F8740099F9900334E0FA7B00E82AEF
:10464400F8E93BF9E8C394FFF8E994FFF9900335DE
:10465400E8F0A3E9F07901800279087F08021C40A0
:1046640074F6121B6EEAFEEBFF900332E0F8790059
:10467400900331E0FA7B00E82AF8E93BF97A0A7BF7
:1046840000121A84EA900330F0900330E0F89003AB
:1046940032E0687023900331E0C39401401A900320
:1046A40032E0F879002401F8E93400F97A0A7B0051
:1046B400121A84EA900332F075080E75090078081E
:1046C400121D81EEFCEFFD900330E0F87900E875EF
:1046D400F00EA4C8AAF075F000A42AFA75F00EE949
:1046E400A42AF990032EE028FAA3E039FB1206412C
:1046F4007402121B2D900331E02401F0900331E089
:10470400C3940B4006900331740AF07F02021C40EC
:1047140074F0121B6E8A0C8B0D850C82850D83A39D
:10472400A3A3E0FE850C82850D83A3A3A3A3E0FFCE
:10473400750E00750F00750800750900750A00757F
:104744000B00EE14600F14600C147003024A201462
:104754006003024A67EF70359002E97406F0900234
:10476400EA7400F0EE9002EBF09002EC7403F09027
:1047740002E87404F09002ACE0F97CE67D02900259
:10478400B5E0FAA3E0FB120839E9024A99EFC394B1
:104794000740359002E97406F09002EA7400F0EEE6
:1047A4009002EBF09002EC7404F09002E87404F0D0
:1047B4009002ACE0F97CE67D029002B5E0FAA3E059
:1047C400FB120839E9024A9974026F600A74036F94
:1047D400600574046F7077850C82850D83A3A3A391
:1047E400A3A3E0F8880B74016860359002EC7409A7
:1047F400F09002E97406F09002EA7400F0EE900280
:10480400EBF09002E87404F09002ACE0F97CE67DF1
:10481400029002B5E0FAA3E0FB120839E9024A99D2
:10482400850C82850D83A3A3A3A3A3A3E0FA7B0035
:10483400850C82850D83A3A3A3A3A3A3A3E0F87986
:1048440000E4C8F9EA28F8EB39F9880E890F7404F2
:104854006F7032850C82850D83A3A3A3A3A3A3A3A6
:10486400A3E0FA7B00850C82850D83A3A3A3A3A3F5
:10487400A3A3A3A3E0F87900E4C8F9EA28F8EB3984
:10488400F98808890974016F700E850C82850D837F
:10489400A3A3E0C39403501074046F7040C3E508ED
:1048A400950EE509950F50359002EC7405F09002D1
:1048B400E97406F09002EA7400F0EE9002EBF090D6
:1048C40002E87404F09002ACE0F97CE67D02900208
:1048D400B5E0FAA3E0FB120839E9024A99AC08AD45
:1048E40009AA0EAB0FEFF91207EBE9F8880A740175
:1048F4006860030249C174016E7027900337740025
:10490400F0908190121D947A047B009002ACE0F93F
:104914001207377404121B2DE97901120851E902B8
:104924004A9974046E70469002E97405F09002EAA4
:104934007400F0900335E0F8A3E0F9E89002EBF09E
:10494400900335E0F8A3E0F9E4E9F89002ECF09084
:1049540002E87404F09002ACE0F97CE67D02900277
:10496400B5E0FAA3E0FB120839E9024A9974026E31
:104974006003024A999002E97406F09002EA740016
:10498400F0EE9002EBF0900335E0FCA3E0FD900321
:1049940034E0FA900333E0F912080FE99002ECF0E6
:1049A4009002E87404F09002ACE0F97CE67D029099
:1049B40002B5E0FAA3E0FB120839E9805D740665EC
:1049C4000A702574046E70209002EC7400F090025A
:1049D400E97405F09002EA7400F09002EB7400F0C0
:1049E4009002E87404F0801DE50A9002ECF0900255
:1049F400E97406F09002EA7400F0EE9002EBF09095
:104A040002E87404F09002ACE0F97CE67D029002C6
:104A1400B5E0FAA3E0FB120839E980797A047B0057
:104A24009002ACE0F9120743E97900120851E990C9
:104A340002E97406F09002EA7400F0EE9002EBF0E2
:104A44009002EC7401F09002E87404F09002ACE07F
:104A5400F97CE67D029002B5E0FAA3E0FB12083986
:104A6400E980329002E97406F09002EA7400F0EEF4
:104A74009002EBF09002EC7402F09002E87404F0FF
:104A84009002ACE0F97CE67D029002B5E0FAA3E086
:104A9400FB120839E97F08021C4074EC121B6E906B
:104AA4000337E0FA7B00900335E0F8A3E0F9C3EAAA
:104AB40098EB994003024D5D900333E0F879009040
:104AC4000337E0FA7B00E82AF8E93BF97A0A7B002D
:104AD400121A84EA75F00EA4CAA8F075F000A4288E
:104AE400F875F00EEBA428FB90032EE02AF50AA338
:104AF400E03BF50B7E007F03850A82850B83A3E0F0
:104B0400F50C850A82850B83E08E828F83F08E827A
:104B14008F83A3AE82AF83E50C8E828F83E50CF086
:104B24008E828F83A3AE82AF83850A82850B83A393
:104B3400A3E0F8A3E0F9E88E828F83F08E828F835E
:104B4400A3AE82AF83850A82850B83A3A3E0F8A377
:104B5400E0F9E4E9F88E828F83F08E828F83A3AE2E
:104B640082AF83850A82850B83A3A3A3A3E0F8A362
:104B7400E0F9E88E828F83F08E828F83A3AE82AFBA
:104B840083850A82850B83A3A3A3A3E0F8A3E0F99A
:104B9400E4E9F88E828F83F08E828F83A3AE82AF96
:104BA40083E50CA2E75023850A82850B83A3A3A384
:104BB400A3A3A378101219E7E5108E828F83E51062
:104BC400F08E828F83A3AE82AF83E50CA2E5502AD8
:104BD400850A82850B83A3A3A3A3A3A37810121928
:104BE400E7741078101218EAE5108E828F83E510AE
:104BF400F08E828F83A3AE82AF83E50CA2E6502EA3
:104C0400850A82850B83A3A3A3A3A3A378101219F7
:104C1400E7851008851109E4E509F508E5088E82A1
:104C24008F83E508F08E828F83A3AE82AF83E50C79
:104C3400A2E0504A850A82850B83A3A3A3A3A3A35E
:104C4400A3A3A3A3E0F8A3E0F9E88E828F83F08EF8
:104C5400828F83A3AE82AF83850A82850B83A3A34D
:104C6400A3A3A3A3A3A3A3A3E0F8A3E0F9E4E9F80F
:104C74008E828F83F08E828F83A3AE82AF83E50C06
:104C8400A2E15042E50A240CF582E50B3400F583D9
:104C9400E0F8A3E0F9E88E828F83F08E828F83A3FD
:104CA400AE82AF83E50A240CF582E50B3400F5836C
:104CB400E0F8A3E0F9E4E9F88E828F83F08E828F26
:104CC40083A3AE82AF83850A82850B83E09002FFC3
:104CD400F07508007509009002FFE0FC7D007A0081
:104CE4007B031208578A0E8B0F850E08850F09E582
:104CF400088E828F83E508F08E828F83A3AE82AF05
:104D040083A808A909E4E509A809E5098E828F8327
:104D1400E509F08E828F83A3AE82AF839002FFE019
:104D24002402F0900337E02401F09002ACE0F97C17
:104D3400FD7D029002B5E0FAA3E0FB12082DE99094
:104D44008194121D947A047B009002ACE0F912075E
:104D5400377404121B2DE980467A047B009002AC60
:104D6400E0F9120743E99002E87404F09002E97450
:104D740006F09002EA7400F09002EB7401F09002E5
:104D8400EC7401F09002ACE0F97CE67D029002B58F
:104D9400E0FAA3E0FB120839E97900120851E97F2F
:104DA4000C021C40C082C0839003327400F0900354
:104DB400317400F0D083D082020135C082C0838A6E
:104DC400828B83A3A3A3E0F88A828B83A3A3E0FC52
:104DD4007901E814606E14607B24FE7003024E684F
:104DE400147003024E7724FE7003024E861470037F
:104DF400024E9524FE7003024E86147003024E95F3
:104E040024FE7003024EA4147003024EB324FE70F9
:104E140003024EA4147003024EB324FE7003024E28
:104E2400C2147003024ED124FE7003024EC21470E9
:104E340003024ED124FD7003024EE0147003024EAF
:104E4400E0024EEDECC3940440047401800274004B
:104E5400F9024EEDECC39403400474018002740023
:104E6400F9024EEDECC3940D400474018002740009
:104E7400F98076ECC394054004740180027400F94F
:104E84008067ECC394054004740180027400F980C7
:104E940058ECC394034004740180027400F98049FF
:104EA400ECC394054004740180027400F9803AEC68
:104EB400C394034004740180027400F9802BECC392
:104EC40094064004740180027400F9801CECC394BD
:104ED400044004740180027400F9800DECC394044E
:104EE4004004740180027400F9D083D08202013539
:104EF40074EE121B6E890C8A08ECFEEDFF900331F0
:104F0400E0F87900C3EE98EF99400812080379019C
:104F140002504A900332E0F87900900331E0FA7BC2
:104F240000E82AF8E93BF9E824FFF8E934FFF97AC4
:104F34000A7B00121A84EAF50AE50A65087014EE81
:104F4400F8900331E0C398F0E50C900330F0790158
:104F540002504A850A10751100E510240AF8E5117B
:104F64003400F9850810751100E8C39510F8E99527
:104F740011F97A0A7B00121A848A108B1185100E9B
:104F840085110F74012508F50B850C09E50E450FF5
:104F9400700302503975100E7511007810121D81BE
:104FA400E50BA80B7900E875F00EA4C8AAF075F01B
:104FB40000A42AFA75F00EE9A42AF990032EE02839
:104FC400FCA3E039FDE509A8097900E875F00EA411
:104FD400C8AAF075F000A42AFA75F00EE9A42AF91B
:104FE40090032EE028FAA3E039FB12064174021262
:104FF4001B2D850910751100E5102401F8E5113405
:1050040000F97A0A7B00121A84EAF509850B1075F7
:105014001100E5102401F8E5113400F97A0A7B0047
:10502400121A84EAF50BE50E24FFF50EE50F34FFA2
:10503400F50F024F90E509900330F0EEF89003313C
:10504400E0C398F079017F0A021C4074EE121B6ED3
:1050540074FA121B178A0A8B0B8909ECFEEDFF7593
:105064000800850A0C850B0D780C121DC500041070
:1050740028539850B950D850F9501A513B516E5199
:105084008F51A651D4519252B352D352FD52285348
:105094002853FF517401650970158E828F83E0C314
:1050A4009403500B8E828F83E0900DDAF0800375A9
:1050B40008180253517402650970138E828F83E0BD
:1050C400F8A3E0F9900DDBE8F0A3E9F0800375089C
:1050D400180253517401650970158E828F83E0C3E1
:1050E4009402500B8E828F83E0900361F0800375ED
:1050F40008180253517401650970158E828F83E07C
:10510400C39405500B8E828F83E0900362F080037A
:105114007508180253517401650970158E828F83C6
:10512400E0C39402500B8E828F83E0900363F0807F
:1051340003750818025351741065097027750C1013
:10514400750D00780C121D81EEFCEFFD7A647B0373
:105154001206417402121B2D8A0C8B0D850C82855C
:105164000D83800375081802535174016509701585
:105174008E828F83E0C39402500B8E828F83E090E3
:105184000374F080037508180253517401650970A3
:105194000B8E828F83E0900DDEF080037508180279
:1051A40053517404650970229081E4780C1219E754
:1051B4008E828F83780C121752500F8E828F831237
:1051C4001A05900376121A118003750818025351B8
:1051D400E5097021120DA9E970131208F9E9F50C1B
:1051E4007950120AAFE9F50D1208E7800B90040913
:1051F4007401F0800375081802535174076509603F
:105204000302528C750E06750F00780E121D818EE6
:10521400828F83A3AC82AD837402121B62AA82AB19
:10522400831206477402121B2D8A108B1185100EEF
:1052340085110F7C007D00851882851983AA82ABB5
:10524400838E828F83E0F9120887E9F50CE50CC39D
:10525400940A502F120DA9E97015A90C1208FFE940
:10526400F50D7950120AAFE9F50E1208E7801C75A6
:105274000D00740A250CF5827404350DF583740150
:10528400F0800875080280037508180253517401F0
:10529400650970158E828F83E0C39402500B8E8251
:1052A4008F83E0900375F0800375081802535174DE
:1052B40001650970158E828F83E0C3940A500B8EAA
:1052C400828F83E0900DDDF08003750818807E7472
:1052D400016509701F8E828F83E0C3940740158E89
:1052E400828F83E0C39411500B8E828F83E0900DE4
:1052F400DFF0805975081880547401650970209096
:105304000408E0F50C8E828F83E0900408F0E50C2D
:10531400703B900408E0640170331208E7802E7536
:1053240008188029C3E50A9427E50B9400501B74E0
:1053340002650970158E828F83E0FCA3E0FDAA0A42
:10534400AB0B120C47E9F5088003750802A9087431
:1053540006121B2D7F0A021C4074EC121B6E74DAB9
:10536400121B17890D8A128B138C0A8D0B743A1237
:105374001B62E0F50C908172C082C083851882851F
:105384001983AC82AD83D083D0827406121A2A8525
:105394001882851983AC82AD83AA12AB13A90D12AE
:1053A4000887E9FEEEC3940A40030254FCEEF912A6
:1053B40008C9E9FF900DDAE0640270047401800208
:1053C4007400F5087808121D85AD0CEFFCEEF9AAFF
:1053D4000AAB0B12093B7401121B2D7C147D00795E
:1053E400007412121B62AA82AB831206598A0E8BB6
:1053F4000F850E08850F097412121B62AC82AD83EF
:105404007A1075F006EEA42424F9120AA9E970436F
:105414007C1079FF7412121B62AA82AB831206B944
:10542400E970307422121B62AC82AD837A0475F089
:1054340006EEA42425F9120AA9E9F5087412121B30
:1054440062AC82AD83EFA2E0E433F9AA0AAB0B129B
:105454000CD1E97406121B62AC82AD837A0C7470B1
:105464002EF9120AA9E9707E7406121B62AA82AB95
:10547400831208BD750E00E50EC394045068E50E52
:10548400A80E7900E875F003A4C8AAF075F000A48A
:105494002AFA75F003E9A42AF97406121B62E5825C
:1054A40028F508E58339F509850882850983E0F83C
:1054B400A3E0F9E849602B850882850983A3A3E06A
:1054C400F5107511007810121D81850882850983F5
:1054D400E0FCA3E0FDAA0AAB0B120F837402121BBB
:1054E4002DE9050E8091EFA2E1500D900360E0F9E3
:1054F400AA0AAB0B120F89E97404650C700F900DA6
:10550400DAE064027007AA0AAB0B12093579007459
:1055140026121B2D7F0C021C4074F2121B6E890B89
:10552400EAFEEBFF8C088D09750A0AE50B600C1482
:1055340060091460441460640255C1EEFAEFFB1272
:1055440008DBE9F50AE50AC3940A5071E508450940
:10555400606B750C06750D00780C121D81EEFCEF66
:10556400FDAA08AB091206417402121B2D8A0C8B8A
:105574000D850C82850D838044EEFAEFFB1208D56D
:10558400E9F50AE50AC3940A5033E5084509602D94
:10559400AA08AB09A90A1208CFE98021EEFAEFFBA9
:1055A4001208E1E9F50AE50AC3940A5010E5084532
:1055B40009600AAA08AB09A90A1208CFE9A90A7F57
:1055C40006021C4074F2121B6E8A0C8B0DE9FE7FDE
:1055D4001574FF650C700474FF650D702A7508005E
:1055E400E508C3940A5014EEFC7A027B00A9081261
:1055F40008ABE960027F00050880E5EE60637A236A
:105604007B0912117B805AAA0CAB0D12115D8A0A18
:105614008B0B850A08850B09E508450960417C0068
:105624007D00E5082405FAE5093400FB8508828538
:105634000983A3A3A3A3E0F9120887E9F50AE50AFD
:10564400C3940A500EEEFC7A027B00A90A1208AB3E
:10565400E97F00EE600BAA08AB0912092380027FE0
:1056640014EFF97F06021C4074EE121B6E8A0E8B37
:105674000F8C0A8D0B7412121B62E0F50CA3E0F57B
:105684000D75081574FF650E700474FF650F701EA8
:105694007E00EEC3940A5062AC0CAD0DAA0AAB0BAB
:1056A400EEF91208B1E960037508000E80E4AA0E51
:1056B400AB0F12115D8A108B11AE10AF11EE4F605B
:1056C400367C007D00EE2405FAEF3400FB8E828FD9
:1056D40083A3A3A3A3E0F9120887E9F509E509C3A5
:1056E400940A5016AC0CAD0DAA0AAB0BA90912080A
:1056F400B1E97508008003750814A9087F0A021C23
:105704004074F7121B6EEAFEEBFF90037AEEF0A3EF
:10571400EFF0900360E0FC7D007A267B00120C47DA
:10572400E9F508900360E0F9120F057F01021C40BF
:1057340074EE121B6E8A108B11E9FE7412121B6236
:10574400780C1219E77F00EE7041850C08850D096D
:10575400850E0A850F0B9081E4780C1219E77808FE
:10576400790C1218017810121D81AA0CAB0DAC0E25
:10577400AD0F120CE37402121B2DE9FFEF601679D2
:1057840001AA10AB11120CDDE9800AEEF9AA10ABE4
:1057940011120CDDE9EFF97F0A021C4074F2121BAE
:1057A4006E74EC121B178A0A8B0B850A82850B8395
:1057B400A3A3E024FA7003025C0024FD7003025AE0
:1057C4007614700302589314601024FD7003025A77
:1057D4001E147003025AB6025C6EAE0AAF0B90033D
:1057E4007AE0F8A3E0F9E849606990037AE0F8A365
:1057F400E0F5838882E0F8A3E0F9E8496055EE24F7
:105804000CF582EF3400F583E0F5087808121D8565
:10581400EE240BF582EF3400F583E0F98E828F835A
:10582400A3A3A3A3A3A3A3A3A3E0FCA3E0FDEE244B
:1058340003FAEF3400FB90037AE0F8A3E0F58388E1
:1058440082E0F8A3E0F5838882121B6C7401121BBA
:105854002D80398E828F83A3A3A3A3A3A3A3A3A381
:10586400121D98900376121A05120CE37402121B8F
:105874002DE9601879018E828F83A3A3A3A3A3A328
:10588400A3A3A3E0FAA3E0FB120CDDE9025C6EAE75
:105894000AAF0B8E828F83A3E060030259CC8E8201
:1058A4008F83A3A3A3A3A3E0A2E040030259CC9057
:1058B4000414E0F8A3E0F9E84960030259CC7C0E33
:1058C4007D007900851882851983AA82AB8312062C
:1058D400598A088B09AA08AB09EE240CF582EF3427
:1058E40000F583E0F8A3E0F9E849603B7508067524
:1058F40009007808121D81EE240CF582EF3400F5BE
:1059040083E02410FCA3E03400FD7402121B62AA9D
:1059140082AB831206417402121B2D8A088B0985FF
:10592400088285098380548E828F83A3A3A3E0FA1F
:10593400A3E0FB12115D8A0C8B0D850C08850D0903
:10594400E50845096032750C06750D00780C121DCA
:1059540081E5082405FCE5093400FD7402121B628C
:10596400AA82AB831206417402121B2D8A0C8B0D82
:10597400850C82850D838003025C6E8E828F83A3E7
:10598400A3A3A3A3E0A2E25004D2F08002C2F0A237
:10599400F0E433F87900740C121B62E048F0A3E0E1
:1059A40049F0EEFCEFFD851882851983AA82AB834A
:1059B4001208C3E970127A027B00900360E0F912C6
:1059C4000695E97900025C7090037AE0F8A3E0F9A7
:1059D400E849604390037AE0F8A3E0F5838882A362
:1059E400A3E0F8A3E0F9E849602D8E828F83A3E059
:1059F400FC79018E828F83A3A3A3E0FAA3E0FB903A
:105A0400037AE0F8A3E0F5838882A3A3E0F8A3E097
:105A1400F5838882121B6C025C6EAE0AAF0B900396
:105A24007AE0F8A3E0F9E849604590037AE0F8A346
:105A3400E0F5838882A3A3E0F8A3E0F9E849602FA6
:105A4400850A82850B83A3E0FC79028E828F83A36F
:105A5400A3A3E0FAA3E0FB90037AE0F8A3E0F583C4
:105A64008882A3A3E0F8A3E0F5838882121B6C026A
:105A74005C6EAE0AAF0B7C007D00EE2404FAEF34BA
:105A840000FB8E828F83A3A3A3E0F9120887E9F5B4
:105A940008E508C3940A5017EE240AFCEF3400FD0D
:105AA4007A0475F006E508A42425F9120AA3E9028C
:105AB4005C6EAE0AAF0B900375E06018900DDDE0EC
:105AC400F98E828F83A3A3A3E0FAA3E0FB120CDD7B
:105AD400E9025C6E900DDAE0701579058E828F8391
:105AE400A3A3A3E0FAA3E0FB120CDDE9025C6E8E33
:105AF400828F83A3A3A3E0FAA3E0FB12115D8A0CB7
:105B04008B0D850C08850D098E828F83A3A3A3A317
:105B1400A3A3A3E0A2E05075E5084509606C8508DD
:105B240082850983A3A3A3A3E060628E828F83A3EB
:105B3400A3A3A3A3A3A3A3A3E0F8A3E0F9E8C454F5
