:020000040000FA
:0600000002011D02248331
:03002B00021D4271
:030053000224F68E
:03006B00021D0E65
:100083000222EFE5C754F84401F5C77901220000C5
:100093000080FB120086B90003020107E47921788E
:1000A30008B800028004F709D8FCE479297802B87B
:1000B30000028004F709D8FCE490028178A3790850
:1000C3008002F0A3D8FCD9FA781A90014D7A01BACC
:1000D30000028007E493A3F608DAF9900A23AA82C0
:1000E300AB8390014E78EE79038015E493A3AC8241
:1000F300AD838A828B83F0A3AA82AB838C828D83A8
:10010300D8E9D9E77582B37583FB740312012F75A0
:100113008291758300740012012F75D00075813FA1
:10012300751881751902759F00020096C09FF59F8F
:10013300E473D09F22D083D082C09FE493C0E07445
:100143000193C0E0740293F59F2201FFFF1101990F
:10015300010F126404010245820100001082022192
:10016300820100002A0A025F820100002B0A022397
:1001730082030000A6020231820100002C0A080952
:1001830043474D2053696D02010505021F180A18E4
:1001930043474D2053696D756C61746F72000000A5
:1001A30000000000000080000095E80334129078FE
:1001B30056000000000000D007EC00A800B50500C1
:1001C300001002020A0202002828024582010000F0
:1001D3001982022182010000990A0257820000005D
:1001E3004603022382CC0000400302218201000067
:1001F3009A0A02558244000047030221820100004B
:100203009B0A02518244000048030221820100003C
:100213009C0A024F82CC00004903022182010000A4
:100223009D0A024B824400009E0A022182010000C3
:10023300A00A024982CC00005003022382CC0000B2
:100243004A03022182010000A10A024782CC000076
:100253005703022382CC000051030202020202026E
:10026300020202010D00000010010245820100009C
:100273001C82022182010000320B02418201000034
:100283005803022182010000330B023F8201000068
:100293005E81022182010000340B023D82010000D5
:1002A3006581022182010000350B02618201000099
:1002B300F481022182010000360B02398201000021
:1002C3000C82022182010000370B023782010000F9
:1002D300FC81022182010000380B023582010000FB
:1002E3000082022182010000390B023382010000E7
:1002F30042810221820100003A0B025D820100006B
:100303003B0B01E803053F100AFF000130750302B0
:1003130001060000000000000000000000000000D3
:100323000000000000000000000000000000FFFFCC
:100333000600800CE803FF0000B40000280028003A
:10034300283075A000A000A000A00000080008E06D
:1003530001F00010001000100010001000100050F9
:10036300005000500010001000D0070000000000F3
:10037300000F000100050030750700100001008127
:10038300FF00000000FF430B610B490BFF02020259
:1003930008025000A0000000E803024582010000AB
:1003A3001682022182010000650C022582010000F1
:1003B3005405022182010000660C0227820100001D
:1003C3006A05022182010000670C022982010000F4
:1003D3006C05022182010000680C022B82080000D8
:1003E3006D05022182010000690C022D82010000CB
:1003F3006A0CFFFF0100FF20024582010000138207
:10040300022182010000CF0C022F820000000000B5
:10041300022382030000FC05551155115511551196
:100423005511551155115511551155115511551199
:100433005511E9130114E313120138698A031201F8
:10044300387E8A03120138D68A031201383D8B03A2
:10045300120138858B03120138FB8B031201382AF2
:100463008C03120138388C031201389C8C0312015F
:1004730038DA8C03120138F58C031201388D8D03A1
:10048300120138368E03120138B98E03120138F285
:100493008E031201387D8F03120138D48F031201AA
:1004A300383390031201384590031201386B9003DF
:1004B300120138749003120138D3910312013802E8
:1004C300FA0312013814A803120138F3A803120126
:1004D300384FA90312013869A9031201387AA90315
:1004E30012013875AC0312013895AC031201389A26
:1004F300EB03120138DFEB0312013825EC03120181
:1005030038B8ED0312013889F803120138A4F8034F
:10051300120138B4F8031201380BF903120138E35E
:10052300F80212013803F90212013807FA02120124
:100533003853FA0212013873FA02120138C6FA026A
:1005430012013833FB0212013879FB02120138DD44
:10055300FB021201388FFE0212013810FF02120152
:1005630038F3F20312013823F30312013853F30370
:1005730012013873F303120138CDF30312013880EB
:10058300DA03120138B5DA03120138A4DB031201CE
:100593003888DC03120138354A00120138834C00D5
:1005A300120138264D001201386C4D00120138FF3C
:1005B3004D001201386A5000120138E75100120150
:1005C300385D52001201388E5200120138885400EF
:1005D300120138D85400120138885900120138BD6D
:1005E3005900120138DF59001201387F5C001201F3
:1005F30038B45C0012013889600012013839610097
:100603001201382F6300120138E165001201380D21
:10061300FC031201381EFC031201388499031201F2
:1006230038ED9903120138009A03120138519A03E5
:10063300120138B09A031201380F9B03120138C913
:100643009C0312013888A003120138DBA0031201B6
:10065300386DB30312013892B303120138CDB303DB
:10066300120138A5FA03120138BC2B00120138CA53
:100673002E001201388A3000120138353100120180
:1006830038D93100120138723200120138A1320018
:100693001201380D3300120138E737001201389286
:1006A3003800120138023A001201386A3A00120186
:1006B300381E3B00120138E03D001201381F3E0096
:1006C300120138933E00120138F23E0012013851F4
:1006D3003F00120138C03F00120138B3400012013D
:1006E30038F940001201383E4100120138614100DF
:1006F300120138DC4200120138EF4200120138F8CF
:1007030043001201383744001201386344001201D8
:1007130038B64400120138D744001201381B450093
:100723001201386D4700120138AE470012013859E3
:100733004800120138C44800120138014A0012016E
:10074300388AF7031201389BF70312013879F8034B
:10075300120138F1E8031201388CEB03120138A8B7
:10076300FC0312013835F40312013845F403120176
:10077300385FF40312013867F5031201388BE00385
:1007830012013831E1031201384DE303120138A09D
:10079300F103120138D2F10312013832F2031201CC
:1007A3003849F203120138A5F203120138E2F203C9
:1007B300120138E5F20312013863B80312013882DB
:1007C300B80312013817B90312013807BA0312012B
:1007D3003864BC03120138C4BC031201382DBD03B5
:1007E300120138F87F0012013844E6031201383B46
:1007F300E803120138A7E803120138EEE8031201F7
:1008030038FCED0312013865EE0312013823EF03C0
:10081300120138A2EF0312013837CF0312013869EE
:10082300CF0312013871D00312013896D10312019C
:100833003852D203120138008003120138E68003D4
:10084300120138338103120138768103120138EB28
:1008530081031201384C8203120138C18203120151
:10086300389D8303120138A88403120138298503B4
:10087300120138D08603120138668703120138D972
:1008830087031201385588031201386C880312015B
:1008930038A38903120138FD89031201388EC3017D
:1008A30012013826C801120138FACA01120138238D
:1008B300CB011201384CCB01120138FECB011201DE
:1008C30038E4CD011201381FCF0112013855D4018C
:1008D3001201388ED401120138D2D401120138E446
:1008E300D50112013893F603120138A9F603120158
:1008F30038D8F6031201380EF70312013825F7032F
:100903001201385CF70312013873F703120138340C
:10091300FE011201384BFE011201387CFE01120167
:1009230038B7FE01120138E1FE011201380BFF0155
:1009330012013822FF0112013839FF011201385028
:10094300FF0112013879FF011201388CFF011201F6
:1009530038A2FF01120138B5FF01120138DCFF0193
:10096300120138E3E102120138E7E20212013814FE
:10097300E3021201386AE3021201388DE302120125
:1009830038A1E302120138A3E302120138C6E302DD
:10099300120138CCE40212013890E50212013865E5
:1009A300E602120138E0E602120138E3E602120120
:1009B300386BE702120138A6E702120138DDE702BD
:1009C3001201386BE80212013844E9021201384778
:1009D300E902120138A7E902120138B2E902120151
:1009E3003831EA0212013834EA0212013837EA02D6
:1009F3001201383AEA02120138C9EA02120138D365
:100A0300EA02120138E3EA0212013813EB0212017F
:100A13003820EB0212013823EB02120138A4EB0257
:100A230012013892EC0212013844ED021201384BE4
:100A3300BD0312013873BD03120138A1BD031201B6
:100A430038D8BD0312013836BE0312013881BE0304
:100A5300120138CCBE031201380CBF031201385205
:100A6300BF0312013880BF031201383DC0031201D6
:100A73003847C00312013854C00312013887C0033A
:100A830012013853C1031201385FC10312013877D1
:100A9300C10312013881C10312013821FF0212017F
:100AA300382FFF0212013847FF021201385FFF029D
:100AB300120138008002120138AC8002120138277B
:100AC3008102120138488202120138848202120123
:100AD300382D8302120138148402120138788502FA
:100AE300120138CF850212013850860212013840B4
:100AF30087021201388D870212013813880212010E
:100B030038458802120138598A021201389B8A0239
:100B1300120138B98A021201383C8B0212013810D3
:100B23008C02120138D88C02120138F1A003120191
:100B330038C4A1031201386DA203120138C0A20305
:100B430012013870A303120138FCA303120138E821
:100B5300A40312013817A5031201382AA6031201B0
:100B63003872A60312013847A70312013883A7037B
:100B73001201389FA7031201382FFB03120138E734
:100B8300D603120138FDD60312013823D70312010D
:100B9300383FD80312013849D8031201387ED903EC
:100BA30012013876DA0312013846AE0312013876A1
:100BB300AF03120138A9AF03120138F3AF031201D7
:100BC30038BAB103120138F18E02120138758F025F
:100BD300120138BE8F02120138A591021201385E4C
:100BE30093021201383A9402120138EE9402120170
:100BF300382B9802120138D99802120138489A0208
:100C0300120138DA9B02120138129C02120138AF2A
:100C13009C02120138A4D6011201380ED701120129
:100C2300386DD8011201387DD801120138AAD801D4
:100C330012013801D901120138AAD901120138B1C0
:100C4300DA011201387BDB01120138DBDC0112010E
:100C5300381EDD01120138C3DD0112013810DE0137
:100C630012013836DE0112013844E001120138491D
:100C7300E0011201384EE2011201389BE201120138
:100C8300380EE30112013841E301120138E3E301B5
:100C93001201388CE401120138C4E401120138C78F
:100CA300E4011201380FE5011201384FE501120189
:100CB30038A6E50112013868E3031201387BE30328
:100CC30012013889E303120138D1E303120138E733
:100CD300E3031201382EE40312013842E503120143
:100CE30038CFE5031201381AE603120138F865001C
:100CF3001201380466001201383F6600120138847D
:100D03006600120138446700120138CA67001201F5
:100D130038F667001201382F68001201386D6A0037
:100D2300120138516C00120138376E001201387A03
:100D33006F00120138C87100120138DA7200120113
:100D430038257400120138357500120138527500C8
:100D53001201388D7500120138AF75001201381277
:100D63007600120138D37A00120138687B00120131
:100D730038B97B00120138E07B00120138327C0065
:100D8300120138507C00120138AA7C00120138A9E4
:100D93007D001201382D7E0012013808C2031201B2
:100DA3003812C20312013855C20312013870C2034C
:100DB30012013800C30312013828C3031201386536
:100DC300C3031201389CC303120138C5C3031201C4
:100DD300383AC4031201384FC40312013864C40300
:100DE30012013895C403120138A9C403120138CE85
:100DF300C40312013808C50312013834C5031201B4
:100E030038B7C50312013800C6031201382AC603D6
:100E130012013855C6031201386DF503120138105B
:100E2300D5021201383ED5021201388CD6021201C6
:100E3300386CD7021201388BD70212013808D80256
:100E43001201384BD802120138A1D90212013862BB
:100E5300DA02120138E9DC021201388ADD021201DA
:100E63003880DE021201387DDF02120138D7E0023A
:100E730012013862E102120138947E00120138FD3A
:100E83007E00120138517F00120138787F00120171
:100E930038A97F001201387DC603120138EAC60360
:100EA30012013831C70312013849C803120138450A
:100EB300C90312013828CA03120138CBF501120104
:100EC300380DF601120138DFF601120138B8F701C7
:100ED300120138B2F80112013894F901120138FDF8
:100EE300F901120138B3FA0112013827FB0112018B
:100EF3003893FB01120138BCFB0112013836FC01A7
:100F0300120138CFFC0112013834FD0112013849B6
:100F1300FD011201388FFD01120138A8FD011201F4
:100F2300380DFE0112013810FE0112013892DD0363
:100F3300120138BADD03120138F8DD03120138B6A5
:100F4300DE031201381DDF0312013839DF031201FA
:100F53003861DF0312013891DF03120138A0DF0388
:100F63001201381DE00312013843E00312013893E4
:100F7300E60112013871E801120138A3EA011201F6
:100F830038DFEA011201380CEB01120138F6EB01EC
:100F930012013841EC011201388CEC011201389E28
:100FA300EC01120138DEEC0112013813ED011201DC
:100FB3003861ED0112013890ED01120138B3ED01F2
:100FC30012013800EE0112013885EE011201389F3B
:100FD300F001120138DEF2011201381FF301120190
:100FE30038C1F40112013802F50112013875F50117
:100FF300120138FBC702120138F9C80212013892F4
:10100300CF02120138B3D1021201387ED30212018A
:1010130038E6D402120138648201120138138301C5
:10102300120138408301120138868301120138C648
:1010330084011201385C8601120138D6860112013F
:1010430038F186011201386C8701120138C6880114
:10105300120138268A011201382C8B011201388DB6
:101063008C01120138A68C01120138048D01120182
:1010730038F28D01120138258E01120138958E0147
:101083001201380F8F01120138598F0112013823D1
:101093009001120138F89001120138D79101120121
:1010A30038629201120138D092011201384493013F
:1010B3001201386F93011201382E940112013893F3
:1010C3009501120138B09501120138CF9501120133
:1010D30038C09601120138E596011201380F9701C5
:1010E3001201388A9701120138E497011201384D31
:1010F3009901120138FB99011201383C9A0112013E
:101103003827BA0212013875BA0212013881BA02BD
:101113001201385FBB0212013890BB02120138C1C1
:10112300BB0212013841BC0212013879BC02120120
:1011330038CBBC0212013808BD0212013825BF02A8
:101143001201384BC10212013836C3021201382092
:10115300C502120138B12B001201387BAF01120115
:1011630038ABAF0112013884B60112013809B80156
:1011730012013806BE01120138EEBE011201382BEE
:10118300BF011201384EBF011201387FBF011201A6
:101193003888BF0112013892BF0112013880C001A3
:1011A30012013876C1011201386C9A011201386BB1
:1011B3009E01120138719E01120138ACA501120182
:1011C30038C5AA0112013819D303120138AFD3036A
:1011D300120138C5D3031201383BD403120138AFCF
:1011E300D403120138EDD40312013861D50312017F
:1011F30038DAD503120138E3D503120138EFD503EA
:1012030012013804D60312013842D60312013858AA
:10121300D603120138B7D603120138EACA03120102
:1012230038F7CA0312013811CB0312013850CB032C
:101233001201388ECB03120138F3CB0312013808A5
:10124300CC0312013813CC0312013820CC03120152
:101253003837CC0312013845CC0312013850CC0384
:101263001201385CCC031201386BCC0312013876BF
:10127300CC0312013899CC0312013840CD0312017B
:101283003850CD031201386ACD0312013887CD03DC
:10129300120138A3CD03120138C8CD03120138D38C
:1012A300CD03120138E8CD03120138FCCD0312013E
:1012B300385DCE0312013863CE0312013869CE03C1
:1012C3001201386FCE0312013887CE03120138BAE8
:1012D300CE03120138FDAB0212013881AC021201B8
:1012E3003830AD021201388FAE02120138B0B002AD
:1012F3001201389CB102120138D1B102120138F344
:10130300B102120138A2B2021201389AB4021201D8
:1013130038C3B40212013855B50212013887B50239
:1013230012013894B502120138EBB50212013811DB
:10133300B6021201387EB80212013881B9021201D5
:1013430038D9B9021201388C9D02120138969E02D7
:101353001201387D9F02120138879F02120138A9BA
:101363009F02120138B59F021201384EA1021201E9
:10137300387DA10212013899A202120138F2A202A9
:1013830012013858A40212013837A502120138930A
:10139300A50212013800A6021201383BA60212016F
:1013A300387AA60212013833A9021201384DA90274
:1013B300120138D9A902120138E7A90212013840F3
:1013C300AA021201384EAA02120138C1AA0212015E
:1013D3003825AB021201386FAB02120138B5ED02AA
:1013E300120138D7ED02120138FDEF021201381253
:1013F300F3021201382AF402120138DDF402120159
:1014030038BFF502120138FBEF0312013820F00355
:1014130012013892F0031201380A920312013813B1
:1014230092031201381C9203120138F39203120142
:1014330038A49403120138DA940312013814950383
:101443001201384A9503120138849503120138B802
:101453009503120138E495031201382D9603120106
:1014630038679603120138B09603120138089703C0
:101473001201383D9703120138989703120138D2AD
:101483009703120138239803120138599803120164
:1014930038939803120138C19803120138E4980372
:1014A30012013857F90312013883F903120138DEA8
:1014B300F903120138E8F903120138F8F9031201AC
:1014C300385EFC031201388AFC03A2E792D650026D
:1014D300F40430F70663F0FF05F0B34003848003A0
:1014E30084F40430D60563F0FF05F022E066701043
:1014F30008A3E066700A08A3E066700408A3E06628
:1015030022C008C3E096F50808A3E096420808A3A2
:10151300E096420808A3E0964208A2D265D033E5DC
:10152300087001D3D00822C3E7960809E796080993
:10153300E7960809E79622C3E09608A3E09608A376
:10154300E09608A3E09622C008C3E096F50808A336
:10155300E096420808A3E096420808A3E0964508EF
:101563007001D3D00822080808EAC0E0EBC0E08687
:10157300F0E7A4FA180986F0E7A42AFA180986F016
:10158300E7A42AFA180986F0E7A42AFA1986F0E7ED
:10159300A4FBE5F02AFA190886F0E7A42BFBE5F093
:1015A3003AFA190886F0E7A42BFBE5F03AFA181883
:1015B3000986F0E7A4C5F02BFBE43AFA1908E7C55E
:1015C300F0C6A426F6E5F03BFBE43AFA1886F0E70A
:1015D300A4F6E5F00826F6E43B08F6E43A08F6D06C
:1015E300E0FBD0E0FA22E4CFC0E0E4CEC0E0E4CDFB
:1015F300C0E0E4CCC0E075F020C3E633F608E63380
:10160300F608E633F608E633F6181818EC33FCED63
:1016130033FDEE33FEEF33FFC3EC9709ED9709EE8D
:101623009709EF97191919400FFFEC97FC09ED97EC
:10163300FD09EE97FE191906D5F0BEECF709EDF793
:1016430009EEF709EFF7191919D0E0FCD0E0FDD046
:10165300E0FED0E0FF221216C11818181215E91285
:1016630016B0191919221216B0191919080808E623
:1016730018181820E7E01215E91216C118181822D5
:10168300090909E719191920E7DC080808E61818F9
:101693001820E7030215E91216C11818181215E9E4
:1016A3001216C11818181216B019191922E4C39783
:1016B300F709E497F709E497F709E497F722E4C3F6
:1016C30096F608E496F608E496F608E496F62260A1
:1016D30016080808C6C313C618C613C618C613C609
:1016E30018C613C6D5E0EA22700908080822601656
:1016F300181818C6C333C608C633C608C633C60887
:10170300C633C6D5E0EA22E627F60809E637F60827
:1017130009E637F60809E637F622E026F608A3E0DD
:1017230036F608A3E036F608A3E036F622E026F004
:1017330008A3E036F008A3E036F008A3E036F02271
:10174300C3E697F60809E697F60809E697F6080947
:10175300E697F622C3E0C696F608A3E0C696F60817
:10176300A3E0C696F608A3E0C696F622C3E096F079
:1017730008A3E096F008A3E096F008A3E096F02211
:10178300E657F60809E657F60809E657F60809E6A4
:1017930057F622E056F608A3E056F608A3E056F6FD
:1017A30008A3E056F622E056F008A3E056F008A39B
:1017B300E056F008A3E056F022E046F008A3E04626
:1017C300F008A3E046F008A3E046F022E0F608A301
:1017D300E0F608A3E0F608A3E0F622E6F008A3E6A5
:1017E300F008A3E6F008A3E6F022E0FAA3E0FBA3E7
:1017F300E0FCA3E0FD22EAF0A3EBF0A3ECF0A3ED01
:10180300F022CAC0E0E6F0A308DAFAD0E0FA22CA6E
:10181300C0E0E0A3C582CCC582C583CDC583F0A358
:10182300C582CCC582C583CDC583DAE6D0E0CA22A2
:10183300C3E498F8E499F91218748026C3E49AFA79
:10184300E49BFBE920E7E9121874E498F8E499F9BA
:1018530022C3E498F8E499F9121874E498F8E49927
:10186300F9C3E49AFAE49BFB22EB20E7CFE920E7F4
:10187300E0B90010BB0008E88AF084F8AAF022E47B
:10188300FBC8FA22EB70227B10C833C8C933C933B3
:101893005007C39AC3DBF280069A50012ADBEAC8D9
:1018A30033F4C8C933F4C9FA2275F008E4C833C85D
:1018B300C933C933C99AC99B5004C92AC93BD5F056
:1018C300ECFBC833F4C8E4C9FA22600D08C6A2E7EA
:1018D30013C618C613C6D5E0F322600C08C6C3139B
:1018E300C618C613C6D5E0F422700422600D18C6CC
:1018F300C333C608C633C6D5E0F41822251810AF83
:1019030008F518400215198008F51840021519D278
:10191300AF22C0D0251810AF08F518500205198062
:1019230008F51850020519D2AFD0D0222518F58238
:1019330010AF08F518400215198008F51840021574
:1019430019D2AF851983222518F582E43519F58359
:1019530022E4732518C582C0E0E51934FFC583C0AE
:10196300E0E518C3958224F810AF088583198582B2
:10197300188008858319858218D2AFCEF0A3E5209D
:10198300F0A37808E608F0A3DEFAEFF0A3E58124DC
:10199300FAF8E608F0A3E608F0A3E608F0A30808BF
:1019A300E608F0A3E608F0A315811581D0E0FED088
:1019B300E0F8158115811581E8C0E0EEC0E022252D
:1019C30018C582C0E0E51934FFC583C0E0E518C33C
:1019D300958224F910AF08858319858218800885BC
:1019E3008319858218D2AFCEF0A3E520F0A378083F
:1019F300E608F0A3DEFAEFF0A3E58124FBF8E6089E
:101A0300F0A3E608F0A30808E608F0A3E608F0A3AD
:101A130015811581D0E0FED0E0F815811581E8C06D
:101A2300E0EEC0E022851983851882E0A3FEE0A3DF
:101A3300F5207808E0A3F608DFFAE0A3FFE0A3C0EF
:101A4300E0E0A3C0E0E0A3C0E0E0A3C0E0E0A3C007
:101A5300E010AF0885821885831980088582188570
:101A63008319D2AFD083D0820201358519838518BB
:101A730082E0A3FEE0A3F5207808E0A3F608DFFAEE
:101A8300E0A3FFE0A3C0E0E0A3C0E0E0A3C0E0E088
:101A9300A3C0E010AF08858218858319800885826A
:101AA30018858319D2AFD083D08222C0D02518C520
:101AB30082C0E0E51934FFC583C0E0E518C3958211
:101AC30024F310AF0885831985821880088583194C
:101AD300858218D2AFC8F0A3E9F0A3EAF0A3EBF034
:101AE300A37908E709F0A3D8FAECF0A3EDF0A3EE8D
:101AF300F0A3EFF0A3D0E0F0A3D0E0F0A3D0E0F0A8
:101B0300A3E520F0A3E5F0F0A322851983851882CD
:101B1300E0C0E0A3E0F9A3E0FAA3E0FBA37808E0C8
:101B2300F608A3DFFAE0FCA3E0FDA3E0FEA3E0FFD9
:101B3300A3E0C0E0A3E0C0E0A3E0F5D0A3E0F5207C
:101B4300A3E0A3F5F010AF088583198582188008F8
:101B5300858319858218D2AFD082D083D0E0F8D0A4
:101B6300E03274048006740280027401C0E0F4045D
:101B730012192FD0E0121805227404800474028015
:101B830000CCC0E0EDC0E0E518C39CCCAD1950011A
:101B93001D10AF068C188D1980068C188D19D2AFC5
:101BA300121812D0E0FDD0E0FC22D083D082E9C02D
:101BB300E0E493A3C386F0C5F095F0F908E493A39A
:101BC30086F0C5F095F0700BE493A3C3994005E943
:101BD300048002A3E475F002A42582F582E5F035C2
:101BE30083F583D0E0F9E493A3C0E0E493C0E0225B
:101BF300D083D082CCC0E0E493A36006121C1D14F2
:101C030070FAE493A36006121C3C1470FAD0E0FC53
:101C1300E493A3C0E0E493C0E022C0E0E493A3D341
:101C23009C5010E493A3C39C400AD0E0D0E0D0E0E2
:101C3300021C10A3A3A3D0E022C0E0E493A36C7022
:101C430009D0E0D0E0D0E0021C10A3A3D0E022D062
:101C530083D082ECC0E0EDC0E0E493A3FCE493A363
:101C6300FDED4C600D121C9EEC24FFFCED34FFFDDA
:101C730080EFE493A3FCE493A3FDED4C600D121CF1
:101C8300DDEC24FFFCED34FFFD80EFD0E0FDD0E080
:101C9300FCE493A3C0E0E493C0E022C0E0C3E49378
:101CA30096087401939618400FE4936670080874BD
:101CB3000193661870007019A3A3C3E49396087484
:101CC30001939618A3A3400DD0E0D0E0D0E0021C0E
:101CD3008EA3A3A3A3A3A3D0E022C0E0C0F088F007
:101CE300E4936670080874019366187000A8F0A363
:101CF300A3700BD0F0D0E0D0E0D0E0021C8EA3A301
:101D0300D0F0D0E022C2AF02000022C0E074F21291
:101D13001AAEA2AFE433FED2AFE589A2E04006E5F6
:101D230089A2E150031207A7758900758900C2C50E
:101D3300751A00EEF8EEA2E092AF7F01021B0DC010
:101D4300E0C0D0E8C0E0E9C0E0A2AFE433F8D2AF2E
:101D5300C2C7751A00E8F9E8A2E092AFD0E0F9D063
:101D6300E0F8D0D0D0E03274F51219C2EAFEEBFFEE
:101D7300EE2434F8EF3400F988088909EE2435F5A8
:101D830082EF3400F583E0F8EE2437F582EF340078
:101D9300F583E0F50AEC850AF0A4FCAAF0850AF0C5
:101DA300EDA42AFDE82CF8E43DF97A257B0012180E
:101DB30074EA850882850983F0F8740758F9740179
:101DC300B900028004C333D9FCFAE8131313541F78
:101DD300F8EE28F8EF3400F9E8245DF582E93400E1
:101DE300F583E05A6008EE2434F582EF802CEE246C
:101DF30034F582EF3400F583E0C0E0EE2436F5825B
:101E0300EF3400F583E0F5F0D0E084A8F0EE28F895
:101E1300EF3400F9E82438F582E93400F583E0F97A
:101E23007F04021A6E74F51219C2EAFEEBFFEE2468
:101E330034F582EF3400F583E0C0E0EE2435F5821B
:101E4300EF3400F583D0E0F08E828F83A3A3A3A3A6
:101E5300A3A3A3C082C0838E828F83A3A3A3A3A3C0
:101E6300E0F8A3E0F9D083D082E0C398F508A3E0BB
:101E730099F509EE247FF582EF3400F583E06401E0
:101E83007069EE2480F582EF3400F583E0F8A3E077
:101E9300F98E828F83A3A3A3A3A3A3A3E0FCA3E050
:101EA300FD8E828F83A3A3A3A3A3E0FAA3E0FBC3C6
:101EB300EA9CEB9D5010C3EC98ED99402EC3EA9831
:101EC300EB995027800EC3EA98EB994007C3EC982F
:101ED300ED9940177CBF7D07EEFAEFFB1210B3EECE
:101EE300247FF582EF3400F583E4F0EE2434F8EF39
:101EF3003400F9E8FCE9FDEE2435F582EF3400F512
:101F030083E0F8EE2437F582EF3400F583E0F50A39
:101F1300E508850AF0A4F508AAF0850AF0E509A406
:101F23002AF509E82508F8E43509F97A257B001232
:101F33001874EA8C828D83F0F8740758F97401B928
:101F430000028004C333D9FCFAE8131313541FF8B7
:101F5300EE28F8EF3400F9E8245DF582E93400F562
:101F630083E05A6008EE2434F582EF802CEE2434AB
:101F7300F582EF3400F583E0C0E0EE2436F582EF1E
:101F83003400F583E0F5F0D0E084A8F0EE28F8EF14
:101F93003400F9E82438F582E93400F583E0F912D6
:101FA3002BA3021E23C082C083851882851983E078
:101FB300F8A3E0F9C3EA9CEB9D5010C3EC98ED99AC
:101FC300401BC3EA98EB995014800EC3EA98EB992F
:101FD3004007C3EC98ED994004790180027900D061
:101FE30083D08222EAC39CFAEB9DFB2274EF121981
:101FF300C2900685E064086005E06407702A90617A
:10200300C8E060249006B3E0F4601DE0F875F003C7
:10201300A4C8AAF02AF974B528FE740639FF8E8283
:102023008F83A3A3A3E0700302211F906060E0C02D
:10203300E0EE2468F582EF3400F583D0E0F0750C10
:1020430028750D08750800750900E5D914F50AE52A
:10205300D95403F50E60177403650E605CE50A60DE
:1020630010EE2467F582EF3400F583E0700302215C
:1020730004900823E06401602AEE2482F582EF34A1
:1020830000F583E06004780480027800850A08E59F
:1020930008C398FA95E0FB120F818A088B09EA4579
:1020A3000970051212B78074EE2482F582EF3400B2
:1020B300F583E070048A0C8B0DE50A6012850C82AF
:1020C300850D83F50BE5D9F0A3150BE50B70F6EE43
:1020D3002482F582EF3400F583E0604474FC250A22
:1020E300F50A780C121B69AC0AA90EEEFAEFFB1283
:1020F300114F7402121915E97026AA08AB091208C8
:1021030007793D8E828F83A3A3A3A3E0FA7B0012FA
:102113000E55EEFAEFFB1210CB12116179008074A9
:102123007403650E6056850A107511007810121B32
:1021330069AC0CAD0DAA08AB0912112B740212196C
:1021430015EE2468F582EF3400F583E064807004B3
:10215300747F8001E0F50C780C121B6DE50EF50C15
:10216300780C121B6DA90AAC08AD099006B3E0FA0E
:102173007B00120E1974021219158013900685E064
:102183006408600BAC0CAD0DEEFAEFFB1211BB1241
:1021930012C379017F0A021A6E74F51219C274FC14
:1021A3001218FFEAFEEBFF8908A2AFE433F509C278
:1021B300AF806AEE2463F8EF3400F97A007B00A263
:1021C300AFE433F50AC2AF88828983E0FCA3E0FD64
:1021D300EC4D603A88828983E0FAA3E0FB8A828B24
:1021E30083E0FCA3E0FD88828983ECF0A3EDF08A11
:1021F300828B83E4F0A3F088828983E0FCA3E0FD73
:10220300EC4D700A88828983A3A3E4F0A3F0E50A66
:10221300A2E092AF1208079007C6E004F0EE246331
:10222300F582EF3400F583E0F8A3E0F9E849603D77
:10223300EE2463F582EF3400F583E02402FAA3E091
:102243003400FBEA2402F50AEB3400F50B780A129A
:102253001B698A828B83E0FCA3E0F9EEFAEFFB12A1
:1022630010EF7402121915E970030221B69007C624
:10227300E060639007C7E0F89007C6E0C398500C8E
:102283007402650870509007C8E0604A8E828F839D
:10229300A3A3A3A3E0851882851983F0A3E4F09098
:1022A30007C6E0F8740212194AE8F0A3E4F09007B5
:1022B300C6E0F89007C5E028F0740212194AAC8210
:1022C300AD83851882851983AA82AB837901120EA7
:1022D300259007C6E4F0E509A2E092AF7404121951
:1022E30015021E23008521878522C622C0E0C0D0A7
:1022F300E8C0E0E9C0E0EAC0E0EBC0E0ECC0E0ED3C
:10230300C0E0EEC0E0C008C009C00AC00BC082C074
:1023130083C0F0A2AFE433FEC2AF759B009061822D
:10232300E0A2E05012E591A2E0500C7591FE740119
:1023330065217003121FEFE0A2E55051E591A2E57C
:10234300504B7591DF900685E064076005E06408F3
:10235300702374016521703579019006B3E0FA7535
:10236300F003A4CAA8F028FB74B52AFA74063BFB51
:1023730012219C8018E0640D70139006A7E004F00E
:1023830064287002E4F07A00E0F91212C9906182C5
:10239300E0A2E64003022436E591A2E640030224CC
:1023A300367591BF900685E0640570081211F1122D
:1023B30011FD80031211F7752100121257E99006DF
:1023C30086F0790012124B1210297A017B009006D5
:1023D30084E0F9120495907803E064427055900804
:1023E30027E014F0704DC2AF1223EE00782AD0E03C
:1023F300F618D0E0F6E59F540770057509FF8003D2
:1024030075097FC4C0E07829E6F50808E65509F5A3
:1024130009740B78081218DDD0E02508F890627073
:10242300E0A2E740F8E8C333906272F0906270E094
:10243300D2E0F0906181E0A2E35009E5E9A2E35024
:102443000375E9F7A3E0A2E75009E591A2E750037A
:1024530075917FEEA2E092AFD0F0D083D082D00B03
:10246300D00AD009D008D0E0FED0E0FDD0E0FCD007
:10247300E0FBD0E0FAD0E0F9D0E0F8D0D0D0E03201
:10248300C0E0C0D0C082C083906183E0A2E0500965
:10249300E5BFA2E0500375BFFEE0A2E15009E5BF2E
:1024A300A2E1500375BFFDE0A2E25009E5BFA2E23D
:1024B300500375BFFBE0A2E35009E5BFA2E350035D
:1024C30075BFF7E0A2E45009E5BFA2E4500375BF6E
:1024D300EFE0A2E55009E5BFA2E5500375BFDFE0D9
:1024E300A2E65009E5BFA2E6500375BFBFD083D073
:1024F300828088C0E0C0D0E8C0E0E9C0E0EAC0E084
:10250300EBC0E0ECC0E0EDC0E0C0F0E5A7A2E65010
:102513000FE5A1A2E6500953A7BF75A1BF12255B22
:10252300E5A7A2E5500CE5A1A2E5500653A7DF7588
:10253300A1DFE5A7A2E15009E5A1A2E1500375A13E
:10254300FDE5A7A2E2500CE5A1A2E2500653A7FBCA
:1025530075A1FBD0F002246C74F81219C275210125
:10256300900685E06406701512117F8A828B83A31F
:10257300A3A3A3A3A3E0FAA3E0FB1211DFA2AFE49A
:1025830033FED2AF90068BE0640170187A207B0093
:10259300900684E0F91205437A207B00900684E0DC
:1025A300F912049B906182E0D2E6F0900824E06087
:1025B3002185C622801690068AE064017008E5C66C
:1025C30054F84405F5C653BEFC1222E87401652194
:1025D30060E4EEA2E092AF7F01021A6E008E238FB9
:1025E30024858228858327851882851983E0CEA3D5
:1025F300E0CF852882852783EBC9EAC8EDCBECCAF7
:1026030075F010C3E833C8E933C9EA33CAEB33CBF7
:10261300C3EA9EF526EB9FF525B35004AB25AA2606
:10262300EC33CCED33CDD5F0DAAE23AF242274E90D
:102633001219C274F81218FF851882851983ECF0F9
:10264300A3EDF08A088B09900685E024F7C394056F
:1026530050067508010227C812117F8A0A8B0BAE38
:102663000AAF0BEE4F70030227C5AC08AD09740225
:1026730012194AAA82AB8312120F8E828F83A3A3ED
:10268300750CFF750DFF750EFF750F00780C121793
:1026930096740212194A7510FF7511FF7512FF75B2
:1026A30013007810121796780C791012152A502AF5
:1026B300780C79101217437508017509C8750A005B
:1026C300750B007808790C12152A5052850C088571
:1026D3000D09850E0A850F0B80507514017515C8F9
:1026E30075160075170085100885110985120A856E
:1026F300130B7808790C1217437814790812152AEA
:10270300401C750800750900750A00750B017808EF
:1027130079101217437808790C12170A800C750880
:1027230001750900750A00750B0074097808121603
:10273300EB750C19F50DF50EF50F7808790C1215DC
:10274300E98E828F83A3A3A3A3A3A3E0F8A3E0F955
:102753007AD07B03121874880C890DE4F50EF50FFB
:102763007808790C12170A740612194AE0F8A3E0E4
:10277300F97AD07B03121874E8FA8A0CE4F50D7821
:1027830008790C12152A50077808790C1217439010
:102793000685E06408600AE064066005E06405708D
:1027A3002D750C0D780C790812152A4021750CF43F
:1027B300750DFF750EFF750FFF7808790C12170A58
:1027C300800C750800750900750A00750B008518E3
:1027D30082851983E0F8A3E0F583888278081217CD
:1027E300DE74081219157F10021A6E74F71219C2DB
:1027F300121221900822E064017010906245E4F007
:10280300A3F053F4F343FE0C5390F31211CDE5C63A
:1028130054804449F5C6E59E547F644970F890613D
:1028230085740FF0900820E0F47002A3E0604E90EE
:102833000821E0600814601B14602E8040750801B5
:10284300750900900820E078081218ECE508F452A6
:1028530080802A750801750900900820E078081225
:1028630018ECE508F452908014750801750900907E
:102873000820E078081218ECE508F452A079007FEC
:1028830002021A6E74F71219C2E9FEEAFF74016EAE
:10289300700C7A807B00900684E0F9120495902BEB
:1028A300B4E493F46008E493F912101D800953C64D
:1028B30080E59E547F70FA1211D3900822E06401E0
:1028C3007003121035900820E0F47002A3E0604B0F
:1028D300900821E0600814601A14602C803D75088C
:1028E30001750900900820E078081218ECE5084209
:1028F300808028750801750900900820E078081287
:1029030018ECE508429080137508017509009008DA
:1029130020E078081218ECE50842A01212211211E7
:102923007F8A088B09A808A909E8496015E5E170C1
:10293300FCE82414F582E93400F583E0F46003E055
:10294300F5E174016F700A7A01900684E0F91205CB
:102953001302288274ED1219C28A088B098C0A8D1E
:102963000B741312194A780C1217CF7808790C12CA
:10297300152A7510017511C87512007513005012D0
:102983007808790C1217437810790812152A501613
:102993008010780C79081217437810790C12152AD5
:1029A30040047901800279007F0C021A6E74ED12E3
:1029B30019C28A088B098C0A8D0B741312194A7871
:1029C3000C1217CF780C790812152A401178087960
:1029D3000C121743AA08AB09AC0AAD0B8022751081
:1029E300007511007512007513017810790C121718
:1029F300437810790812170AAA10AB11AC12AD1361
:102A030080A68A828B837508FF7509FF750AFF7597
:102A13000B0078081217A97F04021A6E74F51219B5
:102A2300C28C828D8378081217CF8A828B837808B1
:102A330012176FEA2404F8EB3400F98C828D83A318
:102A4300A3A3A3E0FCA3E0FD88828983C3E09CF0F9
:102A5300A3E09DF088828983C3E09420A3E0944E91
:102A630040268A828B837508FF7509FF750AFF75F7
:102A73000BFF78081217308A828B83A3A3A3A3E0EA
:102A83002420F0A3E0344EF0022A0574F51219C293
:102A9300E9FE9007DAE0FAA3E0FBEEC333F8E43390
:102AA300F9742228F582748139F583E02AF508A3A5
:102AB300E03BF5097808121B697A407B427C0F7D65
:102AC300001225E074021219158A088B098C0A8DED
:102AD3000B741078081216D2AA08AB097F04021AE5
:102AE3006E74F11219C28A0C8B0D8C0E8D0F740F3C
:102AF30012194AE0FAA3E0FB741112194AE0F5082F
:102B0300A3E0F5097808121B69EA2401F508EB3400
:102B130000F509E4F50AF50B780C790812156975C7
:102B23000871750902780C7908121569AA0CAB0DA6
:102B3300AC0EAD0F1225E074021219158B09EA458C
:102B43000960047A0180027A00EC2AFCED3400FD6E
:102B5300741312194AE0F8A3E0F9E8FEE9FFECF870
:102B6300EDF97A717B02121874880889098E828FB5
:102B73008378081217DEECF8EDF97A717B021218EC
:102B8300748A088B09740578081218EC8E828F8377
:102B9300A3A3A3A3E508F0A3E509F07F08021A6E37
:102BA300C082C083E9906000F0D083D0822202010A
:102BB30035FFFFFFFFFFFFFFFF74EE12195674FA94
:102BC3001218FF8A0A8B0B8909ECFEEDFF750800CA
:102BD300850A0C850B0D780C121BAD000410952E85
:102BE300052C262C452C662C872CA82CDB2CFC2CA6
:102BF300132D412DFF2D202E402E6A2E952E952E1E
:102C03006C2D7401650970158E828F83E0C3940364
:102C1300500B8E828F83E0900BDAF08003750818D7
:102C2300022EBE7402650970138E828F83E0F8A3AF
:102C3300E0F9900BDBE8F0A3E9F0800375081802D4
:102C43002EBE7401650970158E828F83E0C39402D2
:102C5300500B8E828F83E0900361F0800375081818
:102C6300022EBE7401650970158E828F83E0C394B2
:102C730005500B8E828F83E0900362F0800375080A
:102C830018022EBE7401650970158E828F83E0C30E
:102C93009402500B8E828F83E0900363F080037560
:102CA3000818022EBE741065097027750C10750D77
:102CB30000780C121B69EEFCEFFD7A647B031204AF
:102CC3004174021219158A0C8B0D850C82850D83B4
:102CD3008003750818022EBE7401650970158E8273
:102CE3008F83E0C39402500B8E828F83E090037432
:102CF300F08003750818022EBE74016509700B8EEF
:102D0300828F83E0900BDEF08003750818022EBEDD
:102D13007404650970229081E4780C1217CF8E82B7
:102D23008F83780C12153A500F8E828F831217ED12
:102D33009003761217F98003750818022EBEE50971
:102D43007021120B91E970131206E7E9F50C795023
:102D5300120897E9F50D1206D5800B90040974014A
:102D6300F08003750818022EBE740765096003021C
:102D73002DF9750E06750F00780E121B698E828F62
:102D830083A3AC82AD83740212194AAA82AB831265
:102D9300044774021219158A108B1185100E8511C0
:102DA3000F7C007D00851882851983AA82AB838EF0
:102DB300828F83E0F9120675E9F50CE50CC3940ADA
:102DC300502F120B91E97015A90C1206EDE9F50DC0
:102DD3007950120897E9F50E1206D5801C750D007F
:102DE300740A250CF5827404350DF5837401F080A3
:102DF300087508028003750818022EBE7401650960
:102E030070158E828F83E0C39402500B8E828F8362
:102E1300E0900375F08003750818022EBE740165F7
:102E23000970158E828F83E0C3940A500B8E828FB4
:102E330083E0900BDDF08003750818807E740165D4
:102E430009701F8E828F83E0C3940740158E828F93
:102E530083E0C39411500B8E828F83E0900BDFF0DD
:102E6300805975081880547401650970209004080E
:102E7300E0F50C8E828F83E0900408F0E50C703B44
:102E8300900408E0640170331206D5802E7508188B
:102E93008029C3E50A9427E50B9400501B7402654F
:102EA3000970158E828F83E0FCA3E0FDAA0AAB0BA9
:102EB300120A2FE9F5088003750802A9087406129F
:102EC30019157F0A021A2874EC12195674DA1218AB
:102ED300FF890D8A128B138C0A8D0B743A12194ACF
:102EE300E0F50C908178C082C083851882851983B0
:102EF300AC82AD83D083D0827406121812851882F7
:102F0300851983AC82AD83AA12AB13A90D12067582
:102F1300E9FEEEC3940A4003023069EEF91206B7E4
:102F2300E9FF900BDAE0640270047401800274001C
:102F3300F5087808121B6DAD0CEFFCEEF9AA0AAB8D
:102F43000B12072974011219157C147D0079007482
:102F53001212194AAA82AB831204598A0E8B0F8567
:102F63000E08850F09741212194AAC82AD837A10C8
:102F730075F006EEA42424F9120891E970437C103D
:102F830079FF741212194AAA82AB831204B9E97049
:102F930030742212194AAC82AD837A0475F006EEBE
:102FA300A42425F9120891E9F508741212194AAC00
:102FB30082AD83EFA2E0E433F9AA0AAB0B120AB99C
:102FC300E9740612194AAC82AD837A0C74702EF937
:102FD300120891E9707E740612194AAA82AB831211
:102FE30006AB750E00E50EC394045068E50EA80EFB
:102FF3007900E875F003A4C8AAF075F000A42AFAD2
:1030030075F003E9A42AF9740612194AE58228F532
:1030130008E58339F509850882850983E0F8A3E08B
:10302300F9E849602B850882850983A3A3E0F5109D
:103033007511007810121B69850882850983E0FCED
:10304300A3E0FDAA0AAB0B120D6B7402121915E96A
:10305300050E8091EFA2E1500D900360E0F9AA0AFA
:10306300AB0B120D71E97404650C700F900BDAE071
:1030730064027007AA0AAB0B1207237900742612A5
:1030830019157F0C021A2874F2121956890BEAFEDD
:10309300EBFF8C088D09750A0AE50B600C146009B7
:1030A30014604414606402312EEEFAEFFB1206C979
:1030B300E9F50AE50AC3940A5071E5084509606B0E
:1030C300750C06750D00780C121B69EEFCEFFDAA5A
:1030D30008AB0912044174021219158A0C8B0D8571
:1030E3000C82850D838044EEFAEFFB1206C3E9F5EB
:1030F3000AE50AC3940A5033E5084509602DAA0876
:10310300AB09A90A1206BDE98021EEFAEFFB12060C
:10311300CFE9F50AE50AC3940A5010E508450960AA
:103123000AAA08AB09A90A1206BDE9A90A7F060281
:103133001A2874F21219568A0C8B0DE9FE7F157446
:10314300FF650C700474FF650D702A750800E508AF
:10315300C3940A5014EEFC7A027B00A90812069964
:10316300E960027F00050880E5EE60637A117B0762
:10317300120F63805AAA0CAB0D120F458A0A8B0BF0
:10318300850A08850B09E508450960417C007D0037
:10319300E5082405FAE5093400FB850882850983DF
:1031A300A3A3A3A3E0F9120675E9F50AE50AC394FC
:1031B3000A500EEEFC7A027B00A90A120699E97FF7
:1031C30000EE600BAA08AB0912071180027F14EF0F
:1031D300F97F06021A2874EE1219568A0E8B0F8C89
:1031E3000A8D0B741212194AE0F50CA3E0F50D7564
:1031F300081574FF650E700474FF650F701E7E0062
:10320300EEC3940A5062AC0CAD0DAA0AAB0BEEF9F7
:1032130012069FE960037508000E80E4AA0EAB0F47
:10322300120F458A108B11AE10AF11EE4F60367C32
:10323300007D00EE2405FAEF3400FB8E828F83A31A
:10324300A3A3A3E0F9120675E9F509E509C3940AF6
:103253005016AC0CAD0DAA0AAB0BA90912069FE9D7
:103263007508008003750814A9087F0A021A2874D8
:10327300F7121956EAFEEBFF90037AEEF0A3EFF094
:10328300900360E0FC7D007A267B00120A2FE9F5AB
:1032930008900360E0F9120CED7F01021A2874EE26
:1032A3001219568A108B11E9FE741212194A780CFE
:1032B3001217CF7F00EE7041850C08850D09850E2E
:1032C3000A850F0B9081E4780C1217CF7808790CDC
:1032D3001215E97810121B69AA0CAB0DAC0EAD0FD9
:1032E300120ACB7402121915E9FFEF60167901AACD
:1032F30010AB11120AC5E9800AEEF9AA10AB11123C
:103303000AC5E9EFF97F0A021A2874F212195674F2
:10331300EC1218FF8A0A8B0B850A82850B83A3A301
:10332300E024FA700302376D24FD70030235E314C1
:10333300700302340014601024FD700302358B14F3
:1033430070030236230237DBAE0AAF0B90037AE039
:10335300F8A3E0F9E849606990037AE0F8A3E0F59F
:10336300838882E0F8A3E0F9E8496055EE240CF580
:1033730082EF3400F583E0F5087808121B6DEE2424
:103383000BF582EF3400F583E0F98E828F83A3A3DC
:10339300A3A3A3A3A3A3A3E0FCA3E0FDEE2403FA4A
:1033A300EF3400FB90037AE0F8A3E0F5838882E032
:1033B300F8A3E0F583888212195474011219158059
:1033C300398E828F83A3A3A3A3A3A3A3A3A3121BB7
:1033D300809003761217ED120ACB7402121915E9C5
:1033E300601879018E828F83A3A3A3A3A3A3A3A3AE
:1033F300A3E0FAA3E0FB120AC5E90237DBAE0AAF8A
:103403000B8E828F83A3E060030235398E828F8314
:10341300A3A3A3A3A3E0A2E04003023539900414BD
:10342300E0F8A3E0F9E84960030235397C0E7D003A
:103433007900851882851983AA82AB831204598A7D
:10344300088B09AA08AB09EE240CF582EF3400F5CA
:1034530083E0F8A3E0F9E849603B750806750900C5
:103463007808121B69EE240CF582EF3400F583E033
:103473002410FCA3E03400FD740212194AAA82ABA3
:103483008312044174021219158A088B0985088274
:1034930085098380548E828F83A3A3A3E0FAA3E0DC
:1034A300FB120F458A0C8B0D850C08850D09E50869
:1034B30045096032750C06750D00780C121B69E521
:1034C300082405FCE5093400FD740212194AAA8296
:1034D300AB8312044174021219158A0C8B0D850CEF
:1034E30082850D8380030237DB8E828F83A3A3A3A0
:1034F300A3A3E0A2E25004D2F08002C2F0A2F0E45F
:1035030033F87900740C12194AE048F0A3E049F04B
:10351300EEFCEFFD851882851983AA82AB83120620
:10352300B1E970127A027B00900360E0F91204950E
:10353300E979000237DD90037AE0F8A3E0F9E8497E
:10354300604390037AE0F8A3E0F5838882A3A3E0C5
:10355300F8A3E0F9E849602D8E828F83A3E0FC791C
:10356300018E828F83A3A3A3E0FAA3E0FB90037AE7
:10357300E0F8A3E0F5838882A3A3E0F8A3E0F58352
:1035830088821219540237DBAE0AAF0B90037AE03C
:10359300F8A3E0F9E849604590037AE0F8A3E0F581
:1035A300838882A3A3E0F8A3E0F9E849602F850AA2
:1035B30082850B83A3E0FC79028E828F83A3A3A36E
:1035C300E0FAA3E0FB90037AE0F8A3E0F5838882B6
:1035D300A3A3E0F8A3E0F58388821219540237DB32
:1035E300AE0AAF0B7C007D00EE2404FAEF3400FB3F
:1035F3008E828F83A3A3A3E0F9120675E9F508E58C
:1036030008C3940A5017EE240AFCEF3400FD7A0431
:1036130075F006E508A42425F912088BE90237DBC7
:10362300AE0AAF0B900375E06018900BDDE0F98EE6
:10363300828F83A3A3A3E0FAA3E0FB120AC5E902E6
:1036430037DB900BDAE0701579058E828F83A3A3A5
:10365300A3E0FAA3E0FB120AC5E90237DB8E828FEF
:1036630083A3A3A3E0FAA3E0FB120F458A0C8B0DFF
:10367300850C08850D098E828F83A3A3A3A3A3A31F
:10368300A3E0A2E05075E5084509606C85088285D2
:103693000983A3A3A3A3E060628E828F83A3A3A362
:1036A300A3A3A3A3A3A3E0F8A3E0F9E8C4540FF8EA
:1036B30079005401F8E95400F9E8A2E0403D740EA2
:1036C30012194AAC82AD83E5082405FAE5093400F2
:1036D300FB850882850983A3A3A3A3E0F9120675DA
:1036E300E9701879038E828F83A3A3A3E0FAA3E082
:1036F300FB120AC5E90237DB0237DBEE2405FCEFD8
:103703003400FD850882850983A3A3A3A3E0F98E72
:10371300828F83A3A3A3E0FAA3E0FB12071D900308
:103723007AE0F8A3E0F9E849603E90037AE0F8A371
:10373300E0F5838882A3A3E0F8A3E0F9E8496028D1
:103743007C0079008E828F83A3A3A3E0FAA3E0FB1E
:1037530090037AE0F8A3E0F5838882A3A3E0F8A3BB
:10376300E0F5838882121954806E120B91E9706818
:10377300900409E06401701A1206E7E9FE90040957
:103783007400F07C0A7D0079007A0A7B04120459E4
:10379300803C7E00EEC3940A50348E087509007491
:1037A3000A2508F58274043509F583E06401701B6A
:1037B300EEF91206EDE9F88E08750900740A25087A
:1037C300F58274043509F5837400F00E80C67950D0
:1037D300120897E9FE1206D5790174141219157FA0
:1037E30006021A2874F312195674F21218FF890983
:1037F300EAFEEBFF8C0C851882851983AC82AD83BE
:103803007A0E75F006E509A42420F9120891E970EF
:10381300727C0679FF851882851983AA82AB83128D
:1038230004B9E9705E740C12194AE0F8A3E0F9E8F0
:10383300F508E50C6005EE42088004EEF4520885B5
:10384300080A750B00740C12194AE0650A7004A388
:10385300E0650B602AE508A8087900740C12194A80
:10386300E508F0A3E9F0851882851983AC82AD835E
:103873007A0E75F006E509A42420F912088BE9797C
:103883000180027900740E1219157F05021A28743B
:10389300F012195674E61218FF890B8A0C8B0DEC83
:1038A300FEEDFF740C12194AAC82AD837A0E75F0EB
:1038B30006E50BA42420F9120891E960030239F606
:1038C3007C0679FF740C12194AAA82AB831204B9DD
:1038D300E960030239F6851882851983AC82AD83CA
:1038E3007A0C7470250BF9120891E960030239F21E
:1038F300750A00851882851983AA82AB831206ABE9
:10390300E50C450D703A7C0C790085188285198386
:10391300AA82AB831204B9E960030239CC7C0C7D23
:10392300007900851882851983AA82AB8312045912
:103933008A088B09850882850983750A010239CCB7
:10394300851882851983AC82AD83AA0CAB0D120650
:10395300A58A0E8B0F850E08850F09E508450970AA
:1039630036EE4F6021851882851983AC82AD837A48
:10397300007B001206A58A0E8B0FA80EA90F8808DC
:103983008909E84970047900806B85088285098379
:10399300E50CF0A3E50DF0850882850983A3A3E078
:1039A300F87900EE687002EF69601EEE8508828583
:1039B3000983A3A3F0EE4F700D85088285098374F4
:1039C30000F0A37400F0750A01E50A6022851882ED
:1039D300851983AA82AB831206AB85188285198366
:1039E300AC82AD837A0C7470250BF912088BE979DC
:1039F3000180027900741A1219157F08021A2874BB
:103A0300F7121956EAFEEBFF7B00EBC39404504E0A
:103A1300EBF87900E875F003A4C8AAF075F000A4E8
:103A23002AFA75F003E9A42AF9EC28F582ED39F5B1
:103A330083E06E7003A3E06F7021EBF87900E87503
:103A4300F003A4C8AAF075F000A42AFA75F003E9FC
:103A5300A42AF9EC28FAED39FB80070B80AC7A0035
:103A63007B007F01021A2874F71219567F00EFC3F7
:103A730094044003023B19EFF87900E875F003A4BE
:103A8300C8ACF075F000A42CFC75F003E9A42CF984
:103A9300EA28F582EB39F583E0F4FCA3E0F4FDEFCB
:103AA300F87900E875F003A4C8AEF075F000A42E11
:103AB300FE75F003E9A42EF9EA28F582EB39F583C4
:103AC300ECF0A3EDF0EFF87900E875F003A4C8ACCF
:103AD300F075F000A42CFC75F003E9A42CF9EA2896
:103AE300F582EB39F583A3A3E0F4C0E0EFF87900A6
:103AF300E875F003A4C8ACF075F000A42CFC75F0D5
:103B030003E9A42CF9EA28F582EB39F583A3A3D0C2
:103B1300E0F00F023A717F01021A2874F01219566D
:103B230074F41218FFEAFEEBFF8C088D099004145D
:103B3300E0F8A3E0F9E849702CEE4F6006E508458C
:103B43000970057901023DD6EEFAEFFB1206C9E9C9
:103B5300900BE0F0900BE0E0C3940A40081206DB00
:103B6300E9900BE0F0900BE0E0C3940A4003023DC0
:103B7300D4900414E0F8A3E0F9E8496003023C2080
:103B8300EEFCEFFD7A0E75F006900BE0E0A4242026
:103B9300F912088BE9F50C7C0C7D0079FF851882FE
:103BA300851983AA82AB831204598A0E8B0F850E63
:103BB3000A850F0B851882851983AC82AD837A0C35
:103BC300900BE0E02470F912088BE9F50D750E0EE9
:103BD300750F00780E121B69EEFCEFFD900BE0E011
:103BE300F87900E875F00EA4C8AAF075F000A42ACD
:103BF300FA75F00EE9A42AF9747C28FA740339FBE8
:103C030012044174021219158A0E8B0FA80EA90F04
:103C1300900414E508F0A3E509F0023DD0900414E4
:103C2300E0F8A3E0C82406F582E83400F583E0F861
:103C3300A3E0F9E8496043900414E0F8A3E0C82442
:103C430006F582E83400F583E0FCA3E0FD7A1B75FA
:103C5300F006900BE0E0A42421F912088BE9F89018
:103C63000414E0F9A3E0C92406F582E93400F583DE
:103C73007400F0A37400F0023DD0900414E0F8A3A4
:103C8300E0C8240AF582E83400F583E0F8A3E0F9FC
:103C9300E8496043900414E0F8A3E0C8240AF582DD
:103CA300E83400F583E0FCA3E0FD7A1B75F0069091
:103CB3000BE0E0A42422F912088BE9F8900414E045
:103CC300F9A3E0C9240AF582E93400F5837400F00E
:103CD300A37400F0023DD0900414E0F8A3E0C824DC
:103CE3000CF582E83400F583E0F8A3E0F9E84960D5
:103CF30043900414E0F8A3E0C8240CF582E83400F0
:103D0300F583E0FCA3E0FD7A1075F006900BE0E08C
:103D1300A42423F912088BE9F8900414E0F9A3E032
:103D2300C9240CF582E93400F5837400F0A3740010
:103D3300F0023DD0900414E0F8A3E0C82408F58213
:103D4300E83400F583E0F8A3E0F9E849606F9004F4
:103D530014E0F8A3E0C82408F582E83400F583E012
:103D6300FCA3E0FD7A1075F006900BE0E0A4242498
:103D7300F912088BE9F50A900414E0F8A3E0C824CB
:103D830008F582E83400F583E02410FCA3E0340056
:103D9300FD7A0475F006900BE0E0A42425F91208DF
:103DA3008BE9F8900414E0F9A3E0C92408F582E94B
:103DB3003400F5837400F0A37400F08010900408BD
:103DC300E0600312072F120717790180067900803C
:103DD300027901740C1219157F08021A2874F7125C
:103DE300195674F21218FFE9FE851882851983ACFF
:103DF30082AD837A0E75F006A42420F9120891E9A6
:103E0300700E740C12194AE0F8A3E0F9E8F9800285
:103E13007900740E1219157F01021A2874F412190D
:103E23005674F21218FF8909EAFEEBFFE509C39401
:103E33000A5004EE4F70047902804B85188285196D
:103E430083AC82AD837A0E75F006E509A42420F9CC
:103E5300120891E9F508E508702A750A06750B0042
:103E6300780A121B69740212194AAC82AD83EEFA06
:103E7300EFFB12044174021219158A0A8B0B850A8F
:103E830082850B83A908740E1219157F04021A2860
:103E930074F4121956EAFEEBFF750800E508C394A3
:103EA3000A5045750A06750B00780A121B69EEFC69
:103EB300EFFDE508A8087900E875F00EA4C8AAF09C
:103EC30075F000A42AFA75F00EE9A42AF974822881
:103ED300FA740339FB1204537402121915E96004CE
:103EE300A9088006050880B4790A7F04021A287499
:103EF300F4121956EAFEEBFF750800E508C3940AAD
:103F03005045750A06750B00780A121B69EEFCEF23
:103F1300FDE508A8087900E875F00EA4C8AAF075B5
:103F2300F000A42AFA75F00EE9A42AF9747C28FAA1
:103F3300740339FB1204537402121915E96004A9BE
:103F4300088006050880B4790A7F04021A2874F7EA
:103F530012195674F01218FFEAFEEBFF750800E51C
:103F630008C3940A504B851882851983AC82AD83AC
:103F73007A1075F006E508A42423F9120891E97074
:103F83002C7C1079FF851882851983AA82AB831252
:103F930004B9E97018EEFCEFFD851882851983AA30
:103FA30082AB83120A9BE97004A908800605088086
:103FB300AE790A74101219157F01021A2874F412CB
:103FC3001956750800E508C3940A40030240A2E5A8
:103FD30008A8087900E875F00EA4C8AAF075F000E7
:103FE300A42AFA75F00EE9A42AF9747C28FC740358
:103FF30039FD7A0E75F006E508A42420F91208911C
:10400300E9700302409D7C067D0079FFE508AA085C
:104013007B00EA75F00EA4CAA8F075F000A428F896
:1040230075F00EEBA428FB747C2AFA74033BFB1295
:1040330004598A0A8B0BAE0AAF0B7C067D0079FF0D
:10404300E508AA087B00EA75F00EA4CAA8F075F08B
:1040530000A428F875F00EEBA428FB74822AFA74E6
:10406300033BFB1204598A0A8B0BAC0AAD0BE50820
:10407300A8087900E875F00EA4C8AAF075F000A4AA
:104083002AFA75F00EE9A42AF9748828F5827403D4
:1040930039F5837400F0A37400F00508023FC8905B
:1040A3000408E0600312072F1207177F04021A287F
:1040B30074F71219567E00EEC3940A50327C0679C7
:1040C300FFEEFA7B00EA75F00EA4CAA8F075F000C3
:1040D300A428F875F00EEBA428FB747C2AFA740369
:1040E3003BFB1204B9E96004EEF980050E80C87940
:1040F3000A7F01021A2874F71219567E007F00EF17
:10410300C3940A502F7C0679FFEFFA7B00EA75F01F
:104113000EA4CAA8F075F000A428F875F00EEBA45D
:1041230028FB747C2AFA74033BFB1204B9E970017F
:104133000E0F80CBEEF97F01021A2874F71219567D
:104143007E007F00EFC3940A500DEE700AEFF91260
:1041530006EDE9FE0F80EDEEF97F01021A2874F0F7
:1041630012195674CB1218FF8909900BE0E0650908
:10417300701D7A017B00900360E0F912049BE97AD9
:10418300027B00900360E0F912049BE912073B7481
:104193002712194AAC82AD837A0E75F006E509A49D
:1041A3002420F9120891E960030242CD7C0679FFCD
:1041B300742712194AAA82AB831204B9E960030275
:1041C30042CD7C0E7D0079FF742712194AAA82AB77
:1041D300831204598A0A8B0B850A0C850B0D7C1BF1
:1041E3007D0079FF740C12194AAA82AB8312045919
:1041F3008A0E8B0F850E0A850F0B7C0C7D0079FFD1
:10420300851882851983AA82AB831204598A0E8B7F
:104213000FAE0EAF0F742712194AAC82AD837A0E1C
:1042230075F006E509A42420F912088BE9F5087452
:104233000C12194AAC82AD837A1B75F006E509A40A
:104243002421F912088BE94208740C12194AAC8232
:10425300AD837A1B75F006E509A42422F912088BB5
:10426300E94208740C12194AAC82AD837A1075F0D6
:1042730006E509A42423F912088BE94208740C12F9
:10428300194AAC82AD837A1075F006E509A424249B
:10429300F912088BE94208740C12194AAC82AD83F7
:1042A3007A0475F006E509A42425F912088BE9427E
:1042B30008851882851983AC82AD837A0C747025C6
:1042C30009F912088BE942088003750800A90874EC
:1042D300351219157F08021A2874F7121956E9FEC8
:1042E300900360F01206D57F01021A2874F21219A6
:1042F30056890AEAFEEBFFEE5400F8EF5480F9E822
:10430300496035900360E0F912047D8A0C8B0DA897
:104313000CA90D88088909E8496012AA08AB09129B
:1043230006FFE96008AA08AB0912046BE9EE640012
:10433300FAEF6480FB0243F3EE5402602D7C007DB0
:10434300007A007B001206B1E960187A017B0090C5
:104353000360E0F9120495E9EE6402FAEF6400FBEE
:104363000243F37A027B000243F3EEA2E0507D9016
:104373000414E0F8A3E0F5838882A3A3A3E0FAA3DF
:10438300E0FB120735E9605E90037AE0F8A3E0F9F9
:10439300E849604590037AE0F8A3E0F5838882A3B7
:1043A300A3E0F8A3E0F9E849602F7C0079019004C9
:1043B30014E0F8A3E0F5838882A3A3A3E0FAA3E0C3
:1043C300FB90037AE0F8A3E0F5838882A3A3E0F8E7
:1043D300A3E0F583888212195412073BEE6401FAB5
:1043E300EF6400FB800A7A017B0080047A007B0083
:1043F3007F06021A2874F7121956EAFEEBFF7508B6
:10440300018E828F83E02450601314601924E170BD
:104413001CEEFAEFFB120693E9F5088010EEFAEFB3
:10442300FB1207058007EEFAEFFB12070BA9087FC3
:1044330001021A2874F7121956EAFEEBFF8E828FD7
:1044430083A3A3A3A3E0641E701179008E828F83DC
:10445300A3A3E0FAA3E0FB12067BE97F01021A287B
:1044630074F6121956EAFEEBFF8E828F83A3A3A381
:10447300A3E0703A8E088F09850882850983A3A378
:10448300A3A3A3A3A3121B80850882850983A3A3E7
:10449300A3A3A3E0FCA3E0FD850882850983A3A36E
:1044A300E0FAA3E0FB1206817402121915E97F02F8
:1044B300021A2874F7121956EAFEEBFF900360E024
:1044C300F98E828F83A3E0FAA3E0FB120D71E97FDB
:1044D30001021A28C082C08374FF1218FF1206E17A
:1044E300E9C39402400B8518828519837402F08016
:1044F30009851882851983740AF0851882851983C2
:10450300AC82AD837A017905120BA9E97401121902
:1045130015D083D08202013574F212195674E81251
:1045230018FFEAFEEBFF890A8C088D097C187D00D1
:104533007900851882851983AA82AB831204598A6C
:104543000C8B0DAC0CAD0D851882851983EEF0A391
:10455300EFF0900362E0C0E0740212194AD0E0F079
:10456300900363E0C0E0740312194AD0E0F0900BAB
:10457300DFE0C0E0741712194AD0E0F07415121985
:104583004AE054FEF8A3E054FFF9900BDEE0A2E00A
:10459300E433FA7B00E84AF8E94BF9741512194A37
:1045A300E8F0A3E9F0900BDEE0A2E15004D2F08042
:1045B30002C2F0741512194AE054FDFAA3E054FF45
:1045C300FBA2F0E433F87900C333F8E933F9EA489E
:1045D300F8EB49F9741512194AE8F0A3E9F0900BC6
:1045E300DEE0A2E35004D2F08002C2F07415121987
:1045F3004AE054F7FAA3E054FFFBA2F0E433F50CCE
:10460300750D007403780C1218ECEA450CF8EB45B1
:104613000DF9741512194AE8F0A3E9F0900BDEE0E6
:10462300A2E45004D2F08002C2F0741512194AE0D9
:1046330054EFFAA3E054FFFBA2F0E433F50C750D3D
:10464300007404780C1218ECEA450CF8EB450DF9EC
:10465300741512194AE8F0A3E9F0900BDEE0A2E525
:104663005004D2F08002C2F0741512194AE054DFEC
:10467300FAA3E054FFFBA2F0E433F50C750D0074CC
:1046830005780C1218ECEA450CF8EB450DF9741596
:1046930012194AE8F0A3E9F0900BDEE0A2E250041D
:1046A300D2F08002C2F0741512194AE054FBFAA347
:1046B300E054FFFBA2F0E433F50C750D00740278AF
:1046C3000C1218ECEA450CF8EB450DF974151219A8
:1046D3004AE8F0A3E9F0900363E0602A750C1075D3
:1046E3000D00780C121B697C647D03740612194A51
:1046F300AA82AB8312044174021219158A0C8B0D22
:10470300850C82850D83900374E06012E50A600EC8
:10471300741512194AE04402F0A3E04400F0900338
:1047230074E06006780179008004780079007414DD
:1047330012194AE048F0900361E0600678047900BA
:10474300800478007900741412194AE048F0AC0828
:10475300AD09851882851983AA82AB83120ABFE942
:1047630074181219157F06021A2874F7121956EADB
:10477300FEEBFF750800900374E060067801790092
:10478300800478007900E84208900361E0600678CD
:10479300047900800478007900E84208A908EEFA59
:1047A300EFFB120B79E97F01021A2874EE121956F6
:1047B30074E51218FF8A0C8B0DE9FF8C088D0974C0
:1047C3002D12194AE0F50A74086509700A75F00696
:1047D300EFA42422FE800875F006EFA42421FE7CBA
:1047E3001B7D007900851882851983AA82AB831209
:1047F30004598A108B1185100E85110F8518828537
:104803001983AC82AD837A1BEEF9120891E9703CEF
:10481300741A12194AE0C394074031741A12194AE0
:10482300E0C394115026E50AF50B780B121B6D7447
:104833000112194AAC82AD83E508A2E0E433F9AA78
:104843000CAB0D120AD17401121915E9741B12195C
:10485300157F0A021A2874F7121956120DE3E97E1E
:1048630000EEC3940A50557C0679FFEEFA7B00EA0A
:1048730075F00EA4CAA8F075F000A428F875F00E20
:10488300EBA428FB747C2AFA74033BFB1204B9E9FA
:104893007027EEF87900E875F00EA4C8AAF075F059
:1048A30000A42AFA75F00EE9A42AF9747C28FA7494
:1048B3000339FB7900120DE9E90E80A57F01021A85
:1048C3002874F612195674FD1218FFEAFEEBFF90D6
:1048D3000416E0F8A3E0F9E849703975081875097A
:1048E300047808121B697508027509007808121B01
:1048F300697508237509827808121B697CFF7DFF9F
:104903007A017B00120C397406121915900416EA09
:10491300F0A3EBF0900416E0F8A3E0F9E849700384
:104923000249E5E4F508F5097808121B69740412D5
:10493300194A8582088583097808121B6974041251
:10494300194A8582088583097808121B699004181F
:10495300121B807902900416E0FCA3E0FDEEFAEF4F
:10496300FB120D5F7408121915E9704A85188285C8
:104973001983E0FA7B00740112194AE0F87900E424
:10498300C8F9EA28F508EB39F509E5084509602671
:104993007808121B69900416E0F8A3E0F583888277
:1049A300A3A3A3A3E0FCA3E0FDEEFAEFFB120681B1
:1049B3007402121915E9E4F508F5097808121B6960
:1049C300900418121B807CFF7DFF900416E0FAA36D
:1049D300E0FB120C457404121915900416EAF0A3B7
:1049E300EBF0900416E0F8A3E0F9E84970047901CC
:1049F3008002790074031219157F02021A28C082FB
:104A0300C083900414E0F8A3E0F9E8496017900428
:104A130014E0FAA3E0FB12046BE9F89004147400A9
:104A2300F0A37400F0900BE0740AF0D083D08202FC
:104A3300013574F412195674EC1218FFE9FE900252
:104A4300ACF0740512194A7401F0740E12194A7409
:104A530000F0A37400F0740412194A7400F0740C8B
:104A630012194A74C8F0A37400F0740A12194A7434
:104A730040F0A37406F0740812194A7401F0A37489
:104A830000F0740612194A74E8F0A37403F0740575
:104A930012194AAC82AD8379017A057B0312089D12
:104AA300E9740E12194AAC82AD8379027A067B034C
:104AB30012089DE97C567D0A79097A087B0312085E
:104AC3009DE97C5F7D0A79097A077B0312089DE9DA
:104AD300740412194AAC82AD8379017A107B0312F4
:104AE300089DE9740C12194AAC82AD8379027A11DC
:104AF3007B0312089DE9740A12194AAC82AD8379CB
:104B0300027A127B0312089DE9740812194AAC82D7
:104B1300AD8379027A137B0312089DE97406121997
:104B23004AAC82AD8379027A147B0312089DE97C37
:104B3300687D0A7A157900120BA9E97AC77B4C7C48
:104B4300007D00741012194AEAF0A3EBF0A3ECF015
:104B5300A3EDF0740312194A7402F0740212194A95
:104B63007401F0740112194A7400F08518828519D2
:104B7300837401F0741012194AAC82AD8379047AFC
:104B8300087B04120669E9740312194AAC82AD83E7
:104B930079017A007B04120669E9740212194AAC9E
:104BA30082AD8379017A027B04120669E9740112EA
:104BB300194AAC82AD8379017A037B04120669E951
:104BC300851882851983AC82AD8379017A067B04CB
:104BD300120669E9120BC7E9FF9002ACE0F9120B68
:104BE300CD9081EC1217ED120BAFE99081EC121707
:104BF300ED120D0BE99081EC1217ED12061BE91271
:104C03000651E912057FE97AD37B0512062190024A
:104C1300ACE0F912056DE97A0079031207BFE97573
:104C2300F30075F40075F50075FDFC75FEFF75FF67
:104C33001F75800375900075A0001205EB7A017B48
:104C4300009002ACE0F9120495E9900A82E0F508BD
:104C5300A3E0F509E4F50AF50B7808121B657A025F
:104C63007B009002ACE0F91205377404121915E9C0
:104C730090032C7401F074141219157F04021A287E
:104C830074F2121956890AEAFEEBFFEE5400F8EFAC
:104C93005480F9E84960319002ACE0F912047D8A4E
:104CA3000C8B0DA80CA90D88088909E849600FAA87
:104CB30008AB091205A3AA08AB0912046BE9EE6459
:104CC30000FAEF6480FB8056EEA2E0501B7A957BDE
:104CD3000A1208A9E9F5087AF07B81120687EE64C7
:104CE30001FAEF6400FB8036EE5402601B7A147BFA
:104CF300031205E57A147B031205F71205C7EE6468
:104D030002FAEF6400FB8016EE5404600D120603F2
:104D1300EE6404FAEF6400FB80047A007B007F06F4
:104D2300021A2874F7121956EAFEEBFF8E828F835C
:104D3300E02440600924E0601B14602180268E82F9
:104D43008F83A3A3A3E0FA8E828F83A3A3E0F91238
:104D530005A98010EEFAEFFB1205AF8007EEFAEF1C
:104D6300FB1205FD7F01021A2874F712195674FF0E
:104D73001218FFE9FEEAFFA2E150779002ADE0646A
:104D830005606F7C207D007A067B00120A2FE97C88
:104D9300207D007A077B00120A2FE97C1E7D007AB2
:104DA300017B00120A2FE9851882851983AC82AD35
:104DB300837A057B031208A3E9851882851983E0AA
:104DC3007004740180027400851882851983F0854C
:104DD3001882851983AC82AD8379017A057B03122E
:104DE300089DE9851882851983E070069003137482
:104DF30001F074011219157F01021A2874EE1219B9
:104E03005674EC1218FF8A108B118510828511835A
:104E1300A3A3A3E0F508E508121BF306040523503A
:104E2300070823500A0B23500D0E2350131423504D
:104E3300161723500401644E02464E1A604F1BE7B7
:104E43004F38507E03900A82E0F8A3E0F97AE87BBA
:104E530003121874E8851882851983F07F010250C4
:104E63004F7E1CE5102404F8E5113400F9880A8903
:104E73000B851082851183A3A3E024FFF509740138
:104E83006509600E8518828519837403F07F01021A
:104E9300504F850A82850B83E070107A027B009065
:104EA30002ACE0F9120543E9024F48850A82850BFB
:104EB30083E064FF703A900A8274E8F0A37403F00D
:104EC30090032CE06401707D900A82E0F50CA3E06E
:104ED300F50DE4F50EF50F780C121B657A027B00D5
:104EE3009002ACE0F91205377404121915E98055E4
:104EF300850A82850B83E0F87900E875F0E8A4C899
:104F0300AAF075F003A42AFA75F0E8E9A42AF99047
:104F13000A82E8F0A3E9F090032CE0640170269084
:104F23000A82E0F50CA3E0F50DE4F50EF50F780C1D
:104F3300121B657A027B009002ACE0F9120537740C
:104F430004121915E9E508851882851983E508F027
:104F5300740112194A7401F07F0202504F120609BC
:104F630090032C7401F09081E8780C1217CF900A0B
:104F730086780C1217A990032A7400F0A37400F02A
:104F830090032DE070167A007B007C007D00900377
:104F930026EAF0A3EBF0A3ECF0A3EDF09081BC12B2
:104FA30017ED1204D1900A82E0F50CA3E0F50DE4AD
:104FB300F50EF50F780C121B657A027B009002AC9C
:104FC300E0F91205377404121915E97E1CE508850A
:104FD3001882851983E508F0740112194A7401F0E7
:104FE3007F0280687A027B009002ACE0F9120543ED
:104FF300E9908204780C1217CF900A86780C121766
:10500300BC90032C7400F07E1CE50885188285197A
:1050130083E508F0740112194A7401F07F02802CB1
:10502300851882851983741CF0740112194A74025D
:10503300F07F0280177E1CE508851882851983E5B9
:1050430008F0740112194A7402F07F02EFFC85180C
:1050530082851983AA82AB83EEF91205CD741412EB
:1050630019157F0A021A2874F612195674F61218C3
:10507300FFE9FE74056E70030251D89002ADE0643F
:1050830005707274056E606D740112194A7401F033
:1050930074046E70267C207D007A067B00120A2F32
:1050A300E97C207D007A077B00120A2FE97C1E7DB4
:1050B300007A017B00120A2FE980247C407D067A66
:1050C300067B00120A2FE97C407D067A077B0012DB
:1050D3000A2FE97C1E7D007A017B00120A2FE974F6
:1050E3000112194AAC82AD8379017A057B03120858
:1050F3009DE90251D89002ADE06402707174036EB1
:10510300706C900313E060099003137400F0025174
:10511300D87A067B00120A358A088B097420650841
:1051230070047400650960030251D88518828519DB
:10513300837401F07C407D067A067B00120A2FE916
:105143007C407D067A077B00120A2FE97C1E7D00D6
:105153007A017B00120A2FE9851882851983AC82B4
:10516300AD8379017A057B0312089DE98067740199
:105173006E7062740212194AAC82AD837A047B03A7
:105183001208A3E9740712194AE0C0E0740912195E
:105193004AD0E0F0740612194AE0C0E0740812190C
:1051A3004AD0E0F0740512194AE0C0E074071219FE
:1051B3004AD0E0F0740612194A7400F0740512190B
:1051C3004A7400F0740212194AAC82AD837A0879EA
:1051D30000120657E9EE9002ADF0740A1219157F1A
:1051E30002021A2874F21219568A088B09890A8C4A
:1051F3000B7401650A705EE50B705A9002B5E0FA14
:10520300A3E0FB120F458A0C8B0DA80CA90DE8FE39
:10521300E9FFE849603F8E828F83A3A3A3E0A2E264
:105223005004D2F08002C2F0A2F0E4339002AEF058
:105233009002AEE0601F750C06750D00780C121B12
:1052430069EE2405FCEF3400FD7AAF7B02120441C2
:1052530074021219157F06021A2874F41219568A59
:10526300088B09ECFEEDFF890A740C12194AE0F56C
:105273000B9081B8121B7C7900EEFAEFFB12068DBE
:105283007404121915E97F04021A2874F0121956CE
:105293007508D1750902900315E0FE900314E085AB
:1052A3000882850983F0850882850983A38582089E
:1052B300858309EE850882850983F085088285093F
:1052C30083A3858208858309900316E0F8A3E0F998
:1052D300E8850882850983F0850882850983A3858B
:1052E3008208858309900316E0F8A3E0F9E4E9F85E
:1052F300850882850983F0850882850983A38582D1
:1053030008858309900318E0F8A3E0F9E88508828B
:10531300850983F0850882850983A38582088583AF
:1053230009900318E0F8A3E0F9E4E9F88508828519
:105333000983F0850882850983A38582088583090B
:10534300EEA2E7502090031A780C1217CFE50C85D4
:105353000882850983E50CF0850882850983A38586
:105363008208858309EEA2E5502790031A780C1270
:1053730017CF7410780C1216D2E50C8508828509B4
:1053830083E50CF0850882850983A38582088583DC
:1053930009EEA2E6502590031A780C1217CFE4E524
:1053A3000DF50CE50C850882850983E50CF085086D
:1053B30082850983A3858208858309EEA2E0503C98
:1053C30090031EE0F8A3E0F9E8850882850983F0DD
:1053D300850882850983A385820885830990031E36
:1053E300E0F8A3E0F9E4E9F8850882850983F0850C
:1053F3000882850983A3858208858309EEA2E1508B
:105403003C900320E0F8A3E0F9E88508828509834E
:10541300F0850882850983A3858208858309900323
:1054230020E0F8A3E0F9E4E9F8850882850983F030
:10543300850882850983A3858208858309900314DF
:10544300E09002D0F09002ACE0F97CCE7D029002B5
:10545300B5E0FAA3E0FB120627E9900A82E0F50C17
:10546300A3E0F50DE4F50EF50F780C121B657A0237
:105473007B009002ACE0F91205377404121915E9A8
:105483007F08021A2874F4121956890AEAFEEBFF00
:105493008C0BE50A9002BAF07401250B9002B9F067
:1054A300850B087509007808121B69EEFCEFFD7A7D
:1054B300BB7B0212044174021219159002ACE0F98D
:1054C3007CB77D029002B5E0FAA3E0FB12062DE95A
:1054D3007F04021A2874EC12195674F71218FF8904
:1054E30011EAFEEBFF8C10741D12194AE0F512A3AA
:1054F300E0F513E51114602F14602C24FB700302F4
:1055030058C614700302592324FE601E147003024C
:1055130055B714700302566014700302573A14709F
:105523000302576802597E02597E900A7D78081259
:1055330017CFE5088E828F83E508F08E828F83A3D1
:10554300AA82AB83EAFEEBFF900A7D78081217CF9D
:10555300E4E509F508E5088A828B83E508F08E8285
:105563008F83A3AA82AB83EAFEEBFF900A7D7808C0
:105573001217CF741078081216D2E5088A828B832B
:10558300E508F08E828F83A3A882A983E8FEE9FF52
:10559300900A81E088828983F08E828F83A3AE8212
:1055A300AF8374FFF08E828F83A3AE82AF8374FFC9
:1055B300F002597E1204D78A088B098C0A8D0B904E
:1055C3000A84E508F0A3E509F0900A84E0F8A3E073
:1055D300F9E88E828F83F08E828F83A3A882A983BA
:1055E300E8FEE9FF900A84E0FAA3E0FBE4EBFA8823
:1055F300828983F08E828F83A3AA82AB83EAFEEB38
:10560300FF900A8678081217CFE5088A828B83E514
:1056130008F08E828F83A3AA82AB83EAFEEBFF900E
:105623000A8678081217CFE4E509F508E5088A82A7
:105633008B83E508F08E828F83A3AA82AB83EAFE75
:10564300EBFF900A8678081217CF741078081216A9
:10565300D2E5088A828B83E508F002597E900326FF
:10566300121B7C7A8A7B0A1204DD740412191590CA
:105673000A8FE0F8A3E0F9E88E828F83F08E828FA1
:1056830083A3A882A983E8FEE9FF900A8FE0FAA327
:10569300E0FBE4EBFA88828983F08E828F83A3A8F0
:1056A30082A983E8FEE9FF900A8EE088828983F06D
:1056B3008E828F83A3A882A983E8FEE9FF900A8DD7
:1056C300E088828983F08E828F83A3A882A983E8EE
:1056D300FEE9FF900A8CE088828983F08E828F83B3
:1056E300A3A882A983E8FEE9FF900A8BE088828958
:1056F30083F08E828F83A3A882A983E8FEE9FF90BB
:105703000A8AE088828983F08E828F83A3A882A984
:1057130083E8FEE9FF900A91E088828983F08E8214
:105723008F83A3A882A983E8FEE9FF900A92E08809
:10573300828983F002597E900A93E0F8A3E0F9E8A6
:105743008E828F83F08E828F83A3A882A983E8FE43
:10575300E9FF900A93E0FAA3E0FBE4EBFA8882897D
:1057630083F002597E8E828F83E0FA7B008E828FD4
:1057730083A3E0F87900E4C8F9EA28F8EB39F9746F
:105783000512194AE8F0A3E9F08E828F83A3A3E000
:10579300C0E0740412194AD0E0F08E828F83A3A371
:1057A300A3E0C0E0740312194AD0E0F08E828F8325
:1057B300A3A3A3A3E0C0E0740212194AD0E0F08EC1
:1057C300828F83A3A3A3A3A3E0C0E0740112194AA9
:1057D300D0E0F08E828F83A3A3A3A3A3A3E08518B5
:1057E30082851983F08E828F83A3A3A3A3A3A3A38C
:1057F300E0C0E0740712194AD0E0F08E828F83A3D1
:10580300A3A3A3A3A3A3A3E0C0E0740812194AD0DF
:10581300E0F0740712194AE0F91205D9E9600D7432
:105823000812194AE0F91205DFE970098512828529
:1058330013837404F0851882851983AA82AB8312BB
:1058430004E98A088B098C0A8D0B85080C85090DE0
:10585300850A0E850B0F90032CE0700A90032678BF
:105863000C1217DE80251204D79003221217F98534
:105873000C08850D09850E0A850F0B900322780805
:1058830012175790032678081217DE900326121B6F
:105893007C7A8A7B0A1204DD7404121915740712C8
:1058A300194AE0900A91F0740812194AE0900A929A
:1058B300F090032D7401F08512828513837400F038
:1058C30002597E7A177B001204658A0A8B0B850ABC
:1058D30008850B09E5084509604485088285098325
:1058E30074E0F0E510850882850983A3A3E510F031
:1058F30085100A750B00780A121B69EEFCEFFDE5B3
:10590300082403FAE5093400FB1204417402121956
:1059130015AA08AB099002ACE0F9120471E9805BA7
:105923007A177B001204658A0A8B0B850A08850B9C
:1059330009E5084509604485088285098374E1F017
:10594300E510850882850983A3A3E510F085100A75
:10595300750B00780A121B69EEFCEFFDE5082403C2
:10596300FAE5093400FB1204417402121915AA085E
:10597300AB099002ACE0F9120471E974091219152C
:105983007F0C021A28E9F8E875F0021214CDE5F04D
:10599300600479008021E8C394D1A2D265D033405A
:1059A3000BE8C39438A2D265D0334005747F687086
:1059B30004790180027900020135E9F87402686014
:1059C30012740468600DE8600A740868600574FF67
:1059D30068700479018002790002013574E81219B4
:1059E3005674F01218FF851882851983EAF0A3EB29
:1059F300F07F007E06740612194A7400F0A3740047
:105A0300F07A007B007C007D00740C12194AEAF0E6
:105A1300A3EBF0A3ECF0A3EDF0750C00750D00758E
:105A23000E00750F007A007B007C007D0074081265
:105A3300194AEAF0A3EBF0A3ECF0A3EDF0900338DE
:105A4300E0F8A3E0F990033AE8F0A3E9F0120615B1
:105A5300900338EAF0A3EBF0900338E0F8A3E0F901
:105A63007AFD7B07121874900338EAF0A3EBF090E9
:105A73000338E0F8A3E0F9851882851983E0FAA3D7
:105A8300E0F5838A82A3A3E8F0A3E9F090032AE078
:105A9300F8A3E0F9851882851983E0FAA3E0F5837A
:105AA3008A82A3A3A3A3E8F0A3E9F0900A82E0F813
:105AB300A3E0F97AE87B0312187488088909900334
:105AC3002AE02508F0A3E03509F0D3EF92E0FF9038
:105AD300032AE0F8A3E0F9E8497003025BC39003EB
:105AE30038E054FFF8A3E05407F9E4FAFB880C8983
:105AF3000D8A0E8B0F90033AE054FFFAA3E054078C
:105B0300FBE4FCFD740812194AEAF0A3EBF0A3ECE2
:105B1300F0A3EDF0900A82E0F8A3E0F97AE87B03C2
:105B2300121874740412194AE8F0A3E9F0850C08FA
:105B3300850D09850E0A850F0B740812194A78081A
