:020000040000FA
:0600000002011D0223DFD6
:03002B00021C9E16
:0300530002245232
:03006B00021C6A0A
:1000830002224BE5C754F84401F5C7790122000069
:100093000080FB120086B90003020107E47921788E
:1000A30008B800028004F709D8FCE479297802B87B
:1000B30000028004F709D8FCE4900281788579086E
:1000C3008002F0A3D8FCD9FA781A90014D7A01BACC
:1000D30000028007E493A3F608DAF9900A05AA82DE
:1000E300AB8390014E78EE79038015E493A3AC8241
:1000F300AD838A828B83F0A3AA82AB838C828D83A8
:10010300D8E9D9E77582567583F4740312012F7504
:100113008291758300740012012F75D00075813FA1
:10012300751881751902759F00020096C09FF59F8F
:10013300E473D09F22D083D082C09FE493C0E07445
:100143000193C0E0740293F59F2201FFFF1101990F
:10015300010F126404010243820100001882021D90
:10016300820100000C0A0257820100000D0A021FDF
:1001730082030000A602022D820100000E0A080974
:1001830043474D2053696D02010505021F180A18E4
:1001930043474D2053696D756C61746F72000000A5
:1001A3000000000000E80300A000009534129078DE
:1001B30056001403030801DF07EC00A800AF050095
:1001C300001002020A0202002828024382010000F2
:1001D3001582021D820100007B0A02558200000085
:1001E3002803021F820300002203021D8201000074
:1001F3007C0A0253820100002903021D82010000D0
:100203007D0A0251820100002A03021D82030000BD
:100213007E0A024D820300002B03021D82030000AD
:100223007F0A024B82030000800A021D8203000042
:10023300820A0247820300003203021F8203000086
:100243002C03021D82030000830A0245820300007F
:100253003903021F82030000330302020202020277
:10026300020202010D00000010010243820100009E
:100273000C82021D82010000140B023F8201000068
:100283003A03021D82010000150B023D82010000AA
:100293006581021D82010000160B023B82010000F2
:1002A3005E81021D82010000170B023982010000EA
:1002B300F081021D82010000180B025B8201000025
:1002C300F481021D82010000190B02358201000036
:1002D3000082021D820100001A0B0233820100001A
:1002E300FC81021D820100001B0B02318201000010
:1002F3004281021D820100001C0B022F82010000BB
:100303001D0B01E803053F100AFF000130750302CE
:1003130001060000000000000000000000000000D3
:100323000000000000000000000000000000FFFFCC
:100333000600800CE803FF0000B40000280028003A
:10034300283075A000A000A000A00000080008E06D
:1003530001F00010001000100010001000100050F9
:10036300005000500010001000D0070000000000F3
:10037300000F000100050030750700100001008127
:10038300FF00000000FF310B4F0B370BFF0202028F
:1003930008025000A0000000E803024382010000AD
:1003A3001282021D82010000470C0221820100001B
:1003B3003605021D82010000480C02238201000061
:1003C3004C05021D82010000490C02258201000038
:1003D3004E05021D820100004A0C0227820800001C
:1003E3004F05021D820100004B0C0229820100000F
:1003F3004C0CFFFF0100FF200243820100000F822B
:10040300021D82010000B10C022B820000000000DB
:10041300021F82030000DE05431143114311431100
:100423004311431143114311431143114311431129
:100433004311D713EF13D113120138698A03120141
:10044300387E8A03120138D68A031201383D8B03A2
:10045300120138858B03120138FB8B031201382AF2
:100463008C03120138388C031201389C8C0312015F
:1004730038DA8C03120138F58C031201388D8D03A1
:10048300120138368E03120138B98E03120138F285
:100493008E031201387D8F03120138D48F031201AA
:1004A300383390031201384590031201386B9003DF
:1004B300120138749003120138D39103120138A545
:1004C300F20312013891CE0312013870CF031201E7
:1004D30038CCCF03120138E6CF03120138F7CF032C
:1004E30012013817D003120138E2E2031201382750
:1004F300E3031201386DE30312013800E50312012F
:10050300382CF10312013847F10312013857F10374
:10051300120138AEF103120138E3F8021201380375
:10052300F90212013807FA0212013853FA021201D2
:100533003873FA02120138C6FA0212013833FB0289
:1005430012013879FB02120138DDFB021201388FE8
:10055300FE0212013810FF0212013896EB0312015A
:1005630038C6EB03120138F6EB0312013816EC031D
:1005730012013870EC03120138C8D103120138FD9F
:10058300D103120138ECD203120138D0D303120184
:1005930038914900120138B34B00120138564C0010
:1005A3001201389C4C001201382F4D001201389370
:1005B3004E001201381D50001201389350001201F1
:1005C30038C45000120138BE5200120138EB5200F9
:1005D300120138B95600120138155A001201384475
:1005E3005A001201387E5D001201382E5E0012019E
:1005F30038E35F001201388C6200120138B0F40353
:10060300120138C1F403120138A7A00312013810F4
:10061300A10312013823A10312013874A1031201AB
:1006230038D3A10312013832A20312013877A3038E
:1006330012013863A603120138B6A603120138F378
:10064300AB0312013818AC0312013853AC03120187
:100653003848F303120138182B00120138262E00F4
:10066300120138E62F00120138913000120138359B
:100673003100120138CE3100120138FD3100120170
:1006830038693200120138433700120138EE37005F
:100693001201385E3900120138C639001201387A66
:1006A3003A001201383C3D001201387B3D00120133
:1006B30038EF3D001201384E3E00120138AD3E00C6
:1006C3001201381C3F001201380F40001201385547
:1006D30040001201389A4000120138BD4000120157
:1006E300383842001201384B42001201385443009B
:1006F300120138934300120138BF4300120138122C
:1007030044001201383344001201387744001201C7
:1007130038C946001201380A4700120138B54700AC
:100723001201382048001201385D49001201382DAA
:10073300F0031201383EF0031201381CF1031201D9
:100743003839E003120138D4E2031201381FF503EC
:10075300120138D8EC03120138E8EC031201380215
:10076300ED031201380AEE03120138D3D703120145
:100773003879D80312013895DA0312013843EA03B2
:1007830012013875EA03120138D5EA03120138EC75
:10079300EA0312013848EB0312013885EB03120117
:1007A3003888EB03120138E9B00312013808B103AA
:1007B3001201389DB1031201388DB203120138EAD8
:1007C300B4031201384AB503120138B3B503120159
:1007D30038F87F001201388CDD0312013883DF0300
:1007E300120138EFDF0312013836E00312013844F7
:1007F300E503120138ADE5031201386BE60312017C
:1008030038EAE60312013848C3031201387AC303F6
:1008130012013882C403120138A7C50312013863D9
:10082300C603120138008003120138E68003120167
:1008330038338103120138768103120138EB8103C7
:100843001201384C8203120138C182031201389D10
:100853008303120138A88403120138298503120186
:1008630038D08603120138668703120138D987030B
:100873001201385588031201386C8803120138A31A
:100883008903120138FD89031201388AC301120159
:100893003822C801120138F6CA011201381FCB01F0
:1008A30012013848CB01120138FACB01120138E0AA
:1008B300CD011201381BCF0112013851D4011201AD
:1008C300388AD401120138CED401120138E0D5019F
:1008D30012013836EF031201384CEF031201387B53
:1008E300EF03120138B1EF03120138C8EF0312010D
:1008F30038FFEF0312013816F00312013830FE01FE
:1009030012013847FE0112013878FE01120138B393
:10091300FE01120138DDFE0112013807FF01120149
:10092300381EFF0112013835FF011201384CFF0157
:1009330012013875FF0112013888FF011201389E38
:10094300FF01120138B1FF01120138D8FF01120172
:1009530038E3E102120138E7E20212013814E3023C
:100963001201386AE3021201388DE302120138A141
:10097300E302120138A3E302120138C6E3021201B3
:1009830038CCE40212013890E50212013865E60220
:10099300120138E0E602120138E3E6021201386B75
:1009A300E702120138A6E702120138DDE70212015D
:1009B300386BE80212013844E90212013847E902B0
:1009C300120138A7E902120138B2E90212013831E3
:1009D300EA0212013834EA0212013837EA0212013C
:1009E300383AEA02120138C9EA02120138D3EA029C
:1009F300120138E3EA0212013813EB021201382024
:100A0300EB0212013823EB02120138A4EB021201AC
:100A13003892EC0212013844ED02120138D1B503C9
:100A2300120138F9B50312013827B6031201385EF3
:100A3300B603120138BCB60312013807B70312011B
:100A43003852B70312013892B703120138D8B703EB
:100A530012013806B803120138C3B803120138CDA6
:100A6300B803120138DAB8031201380DB9031201C1
:100A730038D9B903120138E5B903120138FDB903B6
:100A830012013807BA0312013821FF021201382F6D
:100A9300FF0212013847FF021201385FFF02120101
:100AA30038008002120138AC80021201382781021B
:100AB3001201384882021201388482021201382D51
:100AC300830212013814840212013878850212015C
:100AD30038CF85021201385086021201384087024E
:100AE3001201388D8702120138138802120138452A
:100AF3008802120138598A021201389B8A021201B4
:100B030038B98A021201383C8B02120138108C0268
:100B1300120138D88C021201388499031201385714
:100B23009A03120138009B03120138539B031201ED
:100B330038039C031201388F9C031201387B9D03F9
:100B4300120138AA9D03120138BD9E031201380514
:100B53009F03120138DA9F0312013816A003120112
:100B63003832A003120138D2F303120138F8CA0352
:100B73001201380ECB0312013834CB031201385063
:100B8300CC031201385ACC031201388FCD03120162
:100B93003887CE03120138CCA603120138FCA70311
:100BA3001201382FA80312013879A8031201384023
:100BB300AA03120138F18E02120138758F02120155
:100BC30038BE8F02120138A591021201385E9302DA
:100BD3001201383A9402120138EE94021201382BB2
:100BE3009802120138D99802120138489A02120168
:100BF30038DA9B02120138129C02120138AF9C02B0
:100C0300120138A0D6011201380AD701120138693E
:100C1300D80112013879D801120138A6D80112017E
:100C230038FDD801120138A6D901120138ADDA0115
:100C330012013877DB01120138D7DC011201381AAF
:100C4300DD01120138BFDD011201380CDE01120192
:100C53003832DE0112013840E00112013845E0016B
:100C63001201384AE20112013897E2011201380AEF
:100C7300E3011201383DE301120138DFE301120100
:100C83003888E401120138C0E401120138C3E401D9
:100C93001201380BE5011201384BE501120138A2AC
:100CA300E501120138B0DA03120138C3DA03120185
:100CB30038D1DA0312013819DB031201382FDB03B1
:100CC30012013876DB031201388ADC03120138176C
:100CD300DD0312013862DD03120138A36200120141
:100CE30038AF6200120138EA62001201382F630044
:100CF300120138EF6300120138756400120138A144
:100D03006400120138DA6400120138186700120116
:100D130038FC6800120138E26A00120138256C00C1
:100D2300120138736E00120138856F00120138D03A
:100D33007000120138E07100120138FD71001201D8
:100D4300383872001201385A7200120138BD72002D
:100D53001201387E770012013813780012013864CB
:100D630078001201388B7800120138DD7800120107
:100D730038FB7800120138557900120138547A0093
:100D8300120138D87A001201383F7B00120138492A
:100D93007B001201388C7B00120138A77B00120103
:100DA30038377C001201385F7C001201389C7C00CC
:100DB300120138D37C00120138FC7C001201387117
:100DC3007D00120138867D001201389B7D001201DF
:100DD30038CC7D00120138E07D00120138057E0019
:100DE3001201383F7E001201386B7E00120138EE8B
:100DF3007E00120138377F00120138617F00120133
:100E0300388C7F0012013810EE0312013810D5021E
:100E13001201383ED5021201388CD6021201386C09
:100E2300D7021201388BD70212013808D8021201F7
:100E3300384BD802120138A1D90212013862DA0202
:100E4300120138E9DC021201388ADD02120138800E
:100E5300DE021201387DDF02120138D7E0021201EF
:100E63003862E102120138E8E80312013851E9035C
:100E7300120138A5E903120138CCE903120138FD48
:100E8300E9031201388EBA03120138FBBA031201C7
:100E93003842BB031201385ABC0312013856BD0352
:100EA30012013839BE03120138C7F501120138099E
:100EB300F601120138DBF601120138B4F701120111
:100EC30038AEF80112013890F901120138F9F9012D
:100ED300120138AFFA0112013823FB011201388FD6
:100EE300FB01120138B8FB0112013832FC01120177
:100EF30038CBFC0112013830FD0112013845FD01E8
:100F03001201388BFD01120138A4FD0112013809C9
:100F1300FE011201380CFE01120138DAD40312016A
:100F23003802D50312013840D503120138FED50328
:100F330012013865D60312013881D603120138A98C
:100F4300D603120138D9D603120138E8D6031201A9
:100F53003865D7031201388BD7031201388FE601A6
:100F63001201386DE8011201389FEA01120138DBE2
:100F7300EA0112013808EB01120138F2EB01120108
:100F8300383DEC0112013888EC011201389AEC016A
:100F9300120138DAEC011201380FED011201385D4C
:100FA300ED011201388CED01120138AFED01120190
:100FB30038FCED0112013881EE011201389BF0017A
:100FC300120138DAF2011201381BF301120138BDA4
:100FD300F401120138FEF40112013871F501120116
:100FE30038FBC702120138F9C80212013892CF0246
:100FF300120138B3D1021201387ED302120138E64E
:10100300D4021201386082011201380F83011201E8
:10101300383C8301120138828301120138C28401F2
:10102300120138588601120138D28601120138EDB7
:101033008601120138688701120138C28801120142
:1010430038228A01120138288B01120138898C0158
:10105300120138A28C01120138008D01120138EE01
:101063008D01120138218E01120138918E01120176
:10107300380B8F01120138558F011201381F90016F
:10108300120138F49001120138D391011201385E34
:101093009201120138CC92011201384093011201DE
:1010A300386B93011201382A94011201388F95018C
:1010B300120138AC9501120138CB9501120138BCED
:1010C3009601120138E196011201380B97011201C2
:1010D30038869701120138E09701120138499901C6
:1010E300120138F79901120138389A011201382791
:1010F300BA0212013875BA0212013881BA0212011A
:10110300385FBB0212013890BB02120138C1BB0227
:1011130012013841BC0212013879BC02120138CBEA
:10112300BC0212013808BD0212013825BF021201A8
:10113300384BC10212013836C30212013820C502EE
:101143001201380D2B0012013877AF01120138A7B5
:10115300AF0112013880B60112013805B80112013E
:101163003802BE01120138EABE0112013827BF015D
:101173001201384ABF011201387BBF0112013884C2
:10118300BF011201388EBF011201387CC001120168
:101193003872C101120138689A01120138679E0141
:1011A3001201386D9E01120138A8A501120138C140
:1011B300AA011201382AC703120138C0C70312015A
:1011C30038D6C7031201384CC803120138C0C8030C
:1011D300120138FEC80312013872C903120138EB39
:1011E300C903120138F4C90312013800CA031201FA
:1011F3003815CA0312013853CA0312013869CA03E6
:10120300120138C8CA03120138FBBE0312013808A1
:10121300BF0312013822BF0312013861BF03120159
:10122300389FBF0312013804C00312013819C003E9
:1012330012013824C00312013831C00312013848A7
:10124300C00312013856C00312013861C0031201F2
:10125300386DC0031201387CC00312013887C00304
:10126300120138AAC00312013851C10312013861B7
:10127300C1031201387BC10312013898C103120163
:1012830038B4C103120138D9C103120138E4C103D0
:10129300120138F9C1031201380DC2031201386E6D
:1012A300C20312013874C2031201387AC203120155
:1012B3003880C20312013898C203120138CBC2032B
:1012C300120138FDAB0212013881AC021201383031
:1012D300AD021201388FAE02120138B0B002120112
:1012E300389CB102120138D1B102120138F3B102B4
:1012F300120138A2B2021201389AB402120138C3A1
:10130300B40212013855B50212013887B502120131
:101313003894B502120138EBB50212013811B60246
:101323001201387EB80212013881B902120138D98C
:10133300B9021201388C9D02120138969E021201E5
:10134300387D9F02120138879F02120138A99F023C
:10135300120138B59F021201384EA1021201387DE5
:10136300A10212013899A202120138F2A20212015B
:101373003858A40212013837A50212013893A50286
:1013830012013800A6021201383BA6021201387A74
:10139300A60212013833A9021201384DA902120123
:1013A30038D9A902120138E7A90212013840AA026A
:1013B3001201384EAA02120138C1AA0212013825BD
:1013C300AB021201386FAB02120138B5ED02120104
:1013D30038D7ED02120138FDEF0212013812F30281
:1013E3001201382AF402120138DDF402120138BF67
:1013F300F50212013843E70312013868E7031201CB
:1014030038DAE7031201380A920312013813920300
:101413001201381C9203120138F39203120138A40B
:101423009403120138DA940312013814950312015C
:10143300384A9503120138849503120138B895038D
:10144300120138E495031201382D9603120138670F
:101453009603120138B0960312013808970312015C
:10146300383D9703120138989703120138D2970336
:101473001201382398031201385998031201389343
:101483009803120138C19803120138E4980312013A
:1014930038FAF10312013826F20312013881F203FC
:1014A3001201388BF2031201389BF203120138B494
:1014B3007F0012013801F503E066701008A3E066AF
:1014C300700A08A3E066700408A3E06622C3E096EE
:1014D30008A3E09608A3E09608A3E096A2D265D0FD
:1014E3003322C3E7960809E7960809E7960809E750
:1014F3009622C3E09608A3E09608A3E09608A3E02B
:101503009622C008C3E096F50808A3E096420808AF
:10151300A3E096420808A3E09645087001D3D008DB
:1015230022080808EAC0E0EBC0E086F0E7A4FA1856
:101533000986F0E7A42AFA180986F0E7A42AFA181C
:101543000986F0E7A42AFA1986F0E7A4FBE5F02A56
:10155300FA190886F0E7A42BFBE5F03AFA19088696
:10156300F0E7A42BFBE5F03AFA18180986F0E7A494
:10157300C5F02BFBE43AFA1908E7C5F0C6A426F632
:10158300E5F03BFBE43AFA1886F0E7A4F6E5F00849
:1015930026F6E43B08F6E43A08F6D0E0FBD0E0FA9E
:1015A30022E4CFC0E0E4CEC0E0E4CDC0E0E4CCC0B0
:1015B300E075F020C3E633F608E633F608E633F6C3
:1015C30008E633F6181818EC33FCED33FDEE33FE62
:1015D300EF33FFC3EC9709ED9709EE9709EF9719DE
:1015E3001919400FFFEC97FC09ED97FD09EE97FEE3
:1015F300191906D5F0BEECF709EDF709EEF709EF77
:10160300F7191919D0E0FCD0E0FDD0E0FED0E0FFDF
:101613002212167C1818181215A412166B19191910
:101623002212166B191919080808E618181820E76A
:10163300E01215A412167C18181822090909E719D3
:10164300191920E7DC080808E618181820E7030230
:1016530015A412167C1818181215A412167C181843
:101663001812166B19191922E4C397F709E497F7AF
:1016730009E497F709E497F722E4C396F608E4969A
:10168300F608E496F608E496F6226016080808C6FB
:10169300C313C618C613C618C613C618C613C6D5B1
:1016A300E0EA227009080808226016181818C6C351
:1016B30033C608C633C608C633C608C633C6D5E024
:1016C300EA22E627F60809E637F60809E637F608B8
:1016D30009E637F622E026F608A3E036F608A3E08B
:1016E30036F608A3E036F622E026F008A3E036F04B
:1016F30008A3E036F008A3E036F022C3E697F60825
:1017030009E697F60809E697F60809E697F622C36D
:10171300E0C696F608A3E0C696F608A3E0C696F6DA
:1017230008A3E0C696F622C3E096F008A3E096F07D
:1017330008A3E096F008A3E096F022E657F608091E
:10174300E657F60809E657F60809E657F622E05683
:10175300F608A3E056F608A3E056F608A3E056F60B
:1017630022E056F008A3E056F008A3E056F008A3E1
:10177300E056F022E046F008A3E046F008A3E04676
:10178300F008A3E046F022E0F608A3E0F608A3E0A1
:10179300F608A3E0F622E6F008A3E6F008A3E6F0D5
:1017A30008A3E6F022E0FAA3E0FBA3E0FCA3E0FD3C
:1017B30022EAF0A3EBF0A3ECF0A3EDF022CAC0E021
:1017C300E6F0A308DAFAD0E0FA22CAC0E0E0A3C543
:1017D30082CCC582C583CDC583F0A3C582CCC58227
:1017E300C583CDC583DAE6D0E0CA22C3E498F8E422
:1017F30099F912182F8026C3E49AFAE49BFBE92097
:10180300E7E912182FE498F8E499F922C3E498F869
:10181300E499F912182FE498F8E499F9C3E49AFAD1
:10182300E49BFB22EB20E7CFE920E7E0B90010BB04
:101833000008E88AF084F8AAF022E4FBC8FA22EB55
:1018430070227B10C833C8C933C9335007C39AC346
:10185300DBF280069A50012ADBEAC833F4C8C933A5
:10186300F4C9FA2275F008E4C833C8C933C933C9C7
:101873009AC99B5004C92AC93BD5F0ECFBC833F481
:10188300C8E4C9FA22600D08C6A2E713C618C61336
:10189300C6D5E0F322600C08C6C313C618C613C628
:1018A300D5E0F422700422600D18C6C333C608C6FF
:1018B30033C6D5E0F41822251810AF08F5184002F6
:1018C30015198008F51840021519D2AF22C0D0258A
:1018D3001810AF08F518500205198008F5185002C2
:1018E3000519D2AFD0D0222518F58210AF08F5180C
:1018F300400215198008F51840021519D2AF851951
:1019030083222518F582E43519F58322E47325181B
:10191300C582C0E0E51934FFC583C0E0E518C3956F
:101923008224F810AF08858319858218800885837F
:1019330019858218D2AFCEF0A3E520F0A37808E68C
:1019430008F0A3DEFAEFF0A3E58124FAF8E608F045
:10195300A3E608F0A3E608F0A30808E608F0A3E668
:1019630008F0A315811581D0E0FED0E0F8158115AC
:10197300811581E8C0E0EEC0E0222518C582C0E0F1
:10198300E51934FFC583C0E0E518C3958224F91037
:10199300AF08858319858218800885831985821885
:1019A300D2AFCEF0A3E520F0A37808E608F0A3DEDB
:1019B300FAEFF0A3E58124FBF8E608F0A3E608F0CC
:1019C300A30808E608F0A3E608F0A315811581D063
:1019D300E0FED0E0F815811581E8C0E0EEC0E0221A
:1019E300851983851882E0A3FEE0A3F5207808E03B
:1019F300A3F608DFFAE0A3FFE0A3C0E0E0A3C0E0A2
:101A0300E0A3C0E0E0A3C0E0E0A3C0E010AF08851E
:101A130082188583198008858218858319D2AFD0EF
:101A230083D082020135851983851882E0A3FEE005
:101A3300A3F5207808E0A3F608DFFAE0A3FFE0A30C
:101A4300C0E0E0A3C0E0E0A3C0E0E0A3C0E010AFCB
:101A5300088582188583198008858218858319D2A1
:101A6300AFD083D08222C0D02518C582C0E0E5194B
:101A730034FFC583C0E0E518C3958224F310AF0893
:101A83008583198582188008858319858218D2AFCA
:101A9300C8F0A3E9F0A3EAF0A3EBF0A37908E70900
:101AA300F0A3D8FAECF0A3EDF0A3EEF0A3EFF0A3CC
:101AB300D0E0F0A3D0E0F0A3D0E0F0A3E520F0A3C2
:101AC300E5F0F0A322851983851882E0C0E0A3E046
:101AD300F9A3E0FAA3E0FBA37808E0F608A3DFFA92
:101AE300E0FCA3E0FDA3E0FEA3E0FFA3E0C0E0A3CE
:101AF300E0C0E0A3E0F5D0A3E0F520A3E0A3F5F078
:101B030010AF08858319858218800885831985821B
:101B130018D2AFD082D083D0E0F8D0E03274048002
:101B230006740280027401C0E0F4041218EAD0E0E3
:101B33001217C0227404800474028000CCC0E0ED4C
:101B4300C0E0E518C39CCCAD1950011D10AF068C45
:101B5300188D1980068C188D19D2AF1217CDD0E0CD
:101B6300FDD0E0FC22D083D082E9C0E0E493A3C39C
:101B730086F0C5F095F0F908E493A386F0C5F095D7
:101B8300F0700BE493A3C3994005E9048002A3E436
:101B930075F002A42582F582E5F03583F583D0E064
:101BA300F9E493A3C0E0E493C0E022D083D082ECB5
:101BB300C0E0EDC0E0E493A3FCE493A3FDED4C602F
:101BC3000D121BFAEC24FFFCED34FFFD80EFE493D0
:101BD300A3FCE493A3FDED4C600D121C39EC24FF30
:101BE300FCED34FFFD80EFD0E0FDD0E0FCE493A3F7
:101BF300C0E0E493C0E022C0E0C3E493960874011C
:101C0300939618400FE4936670080874019366185E
:101C130070007019A3A3C3E49396087401939618F4
:101C2300A3A3400DD0E0D0E0D0E0021BEAA3A3A31E
:101C3300A3A3A3D0E022C0E0C0F088F0E4936670D1
:101C4300080874019366187000A8F0A3A3700BD062
:101C5300F0D0E0D0E0D0E0021BEAA3A3D0F0D0E0C4
:101C630022C2AF02000022C0E074F2121A69A2AFCE
:101C7300E433FED2AFE589A2E04006E589A2E15054
:101C830003120795758900758900C2C5751A00EEA0
:101C9300F8EEA2E092AF7F01021AC8C0E0C0D0E81C
:101CA300C0E0E9C0E0A2AFE433F8D2AFC2C7751A0F
:101CB30000E8F9E8A2E092AFD0E0F9D0E0F8D0D0A4
:101CC300D0E03274F512197DEAFEEBFFEE2434F80E
:101CD300EF3400F988088909EE2435F582EF3400E2
:101CE300F583E0F8EE2437F582EF3400F583E0F571
:101CF3000AEC850AF0A4FCAAF0850AF0EDA42AFDFB
:101D0300E82CF8E43DF97A257B0012182FEA8508C0
:101D130082850983F0F8740758F97401B9000280C9
:101D230004C333D9FCFAE8131313541FF8EE28F84D
:101D3300EF3400F9E8245DF582E93400F583E05AD5
:101D43006008EE2434F582EF802CEE2434F582EF24
:101D53003400F583E0C0E0EE2436F582EF3400F57D
:101D630083E0F5F0D0E084A8F0EE28F8EF3400F932
:101D7300E82438F582E93400F583E0F97F04021A98
:101D83002974F512197DEAFEEBFFEE2434F582EF98
:101D93003400F583E0C0E0EE2435F582EF3400F53E
:101DA30083D0E0F08E828F83A3A3A3A3A3A3A3C0B6
:101DB30082C0838E828F83A3A3A3A3A3E0F8A3E0AF
:101DC300F9D083D082E0C398F508A3E099F509EE32
:101DD300247FF582EF3400F583E064017069EE241B
:101DE30080F582EF3400F583E0F8A3E0F98E828F6B
:101DF30083A3A3A3A3A3A3A3E0FCA3E0FD8E828FED
:101E030083A3A3A3A3A3E0FAA3E0FBC3EA9CEB9DF4
:101E13005010C3EC98ED99402EC3EA98EB995027E4
:101E2300800EC3EA98EB994007C3EC98ED994017ED
:101E33007CA17D07EEFAEFFB1210A1EE247FF58261
:101E4300EF3400F583E4F0EE2434F8EF3400F9E8DE
:101E5300FCE9FDEE2435F582EF3400F583E0F8EE7E
:101E63002437F582EF3400F583E0F50AE508850AA7
:101E7300F0A4F508AAF0850AF0E509A42AF509E813
:101E83002508F8E43509F97A257B0012182FEA8C26
:101E9300828D83F0F8740758F97401B90002800445
:101EA300C333D9FCFAE8131313541FF8EE28F8EFE1
:101EB3003400F9E8245DF582E93400F583E05A60E3
:101EC30008EE2434F582EF802CEE2434F582EF34CF
:101ED30000F583E0C0E0EE2436F582EF3400F583AD
:101EE300E0F5F0D0E084A8F0EE28F8EF3400F9E84C
:101EF3002438F582E93400F583E0F9122AFF021D44
:101F03007FC082C083851882851983E0F8A3E0F936
:101F1300C3EA9CEB9D5010C3EC98ED99401BC3EAB8
:101F230098EB995014800EC3EA98EB994007C3ECE1
:101F330098ED994004790180027900D083D0822200
:101F4300EAC39CFAEB9DFB2274EF12197D9006679E
:101F5300E064086005E06407702A9061C8E06024CB
:101F6300900695E0F4601DE0F875F003A4C8AAF0AC
:101F73002AF9749728FE740639FF8E828F83A3A3F0
:101F8300A3E0700302207B906060E0C0E0EE246871
:101F9300F582EF3400F583D0E0F0750C0A750D0877
:101FA300750800750900E5D914F50AE5D95403F558
:101FB3000E60177403650E605CE50A6010EE24671B
:101FC300F582EF3400F583E070030220609008058A
:101FD300E06401602AEE2482F582EF3400F583E0A9
:101FE3006004780480027800850A08E508C398FA3B
:101FF30095E0FB120F6F8A088B09EA4509700512F9
:1020030012A58074EE2482F582EF3400F583E0702C
:10201300048A0C8B0DE50A6012850C82850D83F50D
:102023000BE5D9F0A3150BE50B70F6EE2482F582D0
:10203300EF3400F583E0604474FC250AF50A780C5C
:10204300121B24AC0AA90EEEFAEFFB12113D740227
:102053001218D0E97026AA08AB091207F5793D8E4C
:10206300828F83A3A3A3A3E0FA7B00120E43EEFAAD
:10207300EFFB1210B912114F790080747403650ECF
:102083006056850A107511007810121B24AC0CAD34
:102093000DAA08AB0912111974021218D0EE2468A4
:1020A300F582EF3400F583E064807004747F80016F
:1020B300E0F50C780C121B28E50EF50C780C121BBE
:1020C30028A90AAC08AD09900695E0FA7B00120E28
:1020D3000774021218D08013900667E06408600B3F
:1020E300AC0CAD0DEEFAEFFB1211A91212B179018E
:1020F3007F0A021A2974F512197D74FC1218BAEAC0
:10210300FEEBFF8908A2AFE433F509C2AF806AEEA4
:102113002463F8EF3400F97A007B00A2AFE433F5CF
:102123000AC2AF88828983E0FCA3E0FDEC4D603AEC
:1021330088828983E0FAA3E0FB8A828B83E0FCA395
:10214300E0FD88828983ECF0A3EDF08A828B83E43F
:10215300F0A3F088828983E0FCA3E0FDEC4D700AD4
:1021630088828983A3A3E4F0A3F0E50AA2E092AFF7
:102173001207F59007A8E004F0EE2463F582EF342C
:1021830000F583E0F8A3E0F9E849603DEE2463F548
:1021930082EF3400F583E02402FAA3E03400FBEA83
:1021A3002402F50AEB3400F50B780A121B248A8209
:1021B3008B83E0FCA3E0F9EEFAEFFB1210DD74026F
:1021C3001218D0E970030221129007A8E06063900F
:1021D30007A9E0F89007A8E0C398500C74026508BB
:1021E30070509007AAE0604A8E828F83A3A3A3A3B3
:1021F300E0851882851983F0A3E4F09007A8E0F83E
:102203007402121905E8F0A3E4F09007A8E0F8902F
:1022130007A7E028F07402121905AC82AD83851874
:1022230082851983AA82AB837901120E139007A8C2
:10223300E4F0E509A2E092AF74041218D0021D7F06
:10224300008521878522C622C0E0C0D0E8C0E0E92E
:10225300C0E0EAC0E0EBC0E0ECC0E0EDC0E0EEC0FF
:10226300E0C008C009C00AC00BC082C083C0F0A28E
:10227300AFE433FEC2AF759B00906182E0A2E050F1
:1022830012E591A2E0500C7591FE74016521700373
:10229300121F4BE0A2E55051E591A2E5504B759119
:1022A300DF900667E064076005E06408702374014B
:1022B300652170357901900695E0FA75F003A4CA9B
:1022C300A8F028FB74972AFA74063BFB1220F880C7
:1022D30018E0640D7013900689E004F0642870021E
:1022E300E4F07A00E0F91212B7906182E0A2E640CE
:1022F30003022392E591A2E640030223927591BF64
:10230300900667E0640570081211DF1211EB800379
:102313001211E5752100121245E9900668F0790063
:102323001212391210177A017B00900666E0F91237
:102333000495907803E064427055900809E014F026
:10234300704DC2AF12234A00782AD0E0F618D0E0CD
:10235300F6E59F540770057509FF800375097FC46F
:10236300C0E07829E6F50808E65509F509740B7805
:1023730008121898D0E02508F8906270E0A2E740B0
:10238300F8E8C333906272F0906270E0D2E0F090AC
:102393006181E0A2E35009E5E9A2E3500375E9F79F
:1023A300A3E0A2E75009E591A2E7500375917FEE00
:1023B300A2E092AFD0F0D083D082D00BD00AD00964
:1023C300D008D0E0FED0E0FDD0E0FCD0E0FBD0E0D0
:1023D300FAD0E0F9D0E0F8D0D0D0E032C0E0C0D0FD
:1023E300C082C083906183E0A2E05009E5BFA2E010
:1023F300500375BFFEE0A2E15009E5BFA2E150031F
:1024030075BFFDE0A2E25009E5BFA2E2500375BF2C
:10241300FBE0A2E35009E5BFA2E3500375BFF7E079
:10242300A2E45009E5BFA2E4500375BFEFE0A2E5C3
:102433005009E5BFA2E5500375BFDFE0A2E65009EE
:10244300E5BFA2E6500375BFBFD083D0828088C0AA
:10245300E0C0D0E8C0E0E9C0E0EAC0E0EBC0E0ECF7
:10246300C0E0EDC0E0C0F0E5A7A2E6500FE5A1A2F1
:10247300E6500953A7BF75A1BF1224B7E5A7A2E58C
:10248300500CE5A1A2E5500653A7DF75A1DFE5A730
:10249300A2E15009E5A1A2E1500375A1FDE5A7A2C0
:1024A300E2500CE5A1A2E2500653A7FB75A1FBD0B5
:1024B300F00223C874F812197D752101900667E0B4
:1024C3006406701512116D8A828B83A3A3A3A3A341
:1024D300A3E0FAA3E0FB1211CDA2AFE433FED2AF27
:1024E30090066DE0640170187A207B00900666E028
:1024F300F912053D7A207B00900666E0F912049BF1
:10250300906182E0D2E6F0900806E0602185C62261
:10251300801690066CE064017008E5C654F8440523
:10252300F5C653BEFC1222447401652160E4EEA299
:10253300E092AF7F01021A29008E238F248582281F
:10254300858327851882851983E0CEA3E0CF85286C
:1025530082852783EBC9EAC8EDCBECCA75F010C3BB
:10256300E833C8E933C9EA33CAEB33CBC3EA9EF590
:1025730026EB9FF525B35004AB25AA26EC33CCED0F
:1025830033CDD5F0DAAE23AF242274E912197D746A
:10259300F81218BA851882851983ECF0A3EDF08A36
:1025A300088B09900667E024F7C394055006750865
:1025B3000102272412116D8A0A8B0BAE0AAF0BEEB0
:1025C3004F7003022721AC08AD097402121905AA42
:1025D30082AB831211FD8E828F83A3A3750CFF75CB
:1025E3000DFF750EFF750F00780C12175174021250
:1025F30019057510FF7511FF7512FF75130078101B
:10260300121751780C79101214E5502A780C7910AE
:102613001216FE7508017509C8750A00750B007856
:1026230008790C1214E55052850C08850D09850EA6
:102633000A850F0B80507514017515C87516007542
:10264300170085100885110985120A85130B780870
:10265300790C1216FE781479081214E5401C7508DB
:1026630000750900750A00750B01780879101216B8
:10267300FE7808790C1216C5800C750801750900DF
:10268300750A00750B00740978081216A6750C19E3
:10269300F50DF50EF50F7808790C1215A48E828FBF
:1026A30083A3A3A3A3A3A3E0F8A3E0F97AD07B03B6
:1026B30012182F880C890DE4F50EF50F7808790CA4
:1026C3001216C57406121905E0F8A3E0F97AD07B57
:1026D3000312182FE8FA8A0CE4F50D7808790C1226
:1026E30014E550077808790C1216FE900667E0642B
:1026F30008600AE064066005E06405702D750C0D42
:10270300780C79081214E54021750CF4750DFF75EA
:102713000EFF750FFF7808790C1216C5800C75082B
:1027230000750900750A00750B00851882851983E9
:10273300E0F8A3E0F58388827808121799740812E9
:1027430018D07F10021A2974F712197D12120F90F4
:102753000804E064017010906245E4F0A3F053F4C0
:10276300F343FE0C5390F31211BBE5C65480444966
:10277300F5C6E59E547F644970F8906185740FF047
:10278300900802E0F47002A3E0604E900803E0605A
:102793000814601B14602E804075080175090090B1
:1027A3000802E078081218A7E508F45280802A7519
:1027B3000801750900900802E078081218A7E508D7
:1027C300F452908014750801750900900802E078AE
:1027D300081218A7E508F452A079007F02021A290B
:1027E30074F712197DE9FEEAFF74016E700C7A80AA
:1027F3007B00900666E0F9120495902B10E493F4A5
:102803006008E493F912100B800953C680E59E54C7
:102813007F70FA1211C1900804E064017003121072
:1028230023900802E0F47002A3E0604B900803E0F9
:10283300600814601A14602C803D75080175090046
:10284300900802E078081218A7E5084280802875EE
:102853000801750900900802E078081218A7E50836
:1028630042908013750801750900900802E078080A
:102873001218A7E50842A012120F12116D8A088BD5
:1028830009A808A909E8496015E5E170FCE82414E2
:10289300F582E93400F583E0F46003E0F5E17401C7
:1028A3006F700A7A01900666E0F912050D0227DEC1
:1028B30074ED12197D8A088B098C0A8D0B7413121F
:1028C3001905780C12178A7808790C1214E575101B
:1028D300017511C875120075130050127808790C30
:1028E3001216FE781079081214E550168010780C31
:1028F30079081216FE7810790C1214E54004790158
:10290300800279007F0C021A2974ED12197D8A085E
:102913008B098C0A8D0B7413121905780C12178A04
:10292300780C79081214E540117808790C1216FE18
:10293300AA08AB09AC0AAD0B802275100075110013
:102943007512007513017810790C1216FE78107940
:10295300081216C5AA10AB11AC12AD1380A68A8259
:102963008B837508FF7509FF750AFF750B007808DF
:102973001217647F04021A2974F512197D8C828D53
:1029830083780812178A8A828B83780812172AEAB7
:102993002404F8EB3400F98C828D83A3A3A3A3E072
:1029A300FCA3E0FD88828983C3E09CF0A3E09DF053
:1029B30088828983C3E09420A3E0944E40268A82D0
:1029C3008B837508FF7509FF750AFF750BFF780880
:1029D3001216EB8A828B83A3A3A3A3E02420F0A384
:1029E300E0344EF002296174F512197DE9FE900777
:1029F300BCE0FAA3E0FBEEC333F8E433F974322806
:102A0300F582748139F583E02AF508A3E03BF509E3
:102A13007808121B247A407B427C0F7D0012253CF0
:102A230074021218D08A088B098C0A8D0B741078E3
:102A33000812168DAA08AB097F04021A2974F11231
:102A4300197D8A0C8B0D8C0E8D0F740F121905E0F6
:102A5300FAA3E0FB7411121905E0F508A3E0F509E8
:102A63007808121B24EA2401F508EB3400F509E485
:102A7300F50AF50B780C7908121524750871750998
:102A830002780C7908121524AA0CAB0DAC0EAD0F0D
:102A930012253C74021218D08B09EA450960047AA6
:102AA3000180027A00EC2AFCED3400FD7413121944
:102AB30005E0F8A3E0F9E8FEE9FFECF8EDF97A7137
:102AC3007B0212182F880889098E828F8378081257
:102AD3001799ECF8EDF97A717B0212182F8A088B9B
:102AE30009740578081218A78E828F83A3A3A3A362
:102AF300E508F0A3E509F07F08021A29C082C08324
:102B0300E9906000F0D083D08222020135FFFFFFFD
:102B1300FFFFFFFFFF74EE12191174FA1218BA8A3D
:102B23000A8B0B8909ECFEEDFF750800850A0C85FD
:102B33000B0D780C121B68000410F12D612B822BF6
:102B4300A12BC22BE32B042C372C582C6F2C9D2C40
:102B53005B2D7C2D9C2DC62DF12DF12DC82C7401E0
:102B6300650970158E828F83E0C39403500B8E82A8
:102B73008F83E0900BBCF08003750818022E1A7443
:102B830002650970138E828F83E0F8A3E0F9900B3E
:102B9300BDE8F0A3E9F08003750818022E1A74014A
:102BA300650970158E828F83E0C39402500B8E8269
:102BB3008F83E0900343F08003750818022E1A7484
:102BC30001650970158E828F83E0C39405500B8EC7
:102BD300828F83E0900344F08003750818022E1A55
:102BE3007401650970158E828F83E0C39402500BC4
:102BF3008E828F83E0900345F08003750818022EC0
:102C03001A741065097027750C10750D00780C1275
:102C13001B24EEFCEFFD7A467B031204417402127F
:102C230018D08A0C8B0D850C82850D838003750863
:102C330018022E1A7401650970158E828F83E0C302
:102C43009402500B8E828F83E0900356F0800375BD
:102C53000818022E1A74016509700B8E828F83E0A7
:102C6300900BC0F08003750818022E1A74046509CE
:102C730070229081E4780C12178A8E828F83780CED
:102C83001214F5500F8E828F831217A890035812D7
:102C930017B48003750818022E1AE5097021120B68
:102CA3007FE970131206D5E9F50C7950120885E90E
:102CB300F50D1206C3800B9003EB7401F0800375CE
:102CC3000818022E1A740765096003022D55750E44
:102CD30006750F00780E121B248E828F83A3AC829D
:102CE300AD837402121905AA82AB831204477402DE
:102CF3001218D08A108B1185100E85110F7C007D60
:102D030000851882851983AA82AB838E828F83E024
:102D1300F9120663E9F50CE50CC3940A502F120B64
:102D23007FE97015A90C1206DBE9F50D795012083D
:102D330085E9F50E1206C3801C750D0074EC250C95
:102D4300F5827403350DF5837401F080087508026C
:102D53008003750818022E1A7401650970158E8296
:102D63008F83E0C39402500B8E828F83E0900357CE
:102D7300F08003750818022E1A7401650970158E08
:102D8300828F83E0C3940A500B8E828F83E0900B73
:102D9300BFF08003750818807E74016509701F8E6B
:102DA300828F83E0C3940740158E828F83E0C394A0
:102DB30011500B8E828F83E0900BC1F08059750800
:102DC3001880547401650970209003EAE0F50C8EB5
:102DD300828F83E09003EAF0E50C703B9003EAE016
:102DE300640170331206C3802E7508188029C3E569
:102DF3000A9427E50B9400501B7402650970158E25
:102E0300828F83E0FCA3E0FDAA0AAB0B120A1DE943
:102E1300F5088003750802A90874061218D07F0A02
:102E23000219E374EC12191174DA1218BA890D8AB3
:102E3300128B138C0A8D0B743A121905E0F50C9062
:102E4300816CC082C083851882851983AC82AD836F
:102E5300D083D08274061217CD851882851983AC6E
:102E630082AD83AA12AB13A90D120663E9FEEEC36A
:102E7300940A4003022FC5EEF91206A5E9FF900B51
:102E8300BCE064027004740180027400F5087808E1
:102E9300121B28AD0CEFFCEEF9AA0AAB0B120717B5
:102EA30074011218D07C147D007900741212190574
:102EB300AA82AB831204598A0E8B0F850E08850FE5
:102EC300097412121905AC82AD837A1075F006EEFF
:102ED300A42424F912087FE970437C1079FF74124B
:102EE300121905AA82AB831204B9E9703074221255
:102EF3001905AC82AD837A0475F006EEA42425F996
:102F030012087FE9F5087412121905AC82AD83EF3C
:102F1300A2E0E433F9AA0AAB0B120AA7E97406127A
:102F23001905AC82AD837A0C74702EF912087FE90F
:102F3300707E7406121905AA82AB83120699750E68
:102F430000E50EC394045068E50EA80E7900E875F9
:102F5300F003A4C8AAF075F000A42AFA75F003E9F7
:102F6300A42AF97406121905E58228F508E58339C0
:102F7300F509850882850983E0F8A3E0F9E849604B
:102F83002B850882850983A3A3E0F51075110078CA
:102F930010121B24850882850983E0FCA3E0FDAAA7
:102FA3000AAB0B120D5974021218D0E9050E809169
:102FB300EFA2E1500D900342E0F9AA0AAB0B120D08
:102FC3005FE97404650C700F900BBCE0640270073A
:102FD300AA0AAB0B120711790074261218D07F0CC2
:102FE3000219E374F2121911890BEAFEEBFF8C0844
:102FF3008D09750A0AE50B600C146009146044140A
:10300300606402308AEEFAEFFB1206B7E9F50AE5CF
:103013000AC3940A5071E5084509606B750C06757F
:103023000D00780C121B24EEFCEFFDAA08AB09126D
:10303300044174021218D08A0C8B0D850C82850D05
:10304300838044EEFAEFFB1206B1E9F50AE50AC301
:10305300940A5033E5084509602DAA08AB09A90A6B
:103063001206ABE98021EEFAEFFB1206BDE9F50A81
:10307300E50AC3940A5010E5084509600AAA08AB9B
:1030830009A90A1206ABE9A90A7F060219E374F239
:103093001219118A0C8B0DE9FE7F1574FF650C70F4
:1030A3000474FF650D702A750800E508C3940A507F
:1030B30014EEFC7A027B00A908120687E960027FFE
:1030C30000050880E5EE60637AFF7B06120F5180EE
:1030D3005AAA0CAB0D120F338A0A8B0B850A08858B
:1030E3000B09E508450960417C007D00E5082405DE
:1030F300FAE5093400FB850882850983A3A3A3A30A
:10310300E0F9120663E9F50AE50AC3940A500EEEE4
:10311300FC7A027B00A90A120687E97F00EE600BA6
:10312300AA08AB091206FF80027F14EFF97F06029B
:1031330019E374EE1219118A0E8B0F8C0A8D0B741E
:1031430012121905E0F50CA3E0F50D75081574FFCF
:10315300650E700474FF650F701E7E00EEC3940A43
:103163005062AC0CAD0DAA0AAB0BEEF912068DE959
:1031730060037508000E80E4AA0EAB0F120F338AAA
:10318300108B11AE10AF11EE4F60367C007D00EE58
:103193002405FAEF3400FB8E828F83A3A3A3A3E05D
:1031A300F9120663E9F509E509C3940A5016AC0C54
:1031B300AD0DAA0AAB0BA90912068DE975080080AB
:1031C30003750814A9087F0A0219E374F712191189
:1031D300EAFEEBFF90035CEEF0A3EFF0900342E016
:1031E300FC7D007A267B00120A1DE9F50890034254
:1031F300E0F9120CDB7F010219E374EE1219118A54
:10320300108B11E9FE7412121905780C12178A7FBC
:1032130000EE7041850C08850D09850E0A850F0B9C
:103223009081E4780C12178A7808790C1215A47827
:1032330010121B24AA0CAB0DAC0EAD0F120AB974FD
:10324300021218D0E9FFEF60167901AA10AB111230
:103253000AB3E9800AEEF9AA10AB11120AB3E9EF37
:10326300F97F0A0219E374F212191174EC1218BAF5
:103273008A0A8B0B850A82850B83A3A3E024FA7049
:10328300030236C924FD700302353F147003023371
:103293005C14601024FD70030234E71470030235DC
:1032A3007F023737AE0AAF0B90035CE0F8A3E0F977
:1032B300E849606990035CE0F8A3E0F5838882E065
:1032C300F8A3E0F9E8496055EE240CF582EF3400E9
:1032D300F583E0F5087808121B28EE240BF582EF3E
:1032E3003400F583E0F98E828F83A3A3A3A3A3A362
:1032F300A3A3A3E0FCA3E0FDEE2403FAEF3400FB59
:1033030090035CE0F8A3E0F5838882E0F8A3E0F59E
:1033130083888212190F74011218D080398E828F1C
:1033230083A3A3A3A3A3A3A3A3A3121B3B90035809
:103333001217A8120AB974021218D0E96018790199
:103343008E828F83A3A3A3A3A3A3A3A3A3E0FAA320
:10335300E0FB120AB3E9023737AE0AAF0B8E828F56
:1033630083A3E060030234958E828F83A3A3A3A378
:10337300A3E0A2E040030234959003F6E0F8A3E053
:10338300F9E84960030234957C0E7D0079008518C5
:1033930082851983AA82AB831204598A088B09AAEE
:1033A30008AB09EE240CF582EF3400F583E0F8A3B3
:1033B300E0F9E849603B7508067509007808121BB7
:1033C30024EE240CF582EF3400F583E02410FCA3F3
:1033D300E03400FD7402121905AA82AB8312044182
:1033E30074021218D08A088B0985088285098380A4
:1033F300548E828F83A3A3A3E0FAA3E0FB120F33BF
:103403008A0C8B0D850C08850D09E508450960328A
:10341300750C06750D00780C121B24E5082405FCB9
:10342300E5093400FD7402121905AA82AB83120464
:103433004174021218D08A0C8B0D850C82850D8382
:1034430080030237378E828F83A3A3A3A3A3E0A2B3
:10345300E25004D2F08002C2F0A2F0E433F8790023
:10346300740C121905E048F0A3E049F0EEFCEFFDFF
:10347300851882851983AA82AB8312069FE970128D
:103483007A027B00900342E0F9120495E979000285
:10349300373990035CE0F8A3E0F9E849604390030F
:1034A3005CE0F8A3E0F5838882A3A3E0F8A3E0F946
:1034B300E849602D8E828F83A3E0FC79018E828F91
:1034C30083A3A3A3E0FAA3E0FB90035CE0F8A3E0EB
:1034D300F5838882A3A3E0F8A3E0F5838882121919
:1034E3000F023737AE0AAF0B90035CE0F8A3E0F9A5
:1034F300E849604590035CE0F8A3E0F5838882A384
:10350300A3E0F8A3E0F9E849602F850A82850B83DD
:10351300A3E0FC79028E828F83A3A3A3E0FAA3E046
:10352300FB90035CE0F8A3E0F5838882A3A3E0F8B3
:10353300A3E0F583888212190F023737AE0AAF0B67
:103543007C007D00EE2404FAEF3400FB8E828F832F
:10355300A3A3A3E0F9120663E9F508E508C3940AF7
:103563005017EE240AFCEF3400FD7A0475F006E5EB
:1035730008A42425F9120879E9023737AE0AAF0BFC
:10358300900357E06018900BBFE0F98E828F83A3FE
:10359300A3A3E0FAA3E0FB120AB3E9023737900BC7
:1035A300BCE0701579058E828F83A3A3A3E0FAA3F1
:1035B300E0FB120AB3E90237378E828F83A3A3A3FA
:1035C300E0FAA3E0FB120F338A0C8B0D850C088500
:1035D3000D098E828F83A3A3A3A3A3A3A3E0A2E0D9
:1035E3005075E5084509606C850882850983A3A3A6
:1035F300A3A3E060628E828F83A3A3A3A3A3A3A349
:10360300A3A3E0F8A3E0F9E8C4540FF87900540148
:10361300F8E95400F9E8A2E0403D740E121905AC34
:1036230082AD83E5082405FAE5093400FB850882A9
:10363300850983A3A3A3A3E0F9120663E9701879AC
:10364300038E828F83A3A3A3E0FAA3E0FB120AB342
:10365300E9023737023737EE2405FCEF3400FD85E6
:103663000882850983A3A3A3A3E0F98E828F83A392
:10367300A3A3E0FAA3E0FB12070B90035CE0F8A31B
:10368300E0F9E849603E90035CE0F8A3E0F5838845
:1036930082A3A3E0F8A3E0F9E84960287C0079005D
:1036A3008E828F83A3A3A3E0FAA3E0FB90035CE0E5
:1036B300F8A3E0F5838882A3A3E0F8A3E0F5838869
:1036C3008212190F806E120B7FE970689003EBE092
:1036D3006401701A1206D5E9FE9003EB7400F07CC6
:1036E3000A7D0079007AEC7B03120459803C7E004A
:1036F300EEC3940A50348E0875090074EC2508F55E
:103703008274033509F583E06401701BEEF9120638
:10371300DBE9F88E0875090074EC2508F58274035B
:103723003509F5837400F00E80C67950120885E9D7
:10373300FE1206C3790174141218D07F060219E32E
:1037430074F312191174F21218BA8909EAFEEBFF25
:103753008C0C851882851983AC82AD837A0E75F043
:1037630006E509A42420F912087FE970727C067922
:10377300FF851882851983AA82AB831204B9E97085
:103783005E740C121905E0F8A3E0F9E8F508E50CFE
:103793006005EE42088004EEF4520885080A750BB2
:1037A30000740C121905E0650A7004A3E0650B6050
:1037B3002AE508A8087900740C121905E508F0A396
:1037C300E9F0851882851983AC82AD837A0E75F092
:1037D30006E509A42420F9120879E9790180027920
:1037E30000740E1218D07F050219E374F012191138
:1037F30074E61218BA890B8A0C8B0DECFEEDFF747C
:103803000C121905AC82AD837A0E75F006E50BA494
:103813002420F912087FE960030239527C0679FFFC
:10382300740C121905AA82AB831204B9E96003026E
:103833003952851882851983AC82AD837A0C7470F2
:10384300250BF912087FE9600302394E750A0085DA
:103853001882851983AA82AB83120699E50C450D5C
:10386300703A7C0C7900851882851983AA82AB8310
:103873001204B9E960030239287C0C7D00790085C4
:103883001882851983AA82AB831204598A088B098B
:10389300850882850983750A01023928851882857E
:1038A3001983AC82AD83AA0CAB0D1206938A0E8BDF
:1038B3000F850E08850F09E50845097036EE4F6040
:1038C30021851882851983AC82AD837A007B00122F
:1038D30006938A0E8B0FA80EA90F88088909E84959
:1038E30070047900806B850882850983E50CF0A359
:1038F300E50DF0850882850983A3A3E0F87900EE3E
:10390300687002EF69601EEE850882850983A3A3B0
:10391300F0EE4F700D8508828509837400F0A3745F
:1039230000F0750A01E50A6022851882851983AAC9
:1039330082AB83120699851882851983AC82AD8385
:103943007A0C7470250BF9120879E97901800279F0
:1039530000741A1218D07F080219E374F7121911B0
:10396300EAFEEBFF7B00EBC39404504EEBF87900C7
:10397300E875F003A4C8AAF075F000A42AFA75F05C
:1039830003E9A42AF9EC28F582ED39F583E06E709A
:1039930003A3E06F7021EBF87900E875F003A4C886
:1039A300AAF075F000A42AFA75F003E9A42AF9EC49
:1039B30028FAED39FB80070B80AC7A007B007F018E
:1039C3000219E374F71219117F00EFC39404400343
:1039D300023A75EFF87900E875F003A4C8ACF07506
:1039E300F000A42CFC75F003E9A42CF9EA28F58275
:1039F300EB39F583E0F4FCA3E0F4FDEFF87900E89C
:103A030075F003A4C8AEF075F000A42EFE75F003A4
:103A1300E9A42EF9EA28F582EB39F583ECF0A3ED5E
:103A2300F0EFF87900E875F003A4C8ACF075F00086
:103A3300A42CFC75F003E9A42CF9EA28F582EB39F0
:103A4300F583A3A3E0F4C0E0EFF87900E875F00391
:103A5300A4C8ACF075F000A42CFC75F003E9A42C09
:103A6300F9EA28F582EB39F583A3A3D0E0F00F023E
:103A730039CD7F010219E374F012191174F412188D
:103A8300BAEAFEEBFF8C088D099003F6E0F8A3E099
:103A9300F9E849702CEE4F6006E508450970057991
:103AA30001023D32EEFAEFFB1206B7E9900BC2F0CA
:103AB300900BC2E0C3940A40081206C9E9900BC2F6
:103AC300F0900BC2E0C3940A4003023D309003F62A
:103AD300E0F8A3E0F9E8496003023B7CEEFCEFFD6C
:103AE3007A0E75F006900BC2E0A42420F91208792F
:103AF300E9F50C7C0C7D0079FF851882851983AA72
:103B030082AB831204598A0E8B0F850E0A850F0B25
:103B1300851882851983AC82AD837A0C900BC2E041
:103B23002470F9120879E9F50D750E0E750F0078FA
:103B33000E121B24EEFCEFFD900BC2E0F87900E8B7
:103B430075F00EA4C8AAF075F000A42AFA75F00E59
:103B5300E9A42AF9745E28FA740339FB1204417448
:103B6300021218D08A0E8B0FA80EA90F9003F6E548
:103B730008F0A3E509F0023D2C9003F6E0F8A3E07A
:103B8300C82406F582E83400F583E0F8A3E0F9E8F9
:103B93004960439003F6E0F8A3E0C82406F582E801
:103BA3003400F583E0FCA3E0FD7A1B75F006900B6F
:103BB300C2E0A42421F9120879E9F89003F6E0F9A8
:103BC300A3E0C92406F582E93400F5837400F0A369
:103BD3007400F0023D2C9003F6E0F8A3E0C8240A39
:103BE300F582E83400F583E0F8A3E0F9E84960439F
:103BF3009003F6E0F8A3E0C8240AF582E83400F560
:103C030083E0FCA3E0FD7A1B75F006900BC2E0A4F1
:103C13002422F9120879E9F89003F6E0F9A3E0C940
:103C2300240AF582E93400F5837400F0A37400F0EC
:103C3300023D2C9003F6E0F8A3E0C8240CF582E8DB
:103C43003400F583E0F8A3E0F9E84960439003F614
:103C5300E0F8A3E0C8240CF582E83400F583E0FC27
:103C6300A3E0FD7A1075F006900BC2E0A42423F9BB
:103C7300120879E9F89003F6E0F9A3E0C9240CF5FA
:103C830082E93400F5837400F0A37400F0023D2C44
:103C93009003F6E0F8A3E0C82408F582E83400F5C1
:103CA30083E0F8A3E0F9E849606F9003F6E0F8A336
:103CB300E0C82408F582E83400F583E0FCA3E0FDC6
:103CC3007A1075F006900BC2E0A42424F912087947
:103CD300E9F50A9003F6E0F8A3E0C82408F582E8C2
:103CE3003400F583E02410FCA3E03400FD7A04756E
:103CF300F006900BC2E0A42425F9120879E9F890A4
:103D030003F6E0F9A3E0C92408F582E93400F5835A
:103D13007400F0A37400F080109003EAE0600312D3
:103D2300071D120705790180067900800279017465
:103D33000C1218D07F080219E374F712191174F2E8
:103D43001218BAE9FE851882851983AC82AD837A8D
:103D53000E75F006A42420F912087FE9700E740C86
:103D6300121905E0F8A3E0F9E8F980027900740E6E
:103D73001218D07F010219E374F412191174F212AC
:103D830018BA8909EAFEEBFFE509C3940A5004EE69
:103D93004F70047902804B851882851983AC82ADFC
:103DA300837A0E75F006E509A42420F912087FE949
:103DB300F508E508702A750A06750B00780A121BC8
:103DC300247402121905AC82AD83EEFAEFFB1204E0
:103DD3004174021218D08A0A8B0B850A82850B83E1
:103DE300A908740E1218D07F040219E374F412198F
:103DF30011EAFEEBFF750800E508C3940A50457508
:103E03000A06750B00780A121B24EEFCEFFDE50889
:103E1300A8087900E875F00EA4C8AAF075F000A40C
:103E23002AFA75F00EE9A42AF9746428FA7403399E
:103E3300FB12045374021218D0E96004A908800627
:103E4300050880B4790A7F040219E374F412191186
:103E5300EAFEEBFF750800E508C3940A5045750AAE
:103E630006750B00780A121B24EEFCEFFDE508A88B
:103E7300087900E875F00EA4C8AAF075F000A42A2A
:103E8300FA75F00EE9A42AF9745E28FA740339FB73
:103E930012045374021218D0E96004A908800605BD
:103EA3000880B4790A7F040219E374F712191174B4
:103EB300F01218BAEAFEEBFF750800E508C3940A8E
:103EC300504B851882851983AC82AD837A1075F0C7
:103ED30006E508A42423F912087FE9702C7C1079E5
:103EE300FF851882851983AA82AB831204B9E9700E
:103EF30018EEFCEFFD851882851983AA82AB831225
:103F03000A89E97004A9088006050880AE790A7455
:103F1300101218D07F010219E374F41219117508F5
:103F230000E508C3940A4003023FFEE508A80879A8
:103F330000E875F00EA4C8AAF075F000A42AFA757B
:103F4300F00EE9A42AF9745E28FC740339FD7A0E95
:103F530075F006E508A42420F912087FE97003022E
:103F63003FF97C067D0079FFE508AA087B00EA7526
:103F7300F00EA4CAA8F075F000A428F875F00EEBB3
:103F8300A428FB745E2AFA74033BFB1204598A0AC1
:103F93008B0BAE0AAF0B7C067D0079FFE508AA0800
:103FA3007B00EA75F00EA4CAA8F075F000A428F807
:103FB30075F00EEBA428FB74642AFA74033BFB121E
:103FC30004598A0A8B0BAC0AAD0BE508A8087900E3
:103FD300E875F00EA4C8AAF075F000A42AFA75F0EB
:103FE3000EE9A42AF9746A28F582740339F58374F7
:103FF30000F0A37400F00508023F249003EAE06098
:104003000312071D1207057F040219E374F712193F
:10401300117E00EEC3940A50327C0679FFEEFA7BE0
:1040230000EA75F00EA4CAA8F075F000A428F8758C
:10403300F00EEBA428FB745E2AFA74033BFB120414
:10404300B9E96004EEF980050E80C8790A7F0102A0
:1040530019E374F71219117E007F00EFC3940A501D
:104063002F7C0679FFEFFA7B00EA75F00EA4CAA84D
:10407300F075F000A428F875F00EEBA428FB745E2D
:104083002AFA74033BFB1204B9E970010E0F80CBCB
:10409300EEF97F010219E374F71219117E007F0014
:1040A300EFC3940A500DEE700AEFF91206DBE9FE36
:1040B3000F80EDEEF97F010219E374F01219117408
:1040C300CB1218BA8909900BC2E06509701D7A01F9
:1040D3007B00900342E0F912049BE97A027B009093
:1040E3000342E0F912049BE9120729742712190508
:1040F300AC82AD837A0E75F006E509A42420F9128B
:10410300087FE960030242297C0679FF74271219AC
:1041130005AA82AB831204B9E960030242297C0E2B
:104123007D0079FF7427121905AA82AB8312045903
:104133008A0A8B0B850A0C850B0D7C1B7D0079FF8E
:10414300740C121905AA82AB831204598A0E8B0FC1
:10415300850E0A850F0B7C0C7D0079FF85188285FF
:104163001983AA82AB831204598A0E8B0FAE0EAF4A
:104173000F7427121905AC82AD837A0E75F006E52C
:1041830009A42420F9120879E9F508740C12190519
:10419300AC82AD837A1B75F006E509A42421F912DC
:1041A3000879E94208740C121905AC82AD837A1BB5
:1041B30075F006E509A42422F9120879E942087486
:1041C3000C121905AC82AD837A1075F006E509A4CB
:1041D3002423F9120879E94208740C121905AC82F8
:1041E300AD837A1075F006E509A42424F912087941
:1041F300E94208740C121905AC82AD837A0475F098
:1042030006E509A42425F9120879E94208851882EC
:10421300851983AC82AD837A0C74702509F9120871
:1042230079E942088003750800A90874351218D08B
:104233007F080219E374F7121911E9FE900342F0A3
:104243001206C37F010219E374F2121911890AEAF3
:10425300FEEBFFEE5400F8EF5480F9E84960359027
:104263000342E0F912047D8A0C8B0DA80CA90D887A
:10427300088909E8496012AA08AB091206EDE9604A
:1042830008AA08AB0912046BE9EE6400FAEF648034
:10429300FB02434FEE5402602D7C007D007A007BCD
:1042A3000012069FE960187A017B00900342E0F94F
:1042B300120495E9EE6402FAEF6400FB02434F7ABD
:1042C300027B0002434FEEA2E0507D9003F6E0F83C
:1042D300A3E0F5838882A3A3A3E0FAA3E0FB12077C
:1042E30023E9605E90035CE0F8A3E0F9E8496045E8
:1042F30090035CE0F8A3E0F5838882A3A3E0F8A32E
:10430300E0F9E849602F7C0079019003F6E0F8A317
:10431300E0F5838882A3A3A3E0FAA3E0FB90035C08
:10432300E0F8A3E0F5838882A3A3E0F8A3E0F58394
:10433300888212190F120729EE6401FAEF6400FB59
:10434300800A7A017B0080047A007B007F060219D1
:10435300E374F7121911EAFEEBFF7508018E828FE1
:1043630083E02450601314601924E1701CEEFAEF0B
:10437300FB120681E9F5088010EEFAEFFB1206F353
:104383008007EEFAEFFB1206F9A9087F010219E391
:1043930074F7121911EAFEEBFF8E828F83A3A3A396
:1043A300A3E0641E701179008E828F83A3A3E0FAC9
:1043B300A3E0FB120669E97F010219E374F61219FF
:1043C30011EAFEEBFF8E828F83A3A3A3A3E0703ACF
:1043D3008E088F09850882850983A3A3A3A3A3A3BA
:1043E300A3121B3B850882850983A3A3A3A3A3E090
:1043F300FCA3E0FD850882850983A3A3E0FAA3E07B
:10440300FB12066F74021218D0E97F020219E374DB
:10441300F7121911EAFEEBFF900342E0F98E828F47
:1044230083A3E0FAA3E0FB120D5FE97F010219E326
:10443300C082C08374FF1218BA1206CFE9C3940274
:10444300400B8518828519837402F08009851882D0
:10445300851983740AF0851882851983AC82AD832C
:104463007A017905120B97E974011218D0D083D021
:104473008202013574F212191174E81218BAEAFEB5
:10448300EBFF890A8C088D097C187D00790085185B
:1044930082851983AA82AB831204598A0C8B0DACD3
:1044A3000CAD0D851882851983EEF0A3EFF0900310
:1044B30044E0C0E07402121905D0E0F0900345E037
:1044C300C0E07403121905D0E0F0900BC1E0C0E026
:1044D3007417121905D0E0F07415121905E054FE93
:1044E300F8A3E054FFF9900BC0E0A2E0E433FA7BB9
:1044F30000E84AF8E94BF97415121905E8F0A3E945
:10450300F0900BC0E0A2E15004D2F08002C2F0743C
:1045130015121905E054FDFAA3E054FFFBA2F0E4E1
:1045230033F87900C333F8E933F9EA48F8EB49F98A
:104533007415121905E8F0A3E9F0900BC0E0A2E3AB
:104543005004D2F08002C2F07415121905E054F73A
:10455300FAA3E054FFFBA2F0E433F50C750D0074ED
:1045630003780C1218A7EA450CF8EB450DF97415FE
:10457300121905E8F0A3E9F0900BC0E0A2E450049F
:10458300D2F08002C2F07415121905E054EFFAA3B9
:10459300E054FFFBA2F0E433F50C750D00740478CE
:1045A3000C1218A7EA450CF8EB450DF9741512190E
:1045B30005E8F0A3E9F0900BC0E0A2E55004D2F0C7
:1045C3008002C2F07415121905E054DFFAA3E05417
:1045D300FFFBA2F0E433F50C750D007405780C12A3
:1045E30018A7EA450CF8EB450DF97415121905E8FF
:1045F300F0A3E9F0900BC0E0A2E25004D2F08002F5
:10460300C2F07415121905E054FBFAA3E054FFFB42
:10461300A2F0E433F50C750D007402780C1218A7A0
:10462300EA450CF8EB450DF97415121905E8F0A3EA
:10463300E9F0900345E0602A750C10750D00780CC5
:10464300121B247C467D037406121905AA82AB83D0
:1046530012044174021218D08A0C8B0D850C8285CA
:104663000D83900356E06012E50A600E741512196B
:1046730005E04402F0A3E04400F0900356E0600636
:10468300780179008004780079007414121905E028
:1046930048F0900343E060067804790080047800D2
:1046A30079007414121905E048F0AC08AD098518B7
:1046B30082851983AA82AB83120AADE97418121892
:1046C300D07F060219E374F7121911EAFEEBFF75A6
:1046D3000800900356E060067801790080047800B2
:1046E3007900E84208900343E0600678047900808B
:1046F3000478007900E84208A908EEFAEFFB120BF0
:1047030067E97F010219E374EE12191174E51218B7
:10471300BA8A0C8B0DE9FF8C088D09742D121905CB
:10472300E0F50A74086509700A75F006EFA42422FF
:10473300FE800875F006EFA42421FE7C1B7D007922
:1047430000851882851983AA82AB831204598A10C3
:104753008B1185100E85110F851882851983AC8204
:10476300AD837A1BEEF912087FE9703C741A1219B3
:1047730005E0C394074031741A121905E0C394117C
:104783005026E50AF50B780B121B28740112190544
:10479300AC82AD83E508A2E0E433F9AA0CAB0D12B9
:1047A3000ABF74011218D0E9741B1218D07F0A02D1
:1047B30019E374F7121911120DD1E97E00EEC394B7
:1047C3000A50557C0679FFEEFA7B00EA75F00EA4D9
:1047D300CAA8F075F000A428F875F00EEBA428FB26
:1047E300745E2AFA74033BFB1204B9E97027EEF8EE
:1047F3007900E875F00EA4C8AAF075F000A42AFAAF
:1048030075F00EE9A42AF9745E28FA740339FB796A
:1048130000120DD7E90E80A57F010219E374F61289
:10482300191174FD1218BAEAFEEBFF9003F8E0F8D1
:10483300A3E0F9E84970397508FA75090378081295
:104843001B247508027509007808121B2475081FBC
:104853007509827808121B247CFF7DFF7A017B0097
:10486300120C2774061218D09003F8EAF0A3EBF0A9
:104873009003F8E0F8A3E0F9E8497003024941E442
:10488300F508F5097808121B2474041219058582AA
:10489300088583097808121B24740412190585827C
:1048A300088583097808121B249003FA121B3B79AD
:1048B300029003F8E0FCA3E0FDEEFAEFFB120D4DCE
:1048C30074081218D0E9704A851882851983E0FAB2
:1048D3007B007401121905E0F87900E4C8F9EA28AD
:1048E300F508EB39F509E508450960267808121B38
:1048F300249003F8E0F8A3E0F5838882A3A3A3A39D
:10490300E0FCA3E0FDEEFAEFFB12066F740212184F
:10491300D0E9E4F508F5097808121B249003FA128C
:104923001B3B7CFF7DFF9003F8E0FAA3E0FB120C36
:104933003374041218D09003F8EAF0A3EBF0900359
:10494300F8E0F8A3E0F9E8497004790180027900FE
:1049530074031218D07F020219E3C082C08390034C
:10496300F6E0F8A3E0F9E84960179003F6E0FAA34C
:10497300E0FB12046BE9F89003F67400F0A37400F3
:10498300F0900BC2740AF0D083D08202013574F721
:1049930012191174EC1218BAE9FE9002ACF0740506
:1049A3001219057401F0740E1219057400F0A37442
:1049B30000F074041219057400F0740C12190574D4
:1049C300C8F0A37400F0740A1219057440F0A374BC
:1049D30006F074081219057401F0A37400F074064C
:1049E30012190574E8F0A37403F07405121905ACE9
:1049F30082AD8379017A057B0312088BE9740E1269
:104A03001905AC82AD8379027A067B0312088BE920
:104A13007C387D0A79097A087B0312088BE97C418B
:104A23007D0A79097A077B0312088BE9740412194A
:104A330005AC82AD8379017A107B0312088BE9748C
:104A43000C121905AC82AD8379027A117B0312082B
:104A53008BE9740A121905AC82AD8379027A127B51
:104A63000312088BE97408121905AC82AD8379022D
:104A73007A137B0312088BE97406121905AC82AD15
:104A83008379027A147B0312088BE97C4A7D0A7AC4
:104A9300157900120B97E97AC77B4C7C007D007473
:104AA30010121905EAF0A3EBF0A3ECF0A3EDF074F8
:104AB300031219057401F074021219057401F074DC
:104AC300011219057403F08518828519837401F0A6
:104AD3007410121905AC82AD8379047A087B041231
:104AE3000657E97403121905AC82AD8379017A0084
:104AF3007B04120657E97402121905AC82AD83795F
:104B0300017A027B04120657E97401121905AC827B
:104B1300AD8379017A037B04120657E985188285F0
:104B23001983AC82AD8379017A067B04120657E9B7
:104B3300120BB5E9FF9002ACE0F9120BBB9081ECCC
:104B43001217A8120B9DE99081EC1217A8120CF909
:104B5300E99081EC1217A8120609E912063FE9123F
:104B63000579E97ACD7B0512060F9002ACE0F912C4
:104B73000567E97A0079031207ADE975F30075F467
:104B83000075F50075FDFC75FEFF75FF1F7580034D
:104B930075900075A0001205D97A017B009002ACD4
:104BA300E0F9120495E974141218D07F010219E395
:104BB30074F2121911890AEAFEEBFFEE5400F8EFC2
:104BC3005480F9E84960319002ACE0F912047D8A1F
:104BD3000C8B0DA80CA90D88088909E849600FAA58
:104BE30008AB0912059DAA08AB0912046BE9EE6430
:104BF30000FAEF6480FB8056EEA2E0501B7A777BCD
:104C03000A120897E9F5087A047B82120675EE64A6
:104C130001FAEF6400FB8036EE5402601B7AFD7BE1
:104C2300021205D37AFD7B021205E51205C1EE647B
:104C330002FAEF6400FB8016EE5404600D1205F1D6
:104C4300EE6404FAEF6400FB80047A007B007F06C5
:104C53000219E374F7121911EAFEEBFF8E828F83B8
:104C6300E02440600924E0601B14602180268E82CA
:104C73008F83A3A3A3E0FA8E828F83A3A3E0F91209
:104C830005A38010EEFAEFFB1205A98007EEFAEFF9
:104C9300FB1205EB7F010219E374F712191174FF7C
:104CA3001218BAE9FEEAFFA2E150779002ADE06480
:104CB30005606F7C207D007A067B00120A1DE97C6B
:104CC300207D007A077B00120A1DE97C1E7D007A95
:104CD300017B00120A1DE9851882851983AC82AD18
:104CE300837A057B03120891E9851882851983E08D
:104CF3007004740180027400851882851983F0851D
:104D03001882851983AC82AD8379017A057B0312FE
:104D1300088BE9851882851983E070069002FC747C
:104D230001F074011218D07F010219E374EE121915
:104D330011EAFEEBFF8E828F83A3A3A3E0F50BE5BD
:104D43000B14603D14601024E87003024DFD1470D1
:104D530003024E4A024E7B7508037509019002B99E
:104D63007404F0750C02750D00780C121B247C5F23
:104D73007D0A7ABC7B0212044174021218D0024EDF
:104D83008775081CEE2405F8EF3400F988108911A3
:104D93008E828F83A3A3E024FEF50A7401650A6063
:104DA30005750903804B851082851183E0700F7AA6
:104DB300027B009002ACE0F912053DE980308510DA
:104DC30082851183E0F879007400C398F87401991F
:104DD300F9E875F0E8A4C8AAF075F003A42AFA75F7
:104DE300F0E8E9A42AF9900A5FE8F0A3E9F075096D
:104DF300019002B97402F0024E871205F79003186E
:104E03007401F09081E8780C12178A900A68780C84
:104E1300121764900A5FE0F50CA3E0F50DE4F50EBC
:104E2300F50F780C121B207A027B009002ACE0F99C
:104E330012053174041218D0E975081C7509019024
:104E430002B97402F0803D7A027B009002ACE0F973
:104E530012053DE9908190780C12178A900A6878C0
:104E63000C1217779003187400F075081C7509016C
:104E73009002B97402F0800C75081C750902900247
:104E8300B97402F0AA09A9081205C77F0A0219E337
:104E930074F612191174F61218BAE9FE74056E70DD
:104EA3000302500E9002ADE06405707F74056E60DE
:104EB3007A74011219057401F07A027B009002AC36
:104EC300E0F912053DE974046E70267C207D007ABA
:104ED300067B00120A1DE97C207D007A077B001205
:104EE3000A1DE97C1E7D007A017B00120A1DE98000
:104EF300247C407D067A067B00120A1DE97C407DF6
:104F0300067A077B00120A1DE97C1E7D007A017B6D
:104F130000120A1DE97401121905AC82AD837901EF
:104F23007A057B0312088BE902500E9002ADE06410
:104F330002707174036E706C9002FCE06009900261
:104F4300FC7400F002500E7A067B00120A238A08D2
:104F53008B097420650870047400650960030250AE
:104F63000E8518828519837401F07C407D067A06CC
:104F73007B00120A1DE97C407D067A077B00120A3A
:104F83001DE97C1E7D007A017B00120A1DE985184C
:104F930082851983AC82AD8379017A057B0312087C
:104FA3008BE9806774016E70627402121905AC821A
:104FB300AD837A047B03120891E97407121905E0A3
:104FC300C0E07409121905D0E0F07406121905E067
:104FD300C0E07408121905D0E0F07405121905E059
:104FE300C0E07407121905D0E0F0740612190574B5
:104FF30000F074051219057400F07402121905AC5F
:1050030082AD837A087900120645E9EE9002ADF08D
:10501300740A1218D07F020219E374F21219118A6A
:10502300088B09890A8C0B7401650A705EE50B70A5
:105033005A9002B5E0FAA3E0FB120F338A0C8B0DF2
:10504300A80CA90DE8FEE9FFE849603F8E828F8333
:10505300A3A3A3E0A2E25004D2F08002C2F0A2F024
:10506300E4339002AEF09002AEE0601F750C06755B
:105073000D00780C121B24EE2405FCEF3400FD7A9E
:10508300AF7B0212044174021218D07F060219E3A7
:1050930074F41219118A088B09ECFEEDFF890A7466
:1050A3000C121905E0F50B9081B8121B377900EE4D
:1050B300FAEFFB12067B74041218D0E97F0402197D
:1050C300E374F01219117508D17509029002FEE01C
:1050D300FE9002FDE0850882850983F085088285BC
:1050E3000983A3858208858309EE85088285098360
:1050F300F0850882850983A3858208858309900248
:10510300FFE0F8A3E0F9E8850882850983F08508C4
:1051130082850983A38582088583099002FFE0F8CD
:10512300A3E0F9E4E9F8850882850983F08508821C
:10513300850983A3858208858309900301E0F8A389
:10514300E0F9E8850882850983F08508828509836B
:10515300A3858208858309900301E0F8A3E0F9E4BD
:10516300E9F8850882850983F0850882850983A388
:10517300858208858309EEA2E75020900303780C0B
:1051830012178AE50C850882850983E50CF08508EA
:1051930082850983A3858208858309EEA2E55027CA
:1051A300900303780C12178A7410780C12168DE58D
:1051B3000C850882850983E50CF0850882850983BF
:1051C300A3858208858309EEA2E650259003037820
:1051D3000C12178AE4E50DF50CE50C8508828509A8
:1051E30083E50CF0850882850983A385820885837E
:1051F30009EEA2E0503C900307E0F8A3E0F9E8854C
:105203000882850983F0850882850983A38582083E
:10521300858309900307E0F8A3E0F9E4E9F885083A
:1052230082850983F0850882850983A385820885A1
:105233008309EEA2E1503C900309E0F8A3E0F9E80A
:10524300850882850983F0850882850983A3858281
:1052530008858309900309E0F8A3E0F9E4E9F885F8
:105263000882850983F0850882850983A3858208DE
:105273008583099002FDE09002D0F09002ACE0F942
:105283007CCE7D029002B5E0FAA3E0FB120615E99D
:10529300900A5FE0F50CA3E0F50DE4F50EF50F7849
:1052A3000C121B207A027B009002ACE0F91205314C
:1052B30074041218D0E97F080219E374F712191164
:1052C300E9FEEAFFEE9002BAF0EF9002BBF0900223
:1052D300ACE0F97CB77D029002B5E0FAA3E0FB12E3
:1052E300061BE97F010219E374F0121911E9FF8A21
:1052F300088B09ECFEEF14602F14602F24FB70035E
:1053030002560414700302565D24FE6021147003D8
:105313000253AB147003025449147003025523144F
:1053230070030255550256B40256B40256B4900A9D
:1053330061780C12178AE50C850882850983E50CD0
:10534300F0850882850983A3AA82AB838A088B0927
:10535300900A61780C12178AE4E50DF50CE50C8AC6
:10536300828B83E50CF0850882850983A3AA82AB2F
:10537300838A088B09900A61780C12178A74107853
:105383000C12168DE50C8A828B83E50CF08508825E
:10539300850983A3A882A98388088909900A65E0FF
:1053A30088828983F00256B4900A66E0F8A3E0F994
:1053B300E8850882850983F0850882850983A3A887
:1053C30082A98388088909900A66E0FAA3E0FBE4CE
:1053D300EBFA88828983F0850882850983A3AA82F0
:1053E300AB838A088B09900A68780C12178AE50C3C
:1053F3008A828B83E50CF0850882850983A3AA82C0
:10540300AB838A088B09900A68780C12178AE4E543
:105413000DF50CE50C8A828B83E50CF085088285FB
:105423000983A3AA82AB838A088B09900A68780C44
:1054330012178A7410780C12168DE50C8A828B83EE
:10544300E50CF00256B4900A71E0F8A3E0F9E885A0
:105453000882850983F0850882850983A3A882A928
:105463008388088909900A71E0FAA3E0FBE4EBFA68
:1054730088828983F0850882850983A3A882A9830A
:1054830088088909900A70E088828983F0850882F8
:10549300850983A3A882A98388088909900A6FE0F4
:1054A30088828983F0850882850983A3A882A983DA
:1054B30088088909900A6EE088828983F0850882CA
:1054C300850983A3A882A98388088909900A6DE0C6
:1054D30088828983F0850882850983A3A882A983AA
:1054E30088088909900A6CE088828983F08508829C
:1054F300850983A3A882A98388088909900A73E090
:1055030088828983F0850882850983A3A882A98379
:1055130088088909900A74E088828983F00256B466
:10552300900A75E0F8A3E0F9E8850882850983F01D
:10553300850882850983A3A882A98388088909909D
:105543000A75E0FAA3E0FBE4EBFA88828983F002B0
:1055530056B4850882850983E0FA7B008508828535
:105563000983A3E0F87900E4C8F9EA28F8EB39F9EC
:10557300900A71E8F0A3E9F0850882850983A3A363
:10558300E0900A70F0850882850983A3A3A3E090C5
:105593000A6FF0850882850983A3A3A3A3E0900A79
:1055A3006EF0850882850983A3A3A3A3A3E0900AD1
:1055B3006DF0850882850983A3A3A3A3A3A3E09029
:1055C3000A6CF0850882850983A3A3A3A3A3A3A3DD
:1055D300E0900A73F0850882850983A3A3A3A3A39C
:1055E300A3A3A3E0900A74F07A6C7B0A1204E390FD
:1055F300030B1217B490030B1217A81204D102560F
:10560300B47A177B001204658A0C8B0D850C0A850E
:105613000D0BE50A450B6040850A82850B8374E018
:10562300F0EE850A82850B83A3A3F08E0C750D0023
:10563300780C121B24AC08AD09E50A2403FAE50B28
:105643003400FB12044174021218D0AA0AAB0B9067
:1056530002ACE0F9120471E980577A177B00120457
:10566300658A0C8B0D850C0A850D0BE50A450B60CD
:1056730040850A82850B8374E1F0EE850A82850BEF
:1056830083A3A3F08E0C750D00780C121B24AC08B9
:10569300AD09E50A2403FAE50B3400FB1204417457
:1056A300021218D0AA0AAB0B9002ACE0F9120471F3
:1056B300E97F080219E374E812191174E71218BAA2
:1056C3007401121905EAF0A3EBF08518828519839A
:1056D3007406F0750C00750D00750E00750F007CD7
:1056E300007D007E007F007415121905ECF0A3ED18
:1056F300F0A3EEF0A3EFF0900319E0F8A3E0F99024
:10570300031BE8F0A3E9F0120603900319EAF0A3E0
:10571300EBF0900319E0F8A3E0F97AFD7B07121888
:105723002F900319EAF0A3EBF0900319E0F8A3E03C
:10573300F97401121905E0FAA3E0F5838A82A3A3A1
:10574300E8F0A3E9F01204D78A088B098C0A8D0BC1
:10575300850810850911850A12850B137A6C7B0A5B
:105763001204E374111219051217B47411121905F6
:1057730078101214F5507085100885110985120AE6
:1057830085130B7411121905780812171274051278
:10579300190578081217999081B4780812178A743A
:1057A3000512190578081214F5401A7C007D007E55
:1057B300007F007405121905ECF0A3EDF0A3EEF0E1
:1057C300A3EFF080227405121905780812178A7462
:1057D30001121905E0F8A3E0F5838882A3A3A3A32C
:1057E300E508F0A3E509F090031DE02401F0900320
:1057F3001DE0D2E0F090031DE0C0E0740112190532
:10580300E0F8A3E0F5838882A3D0E0F074051219D1
:1058130005780812178AE5084509450A450B700300
:10582300025922900319E054FFF8A3E05407F9E466
:10583300FAFB880C890D8A0E8B0F90031BE054FF33
:10584300F8A3E05407F9E8FCE9FDE4FEFF74151240
:105853001905ECF0A3EDF0A3EEF0A3EFF0900A5FCF
:10586300E0F8A3E0F97AE87B0312182F740B1219FE
:1058730005E8F0A3E9F0850C14850D15850E168552
:105883000F17741512190578141217129081B07836
:105893000812178A78147908121524740B12190543
:1058A300E0F508A3E0F509E4F50AF50B78147908A7
:1058B30012163E740D12190578141217999081A8C7
:1058C300780812178A740D12190578081214D0403B
:1058D3000E740312190574FEF0A37407F080409050
:1058E30081A0780812178A740D121905780812140A
:1058F300D0500E74031219057402F0A3740FF080D4
:105903001E740D121905780812178AE5084400F869
:10591300E50944F0F97403121905E8F0A3E9F074FA
:10592300091219057400F0A374F2F07CEE7DDD7E9C
:10593300CC7F007401121905E0F8A3E0C82406F532
:1059430082E83400F583ECF0A3EDF0A3EEF0A3EFCF
:10595300F090031DE0A2E0502C851882851983E0A6
:105963002402F07403121905E0F8A3E0F97401129C
:105973001905E0FAA3E0CA240AF582EA3400F583A4
:10598300E8F0A3E9F090031DE0A2E1502C85188212
:10599300851983E02402F07409121905E0F8A3E0E5
:1059A300F97401121905E0FAA3E0CA240CF582EA9E
:1059B3003400F583E8F0A3E9F090031DE0A2E5507D
:1059C3000A851882851983E02401F090031DE0A263
:1059D300E6500A851882851983E02401F090031D9F
:1059E300E0A2E7500A851882851983E02401F08537
:1059F3001882851983E0C0E07401121905E0F8A349
:105A0300E0F5838882D0E0F074191218D07F100279
:105A130019E3C082C0837A8C7B001204F590030FD4
:105A2300EAF0A3EBF09003127400F09003117400FA
:105A3300F09003137400F01205FDD083D0820201AD
:105A43003574F0121911890C8A088B098C0E8D0F8D
:105A53007E007F00900312E070057906025D79E510
:105A63000C14601E147003025BEB14605214700379
:105A7300025CE5147003025B95147003025BB002D1
:105A83005D77900313E0900314F0900313E0F8792B
:105A930000900312E0FA7B00E82AF8E93BF9E824D6
:105AA300FFF8E934FFF97A0A7B00121827EA90031A
:105AB30015F0900312E0900316F07901025D7990DE
:105AC3000313E0F879008E0A750B00250AF8E9350F
:105AD3000BF97A0A7B00121827EAFFEFF87900E83E
:105AE30075F00EA4C8AAF075F000A42AFA75F00E9A
:105AF300E9A42AF990030FE028FAA3E0398A82F592
:105B030083A3A3A3A3C3E09508A3E09509403CEFB7
:105B1300900314F0900313E0F87900900312E0FA75
:105B23007B00E82AF8E93BF9E824FFF8E934FFF9B8
:105B33007A0A7B00121827EA900315F0900314E009
