:020000040000FA
:0600000002011D0224EBC9
:03002B00021DAA09
:0300530002255E25
:03006B00021D76FD
:10008300022357E5C754F84401F5C779012200005C
:100093000080FB120086B90003020107E47921788E
:1000A30008B800028004F709D8FCE479297802B87B
:1000B30000028004F709D8FCE4900281787D790876
:1000C3008002F0A3D8FCD9FA781A90014D7A01BACC
:1000D30000028007E493A3F608DAF99009FDAA82E7
:1000E300AB8390014E782B79058015E493A3AC8202
:1000F300AD838A828B83F0A3AA82AB838C828D83A8
:10010300D8E9D9E77582837583F1740312012F75DA
:100113008291758300740012012F75D00075813FA1
:10012300751881751902759F00020096C09FF59F8F
:10013300E473D09F22D083D082C09FE493C0E07445
:100143000193C0E0740293F59F2201FFFF1101990F
:10015300010F1264040102A9810100007481028568
:1001630081010000040A02C381010000050A02871D
:1001730081030000A602029581010000060A080916
:1001830043474D2053696D020105050208180A18FB
:1001930043474D2053696D756C61746F72000000A5
:1001A30000000000000130000095341290785600E2
:1001B3001403030801DF07EC00A800E803031F0191
:1001C300000E11171601DD07000050C011000003D7
:1001D3001F02000600000201DC0700003CC022FFF2
:1001E300FF031F03000B17000502DC07000037C0E5
:1001F300335555031F04000C02000E01DB073C00BE
:1002030065B144AAAA031F05000D050C0C01DB0709
:100213003C00F6B1F5A5A5031B0600070F00050278
:10022300DB073C007EB0165A5A031B070009040083
:100233000E04DB0788FF64B017AA55031B080000F0
:1002430000000101DD0788FF5AB02855AA031B09E6
:10025300000C00000502DD0788FF48B03911115F6B
:100263000100000109000151080746016400320042
:100273005F020000010A00015108074601640031D2
:10028300007F030000010A000151080746016400D2
:1002930031005F040000010A0001510807460164B0
:1002A3000031005F050000010A0001510807460103
:1002B300640031007F060000010A0001510807466F
:1002C30001640031005F070000010A0001510807C3
:1002D3004601640031005F080000010B0001510872
:1002E300074601640030007F090000010C00015142
:1002F3000807460164002F000900EC060000100205
:10030300020A020200282802A9810100007D81025D
:100313008581010000B00B02BB81000000200302B5
:1003230087810300001A03028581010000B10B02DB
:10033300B9810100002103028581010000B20B0293
:10034300B5810100002203028581030000B30B0283
:10035300B3810300002303028581030000B40B0271
:10036300AF81030000B50B028581030000B70B02C8
:10037300AD810300002A03028781030000240302E6
:100383008581030000B80B02AB8103000031030237
:1003930087810300002B030202020202020202020F
:1003A300010D000000100102A981010000808102FB
:1003B3008581010000490C02A5810100003203027E
:1003C30085810100004A0C02A381010000D580024F
:1003D30085810100004B0C02A181010000CE800247
:1003E30085810100004C0C02C58101000058810287
:1003F30085810100004D0C029D810100005C81029A
:1004030085810100004E0C029B8101000060810286
:1004130085810100004F0C02998101000070810267
:100423008581010000500C029781010000B1800218
:100433008581010000510C02C181010000520C01B1
:10044300E803053F100AFF000130750302010600AF
:100453000000000000000000000000000000000099
:100463000000000000000000000000FFFF06008005
:100473000CE803FF0000B4000028002800283075B2
:10048300A000A000A000A00000080008E001F00008
:100493001000100010001000100010005000500059
:1004A300500010001000D0070000000000000F00F3
:1004B30001000500307507001000010081FF0000F6
:1004C3000000FF500C6E0C560CFF02020208025093
:1004D30000A0000000E80302A9810100007A810264
:1004E30085810100007C0D0289810100002E050237
:1004F30085810100007D0D028B810100004405020E
:1005030085810100007E0D028D81010000460502F8
:1005130085810100007F0D028F81080000470502DD
:100523008581010000800D029181010000810DFF92
:10053300FF0100FF2002A98101000077810285816C
:10054300010000E60D029381000000000002878194
:10055300030000D605621262126212621262126214
:10056300126212621262126212621262126212F654
:10057300140E15F01412013800800312013815808F
:10058300031201386D8003120138D480031201383D
:100593001C8103120138928103120138C1810312B5
:1005A3000138CF810312013833820312013871827B
:1005B300031201388C820312013824830312013899
:1005C300CD83031201385084031201388984031246
:1005D30001381485031201386B8503120138CA856B
:1005E30003120138DC850312013802860312013835
:1005F3000B86031201386A8703120138D2EF031204
:1006030001382DC9031201380CCA0312013868CA14
:100613000312013882CA0312013893CA0312013844
:10062300B3CA031201387EDD03120138C3DD03129E
:10063300013809DE031201389CDF0312013859EE39
:100643000312013874EE0312013884EE03120138E9
:10065300DBEE031201383E96031201385E96031255
:100663000138629703120138AE9703120138CE970F
:10067300031201382198031201388E9803120138AE
:10068300D49803120138389903120138EA9B0312F4
:1006930001386B9C03120138ECE7031201381CE8A4
:1006A300031201384CE8031201386CE803120138D5
:1006B300C6E80312013864CC0312013899CC031243
:1006C300013888CD031201386CCE03120138C7817B
:1006D30001120138E983011201386C8401120138D7
:1006E300A68401120138898601120138528701124A
:1006F3000138EE88011201386489011201389589A5
:1007030001120138968B01120138619001120138F0
:100713008E9001120138289401120138C2940112FB
:1007230001380395011201384F9501120138AC9835
:100733000112013899A60312013802A703120138E6
:1007430015A70312013866A703120138C5A70312C0
:1007530001380AA90312013832AB03120138A3A1ED
:1007630003120138C8A10312013803A2031201388E
:1007730075F003120138242C00120138322F0012B5
:100783000138F230001201389D3100120138413234
:1007930000120138DA32001201380933001201382D
:1007A3007533001201384F3800120138FA3800123D
:1007B30001386A3A00120138D23A00120138863BF6
:1007C30000120138483E00120138873E00120138FA
:1007D300FB3E001201385A3F00120138B93F0012A4
:1007E30001382840001201381B41001201386141D1
:1007F30000120138A64100120138C9410012013824
:100803004443001201385743001201386044001278
:1008130001389F4400120138CB44001201381E45B1
:10082300001201383F450012013883450012013898
:10083300D54700120138164800120138C14800128A
:1008430001382C4900120138694A0012013883EC3F
:100853000312013894EC0312013872ED03120138CC
:10086300D5DA0312013870DD03120138E3FF0212F7
:1008730001382EE9031201383EE90312013858E921
:100883000312013860EA031201386FD203120138F0
:1008930015D30312013831D50312013899E6031237
:1008A3000138CBE6031201382BE70312013842E784
:1008B300031201389EE703120138DBE70312013804
:1008C300DEE70312013885AB03120138A4AB031230
:1008D300013839AC0312013829AD0312013886AF50
:1008E30003120138E6AF031201384FB00312013887
:1008F300F87F0012013828D8031201381FDA0312D7
:1009030001388BDA03120138D2DA03120138E0DF3F
:100913000312013849E00312013807E103120138D9
:1009230086E103120138E4BD0312013816BE031237
:1009330001381EBF0312013843C003120138FFC040
:100943000312013811ED02120138F7ED02120138DA
:1009530044EE0212013887EE02120138FCEE021255
:1009630001385DEF02120138D2EF02120138AEF006
:1009730002120138B9F1021201383AF202120138B7
:10098300E1F30212013877F402120138EAF4021299
:10099300013866F5021201387DF502120138B4F60A
:1009A300021201380EF702120138D1C101120138C7
:1009B30069C6011201383DC90112013866C9011225
:1009C30001388FC90112013841CA0112013827CCFD
:1009D3000112013862CD0112013898D20112013897
:1009E300D1D20112013815D30112013827D40112D3
:1009F30001388CEB03120138A2EB03120138D1EB5F
:100A03000312013807EC031201381EEC03120138FC
:100A130055EC031201386CEC03120138DFE10312C9
:100A23000138F6E10312013827E20312013862E2CA
:100A3300031201388CE203120138B6E203120138C3
:100A4300CDE203120138E4E203120138FBE20312A0
:100A5300013824E30312013837E3031201384DE36D
:100A63000312013860E30312013887E303120138EC
:100A73000EF40112013812F5011201383FF501128B
:100A8300013895F501120138B8F501120138CCF59A
:100A930001120138CEF501120138F1F501120138C6
:100AA300F7F601120138BBF70112013890F8011271
:100AB30001380BF9011201380EF90112013896F9C8
:100AC30001120138D1F90112013808FA0112013873
:100AD30096FA011201386FFB0112013872FB011201
:100AE3000138D2FB01120138DDFB011201385CFC35
:100AF300011201385FFC0112013862FC0112013856
:100B030065FC01120138F4FC01120138FEFC0112EC
:100B130001380EFD011201383EFD011201384BFD73
:100B2300011201384EFD01120138CFFD01120138C7
:100B3300BDFE011201386FFF011201386DB00312BF
:100B4300013895B003120138C3B003120138FAB06B
:100B53000312013858B103120138A3B1031201384B
:100B6300EEB1031201382EB20312013874B203122C
:100B73000138A2B2031201385FB30312013869B31B
:100B83000312013876B303120138A9B303120138F3
:100B930075B40312013881B40312013899B40312F6
:100BA3000138A3B40312013882ED0312013890ED2A
:100BB30003120138A8ED03120138C0ED0312013806
:100BC300008002120138AC80021201382781021220
:100BD30001384882021201388482021201382D83BF
:100BE3000212013814840212013878850212013886
:100BF300CF85021201385086021201384087021253
:100C030001388D8702120138138802120138458892
:100C130002120138598A021201389B8A02120138E2
:100C2300B98A021201383C8B02120138108C02126D
:100C33000138D88C021201381B8F03120138EE8F52
:100C430003120138979003120138EA900312013816
:100C53009A91031201382692031201381293031258
:100C630001384193031201385494031201389C94C0
:100C730003120138719503120138AD95031201383F
:100C8300C99503120138FFF00312013894C503120A
:100C93000138AAC503120138D0C503120138ECC6C6
:100CA30003120138F6C6031201382BC803120138A8
:100CB30023C9031201387C9C03120138AC9D031233
:100CC3000138DF9D03120138299E03120138F09F7A
:100CD30003120138F18E02120138758F02120138A6
:100CE300BE8F02120138A591021201385E930212DF
:100CF30001383A9402120138EE94021201382B980B
:100D030002120138D99802120138489A02120138A6
:100D1300DA9B02120138129C02120138AF9C0212B4
:100D23000138E7D40112013851D501120138B0D688
:100D330001120138C0D601120138EDD60112013873
:100D430044D701120138EDD701120138F4D801124A
:100D53000138BED9011201381EDB0112013861DBF3
:100D63000112013806DC0112013853DC011201388B
:100D730079DC0112013887DE011201388CDE0112A1
:100D8300013891E001120138DEE00112013851E12E
:100D93000112013884E10112013826E201120138FF
:100DA300CFE20112013807E3011201380AE301120D
:100DB300013852E30112013892E301120138E9E3E9
:100DC300011201384CD5031201385FD503120138E3
:100DD3006DD503120138B5D503120138CBD50312F3
:100DE300013812D60312013826D703120138B3D7BC
:100DF30003120138FED7031201389D4A001201384D
:100E0300A94A00120138E44A00120138294B0012A2
:100E13000138E94B001201386F4C001201389B4C2A
:100E230000120138D44C00120138124F001201385D
:100E3300F65000120138DC52001201381F54001220
:100E430001386D56001201387F5700120138CA5815
:100E530000120138DA5900120138F759001201382B
:100E6300325A00120138545A00120138B75A00128C
:100E73000138785F001201380D60001201385E609E
:100E830000120138856000120138D7600012013862
:100E9300F560001201384F61001201384E620012F2
:100EA3000138D26200120138417B001201384B7BBA
:100EB300001201388E7B00120138A97B0012013821
:100EC300397C00120138617C001201389E7C0012CB
:100ED3000138D57C00120138FE7C00120138737D85
:100EE30000120138887D001201389D7D00120138FF
:100EF300CE7D00120138E27D00120138077E001218
:100F03000138417E001201386D7E00120138F07EF7
:100F130000120138397F00120138637F0012013853
:100F23008E7F0012013866EA0312013810D50212CF
:100F330001383ED5021201388CD6021201386CD723
:100F4300021201388BD70212013808D80212013875
:100F53004BD802120138A1D90212013862DA021207
:100F63000138E9DC021201388ADD0212013880DE21
:100F7300021201387DDF02120138D7E00212013874
:100F830062E1021201383EE503120138A7E50312BC
:100F93000138FBE50312013822E60312013853E658
:100FA300031201382AB50312013897B50312013829
:100FB300DEB503120138F6B603120138F2B7031295
:100FC3000138D5B8031201387AF702120138BCF799
:100FD300021201388EF80212013867F90212013841
:100FE30061FA0212013843FB02120138ACFB021210
:100FF300013862FC02120138D6FC0212013842FDAC
:10100300021201386BFD02120138E5FD02120138AC
:101013007EFE02120138E3FE02120138F8FE0212CC
:1010230001383EFF0212013857FF02120138BCFF9C
:1010330002120138BFFF0212013876CF03120138C2
:101043009ECF03120138DCCF031201389AD003126A
:10105300013801D1031201381DD10312013845D1E2
:101063000312013875D10312013884D103120138F8
:1010730001D20312013827D203120138D6E4011238
:101083000138B4E601120138E6E80112013822E919
:10109300011201384FE90112013839EA011201380E
:1010A30084EA01120138CFEA01120138E1EA0112A0
:1010B300013821EB0112013856EB01120138A4EB80
:1010C30001120138D3EB01120138F6EB011201389A
:1010D30043EC01120138C8EC01120138E2EE0112AF
:1010E300013821F10112013862F10112013804F3D0
:1010F3000112013845F301120138B8F30112013826
:10110300FBC702120138F9C80212013892CF02124A
:101113000138B3D1021201387ED302120138E6D46A
:1011230002120138396300120138E86300120138F2
:101133001564001201385B64001201389B650012CC
:101143000138316700120138AB6700120138C667F6
:10115300001201384168001201389B6900120138FE
:10116300FB6A00120138016C00120138626D001233
:1011730001387B6D00120138D96D00120138C76E3A
:1011830000120138FA6E001201386A6F001201383A
:10119300E46F001201382E7000120138F87000124B
:1011A3000138CD7100120138AC7200120138377367
:1011B30000120138A57300120138197400120138A6
:1011C3004474001201380375001201386876001266
:1011D3000138857600120138A4760012013895771C
:1011E30000120138BA7700120138E477001201388F
:1011F3005F7800120138B97800120138227A0012A0
:101203000138D07A00120138117B0012013827BA55
:101213000212013875BA0212013881BA021201387A
:101223005FBB0212013890BB02120138C1BB02122C
:10123300013841BC0212013879BC02120138CBBC1F
:101243000212013808BD0212013825BF021201380B
:101253004BC10212013836C30212013820C50212F3
:101263000138192C00120138BEAD01120138EEAD60
:1012730001120138C7B4011201384CB6011201380A
:1012830049BC0112013831BD011201386EBD011292
:10129300013891BD01120138C2BD01120138CBBD25
:1012A30001120138D5BD01120138C3BE0112013844
:1012B300B9BF01120138AF9801120138AE9C011277
:1012C3000138B49C01120138EFA30112013808A9B7
:1012D30001120138C6C1031201385CC2031201387E
:1012E30072C203120138E8C2031201385CC303124D
:1012F30001389AC3031201380EC40312013887C49C
:101303000312013890C4031201389CC4031201383C
:10131300B1C403120138EFC40312013805C5031227
:10132300013864C50312013897B903120138A4B90F
:1013330003120138BEB903120138FDB90312013893
:101343003BBA03120138A0BA03120138B5BA03122B
:101353000138C0BA03120138CDBA03120138E4BA16
:1013630003120138F2BA03120138FDBA031201382D
:1013730009BB0312013818BB0312013823BB031244
:10138300013846BB03120138EDBB03120138FDBB24
:101393000312013817BC0312013834BC031201389D
:1013A30050BC0312013875BC0312013880BC031210
:1013B300013895BC03120138A9BC031201380ABDD8
:1013C3000312013810BD0312013816BD0312013890
:1013D3001CBD0312013834BD0312013867BD03126B
:1013E3000138FDAB0212013881AC0212013830AD75
:1013F300021201388FAE02120138B0B00212013866
:101403009CB102120138D1B102120138F3B10212B8
:101413000138A2B2021201389AB402120138C3B4DD
:101423000212013855B50212013887B5021201388C
:1014330094B502120138EBB50212013811B602124B
:1014430001387EB80212013881B902120138D9B9C4
:10145300021201388C9D02120138969E0212013845
:101463007D9F02120138879F02120138A99F021241
:101473000138B59F021201384EA1021201387DA135
:101483000212013899A202120138F2A202120138A3
:1014930058A40212013837A50212013893A502128B
:1014A300013800A6021201383BA6021201387AA6BF
:1014B3000212013833A9021201384DA90212013870
:1014C300D9A902120138E7A90212013840AA02126F
:1014D30001384EAA02120138C1AA0212013825AB03
:1014E300021201386FAB02120138E3E10212013834
:1014F30005E2021201382BE40212013840E702121E
:10150300013858E8021201380BE902120138EDE9FB
:101513000212013899E303120138BEE303120138C2
:1015230030E403120138A18703120138AA8703129A
:101533000138B387031201388A88031201383B8AC2
:1015430003120138718A03120138AB8A031201387E
:10155300E18A031201381B8B031201384F8B0312EC
:1015630001387B8B03120138C48B03120138FE8BC5
:1015730003120138478C031201389F8C0312013880
:10158300D48C031201382F8D03120138698D031295
:101593000138BA8D03120138F08D031201382A8EF7
:1015A30003120138588E031201387B8E031201385F
:1015B30027EF0312013853EF03120138AEEF031282
:1015C3000138B8EF03120138C8EF03120138B67FB0
:1015D30000120138E0FF01E066701008A3E06670B6
:1015E3000A08A3E066700408A3E06622C3E0960835
:1015F300A3E09608A3E09608A3E096A2D265D033B1
:1016030022C3E7960809E7960809E7960809E796CB
:1016130022C3E09608A3E09608A3E09608A3E09609
:1016230022C008C3E096F50808A3E096420808A381
:10163300E096420808A3E09645087001D3D008223B
:10164300080808EAC0E0EBC0E086F0E7A4FA18094E
:1016530086F0E7A42AFA180986F0E7A42AFA1809FB
:1016630086F0E7A42AFA1986F0E7A4FBE5F02AFA44
:10167300190886F0E7A42BFBE5F03AFA190886F07F
:10168300E7A42BFBE5F03AFA18180986F0E7A4C59E
:10169300F02BFBE43AFA1908E7C5F0C6A426F6E5F1
:1016A300F03BFBE43AFA1886F0E7A4F6E5F00826E7
:1016B300F6E43B08F6E43A08F6D0E0FBD0E0FA2281
:1016C300E4CFC0E0E4CEC0E0E4CDC0E0E4CCC0E0D1
:1016D30075F020C3E633F608E633F608E633F6087A
:1016E300E633F6181818EC33FCED33FDEE33FEEF5A
:1016F30033FFC3EC9709ED9709EE9709EF97191993
:1017030019400FFFEC97FC09ED97FD09EE97FE19C1
:101713001906D5F0BEECF709EDF709EEF709EFF777
:10172300191919D0E0FCD0E0FDD0E0FED0E0FF2293
:1017330012179B1818181216C312178A191919228F
:1017430012178A191919080808E618181820E7E06B
:101753001216C312179B18181822090909E7191939
:101763001920E7DC080808E618181820E703021612
:10177300C312179B1818181216C312179B181818A0
:1017830012178A19191922E4C397F709E497F7097D
:10179300E497F709E497F722E4C396F608E496F68C
:1017A30008E496F608E496F6226016080808C6C30D
:1017B30013C618C613C618C613C618C613C6D5E073
:1017C300EA227009080808226016181818C6C333DD
:1017D300C608C633C608C633C608C633C6D5E0EA4C
:1017E30022E627F60809E637F60809E637F6080978
:1017F300E637F622E026F608A3E036F608A3E0363D
:10180300F608A3E036F622E026F008A3E036F00857
:10181300A3E036F008A3E036F022C3E697F6080902
:10182300E697F60809E697F60809E697F622C3E075
:10183300C696F608A3E0C696F608A3E0C696F60891
:10184300A3E0C696F622C3E096F008A3E096F0085C
:10185300A3E096F008A3E096F022E657F60809E61F
:1018630057F60809E657F60809E657F622E056F652
:1018730008A3E056F608A3E056F608A3E056F622BE
:10188300E056F008A3E056F008A3E056F008A3E002
:1018930056F022E0F608A3E0F608A3E0F608A3E07A
:1018A300F622E6F008A3E6F008A3E6F008A3E6F0C4
:1018B30022E0FAA3E0FBA3E0FCA3E0FD22EAF0A30D
:1018C300EBF0A3ECF0A3EDF022CAC0E0E6F0A3082E
:1018D300DAFAD0E0FA22CAC0E0E0A3C582CCC5821E
:1018E300C583CDC583F0A3C582CCC582C583CDC5D1
:1018F30083DAE6D0E0CA22C3E498F8E499F912192E
:101903003B8026C3E49AFAE49BFBE920E7E912193A
:101913003BE498F8E499F922C3E498F8E499F912BE
:10192300193BE498F8E499F9C3E49AFAE49BFB229F
:10193300EB20E7CFE920E7E0B90010BB0008E88A15
:10194300F084F8AAF022E4FBC8FA22EB70227B10A1
:10195300C833C8C933C9335007C39AC3DBF28006FF
:101963009A50012ADBEAC833F4C8C933F4C9FA220E
:1019730075F008E4C833C8C933C933C99AC99B5041
:1019830004C92AC93BD5F0ECFBC833F4C8E4C9FA4F
:1019930022600D08C6A2E713C618C613C6D5E0F326
:1019A30022600C08C6C313C618C613C6D5E0F422BA
:1019B300700422600D18C6C333C608C633C6D5E00B
:1019C300F41822251810AF08F518400215198008DD
:1019D300F51840021519D2AF22C0D0251810AF0850
:1019E300F518500205198008F51850020519D2AFF1
:1019F300D0D0222518F58210AF08F518400215192A
:101A03008008F51840021519D2AF851983222518CD
:101A1300F582E43519F58322E4732518C582C0E005
:101A2300E51934FFC583C0E0E518C3958224F81097
:101A3300AF088583198582188008858319858218E4
:101A4300D2AFCEF0A3E520F0A37808E608F0A3DE3A
:101A5300FAEFF0A3E58124FAF8E608F0A3E608F02C
:101A6300A3E608F0A30808E608F0A3E608F0A31528
:101A7300811581D0E0FED0E0F8158115811581E84C
:101A8300C0E0EEC0E0222518C582C0E0E51934FFAE
:101A9300C583C0E0E518C3958224F910AF08858398
:101AA300198582188008858319858218D2AFCEF0F4
:101AB300A3E520F0A37808E608F0A3DEFAEFF0A38D
:101AC300E58124FBF8E608F0A3E608F0A30808E69E
:101AD30008F0A3E608F0A315811581D0E0FED0E05D
:101AE300F815811581E8C0E0EEC0E02285198385F1
:101AF3001882E0A3FEE0A3F5207808E0A3F608DF50
:101B0300FAE0A3FFE0A3C0E0E0A3C0E0E0A3C0E0ED
:101B1300E0A3C0E0E0A3C0E010AF0885821885838E
:101B2300198008858218858319D2AFD083D08202A9
:101B33000135851983851882E0A3FEE0A3F520789B
:101B430008E0A3F608DFFAE0A3FFE0A3C0E0E0A308
:101B5300C0E0E0A3C0E0E0A3C0E010AF08858218B6
:101B63008583198008858218858319D2AFD083D0E5
:101B73008222C0D02518C582C0E0E51934FFC58391
:101B8300C0E0E518C3958224F310AF088583198557
:101B930082188008858319858218D2AFC8F0A3E91B
:101BA300F0A3EAF0A3EBF0A37908E709F0A3D8FACE
:101BB300ECF0A3EDF0A3EEF0A3EFF0A3D0E0F0A3DD
:101BC300D0E0F0A3D0E0F0A3E520F0A3E5F0F0A38C
:101BD30022851983851882E0C0E0A3E0F9A3E0FA27
:101BE300A3E0FBA37808E0F608A3DFFAE0FCA3E098
:101BF300FDA3E0FEA3E0FFA3E0C0E0A3E0C0E0A3F9
:101C0300E0F5D0A3E0F520A3E0A3F5F010AF08853D
:101C130083198582188008858319858218D2AFD0ED
:101C230082D083D0E0F8D0E032740480067402805E
:101C3300027401C0E0F4041219F6D0E01218CC22A9
:101C43007404800474028000CCC0E0EDC0E0E518A9
:101C5300C39CCCAD1950011D10AF068C188D198093
:101C6300068C188D19D2AF1218D9D0E0FDD0E0FC44
:101C730022D083D082E9C0E0E493A3C386F0C5F009
:101C830095F0F908E493A386F0C5F095F0700BE4A2
:101C930093A3C3994005E9048002A3E475F002A469
:101CA3002582F582E5F03583F583D0E0F9E493A34B
:101CB300C0E0E493C0E022D083D082ECC0E0EDC06A
:101CC300E0E493A3FCE493A3FDED4C600D121D0629
:101CD300EC24FFFCED34FFFD80EFE493A3FCE493DD
:101CE300A3FDED4C600D121D45EC24FFFCED34FF0C
:101CF300FD80EFD0E0FDD0E0FCE493A3C0E0E493EB
:101D0300C0E022C0E0C3E4939608740193961840A0
:101D13000FE49366700808740193661870007019D5
:101D2300A3A3C3E49396087401939618A3A3400D49
:101D3300D0E0D0E0D0E0021CF6A3A3A3A3A3A3D0DA
:101D4300E022C0E0C0F088F0E493667008087401F4
:101D53009366187000A8F0A3A3700BD0F0D0E0D066
:101D6300E0D0E0021CF6A3A3D0F0D0E022C2AF0281
:101D7300000022C0E074F2121B75A2AFE433FED25E
:101D8300AFE589A2E04006E589A2E150031208B459
:101D9300758900758900C2C5751A00EEF8EEA2E0D8
:101DA30092AF7F01021BD4C0E0C0D0E8C0E0E9C01D
:101DB300E0A2AFE433F8D2AFC2C7751A00E8F9E87E
:101DC300A2E092AFD0E0F9D0E0F8D0D0D0E0327406
:101DD300F5121A89EAFEEBFFEE2434F8EF3400F92A
:101DE30088088909EE2435F582EF3400F583E0F89D
:101DF300EE2437F582EF3400F583E0F50AEC850A2B
:101E0300F0A4FCAAF0850AF0EDA42AFDE82CF8E47E
:101E13003DF97A257B0012193BEA850882850983FF
:101E2300F0F8740758F97401B900028004C333D978
:101E3300FCFAE8131313541FF8EE28F8EF3400F9F3
:101E4300E8245DF582E93400F583E05A6008EE2466
:101E530034F582EF802CEE2434F582EF3400F583E1
:101E6300E0C0E0EE2436F582EF3400F583E0F5F0D0
:101E7300D0E084A8F0EE28F8EF3400F9E82438F530
:101E830082E93400F583E0F97F04021B3574F5120F
:101E93001A89EAFEEBFFEE2434F582EF3400F58372
:101EA300E0C0E0EE2435F582EF3400F583D0E0F0B6
:101EB3008E828F83A3A3A3A3A3A3A3C082C0838E75
:101EC300828F83A3A3A3A3A3E0F8A3E0F9D083D0D5
:101ED30082E0C398F508A3E099F509EE247FF58223
:101EE300EF3400F583E064017069EE2480F582EF3E
:101EF3003400F583E0F8A3E0F98E828F83A3A3A3D4
:101F0300A3A3A3A3E0FCA3E0FD8E828F83A3A3A3DB
:101F1300A3A3E0FAA3E0FBC3EA9CEB9D5010C3EC40
:101F230098ED99402EC3EA98EB995027800EC3EAA7
:101F330098EB994007C3EC98ED9940177C997D077E
:101F4300EEFAEFFB1211C0EE247FF582EF3400F5B9
:101F530083E4F0EE2434F8EF3400F9E8FCE9FDEE15
:101F63002435F582EF3400F583E0F8EE2437F5826B
:101F7300EF3400F583E0F50AE508850AF0A4F508D7
:101F8300AAF0850AF0E509A42AF509E82508F8E48A
:101F93003509F97A257B0012193BEA8C828D83F08F
:101FA300F8740758F97401B900028004C333D9FCEB
:101FB300FAE8131313541FF8EE28F8EF3400F9E886
:101FC300245DF582E93400F583E05A6008EE243499
:101FD300F582EF802CEE2434F582EF3400F583E0B4
:101FE300C0E0EE2436F582EF3400F583E0F5F0D05F
:101FF300E084A8F0EE28F8EF3400F9E82438F582FD
:10200300E93400F583E0F9122C0B021E8BC082C069
:1020130083851882851983E0F8A3E0F9C3EA9CEB72
:102023009D5010C3EC98ED99401BC3EA98EB99506F
:1020330014800EC3EA98EB994007C3EC98ED9940DE
:1020430004790180027900D083D08222EAC39CFA0A
:10205300EB9DFB2274EF121A8990065FE06408601F
:1020630005E06407702A9061C8E0602490068DE063
:10207300F4601DE0F875F003A4C8AAF02AF9748F80
:1020830028FE740639FF8E828F83A3A3A3E0700317
:10209300022187906060E0C0E0EE2468F582EF34AF
:1020A30000F583D0E0F0750C02750D087508007516
:1020B3000900E5D914F50AE5D95403F50E60177440
:1020C30003650E605CE50A6010EE2467F582EF3469
:1020D30000F583E0700302216C9007FDE06401606A
:1020E3002AEE2482F582EF3400F583E0600478045D
:1020F30080027800850A08E508C398FA95E0FB1288
:10210300108E8A088B09EA450970051213C480747E
:10211300EE2482F582EF3400F583E070048A0C8BA1
:102123000DE50A6012850C82850D83F50BE5D9F068
:10213300A3150BE50B70F6EE2482F582EF3400F560
:1021430083E0604474FC250AF50A780C121C30AC59
:102153000AA90EEEFAEFFB12125C74021219DCE903
:102163007026AA08AB09120914793D8E828F83A3C6
:10217300A3A3A3E0FA7B00120F62EEFAEFFB1211A6
:10218300D812126E790080747403650E6056850A46
:10219300107511007810121C30AC0CAD0DAA08ABF1
:1021A3000912123874021219DCEE2468F582EF3436
:1021B30000F583E064807004747F8001E0F50C789F
:1021C3000C121C34E50EF50C780C121C34A90AAC65
:1021D30008AD0990068DE0FA7B00120F26740212F7
:1021E30019DC801390065FE06408600BAC0CAD0D46
:1021F300EEFAEFFB1212C81213D079017F0A021B09
:102203003574F5121A8974FC1219C6EAFEEBFF89BC
:1022130008A2AFE433F509C2AF806AEE2463F8EF96
:102223003400F97A007B00A2AFE433F50AC2AF8829
:10223300828983E0FCA3E0FDEC4D603A88828983C8
:10224300E0FAA3E0FB8A828B83E0FCA3E0FD8882B3
:102253008983ECF0A3EDF08A828B83E4F0A3F0880A
:10226300828983E0FCA3E0FDEC4D700A88828983B8
:10227300A3A3E4F0A3F0E50AA2E092AF120914903D
:1022830007A0E004F0EE2463F582EF3400F583E069
:10229300F8A3E0F9E849603DEE2463F582EF3400EA
:1022A300F583E02402FAA3E03400FBEA2402F50AF2
:1022B300EB3400F50B780A121C308A828B83E0FC26
:1022C300A3E0F9EEFAEFFB1211FC74021219DCE938
:1022D300700302221E9007A0E060639007A1E0F85C
:1022E3009007A0E0C398500C7402650870509007E3
:1022F300A2E0604A8E828F83A3A3A3A3E085188202
:10230300851983F0A3E4F09007A0E0F87402121A91
:1023130011E8F0A3E4F09007A0E0F890079FE0280D
:10232300F07402121A11AC82AD8385188285198369
:10233300AA82AB837901120F329007A0E4F0E5097A
:10234300A2E092AF74041219DC021E8B0085218770
:102353008522C622C0E0C0D0E8C0E0E9C0E0EAC000
:10236300E0EBC0E0ECC0E0EDC0E0EEC0E0C008C0D0
:1023730009C00AC00BC082C083C0F0A2AFE433FE21
:10238300C2AF759B00906182E0A2E05012E591A27A
:10239300E0500C7591FE740165217003122057E023
:1023A300A2E55051E591A2E5504B7591DF90065F90
:1023B300E064076005E064087023740165217035EB
:1023C300790190068DE0FA75F003A4CAA8F028FB02
:1023D300748F2AFA74063BFB1222048018E0640D02
:1023E3007013900681E004F064287002E4F07A0030
:1023F300E0F91213D6906182E0A2E6400302249E24
:10240300E591A2E6400302249E7591BF90065FE02A
:10241300640570081212FE12130A80031213047566
:102423002100121364E9900660F079001213581228
:1024330011367A017B0090065EE0F91205D290789E
:1024430003E064427055900801E014F0704DC2AF90
:1024530012245600782AD0E0F618D0E0F6E59F540F
:102463000770057509FF800375097FC4C0E07829EB
:10247300E6F50808E65509F509740B78081219A45E
:10248300D0E02508F8906270E0A2E740F8E8C33393
:10249300906272F0906270E0D2E0F0906181E0A20D
:1024A300E35009E5E9A2E3500375E9F7A3E0A2E7E6
:1024B3005009E591A2E7500375917FEEA2E092AF38
:1024C300D0F0D083D082D00BD00AD009D008D0E08E
:1024D300FED0E0FDD0E0FCD0E0FBD0E0FAD0E0F9A4
:1024E300D0E0F8D0D0D0E032C0E0C0D0C082C0830A
:1024F300906183E0A2E05009E5BFA2E0500375BFFD
:10250300FEE0A2E15009E5BFA2E1500375BFFDE083
:10251300A2E25009E5BFA2E2500375BFFBE0A2E3CC
:102523005009E5BFA2E3500375BFF7E0A2E45009E9
:10253300E5BFA2E4500375BFEFE0A2E55009E5BF94
:10254300A2E5500375BFDFE0A2E65009E5BFA2E6AE
:10255300500375BFBFD083D0828088C0E0C0D0E86D
:10256300C0E0E9C0E0EAC0E0EBC0E0ECC0E0EDC0F1
:10257300E0C0F0E5A7A2E6500FE5A1A2E65009539B
:10258300A7BF75A1BF1225C3E5A7A2E5500CE5A11E
:10259300A2E5500653A7DF75A1DFE5A7A2E1500925
:1025A300E5A1A2E1500375A1FDE5A7A2E2500CE568
:1025B300A1A2E2500653A7FB75A1FBD0F00224D4DD
:1025C30074F8121A8975210190065FE0640670158C
:1025D30012128C8A828B83A3A3A3A3A3A3E0FAA3DF
:1025E300E0FB1212ECA2AFE433FED2AF900665E03B
:1025F300640170187A207B0090065EE0F912067A77
:102603007A207B0090065EE0F91205D8906182E0A3
:10261300D2E6F09007FEE0602185C6228016900680
:1026230064E064017008E5C654F84405F5C653BE7A
:10263300FC1223507401652160E4EEA2E092AF7FA7
:1026430001021B35008E238F2485822885832785ED
:102653001882851983E0CEA3E0CF8528828527835E
:10266300EBC9EAC8EDCBECCA75F010C3E833C8E98F
:1026730033C9EA33CAEB33CBC3EA9EF526EB9FF5A6
:1026830025B35004AB25AA26EC33CCED33CDD5F0DE
:10269300DAAE23AF242274E9121A8974F81219C628
:1026A300851882851983ECF0A3EDF08A088B0990D5
:1026B300065FE024F7C3940550067508010228302D
:1026C30012128C8A0A8B0BAE0AAF0BEE4F70030209
:1026D300282DAC08AD097402121A11AA82AB831219
:1026E300131C8E828F83A3A3750CFF750DFF750ECC
:1026F300FF750F00780C1218707402121A117510FE
:10270300FF7511FF7512FF7513007810121870789A
:102713000C7910121604502A780C791012181D75B2
:1027230008017509C8750A00750B007808790C1241
:1027330016045052850C08850D09850E0A850F0B6A
:1027430080507514017515C875160075170085102E
:102753000885110985120A85130B7808790C12185C
:102763001D78147908121604401C750800750900B9
:10277300750A00750B017808791012181D7808790D
:102783000C1217E4800C750801750900750A0075B1
:102793000B00740978081217C5750C19F50DF50EA1
:1027A300F50F7808790C1216C38E828F83A3A3A327
:1027B300A3A3A3E0F8A3E0F97AD07B0312193B8823
:1027C3000C890DE4F50EF50F7808790C1217E474F3
:1027D30006121A11E0F8A3E0F97AD07B0312193B31
:1027E300E8FA8A0CE4F50D7808790C121604500700
:1027F3007808790C12181D90065FE06408600AE0FF
:1028030064066005E06405702D750C0D780C79087D
:102813001216044021750CF4750DFF750EFF750F2C
:10282300FF7808790C1217E4800C7508007509000D
:10283300750A00750B00851882851983E0F8A3E0FB
:10284300F583888278081218A574081219DC7F10A2
:10285300021B3574F7121A8912132E9007FCE064D9
:10286300017010906245E4F0A3F053F4F343FE0CBF
:102873005390F31212DAE5C654804449F5C6E59E37
:10288300547F644970F8906185740FF09007FAE003
:10289300F47002A3E0604E9007FBE0600814601B35
:1028A30014602E80407508017509009007FAE078DE
:1028B300081219B3E508F45280802A7508017509D6
:1028C300009007FAE078081219B3E508F4529080F3
:1028D300147508017509009007FAE078081219B316
:1028E300E508F452A079007F02021B3574F7121A2F
:1028F30089E9FEEAFF74016E700C7A807B00900612
:102903005EE0F91205D2902C1CE493F46008E49382
:10291300F912112A800953C680E59E547F70FA127A
:1029230012E09007FCE0640170031211429007FA71
:10293300E0F47002A3E0604B9007FBE060081460D2
:102943001A14602C803D7508017509009007FAE0A0
:1029530078081219B3E508428080287508017509C3
:10296300009007FAE078081219B3E5084290801343
:102973007508017509009007FAE078081219B3E5A4
:102983000842A012132E12128C8A088B09A808A9D8
:1029930009E8496015E5E170FCE82414F582E9349F
:1029A30000F583E0F46003E0F5E174016F700A7AE7
:1029B3000190065EE0F912064A0228EA74ED121A43
:1029C300898A088B098C0A8D0B7413121A11780CDF
:1029D3001218967808790C1216047510017511C82F
:1029E30075120075130050127808790C12181D78AF
:1029F30010790812160450168010780C79081218F2
:102A03001D7810790C1216044004790180027900B4
:102A13007F0C021B3574ED121A898A088B098C0A04
:102A23008D0B7413121A11780C121896780C7908FE
:102A330012160440117808790C12181DAA08AB0964
:102A4300AC0AAD0B8022751000751100751200756C
:102A530013017810790C12181D781079081217E4F5
:102A6300AA10AB11AC12AD1380A68A828B837508B2
:102A7300FF7509FF750AFF750B0078081218837F2D
:102A830004021B3574F5121A898C828D837808121F
:102A930018968A828B837808121849EA2404F8EB83
:102AA3003400F98C828D83A3A3A3A3E0FCA3E0FDF0
:102AB30088828983C3E09CF0A3E09DF088828983A8
:102AC300C3E09420A3E0944E40268A828B8375084A
:102AD300FF7509FF750AFF750BFF780812180A8A3C
:102AE300828B83A3A3A3A3E02420F0A3E0344EF0BE
:102AF300022A6D74F5121A89E9FE9007B4E0FAA36D
:102B0300E0FBEEC333F8E433F974A128F582748053
:102B130039F583E02AF508A3E03BF5097808121C90
:102B2300307A407B427C0F7D0012264874021219D2
:102B3300DC8A088B098C0A8D0B741078081217AC89
:102B4300AA08AB097F04021B3574F1121A898A0C97
:102B53008B0D8C0E8D0F740F121A11E0FAA3E0FB8C
:102B63007411121A11E0F508A3E0F5097808121C94
:102B730030EA2401F508EB3400F509E4F50AF50B16
:102B8300780C7908121643750871750902780C7967
:102B930008121643AA0CAB0DAC0EAD0F12264874E7
:102BA300021219DC8B09EA450960047A0180027A72
:102BB30000EC2AFCED3400FD7413121A11E0F8A3A3
:102BC300E0F9E8FEE9FFECF8EDF97A717B021219FE
:102BD3003B880889098E828F8378081218A5ECF840
:102BE300EDF97A717B0212193B8A088B0974057817
:102BF300081219B38E828F83A3A3A3A3E508F0A3BE
:102C0300E509F07F08021B35C082C083E9906000AC
:102C1300F0D083D08222020135FFFFFFFFFFFFFFC9
:102C2300FF74EE121A1D74FA1219C68A0A8B0B89E5
:102C330009ECFEEDFF750800850A0C850B0D780C79
:102C4300121C74000410FD2E6D2C8E2CAD2CCE2C7A
:102C5300EF2C102D432D642D7B2DA92D672E882E4F
:102C6300A82ED22EFD2EFD2ED42D740165097015CC
:102C73008E828F83E0C39403500B8E828F83E09008
:102C83000CF1F08003750818022F26740265097091
:102C9300138E828F83E0F8A3E0F9900CF2E8F0A39F
:102CA300E9F08003750818022F2674016509701571
:102CB3008E828F83E0C39402500B8E828F83E090C9
:102CC300033BF08003750818022F26740165097011
:102CD300158E828F83E0C39405500B8E828F83E021
:102CE30090033CF08003750818022F2674016509D0
:102CF30070158E828F83E0C39402500B8E828F8374
:102D0300E090033DF08003750818022F26741065C8
:102D1300097027750C10750D00780C121C30EEFC31
:102D2300EFFD7A3E7B0312057E74021219DC8A0CD6
:102D33008B0D850C82850D838003750818022F2661
:102D43007401650970158E828F83E0C39402500B62
:102D53008E828F83E090034EF08003750818022F54
:102D63002674016509700B8E828F83E0900CF5F059
:102D73008003750818022F26740465097022908158
:102D830048780C1218968E828F83780C1216145082
:102D93000F8E828F831218B49003501218C08003D1
:102DA300750818022F26E5097021120C9EE970138D
:102DB3001207F4E9F50C79501209A4E9F50D12078D
:102DC300E2800B9003E37401F08003750818022F6F
:102DD30026740765096003022E61750E06750F00E0
:102DE300780E121C308E828F83A3AC82AD83740263
:102DF300121A11AA82AB8312058474021219DC8A97
:102E0300108B1185100E85110F7C007D00851882B3
:102E1300851983AA82AB838E828F83E0F91207829E
:102E2300E9F50CE50CC3940A502F120C9EE97015BA
:102E3300A90C1207FAE9F50D79501209A4E9F50E68
:102E43001207E2801C750D0074E4250CF5827403EF
:102E5300350DF5837401F080087508028003750849
:102E630018022F267401650970158E828F83E0C3C3
:102E73009402500B8E828F83E090034FF080037592
:102E83000818022F267401650970158E828F83E05E
:102E9300C3940A500B8E828F83E0900CF4F080036E
:102EA300750818807E74016509701F8E828F83E018
:102EB300C3940740158E828F83E0C39411500B8E09
:102EC300828F83E0900CF6F0805975081880547453
:102ED30001650970209003E2E0F50C8E828F83E098
:102EE3009003E2F0E50C703B9003E2E06401703381
:102EF3001207E2802E7508188029C3E50A9427E596
:102F03000B9400501B7402650970158E828F83E049
:102F1300FCA3E0FDAA0AAB0B120B3CE9F508800306
:102F2300750802A90874061219DC7F0A021AEF74E5
:102F3300EC121A1D74DA1219C6890D8A128B138CBE
:102F43000A8D0B743A121A11E0F50C9080F4C082CA
:102F5300C083851882851983AC82AD83D083D082E8
:102F630074061218D9851882851983AC82AD83AA99
:102F730012AB13A90D120782E9FEEEC3940A4003B4
:102F83000230D1EEF91207C4E9FF900CF1E06402BC
:102F93007004740180027400F5087808121C34ADC3
:102FA3000CEFFCEEF9AA0AAB0B12083674011219E6
:102FB300DC7C147D0079007412121A11AA82AB838F
:102FC3001205968A0E8B0F850E08850F097412124F
:102FD3001A11AC82AD837A1075F006EEA42424F99D
:102FE30012099EE970437C1079FF7412121A11AA18
:102FF30082AB831205F6E970307422121A11AC8287
:10300300AD837A0475F006EEA42425F912099EE92E
:10301300F5087412121A11AC82AD83EFA2E0E43307
:10302300F9AA0AAB0B120BC6E97406121A11AC8289
:10303300AD837A0C74702EF912099EE9707E7406C2
:10304300121A11AA82AB831207B8750E00E50EC3DC
:1030530094045068E50EA80E7900E875F003A4C83F
:10306300AAF075F000A42AFA75F003E9A42AF9740A
:1030730006121A11E58228F508E58339F509850852
:1030830082850983E0F8A3E0F9E849602B8508828B
:10309300850983A3A3E0F5107511007810121C3085
:1030A300850882850983E0FCA3E0FDAA0AAB0B1225
:1030B3000E7874021219DCE9050E8091EFA2E1503B
:1030C3000D90033AE0F9AA0AAB0B120E7EE97404E1
:1030D300650C700F900CF1E064027007AA0AAB0B49
:1030E300120830790074261219DC7F0C021AEF746F
:1030F300F2121A1D890BEAFEEBFF8C088D09750A83
:103103000AE50B600C146009146044146064023116
:1031130096EEFAEFFB1207D6E9F50AE50AC3940A1D
:103123005071E5084509606B750C06750D00780C48
:10313300121C30EEFCEFFDAA08AB0912057E7402E7
:103143001219DC8A0C8B0D850C82850D838044EE6D
:10315300FAEFFB1207D0E9F50AE50AC3940A5033E4
:10316300E5084509602DAA08AB09A90A1207CAE9AF
:103173008021EEFAEFFB1207DCE9F50AE50AC394B6
:103183000A5010E5084509600AAA08AB09A90A1202
:1031930007CAE9A90A7F06021AEF74F2121A1D8AF6
:1031A3000C8B0DE9FE7F1574FF650C700474FF65CD
:1031B3000D702A750800E508C3940A5014EEFC7AD2
:1031C300027B00A9081207A6E960027F00050880B8
:1031D300E5EE60637A1E7B08121070805AAA0CAB6E
:1031E3000D1210528A0A8B0B850A08850B09E50814
:1031F300450960417C007D00E5082405FAE50934B2
:1032030000FB850882850983A3A3A3A3E0F9120722
:1032130082E9F50AE50AC3940A500EEEFC7A027BB2
:1032230000A90A1207A6E97F00EE600BAA08AB0902
:1032330012081E80027F14EFF97F06021AEF74EE64
:10324300121A1D8A0E8B0F8C0A8D0B7412121A110F
:10325300E0F50CA3E0F50D75081574FF650E700419
:1032630074FF650F701E7E00EEC3940A5062AC0CAF
:10327300AD0DAA0AAB0BEEF91207ACE960037508B2
:10328300000E80E4AA0EAB0F1210528A108B11AEFF
:1032930010AF11EE4F60367C007D00EE2405FAEF8F
:1032A3003400FB8E828F83A3A3A3A3E0F9120782CA
:1032B300E9F509E509C3940A5016AC0CAD0DAA0A49
:1032C300AB0BA9091207ACE9750800800375081454
:1032D300A9087F0A021AEF74F7121A1DEAFEEBFF20
:1032E300900354EEF0A3EFF090033AE0FC7D007AF4
:1032F300267B00120B3CE9F50890033AE0F9120D26
:10330300FA7F01021AEF74EE121A1D8A108B11E96B
:10331300FE7412121A11780C1218967F00EE704187
:10332300850C08850D09850E0A850F0B9081487859
:103333000C1218967808790C1216C37810121C30E8
:10334300AA0CAB0DAC0EAD0F120BD874021219DC24
:10335300E9FFEF60167901AA10AB11120BD2E980D5
:103363000AEEF9AA10AB11120BD2E9EFF97F0A02A8
:103373001AEF74F2121A1D74EC1219C68A0A8B0B17
:10338300850A82850B83A3A3E024FA70030237D551
:1033930024FD700302364B1470030234681460106A
:1033A30024FD70030235F314700302368B02384395
:1033B300AE0AAF0B900354E0F8A3E0F9E849606963
:1033C300900354E0F8A3E0F5838882E0F8A3E0F9E2
:1033D300E8496055EE240CF582EF3400F583E0F5FF
:1033E300087808121C34EE240BF582EF3400F583C1
:1033F300E0F98E828F83A3A3A3A3A3A3A3A3A3E034
:10340300FCA3E0FDEE2403FAEF3400FB900354E049
:10341300F8A3E0F5838882E0F8A3E0F583888212BD
:103423001A1B74011219DC80398E828F83A3A3A324
:10343300A3A3A3A3A3A3121C479003501218B4126F
:103443000BD874021219DCE9601879018E828F831C
:10345300A3A3A3A3A3A3A3A3A3E0FAA3E0FB120B39
:10346300D2E9023843AE0AAF0B8E828F83A3E060AA
:10347300030235A18E828F83A3A3A3A3A3E0A2E0BB
:1034830040030235A19003EEE0F8A3E0F9E84960B8
:10349300030235A17C0E7D0079008518828519838E
:1034A300AA82AB831205968A088B09AA08AB09EE98
:1034B300240CF582EF3400F583E0F8A3E0F9E84942
:1034C300603B7508067509007808121C30EE240C61
:1034D300F582EF3400F583E02410FCA3E03400FD13
:1034E3007402121A11AA82AB8312057E7402121996
:1034F300DC8A088B0985088285098380548E828F34
:1035030083A3A3A3E0FAA3E0FB1210528A0C8B0D52
:10351300850C08850D09E50845096032750C0675AB
:103523000D00780C121C30E5082405FCE509340075
:10353300FD7402121A11AA82AB8312057E74021261
:1035430019DC8A0C8B0D850C82850D838003023870
:10355300438E828F83A3A3A3A3A3E0A2E25004D24A
:10356300F08002C2F0A2F0E433F87900740C121A6E
:1035730011E048F0A3E049F0EEFCEFFD85188285E9
:103583001983AA82AB831207BEE970127A027B0009
:1035930090033AE0F91205D2E97900023845900325
:1035A30054E0F8A3E0F9E8496043900354E0F8A33A
:1035B300E0F5838882A3A3E0F8A3E0F9E849602D4E
:1035C3008E828F83A3E0FC79018E828F83A3A3A3D2
:1035D300E0FAA3E0FB900354E0F8A3E0F5838882CC
:1035E300A3A3E0F8A3E0F5838882121A1B023843F1
:1035F300AE0AAF0B900354E0F8A3E0F9E849604545
:10360300900354E0F8A3E0F5838882A3A3E0F8A332
:10361300E0F9E849602F850A82850B83A3E0FC79F2
:10362300028E828F83A3A3A3E0FAA3E0FB9003544B
:10363300E0F8A3E0F5838882A3A3E0F8A3E0F58391
:103643008882121A1B023843AE0AAF0B7C007D003E
:10365300EE2404FAEF3400FB8E828F83A3A3A3E04E
:10366300F9120782E9F508E508C3940A5017EE2416
:103673000AFCEF3400FD7A0475F006E508A424255E
:10368300F9120998E9023843AE0AAF0B90034FE0F1
:103693006018900CF4E0F98E828F83A3A3A3E0FA61
:1036A300A3E0FB120BD2E9023843900CF1E0701552
:1036B30079058E828F83A3A3A3E0FAA3E0FB120B09
:1036C300D2E90238438E828F83A3A3A3E0FAA3E057
:1036D300FB1210528A0C8B0D850C08850D098E8206
:1036E3008F83A3A3A3A3A3A3A3E0A2E05075E5083C
:1036F3004509606C850882850983A3A3A3A3E060C1
:10370300628E828F83A3A3A3A3A3A3A3A3A3E0F89F
:10371300A3E0F9E8C4540FF879005401F8E9540020
:10372300F9E8A2E0403D740E121A11AC82AD83E5B4
:10373300082405FAE5093400FB850882850983A37B
:10374300A3A3A3E0F9120782E9701879038E828F8D
:1037530083A3A3A3E0FAA3E0FB120BD2E90238434D
:10376300023843EE2405FCEF3400FD850882850909
:1037730083A3A3A3A3E0F98E828F83A3A3A3E0FA79
:10378300A3E0FB12082A900354E0F8A3E0F9E84908
:10379300603E900354E0F8A3E0F5838882A3A3E09E
:1037A300F8A3E0F9E84960287C0079008E828F83D2
:1037B300A3A3A3E0FAA3E0FB900354E0F8A3E0F58E
:1037C300838882A3A3E0F8A3E0F5838882121A1BFF
:1037D300806E120C9EE970689003E3E06401701A36
:1037E3001207F4E9FE9003E37400F07C0A7D00798C
:1037F300007AE47B03120596803C7E00EEC3940AB4
:1038030050348E0875090074E42508F58274033575
:1038130009F583E06401701BEEF91207FAE9F88EEB
:103823000875090074E42508F58274033509F583E6
:103833007400F00E80C679501209A4E9FE1207E263
:10384300790174141219DC7F06021AEF74F3121A49
:103853001D74F21219C68909EAFEEBFF8C0C851858
:1038630082851983AC82AD837A0E75F006E509A4CF
:103873002420F912099EE970727C0679FF8518826B
:10388300851983AA82AB831205F6E9705E740C1264
:103893001A11E0F8A3E0F9E8F508E50C6005EE423B
:1038A300088004EEF4520885080A750B00740C12A4
:1038B3001A11E0650A7004A3E0650B602AE508A805
:1038C300087900740C121A11E508F0A3E9F08518C1
:1038D30082851983AC82AD837A0E75F006E509A45F
:1038E3002420F9120998E9790180027900740E12F3
:1038F30019DC7F05021AEF74F0121A1D74E612190F
:10390300C6890B8A0C8B0DECFEEDFF740C121A1199
:10391300AC82AD837A0E75F006E50BA42420F91270
:10392300099EE96003023A5E7C0679FF740C121A61
:1039330011AA82AB831205F6E96003023A5E851889
:1039430082851983AC82AD837A0C7470250BF912CE
:10395300099EE96003023A5A750A0085188285199F
:1039630083AA82AB831207B8E50C450D703A7C0C31
:103973007900851882851983AA82AB831205F6E93B
:103983006003023A347C0C7D007900851882851926
:1039930083AA82AB831205968A088B0985088285E0
:1039A3000983750A01023A34851882851983AC822A
:1039B300AD83AA0CAB0D1207B28A0E8B0F850E08CE
:1039C300850F09E50845097036EE4F602185188299
:1039D300851983AC82AD837A007B001207B28A0E0D
:1039E3008B0FA80EA90F88088909E849700479008C
:1039F300806B850882850983E50CF0A3E50DF085CE
:103A03000882850983A3A3E0F87900EE687002EFCA
:103A130069601EEE850882850983A3A3F0EE4F70CB
:103A23000D8508828509837400F0A37400F0750A7C
:103A330001E50A6022851882851983AA82AB831265
:103A430007B8851882851983AC82AD837A0C7470AC
:103A5300250BF9120998E9790180027900741A1289
:103A630019DC7F08021AEF74F7121A1DEAFEEBFF46
:103A73007B00EBC39404504EEBF87900E875F00338
:103A8300A4C8AAF075F000A42AFA75F003E9A42AE1
:103A9300F9EC28F582ED39F583E06E7003A3E06F4E
:103AA3007021EBF87900E875F003A4C8AAF075F06B
:103AB30000A42AFA75F003E9A42AF9EC28FAED39EF
:103AC300FB80070B80AC7A007B007F01021AEF7446
:103AD300F7121A1D7F00EFC394044003023B81EFEA
:103AE300F87900E875F003A4C8ACF075F000A42CD5
:103AF300FC75F003E9A42CF9EA28F582EB39F58388
:103B0300E0F4FCA3E0F4FDEFF87900E875F003A41A
:103B1300C8AEF075F000A42EFE75F003E9A42EF9EB
:103B2300EA28F582EB39F583ECF0A3EDF0EFF879B1
:103B330000E875F003A4C8ACF075F000A42CFC7584
:103B4300F003E9A42CF9EA28F582EB39F583A3A362
:103B5300E0F4C0E0EFF87900E875F003A4C8ACF036
:103B630075F000A42CFC75F003E9A42CF9EA28F500
:103B730082EB39F583A3A3D0E0F00F023AD97F019A
:103B8300021AEF74F0121A1D74F41219C6EAFEEB4E
:103B9300FF8C088D099003EEE0F8A3E0F9E8497083
:103BA3002CEE4F6006E508450970057901023E3E9B
:103BB300EEFAEFFB1207D6E9900CF7F0900CF7E062
:103BC300C3940A40081207E8E9900CF7F0900CF749
:103BD300E0C3940A4003023E3C9003EEE0F8A3E006
:103BE300F9E8496003023C88EEFCEFFD7A0E75F0BC
:103BF30006900CF7E0A42420F9120998E9F50C7C4F
:103C03000C7D0079FF851882851983AA82AB831204
:103C130005968A0E8B0F850E0A850F0B85188285F4
:103C23001983AC82AD837A0C900CF7E02470F912FF
:103C33000998E9F50D750E0E750F00780E121C30FC
:103C4300EEFCEFFD900CF7E0F87900E875F00EA4B8
:103C5300C8AAF075F000A42AFA75F00EE9A42AF9AF
:103C6300745628FA740339FB12057E74021219DCA8
:103C73008A0E8B0FA80EA90F9003EEE508F0A3E5BB
:103C830009F0023E389003EEE0F8A3E0C82406F5FD
:103C930082E83400F583E0F8A3E0F9E84960439053
:103CA30003EEE0F8A3E0C82406F582E83400F583C8
:103CB300E0FCA3E0FD7A1B75F006900CF7E0A4246A
:103CC30021F9120998E9F89003EEE0F9A3E0C92479
:103CD30006F582E93400F5837400F0A37400F00262
:103CE3003E389003EEE0F8A3E0C8240AF582E834F6
:103CF30000F583E0F8A3E0F9E84960439003EEE0C0
:103D0300F8A3E0C8240AF582E83400F583E0FCA3B5
:103D1300E0FD7A1B75F006900CF7E0A42422F9125B
:103D23000998E9F89003EEE0F9A3E0C9240AF582C3
:103D3300E93400F5837400F0A37400F0023E389078
:103D430003EEE0F8A3E0C8240CF582E83400F58321
:103D5300E0F8A3E0F9E84960439003EEE0F8A3E05C
:103D6300C8240CF582E83400F583E0FCA3E0FD7A77
:103D73001075F006900CF7E0A42423F9120998E9D2
:103D8300F89003EEE0F9A3E0C9240CF582E93400CE
:103D9300F5837400F0A37400F0023E389003EEE064
:103DA300F8A3E0C82408F582E83400F583E0F8A31B
:103DB300E0F9E849606F9003EEE0F8A3E0C8240857
:103DC300F582E83400F583E0FCA3E0FD7A1075F09A
:103DD30006900CF7E0A42424F9120998E9F50A9057
:103DE30003EEE0F8A3E0C82408F582E83400F58385
:103DF300E02410FCA3E03400FD7A0475F006900C77
:103E0300F7E0A42425F9120998E9F89003EEE0F904
:103E1300A3E0C92408F582E93400F5837400F0A314
:103E23007400F080109003E2E0600312083C120873
:103E33002479018006790080027901740C1219DC5F
:103E43007F08021AEF74F7121A1D74F21219C6E9E9
:103E5300FE851882851983AC82AD837A0E75F006D0
:103E6300A42420F912099EE9700E740C121A11E0B1
:103E7300F8A3E0F9E8F980027900740E1219DC7FE7
:103E830001021AEF74F4121A1D74F21219C6890989
:103E9300EAFEEBFFE509C3940A5004EE4F70047980
:103EA30002804B851882851983AC82AD837A0E75A7
:103EB300F006E509A42420F912099EE9F508E508AE
:103EC300702A750A06750B00780A121C30740212E8
:103ED3001A11AC82AD83EEFAEFFB12057E74021267
:103EE30019DC8A0A8B0B850A82850B83A908740E59
:103EF3001219DC7F04021AEF74F4121A1DEAFEEBA6
:103F0300FF750800E508C3940A5045750A06750B4A
:103F130000780A121C30EEFCEFFDE508A8087900D2
:103F2300E875F00EA4C8AAF075F000A42AFA75F09B
:103F33000EE9A42AF9745C28FA740339FB1205907C
:103F430074021219DCE96004A9088006050880B42C
:103F5300790A7F04021AEF74F4121A1DEAFEEBFFCA
:103F6300750800E508C3940A5045750A06750B00E9
:103F7300780A121C30EEFCEFFDE508A8087900E88A
:103F830075F00EA4C8AAF075F000A42AFA75F00E15
:103F9300E9A42AF9745628FA740339FB12059074BC
:103FA300021219DCE96004A9088006050880B479C7
:103FB3000A7F04021AEF74F7121A1D74F01219C65D
:103FC300EAFEEBFF750800E508C3940A504B851819
:103FD30082851983AC82AD837A1075F006E508A457
:103FE3002423F912099EE9702C7C1079FF8518822D
:103FF300851983AA82AB831205F6E97018EEFCEFEC
:10400300FD851882851983AA82AB83120BA8E970F8
:1040130004A9088006050880AE790A74101219DC19
:104023007F01021AEF74F4121A1D750800E508C324
:10403300940A400302410AE508A8087900E875F0EC
:104043000EA4C8AAF075F000A42AFA75F00EE9A42C
:104053002AF9745628FC740339FD7A0E75F006E5C7
:1040630008A42420F912099EE970030241057C0685
:104073007D0079FFE508AA087B00EA75F00EA4CA63
:10408300A8F075F000A428F875F00EEBA428FB74D3
:10409300562AFA74033BFB1205968A0A8B0BAE0A67
:1040A300AF0B7C067D0079FFE508AA087B00EA7563
:1040B300F00EA4CAA8F075F000A428F875F00EEB72
:1040C300A428FB745C2AFA74033BFB1205968A0A44
:1040D3008B0BAC0AAD0BE508A8087900E875F00E68
:1040E300A4C8AAF075F000A42AFA75F00EE9A42A70
:1040F300F9746228F582740339F5837400F0A374AC
:1041030000F005080240309003E2E0600312083C2F
:104113001208247F04021AEF74F7121A1D7E00EEB0
:10412300C3940A50327C0679FFEEFA7B00EA75F0FD
:104133000EA4CAA8F075F000A428F875F00EEBA43D
:1041430028FB74562AFA74033BFB1205F6E9600454
:10415300EEF980050E80C8790A7F01021AEF74F721
:10416300121A1D7E007F00EFC3940A502F7C06793C
:10417300FFEFFA7B00EA75F00EA4CAA8F075F00011
:10418300A428F875F00EEBA428FB74562AFA7403DE
:104193003BFB1205F6E970010E0F80CBEEF97F01B0
:1041A300021AEF74F7121A1D7E007F00EFC3940A00
:1041B300500DEE700AEFF91207FAE9FE0F80EDEEEB
:1041C300F97F01021AEF74F0121A1D74CB1219C68B
:1041D3008909900CF7E06509701D7A017B00900353
:1041E3003AE0F91205D8E97A027B0090033AE0F944
:1041F3001205D8E91208487427121A11AC82AD834C
:104203007A0E75F006E509A42420F912099EE960E7
:10421300030243357C0679FF7427121A11AA82AB75
:10422300831205F6E960030243357C0E7D0079FFB6
:104233007427121A11AA82AB831205968A0A8B0B72
:10424300850A0C850B0D7C1B7D0079FF740C121AFB
:1042530011AA82AB831205968A0E8B0F850E0A85EF
:104263000F0B7C0C7D0079FF851882851983AA8248
:10427300AB831205968A0E8B0FAE0EAF0F74271207
:104283001A11AC82AD837A0E75F006E509A42420D9
:10429300F9120998E9F508740C121A11AC82AD836E
:1042A3007A1B75F006E509A42421F9120998E9425D
:1042B30008740C121A11AC82AD837A1B75F006E5F3
:1042C30009A42422F9120998E94208740C121A115C
:1042D300AC82AD837A1075F006E509A42423F912A4
:1042E3000998E94208740C121A11AC82AD837A1052
:1042F30075F006E509A42424F9120998E942087423
:104303000C121A11AC82AD837A0475F006E509A488
:104313002425F9120998E94208851882851983AC86
:1043230082AD837A0C74702509F9120998E9420861
:104333008003750800A90874351219DC7F08021A76
:10434300EF74F7121A1DE9FE90033AF01207E27FA9
:1043530001021AEF74F2121A1D890AEAFEEBFFEE4C
:104363005400F8EF5480F9E849603590033AE0F9D6
:104373001205BA8A0C8B0DA80CA90D88088909E8C7
:10438300496012AA08AB0912080CE96008AA08AB35
:10439300091205A8E9EE6400FAEF6480FB02445BAE
:1043A300EE5402602D7C007D007A007B001207BE74
:1043B300E960187A017B0090033AE0F91205D2E92B
:1043C300EE6402FAEF6400FB02445B7A027B0002B4
:1043D300445BEEA2E0507D9003EEE0F8A3E0F583AA
:1043E3008882A3A3A3E0FAA3E0FB120842E9605E7C
:1043F300900354E0F8A3E0F9E8496045900354E0E2
:10440300F8A3E0F5838882A3A3E0F8A3E0F9E849E1
:10441300602F7C0079019003EEE0F8A3E0F5838838
:1044230082A3A3A3E0FAA3E0FB900354E0F8A3E084
:10443300F5838882A3A3E0F8A3E0F5838882121AA8
:104443001B120848EE6401FAEF6400FB800A7A014C
:104453007B0080047A007B007F06021AEF74F71258
:104463001A1DEAFEEBFF7508018E828F83E024504C
:10447300601314601924E1701CEEFAEFFB1207A01D
:10448300E9F5088010EEFAEFFB1208128007EEFA46
:10449300EFFB120818A9087F01021AEF74F7121A2A
:1044A3001DEAFEEBFF8E828F83A3A3A3A3E0641E0A
:1044B300701179008E828F83A3A3E0FAA3E0FB122D
:1044C3000788E97F01021AEF74F6121A1DEAFEEB60
:1044D300FF8E828F83A3A3A3A3E0703A8E088F0974
:1044E300850882850983A3A3A3A3A3A3A3121C47BF
:1044F300850882850983A3A3A3A3A3E0FCA3E0FD0E
:10450300850882850983A3A3E0FAA3E0FB12078E43
:1045130074021219DCE97F02021AEF74F7121A1DF2
:10452300EAFEEBFF90033AE0F98E828F83A3E0FA71
:10453300A3E0FB120E7EE97F01021AEFC082C08363
:1045430074FF1219C61207EEE9C39402400B8518D3
:10455300828519837402F080098518828519837412
:104563000AF0851882851983AC82AD837A017905B7
:10457300120CB6E974011219DCD083D08202013522
:1045830074F2121A1D74E81219C6EAFEEBFF890AC7
:104593008C088D097C187D00790085188285198324
:1045A300AA82AB831205968A0C8B0DAC0CAD0D85DC
:1045B3001882851983EEF0A3EFF090033CE0C0E08E
:1045C3007402121A11D0E0F090033DE0C0E07403CE
:1045D300121A11D0E0F0900CF6E0C0E07417121A32
:1045E30011D0E0F07415121A11E054FEF8A3E05450
:1045F300FFF9900CF5E0A2E0E433FA7B00E84AF817
:10460300E94BF97415121A11E8F0A3E9F0900CF5CF
:10461300E0A2E15004D2F08002C2F07415121A1124
:10462300E054FDFAA3E054FFFBA2F0E433F8790071
:10463300C333F8E933F9EA48F8EB49F97415121A68
:1046430011E8F0A3E9F0900CF5E0A2E35004D2F0F6
:104653008002C2F07415121A11E054F7FAA3E05461
:10466300FFFBA2F0E433F50C750D007403780C1214
:1046730019B3EA450CF8EB450DF97415121A11E854
:10468300F0A3E9F0900CF5E0A2E45004D2F080022C
:10469300C2F07415121A11E054EFFAA3E054FFFBB1
:1046A300A2F0E433F50C750D007404780C1219B301
:1046B300EA450CF8EB450DF97415121A11E8F0A34D
:1046C300E9F0900CF5E0A2E55004D2F08002C2F0CC
:1046D3007415121A11E054DFFAA3E054FFFBA2F0A1
:1046E300E433F50C750D007405780C1219B3EA4523
:1046F3000CF8EB450DF97415121A11E8F0A3E9F063
:10470300900CF5E0A2E25004D2F08002C2F07415DE
:10471300121A11E054FBFAA3E054FFFBA2F0E433B6
:10472300F50C750D007402780C1219B3EA450CF8F8
:10473300EB450DF97415121A11E8F0A3E9F0900393
:104743003DE0602A750C10750D00780C121C307C4E
:104753003E7D037406121A11AA82AB8312057E747E
:10476300021219DC8A0C8B0D850C82850D83900354
:104773004EE06012E50A600E7415121A11E044024D
:10478300F0A3E04400F090034EE060067801790066
:104793008004780079007414121A11E048F0900331
:1047A3003BE0600678047900800478007900741493
:1047B300121A11E048F0AC08AD09851882851983F7
:1047C300AA82AB83120BCCE974181219DC7F0602A0
:1047D3001AEF74F7121A1DEAFEEBFF750800900337
:1047E3004EE0600678017900800478007900E842A1
:1047F3000890033BE0600678047900800478007930
:1048030000E84208A908EEFAEFFB120C86E97F01E3
:10481300021AEF74EE121A1D74E51219C68A0C8B74
:104823000DE9FF8C088D09742D121A11E0F50A7435
:10483300086509700A75F006EFA42422FE80087546
:10484300F006EFA42421FE7C1B7D007900851882ED
:10485300851983AA82AB831205968A108B11851062
:104863000E85110F851882851983AC82AD837A1B5F
:10487300EEF912099EE9703C741A121A11E0C394FE
:10488300074031741A121A11E0C394115026E50A35
:10489300F50B780B121C347401121A11AC82AD8320
:1048A300E508A2E0E433F9AA0CAB0D120BDE7401A8
:1048B3001219DCE9741B1219DC7F0A021AEF74F770
:1048C300121A1D120EF0E97E00EEC3940A50557CB5
:1048D3000679FFEEFA7B00EA75F00EA4CAA8F0751C
:1048E300F000A428F875F00EEBA428FB74562AFAFE
:1048F30074033BFB1205F6E97027EEF87900E875BF
:10490300F00EA4C8AAF075F000A42AFA75F00EE917
:10491300A42AF9745628FA740339FB7900120EF6A7
:10492300E90E80A57F01021AEF74F6121A1D74FDB9
:104933001219C6EAFEEBFF9003F0E0F8A3E0F9E8F2
:104943004970397508F27509037808121C30750827
:10495300027509007808121C30750887750981787B
:1049630008121C307CFF7DFF7A017B00120D467418
:10497300061219DC9003F0EAF0A3EBF09003F0E0E9
:10498300F8A3E0F9E8497003024A4DE4F508F50994
:104993007808121C307404121A1185820885830961
:1049A3007808121C307404121A1185820885830951
:1049B3007808121C309003F2121C4779029003F01E
:1049C300E0FCA3E0FDEEFAEFFB120E6C7408121983
:1049D300DCE9704A851882851983E0FA7B0074014B
:1049E300121A11E0F87900E4C8F9EA28F508EB395E
:1049F300F509E508450960267808121C309003F094
:104A0300E0F8A3E0F5838882A3A3A3A3E0FCA3E0DB
:104A1300FDEEFAEFFB12078E74021219DCE9E4F5DE
:104A230008F5097808121C309003F2121C477CFF2A
:104A33007DFF9003F0E0FAA3E0FB120D5274041221
:104A430019DC9003F0EAF0A3EBF09003F0E0F8A395
:104A5300E0F9E849700479018002790074031219BE
:104A6300DC7F02021AEFC082C0839003EEE0F8A35A
:104A7300E0F9E84960179003EEE0FAA3E0FB1205C2
:104A8300A8E9F89003EE7400F0A37400F0900CF71B
:104A9300740AF0D083D082020135C082C083E990CA
:104AA3000DE5F0024CC774F7121A1DE990059EF04C
:104AB3007CD67D057AFF7BFF120E8490059F74FFE1
:104AC300F0A3F0A3E4F0A3F07905120E1290059E73
:104AD300E0F9120D2E7A9C7B0E1210407F01021A10
:104AE300EF74F4121A1D8A088B09EB54806030901E
:104AF300059EE0F91205BA8A0A8B0BAE0AAF0BEEDC
:104B03004F60138E828F83E064B07003120E24EE25
:104B1300FAEFFB1205A8AA08E5096480FB80047A72
:104B2300007B00024C9674F2121A1D74FC1219C613
:104B3300EAFEEBFFEE4F60387402121A11EEF0A397
:104B4300EF124EFBECF0A3ED124EFBAA82AB8312E5
:104B53000D28E9F50870737412121A11125AAFE591
:104B63000A450B60658E828F83124BD7EE4F70051B
:104B730075080280557A067B001206328A0C8B0D6B
:104B8300A80CA90DE8497005750813803D88828932
:104B930083E4124BE1A3A3EEF0A3EF125F48E50A0F
:104BA300F0A3E50BF09005A4124C699005A46017DF
:104BB300E0FCA3E08003EAFCEBFD8C828D83124CC6
:104BC3006970F38C828D831259D4A9087404121965
:104BD300DC02614AA3A3A3A3E0FEA3E0FF22F0A3A8
:104BE300F0888289832274F2121A1D890AE975F00A
:104BF30017A4FEAFF09005A3E4F09005A1124C6951
:104C0300600A1206389005A1E4F0A3F0EEFAEFFB78
:104C13001206328A088B09EA4509602FEEFCEFFD84
:104C230079001205969005A1E508F0A3E509F07B4C
:104C3300008008124C53E4F0A3F00BEBC3950A4039
:104C4300F2E50A9005A3F079008002791302614A24
:104C5300EB75F017A4F8A9F09005A1E028FAA3E0FA
:104C6300398A82F5832212576AEA4B2274F4121AA4
:104C73001D7900EAA2E0501B7508EE7509807808DB
:104C8300121C307C047D007AE77B0D120E0C74023B
:104C93001219DC7F04021AEFC082C0839005A412AC
:104CA3004CCE601C88828983A3A3E06A7003A3E0CF
:104CB3006B8882898370E8A3A3A3A3125766800439
:104CC3007A007B00D083D08202013512621DE8494D
:104CD3002274EE121A1D74FC1219C6EAFEEBFF854C
:104CE3001882851983E4F0A3F0EE24021259B8EE7A
:104CF3002405124EE9EE2404F50EEF1252CEE02401
:104D0300FE603924FC604624FE605224FE605E246B
:104D1300FE7003024DEE24FE7003024E6624FE7005
:104D230003024E7524FE7003024E8424FC700302BA
:104D33004E9324FE7003024EA2024EDF9005BD7413
:104D430017F0A3E4124F03120A22024EDF851882E2
:104D5300851983AC82AD83120E2A024EAF85188269
:104D6300851983AC82AD83120E30024EAF850C08D9
:104D7300850D097402121A11AC82AD8385088285F0
:104D83000983125766120D4C8A0C8B0DAC0CAD0DBA
:104D9300EC4D6042E4F50CF50D780C121C30750CEB
:104DA300BD750D05780C121C30750CBE750D05789C
:104DB3000C121C307408121A11121C477916125760
:104DC30060120E6C74081219DCE9F50C700B1257A3
:104DD3005C120A3A800F750C0185088285098312DB
:104DE3004EF11259D4850C08024EB27402121A11F4
:104DF300AC82AD83850C82850D83125766120D4CF0
:104E03008A108B11AC10AD11EC4D6043850C82857B
:104E13000D83A3A3121C477510BD751105781012DD
:104E23001C307510BE7511057810121C30740812F1
:104E33001A11121C477916125760120E6C7408125D
:104E430019DCE9F509700B12575C120A40800F75E3
:104E53000901850C82850D83124EF11259D48509FF
:104E630008804C851882851983AC82AD83120E3677
:104E7300803A851882851983AC82AD83120E3C80FB
:104E83002B851882851983AC82AD83120E42801C58
:104E9300851882851983AC82AD83120E48800D85F7
:104EA3001882851983AC82AD83120E4EE9F508E5AD
:104EB3000860298E828F83A3E06414601F850E82AD
:104EC300850F83E09005BD124EFB1262199005BE5B
:104ED3001259D4E508A3124F03120A1CEEFAEFFB92
:104EE300120DD00258C0F50CEF3400F50D221262FA
:104EF3001D85188285198322F085188285198322DE
:104F0300F07CBD7D05850A82850B8312576A227466
:104F1300EE121A1D74FC1219C68A0A8B0B8C0E8DA5
:104F23000FEA2405F508EB3400F5097C157D0079BB
:104F3300007ABD7B05120596E5082402F50CE50908
:104F4300124EEC851882851983858210858311782A
:104F530010121C30850882850983A3A3A3A31254CE
:104F630016121C30E5082405F510E5093400F51187
:104F73007810121C30850C82850D83125770120D28
:104F83004674061219DC8A108B11AE10AF11E50AB4
:104F93002402F50AE50B1259BBEE4F70030250D8F9
:104FA30080177402121A1112576688828983EAF0F5
:104FB300A3EBF09005BDE004F09005BDE0C39405BC
:104FC30040030250D8E4F510F5117810121C307527
:104FD30010A67511057810121C307510A7751105F0
:104FE3007810121C307406121A11121C477910EE35
:104FF300FCEFFD125760120E6C74081219DCE97095
:105003005E850882850983A3A3A3A3A3A3A3E0F8D2
:105013009005A6E0687048125416121C307CA77DD8
:1050230005E5082408FAE5093400FB12059074022B
:105033001219DCE960298E828F83A3A3A3A31257DD
:10504300669005BDE0F510740278101219B374BEB2
:105053002510F58274053511F583EAF0A3EBF0749E
:1050630002121A118582108583117810121C307474
:1050730002121A11121C47850C82850D8312622EAF
:10508300120D5274041219DC8A108B11AE10AF1179
:105093009005BDE0F510751100740278101219B374
:1050A30074BD2510F874053511F988828983A3121C
:1050B3004C697003024F9CE82403F8E93400F9EECD
:1050C3004F6003024FA58882898374FFF0A3F09099
:1050D30005BDE004F09005BDE0600A12575C120ABA
:1050E3002E7900800B8508828509831259CB790AB2
:1050F3000258C074EA121A1D74FE1219C68C128D5E
:1051030013EA2405F50CEB126238124BDB75080029
:10511300750900EA2402F510EB3400F511851882B5
:1051230085198385820A85830B780A121C30850CC6
:1051330082850D83A3A3A3A31252D8121C30E50CBE
:105143002405F50AE50D1259BB780A121C30850CAB
:1051530082850D8312622C120D4674061219DC8AA5
:105163000A8B0BEA450B7003025289EA2404F50EFD
:10517300EB1252CE124BDB8A828B83A3A3A3E0F9FB
:10518300851082851183125766120D34E9F5096083
:1051930003025289E4F514F5157814121C307514C2
:1051A300A67515057814121C307514A775150578A6
:1051B30014121C307406121A11121C477913AC0A0C
:1051C300AD0B851082851183125766120E6C74081D
:1051D3001219DCE9F50960030252899005A6E0F88B
:1051E300E5087009E024029005BEF080179005BE23
:1051F300E0FCE82402FAE43400FBEA6C7001EB60A3
:105203000302528D850882AA8212540D94141254FB
:10521300055073850E82850F83E0C0E074BF2A12A8
:1052230052C5D0E0F00508850E82850F83A3E0C048
:10523300E085080A74BF250A1252C5D0E0F00508BC
:105243009005A61252D8121C307CA77D0585080A4A
:1052530074BF250AFA74053400FB12057E7402122A
:1052630019DC9005A6E02508F50874FF6E70037439
:10527300FF6F6012EE24010EEF3400FFE508C394C4
:10528300145003025120E508601312565185108211
:10529300851183125766120A3479008014E5097068
:1052A3000375090A851282851383EEF0A3EFF0A933
:1052B3000974021219DC7F0E021AEF85080C74BF01
:1052C300250CF58274053400F583223400F50F852F
:1052D3000E82F58322125F5B2274EE121A1D74FE96
:1052E3001219C68C0E8D0FEA2405F50CEB124EEC49
:1052F300750B009005BDE4F0F50AEA2402F508EB0E
:105303003400F50980499005BDE0FA9005A6E0F860
:1053130012540D9417125405400D9005BDE0F87416
:1053230016C3989005A6F0125416121C307CA77D64
:105333000574BE2AFA74053400FB12057E7402124A
:1053430019DC9005A6E0F89005BDE028F0050AE514
:105353000C2416F582E50D1252C9E0F8E50AC3984C
:1053630040030253EE9005BDE0C39416507DE50A59
:10537300C333F8E433F9E50C28FEE50D39FF85184E
:1053830082851983AC82AD838E828F831257661216
:105393000D4C8A108B11AC10AD11EC4D7005750BD3
:1053A300018043E4F510F5117810121C307510A636
:1053B3007511057810121C307510A775110578103A
:1053C300121C307406121A11121C477916850882B2
:1053D300850983125766120E6C74081219DCE9F5FD
:1053E3000B70030253091259C780107CBD7D0585DC
:1053F3000882850983125766120A46A90B740202B2
:1054030058C2E99400C365D03322EA28F8E4340093
:10541300F9E822E0F51075110078102274EA121AE7
:105423001D74FC1219C68A0C8B0D8C128D13EA2481
:1054330005F50AEB1259BB750800750900E50A2446
:1054430002F510E50B3400F5117402121A1185826E
:105453000E85830F780E121C30850A82850B83A379
:10546300A3A3A3125F07121C30E50A2405F50EE57A
:105473000B3400F50F780E121C30851082851183D2
:105483001259C1125760120D4674061219DC8A0EA6
:105493008B0FAE0EAF0FE50C2402F50EE50D3400B5
:1054A300F50F80408882898374FFF005081252BE8D
:1054B30074FFF005089005A6E0F50C750D00780C57
:1054C300121C307CA77D0585080C74BF250CFA746B
:1054D300053400FB12057E74021219DC9005A6E068
:1054E3002508F508EE4F60718E828F83A3A3A3E096
:1054F300F9850E82850F83125766120D34E9F5097B
:10550300EE2404124EE9E97044E4F514F515781419
:10551300121C307514A67515057814121C307514F9
:10552300A77515057814121C307408121A11121C71
:10553300477911EEFCEFFD850E82850F83125766C6
:10554300120E6C74081219DCE9F5096027850C82C8
:10555300850D831256471259D4E508700302562D60
:10556300125651850E82850F83125766120A4C79A3
:1055730000025642850882AA82EA9005A67009E0D5
:1055830024049005BEF08022E0F89005BEE0F514F7
:10559300E82404FCE43400FDEC65147001ED70C0F4
:1055A30012540D941212540550B6850C82850D8346
:1055B300E0C0E074BF2A1252C5D0E0F00508850CA4
:1055C30082850D83A3E0C0E01252BED0E012566381
:1055D30085820C85830D780C121C307404121A1109
:1055E300121C4785108285118312622E120D52748C
:1055F300041219DC8A0C8B0DAE0CAF0D85080C74EC
:10560300BF250CF874053400F9EE4F70030254A75C
:10561300851882851983E088828983125663A3E003
:10562300C0E01252BED0E00254B5E509700375091B
:105633000A850A82850B831256471259D4A9097425
:10564300040252B612621D851282851383229005CD
:10565300BEE0F5F0E508849005BDF07CBD7D052234
:10566300F005088518828519832274EC121A1D74BB
:10567300FE1219C68A088B098C0E8D0FEA2405FECB
:10568300EB3400FF851882851983AC82AD838E824B
:105693008F83125766120D4C8A0A8B0BEE24181255
:1056A3004EE9EA450B70030257371258A950328569
:1056B3001882851983125766120E608A108B11EABD
:1056C3004511606B7912AC0AAD0B8508828509839D
:1056D300125766851082851183121A1BE9F50A7029
:1056E30058E4F50AF50B780A121C308E828F83A3D7
:1056F300A3E0F50A780A121C30EE24031259B87895
:105703000A121C308E828F83125770120E72740627
:105713001219DCE9F50A7021850C82850D83E0708E
:105723001F850882850983125766120A52801175F4
:105733000A0E8009750A018004E50A60031259C73D
:10574300850C82850D83E0600479008002A90A74C8
:10575300021219DC7F0C021AEF7CBD7D05850A82DB
:10576300850B8312576A22E0FAA3E0FB22E0FCA335
:10577300E0FD85088285098312576A2274EE121AA6
:105783001D74FE1219C68A088B098C0C8D0DEA2430
:1057930005FEEB3400FF750E00851882851983AC76
:1057A30082AD838E828F83125766120D4C8A0A8BC9
:1057B3000BEA450B70030258951258A9503585180A
:1057C30082851983125766120E608A0E8B0FEA4583
:1057D3000F605E7912AC0AAD0B85088285098312CE
:1057E3005766850E82850F83121A1BE9F50E600337
:1057F300025898850882850983125AAFAA0AFB12B8
:105803000E548A108B11A810A911E849701E7AFF53
:105813007BFF120E548A108B11A810A911E849605E
:105823006C88828983E50AF0A3E50BF0750A008092
:1058330007750E0E805F050A9005A3E0FAE50AC31B
:105843009A504AE50A75F017A4FAABF08882898367
:10585300A3A3E02AFAA3E03BFB8A828B831259C1FC
:10586300EC4D70D2750A17750B00780A121C30EED6
:10587300FCEFFD12057E74021219DCEEFCEFFD85D0
:105883000882850983125766120A588014750E0917
:105893008003750E01126215850C82850D831259E2
:1058A300D4A90E025400E5082402F508E5093400E2
:1058B300F5098A828B83A3A3A3E0A2E522740412D1
:1058C30019DC7F0A021AEF74EC121A1D8C108D1169
:1058D300EA2405F50CEB124EEC750F00EA2402F5F1
:1058E3000AEB1259BB850A82F583125766120E54CE
:1058F3008A088B09EA450970030259AD750E0080C9
:1059030071850C82850D83E06401704F8E828F83D5
:10591300A3A3121C478E828F83A3A3A3A3E0F51234
:105923007513007812121C30EE2405F512EF3400C3
:10593300F5137812121C30125760120E727406128D
:1059430019DCE9F50F6014850C82850D83E4F012F0
:1059530062158510828511831259D47C177D0079D5
:1059630000EEFAEFFB1205968E828F83E4F0A3F02C
:10597300050E9005A3E0F8E50EC398501EE50E75DD
:10598300F017A4F8A9F0850882850983A3A31262FE
:10599300421259C1EC4D60030259048508828509FE
:1059A3008374FFF0A3F0E50F7006125760120A5ECE
:1059B300A90F025757F50AEF3400F50B22A3E0FCB9
:1059C300A3E0FD228E828F8312621D850E82850FD6
:1059D30083E8F0A3E9F022C082C08390059FE06AC8
:1059E3007003A3E06B70067A9F7B0580047A007BCB
:1059F30000024CC7C082C08378008C828D83E06A2A
:105A03007003A3E06B7010E875F003A4F8A9F0EC41
:105A130028FAED39FB8015088C828D83A3A3A3E0BC
:105A23006A7003A3E06B60DF7A007B00024CC774EB
:105A3300F6121A1D120E1E8A828B83E5824583702D
:105A4300067A007B008007A3A3A3A3125766026014
:105A5300C674F2121A1DE9FE740E121A11125AAF0D
:105A63007410121A11125F278C828D83E064027006
:105A730036A3126223F50CA3E0F9A80C7402687034
:105A8300037429697021750C02750D00780C121CC2
:105A9300307808121C30780A121C30EEF9120E9678
:105AA30074061219DC8002790102614AE0F50AA347
:105AB300E0F50B2274E8121A1D74FB1219C6E9856E
:105AC3001882851983F08A168B17ECFEEDFF75108B
:105AD30000741D121A11126219741D121A1112592F
:105AE300D48E828F83A3A3A3E0A2E4502D741D124E
:105AF3001A11125766120E608A828B83E5824583E0
:105B03007003025EF8790AEEFCEFFDAA16AB1712DA
:105B13001A1BE9F5106003025EFB741F121A1112BF
:105B23005F277421121A11125AAF7423121A11E04B
:105B3300F50EA3E0F50F8E828F83E064026003020B
