:020000040000FA
:0600000002011D0223971E
:03002B00021C565E
:0300530002240A7A
:03006B00021C2252
:10008300022203E5C754F84401F5C77901220000B1
:100093000080FB120086B90003020107E47921788E
:1000A30008B800028004F709D8FCE479297802B87B
:1000B30000028004F709D8FCE49002817863790890
:1000C3008002F0A3D8FCD9FA781A90014D7A01BACC
:1000D30000028007E493A3F608DAF99009E3AA8201
:1000E300AB8390014E78EE79038015E493A3AC8241
:1000F300AD838A828B83F0A3AA82AB838C828D83A8
:10010300D8E9D9E77582767583E8740312012F75F0
:100113008291758300740012012F75D00075813FA1
:10012300751881751902759F00020096C09FF59F8F
:10013300E473D09F22D083D082C09FE493C0E07445
:100143000193C0E0740293F59F2201FFFF1101990F
:10015300010F126404010297810100008081028370
:1001630081010000EA0902C381010000EB09028555
:1001730081030000A602029381010000EC09080933
:1001830043474D2053696D02010505021F180A18E4
:1001930043474D2053696D756C61746F72000000A5
:1001A3000000000000E80300A000009534129078DE
:1001B30056001403030801DF07EC00A800AF050095
:1001C300001002020A02020028280297810100009F
:1001D3007481028381010000590A02B38100000087
:1001E30006030285810300000003028381010000EE
:1001F3005A0A02C58101000007030283810100003E
:100203005B0A02BD81010000080302838103000031
:100213005C0A02BB8103000009030283810300001F
:100223005D0A02B9810300005E0A028381030000B4
:10023300600A02B7810300001003028581030000F6
:100243000A03028381030000610A02B581030000EF
:100253001703028581030000110302020202020256
:10026300020202010D00000010010297810100004B
:100273007D81028381010000F20A02AF8101000047
:100283001803028381010000F30A02AD810100001B
:10029300CE80028381010000F40A02AB81010000D9
:1002A300D580028381010000F50A02A981010000C3
:1002B3005481028381010000F60A02A78101000034
:1002C3005881028381010000F70A02A58101000021
:1002D3005C81028381010000F80A02A3810100000E
:1002E3006081028381010000F90A02A181010000FB
:1002F300B180028381010000FA0A029F810100009C
:10030300FB0A01E803053F100AFF000130750302F1
:1003130001060000000000000000000000000000D3
:100323000000000000000000000000000000FFFFCC
:100333000600800CE803FF0000B40000280028003A
:10034300283075A000A000A000A00000080008E06D
:1003530001F00010001000100010001000100050F9
:10036300005000500010001000D0070000000000F3
:10037300000F000100050030750700100001008127
:10038300FF00000000FFFB0A190B010BFF02020232
:1003930008025000A0000000E8030297810100005A
:1003A3007A81028381010000250C0287810100000C
:1003B3001405028381010000260C028981010000DB
:1003C3002A05028381010000270C028B81010000B2
:1003D3002C05028381010000280C028D8108000096
:1003E3002D05028381010000290C028F8101000089
:1003F3002A0CFFFF0100FF20029781010000778193
:100403000283810100008F0C029181000000000033
:10041300028581030000BC050D110D110D110D1195
:100423000D110D110D110D110D110D110D110D11D9
:100433000D11A113B9139B1312013800800312018C
:10044300381580031201386D8003120138D48003FC
:100453001201381C8103120138928103120138C141
:100463008103120138CF8103120138338203120151
:10047300387182031201388C8203120138248303FA
:10048300120138CD830312013850840312013889D5
:1004930084031201381485031201386B850312019A
:1004A30038CA8503120138DC85031201380286033A
:1004B3001201380B86031201386A8703120138C50B
:1004C300E603120138C4FC02120138A3FD02120133
:1004D30038FFFD0212013819FE021201382AFE020A
:1004E3001201384AFE0212013848D5031201388D31
:1004F300D503120138D3D50312013866D70312018D
:10050300384CE50312013867E50312013877E50338
:10051300120138CEE5031201383E96031201385E0C
:100523009603120138629703120138AE9703120142
:1005330038CE97031201382198031201388E98039D
:10054300120138D49803120138389903120138EA9A
:100553009B031201386B9C03120138B6DF031201AF
:1005630038E6DF0312013816E00312013836E003E0
:1005730012013890E0031201382EC40312013863CC
:10058300C40312013852C50312013836C6031201DF
:1005930038EECD0112013810D00112013893D00189
:1005A300120138CDD00112013860D101120138296E
:1005B300D201120138B3D30112013829D401120137
:1005C300385AD4011201385BD60112013888D6019A
:1005D30012013822DA011201387FDD01120138726B
:1005E300A103120138DBA103120138EEA1031201AA
:1005F300383FA2031201389EA203120138E3A3037A
:100603001201380BA6031201387C9C03120138A196
:100613009C03120138DC9C0312013868E7031201C2
:1006230038D02A00120138DE2D001201389E2F0027
:10063300120138493000120138ED300012013886BA
:100643003100120138B53100120138213200120194
:1006530038FB3600120138A637001201381639006C
:100663001201387E3900120138323A00120138F48F
:100673003C00120138333D00120138A73D0012013E
:1006830038063E00120138653E00120138D43E00A0
:10069300120138C73F001201380D400012013852D1
:1006A3004000120138754000120138F04100120178
:1006B300380342001201380C43001201384B430047
:1006C300120138774300120138CA4300120138EB94
:1006D30043001201382F44001201388146001201F1
:1006E30038C246001201386D4700120138D847005E
:1006F3001201381549001201384DE4031201385E26
:10070300E4031201383CE5031201389FD2031201BE
:10071300383AD5031201381AE903120138F8E00315
:1007230012013808E10312013822E1031201382AC9
:10073300E20312013839CA03120138DFCA03120176
:1007430038FBCC0312013863DE0312013895DE0354
:10075300120138F5DE031201380CDF031201386889
:10076300DF03120138A5DF03120138A8DF031201EA
:10077300385EA6031201387DA60312013812A703BF
:1007830012013802A8031201385FAA03120138BF0D
:10079300AA0312013828AB03120138F87F001201B3
:1007A30038F2CF03120138E9D10312013855D203CD
:1007B3001201389CD203120138AAD703120138134D
:1007C300D803120138D1D80312013850D9031201CA
:1007D30038E5B80312013817B9031201381FBA03F9
:1007E30012013844BB0312013800BC03120138F272
:1007F300E902120138D8EA0212013825EB0212018C
:100803003868EB02120138DDEB021201383EEC02CC
:10081300120138B3EC021201388FED021201389A3B
:10082300EE021201381BEF02120138C2F00212016C
:100833003858F102120138CBF10212013847F202A3
:100843001201385EF20212013895F302120138EFF9
:10085300F302120138E9AA0112013881AF01120132
:100863003855B2011201387EB201120138A7B20124
:1008730012013859B3011201383FB5011201387A18
:10088300B601120138B0BB01120138E9BB011201F4
:10089300382DBC011201383FBD0112013856E30364
:1008A3001201386CE3031201389BE303120138D1C0
:1008B300E303120138E8E3031201381FE4031201D2
:1008C3003836E403120138A9D903120138C0D90319
:1008D300120138F1D9031201382CDA031201385608
:1008E300DA0312013880DA0312013897DA031201AE
:1008F30038AEDA03120138C5DA03120138EEDA032F
:1009030012013801DB0312013817DB031201382A05
:10091300DB0312013851DB03120138F2D202120158
:1009230038F6D30212013823D40212013879D402E3
:100933001201389CD402120138B0D402120138B229
:10094300D402120138D5D402120138DBD5021201C8
:10095300389FD60212013874D702120138EFD7023A
:10096300120138F2D7021201387AD802120138B5CF
:10097300D802120138ECD8021201387AD9021201D6
:100983003853DA0212013856DA02120138B6DA02A3
:10099300120138C1DA0212013840DB021201384376
:1009A300DB0212013846DB0212013849DB02120175
:1009B30038D8DB02120138E2DB02120138F2DB0223
:1009C30012013822DC021201382FDC021201383204
:1009D300DC02120138B3DC02120138A1DD0212017C
:1009E3003853DE0212013846AB031201386EAB03F3
:1009F3001201389CAB03120138D3AB031201383117
:100A0300AC031201387CAC03120138C7AC031201EA
:100A13003807AD031201384DAD031201387BAD0326
:100A230012013838AE0312013842AE031201384FB7
:100A3300AE0312013882AE031201384EAF03120126
:100A4300385AAF0312013872AF031201387CAF0377
:100A5300120138147F00120138227F001201383A44
:100A63007F00120138527F00120138BAEC011201E3
:100A73003866ED01120138E1ED0112013802EF0190
:100A83001201383EEF01120138E7EF01120138CEAF
:100A9300F00112013832F20112013889F201120118
:100AA300380AF301120138FAF30112013847F4014D
:100AB300120138CDF401120138FFF4011201381389
:100AC300F70112013855F70112013873F7011201CA
:100AD30038F6F701120138CAF80112013892F90108
:100AE3001201381B8F03120138EE8F03120138975E
:100AF3009003120138EA90031201389A910312010C
:100B030038269203120138129303120138419303DA
:100B13001201385494031201389C94031201387162
:100B23009503120138AD9503120138C995031201DB
:100B330038F2E70312013895C003120138ABC00342
:100B4300120138D1C003120138EDC103120138F785
:100B5300C1031201382CC30312013824C403120148
:100B630038ED79001201381D7B00120138507B00EB
:100B73001201389A7B00120138617D00120138009E
:100B83008002120138848002120138CD80021201E2
:100B930038B482021201386D840212013849850289
:100BA300120138FD85021201383A8902120138E830
:100BB3008902120138578B02120138E98C021201A3
:100BC30038218D02120138BE8D02120138FFBD019A
:100BD30012013869BE01120138C8BF01120138D8A9
:100BE300BF0112013805C0011201385CC0011201B6
:100BF3003805C1011201380CC201120138D6C201F5
:100C030012013836C40112013879C4011201381EA9
:100C1300C5011201386BC50112013891C5011201DA
:100C2300389FC701120138A4C701120138A9C901AD
:100C3300120138F6C90112013869CA011201389C40
:100C4300CA011201383ECB01120138E7CB01120170
:100C5300381FCC0112013822CC011201386ACC01B1
:100C6300120138AACC0112013801CD011201381644
:100C7300CD0312013829CD0312013837CD031201F8
:100C8300387FCD0312013895CD03120138DCCD0333
:100C9300120138F0CE031201387DCF03120138C898
:100CA300CF03120138494900120138554900120196
:100CB30038904900120138D54900120138954A008D
:100CC3001201381B4B00120138474B0012013880C8
:100CD3004B00120138BE4D00120138A24F00120121
:100CE30038885100120138CB5200120138195500CF
:100CF3001201382B5600120138765700120138863C
:100D03005800120138A35800120138DE58001201AE
:100D130038005900120138635900120138245E006B
:100D2300120138B95E001201380A5F00120138312E
:100D33005F00120138835F00120138A15F001201C6
:100D430038FB5F00120138FA60001201387E61003F
:100D530012013803B0031201380DB00312013850E9
:100D6300B0031201386BB003120138FBB003120158
:100D73003823B10312013860B10312013897B1036C
:100D8300120138C0B10312013835B2031201384AD7
:100D9300B2031201385FB20312013890B203120199
:100DA30038A4B203120138C9B20312013803B303E2
:100DB3001201382FB303120138B2B303120138FB07
:100DC300B30312013825B40312013850B4031201DE
:100DD3003830E2031201381FC6021201384DC60231
:100DE3001201389BC7021201387BC8021201389ADC
:100DF300C80212013817C9021201385AC902120176
:100E030038B0CA0212013871CB02120138F8CD0290
:100E130012013899CE021201388FCF021201388C99
:100E2300D002120138E6D10212013871D202120146
:100E33003808DD0312013871DD03120138C5DD0303
:100E4300120138ECDD031201381DDE03120138787C
:100E5300B403120138E5B4031201382CB5031201AF
:100E63003844B60312013840B70312013823B803DC
:100E73001201385BF4021201389DF4021201386F3B
:100E8300F50212013848F60212013842F702120144
:100E93003824F8021201388DF80212013843F9029E
:100EA300120138B7F90212013823FA021201384C41
:100EB300FA02120138C6FA021201385FFB0212016C
:100EC30038C4FB02120138D9FB021201381FFC029D
:100ED30012013838FC021201389DFC02120138A0BD
:100EE300FC0212013840C70312013868C70312011C
:100EF30038A6C70312013864C803120138CBC803EC
:100F0300120138E7C8031201380FC9031201383F31
:100F1300C9031201384EC903120138CBC9031201A8
:100F230038F1C90312013882DD0112013860DF0193
:100F330012013892E101120138CEE101120138FBAE
:100F4300E101120138E5E20112013830E301120137
:100F5300387BE3011201388DE301120138CDE3013F
:100F630012013802E40112013850E4011201387F02
:100F7300E401120138A2E401120138EFE401120185
:100F83003874E5011201388EE701120138CDE90109
:100F93001201380EEA01120138B0EB01120138F1E7
:100FA300EB0112013864EC011201380AB902120193
:100FB3003808BA02120138A1C002120138C2C202B3
:100FC3001201388DC402120138F5C502120138E549
:100FD3006100120138946200120138C162001201EB
:100FE30038076300120138476400120138DD6500D9
:100FF300120138576600120138726600120138ED8B
:101003006600120138476800120138A7690012010F
:1010130038AD6A001201380E6C00120138276C00DB
:10102300120138856C00120138736D00120138A665
:101033006D00120138166E00120138906E00120115
:1010430038DA6E00120138A46F001201387970008B
:10105300120138587100120138E37100120138513E
:101063007200120138C57200120138F072001201C9
:1010730038AF73001201381475001201383175004E
:10108300120138507500120138417600120138669A
:1010930076001201389076001201380B77001201A6
:1010A30038657700120138CE78001201387C790058
:1010B300120138BD790012013836AB0212013884AF
:1010C300AB0212013890AB021201386EAC0212016E
:1010D300389FAC02120138D0AC0212013850AD0275
:1010E30012013888AD02120138DAAD021201381745
:1010F300AE0212013834B0021201385AB2021201A0
:101103003845B4021201382FB602120138C52A003D
:10111300120138D69601120138069701120138DF01
:101123009D01120138649F0112013861A50112016A
:101133003849A60112013886A601120138A9A60171
:10114300120138DAA601120138E3A601120138EDC3
:10115300A601120138DBA701120138D1A80112013F
:1011630038C78101120138C68501120138CC8501C7
:10117300120138078D01120138209201120138C77C
:10118300BC031201385DBD0312013873BD031201A4
:1011930038E9BD031201385DBE031201389BBE035B
:1011A3001201380FBF0312013888BF0312013891AF
:1011B300BF031201389DBF03120138B2BF031201EE
:1011C30038F0BF0312013806C00312013865C003AB
:1011D300120138ABFB01120138B8FB01120138D2FE
:1011E300FB0112013811FC011201384FFC011201FD
:1011F30038B4FC01120138C9FC01120138D4FC01D6
:10120300120138E1FC01120138F8FC011201380621
:10121300FD0112013811FD011201381DFD011201FA
:10122300382CFD0112013837FD011201385AFD0136
:1012330012013801FE0112013811FE011201382B8F
:10124300FE0112013848FE0112013864FE01120149
:101253003889FE0112013894FE01120138A9FE01FA
:10126300120138BDFE011201381EFF01120138249C
:10127300FF011201382AFF0112013830FF01120168
:101283003848FF011201387BFF011201380C9D021F
:10129300120138909D021201383F9E021201389EBE
:1012A3009F02120138BFA102120138ABA202120140
:1012B30038E0A20212013802A302120138B1A302DC
:1012C300120138A9A502120138D2A502120138640D
:1012D300A60212013896A602120138A3A602120131
:1012E30038FAA60212013820A7021201388DA9028A
:1012F30012013890AA02120138E8AA021201389B9F
:101303008E02120138A58F021201388C900212014D
:1013130038969002120138B89002120138C4900234
:101323001201385D92021201388C9202120138A820
:1013330093021201380194021201386795021201D7
:1013430038469602120138A296021201380F97020C
:101353001201384A97021201388997021201384262
:101363009A021201385C9A02120138E89A021201B9
:1013730038F69A021201384F9B021201385D9B0224
:10138300120138D09B02120138349C021201387EBC
:101393009C02120138C4DE02120138E6DE02120199
:1013A300380CE10212013821E40212013839E50256
:1013B300120138ECE502120138CEE602120138635D
:1013C300DB0312013888DB03120138FADB03120155
:1013D30038A18703120138AA8703120138B38703A0
:1013E3001201388A88031201383B8A0312013871CB
:1013F3008A03120138AB8A03120138E18A0312010E
:10140300381B8B031201384F8B031201387B8B037C
:10141300120138C48B03120138FE8B0312013847C3
:101423008C031201389F8C03120138D48C031201F0
:10143300382F8D03120138698D03120138BA8D03D9
:10144300120138F08D031201382A8E031201385825
:101453008E031201387B8E031201381AE603120140
:101463003846E603120138A1E603120138ABE6035E
:10147300120138BBE603120138D0E803120138FC2D
:10148300E803E066701008A3E066700A08A3E0664C
:10149300700408A3E06622C3E09608A3E09608A3BD
:1014A300E09608A3E096A2D265D03322C3E796085C
:1014B30009E7960809E7960809E79622C3E0960824
:1014C300A3E09608A3E09608A3E09622C008C3E031
:1014D30096F50808A3E096420808A3E09642080898
:1014E300A3E09645087001D3D00822080808EAC093
:1014F300E0EBC0E086F0E7A4FA180986F0E7A42A37
:10150300FA180986F0E7A42AFA180986F0E7A42A4C
:10151300FA1986F0E7A4FBE5F02AFA190886F0E742
:10152300A42BFBE5F03AFA190886F0E7A42BFBE5B8
:10153300F03AFA18180986F0E7A4C5F02BFBE43A51
:10154300FA1908E7C5F0C6A426F6E5F03BFBE43A32
:10155300FA1886F0E7A4F6E5F00826F6E43B08F669
:10156300E43A08F6D0E0FBD0E0FA22E4CFC0E0E4AE
:10157300CEC0E0E4CDC0E0E4CCC0E075F020C3E62B
:1015830033F608E633F608E633F608E633F61818BA
:1015930018EC33FCED33FDEE33FEEF33FFC3EC9772
:1015A30009ED9709EE9709EF97191919400FFFEC09
:1015B30097FC09ED97FD09EE97FE191906D5F0BEC4
:1015C300ECF709EDF709EEF709EFF7191919D0E070
:1015D300FCD0E0FDD0E0FED0E0FF22121646181842
:1015E3001812156E121635191919221216351919F2
:1015F30019080808E618181820E7E012156E1216E5
:101603004618181822090909E719191920E7DC08EF
:101613000808E618181820E70302156E1216461874
:10162300181812156E1216461818181216351919AD
:101633001922E4C397F709E497F709E497F709E454
:1016430097F722E4C396F608E496F608E496F608BC
:10165300E496F6226016080808C6C313C618C61314
:10166300C618C613C618C613C6D5E0EA2270090801
:101673000808226016181818C6C333C608C633C62E
:1016830008C633C608C633C6D5E0EA22E627F608FD
:1016930009E637F60809E637F60809E637F622E0E1
:1016A30026F608A3E036F608A3E036F608A3E036EC
:1016B300F622E026F008A3E036F008A3E036F008AF
:1016C300A3E036F022C3E697F60809E697F6080981
:1016D300E697F60809E697F622C3E0C696F608A34E
:1016E300E0C696F608A3E0C696F608A3E0C696F60B
:1016F30022C3E096F008A3E096F008A3E096F00872
:10170300A3E096F022E657F60809E657F60809E63D
:1017130057F60809E657F622E056F608A3E056F610
:1017230008A3E056F608A3E056F622E056F008A315
:10173300E056F008A3E056F008A3E056F022E0F6E6
:1017430008A3E0F608A3E0F608A3E0F622E6F00813
:10175300A3E6F008A3E6F008A3E6F022E0FAA3E08C
:10176300FBA3E0FCA3E0FD22EAF0A3EBF0A3ECF083
:10177300A3EDF022CAC0E0E6F0A308DAFAD0E0FA5B
:1017830022CAC0E0E0A3C582CCC582C583CDC58390
:10179300F0A3C582CCC582C583CDC583DAE6D0E08C
:1017A300CA22C3E498F8E499F91217E68026C3E441
:1017B3009AFAE49BFBE920E7E91217E6E498F8E4D8
:1017C30099F922C3E498F8E499F91217E6E498F832
:1017D300E499F9C3E49AFAE49BFB22EB20E7CFE90F
:1017E30020E7E0B90010BB0008E88AF084F8AAF00B
:1017F30022E4FBC8FA22EB70227B10C833C8C9333A
:10180300C9335007C39AC3DBF280069A50012ADB1F
:10181300EAC833F4C8C933F4C9FA2275F008E4C836
:1018230033C8C933C933C99AC99B5004C92AC93BB0
:10183300D5F0ECFBC833F4C8E4C9FA22600D08C63E
:10184300A2E713C618C613C6D5E0F322600C08C678
:10185300C313C618C613C6D5E0F422700422600D64
:1018630018C6C333C608C633C6D5E0F418222518F4
:1018730010AF08F518400215198008F51840021535
:1018830019D2AF22C0D0251810AF08F518500205A1
:10189300198008F51850020519D2AFD0D0222518A7
:1018A300F58210AF08F518400215198008F51840A5
:1018B300021519D2AF851983222518F582E435194B
:1018C300F58322E4732518C582C0E0E51934FFC50A
:1018D30083C0E0E518C3958224F810AF0885831907
:1018E3008582188008858319858218D2AFCEF0A32C
:1018F300E520F0A37808E608F0A3DEFAEFF0A3E50D
:101903008124FAF8E608F0A3E608F0A3E608F0A3BA
:101913000808E608F0A3E608F0A315811581D0E0D6
:10192300FED0E0F8158115811581E8C0E0EEC0E036
:10193300222518C582C0E0E51934FFC583C0E0E560
:1019430018C3958224F910AF0885831985821880FE
:1019530008858319858218D2AFCEF0A3E520F0A3C2
:101963007808E608F0A3DEFAEFF0A3E58124FBF89C
:10197300E608F0A3E608F0A30808E608F0A3E608E3
:10198300F0A315811581D0E0FED0E0F81581158113
:10199300E8C0E0EEC0E022851983851882E0A3FE4B
:1019A300E0A3F5207808E0A3F608DFFAE0A3FFE060
:1019B300A3C0E0E0A3C0E0E0A3C0E0E0A3C0E0E098
:1019C300A3C0E010AF08858218858319800885823B
:1019D30018858319D2AFD083D0820201358519834C
:1019E300851882E0A3FEE0A3F5207808E0A3F608BB
:1019F300DFFAE0A3FFE0A3C0E0E0A3C0E0E0A3C000
:101A0300E0E0A3C0E010AF08858218858319800841
:101A1300858218858319D2AFD083D08222C0D02586
:101A230018C582C0E0E51934FFC583C0E0E518C3DB
:101A3300958224F310AF0885831985821880088561
:101A43008319858218D2AFC8F0A3E9F0A3EAF0A303
:101A5300EBF0A37908E709F0A3D8FAECF0A3EDF0D3
:101A6300A3EEF0A3EFF0A3D0E0F0A3D0E0F0A3D077
:101A7300E0F0A3E520F0A3E5F0F0A3228519838528
:101A83001882E0C0E0A3E0F9A3E0FAA3E0FBA378A7
:101A930008E0F608A3DFFAE0FCA3E0FDA3E0FEA361
:101AA300E0FFA3E0C0E0A3E0C0E0A3E0F5D0A3E043
:101AB300F520A3E0A3F5F010AF08858319858218FC
:101AC3008008858319858218D2AFD082D083D0E075
:101AD300F8D0E03274048006740280027401C0E01E
:101AE300F4041218A1D0E01217772274048004744E
:101AF300028000CCC0E0EDC0E0E518C39CCCAD197A
:101B030050011D10AF068C188D1980068C188D1985
:101B1300D2AF121784D0E0FDD0E0FC22D083D08274
:101B2300E9C0E0E493A3C386F0C5F095F0F908E4B7
:101B330093A386F0C5F095F0700BE493A3C399408B
:101B430005E9048002A3E475F002A42582F582E589
:101B5300F03583F583D0E0F9E493A3C0E0E493C0C8
:101B6300E022D083D082ECC0E0EDC0E0E493A3FC9C
:101B7300E493A3FDED4C600D121BB1EC24FFFCEDCF
:101B830034FFFD80EFE493A3FCE493A3FDED4C60ED
:101B93000D121BF0EC24FFFCED34FFFD80EFD0E0D1
:101BA300FDD0E0FCE493A3C0E0E493C0E022C0E0F6
:101BB300C3E49396087401939618400FE4936670F8
:101BC3000808740193661870007019A3A3C3E49303
:101BD30096087401939618A3A3400DD0E0D0E0D0EB
:101BE300E0021BA1A3A3A3A3A3A3D0E022C0E0C050
:101BF300F088F0E493667008087401936618700027
:101C0300A8F0A3A3700BD0F0D0E0D0E0D0E0021B8B
:081C1300A1A3A3D0F0D0E02250
:101C1C00C2AF02000022C0E074F2121A20A2AFE49C
:101C2C0033FED2AFE589A2E04006E589A2E150037C
:101C3C0012075F758900758900C2C5751A00EEF828
:101C4C00EEA2E092AF7F01021A7FC0E0C0D0E8C0E4
:101C5C00E0E9C0E0A2AFE433F8D2AFC2C7751A0016
:101C6C00E8F9E8A2E092AFD0E0F9D0E0F8D0D0D01B
:101C7C00E03274F5121934EAFEEBFFEE2434F8EF7F
:101C8C003400F988088909EE2435F582EF3400F523
:101C9C0083E0F8EE2437F582EF3400F583E0F50AA3
:101CAC00EC850AF0A4FCAAF0850AF0EDA42AFDE864
:101CBC002CF8E43DF97A257B001217E6EA850882B8
:101CCC00850983F0F8740758F97401B9000280048F
:101CDC00C333D9FCFAE8131313541FF8EE28F8EFAA
:101CEC003400F9E8245DF582E93400F583E05A60AC
:101CFC0008EE2434F582EF802CEE2434F582EF3498
:101D0C0000F583E0C0E0EE2436F582EF3400F58375
:101D1C00E0F5F0D0E084A8F0EE28F8EF3400F9E814
:101D2C002438F582E93400F583E0F97F040219E0E8
:101D3C0074F5121934EAFEEBFFEE2434F582EF341D
:101D4C0000F583E0C0E0EE2435F582EF3400F58336
:101D5C00D0E0F08E828F83A3A3A3A3A3A3A3C082FE
:101D6C00C0838E828F83A3A3A3A3A3E0F8A3E0F97F
:101D7C00D083D082E0C398F508A3E099F509EE244E
:101D8C007FF582EF3400F583E064017069EE248006
:101D9C00F582EF3400F583E0F8A3E0F98E828F83AF
:101DAC00A3A3A3A3A3A3A3E0FCA3E0FD8E828F8334
:101DBC00A3A3A3A3A3E0FAA3E0FBC3EA9CEB9D506F
:101DCC0010C3EC98ED99402EC3EA98EB99502780FC
:101DDC000EC3EA98EB994007C3EC98ED9940177C39
:101DEC007F7D07EEFAEFFB12106BEE247FF582EF8E
:101DFC003400F583E4F0EE2434F8EF3400F9E8FC19
:101E0C00E9FDEE2435F582EF3400F583E0F8EE249D
:101E1C0037F582EF3400F583E0F50AE508850AF022
:101E2C00A4F508AAF0850AF0E509A42AF509E82525
:101E3C0008F8E43509F97A257B001217E6EA8C825A
:101E4C008D83F0F8740758F97401B900028004C34B
:101E5C0033D9FCFAE8131313541FF8EE28F8EF34B7
:101E6C0000F9E8245DF582E93400F583E05A600856
:101E7C00EE2434F582EF802CEE2434F582EF34001E
:101E8C00F583E0C0E0EE2436F582EF3400F583E014
:101E9C00F5F0D0E084A8F0EE28F8EF3400F9E8244F
:101EAC0038F582E93400F583E0F9122AB7021D37C0
:101EBC00C082C083851882851983E0F8A3E0F9C33A
:101ECC00EA9CEB9D5010C3EC98ED99401BC3EA982B
:101EDC00EB995014800EC3EA98EB994007C3EC9829
:101EEC00ED994004790180027900D083D08222EAF6
:101EFC00C39CFAEB9DFB2274EF121934900645E05B
:101F0C0064086005E06407702A9061C8E060249062
:101F1C000673E0F4601DE0F875F003A4C8AAF02A7B
:101F2C00F9747528FE740639FF8E828F83A3A3A3E0
:101F3C00E07003022033906060E0C0E0EE2468F5AE
:101F4C0082EF3400F583D0E0F0750CE8750D077561
:101F5C000800750900E5D914F50AE5D95403F50E06
:101F6C0060177403650E605CE50A6010EE2467F57B
:101F7C0082EF3400F583E070030220189007E3E051
:101F8C006401602AEE2482F582EF3400F583E06070
:101F9C0004780480027800850A08E508C398FA954D
:101FAC00E0FB120F398A088B09EA450970051212F9
:101FBC006F8074EE2482F582EF3400F583E07004B8
:101FCC008A0C8B0DE50A6012850C82850D83F50B4E
:101FDC00E5D9F0A3150BE50B70F6EE2482F582EF34
:101FEC003400F583E0604474FC250AF50A780C1281
:101FFC001ADBAC0AA90EEEFAEFFB121107740212EF
:10200C001887E97026AA08AB091207BF793D8E82A2
:10201C008F83A3A3A3A3E0FA7B00120E0DEEFAEFBD
:10202C00FB121083121119790080747403650E6011
:10203C0056850A107511007810121ADBAC0CAD0D18
:10204C00AA08AB091210E37402121887EE2468F583
:10205C0082EF3400F583E064807004747F8001E0CB
:10206C00F50C780C121ADFE50EF50C780C121ADF51
:10207C00A90AAC08AD09900673E0FA7B00120DD1E9
:10208C0074021218878013900645E06408600BAC4C
:10209C000CAD0DEEFAEFFB12117312127B79017F6E
:1020AC000A0219E074F512193474FC121871EAFE64
:1020BC00EBFF8908A2AFE433F509C2AF806AEE24C6
:1020CC0063F8EF3400F97A007B00A2AFE433F50A31
:1020DC00C2AF88828983E0FCA3E0FDEC4D603A88B6
:1020EC00828983E0FAA3E0FB8A828B83E0FCA3E085
:1020FC00FD88828983ECF0A3EDF08A828B83E4F077
:10210C00A3F088828983E0FCA3E0FDEC4D700A8883
:10211C00828983A3A3E4F0A3F0E50AA2E092AF12B4
:10212C0007BF900786E004F0EE2463F582EF3400DD
:10213C00F583E0F8A3E0F9E849603DEE2463F5820D
:10214C00EF3400F583E02402FAA3E03400FBEA2428
:10215C0002F50AEB3400F50B780A121ADB8A828B33
:10216C0083E0FCA3E0F9EEFAEFFB1210A774021265
:10217C001887E970030220CA900786E06063900715
:10218C0087E0F8900786E0C398500C7402650870DD
:10219C0050900788E0604A8E828F83A3A3A3A3E0AC
:1021AC00851882851983F0A3E4F0900786E0F87413
:1021BC00021218BCE8F0A3E4F0900786E0F8900750
:1021CC0085E028F074021218BCAC82AD83851882AD
:1021DC00851983AA82AB837901120DDD900786E401
:1021EC00F0E509A2E092AF7404121887021D3700C3
:1021FC008521878522C622C0E0C0D0E8C0E0E9C0B6
:10220C00E0EAC0E0EBC0E0ECC0E0EDC0E0EEC0E026
:10221C00C008C009C00AC00BC082C083C0F0A2AF06
:10222C00E433FEC2AF759B00906182E0A2E05012D5
:10223C00E591A2E0500C7591FE74016521700312BA
:10224C001F03E0A2E55051E591A2E5504B7591DFDB
:10225C00900645E064076005E0640870237401652E
:10226C002170357901900673E0FA75F003A4CAA8C1
:10227C00F028FB74752AFA74063BFB1220B0801808
:10228C00E0640D7013900667E004F064287002E4BB
:10229C00F07A00E0F9121281906182E0A2E640032C
:1022AC0002234AE591A2E6400302234A7591BF90AE
:1022BC000645E0640570081211A91211B5800312CD
:1022CC0011AF75210012120FE9900646F079001239
:1022DC001203120FE17A017B00900644E0F912041C
:1022EC0095907803E0644270559007E7E014F07025
:1022FC004DC2AF12230200782AD0E0F618D0E0F6D7
:10230C00E59F540770057509FF800375097FC4C0EC
:10231C00E07829E6F50808E65509F509740B780804
:10232C0012184FD0E02508F8906270E0A2E740F850
:10233C00E8C333906272F0906270E0D2E0F090618A
:10234C0081E0A2E35009E5E9A2E3500375E9F7A3A4
:10235C00E0A2E75009E591A2E7500375917FEEA248
:10236C00E092AFD0F0D083D082D00BD00AD009D07D
:10237C0008D0E0FED0E0FDD0E0FCD0E0FBD0E0FAED
:10238C00D0E0F9D0E0F8D0D0D0E032C0E0C0D0C07E
:10239C0082C083906183E0A2E05009E5BFA2E050C7
:1023AC000375BFFEE0A2E15009E5BFA2E150037541
:1023BC00BFFDE0A2E25009E5BFA2E2500375BFFBEE
:1023CC00E0A2E35009E5BFA2E3500375BFF7E0A21A
:1023DC00E45009E5BFA2E4500375BFEFE0A2E5505D
:1023EC0009E5BFA2E5500375BFDFE0A2E65009E5A1
:1023FC00BFA2E6500375BFBFD083D0828088C0E0F7
:10240C00C0D0E8C0E0E9C0E0EAC0E0EBC0E0ECC05E
:10241C00E0EDC0E0C0F0E5A7A2E6500FE5A1A2E612
:10242C00500953A7BF75A1BF12246FE5A7A2E550B1
:10243C000CE5A1A2E5500653A7DF75A1DFE5A7A225
:10244C00E15009E5A1A2E1500375A1FDE5A7A2E2C7
:10245C00500CE5A1A2E2500653A7FB75A1FBD0F0EE
:10246C0002238074F8121934752101900645E0643A
:10247C000670151211378A828B83A3A3A3A3A3A37F
:10248C00E0FAA3E0FB121197A2AFE433FED2AF90B7
:10249C00064BE0640170187A207B00900644E0F94A
:1024AC0012053D7A207B00900644E0F912049B90C3
:1024BC006182E0D2E6F09007E4E0602185C62280DC
:1024CC001690064AE064017008E5C654F84405F518
:1024DC00C653BEFC1221FC7401652160E4EEA2E03F
:1024EC0092AF7F010219E0008E238F24858228850C
:1024FC008327851882851983E0CEA3E0CF852882B7
:10250C00852783EBC9EAC8EDCBECCA75F010C3E89C
:10251C0033C8E933C9EA33CAEB33CBC3EA9EF52699
:10252C00EB9FF525B35004AB25AA26EC33CCED3349
:10253C00CDD5F0DAAE23AF242274E912193474F835
:10254C00121871851882851983ECF0A3EDF08A08B6
:10255C008B09900645E024F7C394055006750801D5
:10256C000226DC1211378A0A8B0BAE0AAF0BEE4F28
:10257C0070030226D9AC08AD0974021218BCAA82E9
:10258C00AB831211C78E828F83A3A3750CFF750DBD
:10259C00FF750EFF750F00780C12171B74021218C2
:1025AC00BC7510FF7511FF7512FF751300781012B2
:1025BC00171B780C79101214AF502A780C79101262
:1025CC0016C87508017509C8750A00750B007808DE
:1025DC00790C1214AF5052850C08850D09850E0A22
:1025EC00850F0B80507514017515C875160075177D
:1025FC000085100885110985120A85130B78087956
:10260C000C1216C8781479081214AF401C75080007
:10261C00750900750A00750B01780879101216C837
:10262C007808790C12168F800C75080175090075E5
:10263C000A00750B0074097808121670750C19F5E0
:10264C000DF50EF50F7808790C12156E8E828F83AE
:10265C00A3A3A3A3A3A3E0F8A3E0F97AD07B03126E
:10266C0017E6880C890DE4F50EF50F7808790C1235
:10267C00168F74061218BCE0F8A3E0F97AD07B032D
:10268C001217E6E8FA8A0CE4F50D7808790C1214A6
:10269C00AF50077808790C1216C8900645E064080C
:1026AC00600AE064066005E06405702D750C0D7819
:1026BC000C79081214AF4021750CF4750DFF750ED2
:1026CC00FF750FFF7808790C12168F800C750800B7
:1026DC00750900750A00750B00851882851983E051
:1026EC00F8A3E0F583888278081217507408121842
:1026FC00877F100219E074F71219341211D9900760
:10270C00E2E064017010906245E4F0A3F053F4F33E
:10271C0043FE0C5390F3121185E5C654804449F5E1
:10272C00C6E59E547F644970F8906185740FF090F3
:10273C0007E0E0F47002A3E0604E9007E1E060086F
:10274C0014601B14602E80407508017509009007F9
:10275C00E0E0780812185EE508F45280802A7508CB
:10276C00017509009007E0E0780812185EE508F49E
:10277C00529080147508017509009007E0E0780804
:10278C0012185EE508F452A079007F020219E07479
:10279C00F7121934E9FEEAFF74016E700C7A807B33
:1027AC0000900644E0F9120495902AC8E493F46072
:1027BC0008E493F9120FD5800953C680E59E547F27
:1027CC0070FA12118B9007E2E064017003120FEDA6
:1027DC009007E0E0F47002A3E0604B9007E1E0604A
:1027EC000814601A14602C803D750801750900905E
:1027FC0007E0E0780812185EE5084280802875082A
:10280C00017509009007E0E0780812185EE50842AF
:10281C009080137508017509009007E0E0780812A4
:10282C00185EE50842A01211D91211378A088B09DB
:10283C00A808A909E8496015E5E170FCE82414F53D
:10284C0082E93400F583E0F46003E0F5E174016F94
:10285C00700A7A01900644E0F912050D022796746D
:10286C00ED1219348A088B098C0A8D0B741312180B
:10287C00BC780C1217417808790C1214AF75100142
:10288C007511C875120075130050127808790C1266
:10289C0016C8781079081214AF50168010780C797D
:1028AC00081216C87810790C1214AF400479018004
:1028BC000279007F0C0219E074ED1219348A088B2E
:1028CC00098C0A8D0B74131218BC780C12174178F2
:1028DC000C79081214AF40117808790C1216C8AA9A
:1028EC0008AB09AC0AAD0B80227510007511007590
:1028FC0012007513017810790C1216C8781079082B
:10290C0012168FAA10AB11AC12AD1380A68A828B53
:10291C00837508FF7509FF750AFF750B007808129F
:10292C00172E7F040219E074F51219348C828D83F2
:10293C0078081217418A828B8378081216F4EA24DD
:10294C0004F8EB3400F98C828D83A3A3A3A3E0FCE1
:10295C00A3E0FD88828983C3E09CF0A3E09DF0880E
:10296C00828983C3E09420A3E0944E40268A828B14
:10297C00837508FF7509FF750AFF750BFF78081240
:10298C0016B58A828B83A3A3A3A3E02420F0A3E033
:10299C00344EF002291974F5121934E9FE90079A95
:1029AC00E0FAA3E0FBEEC333F8E433F974A128F5A5
:1029BC0082748039F583E02AF508A3E03BF50978A9
:1029CC0008121ADB7A407B427C0F7D001224F474CF
:1029DC00021218878A088B098C0A8D0B74107808E0
:1029EC00121657AA08AB097F040219E074F11219E8
:1029FC00348A0C8B0D8C0E8D0F740F1218BCE0FAF0
:102A0C00A3E0FB74111218BCE0F508A3E0F50978FB
:102A1C0008121ADBEA2401F508EB3400F509E4F599
:102A2C000AF50B780C79081214EE75087175090209
:102A3C00780C79081214EEAA0CAB0DAC0EAD0F127B
:102A4C0024F474021218878B09EA450960047A0190
:102A5C0080027A00EC2AFCED3400FD74131218BCD1
:102A6C00E0F8A3E0F9E8FEE9FFECF8EDF97A717B08
:102A7C00021217E6880889098E828F83780812174C
:102A8C0050ECF8EDF97A717B021217E68A088B0983
:102A9C007405780812185E8E828F83A3A3A3A3E516
:102AAC0008F0A3E509F07F080219E0C082C083E9B1
:102ABC00906000F0D083D08222020135FFFFFFFF2F
:102ACC00FFFFFFFF74EE1218C874FA1218718A0A0D
:102ADC008B0B8909ECFEEDFF750800850A0C850B44
:102AEC000D780C121B1F000410A92D192B3A2B5911
:102AFC002B7A2B9B2BBC2BEF2B102C272C552C1310
:102B0C002D342D542D7E2DA92DA92D802C740165CD
:102B1C000970158E828F83E0C39403500B8E828FC5
:102B2C0083E0900B9AF08003750818022DD2740282
:102B3C00650970138E828F83E0F8A3E0F9900B9BEC
:102B4C00E8F0A3E9F08003750818022DD274016532
:102B5C000970158E828F83E0C39402500B8E828F86
:102B6C0083E0900321F08003750818022DD27401C4
:102B7C00650970158E828F83E0C39405500B8E828D
:102B8C008F83E0900322F08003750818022DD27415
:102B9C0001650970158E828F83E0C39402500B8EF1
:102BAC00828F83E0900323F08003750818022DD2E6
:102BBC00741065097027750C10750D00780C121ABD
:102BCC00DBEEFCEFFD7A247B031204417402121835
:102BDC00878A0C8B0D850C82850D838003750818F4
:102BEC00022DD27401650970158E828F83E0C39417
:102BFC0002500B8E828F83E0900334F080037508B3
:102C0C0018022DD274016509700B8E828F83E090AF
:102C1C000B9EF08003750818022DD27404650970A0
:102C2C0022908148780C1217418E828F83780C1277
:102C3C0014BF500F8E828F8312175F9003361217BA
:102C4C006B8003750818022DD2E5097021120B490F
:102C5C00E9701312069FE9F50C795012084FE9F54B
:102C6C000D12068D800B9003C97401F0800375085A
:102C7C0018022DD2740765096003022D0D750E061E
:102C8C00750F00780E121ADB8E828F83A3AC82AD87
:102C9C008374021218BCAA82AB831204477402120A
:102CAC0018878A108B1185100E85110F7C007D0002
:102CBC00851882851983AA82AB838E828F83E0F973
:102CCC0012062DE9F50CE50CC3940A502F120B4992
:102CDC00E97015A90C1206A5E9F50D795012084FEB
:102CEC00E9F50E12068D801C750D0074CA250CF5C5
:102CFC00827403350DF5837401F080087508028029
:102D0C0003750818022DD27401650970158E828F17
:102D1C0083E0C39402500B8E828F83E0900335F0D6
:102D2C008003750818022DD27401650970158E8206
:102D3C008F83E0C3940A500B8E828F83E0900B9D9F
:102D4C00F08003750818807E74016509701F8E82EF
:102D5C008F83E0C3940740158E828F83E0C3941158
:102D6C00500B8E828F83E0900B9FF0805975081862
:102D7C0080547401650970209003C8E0F50C8E82B4
:102D8C008F83E09003C8F0E50C703B9003C8E064BF
:102D9C0001703312068D802E7508188029C3E50A40
:102DAC009427E50B9400501B7402650970158E82F4
:102DBC008F83E0FCA3E0FDAA0AAB0B1209E7E9F54F
:102DCC00088003750802A90874061218877F0A0286
:102DDC00199A74EC1218C874DA121871890D8A12C7
:102DEC008B138C0A8D0B743A1218BCE0F50C908086
:102DFC00DCC082C083851882851983AC82AD83D0F8
:102E0C0083D0827406121784851882851983AC824C
:102E1C00AD83AA12AB13A90D12062DE9FEEEC394D5
:102E2C000A4003022F7DEEF912066FE9FF900B9A10
:102E3C00E064027004740180027400F508780812D2
:102E4C001ADFAD0CEFFCEEF9AA0AAB0B1206E1741B
:102E5C00011218877C147D00790074121218BCAA18
:102E6C0082AB831204598A0E8B0F850E08850F09CD
:102E7C0074121218BCAC82AD837A1075F006EEA4F5
:102E8C002424F9120849E970437C1079FF7412125A
:102E9C0018BCAA82AB831204B9E9703074221218E0
:102EAC00BCAC82AD837A0475F006EEA42425F9122D
:102EBC000849E9F50874121218BCAC82AD83EFA274
:102ECC00E0E433F9AA0AAB0B120A71E97406121882
:102EDC00BCAC82AD837A0C74702EF9120849E9707F
:102EEC007E74061218BCAA82AB83120663750E00A0
:102EFC00E50EC394045068E50EA80E7900E875F051
:102F0C0003A4C8AAF075F000A42AFA75F003E9A48A
:102F1C002AF974061218BCE58228F508E58339F500
:102F2C0009850882850983E0F8A3E0F9E849602B5C
:102F3C00850882850983A3A3E0F51075110078102C
:102F4C00121ADB850882850983E0FCA3E0FDAA0A3E
:102F5C00AB0B120D237402121887E9050E8091EF4A
:102F6C00A2E1500D900320E0F9AA0AAB0B120D2937
:102F7C00E97404650C700F900B9AE064027007AA58
:102F8C000AAB0B1206DB790074261218877F0C0231
:102F9C00199A74F21218C8890BEAFEEBFF8C088D93
:102FAC0009750A0AE50B600C14600914604414607E
:102FBC0064023042EEFAEFFB120681E9F50AE50AEB
:102FCC00C3940A5071E5084509606B750C06750DC4
:102FDC0000780C121ADBEEFCEFFDAA08AB09120408
:102FEC004174021218878A0C8B0D850C82850D8317
:102FFC008044EEFAEFFB12067BE9F50AE50AC3946E
:10300C000A5033E5084509602DAA08AB09A90A1234
:10301C000675E98021EEFAEFFB120687E9F50AE561
:10302C000AC3940A5010E5084509600AAA08AB09BE
:10303C00A90A120675E9A90A7F0602199A74F212F6
:10304C0018C88A0C8B0DE9FE7F1574FF650C700493
:10305C0074FF650D702A750800E508C3940A5014B6
:10306C00EEFC7A027B00A908120651E960027F008F
:10307C00050880E5EE60637AC97B06120F1B805A47
:10308C00AA0CAB0D120EFD8A0A8B0B850A08850B58
:10309C0009E508450960417C007D00E5082405FA36
:1030AC00E5093400FB850882850983A3A3A3A3E06B
:1030BC00F912062DE9F50AE50AC3940A500EEEFC46
:1030CC007A027B00A90A120651E97F00EE600BAA76
:1030DC0008AB091206C980027F14EFF97F060219AA
:1030EC009A74EE1218C88A0E8B0F8C0A8D0B741200
:1030FC001218BCE0F50CA3E0F50D75081574FF650E
:10310C000E700474FF650F701E7E00EEC3940A509F
:10311C0062AC0CAD0DAA0AAB0BEEF9120657E960C6
:10312C00037508000E80E4AA0EAB0F120EFD8A1078
:10313C008B11AE10AF11EE4F60367C007D00EE248B
:10314C0005FAEF3400FB8E828F83A3A3A3A3E0F9CF
:10315C0012062DE9F509E509C3940A5016AC0CAD1D
:10316C000DAA0AAB0BA909120657E97508008003D2
:10317C00750814A9087F0A02199A74F71218C8EA7C
:10318C00FEEBFF90033AEEF0A3EFF0900320E0FC8F
:10319C007D007A267B001209E7E9F508900320E010
:1031AC00F9120CA57F0102199A74EE1218C88A1034
:1031BC008B11E9FE74121218BC780C1217417F00A7
:1031CC00EE7041850C08850D09850E0A850F0B9054
:1031DC008148780C1217417808790C12156E78100A
:1031EC00121ADBAA0CAB0DAC0EAD0F120A837402D3
:1031FC00121887E9FFEF60167901AA10AB11120AB9
:10320C007DE9800AEEF9AA10AB11120A7DE9EFF9FB
:10321C007F0A02199A74F21218C874EC1218718A87
:10322C000A8B0B850A82850B83A3A3E024FA700317
:10323C0002368124FD70030234F714700302331438
:10324C0014601024FD700302349F14700302353790
:10325C000236EFAE0AAF0B90033AE0F8A3E0F9E8C0
:10326C0049606990033AE0F8A3E0F5838882E0F8BE
:10327C00A3E0F9E8496055EE240CF582EF3400F533
:10328C0083E0F5087808121ADFEE240BF582EF3490
:10329C0000F583E0F98E828F83A3A3A3A3A3A3A33A
:1032AC00A3A3E0FCA3E0FDEE2403FAEF3400FB90B3
:1032BC00033AE0F8A3E0F5838882E0F8A3E0F58315
:1032CC0088821218C6740112188780398E828F83F7
:1032DC00A3A3A3A3A3A3A3A3A3121AF2900336122E
:1032EC00175F120A837402121887E9601879018E2D
:1032FC00828F83A3A3A3A3A3A3A3A3A3E0FAA3E016
:10330C00FB120A7DE90236EFAE0AAF0B8E828F8379
:10331C00A3E0600302344D8E828F83A3A3A3A3A3E7
:10332C00E0A2E0400302344D9003D4E0F8A3E0F9AE
:10333C00E849600302344D7C0E7D007900851882CB
:10334C00851983AA82AB831204598A088B09AA08AF
:10335C00AB09EE240CF582EF3400F583E0F8A3E022
:10336C00F9E849603B7508067509007808121ADB04
:10337C00EE240CF582EF3400F583E02410FCA3E07E
:10338C003400FD74021218BCAA82AB83120441747F
:10339C00021218878A088B09850882850983805454
:1033AC008E828F83A3A3A3E0FAA3E0FB120EFD8A07
:1033BC000C8B0D850C08850D09E5084509603275E7
:1033CC000C06750D00780C121ADBE5082405FCE5DB
:1033DC00093400FD74021218BCAA82AB831204419A
:1033EC0074021218878A0C8B0D850C82850D8380D4
:1033FC00030236EF8E828F83A3A3A3A3A3E0A2E2E2
:10340C005004D2F08002C2F0A2F0E433F8790074D8
:10341C000C1218BCE048F0A3E049F0EEFCEFFD857F
:10342C001882851983AA82AB83120669E970127A15
:10343C00027B00900320E0F9120495E97900023632
:10344C00F190033AE0F8A3E0F9E849604390033ABD
:10345C00E0F8A3E0F5838882A3A3E0F8A3E0F9E801
:10346C0049602D8E828F83A3E0FC79018E828F833D
:10347C00A3A3A3E0FAA3E0FB90033AE0F8A3E0F5E2
:10348C00838882A3A3E0F8A3E0F58388821218C690
:10349C000236EFAE0AAF0B90033AE0F8A3E0F9E87E
:1034AC0049604590033AE0F8A3E0F5838882A3A332
:1034BC00E0F8A3E0F9E849602F850A82850B83A325
:1034CC00E0FC79028E828F83A3A3A3E0FAA3E0FB36
:1034DC0090033AE0F8A3E0F5838882A3A3E0F8A375
:1034EC00E0F58388821218C60236EFAE0AAF0B7C69
:1034FC00007D00EE2404FAEF3400FB8E828F83A350
:10350C00A3A3E0F912062DE9F508E508C3940A50C7
:10351C0017EE240AFCEF3400FD7A0475F006E5087A
:10352C00A42425F9120843E90236EFAE0AAF0B903A
:10353C000335E06018900B9DE0F98E828F83A3A376
:10354C00A3E0FAA3E0FB120A7DE90236EF900B9A96
:10355C00E0701579058E828F83A3A3A3E0FAA3E014
:10356C00FB120A7DE90236EF8E828F83A3A3A3E0C0
:10357C00FAA3E0FB120EFD8A0C8B0D850C08850D51
:10358C00098E828F83A3A3A3A3A3A3A3E0A2E050DD
:10359C0075E5084509606C850882850983A3A3A39A
:1035AC00A3E060628E828F83A3A3A3A3A3A3A3A390
:1035BC00A3E0F8A3E0F9E8C4540FF879005401F83B
:1035CC00E95400F9E8A2E0403D740E1218BCAC823C
:1035DC00AD83E5082405FAE5093400FB85088285EE
:1035EC000983A3A3A3A3E0F912062DE970187903AC
:1035FC008E828F83A3A3A3E0FAA3E0FB120A7DE9DA
:10360C000236EF0236EFEE2405FCEF3400FD8508A0
:10361C0082850983A3A3A3A3E0F98E828F83A3A33E
:10362C00A3E0FAA3E0FB1206D590033AE0F8A3E07E
:10363C00F9E849603E90033AE0F8A3E0F58388820C
:10364C00A3A3E0F8A3E0F9E84960287C0079008E98
:10365C00828F83A3A3A3E0FAA3E0FB90033AE0F8E4
:10366C00A3E0F5838882A3A3E0F8A3E0F583888226
:10367C001218C6806E120B49E970689003C9E06499
:10368C0001701A12069FE9FE9003C97400F07C0ABF
:10369C007D0079007ACA7B03120459803C7E00EECF
:1036AC00C3940A50348E0875090074CA2508F58233
:1036BC0074033509F583E06401701BEEF91206A55D
:1036CC00E9F88E0875090074CA2508F5827403356B
:1036DC0009F5837400F00E80C6795012084FE9FE8C
:1036EC0012068D790174141218877F0602199A74C8
:1036FC00F31218C874F21218718909EAFEEBFF8CE8
:10370C000C851882851983AC82AD837A0E75F00610
:10371C00E509A42420F9120849E970727C0679FFA6
:10372C00851882851983AA82AB831204B9E9705E6D
:10373C00740C1218BCE0F8A3E0F9E8F508E50C608D
:10374C0005EE42088004EEF4520885080A750B0059
:10375C00740C1218BCE0650A7004A3E0650B602AB7
:10376C00E508A8087900740C1218BCE508F0A3E968
:10377C00F0851882851983AC82AD837A0E75F006BC
:10378C00E509A42420F9120843E9790180027900A3
:10379C00740E1218877F0502199A74F01218C874E7
:1037AC00E6121871890B8A0C8B0DECFEEDFF740C74
:1037BC001218BCAC82AD837A0E75F006E50BA4240E
:1037CC0020F9120849E9600302390A7C0679FF7472
:1037DC000C1218BCAA82AB831204B9E9600302393B
:1037EC000A851882851983AC82AD837A0C74702596
:1037FC000BF9120849E96003023906750A008518AD
:10380C0082851983AA82AB83120663E50C450D7081
:10381C003A7C0C7900851882851983AA82AB8312B5
:10382C0004B9E960030238E07C0C7D00790085184E
:10383C0082851983AA82AB831204598A088B098565
:10384C000882850983750A010238E085188285197A
:10385C0083AC82AD83AA0CAB0D12065D8A0E8B0F66
:10386C00850E08850F09E50845097036EE4F602175
:10387C00851882851983AC82AD837A007B00120691
:10388C005D8A0E8B0FA80EA90F88088909E849706C
:10389C00047900806B850882850983E50CF0A3E52B
:1038AC000DF0850882850983A3A3E0F87900EE6802
:1038BC007002EF69601EEE850882850983A3A3F070
:1038CC00EE4F700D8508828509837400F0A3740097
:1038DC00F0750A01E50A6022851882851983AA828F
:1038EC00AB83120663851882851983AC82AD837A0B
:1038FC000C7470250BF9120843E9790180027900E8
:10390C00741A1218877F0802199A74F71218C8EAE9
:10391C00FEEBFF7B00EBC39404504EEBF87900E810
:10392C0075F003A4C8AAF075F000A42AFA75F00388
:10393C00E9A42AF9EC28F582ED39F583E06E7003E1
:10394C00A3E06F7021EBF87900E875F003A4C8AA26
:10395C00F075F000A42AFA75F003E9A42AF9EC2812
:10396C00FAED39FB80070B80AC7A007B007F0102FB
:10397C00199A74F71218C87F00EFC394044003021D
:10398C003A2DEFF87900E875F003A4C8ACF075F0A7
:10399C0000A42CFC75F003E9A42CF9EA28F582EBC1
:1039AC0039F583E0F4FCA3E0F4FDEFF87900E87559
:1039BC00F003A4C8AEF075F000A42EFE75F003E978
:1039CC00A42EF9EA28F582EB39F583ECF0A3EDF09F
:1039DC00EFF87900E875F003A4C8ACF075F000A41A
:1039EC002CFC75F003E9A42CF9EA28F582EB39F5E7
:1039FC0083A3A3E0F4C0E0EFF87900E875F003A42A
:103A0C00C8ACF075F000A42CFC75F003E9A42CF9FB
:103A1C00EA28F582EB39F583A3A3D0E0F00F023945
:103A2C00857F0102199A74F01218C874F412187177
:103A3C00EAFEEBFF8C088D099003D4E0F8A3E0F9C3
:103A4C00E849702CEE4F6006E508450970057901D0
:103A5C00023CEAEEFAEFFB120681E9900BA0F09023
:103A6C000BA0E0C3940A4008120693E9900BA0F057
:103A7C00900BA0E0C3940A4003023CE89003D4E00E
:103A8C00F8A3E0F9E8496003023B34EEFCEFFD7A61
:103A9C000E75F006900BA0E0A42420F9120843E95F
:103AAC00F50C7C0C7D0079FF851882851983AA8220
:103ABC00AB831204598A0E8B0F850E0A850F0B856A
:103ACC001882851983AC82AD837A0C900BA0E0240C
:103ADC0070F9120843E9F50D750E0E750F00780E8E
:103AEC00121ADBEEFCEFFD900BA0E0F87900E87504
:103AFC00F00EA4C8AAF075F000A42AFA75F00EE92D
:103B0C00A42AF9743C28FA740339FB120441740298
:103B1C001218878A0E8B0FA80EA90F9003D4E508F4
:103B2C00F0A3E509F0023CE49003D4E0F8A3E0C86C
:103B3C002406F582E83400F583E0F8A3E0F9E849BF
:103B4C0060439003D4E0F8A3E0C82406F582E8347F
:103B5C0000F583E0FCA3E0FD7A1B75F006900BA04A
:103B6C00E0A42421F9120843E9F89003D4E0F9A366
:103B7C00E0C92406F582E93400F5837400F0A374DF
:103B8C0000F0023CE49003D4E0F8A3E0C8240AF56A
:103B9C0082E83400F583E0F8A3E0F9E8496043904B
:103BAC0003D4E0F8A3E0C8240AF582E83400F583D6
:103BBC00E0FCA3E0FD7A1B75F006900BA0E0A424BA
:103BCC0022F9120843E9F89003D4E0F9A3E0C924E0
:103BDC000AF582E93400F5837400F0A37400F00256
:103BEC003CE49003D4E0F8A3E0C8240CF582E8345C
:103BFC0000F583E0F8A3E0F9E84960439003D4E0D2
:103C0C00F8A3E0C8240CF582E83400F583E0FCA3AB
:103C1C00E0FD7A1075F006900BA0E0A42423F912B5
:103C2C000843E9F89003D4E0F9A3E0C9240CF58229
:103C3C00E93400F5837400F0A37400F0023CE490C6
:103C4C0003D4E0F8A3E0C82408F582E83400F58337
:103C5C00E0F8A3E0F9E849606F9003D4E0F8A3E042
:103C6C00C82408F582E83400F583E0FCA3E0FD7A73
:103C7C001075F006900BA0E0A42424F9120843E977
:103C8C00F50A9003D4E0F8A3E0C82408F582E834E0
:103C9C0000F583E02410FCA3E03400FD7A0475F0F9
:103CAC0006900BA0E0A42425F9120843E9F8900330
:103CBC00D4E0F9A3E0C92408F582E93400F5837453
:103CCC0000F0A37400F080109003C8E060031206AB
:103CDC00E71206CF79018006790080027901740C15
:103CEC001218877F0802199A74F71218C874F21206
:103CFC001871E9FE851882851983AC82AD837A0E22
:103D0C0075F006A42420F9120849E9700E740C12FF
:103D1C0018BCE0F8A3E0F9E8F980027900740E12FF
:103D2C0018877F0102199A74F41218C874F21218C9
:103D3C00718909EAFEEBFFE509C3940A5004EE4FC2
:103D4C0070047902804B851882851983AC82AD830F
:103D5C007A0E75F006E509A42420F9120849E9F554
:103D6C0008E508702A750A06750B00780A121ADB2A
:103D7C0074021218BCAC82AD83EEFAEFFB12044154
:103D8C0074021218878A0A8B0B850A82850B83A909
:103D9C0008740E1218877F0402199A74F41218C84A
:103DAC00EAFEEBFF750800E508C3940A5045750A56
:103DBC0006750B00780A121ADBEEFCEFFDE508A87D
:103DCC00087900E875F00EA4C8AAF075F000A42AD2
:103DDC00FA75F00EE9A42AF9744228FA740339FB37
:103DEC001204537402121887E96004A908800605AE
:103DFC000880B4790A7F0402199A74F41218C8EA7C
:103E0C00FEEBFF750800E508C3940A5045750A06D9
:103E1C00750B00780A121ADBEEFCEFFDE508A8081A
:103E2C007900E875F00EA4C8AAF075F000A42AFA7F
:103E3C0075F00EE9A42AF9743C28FA740339FB12C4
:103E4C0004537402121887E96004A9088006050857
:103E5C0080B4790A7F0402199A74F71218C874F0A6
:103E6C00121871EAFEEBFF750800E508C3940A50BE
:103E7C004B851882851983AC82AD837A1075F00658
:103E8C00E508A42423F9120849E9702C7C1079FF69
:103E9C00851882851983AA82AB831204B9E970183C
:103EAC00EEFCEFFD851882851983AA82AB83120A7A
:103EBC0053E97004A9088006050880AE790A7410CD
:103ECC001218877F0102199A74F41218C875080029
:103EDC00E508C3940A4003023FB6E508A808790038
:103EEC00E875F00EA4C8AAF075F000A42AFA75F0D3
:103EFC000EE9A42AF9743C28FC740339FD7A0E757A
:103F0C00F006E508A42420F9120849E97003023FE1
:103F1C00B17C067D0079FFE508AA087B00EA75F004
:103F2C000EA4CAA8F075F000A428F875F00EEBA446
:103F3C0028FB743C2AFA74033BFB1204598A0A8B43
:103F4C000BAE0AAF0B7C067D0079FFE508AA087B57
:103F5C0000EA75F00EA4CAA8F075F000A428F87554
:103F6C00F00EEBA428FB74422AFA74033BFB1204F8
:103F7C00598A0A8B0BAC0AAD0BE508A8087900E846
:103F8C0075F00EA4C8AAF075F000A42AFA75F00E0C
:103F9C00E9A42AF9744828F582740339F58374006E
:103FAC00F0A37400F00508023EDC9003C8E0600347
:103FBC001206E71206CF7F0402199A74F71218C87A
:103FCC007E00EEC3940A50327C0679FFEEFA7B0039
:103FDC00EA75F00EA4CAA8F075F000A428F875F0E4
:103FEC000EEBA428FB743C2AFA74033BFB1204B9B5
:103FFC00E96004EEF980050E80C8790A7F01021988
:10400C009A74F71218C87E007F00EFC3940A502FE1
:10401C007C0679FFEFFA7B00EA75F00EA4CAA8F0D3
:10402C0075F000A428F875F00EEBA428FB743C2A5C
:10403C00FA74033BFB1204B9E970010E0F80CBEE4E
:10404C00F97F0102199A74F71218C87E007F00EFED
:10405C00C3940A500DEE700AEFF91206A5E9FE0F93
:10406C0080EDEEF97F0102199A74F01218C874CB26
:10407C001218718909900BA0E06509701D7A017BFB
:10408C0000900320E0F912049BE97A027B00900374
:10409C0020E0F912049BE91206F374271218BCAC49
:1040AC0082AD837A0E75F006E509A42420F9120876
:1040BC0049E960030241E17C0679FF74271218BCC0
:1040CC00AA82AB831204B9E960030241E17C0E7D44
:1040DC000079FF74271218BCAA82AB831204598A88
:1040EC000A8B0B850A0C850B0D7C1B7D0079FF74EC
:1040FC000C1218BCAA82AB831204598A0E8B0F8542
:10410C000E0A850F0B7C0C7D0079FF8518828519B2
:10411C0083AA82AB831204598A0E8B0FAE0EAF0F9B
:10412C0074271218BCAC82AD837A0E75F006E509C3
:10413C00A42420F9120843E9F508740C1218BCAC3D
:10414C0082AD837A1B75F006E509A42421F91208C7
:10415C0043E94208740C1218BCAC82AD837A1B750F
:10416C00F006E509A42422F9120843E94208740C6C
:10417C001218BCAC82AD837A1075F006E509A42444
:10418C0023F9120843E94208740C1218BCAC82AD36
:10419C00837A1075F006E509A42424F9120843E982
:1041AC004208740C1218BCAC82AD837A0475F0060C
:1041BC00E509A42425F9120843E9420885188285EB
:1041CC001983AC82AD837A0C74702509F9120843FB
:1041DC00E942088003750800A90874351218877F16
:1041EC000802199A74F71218C8E9FE900320F0120D
:1041FC00068D7F0102199A74F21218C8890AEAFE18
:10420C00EBFFEE5400F8EF5480F9E8496035900369
:10421C0020E0F912047D8A0C8B0DA80CA90D8808DE
:10422C008909E8496012AA08AB091206B7E96008C7
:10423C00AA08AB0912046BE9EE6400FAEF6480FB88
:10424C00024307EE5402602D7C007D007A007B0057
:10425C00120669E960187A017B00900320E0F912DC
:10426C000495E9EE6402FAEF6400FB0243077A025C
:10427C007B00024307EEA2E0507D9003D4E0F8A34C
:10428C00E0F5838882A3A3A3E0FAA3E0FB1206ED7A
:10429C00E9605E90033AE0F8A3E0F9E849604590E4
:1042AC00033AE0F8A3E0F5838882A3A3E0F8A3E047
:1042BC00F9E849602F7C0079019003D4E0F8A3E081
:1042CC00F5838882A3A3A3E0FAA3E0FB90033AE072
:1042DC00F8A3E0F5838882A3A3E0F8A3E0F5838834
:1042EC00821218C61206F3EE6401FAEF6400FB802A
:1042FC000A7A017B0080047A007B007F0602199AFF
:10430C0074F71218C8EAFEEBFF7508018E828F83D2
:10431C00E02450601314601924E1701CEEFAEFFBDA
:10432C0012064BE9F5088010EEFAEFFB1206BD8081
:10433C0007EEFAEFFB1206C3A9087F0102199A7463
:10434C00F71218C8EAFEEBFF8E828F83A3A3A3A3F8
:10435C00E0641E701179008E828F83A3A3E0FAA310
:10436C00E0FB120633E97F0102199A74F61218C8A1
:10437C00EAFEEBFF8E828F83A3A3A3A3E0703A8E99
:10438C00088F09850882850983A3A3A3A3A3A3A3EC
:10439C00121AF2850882850983A3A3A3A3A3E0FCC8
:1043AC00A3E0FD850882850983A3A3E0FAA3E0FBC3
:1043BC001206397402121887E97F0202199A74F7EF
:1043CC001218C8EAFEEBFF900320E0F98E828F836F
:1043DC00A3E0FAA3E0FB120D29E97F0102199AC0B0
:1043EC0082C08374FF121871120699E9C3940240BB
:1043FC000B8518828519837402F0800985188285D3
:10440C001983740AF0851882851983AC82AD837A7E
:10441C00017905120B61E97401121887D083D082DF
:10442C0002013574F21218C874E8121871EAFEEB26
:10443C00FF890A8C088D097C187D0079008518820B
:10444C00851983AA82AB831204598A0C8B0DAC0C90
:10445C00AD0D851882851983EEF0A3EFF090032241
:10446C00E0C0E074021218BCD0E0F0900323E0C06E
:10447C00E074031218BCD0E0F0900B9FE0C0E07425
:10448C00171218BCD0E0F074151218BCE054FEF8EA
:10449C00A3E054FFF9900B9EE0A2E0E433FA7B001A
:1044AC00E84AF8E94BF974151218BCE8F0A3E9F0E6
:1044BC00900B9EE0A2E15004D2F08002C2F0741581
:1044CC001218BCE054FDFAA3E054FFFBA2F0E43355
:1044DC00F87900C333F8E933F9EA48F8EB49F97491
:1044EC00151218BCE8F0A3E9F0900B9EE0A2E35083
:1044FC0004D2F08002C2F074151218BCE054F7FA22
:10450C00A3E054FFFBA2F0E433F50C750D0074032B
:10451C00780C12185EEA450CF8EB450DF97415127F
:10452C0018BCE8F0A3E9F0900B9EE0A2E45004D292
:10453C00F08002C2F074151218BCE054EFFAA3E03C
:10454C0054FFFBA2F0E433F50C750D007404780CE9
:10455C0012185EEA450CF8EB450DF974151218BCEF
:10456C00E8F0A3E9F0900B9EE0A2E55004D2F080B5
:10457C0002C2F074151218BCE054DFFAA3E054FF29
:10458C00FBA2F0E433F50C750D007405780C1218D1
:10459C005EEA450CF8EB450DF974151218BCE8F001
:1045AC00A3E9F0900B9EE0A2E25004D2F08002C28C
:1045BC00F074151218BCE054FBFAA3E054FFFBA2F4
:1045CC00F0E433F50C750D007402780C12185EEAE9
:1045DC00450CF8EB450DF974151218BCE8F0A3E97D
:1045EC00F0900323E0602A750C10750D00780C1206
:1045FC001ADB7C247D0374061218BCAA82AB8312CE
:10460C00044174021218878A0C8B0D850C82850D5F
:10461C0083900334E06012E50A600E74151218BC26
:10462C00E04402F0A3E04400F0900334E06006782C
:10463C0001790080047800790074141218BCE048E9
:10464C00F0900321E060067804790080047800790A
:10465C000074141218BCE048F0AC08AD098518823F
:10466C00851983AA82AB83120A77E974181218870A
:10467C007F0602199A74F71218C8EAFEEBFF750848
:10468C0000900334E06006780179008004780079AA
:10469C0000E84208900321E0600678047900800469
:1046AC0078007900E84208A908EEFAEFFB120B310A
:1046BC00E97F0102199A74EE1218C874E512187188
:1046CC008A0C8B0DE9FF8C088D09742D1218BCE037
:1046DC00F50A74086509700A75F006EFA42422FE29
:1046EC00800875F006EFA42421FE7C1B7D00790068
:1046FC00851882851983AA82AB831204598A108B80
:10470C001185100E85110F851882851983AC82AD29
:10471C00837A1BEEF9120849E9703C741A1218BC22
:10472C00E0C394074031741A1218BCE0C3941150C2
:10473C0026E50AF50B780B121ADF74011218BCACC3
:10474C0082AD83E508A2E0E433F9AA0CAB0D120AA2
:10475C00897401121887E9741B1218877F0A0219D1
:10476C009A74F71218C8120D9BE97E00EEC3940AD6
:10477C0050557C0679FFEEFA7B00EA75F00EA4CA60
:10478C00A8F075F000A428F875F00EEBA428FB74C3
:10479C003C2AFA74033BFB1204B9E97027EEF87952
:1047AC0000E875F00EA4C8AAF075F000A42AFA75FA
:1047BC00F00EE9A42AF9743C28FA740339FB790049
:1047CC00120DA1E90E80A57F0102199A74F6121838
:1047DC00C874FD121871EAFEEBFF9003D6E0F8A343
:1047EC00E0F9E84970397508D87509037808121A88
:1047FC00DB7508027509007808121ADB75088575D7
:10480C0009817808121ADB7CFF7DFF7A017B00128C
:10481C000BF174061218879003D6EAF0A3EBF09014
:10482C0003D6E0F8A3E0F9E84970030248F9E4F58F
:10483C0008F5097808121ADB74041218BC85820872
:10484C008583097808121ADB74041218BC85820857
:10485C008583097808121ADB9003D8121AF27902B0
:10486C009003D6E0FCA3E0FDEEFAEFFB120D1774FB
:10487C0008121887E9704A851882851983E0FA7B3B
:10488C000074011218BCE0F87900E4C8F9EA28F5C4
:10489C0008EB39F509E508450960267808121ADB9A
:1048AC009003D6E0F8A3E0F5838882A3A3A3A3E04A
:1048BC00FCA3E0FDEEFAEFFB120639740212188726
:1048CC00E9E4F508F5097808121ADB9003D8121AF6
:1048DC00F27CFF7DFF9003D6E0FAA3E0FB120BFD08
:1048EC0074041218879003D6EAF0A3EBF09003D669
:1048FC00E0F8A3E0F9E849700479018002790074CA
:10490C00031218877F0202199AC082C0839003D4C5
:10491C00E0F8A3E0F9E84960179003D4E0FAA3E0CB
:10492C00FB12046BE9F89003D47400F0A37400F04C
:10493C00900BA0740AF0D083D082020135C082C0E3
:10494C0083E9900C8EF0024B7374F71218C8E9903F
:10495C000584F07CBC7D057AFF7BFF120D2F900542
:10496C008574FFF0A3F0A3E4F0A3F07905120CBD5D
:10497C00900584E0F9120BD97A477B0D120EEB7F70
:10498C000102199A74F41218C88A088B09EB548026
:10499C006030900584E0F912047D8A0A8B0BAE0A14
:1049AC00AF0BEE4F60138E828F83E064B0700312F6
:1049BC000CCFEEFAEFFB12046BAA08E5096480FB3E
:1049CC0080047A007B00024B4274F21218C874FC0B
:1049DC00121871EAFEEBFFEE4F603874021218BC2D
:1049EC00EEF0A3EF124DA7ECF0A3ED124DA7AA82A7
:1049FC00AB83120BD3E9F508707374121218BC1246
:104A0C00595BE50A450B60658E828F83124A83EEF3
:104A1C004F700575080280557A067B001204F58AE2
:104A2C000C8B0DA80CA90DE8497005750813803D79
:104A3C0088828983E4124A8DA3A3EEF0A3EF125D62
:104A4C00F4E50AF0A3E50BF090058A124B159005DE
:104A5C008A6017E0FCA3E08003EAFCEBFD8C828DFE
:104A6C0083124B1570F38C828D83125880A90874B5
:104A7C0004121887025FF6A3A3A3A3E0FEA3E0FF32
:104A8C0022F0A3F0888289832274F21218C8890A52
:104A9C00E975F017A4FEAFF0900589E4F090058756
:104AAC00124B15600A1204FB900587E4F0A3F0EE9C
:104ABC00FAEFFB1204F58A088B09EA4509602FEE20
:104ACC00FCEFFD7900120459900587E508F0A3E589
:104ADC0009F07B008008124AFFE4F0A3F00BEBC353
:104AEC00950A40F2E50A900589F079008002791365
:104AFC00025FF6EB75F017A4F8A9F0900587E02893
:104B0C00FAA3E0398A82F58322125616EA4B2274F4
:104B1C00F41218C87900EAA2E0501B7508EE75096A
:104B2C00807808121ADB7C047D007A907B0C120CC6
:104B3C00B774021218877F0402199AC082C083903E
:104B4C00058A124B7A601C88828983A3A3E06A7061
:104B5C0003A3E06B8882898370E8A3A3A3A31256F6
:104B6C001280047A007B00D083D08202013512605F
:104B7C00C9E8492274EE1218C874FC121871EAFEC6
:104B8C00EBFF851882851983E4F0A3F0EE24021262
:104B9C005864EE2405124D95EE2404F50EEF1251D7
:104BAC007AE024FE603924FC604624FE605224FE28
:104BBC00605E24FE7003024C9A24FE7003024D12B8
:104BCC0024FE7003024D2124FE7003024D3024FCA0
:104BDC007003024D3F24FE7003024D4E024D8B902C
:104BEC0005A37417F0A3E4124DAF1208CD024D8B40
:104BFC00851882851983AC82AD83120CD5024D5B6E
:104C0C00851882851983AC82AD83120CDB024D5B57
:104C1C00850C08850D0974021218BCAC82AD838515
:104C2C000882850983125612120BF78A0C8B0DAC75
:104C3C000CAD0DEC4D6042E4F50CF50D780C121A30
:104C4C00DB750CA3750D05780C121ADB750CA475AD
:104C5C000D05780C121ADB74081218BC121AF279B2
:104C6C001612560C120D177408121887E9F50C70F1
:104C7C000B1256081208E5800F750C018508828509
:104C8C000983124D9D125880850C08024D5E7402EA
:104C9C001218BCAC82AD83850C82850D8312561222
:104CAC00120BF78A108B11AC10AD11EC4D604385D3
:104CBC000C82850D83A3A3121AF27510A37511052E
:104CCC007810121ADB7510A47511057810121ADB06
:104CDC0074081218BC121AF2791612560C120D170F
:104CEC007408121887E9F509700B1256081208EBB4
:104CFC00800F750901850C82850D83124D9D12580C
:104D0C0080850908804C851882851983AC82AD8317
:104D1C00120CE1803A851882851983AC82AD83121E
:104D2C000CE7802B851882851983AC82AD83120C1D
:104D3C00ED801C851882851983AC82AD83120CF32F
:104D4C00800D851882851983AC82AD83120CF9E92C
:104D5C00F508E50860298E828F83A3E06414601F38
:104D6C00850E82850F83E09005A3124DA71260C5B6
:104D7C009005A4125880E508A3124DAF1208C7EE97
:104D8C00FAEFFB120C7B02576CF50CEF3400F50DAF
:104D9C00221260C985188285198322F085188285B4
:104DAC00198322F07CA37D05850A82850B8312561C
:104DBC00162274EE1218C874FC1218718A0A8B0B26
:104DCC008C0E8D0FEA2405F508EB3400F5097C15E3
:104DDC007D0079007AA37B05120459E5082402F5BD
:104DEC000CE509124D9885188285198385821085EA
:104DFC0083117810121ADB850882850983A3A3A37B
:104E0C00A31252C2121ADBE5082405F510E5093489
:104E1C0000F5117810121ADB850C82850D83125661
:104E2C001C120BF174061218878A108B11AE10AF7E
:104E3C0011E50A2402F50AE50B125867EE4F7003D0
:104E4C00024F84801774021218BC12561288828981
:104E5C0083EAF0A3EBF09005A3E004F09005A3E047
:104E6C00C394054003024F84E4F510F51178101239
:104E7C001ADB75108C7511057810121ADB75108DF4
:104E8C007511057810121ADB74061218BC121AF27E
:104E9C007910EEFCEFFD12560C120D177408121857
:104EAC0087E9705E850882850983A3A3A3A3A3A3C6
:104EBC00A3E0F890058CE06870481252C2121ADB1D
:104ECC007C8D7D05E5082408FAE5093400FB120405
:104EDC00537402121887E960298E828F83A3A3A3CF
:104EEC00A31256129005A3E0F51074027810121854
:104EFC005E74A42510F58274053511F583EAF0A3D0
:104F0C00EBF074021218BC85821085831178101294
:104F1C001ADB74021218BC121AF2850C82850D83EE
:104F2C001260DA120BFD74041218878A108B11AE02
:104F3C0010AF119005A3E0F51075110074027810F4
:104F4C0012185E74A32510F874053511F98882893E
:104F5C0083A3124B157003024E48E82403F8E9347E
:104F6C0000F9EE4F6003024E518882898374FFF082
:104F7C00A3F09005A3E004F09005A3E0600A12569C
:104F8C00081208D97900800B85088285098312588C
:104F9C0077790A02576C74EA1218C874FE121871E9
:104FAC008C128D13EA2405F50CEB1260E4124A877F
:104FBC00750800750900EA2402F510EB3400F511B0
:104FCC0085188285198385820A85830B780A121AC3
:104FDC00DB850C82850D83A3A3A3A3125184121A23
:104FEC00DBE50C2405F50AE50D125867780A121A50
:104FFC00DB850C82850D831260D8120BF1740612BE
:10500C0018878A0A8B0BEA450B7003025135EA2488
:10501C0004F50EEB12517A124A878A828B83A3A372
:10502C00A3E0F9851082851183125612120BDFE969
:10503C00F5096003025135E4F514F5157814121ACC
:10504C00DB75148C7515057814121ADB75148D75B7
:10505C0015057814121ADB74061218BC121AF279A0
:10506C0013AC0AAD0B851082851183125612120DEA
:10507C00177408121887E9F5096003025135900579
:10508C008CE0F8E5087009E024029005A4F0801784
:10509C009005A4E0FCE82402FAE43400FBEA6C700E
:1050AC0001EB6003025139850882AA821252B9942D
:1050BC00141252B15073850E82850F83E0C0E074D8
:1050CC00A52A125171D0E0F00508850E82850F8358
:1050DC00A3E0C0E085080A74A5250A125171D0E03E
:1050EC00F0050890058C125184121ADB7C8D7D051D
:1050FC0085080A74A5250AFA74053400FB120441CC
:10510C00740212188790058CE02508F50874FF6E60
:10511C00700374FF6F6012EE24010EEF3400FFE594
:10512C0008C394145003024FCCE50860131254FDCD
:10513C008510828511831256121208DF79008014B3
:10514C00E509700375090A851282851383EEF0A3B5
:10515C00EFF0A90974021218877F0E02199A8508BC
:10516C000C74A5250CF58274053400F583223400EB
:10517C00F50F850E82F58322125E072274EE12184B
:10518C00C874FE1218718C0E8D0FEA2405F50CEB09
:10519C00124D98750B009005A3E4F0F50AEA240271
:1051AC00F508EB3400F50980499005A3E0FA900569
:1051BC008CE0F81252B994171252B1400D9005A31D
:1051CC00E0F87416C39890058CF01252C2121ADBD8
:1051DC007C8D7D0574A42AFA74053400FB120441FD
:1051EC00740212188790058CE0F89005A3E028F063
:1051FC00050AE50C2416F582E50D125175E0F8E56B
:10520C000AC398400302529A9005A3E0C394165027
:10521C007DE50AC333F8E433F9E50C28FEE50D39D6
:10522C00FF851882851983AC82AD838E828F8312A1
:10523C005612120BF78A108B11AC10AD11EC4D708D
:10524C0005750B018043E4F510F5117810121ADB8B
:10525C0075108C7511057810121ADB75108D75117F
:10526C00057810121ADB74061218BC121AF2791691
:10527C00850882850983125612120D1774081218AC
:10528C0087E9F50B70030251B512587380107CA39B
:10529C007D058508828509831256121208F1A90B27
:1052AC00740202576EE99400C365D03322EA28F8E1
:1052BC00E43400F9E822E0F510751100781022743E
:1052CC00EA1218C874FC1218718A0C8B0D8C128D92
:1052DC0013EA2405F50AEB125867750800750900E6
:1052EC00E50A2402F510E50B3400F51174021218CE
:1052FC00BC85820E85830F780E121ADB850A828597
:10530C000B83A3A3A3A3125DB3121ADBE50A240536
:10531C00F50EE50B3400F50F780E121ADB851082B2
:10532C0085118312586D12560C120BF1740612185B
:10533C00878A0E8B0FAE0EAF0FE50C2402F50EE52F
:10534C000D3400F50F80408882898374FFF00508C6
:10535C0012516A74FFF0050890058CE0F50C750D80
:10536C0000780C121ADB7C8D7D0585080C74A52544
:10537C000CFA74053400FB12044174021218879065
:10538C00058CE02508F508EE4F60718E828F83A3A3
:10539C00A3A3E0F9850E82850F83125612120BDF40
:1053AC00E9F509EE2404124D95E97044E4F514F581
:1053BC00157814121ADB75148C7515057814121ADD
:1053CC00DB75148D7515057814121ADB7408121818
:1053DC00BC121AF27911EEFCEFFD850E82850F835B
:1053EC00125612120D177408121887E9F509602766
:1053FC00850C82850D831254F3125880E5087003D6
:10540C000254D91254FD850E82850F831256121246
:10541C0008F779000254EE850882AA82EA90058C7E
:10542C007009E024049005A4F08022E0F89005A413
:10543C00E0F514E82404FCE43400FDEC6514700180
:10544C00ED70C01252B994121252B150B6850C8242
:10545C00850D83E0C0E074A52A125171D0E0F005EF
:10546C0008850C82850D83A3E0C0E012516AD0E060
:10547C0012550F85820C85830D780C121ADB74047F
:10548C001218BC121AF28510828511831260DA127E
:10549C000BFD74041218878A0C8B0DAE0CAF0D85A6
:1054AC00080C74A5250CF874053400F9EE4F700344
:1054BC00025353851882851983E08882898312559B
:1054CC000FA3E0C0E012516AD0E0025361E509700D
:1054DC000375090A850A82850B831254F3125880CE
:1054EC00A90974040251621260C985128285138362
:1054FC00229005A4E0F5F0E508849005A3F07CA3C8
:10550C007D0522F005088518828519832274EC121A
:10551C0018C874FE1218718A088B098C0E8D0FEA4C
:10552C002405FEEB3400FF851882851983AC82AD0F
:10553C00838E828F83125612120BF78A0A8B0BEE14
:10554C002418124D95EA450B70030255E31257557A
:10555C005032851882851983125612120D0B8A103F
:10556C008B11EA4511606B7912AC0AAD0B85088280
:10557C008509831256128510828511831218C6E98B
:10558C00F50A7058E4F50AF50B780A121ADB8E82CC
:10559C008F83A3A3E0F50A780A121ADBEE24031218
:1055AC005864780A121ADB8E828F8312561C120DE5
:1055BC001D7406121887E9F50A7021850C82850D79
:1055CC0083E0701F8508828509831256121208FD2C
:1055DC008011750A0E8009750A018004E50A6003C2
:1055EC00125873850C82850D83E06004790080026B
:1055FC00A90A74021218877F0C02199A7CA37D05E4
:10560C00850A82850B8312561622E0FAA3E0FB2250
:10561C00E0FCA3E0FD8508828509831256162274EE
:10562C00EE1218C874FE1218718A088B098C0C8D36
:10563C000DEA2405FEEB3400FF750E0085188285FB
:10564C001983AC82AD838E828F83125612120BF7A4
:10565C008A0A8B0BEA450B700302574112575550BF
:10566C0035851882851983125612120D0B8A0E8BF2
:10567C000FEA450F605E7912AC0AAD0B8508828586
:10568C000983125612850E82850F831218C6E9F50E
:10569C000E600302574485088285098312595BAA60
:1056AC000AFB120CFF8A108B11A810A911E8497083
:1056BC001E7AFF7BFF120CFF8A108B11A810A91108
:1056CC00E849606C88828983E50AF0A3E50BF075E4
:1056DC000A008007750E0E805F050A900589E0FAB6
:1056EC00E50AC39A504AE50A75F017A4FAABF0889C
:1056FC00828983A3A3E02AFAA3E03BFB8A828B83F3
:10570C0012586DEC4D70D2750A17750B00780A1291
:10571C001ADBEEFCEFFD1204417402121887EEFC4A
:10572C00EFFD850882850983125612120903801435
:10573C00750E098003750E011260C1850C82850DF2
:10574C0083125880A90E0252ACE5082402F508E534
:10575C00093400F5098A828B83A3A3A3E0A2E52276
:10576C0074041218877F0A02199A74EC1218C88CE8
:10577C00108D11EA2405F50CEB124D98750F00EA0B
:10578C002402F50AEB125867850A82F58312561229
:10579C00120CFF8A088B09EA4509700302585975E7
:1057AC000E008071850C82850D83E06401704F8E34
:1057BC00828F83A3A3121AF28E828F83A3A3A3A337
:1057CC00E0F5127513007812121ADBEE2405F512AF
:1057DC00EF3400F5137812121ADB12560C120D1D51
:1057EC007406121887E9F50F6014850C82850D83F9
:1057FC00E4F01260C18510828511831258807C17E9
:10580C007D007900EEFAEFFB1204598E828F83E44F
:10581C00F0A3F0050E900589E0F8E50EC398501E34
:10582C00E50E75F017A4F8A9F0850882850983A305
:10583C00A31260EE12586DEC4D60030257B0850850
:10584C008285098374FFF0A3F0E50F700612560CE5
:10585C00120909A90F025603F50AEF3400F50B22C1
:10586C00A3E0FCA3E0FD228E828F831260C9850E1B
:10587C0082850F83E8F0A3E9F022C082C0839005F3
:10588C0085E06A7003A3E06B70067A857B05800463
:10589C007A007B00024B73C082C08378008C828DAF
:1058AC0083E06A7003A3E06B7010E875F003A4F852
:1058BC00A9F0EC28FAED39FB8015088C828D83A3B6
:1058CC00A3A3E06A7003A3E06B60DF7A007B0002A5
:1058DC004B7374F61218C8120CC98A828B83E5823A
:1058EC00458370067A007B008007A3A3A3A31256FE
:1058FC0012025F7274F21218C8E9FE740E1218BC10
:10590C0012595B74101218BC125DD38C828D83E01B
:10591C0064027036A31260CFF50CA3E0F9A80C74E6
:10592C00026870037429697021750C02750D00787A
:10593C000C121ADB7808121ADB780A121ADBEEF951
:10594C00120D41740612188780027901025FF6E08D
:10595C00F50AA3E0F50B2274E81218C874FB1218B0
:10596C0071E9851882851983F08A168B17ECFEED88
:10597C00FF751000741D1218BC1260C5741D12182E
:10598C00BC1258808E828F83A3A3A3E0A2E4502D77
:10599C00741D1218BC125612120D0B8A828B83E5E1
:1059AC008245837003025DA4790AEEFCEFFDAA1612
:1059BC00AB171218C6E9F5106003025DA7741F122D
:1059CC0018BC125DD374211218BC12595B742312CB
:1059DC0018BCE0F50EA3E0F50F8E828F83E0640215
:1059EC006003025D52A31260C5850882850983A3FA
:1059FC00858212858313EE2406124D958882898345
:105A0C00E0FAA3E0F9EA2400F514E439F51578146A
:105A1C00121B65010000280128475A070002280CB8
:105A2C005B0328795A0029435C01296E5C02290F1B
:105A3C005C0329435C0429ED5C525DE50E450F6067
:105A4C0003025D4D850C82850D83125DC8FAE9FB5E
:105A5C008A828B83E0850A82850B83125DFE121A83
:105A6C00DB8A828B83A3E0FCA3E0025CD7E50E45C6
:105A7C000F6003025D4D850A82850B837401F01261
:105A8C005DDB850882850983F07C007D008E828F2A
:105A9C0083A3A3A3A3E02401FAA3E03400FB120B1D
:105AAC00F7EA4B60418A828B83E02402F8850A82F4
:105ABC00850B83E028F0EA2404F8EB3400F98882A3
:105ACC008983E0851282851383125E10125DFE12AB
:105ADC001ADB8A828B8312586CE5082403FAE509D9
:105AEC003400FB025CDC850A82850B83E02404F025
:105AFC007C047D007900AA12AB13120459025DA735
:105B0C00E50E450F6003025D4D125DDBFEA3E0FF69
:105B1C00850A82850B837404F0EE850882850983DF
:105B2C00F0EF851282851383F074031218BCAC82DB
